:020000040800F2
:100000003006002001010008E72800080F21000841
:10001000E5280008950A0008052D000800000000EA
:10002000000000000000000000000000732A00082B
:10003000970A000800000000712A0008752A0008CD
:100040001B0100081B0100081B0100081B01000820
:100050001B0100081B0100081B0100081B01000810
:100060001B0100081B0100081B0100081B01000800
:100070001B0100081B0100081B0100081B010008F0
:100080001B0100081B0100081B0100081B010008E0
:100090001B0100081B0100081B0100081B010008D0
:1000A0001B0100081B0100081B0100081B010008C0
:1000B000E12A0008ED2A00081B0100081B010008C6
:1000C0001B0100081B0100081B0100081B010008A0
:1000D0001B0100081B0100081B0100081B01000890
:1000E0001B0100081B0100081B010008DFF80CD0F1
:1000F00000F0AEFC00480047C12E0008300600208A
:100100000648804706480047FEE7FEE7FEE7FEE7B1
:10011000FEE7FEE7FEE7FEE7FEE7FEE7DF2A000870
:10012000ED000008D2B201E000F8012B491EFBD21D
:1001300070470022F6E710B513460A4604461946F2
:10014000FFF7F0FF204610BDF0B480EA0102D40FA3
:100150004200B2EB410F02D20246084611464A0065
:1001600042D0C30DDDB2C1F3C752AD1A202D35DA2E
:10017000C1F3160141F4000204B15242C5F1200658
:1001800002FA06F12A411044B3EBD05F23D0C4B188
:10019000012DA0EBC35009DCF0BC4FF0004202EA95
:1001A000C352DBB200F5000000F02EBB400000F1AE
:1001B000807000EBC350A0F1807040EAD17049001C
:1001C00009E0490841EAC071A0EBC35000F5000006
:1001D000400800EBC350F0BC00F00DBB61420122AF
:1001E00002EB4101001BF6E7F0BC704781F00041D3
:1001F000AAE780F00040A7E780EA010210B502F00C
:100200000043400022D04A001FD0010E01EB1261D2
:10021000C0F35600C2F3560240F4000042F400025C
:10022000A0FB022000047F39140400D0401C50EAD7
:10023000124001D44000491EC2B20C0604EBD0109B
:10024000401C4008802A02D003E0002010BD20F0AE
:100250000100002900DA0020184310BD30B480EA04
:10026000010202F0004530F0004221F0004013D0BE
:1002700090B1C30DD40DC2F31601C0F31600E41AF9
:1002800041F4000140F400027D34914201D3641C2A
:1002900000E04900002C02DA30BC002070474FF427
:1002A00000000023914201D3891A034340084FEA1A
:1002B0004101F7D151B1914202D14FF0004105E027
:1002C00002D24FF0010101E06FF0010103EBC450D5
:1002D000284430BC00F08FBA2DE9FE4F804681EAF9
:1002E0000300C00F0C46009021F0004123F00045B0
:1002F000B8EB0200A94105D24046214690461C4673
:100300000B46024623F00040104347D0270DC7F3A9
:100310000A00C3F30A510290401A019040286BDA98
:10032000C3F3130040F4801B0098924620B10023D1
:10033000D2EB030A63EB0B0B01985946C0F1400264
:10034000504600F037FA06460D4650465946019A87
:1003500000F03FFA10EB08006141002487EA1152D7
:1003600084EAE7731A4340D0009A62B3019A012AE3
:100370004FEA075215DC001B61EB02014FF000420F
:1003800002EA0752CDE90042001C41F580113246D5
:100390002B4600F076FA03B0BDE8F08F40462146C8
:1003A000F9E7001B61EB0201001C41F58013001806
:1003B0005B412018A2F5001747EB030140EAD57016
:1003C000B6196D4111E06D084FEA360645EAC07571
:1003D0004FEA0752001B61EB0201001C41F580113E
:1003E00049084FEA30000019514132462B4603B00C
:1003F000BDE8F04F00F036BA00980122400000231B
:10040000D0EB020263EBE073009821464FEAE07400
:10041000B8EB000061EB0401E9E783F000435BE720
:1004200081F0004158E72DE9FE4F81EA030404F012
:10043000004421F0004100944FF0000B23F00043F2
:1004400050EA01045ED052EA03045BD0C3F30A54BD
:10045000C1F30A552C44A4F2F3340194A0FB0254D6
:10046000C1F3130141F48011C3F3130343F4801368
:1004700001FB024400FB034E840A970A44EA8154BC
:1004800047EA8357A4FB076802958D0A05FB078599
:100490004FEA932C04FB0C542705029D4FEA0658A3
:1004A00047EA1637B5EB08056EEB070C870E920E80
:1004B00047EA811742EA8312A7FB0201B6EB0B0160
:1004C00064EB00042B0D43EA0C335E1844EB1C5024
:1004D000DA465146E7FB0201C5F313044FEA0B333A
:1004E00043EA14534FEA0432019C43EA0603A4F1A1
:1004F0000C040294009CCDE900B400F0C2F903B0F2
:10050000BDE8F08F00200146F9E72DE9F04D81EAC2
:10051000030404F0004B21F0004514464FF0000A9C
:1005200023F0004150EA050220D054EA01021DD018
:10053000C5F30A570246C5F31303C1F31300C1F311
:100540000A5640F4801543F48013A7EB0608101BED
:10055000D64608F2FD3873EB050002D308F1010816
:1005600001E092185B41B8F1000F03DA0020014668
:10057000BDE8F08D00204FF48011064684460EE061
:10058000171B73EB050705D3121B63EB050306432B
:100590004CEA010C49084FEA300092185B4150EADE
:1005A0000107EDD152EA030012D082EA040083EA87
:1005B0000501084305D0101BAB4106D201220023E0
:1005C00006E000224FF0004302E06FF001025310FA
:1005D0001AEB06004CEB085110EB0A0041EB0B0143
:1005E000BDE8F04D00F03EB9002801DBC0F100404D
:1005F000002901DBC1F10041814201D8012070478F
:1006000000207047002801DBC0F10040002901DB19
:10061000C1F10041814201D20120704700207047A2
:10062000002801DBC0F10040002901DBC1F10041DD
:10063000814201D30120704700207047002801DB70
:10064000C0F10040002901DBC1F10041814201D924
:100650000120704700207047002801DBC0F10040F6
:10066000002901DBC1F10041814201D10120704725
:1006700000207047C10F80EAE0700844CA07962343
:10068000002100F0C1B80EB540F2334102910021C3
:10069000CDE900110A460B4600F0F3F803B000BDA7
:1006A00020F00040C10DC0F3160040F400007F2987
:1006B00001DA00207047962903DCC1F19601C84099
:1006C000704796398840704700F0004230F0004093
:1006D0000AD0C10D01F56071C0F3160042EA015164
:1006E000C20840071143704700200146704701F0DF
:1006F000004330B421F0004150EA010206D00A0D57
:10070000A2F56072C1F31301002A02DC30BC0020A4
:100710007047440F44EAC104C100E01830BC00EB4C
:10072000C25000F068B830B50B46014600202022C8
:10073000012409E021FA02F59D4205D303FA02F5EE
:10074000491B04FA02F52844151EA2F10102F1DC4E
:1007500030BD2DE9F05F0546002092469B46884655
:100760000646814640241BE028464146474622462D
:1007700000F080F953465A46C01A914110D31146F1
:100780001846224600F016F82D1A67EB01084F466E
:1007900022460120002100F00DF817EB00094E4120
:1007A000201EA4F10104DFDC484631462A464346B8
:1007B000BDE8F09F202A04DB203A00FA02F1002075
:1007C00070479140C2F1200320FA03F3194390408F
:1007D0007047202A06DBCB17203A41FA02F043EAA1
:1007E000E07306E041FA02F3D040C2F120029140EA
:1007F0000843194670470029A8BF7047401C4900AC
:1008000008BF20F00100704710B4B0FA80FC00FA75
:100810000CF050EA010404BF10BC704749B1CCF1A0
:10082000200421FA04F411FA0CF118BF012121432C
:100830000843A3EB0C01CB1D4FEA00614FEA1020E7
:1008400042BF002010BC704700EBC3501044002989
:10085000A4BF10BC7047401C490008BF20F0010035
:1008600010BC704710B5141E73F1000408DA401C68
:1008700041F1000192185B411A4301D120F00100BF
:1008800010BD2DE9F04D92469B4611B1B1FA81F2AF
:1008900002E0B0FA80F220329046FFF78BFF044668
:1008A0000F4640EA0A0041EA0B0153465A46084304
:1008B00013D0114653EA010019D0C8F14002504646
:1008C00000F0D8F805460E46504659464246FFF716
:1008D00071FF084305D0012004E020463946BDE8F9
:1008E000F08D0020054346EAE0762C4337430A9812
:1008F0006305E40AA0EB08000022FD0A44EA47541D
:100900000A3002D500200146E9E7010510196941C6
:10091000DDE9084500196941BDE8F04DA2E770B571
:1009200021F0004303430CD0C1F30A550024D5EB5A
:10093000040564EB0403D617AD1AB34102DB0020B3
:10094000014670BD201841EB025170BD2DE9F04DFC
:1009500000231A461B1A8A4103DB00200146BDE82A
:10096000F08DC1F30A52C1F3130141F480154FF029
:10097000000BD10702D100186D41521E002704461A
:1009800040F2FF11384601EB620A3E4680460246BD
:1009900000204FF4801100F06DF8C2197141BB18AE
:1009A00046EB0100B4EB030C75EB000C04D3E41A26
:1009B00065EB000517460E46241908F101006D414C
:1009C00080463428E3DDF91946EB0600091BA841EF
:1009D00003D24FF0FF32134601E0002213461BEB17
:1009E000070046EB0A51BDE8F04DFFF73BBFC1F3EE
:1009F0000A52C1F3130140F2FF3341F480119A42CD
:100A000002DA00200146704740F233439A42A2F2D4
:100A1000334202DC524200F02DB8FFF7CBBE00009B
:100A200030B5041E71F1000404DB4FF00044404275
:100A300064EB0101141E73F1000405DB1C464FF04A
:100A40000043524263EB0403994208BF904230BD19
:100A5000064C074D06E0E06840F0010394E807000B
:100A600098471034AC42F6D3FFF744FB40490008E6
:100A700060490008202A04DB203A21FA02F0002114
:100A8000704721FA02F3D040C2F12002914008439E
:100A900019467047FEE77047EFF3108072B6FEE725
:100AA0002A48016811F0100F01D1002105E08E499C
:100AB000CA6942F00202CA611021026812F0040FF2
:100AC00006D0894A41F00401D36943F00103D361A0
:100AD000026912F0010F08D0834AD36943F004037E
:100AE000D361026922F0010202610160704700BF18
:100AF00070B5044600F0FAF90546661C1348016813
:100B000011F0010F09D0002EF8D024B100F0EEF959
:100B1000401BA042F2D9032014E0016811F0200F1D
:100B20001CBF20210160016811F0100F07D101697D
:100B300011F0010F04BF006810F0040F04D0FFF79C
:100B4000AFFF0120C0B270BD0020FBE70C200240C7
:100B500070B505466E1C00F0C9F904461EB1E548A3
:100B60000078054401E04FF0FF3500F0BFF9001BAD
:100B7000A842FAD370BD00BF2DE9F8435A4E05468E
:100B80008946307E012801D1022021E00120307603
:100B90004CF250302C68FFF7ABFF544F022C13D1AE
:100BA00098B90020F061386840F004003860386877
:100BB00040F0400038604CF25030FFF799FF396840
:100BC00021F00401396001E030B1012000213176CB
:100BD000C0B201B0BDE8F0834FF0FF304FF0000825
:100BE000C9F800000120A9680C4618E0C6F81C806E
:100BF000386840F0020038607C60386840F040009F
:100C000038604CF25030FFF773FF3968002821F04C
:100C10000201396009D1A96804F580640020EA68FE
:100C200001EB82218C42E1D3D0E7C9F80040CDE747
:100C30002E48016841F0800101600020704700BF2C
:100C40002DE9F84FDFF8A08081461C4692460E46FB
:100C500098F81800012801D1022042E0012088F80C
:100C600018004CF25030FFF743FFB8BBB9F1020F48
:100C70004F466FF01F0B18BF0427B9F1010F08BFD3
:100C80004F464FF000095FFA89F0874225D90021CD
:100C90000201C8F81C102AFA02F2144D296841F02A
:100CA000010129602021A1EB001104FA01F1114397
:100CB0000BEB0012002AA8BF24FA02F126F810104C
:100CC0004CF25030FFF714FF296809F101090028A0
:100CD00021F001012960D6D000E00020002188F831
:100CE000181001B0BDE8F08F100200201020024063
:100CF0000748C16811F0800F04BF00207047054904
:100D0000016005490160C068C0F3C010704700BFB2
:100D10000420024023016745AB89EFCD2DE9FE4F4A
:100D2000614A04234FF0000B4FF0010C4FF00F0EFF
:100D30004FF0000A4FF00008904200F1140208BF83
:100D40000323019200930A6832FA08F308BFBDE852
:100D5000FE8F0CFA08F73A4200F0A1804A68032A95
:100D600016D9112A26D0122A28D0504B9A4213D0D5
:100D70004F4B9A421CBF4F4B9A420DD04E4B9A425A
:100D80001CBF4E4B9A4207D04D4B9A4204D022E0F2
:100D9000DFE802F002181B1F8A6842B1012A019A9B
:100DA0004FF0080A08BF00F11002176013E04FF07F
:100DB000040A10E0CA6802F1040A0CE0CA6802F1F1
:100DC0000C0A08E0D1F80CA005E0CA6802F1080A94
:100DD00001E04FF0000AB8F1080F0246454628BF6F
:100DE00004321368374C28BF2544AE000EFA06F5CE
:100DF0000AFA06F6AB4333431360CA79D2064ED5DE
:100E0000314A4FEA98060BF00C090EFA09F51368FF
:100E100043F001031360126802F001020292029B88
:100E20002A4CA4F57E7353F8262022EA050C284AA2
:100E300090420AD0274A90420AD0274ADDF800E0C3
:100E4000904208BF4FF0020E04E04FF0000E01E0A8
:100E50004FF0010E0EFA09F24FF00F0E42EA0C02AB
:100E60004FF0010C43F826204A681C4BA66812F488
:100E7000801F0CBFBE433E43A66096021E6854BF4F
:100E8000BE433E431E609303636854BFBB433B4372
:100E9000D2036360226854BFBA433A4322600BF125
:100EA000040B08F101084EE7001401400000111086
:100EB000000012100000211000002210000031106C
:100EC00000003210F8FFFF3F1810024000040140FC
:100ED00000080140000C0140001001400C040140DA
:100EE0008068084018BF01207047000001488068F2
:100EF000704700BF70000020B0B504462CB394F8D2
:100F00003D0028B9002084F83C00204600F092FA09
:100F1000242084F83D002068016821F0010101606F
:100F2000016841F400410160016821F40041016061
:100F300000F01AFC65684849484A8D423CBF48F2B7
:100F40008042C0F21E02904201D20120B0BD44494D
:100F5000B0FBF1F2216801384B6823F03F031343E3
:100F60004B600B6A23F03F0C3B4B9D4221BF4FF47B
:100F700096735A434FF47A73B2FBF3F201324CF694
:100F8000FF7342EA0C020A62CA6922EA030C354A7C
:100F9000954209D86A00B0FBF2F001306FF31F30C0
:100FA000042898BF04202DE0D4F808E0BEF1000F1B
:100FB00008D0192204236A43B0FBF2F2013263F332
:100FC0001F3206E005EB4502B0FBF2F201326FF38F
:100FD0001F3212050BD0BEF1000F0AD019226A434E
:100FE000B0FBF2F00422013062F31F3008E0012070
:100FF00008E005EB4502B0FBF2F001306FF31F3063
:1010000040F4004040EA0C00C8610868D4E90723B6
:1010100020F0C000104348F2FF321843086088688F
:101020009043D4E90323184310438860C868D4E987
:10103000052320F0FF0010431843C860086840F003
:101040000100086000202021206484F83D10206306
:1010500084F83E00B0BD00BFA186010000093D003C
:1010600040420F00A08601002DE9FF470446002002
:101070001F4616460D460390FFF738FF814694F849
:101080003D0020280CD1CDF80090204601221923E4
:10109000E64901F05EF918B994F83C00012804D142
:1010A0000220C0B204B0BDE8F0870122DDE90C10D7
:1010B000DDF8388084F83C202268136813F0010FB3
:1010C00002BF136843F001031360136823F4006345
:1010D000136022223B4684F83D20402284F83E20C3
:1010E000002222646162608529463246608D208537
:1010F000CF48E0622046CDE9008901F021F80028C0
:1011000040F0FF80218DB9B12068012921D101680B
:1011100021F480610160EFF3108072B6002002902C
:10112000206841690291816902910299016841F444
:101130000071016062B62DE00020029020684169D4
:101140000291816902910299016841F40071016084
:1011500020E00268022913D142F400610160EFF33C
:10116000108072B600200290206841690291816966
:1011700002910299016821F48061016062B609E080
:1011800042F480610160002102914169029180690D
:1011900002900298208DDFF8D0A946F2A8162327E6
:1011A00095E085B2032D0AD8012D2AD1204641466B
:1011B0004A4601F069F9002800F07C80A1E0204651
:1011C00041464A4601F060F9002840F09A802068C4
:1011D0000069616A0870606A01306062208D0138C0
:1011E0002085618D0139618521684A6912F0040FFB
:1011F0006DD080B2032802BF086820F480600860C8
:1012000058E0CDF800902046002243463E4901F0C8
:10121000A0F8022D17D1002873D1EFF3108072B619
:101220002068016841F4007101600069616A08701A
:10123000606A01306062208D01382085608D013840
:10124000608562B636E000285BD12068016821F431
:1012500080610160EFF3108072B620680069616AF6
:101260000870606A01306062218D01392185618DCD
:1012700001396185DAF80010B1FBF6F17943039189
:10128000039901390391039969B321684A6912F0FE
:10129000040FF5D00A6842F400720A60096901700F
:1012A000606A01306062208D01382085608D0138D0
:1012B000608562B620680069616A0870606A013002
:1012C0006062208D01382085618D013961850104BE
:1012D0007FF467AF202084F83D00002084F83E00B2
:1012E00084F83C00DDE600202021206384F83D10D6
:1012F00084F83E00216C41F02001216462B684F83C
:101300003C000120CDE600BF040001002DE9FE43B2
:10131000994616460F460446FFF7E8FD054694F841
:101320003D0020280BD100952046012219233F497A
:1013300001F00FF818B994F83C00012804D10220FC
:10134000C0B203B0BDE8F0830122DDE90A10DDF888
:10135000308084F83C202268136813F0010F02BF2C
:10136000136843F001031360136823F400631360F0
:1013700021224B4684F83D20402284F83E20002262
:1013800022646162608539463246608D2085284836
:10139000E0622046CDE9008500F052FF08B101204F
:1013A000CEE7208D23E0204641462A4601F0A2F8F0
:1013B00028BB616A2268084610F8013B136160622D
:1013C000238D581E2085678D013F6785576917F06B
:1013D000040F0CD000044FF0000008D048781061D2
:1013E000881C6062981E2085618D0139618500042A
:1013F000D9D1204641462A4600F07EFF40B1206CFC
:101400000428CCD12068016841F400710160C6E76E
:101410002068016841F400710160202084F83D00DB
:10142000002084F83E0084F83C0089E702001000A8
:101430000000FFFF10B586B00021CDE90411CDE911
:10144000021101682848544C284A914225D0284A64
:10145000914247D1616841F400116160616801F413
:10146000001101910199216841F008012160216872
:1014700001F0080101910199C0210291122103910B
:101480000321059102A9FFF749FC606840F40010B0
:101490006060606800F4001022E0616841F480013F
:1014A0006160616801F4800101910199216841F056
:1014B00008012160216801F00801019101994FF4B0
:1014C00040610291122103910321059102A9FFF7C6
:1014D00025FC606840F480006060606800F4800073
:1014E0000190019806B010BD000C0140005800406A
:1014F00000540040194801788268114481607047A7
:1015000080B50748016841F010010160032000F038
:1015100081F8002000F006F800F022F8002080BDDD
:101520000020024070B50D4E04464FF47A713078B9
:10153000B1FBF0F096490968B1FBF0F000F018FB40
:1015400001250F2C08D838B94FF0FF302146002272
:10155000002500F033F87460284670BD700000204C
:1015600082B00D480222016841F00101016001686A
:1015700001F0010101910199416841F08051416000
:10158000406800F08050009000980448016862F3C1
:101590001A61016002B07047181002400400014057
:1015A000002808DB00F01F010122400902FA01F1C6
:1015B000014A42F82010704700E100E0B0B5144C39
:1015C0001A4D00F00F03B0F1FF3FA3F104032B44C9
:1015D00003F10C03C8BF03192868C0F30220051DDE
:1015E000C41E80F00700072D4FF0010538BF00240E
:1015F000042828BF042005FA00F00138084005FA45
:1016000004F10F31A0401140084300011870B0BD33
:1016100000E400E005494FF6FF030A681A4060F352
:101620000A22034810430860704700BF0CED00E039
:101630000000FA052DE9F04104468846002C00F030
:101640008880464F4FF48050395801F007014145DA
:101650000AD2395821F0070141EA080139503858B7
:1016600000F00700404574D1206810F0020F11D03F
:10167000410742BF796841F4E0617960010742BFE8
:10168000796841F4605179607968A26821F0F001CD
:1016900011437960C00727D06068012804D13968F8
:1016A00011F4003F08D154E03968022802D18901C1
:1016B00002D44EE089074CD5796821F00301084334
:1016C0007860FFF713FC064641F288357868616858
:1016D00000F00C00B0EB810F06D0FFF707FC801B79
:1016E000A842F3D9032035E04FF48050395801F077
:1016F000070141450AD9395821F0070141EA08019B
:101700003950385800F00700404522D1206810F0C9
:10171000040F05D07968E26821F4E0611143796033
:10172000000706D57868216920F4605040EAC100BE
:10173000786000F031F87968094AC1F30311515C0F
:10174000C8401349086007480068FFF7EBFE002017
:1017500000E00120C0B2BDE8F08100BF00100240EF
:10176000384300087400002009480A4A00681849F4
:101770000968C1F30221515CC8407047FA48054A24
:101780000068F7490968C1F3C221515CC84070473D
:101790007C000020484300080D490A680D4802F00B
:1017A0000C03082B18BF7047C2F3834C0AA312F432
:1017B000803F13F80C3002D10C4858437047096839
:1017C00009A25843C1F34041515CB0FBF1F07047AE
:1017D0000410024000127A000203040506070809FB
:1017E0000A0B0C0D0E0F10100102000000093D0045
:1017F0002DE9FE4F8246BAF1000F00F065819AF89C
:101800000000D64ED64FC00750D0386800F00C000C
:10181000042819D0386800F00C00082803D1386873
:1018200010F4803F10D1DAF80400A8B1B0F5803F81
:1018300006D03168B0F5A02F24D141F4802030606B
:10184000306840F4803023E0306810F4003F2DD041
:10185000DAF8040050BB37E1306820F480303060A3
:10186000306820F480203060FFF740FB0546306888
:1018700010F4003F1AD0FFF739FB411B0320642905
:10188000F5D922E121F480303060306820F48020E6
:101890003060FFF72BFB0546306810F4003F05D1A0
:1018A000FFF724FB401B6428F6D9EBE09AF8000010
:1018B0008007AC48834632D5386810F00C0F1DD035
:1018C000386800F00C00082804BF386810F4803F26
:1018D00014D0DAF81000002800F095800120594655
:1018E0000860FFF703FB0546306810F0020F0ED1C9
:1018F000FFF7FCFA401B0228F6D9C3E0306810F06D
:10190000020F1CBFDAF81000012840F0DD803068BB
:10191000DAF8141020F0F80040EAC10030609AF8BC
:101920000000000731D5DAF8180080B101205946CF
:10193000C1F88004FFF7DAFA0546386A10F0020FA2
:1019400016D1FFF7D3FA401B0228F6D99AE00020FF
:101950005946C1F88004FFF7C9FA0546386A10F005
:10196000020F12D0FFF7C2FA401B0228F6D989E015
:101970007D484FF4FA510068B0FBF1F0029000BFCF
:101980000298411E00280291F9D19AF80000400700
:1019900040F18180B86910F0805F0BD1B8694FF0D9
:1019A000010840F08050B861B86900F080500190A3
:1019B000019801E04FF000086C48305810F4807F27
:1019C00012D16A48315841F480713150FFF78EFAD4
:1019D00005466648305810F4807F05D1FFF786FA37
:1019E000401B6428F5D94DE0DAF80C00E8B1012875
:1019F00005D0F969052830D141F00400F861F86993
:101A000040F001002FE0002059460860FFF76EFA11
:101A10000546306810F0020F3FF481AFFFF766FA19
:101A2000411B03200229F4D94FE0F86920F001009E
:101A3000F861F86920F00400F861FFF757FA0546ED
:101A400041F28839F86910F0020F1DD0FFF74EFA05
:101A5000411B03204945F5D937E021F00100F86129
:101A6000F86920F00400F861FFF740FA054641F2FA
:101A70008834F86910F0020F06D1FFF737FA401BDF
:101A8000A042F6D9032020E0B8F1010F02BFB869E7
:101A900020F08050B861DAF81C405946002C5AD02A
:101AA000386800F00C00082813D1012C0CD03868DD
:101AB000DAF8201000F480328A4205D1DAF82410D6
:101AC00000F47010884246D00120C0B203B0BDE8D7
:101AD000F08F00200866FFF709FA0546022C0AD1AC
:101AE000306810F0007F11D0FFF700FA411B03208F
:101AF0000229F5D9E9E7306810F0007F2BD0FFF715
:101B0000F5F9411B03200229F5D9DEE7DAF82000B8
:101B1000B0F5803F06D13968DAF8082021F40031A9
:101B200011433960396821F474110843DAF824103C
:101B3000084338600120CBF86000FFF7D7F904466E
:101B4000306810F0007F06D1FFF7D0F9011B0320A9
:101B50000229F5D9B9E70020B7E700BF001002401D
:101B600004100240000042427C0000200060FEFFA2
:101B7000411E0020B0EB116F1CBF01207047044ACA
:101B8000F023516003490B7007219060116070478A
:101B900010E000E023ED00E07047704790F83C3023
:101BA0000222012B28D080B5012380F83C3080F838
:101BB0003D2002685368D2F808C0B2F1804F23F08C
:101BC000700E0B6843EA0E035360BDE8804008D0F6
:101BD0004C4B9A421CBF4C4B9A4202D04B4B9A4200
:101BE00004D149682CF0800319439160012100223F
:101BF00080F83D1080F83C20D0B2704710B5044604
:101C000034B394F83D0028B9002084F83C00204605
:101C100000F020F80220211D84F83D00206800F02B
:101C20006BFF012084F8460084F83E0084F83F00F2
:101C300084F8400084F8410084F8420084F84300AE
:101C400084F8440084F8450084F83D00002010BD6D
:101C5000012010BDE0B5016816482A4A914216D00D
:101C6000B1F1804F18BF8CBD0168002241F0010125
:101C700001600221006800F00100019001981C2021
:101C8000FFF79CFC1C20BDE88C40FFF789BC016875
:101C9000002241F0020101600021006800F0020012
:101CA000009000981D20FFF789FC1D20BDE88C40A6
:101CB000FFF776BC1C10024090F83D1001291CBFB4
:101CC00001207047022180F83D100068C168B0F122
:101CD000804F41F00101C16008D00A4988421CBF11
:101CE0000949884202D00949884204D1816801F03B
:101CF0000701062903D0016841F0010101600020BD
:101D0000704700BF00040040002C01400008004064
:101D1000016841F211130A6A1A4208D10A6A40F2B4
:101D200044431A4202BF0A6822F001020A600121FC
:101D300080F83D100020704710B50446022094F84A
:101D40003C20012A70D001224FF6777384F83C20A2
:101D500084F83D00206882689A4382600A6812B362
:101D6000102A20D0202A18BF302A1CD0402A21D087
:101D7000502A2BD0602A35D0B2F5005F3ED0B2F5A4
:101D8000805F4AD0702A51D1D1E90123C9681A4332
:101D900042EA0121826822F47F4211438160816816
:101DA00041F0770138E0816821F07701114341F07B
:101DB000070131E04B68CA68194600F0DFFE206871
:101DC000816821F0770141F0470125E04B68CA683E
:101DD000194600F0D3FE2068816821F0770141F0B8
:101DE000570119E04B68CA68194600F0D8FE206810
:101DF000816821F0770141F067010DE0D1E901230D
:101E0000C9681A4342EA0121826822F47F421143E1
:101E10008160816841F4804181600020012184F863
:101E20003D10002184F83C10C0B210BD0120F5E740
:101E30007047B0B504462068C168026901EA02052E
:101E4000A90714D56FF00201016101212177806992
:101E500010F0030F03D02046FFF7EAFF05E020460D
:101E600000F074F8204600F072F800202077680730
:101E700015D520686FF00401016102212177806986
:101E800010F4407F03D02046FFF7D2FF05E0204644
:101E900000F05CF8204600F05AF800202077280770
:101EA00015D520686FF00801016104212177C06910
:101EB00010F0030F03D02046FFF7BAFF05E02046DD
:101EC00000F044F8204600F042F800202077E806B1
:101ED00015D520686FF01001016108212177C069D4
:101EE00010F4407F03D02046FFF7A2FF05E0204614
:101EF00000F02CF8204600F02AF800202077E807B0
:101F000006D020686FF001010161204600F020F842
:101F1000280606D520686FF0800101612046FFF792
:101F20003BFE680606D520686FF04001016120463F
:101F300000F02CF8A80658BFB0BD20686FF0200153
:101F400001612046BDE8B040FFF727BE70477047EB
:101F500010B50B49044620680968884206D1084834
:101F6000FFF7D6FE0748012101702068064909687D
:101F7000884218BF10BDBDE8104000F017BB00BF7D
:101F800034010020100000207C010020704710B5B3
:101F900004464CB394F8410028B9002084F840006E
:101FA000204600F023F8242084F841002068C1680E
:101FB00021F40051C160204600F02AFE206801692A
:101FC00021F490410161416921F02A014161C16818
:101FD00041F40051C16000202021606484F8411068
:101FE00084F84210606310BD012010BD70B586B04A
:101FF0000026CDE90466CDE90266174C0068A4F519
:102000004441884225D1154802AD416841F4003170
:102010004160416801F4003101910199016841F08A
:10202000040101602946006800F004000190019855
:102030000420029002200390032005902046FEF722
:102040006DFE08202946CDE9020620460496FEF7DB
:1020500065FE06B070BD00BF0008014018100240C8
:102060002DE9F84304461D461746884694F841007A
:1020700020281CD1B8F1000F4FF0010018BF002F2D
:1020800042D04FF000092120C4F8449084F8410068
:10209000FEF72CFFA784E7840646A068B0F5805FB2
:1020A00007D12769002F0CBFC146474618E0022020
:1020B0002AE0474614E02046802132462B4600F0B5
:1020C000E9FDE8B9206817B117F8011B04E039F8F9
:1020D000021B00276FF35F214160E08C0138E08430
:1020E000E08C0028E7D12046402132462B4600F004
:1020F000D1FD2021002884F8411018BF032003E0FF
:10210000202084F84100032001B0BDE8F083FEE701
:10211000014600200A68536913F4806F08BF7047B6
:10212000D84B53612022086381F83D2081F83E009E
:102130000A6C42F004020A6481F83C0001207047F6
:102140002DE9FC4B04460E46DDF82890DDF82C8086
:102150001D461746002220684B46016841F4806105
:102160000160016841F48071016020464FF0011167
:10217000CDF8008000F0EDF8216840B1086810F457
:10218000807F1CBF4FF400702064032036E006F00F
:10219000FE0B20464A464346C1F810B0554E314624
:1021A00000F022F948BB00204246019020684169B6
:1021B00001914946806901900198204600F09AF902
:1021C00098B9012D08D02068390A4246016120469D
:1021D000494600F08FF940B92068F9B242460161E2
:1021E0002046494600F086F960B1206C042804D1ED
:1021F0002068016841F4007101600120C0B202B0A2
:10220000BDE8F08B206800224B46016841F48071E4
:10221000016020464FF00111CDF8008000F099F8E0
:1022200021680028AAD14BF001004A4643460861C4
:102230002046314600F0D8F8002818BF0120DDE71D
:102240002DE9FE4304460F460A9D0B9E9946904693
:10225000002220682B46016841F48071016020460D
:102260004FF00111009600F074F8216840B1086841
:1022700010F4807F1CBF4FF40070206403200AE03C
:1022800007F0FE002A46334608612046194900F04F
:10229000ABF820B10120C0B203B0BDE8F08300204C
:1022A0003246029020684169029129468069029075
:1022B0000298204600F01EF940B1206C0428E9D1B4
:1022C0002068016841F400710160E3E7B9F1010F92
:1022D0000AD020684FEA182132460161204629467B
:1022E00000F008F90028E8D120685FFA88F1016160
:1022F0000020D0E702000100F8B50E46154604465E
:10230000771C2068406910F0040F1FD12046FFF7AA
:10231000FFFEC8B9002FF4D0FEF7E8FD16B1401B50
:10232000B042EED92068406910F0040FE9D10020D6
:102330002021206384F83D1084F83E00216C41F098
:102340002001216484F83C00012000E0002001B05D
:10235000F0BD2DE9F047DDF820909846164604467A
:102360008FB201F47F0508F1010A2068B5F5803FBE
:1023700000F1180108BF00F1140108683840C01BC3
:10238000B0FA80F04009B0421CBF0020BDE8F087E1
:10239000BAF1000FE9D0FEF7A9FDB8F1000F03D0A4
:1023A000A0EB09004045E0D92068B5F5803F00F179
:1023B000180108BF00F1140108683840C01BB0FACA
:1023C00080F04009B042D0D100202021206384F861
:1023D0003D1084F83E00216C41F02001216484F816
:1023E0003C000120BDE8F0872DE9F843914698466E
:1023F00004468FB201F47F0509F101062068B5F5A6
:10240000803F00F114010A4618BF00F1180212685B
:102410003A40BA421CD0096811F4806F1AD1002EDC
:10242000ECD0FEF763FDB9F1000F03D0A0EB08007C
:102430004845E3D92068B5F5803F00F1180108BF91
:1024400000F1140108683840B842D7D0202008E0D5
:10245000002013E0016841F4007101600949416105
:10246000042000212022216384F83D2084F83E10BE
:10247000226C10432064012084F83C1001B0BDE8B8
:10248000F08300BFFFFBFFFF70B515460E46044604
:102490002068416911F0400F1CBF002070BD4169E8
:1024A00011F0100F15D1FEF721FD16B1401BB042FF
:1024B000EED92068406910F0400FE9D100202021BA
:1024C000206384F83D1084F83E00206C40F020002A
:1024D0000AE06FF01001416100202021206384F8A0
:1024E0003D1084F83E00206C2064002084F83C00FD
:1024F000012070BDF8B50E4615460446771C2068CD
:10250000406910F0800F1FD12046FFF701FEC8B9C7
:10251000002FF4D0FEF7EAFC16B1401BB042EED912
:102520002068406910F0800FE9D10020202120634D
:1025300084F83D1084F83E00216C41F020012164B4
:1025400084F83C00012000E0002001B0F0BD000054
:102550002DE9FF41144D044600204FF47A780126FE
:1025600003AF3C21002201238DF80E004EF27000D3
:10257000ADF80C002046CDE90076CDF80880A847DC
:1025800047F001003C21012201238DE84101204652
:10259000A847B81C3C21022201238DE841012046B6
:1025A000A847BDE8FF8100BF0D13000870B5544E69
:1025B0003078724C02281ED0012835D0002840F017
:1025C000998004F580604FF48051FEF789FC58B182
:1025D00020464FF40071FEF783FC28B120464FF4EB
:1025E0008061FEF77DFC08B901203070454800216C
:1025F0004160017070BD04F580604FF48051FEF7BA
:102600006FFC002876D020464FF40071FEF768FC7E
:1026100000286FD020464FF48061FEF761FC00284F
:1026200068D00020307065E004F580654FF480517B
:102630002846FEF755FCC8B120464FF40071FEF75E
:102640004FFC98B120464FF48061FEF749FC68B119
:102650002C4800210278012A4DD14288002A4FF0EF
:10266000000202BF0122B270022245E028464FF468
:102670008051FEF735FC68B120464FF40071FEF73B
:102680002FFC48B120464FF48061FEF729FC28B9A1
:10269000032002E0012000E0022070701948017858
:1026A00009B9012101704168012201314160427084
:1026B00042884AB11F291DD30221B1700021416017
:1026C0000170511C418070BD7278012A08D16529C2
:1026D00010D302210022B17042600270317070BDCF
:1026E000332907D30221B17000214160017001211B
:1026F000418070BD70BD00223270418070BD00BF4E
:102700008000002084000020F0B585B0002601275D
:1027100001AD04961848016841F02001016001688C
:1027200001F0200100910099016841F0040101606D
:10273000016801F0040100910099016841F008016D
:1027400001602946006800F00800009000984FF4EE
:102750008050CDE901060397084C04F58060FEF730
:10276000DDFA4FF4C06001A9C1C120462946FEF739
:10277000D5FA05B0F0BD00BF1810024000080140B6
:1027800080B50B480B494FF4804201601749416006
:102790000021C0E902110162C0E90611C0E904216B
:1027A000FEF7AAFB18B1BDE88040FEF775B980BD01
:1027B0008C0000200054004080B5AC480A494FF41A
:1027C00080420160094941600021C0E902110162B3
:1027D000C0E90611C0E90421FEF78EFB18B1BDE87F
:1027E0008040FEF759B980BD00580040A086010026
:1027F000FEB5BD4800214FF08042472340F2E73C40
:10280000CDE90411CDE90211CDE90011C0E90023A1
:10281000C0E9021C01618161FFF7F0F908B1FEF720
:102820003BF94FF4805002A90290AF48FFF784FAB9
:1028300008B1FEF731F900206946CDE90000AA4849
:10284000FFF7ACF908B1FEF727F906B080BD00BF6D
:10285000FEB50021A748472340F2E73CCDE904112B
:10286000CDE90211CDE90011C24AC0E90023C0E957
:10287000021C01618161FFF7C1F908B1FEF70CF993
:102880004FF4805002A902909A48FFF755FA08B118
:10289000FEF702F900206946CDE900009548FFF7F0
:1028A0007DF908B1FEF7F8F806B080BD80B50B4899
:1028B0000B494FF4E13200234FF00C0C80E80E007E
:1028C000C0E90333C0E905C3C361FFF760FB18B17A
:1028D000BDE88040FEF7E0B880BD00BFC401002025
:1028E00000440040FEE7FEE7B0B50024E0B2072850
:1028F00088BFB0BD0021002500F03EF803E00020B5
:1029000000F0A2F8013568B20028F8DA0134EDE7EA
:1029100010B5214CAE20A047D520A0478020A0476D
:10292000A820A0473F20A047D320A0470020A047D1
:102930004020A047A120A047C820A047DA20A047F8
:102940001220A0478120A047CF20A047D920A04730
:10295000F120A047DB20A0473020A047A420A047BB
:10296000A620A0478D20A0471420A047AF20A04755
:10297000BDE81040FFF7B8BFB0B5074D40F0B0005C
:102980000C46A847102040EA1410A84704F00F0096
:102990002946BDE8B0400847252A00082DE9F04146
:1029A0001546F8220646FE2002EBC10100EB460068
:1029B000CCB2C0B22146FFF7DFFF10484FEA46080D
:1029C000002600EB0515A5F5007703E0B85D00F0E3
:1029D0003BF80136082EF9D108F1FF002146C0B2BC
:1029E000FFF7CAFFA5F5FC740025082D08BFBDE858
:1029F000F081605D00F028F80135F6E750430008EB
:102A0000F8B514460D460646002705E02844C1B235
:102A10003046FFF7C3FF0137F8B2225C002AF5D138
:102A2000F8BD0000F8B58DF80F004FF47A70012161
:102A30000DF10F020123CDE9002102900B4878210E
:102A40000022FEF763FC8FBDF8B58DF80F004FF440
:102A50007A7001210DF10F020123CDE900210290CE
:102A6000024878214022FEF751FC8FBDE000002093
:102A700070477047FEF73EBDB0B590B0002401A886
:102A80001421CDE90B44CDE90944FDF752FB0120A7
:102A90004FF4803102250690CDE907140A904FF4D7
:102AA000E010CDE90D510F9006A8FEF7A1FE18B178
:102AB000EFF3108072B6FEE70F200221CDE9010589
:102AC0004FF480600394CDE9040401A8FEF7B2FD41
:102AD00018B1EFF3108072B6FEE710B0B0BD7047CA
:102AE0000148FFF7A6B900BF340100200148FFF7F5
:102AF000A0B900BF7C01002010B503681C4AB0F1EA
:102B0000804F08D01B4CA0421CBF194CA04202D0E1
:102B1000194CA04203D14C6823F070032343B0F159
:102B2000804F08D0134CA0421CBF114CA04202D0D1
:102B3000114CA04203D1CC6823F4407323434C6969
:102B400023F08003904243EA040303608B68C3626E
:102B50000B68836204BF0969116301214161016946
:102B600011F0010F1EBF016921F00101016110BDCB
:102B7000002C01400004004000080040D0F820C0B4
:102B8000036A23F001030362836923F0F00343EA3D
:102B9000021282612CF00A02114301627047D0F8E0
:102BA00020C0036A23F010030362836923F4704397
:102BB00043EA023282612CF0A00242EA0111016272
:102BC0007047016851E8031F026821F4907142E8E0
:102BD0000313002BF5D1016851E8051F026821F0AD
:102BE000010142E80513002BF5D1016B012909D140
:102BF000016851E8031F026821F0100142E8031345
:102C0000002BF5D1202180F842100021016370478C
:102C100010B5044620680169E26821F4405111436F
:102C200041F20C620161D4F808C0D4E904E3C16840
:102C300091434EEA0C021A431143C1604169A269F3
:102C400021F44071114341611149884202D0FEF7DD
:102C50008BFD01E0FEF792FD19214843D4E90012F3
:102C60006FF063049200B0FBF2F06422B0FBF2F369
:102C700003FB0400322404EB0010B0FBF2F000F080
:102C8000F00200F00F0002EB03121043886010BD49
:102C9000003801402DE9FC4104461D4690460F4690
:102CA00020686E1C01683940B94226D0002EF9D048
:102CB000FEF71CF903210DB3A0EB0800A8421DD8B4
:102CC0002068C16811F0040F18BF402FEAD0802F90
:102CD0001CBF016811F0080FE4D0002501950168C0
:102CE00001914068019001982046FFF76AFF082093
:102CF0000121606484F8405000E00021C8B202B0B5
:102D0000BDE8F081FEE70000B0B5304C60780328E4
:102D10001FD002280ED0012856D1A07802284AD010
:102D2000012851D12A4801680131072908BF002133
:102D3000016046E02648A1780068012917D10028E3
:102D400042D0244805682868FDF7BEFC284A2F4B6E
:102D500017E01F48A1780068012919D1A0B31D48C8
:102D600005682868FDF7B0FC214A224B1CE00229C7
:102D70002AD148B3174805682868FDF7A5FC164A0C
:102D80001D4BFDF7A9FAFDF7B2FC28601BA016E069
:102D9000022919D1002808BFB0BD0E48056828686F
:102DA000FDF792FC0C4A0D4BFDF796FAFDF79FFCE0
:102DB00028600BA003E016480121017015A001F066
:102DC00037FA0020A4F80100B0BD00BF8000002049
:102DD0002C000020300000209A9999999999A9BF58
:102DE0006D6F646966795F6E6F772D2D0D00000041
:102DF0007B14AE47E17A84BF9999A93F6D6F6469EE
:102E000066795F6E6F772B2B0D000000E17A843FAF
:102E1000110000206B306368616E67616E0D000009
:102E2000E0B50190044801A901224FF6FF73FFF7B6
:102E300017F9019802B080BDC4010020F0B585B03B
:102E400014460D4606464FF47A7006210DF10E0227
:102E50000123CDE90021029017483C210322FEF70F
:102E600003F99DF80E009DF80F1041EA002000B212
:102E7000FDF700FC114F3946FDF7F0F930609DF881
:102E800012009DF8131041EA002000B2FDF7F2FB9A
:102E90003946FDF7E3F928609DF810009DF8111000
:102EA00041EA002000B2FDF7E5FB3946FDF7D6F90F
:102EB000206005B0F0BD00BF8C000020000066431C
:102EC0002DE9F04F8BB0FEF71BFBFFF7D5FDFFF7A9
:102ED0001BFCFFF7EBFCFFF753FCFFF76DFCFFF764
:102EE00087FCFFF7B5FCFFF713FDDFF86C06FEF774
:102EF000E3FEEC48632141F61F450160DFF85C0604
:102F0000E94CC4F80054FFF723FB40F2F310606073
:102F1000DFF84C062560FEF7CFFEE44E3068FDF783
:102F2000B2FBE34AE34B90469A46FDF7D5F9E24FF0
:102F300000224FF000093B46FDF7E7FAFDF7D7FB0B
:102F40004FF082410446FDF779FBDC4905462046F7
:102F50000591FDF7F9F8DFF80CB6002D08BF204603
:102F6000CBF804007068FDF78EFB42465346FDF730
:102F7000B3F900223B46FDF7C8FAFDF7B8FBCBF8E2
:102F80001000B068FDF77FFB42465346FDF7A4F9F9
:102F900000223B46FDF7B9FAFDF7A9FB4FF082414D
:102FA0000446FDF74BFB059905462046FDF7CCF896
:102FB000002D08BF2046CBF80800F068FDF763FB42
:102FC00042465346FDF788F900223B46FDF79DFA3D
:102FD000FDF78DFBCBF814003069FDF754FB42463A
:102FE0005346FDF779F900223B46FDF78EFAFDF7CF
:102FF0007EFB04460596CBF80C407069FDF743FB59
:1030000053464246DA46FDF767F900223B46FDF794
:103010007CFAFDF76CFBCAF8180020464FF082419D
:10302000FDF7E2FA28B9A5492046FDF78DF8CAF860
:103030000C000AF1280003900AF12C0002900AF11A
:10304000300001909AF80100002800F0DD808AF835
:103050000190FDF74DFECDF81890EFF3108072B699
:1030600006A90AF15000FDF787FD18B90FF2F840E4
:1030700001F0DEF862B6DAF8044000212046FDF7E0
:10308000C1FA8F49074620468B46FDF7B5F88D49B2
:1030900005460491FDF758F8002F08BF2846FDF7B4
:1030A000FFFA059EDFF8CC94024602200023CAF8FE
:1030B00024203146C84737464C46D146DFF8DCA4C9
:1030C0000FF2B448314657F80C2B4046D047D9F898
:1030D00010005946FDF790F8FDF7E2FA351D02465B
:1030E000022000232946C9F82420A04772684046E0
:1030F0002946D047D9F8085000212846FDF782FA22
:10310000044628465946FDF777F804990546FDF729
:103110001BF8002C08BF2846FDF7C2FADFF854540C
:1031200006F108040246022000232146C9F82420A3
:10313000A847B26840462146D047D9F814005946FE
:10314000FDF75AF8FDF7ACFA024602203946002393
:10315000C9F82420A8473A6840463946D047CA46AD
:103160000021DAF80C402046FDF75AFA05462046C1
:103170005946FDF741F804463DB952492046FCF74F
:10318000E3FFFDF78DFACAF824002046FDF788FA20
:10319000059D024602200023CAF8242005F11004F0
:1031A0002146FDF74DFD2A690FF2CC362146304607
:1031B00000F022FADAF818004149FDF71DF8FDF792
:1031C0006FFA05F114040246022000232146CAF8D2
:1031D0002420FDF735FD6A693046214600F00CFADF
:1031E00004200F210FF2B832FFF70AFC4FF4FA6007
:1031F000FDF7AEFC04200F210FF2A832FFF700FC10
:10320000FDF716FD4FF000099AF8000000283FF482
:1032100019AF8AF80090FFF777FD0398DDE90121E7
:10322000FFF70CFEDAF80410DAF82800DAF810409C
:10323000FCF7DCFF2146FCF7DFFF8046CAF834804C
:10324000DAF80810DAF82C00DAF81440FCF7CEFFB0
:103250002146FCF7D1FF8146CAF83890DAF80C1005
:10326000DAF83000DAF81840FCF7C0FF2146FCF726
:10327000C3FFCAF83C0040460021FDF7B5F918BB72
:1032800048460021FDF7B0F9F0B948464146FCF741
:10329000E5FFFDF719FA00F0BBFEC54B0022FDF774
:1032A000C2F82DE02C040040280000400070000807
:1032B0002D431CEBE2361A3F00005940000020C1AC
:1032C0000000C84200007A4440460021FDF78CF916
:1032D000002856D148460021FDF7A2F9002850D118
:1032E00048464146FCF7BAFFFDF7EEF900F090FEC4
:1032F000AF4B0022FDF797F8AF4B0022FCF7ECFF35
:10330000FDF7F5F90446CAF8404040464146FCF74F
:1033100073FF044648464946FCF76EFF01462046C7
:10332000FCF712FFFDF7D0F900F094FF0446DAF83D
:103330003C000D46FDF7C8F9A04AA14BFCF7CCFFB5
:1033400022462B46FDF7E1F800F062FE9D4B4FF060
:103350006632FDF768F8CAE912014FF00009DAF8A1
:103360001C000138052861D8DFE800F003373F472B
:103370004F570120072194A2FFF742FB0AF10400F6
:1033800052E040460021FDF767F9874C28B14846D6
:103390000021FDF753F90028B5D140460021FDF783
:1033A0005BF9824C28B148460021FDF72BF9002833
:1033B000A9D140460021FDF733F90028A5D14846A0
:1033C0004146FCF74BFFFDF77FF900F021FE784BFB
:1033D0000022FDF728F8774B8FE701200D217CA212
:1033E000FFF70EFB0AF110001EE00220072176A273
:1033F000FFF706FB0AF1080016E002200D2174A277
:10340000FFF7FEFA0AF114000EE0032007216EA276
:10341000FFF7F6FA0AF10C0006E003200D216CA27A
:10342000FFF7EEFA0AF11800CAF82000DAF83400C3
:10343000FDF74AF96A4D0DF1180867A402460B46DC
:1034400040462146A847674E012001214246B04729
:10345000DAF80400FDF738F963A702460B46404648
:103460003946A847012007214246B047DAF8100044
:10347000FDF72AF902460B4640463946A847012087
:103480000D214246B047DAF83800FDF71DF9024633
:103490000B4640462146A847022001214246B0473C
:1034A000DAF80800FDF710F902460B4640463946A7
:1034B000A847022007214246B047DAF81400FDF77A
:1034C00003F902460B4640463946A84702200D2123
:1034D0004246B047DAF83C00FDF7F6F802460B46E4
:1034E00040462146A847032001214246B047DAF86A
:1034F0000C00FDF7E9F802460B4640463946A8475E
:10350000032007214246B047DAF81800FDF7DCF83F
:1035100002460B4640463946A84703200D21424645
:10352000B047DAF84000FDF7CFF802460B464046B8
:103530002FA1A847042001214246B047DAE912230F
:1035400040463946A847042008214246B04704486F
:10355000FEF7B2FB76E500BF7C0100208C00002066
:103560003401002010000020B2C1B3FDB3C9B9A6D8
:103570000D000000410C00086174206164647265F4
:1035800073733A307825782C2072656164207661F7
:103590006C75653A307825780D0A0000F935000819
:1035A0006F6B0000202000000000B4420000874341
:1035B00000804C400080664000807640FCA9F1D23B
:1035C0004D62503F66A64C40202020202000000085
:1035D0002020202000000000252E3366200000005F
:1035E00019360008012A0008252E32660000000066
:1035F00025362E32660000000FB4054B10B503A926
:10360000044A029800F068F910BC5DF814FB000051
:10361000212E0008000000200FB4084B10B504A9AB
:1036200002AA039800F058F9044602A9002000F00D
:10363000EAFC204610BC5DF814FB000007400008BF
:10364000490050EAC12018BF04204A0D18BF40F0BD
:10365000010040F2FF72B2EB515F08BF40F0020080
:10366000012808BF052070472DE9F0414F1E00EBEF
:10367000C7010446D1E9000115461E4637F006028F
:103680000DD02A463346FCF7CEFE7F1E04EBC7035F
:10369000D3E90023FCF720FE37F00602F1D1022F18
:1036A00025D0042F13D0062F18BFBDE8F0812A467D
:1036B0003346FCF7B8FED4E90A23FCF70DFE2A4690
:1036C0003346FCF7B0FED4E90823FCF705FE2A4692
:1036D0003346FCF7A8FED4E90623FCF7FDFD2A4695
:1036E0003346FCF7A0FED4E90423FCF7F5FD2A4697
:1036F0003346FCF798FED4E90223FCF7EDFD2A4699
:103700003346FCF790FED4E90023BDE8F041FCF716
:10371000E3BD0122FDF703B9024A00201107FDF7BE
:10372000FEB8000001FDFFFF02E008C8121F08C13B
:10373000002AFAD170477047002001E001C1121F32
:10374000002AFBD170470000014908607047000063
:10375000040000202DE9FF5F82B00021DDE9043084
:10376000020DDDF840B0034318D044F61050A2F229
:10377000FF3242431514119801281FD0A5EB0B000E
:10378000401C5FEA000A4FF000064E4FDFF8389108
:10379000B046504615D5CAF1000413E01198012433
:1037A0004AA3012801D16FEA0B010298119AC0E9DE
:1037B0000031C0E9024206B0BDE8F09FCBF1000045
:1037C000DFE704460021404A491842EB0450CDE9A6
:1037D000001012E0E00707D032463B46404649461B
:1037E000FCF721FE8046894632463B461046194684
:1037F000FCF719FE06460F466410002CEAD1DDE9FD
:103800000401DDE90023BAF1000F06DAFCF70BFE34
:1038100042464B46FCF707FE05E0FCF776FE4246C3
:103820004B46FCF772FE04460E460022284BFDF77D
:10383000F7F803D84FF0FF30014607E00022254B90
:1038400020463146FCF748FDFDF7D1F8102409E089
:10385000002C0ADB0A220023FCF77BFF039B30329B
:103860001A55641E50EA0102F2D1641C039AC4F195
:1038700011031444119A012A03D0012208430DD1E7
:103880000AE0084304D000204FF0110B119072E7BA
:10389000A3EB0B056D1E0DE05B4504DD4FF0000250
:1038A00005F1010504E003DA4FF00002A5F101057E
:1038B000002AECD002981199C0E90231C0E9004514
:1038C00079E70000000014400000F03F30000000E5
:1038D0000000F0430000E03F2DE9FF4F95B09B460C
:1038E0008946064600250FE2252877D10024274681
:1038F000F84A0121059400E0044316F8013F203BFB
:1039000001FA03F01042F7D130782A2811D06FF075
:103910002F033078A0F13002092A16D8059A44F016
:10392000020402EB820203EB42021044761C059073
:10393000EFE759F8042B0592002A03DA504244F4C9
:103940000054059044F00204761C30782E2816D1DD
:1039500016F8010F44F004042A280DD06FF02F024E
:103960003078A0F13003092B09D807EB870302EB6D
:103970004303C718761CF3E759F8047B761C3078AC
:103980006C280FD006DC4C2817D068280DD06A2888
:1039900014D104E0742810D07A280FD10DE044F43B
:1039A00000140AE044F4801401E044F440147278F6
:1039B000824202D104F58014761C761C3078662889
:1039C0000BD013DC582877D009DC002875D04528A7
:1039D000F6D04628F4D047281AD19DE118E0632894
:1039E00035D0642879D0652812D195E1702873D03C
:1039F00008DC6728F1D069286FD06E280DD06F28B9
:103A000006D1B5E073282CD0752875D0782874D0ED
:103A10005A46179990476D1C75E1C4F3025002286D
:103A200009D003280DD0D9F8001004280DD00D605E
:103A300009F1040967E1D9F80010EA17C1E9005259
:103A4000F6E7D9F800100D80F2E70D70F0E719F8ED
:103A5000041B8DF8001000208DF80100EA460120BB
:103A600003E059F804AB4FF0FF3061074FF000015D
:103A700002D40DE008F101018846B9420FDA804511
:103A8000F8DB1AF808100029F4D108E008F1010168
:103A900088468142FADB1AF808100029F6D1059809
:103AA0005B46A0EB080721463846179A00F094FAC7
:103AB000284400EB080507E04DE029E10DE01AF885
:103AC000010B5A4617999047B8F10108F7D25B46A7
:103AD00021463846179A13E142E00A220092C4F3C5
:103AE00002524FF0000A022A08D059F804CB032AE8
:103AF0004FEAEC710AD00DE029E02AE009F1070154
:103B000021F00702F2E802C1914609E00FFA8CFCAD
:103B10004FEAEC71042A03D14FFA8CFC4FEAEC71A6
:103B2000002907DA0A460021DCF1000C61EB0201F2
:103B30002D2202E0220504D52B228DF8042001223B
:103B400003E0E20701D02022F7E7904659E00A217E
:103B500002E010220DE010214FF0000A00910BE06E
:103B600010224FF0000A44F004040827009203E0FA
:103B700008224FF0000A0092C4F30252022A05D034
:103B800059F804CB0021032A08D009E009F1070104
:103B900021F00702F2E802C1914605E01FFA8CFC11
:103BA000042A01D10CF0FF0C4FF00008220728D5A1
:103BB000702806D0009B83F0100353EA0A0305D057
:103BC0000EE040228DF80420012208E05CEA0102A8
:103BD00006D030228DF804208DF805000222904690
:103BE000009B83F0080353EA0A030AD15CEA01024E
:103BF00001D1620705D530228DF804204FF001086D
:103C00007F1E582804D034A003900EA802900DE027
:103C100036A0F9E753466046009AFCF79AFD8446C1
:103C20000398825C0298401E029002705CEA0100D8
:103C3000F0D1029806A9081A00F1200A600702D5FF
:103C400024F4803400E00127574502DDA7EB0A0089
:103C500000E0002000EB0A01009005984144401A62
:103C60000590E00306D45B462146179A059800F0BC
:103C7000B3F90544002706E001A85A46C05D17992C
:103C800090476D1C7F1C4745F6DBE0030CD55B4677
:103C90002146179A059800F09FF9054404E030206A
:103CA0005A46179990476D1C0099481E00900029AC
:103CB000F5DC08E0029802995A460078491C029106
:103CC000179990476D1CBAF10001AAF1010AF1DCC5
:103CD00065E10000092801003031323334353637D0
:103CE0003839616263646566000000003031323348
:103CF00034353637383941424344454600000000E8
:103D000000F058F90544761C307800287FF4ECADBB
:103D100019B02846BDE8F08F620700D4062709F1E4
:103D2000070222F0070CFCE80223E14603F00048FA
:103D30005FEA080C02D00FF2702C0DE05FEA045C21
:103D400002D50FF2682C07E05FEAC47C02D00FF2C4
:103D5000602C01E0AFF2700C4FF0FF3823F000430D
:103D6000CDF850C065280CD006DC452809D046287F
:103D70001DD047283DD13DE0662818D067287ED168
:103D800038E00021112F01DB112000E0781CCDE983
:103D9000000106A90EA8FFF7DDFCDDE90F010E9A70
:103DA00003910021009207F1010A04914DE04FF0C8
:103DB00000400097CDE9011006A90EA8FFF7CAFC44
:103DC000DDE90F0203920E9B11990022DDF80CA091
:103DD0000093049211B9791C00EB010AB7EB0A00B9
:103DE00004D4C0F1FF3007F1010A0490AAEB0700E8
:103DF000019044E0012F00DA01270021112F01DD9D
:103E0000112000E03846CDE9000106A90EA8FFF711
:103E1000A1FCDDE90F010E9A0391002104910092AB
:103E2000BA4621070CD40399514500DA8A46BAF103
:103E3000010F05DD009AAAF10101515C302908D07B
:103E4000B84202DA10F1040F06DA0121CDE90110BF
:103E500015E0AAF10101E9E7002805DC0499014415
:103E60000491AAEB000102E0411C514500DD8A46A5
:103E70000499401A401C01904FF000400290200726
:103E800004D40198504501DBCDF8048000208DF862
:103E90004F0002980DF14F07B0F1004F25D02B20B5
:103EA0000E9002984FF0020800280CDA404202906F
:103EB0002D200E9007E00A210298FCF734FC3031E7
:103EC000029007F8011DB8F10001A8F10108F2DC29
:103ED00002980028EFD1791E0E980870307800F013
:103EE000200040F0450007F8020D12A8C01B00F1A9
:103EF00007081498007800B1012000EB0A0101982E
:103F000001EBE07105984144401A401E0590E00322
:103F100006D45B462146179A059800F05DF80544E3
:103F20001498007818B15A46179990476D1CE00311
:103F300024D55B462146179A059800F04DF80544B4
:103F40001CE00498002807DBDDE90301884203DD5B
:103F50000098405C179901E0179930205A46904725
:103F6000049805F10105401C04900198401E019041
:103F700004D12E205A46179990476D1CBAF10001C2
:103F8000AAF1010ADDDC05E017F8010B5A46179982
:103F900090476D1CB8F10001A8F10108F4DC5B4604
:103FA0002146179A0598ABE62D0000002B00000073
:103FB000200000002DE9F041044600251E4617466A
:103FC000880404D405E039462020B0476D1C641EE7
:103FD000F9D52846BDE8F0812DE9F04104460025D9
:103FE0001E469046C80301D5302700E020278804EC
:103FF00004D505E041463846B0476D1C641EF9D52E
:104000002846BDE8F0810A68531C0B6010707047A9
:104010002DE9F84F04460D4621F000400091734908
:10402000814211DC7249884201DC06D12CB1204664
:104030002946BDE8F84FFFF76CBB6E48002DCCBF9A
:104040006D496E49BDE8F88F6D49814211DD6D49BA
:104050008142D8BF4FF0FF366DDD20462946FFF77D
:10406000EFFA042808BFFFF757FB20462946BDE8B2
:10407000F88F6549654F25F00045814233DD64497D
:10408000814219DD002632464FF080432046294602
:10409000FCF722F980468A46012220462946FCF791
:1040A0003EFC00223B46FCF7B8F942465346FCF77B
:1040B0002CFA04460D463EE001260022BA463B4655
:1040C00020462946FCF708F980460F460022534651
:1040D00020462946FCF7A1F942463B46FCF715FA73
:1040E00004460D4627E04B4981421BDDDFF828A13D
:1040F00002260022534620462946FCF794F9002266
:104100003B46FCF7E9F880460F460022534620461E
:104110002946FCF782F942463B46FCF7F6F904468D
:104120000D4608E0032622462B4600203B49FCF7BB
:10413000ECF904460D4622462B4610461946FCF77C
:1041400072F98B46824602460B46FCF76CF907462D
:104150000246334888460B4606217844FFF784FA26
:1041600052465B46FCF75FF982462E488B463A463C
:10417000434605217844FFF777FA3A464346FCF771
:1041800052F902460B46002E504659460CDAFCF70F
:10419000A3F822462B46FCF746F901B022462B46EF
:1041A000BDE8F04FFCF73CB9FCF796F822462B46E9
:1041B000FCF739F91C4A7A4402EBC603D3E9002321
:1041C000FCF72BF922462B46FCF727F9174A7A44CD
:1041D00002EBC603D3E90023FCF722F9009A002A78
:1041E000B8BF81F00041BDE8F88F00000000104426
:1041F0000000F07F182D4454FB21F93FFB21F9BF4B
:104200000000DC3F0000203E0000F33F0000F03FD4
:104210000000E63F008003400000F83F0000F0BFD0
:10422000AA0100006801000006010000CE000000A5
:1042300010B5044601E0FEF7F3FD14F8010B044944
:104240000028F8D1BDE810400A20FEF7E9BD0000C3
:10425000000000202DE9F04106460F46FCF776FBF2
:10426000041E0D4618BF0120284320F00040C0F175
:104270007F6000F1E040C00F0ED0301C18BF01205D
:10428000384320F00040C0F17F6000F1E040C00FF3
:1042900004BF0120FFF758FA20462946BDE8F08107
:1042A0004FBB610567ACDD3F182D4454FB21E93F4E
:1042B0009BF681D20B73EF3F182D4454FB21F93F3D
:1042C000E2652F227F2B7A3C075C143326A6813CC3
:1042D000BDCBF07A8807703C075C143326A6913C6E
:1042E000C4EB98999999C9BF711623FEC671BCBFDA
:1042F0006D9A74AFF2B0B3BF9AFDDE522DDEADBF42
:104300002F6C6A2C44B4A2BF0D5555555555D53F59
:10431000FF8300922449C23F6E204CC5CD45B73F74
:10432000513DD0A0660DB13FEB0D76244B7BA93FEC
:1043300011DA22E33AAD903F0000000000000000D7
:10434000010203040607080900000000010203043B
:10435000000000000000000000000000000000005D
:10436000000000F8000000000000003330000000F2
:1043700000100C06100C06000000000000000000F9
:1043800040C07840C0784000043F04043F0404006B
:10439000007088FC08300000001820FF211E00007B
:1043A000F008F000E018000000211C031E211E0090
:1043B00000F00888700000001E2123241927211016
:1043C00010160E00000000000000000000000000B9
:1043D000000000E018040200000000071820400060
:1043E00000020418E0000000004020180700000050
:1043F000404080F0804040000202010F01020200B4
:10440000000000F0000000000101011F0101010097
:10441000000000000000000080B0700000000000FC
:104420000000000000000000000101010101010185
:10443000000000000000000000303000000000001C
:1044400000000000806018040060180601000000F1
:1044500000E010080810E000000F102020100F00EE
:10446000001010F8000000000020203F2020000075
:1044700000700808088870000030282422213000CD
:1044800000300888884830000018202020110E00D5
:104490000000C02010F8000000070424243F24007E
:1044A00000F80888880808000019212020110E0053
:1044B00000E0108888180000000F112020110E0065
:1044C00000380808C83808000000003F000000005D
:1044D0000070880808887000001C222121221C001E
:1044E00000E010080810E0000000312222110F0047
:1044F000000000C0C00000000000003030000000DC
:10450000000000800000000000008060000000004B
:104510000000804020100800000102040810200064
:1045200040404040404040000404040404040400AF
:104530000008102040800000002010080402010044
:10454000007048080808F000000000303601000044
:10455000C030C828E810E0000718272423140B00F7
:104560000000C038E0000000203C23020227382071
:1045700008F8888888700000203F202020110E0055
:10458000C03008080808380007182020201008004C
:1045900008F808080810E000203F202020100F0035
:1045A00008F88888E8081000203F20202320180001
:1045B00008F88888E8081000203F20000300000069
:1045C000C03008080838000007182020221E02000A
:1045D00008F808000008F808203F210101213F20C9
:1045E000000808F8080800000020203F20200000F4
:1045F00000000808F8080800C08080807F000000E4
:1046000008F888C028180800203F2001263820001C
:1046100008F8080000000000203F20202020300083
:1046200008F8F800F8F80800203F003F003F20009D
:1046300008F830C00008F808203F200007183F00A5
:10464000E01008080810E0000F10202020100F00D4
:1046500008F808080808F000203F210101010000C7
:10466000E01008080810E0000F18242438504F000C
:1046700008F8888888887000203F2000030C3020CC
:1046800000708808080838000038202121221C000A
:10469000180808F8080818000000203F2000000053
:1046A00008F808000008F808001F202020201F003C
:1046B0000878880000C83808000007380E0100009C
:1046C000F80800F80008F800033C0700073C030066
:1046D000081868808068180820302C03032C3020CC
:1046E0000838C800C83808000000203F200000003B
:1046F00010080808C8380800203826212020180093
:10470000000000FE020202000000007F4040400066
:10471000000C30C000000000000000010638C0009E
:1047200000020202FE000000004040407F00000046
:10473000000004020202040000000000000000006B
:104740000000000000000000808080808080808069
:104750000002020400000000000000000000000051
:1047600000008080808000000019242222223F2047
:1047700008F8008080000000003F112020110E008A
:104780000000008080800000000E11202020110019
:10479000000000808088F800000E112020103F20CB
:1047A0000000808080800000001F2222222213004F
:1047B000008080F0888888180020203F202000009A
:1047C0000000808080808000006B9494949360004F
:1047D00008F8008080800000203F210000203F205A
:1047E00000809898000000000020203F202000005A
:1047F000000000809898000000C08080807F00004A
:1048000008F8000080808000203F24022D30200026
:10481000000808F8000000000020203F20200000D1
:104820008080808080808000203F20003F20003FEB
:104830008080008080800000203F210000203F20F9
:104840000000808080800000001F202020201F00AA
:10485000808000808000000080FFA12020110E00D9
:104860000000008080808000000E112020A0FF80CA
:10487000808080008080800020203F212000010077
:1048800000008080808080000033242424241900CC
:10489000008080E0808000000000001F20200000D9
:1048A0008080000000808000001F202020103F201A
:1048B000808080000080808000010E3008060100AA
:1048C00080800080008080800F300C030C300F004F
:1048D00000808000808080000020312E0E3120007A
:1048E000808080000080808080818E7018060100AA
:1048F00000808080808080000021302C22213000C8
:1049000000000000807C020200000000003F4040E8
:1049100000000000FF00000000000000FF00000099
:104920000002027C800000000040403F00000000C8
:104930000006010102020404000000000000000063
:1049400060490008000000208000000028370008AF
:10495000E049000880000020B0050000383700085A
:104960000000000000000000000000000000000047
:104970000000000000000000000000000000000037
:104980000000803F0000803F0000803F00000000EA
:104990000000000000000000000000000000000017
:1049A0000000000000000000000000000000000007
:1049B00000000000000000000000000000000000F7
:1049C000000000000000000000700008010000006E
:1049D00001000000100000000000000000127A003A
:04000005080000ED02
:00000001FF
