:020000040800F2
:10000000A0A2002045010008873D0008E133000858
:10001000853D0008A90B0008ED4000080000000025
:100020000000000000000000000000001D3E00086D
:10003000D50D000800000000893D00081F3E0008A3
:100040005F0100085F0100085F0100085F01000810
:100050005F0100085F0100085F0100085F01000800
:100060005F0100085F0100085F0100085F010008F0
:100070005F0100085F0100085F0100085F010008E0
:100080005F0100085F0100085F0100085F010008D0
:100090005F0100085F0100085F0100085F010008C0
:1000A0005F0100085F0100085F0100085F010008B0
:1000B0005F0100088D3E0008993E00085F010008BE
:1000C0005F0100085F0100085F0100085F01000890
:1000D0005F0100085F0100085F0100085F01000880
:1000E0005F0100085F0100085F0100085F01000870
:1000F0005F0100085F0100085F0100085F01000860
:100100005F0100085F010008A53E00085F010008CC
:100110005F0100085F010008B13E00085F010008B0
:100120005F0100085F0100085F0100085F0100082F
:10013000DFF80CD000F026FD004800475D600008A5
:10014000A0A200200648804706480047FEE7FEE7D9
:10015000FEE7FEE7FEE7FEE7FEE7FEE7FEE7FEE777
:10016000893E000831010008D2B201E000F8012BFD
:10017000491EFBD270470022F6E710B513460A4627
:1001800004461946FFF7F0FF204610BD421C10F848
:10019000011B0029FBD1801A7047F0B480EA0102EC
:1001A000D40F4200B2EB410F02D20246084611467C
:1001B0004A0042D0C30DDDB2C1F3C752AD1A202DA3
:1001C00035DAC1F3160141F4000204B15242C5F11F
:1001D000200602FA06F12A411044B3EBD05F23D087
:1001E000C4B1012DA0EBC35009DCF0BC4FF00042BC
:1001F00002EAC352DBB200F5000000F0D8BB4000B9
:1002000000F1807000EBC350A0F1807040EAD17023
:10021000490009E0490841EAC071A0EBC35000F56C
:100220000000400800EBC350F0BC00F0B7BB6142D7
:10023000012202EB4101001BF6E7F0BC704781F0A0
:100240000041AAE780F00040A7E780EA010210B56C
:1002500002F00043400022D04A001FD0010E01EB03
:100260001261C0F35600C2F3560240F4000042F49B
:100270000002A0FB022000047F39140400D0401CBF
:1002800050EA124001D44000491EC2B20C0604EBF1
:10029000D010401C4008802A02D003E0002010BD8E
:1002A00020F00100002900DA0020184310BD30B40E
:1002B00080EA010202F0004530F0004221F00040E7
:1002C00013D090B1C30DD40DC2F31601C0F31600C4
:1002D000E41A41F4000140F400027D34914201D35C
:1002E000641C00E04900002C02DA30BC002070479A
:1002F0004FF400000023914201D3891A03434008C0
:100300004FEA4101F7D151B1914202D14FF0004182
:1003100005E002D24FF0010101E06FF0010103EBB3
:10032000C450284430BC00F039BB2DE9FE4F804654
:1003300081EA0300C00F0C46009021F0004123F039
:100340000045B8EB0200A94105D24046214690463F
:100350001C460B46024623F00040104347D0270DB1
:10036000C7F30A00C3F30A510290401A01904028D3
:100370006BDAC3F3130040F4801B0098924620B15F
:100380000023D2EB030A63EB0B0B01985946C0F133
:100390004002504600F0D1FA06460D4650465946F6
:1003A000019A00F0E9FA10EB08006141002487EAA5
:1003B000115284EAE7731A4340D0009A62B3019A5B
:1003C000012A4FEA075215DC001B61EB02014FF0D6
:1003D000004202EA0752CDE90042001C41F58011BB
:1003E00032462B4600F04FFB03B0BDE8F08F40468D
:1003F0002146F9E7001B61EB0201001C41F5801367
:1004000000185B412018A2F5001747EB030140EAF2
:10041000D570B6196D4111E06D084FEA360645EA10
:10042000C0754FEA0752001B61EB0201001C41F549
:10043000801149084FEA30000019514132462B46DD
:1004400003B0BDE8F04F00F00FBB00980122400060
:100450000023D0EB020263EBE073009821464FEAE1
:10046000E074B8EB000061EB0401E9E783F00043BE
:100470005BE781F0004158E72DE9FE4F81EA030474
:1004800004F0004421F0004100944FF0000B23F0F1
:10049000004350EA01045ED052EA03045BD0C3F388
:1004A0000A54C1F30A552C44A4F2F3340194A0FB7E
:1004B0000254C1F3130141F48011C3F3130343F455
:1004C000801301FB024400FB034E840A970A44EAAE
:1004D000815447EA8357A4FB076802958D0A05FB00
:1004E00007854FEA932C04FB0C542705029D4FEA25
:1004F000065847EA1637B5EB08056EEB070C870E72
:10050000920E47EA811742EA8312A7FB0201B6EB7B
:100510000B0164EB00042B0D43EA0C335E1844EB33
:100520001C50DA465146E7FB0201C5F313044FEABB
:100530000B3343EA14534FEA0432019C43EA0603A7
:10054000A4F10C040294009CCDE900B400F09BFAE5
:1005500003B0BDE8F08F00200146F9E72DE9F04D2A
:1005600081EA030404F0004B21F0004514464FF0EB
:10057000000A23F0004150EA050220D054EA0102AB
:100580001DD0C5F30A570246C5F31303C1F3130088
:10059000C1F30A5640F4801543F48013A7EB060814
:1005A000101BD64608F2FD3873EB050002D308F1A4
:1005B000010801E092185B41B8F1000F03DA002056
:1005C0000146BDE8F08D00204FF4801106468446B8
:1005D0000EE0171B73EB050705D3121B63EB050336
:1005E00006434CEA010C49084FEA300092185B417F
:1005F00050EA0107EDD152EA030012D082EA04006A
:1006000083EA0501084305D0101BAB4106D2012245
:10061000002306E000224FF0004302E06FF00102E9
:1006200053101AEB06004CEB085110EB0A0041EB9B
:100630000B01BDE8F04D00F017BA002801DBC0F156
:100640000040002901DBC1F10041814201D20120BB
:10065000704700207047002801DBC0F100400029EE
:1006600001DBC1F10041814201D30120704700202C
:100670007047002801DBC0F10040002901DBC1F117
:100680000041814201D9012070470020704730B5F8
:10069000041E71F1000404DB4FF00044404264EB9F
:1006A0000101141E73F1000405DB1C464FF00043EA
:1006B000524263EB0403801A994101D3012030BDFB
:1006C000002030BD30B5041E71F1000404DB4FF092
:1006D0000044404264EB0101141E73F1000405DB89
:1006E0001C464FF00043524263EB0403101A8B4147
:1006F00001D3012030BD002030BD30B5041E71F1A2
:10070000000404DB4FF00044404264EB0101141E7E
:1007100073F1000405DB1C464FF00043524263EBCB
:100720000403801A994101D2012030BD002030BD60
:1007300030B5041E71F1000404DB4FF00044404268
:1007400064EB0101141E73F1000405DB1C464FF03D
:100750000043524263EB040342404B401A4301D032
:10076000002030BD012030BDC10F80EAE070084498
:10077000CA079623002100F01AB90EB5C10F80EA0E
:10078000E0700844CA07002140F233438DE80E00B0
:100790000A460B4600F077F903B000BD0EB540F2F3
:1007A000334102910021CDE900110A460B4600F0C9
:1007B0006AF903B000BD20F00040C10DC0F316007F
:1007C00040F400007F2901DA00207047962903DCFD
:1007D000C1F19601C840704796398840704770B59E
:1007E000C1F30A5201F000450024C1F3130140F2A5
:1007F000FF3341F480119A4201DA002070BD40F2CB
:1008000033439A42A2F2334203DC524200F0A4F88E
:1008100000E090402C43F1D0404270BDC1F30A5239
:1008200010B5C1F3130140F2FF3341F480119A4235
:1008300001DA002010BD40F233439A42A2F2334263
:1008400003DC524200F088F810BD904010BD00F06B
:10085000004230F000400AD0C10D01F56071C0F3D4
:10086000160042EA0151C2084007114370470020B8
:100870000146704701F0004330B421F0004150EAD6
:10088000010206D00A0DA2F56072C1F31301002A1D
:1008900002DC30BC00207047440F44EAC104C100B0
:1008A000E01830BC00EBC25000F078B830B50B4611
:1008B000014600202022012409E021FA02F59D4290
:1008C00005D303FA02F5491B04FA02F52844151E64
:1008D000A2F10102F1DC30BD2DE9F05F05460020F8
:1008E00092469B4688460646814640241BE02846A1
:1008F00041464746224600F02FF853465A46C01A52
:10090000914110D311461846224600F016F82D1AD0
:1009100067EB01084F4622460120002100F00DF848
:1009200017EB00094E41201EA4F10104DFDC48460C
:1009300031462A464346BDE8F09F202A04DB203A90
:1009400000FA02F1002070479140C2F1200320FA22
:1009500003F3194390407047202A04DB203A21FA20
:1009600002F00021704721FA02F3D040C2F12002C8
:100970009140084319467047202A06DBCB17203ADE
:1009800041FA02F043EAE07306E041FA02F3D04094
:10099000C2F1200291400843194670470029A8BFC0
:1009A0007047401C490008BF20F00100704710B498
:1009B000B0FA80FC00FA0CF050EA010404BF10BC4D
:1009C000704749B1CCF1200421FA04F411FA0CF17A
:1009D00018BF012121430843A3EB0C01CB1D4FEAB3
:1009E00000614FEA102042BF002010BC704700EBAE
:1009F000C35010440029A4BF10BC7047401C4900DC
:100A000008BF20F0010010BC7047F0B4002802DCE1
:100A1000F0BC00207047C0F3C751C0F3160040F48B
:100A20000000CA0701D14000491E3F2202EB6105C8
:100A3000002211464FF4000626FA01F31344D4189D
:100A4000844201D8001B1A464000491C1729F3DDD7
:100A50005100814202D24FF0FF3100E0002102EB51
:100A6000C550F0BCFFF79ABF10B5141E73F1000417
:100A700008DA401C41F1000192185B411A4301D190
:100A800020F0010010BD2DE9F04D92469B4611B1BA
:100A9000B1FA81F202E0B0FA80F220329046FFF71C
:100AA0004CFF04460F4640EA0A0041EA0B01534658
:100AB0005A46084313D0114653EA010019D0C8F131
:100AC00040025046FFF748FF05460E46504659463D
:100AD0004246FFF732FF084305D0012004E02046DC
:100AE0003946BDE8F08D0020054346EAE0762C4308
:100AF00037430A986305E40AA0EB08000022FD0AC8
:100B000044EA47540A3002D500200146E9E70105CE
:100B100010196941DDE9084500196941BDE8F04D4A
:100B2000A2E7C1F30A52C1F3130140F2FF3341F4CB
:100B300080119A4202DA00200146704740F23343A6
:100B40009A42A2F2334202DC5242FFF705BFFFF79E
:100B5000F4BE000030B5041E71F1000404DB4FF058
:100B60000044404264EB0101141E73F1000405DBF4
:100B70001C464FF00043524263EB0403994208BF06
:100B8000904230BD064C074D06E0E06840F001039E
:100B900094E8070098471034AC42F6D3FFF7CCFA3C
:100BA000887A0008A87A0008FEE7302005F070BDBA
:100BB000312000F049B80146362000F038B820B1A5
:100BC00080B500F04BF8BDE88040342000F03CB820
:100BD000B0B5084DA8470446A84744EA0024A847F2
:100BE00044EA0044A84744EA006405F043FD204677
:100BF000B0BD00BF7966000810B504460C2005F0B2
:100C000047FD204605F056FDBDE81040FFF7E0BF68
:100C100010B504460A2005F03BFD204605F04AFDCC
:100C200005F02AFD044605F025FD204610BD10B54F
:100C30000C4605F02DFD204605F03CFD05F01AFDA3
:100C4000BDE8104005F018BD80B505F021FD05F0A8
:100C500011FDBDE8804005F00FBD000070B50446F1
:100C6000012005F015FD05F007FD422826D82B20B0
:100C7000FFF7CEFF0F2821D82F2005F009FD002017
:100C800005F018FD3220FFF7DFFF142816D1CF2022
:100C9000FFF7BEFF05468DB14C20FFF7ADFF144EA8
:100CA00000EB05214C20B0475020FFF7A5FF00EBDB
:100CB00005215020B04770200021B0472F2005F0BB
:100CC000E7FC14F8015B284605F0F4FC09E0257800
:100CD0005C2D18BF2F2D00D10025284605F0EAFC19
:100CE00001342806F3D1BDE8704005F0C3BC00BF55
:100CF000210D000870B504462D2005F0C9FC05F053
:100D0000BBFC054645B12E4614F8010B05F0D2FC9C
:100D1000013E16F0FF0FF7D105F0ACFC284670BD80
:100D200070B505460D200C4605F0B2FC084E28466D
:100D3000B047E0B2B047C4F30720B047C4F3074060
:100D4000B047200EB047BDE8704005F093BC00BF2F
:100D5000B566000880B5062005F09AFC532005F022
:100D6000A9FC05F089FCAC38B0FA80F0400980BDE0
:100D700010B5124CD4E90110FFF767FA1049FFF7DC
:100D800096FA1049FFF709FA4FF07C51FFF75DFA28
:100D90006064FFF75CFD0C4B0022FFF76DFB0B4B13
:100DA0004FF06632FFF7DAFBFFF738FD03460848DD
:100DB00000210022BDE8104000F00CB960000020C6
:100DC00000007A44000040400000B04066660A40DF
:100DD000E00200207047EFF3108072B6FEE70000DB
:100DE0002A48016811F0100F01D1002105E0D8490F
:100DF000CA6942F00202CA611021026812F0040FAF
:100E000006D0D34A41F00401D36943F00103D36112
:100E1000026912F0010F08D0CD4AD36943F00403F0
:100E2000D361026922F0010202610160704700BFD4
:100E300070B5044600F048FB0546661C134801687F
:100E400011F0010F09D0002EF8D024B100F03CFBC6
:100E5000401BA042F2D9032014E0016811F0200FDA
:100E60001CBF20210160016811F0100F07D101693A
:100E700011F0010F04BF006810F0040F04D0FFF759
:100E8000AFFF0120C0B270BD0020FBE70C20024084
:100E9000E0B500F0BFF9002001A90190EFF3108048
:100EA00072B60D4800F0F8F810B90C4806F0A8F832
:100EB0000B4862B600680B49FFF7C7F9FFF77BFCE8
:100EC000094902460220002300F04CF907A005F072
:100ED000FFFB00F03FF98CBDE00000207D7A0008A8
:100EE000680000200000C842009000086B2E747853
:100EF000743D226F6B22FFFFFF000000012338B317
:100F000031B390F805C00223BCF1010F20D080B5A9
:100F1000037102F0100E40F6FE7303FA0EFC036834
:100F20001A6822EA0C0CD1E90021114301FA0EF1F2
:100F300041EA0C011960C0211A6801FA0EF122EA97
:100F4000010119600121002301714371BDE8804056
:100F5000D8B2704710B504466CB1207920B9002092
:100F60006071204600F00AF8022001212071002063
:100F70002061217110BD012010BD0000FEB50021CF
:100F8000CDE90411CDE902110168104881421BD15D
:100F90000F4900F514404A6842F000524A604A681E
:100FA00002F000520192019A0A6842F004020A60BB
:100FB000096801F004010191019930210291032196
:100FC000039102A900F09EF906B080BD00740040B4
:100FD0001810024081B04FF0000C0028CDF800C07E
:100FE0000CD00068002900900098104414BF143001
:100FF0000830009000980360002000E0012001B05C
:10100000704708B343790222012B2DD080B54FF0F1
:10101000010C01F0100E002980F805C002710CFAD5
:101020000EFC0268136843EA0C031360D2F800C098
:101030000CD03C210CF4701301FA0EF18B420DD14F
:10104000516841F0020108E001220DE00CF03C0182
:101050003C2903D1516841F0010151600121002276
:1010600001714271BDE88040D0B2704770B505464D
:101070006E1C00F029FA04461EB1064800780544AB
:1010800001E04FF0FF3500F01FFA001BA842FAD331
:1010900070BD00BF080000202DE9F8435B4E0546F7
:1010A0008946307E012801D1022021E001203076DE
:1010B0004CF250302C68FFF7BBFE554F022C13D179
:1010C00098B90020F061386840F004003860386852
:1010D00040F0400038604CF25030FFF7A9FE39680C
:1010E00021F00401396001E030B1012000213176A6
:1010F000C0B201B0BDE8F0834FF0FF304FF0000800
:10110000C9F800000120A9680C4618E0C6F81C8048
:10111000386840F0020038607C60386840F0400079
:1011200038604CF25030FFF783FE3968002821F018
:101130000201396009D1A96804F500640020EA6859
:1011400001EBC2218C42E1D3D0E7C9F80040CDE7E2
:10115000400500202E48016841F080010160002018
:10116000704700BF2DE9F84FDFF8A08081461C468C
:1011700092460E4698F81800012801D1022042E05C
:10118000012088F818004CF25030FFF751FEB8BB30
:10119000B9F1020F4F466FF01F0B18BF0427B9F1CA
:1011A000010F08BF4F464FF000095FFA89F08742F0
:1011B00025D900210201C8F81C102AFA02F2144DA8
:1011C000296841F0010129602021A1EB001104FAF6
:1011D00001F111430BEB0012002AA8BF24FA02F11F
:1011E00026F810104CF25030FFF722FE296809F162
:1011F0000109002821F001012960D6D000E000207B
:10120000002188F8181001B0BDE8F08F40050020DB
:10121000102002400748C16811F0800F04BF002071
:1012200070470549016005490160C068C0F3C010FE
:10123000704700BF0420024023016745AB89EFCD12
:101240002DE9F84F8E4A06274FF0000A0F244FF081
:101250000009904208BF05278A4A02444FEAB22398
:10126000052B38BF4FEAB227009731FA09F208BFC1
:10127000BDE8F88F012202FA09F212EA01073BD019
:10128000894A4FEA990C0AF00C0604FA06FBA2F50B
:101290007E7E5EF82C80009BB34008EA0B04FE4380
:1012A0009C4212D11368334013605368334053603B
:1012B0007F4B1C6834401C609368334093605EF839
:1012C0002C2022EA0B024EF82C20B7F5807F024634
:1012D0004D4628BF04321368714C28BF25440F24A3
:1012E000AF0004FA07F5AB43042505FA07F73B43C3
:1012F0001360C2683240C2600AF1040A09F10109B0
:10130000B3E700BF2DE9FE4F5D4A06274FF0000B03
:101310004FF001094FF0000A0025904208BF052751
:10132000584A02444FEAB223052B38BF4FEAB2278E
:1013300000F1140201970F2700920A6832FA05F3B0
:1013400008BFBDE8FE8F09FA05FE12EA0E0F00F095
:1013500093804A68032A16D9112A27D0122A29D045
:10136000494B9A4213D0494B9A421CBF484B9A4270
:101370000DD0484B9A421CBF474B9A4207D0474B6F
:101380009A4204D023E0DFE802F002191C208A68A8
:101390004AB1012A009A4FF0080A08BF00F1100272
:1013A000C2F800E013E04FF0040A10E0CA6802F14E
:1013B000040A0CE0CA6802F10C0A08E0D1F80CA09B
:1013C00005E0CA6802F1080A01E04FF0000A082DA2
:1013D00002462E4628BF04321368314C28BF2644EB
:1013E000B40007FA04F60AFA04F4B3432343136083
:1013F000CA79D20640D52B4A25F00306136843F07C
:1014000001031360126802F0010202920BF00C0259
:10141000254C07FA02F8DDF808C0244F2644F3599A
:1014200023EA080C019B03FA02F242EA0C02F25191
:101430000F274A681E4EA36812F4801F0CBF23EAD0
:101440000E0343EA0E03A3609302336854BF23EAFA
:101450000E0343EA0E0333609303636854BF23EA29
:101460000E0343EA0E03D2036360226854BF22EAEC
:101470000E0242EA0E0222600BF1040B01355CE71A
:10148000001C014000F8FEBF000011100000121007
:101490000000211000002210000031100000321066
:1014A000F8FFFF3F181002400004014008FCFFFF56
:1014B0000C0401408068084018BF01207047002AD2
:1014C00008BF09040161704701488068704700BF88
:1014D0000800002010B50446A4B1242084F83D0083
:1014E0002068016821F001010160204600F064FBE2
:1014F0000020206484F83D00206384F83E0084F8D6
:101500003C0010BD012010BDB0B504462CB394F8CA
:101510003D0028B9002084F83C00204600F068FB1C
:10152000242084F83D002068016821F00101016059
:10153000016841F400410160016821F4004101604B
:1015400000F0C0FC65684849484A8D423CBF48F2FB
:101550008042C0F21E02904201D20120B0BD444937
:10156000B0FBF1F2216801384B6823F03F031343CD
:101570004B600B6A23F03F0C3B4B9D4221BF4FF465
:1015800096735A434FF47A73B2FBF3F201324CF67E
:10159000FF7342EA0C020A62CA6922EA030C354A66
:1015A000954209D86A00B0FBF2F001306FF31F30AA
:1015B000042898BF04202DE0D4F808E0BEF1000F05
:1015C00008D0192204236A43B0FBF2F2013263F31C
:1015D0001F3206E005EB4502B0FBF2F201326FF379
:1015E0001F3212050BD0BEF1000F0AD019226A4338
:1015F000B0FBF2F00422013062F31F3008E001205A
:1016000008E005EB4502B0FBF2F001306FF31F304C
:1016100040F4004040EA0C00C8610868D4E90723A0
:1016200020F0C000104348F2FF3218430860886879
:101630009043D4E90323184310438860C868D4E971
:10164000052320F0FF0010431843C860086840F0ED
:101650000100086000202021206484F83D102063F0
:1016600084F83E00B0BD00BFA186010000093D0026
:1016700040420F00A08601002DE9FE4F1D46904616
:1016800089460446FFF720FF064694F83D002028CF
:101690000CD10096204601221923FA4F394601F059
:1016A000C2FF18B994F83C00012806D14FF0020B94
:1016B0005FFA8BF003B0BDE8F08F012001974FF087
:1016C000000A09F0FE09A0274FF0010B84F83C0046
:1016D0002068016811F0010F02BF016841F00101AB
:1016E0000160016821F400610160242184F83D104B
:1016F000C4F840A0E449E16235E0C1F81090FFF77A
:10170000E3FE064607E0FFF7DFFE15B1801BA842A7
:1017100001D984F83D7020684169426994F83D30F0
:10172000A02B05D001F0020102F480621143EAD03F
:10173000202184F83D104169026842F4007211F0E2
:10174000020F026028D12649012219234161204657
:101750000096019901F067FF0028A9D10AF1010A5A
:10176000C24534D22068016800222B4641F48071C2
:10177000016020464FF00111009601F054FF2168EE
:101780000028BAD008684FF0030B10F4807F1CBF0C
:101790004FF4007020648BE70025012219234FF0DD
:1017A000010B0295416902918069029002980199AA
:1017B0000096204601F037FF00287FF479AF202003
:1017C0004FF0000B84F83D0084F83C5070E7202077
:1017D0004FF0010B84F83D00002084F83C0067E7DF
:1017E000FFFBFFFF2DE9FF47044600201F4616467A
:1017F0000D460390FFF768FE814694F83D002028CF
:101800000CD1CDF80090204601221923E84901F0BF
:101810000AFF18B994F83C00012804D10220C0B294
:1018200004B0BDE8F0870122DDE90C10DDF8388056
:1018300084F83C202268136813F0010F02BF13687C
:1018400043F001031360136823F400631360222242
:101850003B4684F83D20402284F83E20002222644A
:101860006162608529463246608D2085D148E062FC
:101870002046CDE9008901F0CDFD002840F0FF8031
:10188000218DB9B12068012921D1016821F480613D
:101890000160EFF3108072B6002002902068416969
:1018A0000291816902910299016841F4007101601D
:1018B00062B62DE0002002902068416902918169A2
:1018C00002910299016841F40071016020E0026810
:1018D000022913D142F400610160EFF3108072B667
:1018E0000020029020684169029181690291029969
:1018F000016821F48061016062B609E042F4806110
:101900000160002102914169029180690290029870
:10191000208DDFF8B0A946F2A816232795E085B2FE
:10192000032D0AD8012D2AD1204641464A4601F00E
:1019300015FF002800F07C80A1E0204641464A4681
:1019400001F00CFF002840F09A8020680069616A6D
:101950000870606A01306062208D01382085618DD9
:101960000139618521684A6912F0040F6DD080B297
:10197000032802BF086820F48060086058E0CDF8B2
:101980000090204600224346404901F04CFE022DC3
:1019900017D1002873D1EFF3108072B62068016868
:1019A00041F4007101600069616A0870606A013089
:1019B0006062208D01382085608D0138608562B6B7
:1019C00036E000285BD12068016821F48061016065
:1019D000EFF3108072B620680069616A0870606A6F
:1019E00001306062218D01392185618D0139618568
:1019F000DAF80010B1FBF6F179430391039901394C
:101A00000391039969B321684A6912F0040FF5D074
:101A10000A6842F400720A6009690170606A013064
:101A20006062208D01382085608D0138608562B646
:101A300020680069616A0870606A01306062208D08
:101A400001382085618D0139618501047FF467AF1C
:101A5000202084F83D00002084F83E0084F83C00FB
:101A6000DDE600202021206384F83D1084F83E004C
:101A7000216C41F02001216462B684F83C00012011
:101A8000CDE600BF020010000000FFFF04000100CF
:101A90002DE9FE43994616460F460446FFF714FD0E
:101AA000054694F83D0020280BD1009520460122E0
:101AB00019233F4901F0B7FD18B994F83C000128FB
:101AC00004D10220C0B203B0BDE8F0830122DDE9F9
:101AD0000A10DDF8308084F83C202268136813F087
:101AE000010F02BF136843F001031360136823F46E
:101AF0000063136021224B4684F83D20402284F885
:101B00003E20002222646162608539463246608D43
:101B100020852848E0622046CDE9008501F0FAFCE6
:101B200008B10120CEE7208D23E0204641462A4619
:101B300001F04AFE28BB616A2268084610F8013BA2
:101B400013616062238D581E2085678D013F678574
:101B5000576917F0040F0CD000044FF0000008D0B4
:101B600048781061881C6062981E2085618D01395B
:101B700061850004D9D1204641462A4601F026FD60
:101B800040B1206C0428CCD12068016841F4007178
:101B90000160C6E72068016841F4007101602020FF
:101BA00084F83D00002084F83E0084F83C0089E77A
:101BB000020010000000FFFF10B50B4C0068A4F5F8
:101BC0003841884218BF10BD0848016821F400114F
:101BD000016020464021FFF733FB20468021BDE80D
:101BE0001040FFF72DBB00BF000C01401C1002404D
:101BF000B0B586B004460020CDE90400CDE902006E
:101C000021681648814226D13B4D00F538402968AD
:101C100041F008012960296801F00801019101994A
:101C2000C0210291122103910321059102A9FFF71E
:101C300069FB686840F400106860686800F4001090
:101C4000019001982068016841F400410160016839
:101C500021F40041016006B0B0BD00BF0054004057
:101C600019480178826811448160704780B507483F
:101C7000016841F010010160032000F079F80020B4
:101C800000F006F800F022F8002080BD002002409D
:101C900070B50D4E04464FF47A713078B1FBF0F018
:101CA00092490968B1FBF0F000F010FB01250F2C00
:101CB00008D838B94FF0FF3021460022002500F047
:101CC0002BF87460284670BD0800002082B00A48D6
:101CD000016841F001010160016801F00101019119
:101CE0000199416841F080514160406800F08050A6
:101CF0000090009802B0704718100240002808DBDE
:101D000000F01F010122400902FA01F1014A42F8E4
:101D10002010704700E100E0B0B5144C1A4D00F0FF
:101D20000F03B0F1FF3FA3F104032B4403F10C03B5
:101D3000C8BF03192868C0F30220051DC41E80F027
:101D40000700072D4FF0010538BF0024042828BFE5
:101D5000042005FA00F00138084005FA04F10F31BB
:101D6000A0401140084300011870B0BD00E400E03D
:101D700005494FF6FF030A681A4060F30A22034838
:101D800010430860704700BF0CED00E00000FA054A
:101D90002DE9F04104468846002C00F08880464F2B
:101DA0004FF48050395801F0070141450AD23958A3
:101DB00021F0070141EA08013950385800F00700C6
:101DC000404574D1206810F0020F11D0410742BF86
:101DD000796841F4E0617960010742BF796841F4B4
:101DE000605179607968A26821F0F001114379604F
:101DF000C00727D06068012804D1396811F4003F7A
:101E000008D154E03968022802D1890102D44EE099
:101E100089074CD5796821F0030108437860FFF702
:101E200053FB064641F288357868616800F00C0083
:101E3000B0EB810F06D0FFF747FB801BA842F3D918
:101E4000032035E04FF48050395801F00701414537
:101E50000AD9395821F0070141EA080139503858A8
:101E600000F00700404522D1206810F0040F05D093
:101E70007968E26821F4E06111437960000706D5D2
:101E80007868216920F4605040EAC100786000F071
:101E900031F87968094AC1F30311515CC84013490C
:101EA000086007480068FFF7F3FE002000E001200B
:101EB000C0B2BDE8F08100BF00100240B070000861
:101EC0000C00002009480A4A006818490968C1F353
:101ED0000221515CC8407047FA48054A0068F7493A
:101EE0000968C1F3C221515CC8407047F00000206E
:101EF000C07000080D490A680D4802F00C03082B59
:101F000018BF7047C2F3834C0AA312F4803F13F842
:101F10000C3002D10C4858437047096809A2584355
:101F2000C1F34041515CB0FBF1F070470410024036
:101F300000127A0002030405060708090A0B0C0DBB
:101F40000E0F10100102000000093D002DE9FE4FA8
:101F50008246BAF1000F00F065819AF80000D64E73
:101F6000D64FC00750D0386800F00C00042819D0B4
:101F7000386800F00C00082803D1386810F4803F5E
:101F800010D1DAF80400A8B1B0F5803F06D031686E
:101F9000B0F5A02F24D141F480203060306840F4A7
:101FA000803023E0306810F4003F2DD0DAF80400D0
:101FB00050BB37E1306820F480303060306820F466
:101FC00080203060FFF780FA0546306810F4003F4B
:101FD0001AD0FFF779FA411B03206429F5D922E1D1
:101FE00021F480303060306820F480203060FFF7CA
:101FF0006BFA0546306810F4003F05D1FFF764FA2C
:10200000401B6428F6D9EBE09AF800008007AC4842
:10201000834632D5386810F00C0F1DD0386800F0B8
:102020000C00082804BF386810F4803F14D0DAF898
:102030001000002800F09580012059460860FFF745
:1020400043FA0546306810F0020F0ED1FFF73CFA54
:10205000401B0228F6D9C3E0306810F0020F1CBF05
:10206000DAF81000012840F0DD803068DAF814104A
:1020700020F0F80040EAC10030609AF80000000744
:1020800031D5DAF8180080B101205946C1F8800432
:10209000FFF71AFA0546386A10F0020F16D1FFF75B
:1020A00013FA401B0228F6D99AE000205946C1F8DD
:1020B0008004FFF709FA0546386A10F0020F12D0C3
:1020C000FFF702FA401B0228F6D989E07D484FF459
:1020D000FA510068B0FBF1F0029000BF0298411E77
:1020E00000280291F9D19AF80000400740F1818060
:1020F000B86910F0805F0BD1B8694FF0010840F06B
:102100008050B861B86900F080500190019801E0FA
:102110004FF000086C48305810F4807F12D16A48A4
:10212000315841F480713150FFF7CEF905466648C9
:10213000305810F4807F05D1FFF7C6F9401B6428A2
:10214000F5D94DE0DAF80C00E8B1012805D0F969BD
:10215000052830D141F00400F861F86940F0010031
:102160002FE0002059460860FFF7AEF905463068B9
:1021700010F0020F3FF481AFFFF7A6F9411B0320D7
:102180000229F4D94FE0F86920F00100F861F869FC
:1021900020F00400F861FFF797F9054641F288390D
:1021A000F86910F0020F1DD0FFF78EF9411B0320D4
:1021B0004945F5D937E021F00100F861F86920F0D0
:1021C0000400F861FFF780F9054641F28834F869A8
:1021D00010F0020F06D1FFF777F9401BA042F6D9A5
:1021E000032020E0B8F1010F02BFB86920F0805051
:1021F000B861DAF81C405946002C5AD0386800F013
:102200000C00082813D1012C0CD03868DAF8201003
:1022100000F480328A4205D1DAF8241000F47010FC
:10222000884246D00120C0B203B0BDE8F08F002044
:102230000866FFF749F90546022C0AD1306810F00C
:10224000007F11D0FFF740F9411B03200229F5D987
:10225000E9E7306810F0007F2BD0FFF735F9411B1C
:1022600003200229F5D9DEE7DAF82000B0F5803F37
:1022700006D13968DAF8082021F4003111433960B9
:10228000396821F474110843DAF8241008433860DF
:102290000120CBF86000FFF717F90446306810F012
:1022A000007F06D1FFF710F9011B03200229F5D9A1
:1022B000B9E70020B7E700BF001002400410024059
:1022C00000004242F00000200060FEFF411E00209E
:1022D000B0EB116F1CBF01207047044AF02351601E
:1022E00003490B70072190601160704710E000E017
:1022F00023ED00E07047704790F83C300222012B3C
:102300002ED080B5012380F83C3080F83D20026853
:102310005368D2F808C0B2F1804F23F0700E0B68FA
:1023200043EA0E035360BDE880400ED0684B9A42EA
:102330001CBF684B9A4208D0674B9A421CBF674B40
:102340009A4202D0664B9A4204D149682CF080032D
:10235000194391600121002280F83D1080F83C2053
:10236000D0B2704710B5044634B394F83D0028B994
:10237000002084F83C00204600F020F80220211DB7
:1023800084F83D00206801F099FD012084F84600A2
:1023900084F83E0084F83F0084F8400084F841004F
:1023A00084F8420084F8430084F8440084F845002F
:1023B00084F83D00002010BD012010BDE0B500688C
:1023C0002B4908444FEAB0212A48032988BF8CBD15
:1023D000DFE801F0023B15280168002241F002010C
:1023E00001600121006800F00200019001981D20A9
:1023F000FFF792FC1D20BDE88C40FFF77FBC016811
:10240000002241F0080101600321006800F008008B
:10241000019001983220FFF77FFC3220BDE88C400C
:10242000FFF76CBC0168002241F01001016004213B
:10243000006800F01000019001983620FFF76CFC56
:102440003620BDE88C40FFF759BC0168002241F0FE
:10245000040101600221006800F00400019001986D
:102460001E20FFF759FC1E20BDE88C40FFF746BC3C
:1024700000FCFFBF1C10024090F83D1001291CBF5A
:1024800001207047022180F83D100068C168B0F15A
:10249000804F41F00101C1600ED00D4988421CBF40
:1024A0000C49884208D00C4988421CBF0B4988421D
:1024B00002D00B49884204D1816801F00701062946
:1024C00003D0016841F0010101600020704700BFA6
:1024D0000004004000080040000C004000340140AF
:1024E000002C014010B50446022094F83C20012A3B
:1024F00070D001224FF6777384F83C2084F83D00B9
:10250000206882689A4382600A6812B3102A20D039
:10251000202A18BF302A1CD0402A21D0502A2BD084
:10252000602A35D0B2F5005F3ED0B2F5805F4AD068
:10253000702A51D1D1E90123C9681A4342EA012125
:10254000826822F47F4211438160816841F0770103
:1025500038E0816821F07701114341F0070131E053
:102560004B68CA68194601F0FDFC2068816821F0BB
:10257000770141F0470125E04B68CA68194601F030
:10258000F1FC2068816821F0770141F0570119E0E2
:102590004B68CA68194601F0F6FC2068816821F092
:1025A000770141F067010DE0D1E90123C9681A43C1
:1025B00042EA0121826822F47F42114381608168EE
:1025C00041F4804181600020012184F83D10002108
:1025D00084F83C10C0B210BD0120F5E72DE9F84F9A
:1025E00004460D46002C4DD094F83D0028B900203B
:1025F00084F83C00204600F049F8022044F207022B
:1026000084F83D002068816891438160211D01F0BC
:1026100055FC20688168D0F818A0D0F820C0D5E912
:10262000003ED5E902B7D5E90489D5E90626194364
:102630002B6A4BEA02224FF6FC4581604FF6FF7190
:10264000AA432AEA01013943114341EA062141EA3A
:10265000081141EA033181612CF0220141EA0E01A7
:1026600041EA09110162012084F8460084F83E0025
:1026700084F83F0084F8420084F8430084F83D0069
:10268000002000E0012001B0BDE8F08FFEB5002180
:10269000CDE90411CDE902110068B0F1804F1AD1E3
:1026A0000E48426842F001024260426802F00102B4
:1026B0000192019A026842F004020260006800F090
:1026C0000400019001980320CDE90201049102A9C0
:1026D0000348FEF717FE06B080BD00BF1810024089
:1026E0000008014010B590F83E4090F83F3090F857
:1026F00042E090F843C0012204290BD0A9B9012C73
:1027000008BFBEF1010F41D1022180F83E1080F8D0
:1027100042102CE0012B08BFBCF1010F36D1022181
:1027200080F83F1080F843101DE0012C08BF012BFA
:102730002CD1BEF1010F08BFBCF1010F26D102223E
:10274000002980F83E2080F83F2080F8422080F861
:1027500043200CD001680A6A22F001020A620A6A68
:1027600042F001020A6210216FF0100202E0012122
:102770006FF001020068036A1A400262026A1143A4
:1027800000220162016841F001010160104610BDA4
:102790007047B0B504462068C168026901EA0205C5
:1027A000A90714D56FF00201016101212177806929
:1027B00010F0030F03D02046FFF7EAFF05E02046A4
:1027C00000F074F8204600F072F8002020776807C7
:1027D00015D520686FF0040101610221217780691D
:1027E00010F4407F03D02046FFF7D2FF05E02046DB
:1027F00000F05CF8204600F05AF800202077280707
:1028000015D520686FF00801016104212177C069A6
:1028100010F0030F03D02046FFF7BAFF05E0204673
:1028200000F044F8204600F042F800202077E80647
:1028300015D520686FF01001016108212177C0696A
:1028400010F4407F03D02046FFF7A2FF05E02046AA
:1028500000F02CF8204600F02AF800202077E80746
:1028600006D020686FF001010161204600F020F8D9
:10287000280606D520686FF0800101612046FFF729
:1028800039FD680606D520686FF0400101612046D9
:1028900000F05CFCA80658BFB0BD20686FF02001B6
:1028A00001612046BDE8B040FFF725BD7047704785
:1028B0002DE9F84FDFF8EC160446206809688842D5
:1028C00016D1DFF8E416CA68531C042ACB600FDB6C
:1028D0000022CA60DFF8D4160978052905D801223C
:1028E00002FA01F111F0360F02D103F04BFC20681F
:1028F000DFF8BC16096888420FD1DFF8AC562869AA
:102900000130286100F0C8FF03F008F828690528A5
:1029100003DB0020286103F07FFBDFF898062168C5
:102920000068814240F0EB82DFF87C0641694A1C76
:1029300031294261C0F2E382DFF870560021416123
:102940002978CA4815290CD8DFE801F0660B0B0E70
:102950000E0E0B720B170B0B17170B0B0B0B0B0B36
:102960000B0E022100220AE002210122FEF7A7FD40
:10297000DFF84406BE49016003E002210122FEF7B0
:102980009EFDFEF7F5F92878152800F2B882DFE8F9
:1029900010F05400B602B6021600B602B602B60235
:1029A000670075007800B602CE00D900040124014A
:1029B000B602B602B6021600160016001600DFF8C0
:1029C000040600680146FDF740FC0546DFF8F805FF
:1029D00000680146FDF739FC01462846FDF7DDFB9E
:1029E0000546DFF8E80500680146FDF72EFC0146C4
:1029F0002846FDF7D2FB04F015FBDFF8D41508607C
:102A00009B49FDF722FCFDF722FF02460FF2C4505E
:102A10000B4603F05DFE72E2DFF8A4150978042985
:102A200040F0EB8002210122FEF749FD904EE9E0E3
:102A3000DFF8841500220A6093E7DFF88405007848
:102A4000042840F0E380DFF8D80603F041FEDFF809
:102A5000D4060068FDF7FBFE0246DFF8CC06D7E798
:102A600003F07CFADFF868050068814D2946FDF720
:102A7000ECFBFDF7ECFEDFF8F8651BE203F00EFB64
:102A80003DE203F06BFA03F04DFBDFF82C05006824
:102A9000FDF7DDFE0246DFF83006DFF8D4650B46B1
:102AA000B047DFF82C050068714D2946FDF7CDFBD6
:102AB000FDF7CDFE02460FF21C500B46B047DFF883
:102AC0000C0629460068FDF7C0FBFDF7C0FE024674
:102AD000DFF8FC050B46B047DFF8F805294600682B
:102AE000FDF7B3FBFDF7B3FE0246DFF8EC050B463E
:102AF000B047DFF8E80529460068FDF7A6FBFDF7BB
:102B0000A6FE0246DFF8D8050B46B047DFF8FC0505
:102B10000078642800F080810A2800F08181012873
:102B200040F0ED81DFF8F00503F0D2FDE7E1DFF8DA
:102B3000D06442F2273231684E4891426BDD42F256
:102B400028326CE003F00AFA03F0ECFADFF898049C
:102B50000068411CDFF85C0503F0BAFDDFF858059A
:102B60000078411CDFF8540503F0B2FDDFF87475FE
:102B70003D6841492846FDF760FD00285ED03F4989
:102B80002846FDF776FD002800F04E8128460021FA
:102B9000FDF761FD002853D148E103F0DFF903F0B0
:102BA000C1FADFF84404DFF8C8640068411CDFF8AC
:102BB0000405B047DFF800552878411CDFF8FC0415
:102BC000B0472878DFF8F81451F8302001EBC00046
:102BD0004368DFF8F004B0475CE1DFF80C740021D3
:102BE0000FF2084505E04E1C2846324603F070FD02
:102BF000314638688142F6D381E102210022002665
:102C0000FEF75DFCDFF8B0030660BAE6DFF80C05FE
:102C100003F05EFD73E1421C9142024601DA114667
:102C20003260DFF8E09342F22733D9F800209A426D
:102C300009DD42F22832C9F800200AE00E48386067
:102C40000FF2A840F3E0431C9A420246B8BFC9F80D
:102C50000020DFF8B48342F22733D8F800209A42EC
:102C60000EDD42F22830C8F800000EE000100140EE
:102C70000000C842D8DCFFFF00A00C4600A00CC634
:102C8000431C9A42B8BFC8F80000B1F1FF3FCCBF67
:102C90000FF278300FF2843003F01AFDD9F80000FB
:102CA000B0F1FF3FCCBF0FF284300FF2903003F051
:102CB0000FFDD8F80000B0F1FF3FCCBF0FF28C3011
:102CC0000FF2983003F004FD3068002800D5404230
:102CD0004FF47A7ADFF8987390FBFAF1DFF88C03FF
:102CE000B8473068002800D540424FF0640B0A25F1
:102CF00090FBFBF090FBF5F101EB8101A0EB4101B2
:102D0000DFF87003B847306890FBF5F090FBF5F101
:102D100001EB8101A0EB4101002900D54942D648D1
:102D2000B847306890FBF5F101EB8101A0EB410160
:102D3000002900D54942D148B847D9F8000090FB96
:102D4000FAF110F57A7FCE48D8BF4942B847D9F892
:102D50000000002800D5404290FBFBF090FBF5F10D
:102D600001EB8101A0EB4101C648B847D9F800004A
:102D7000002800D5404290FBF5F090FBF5F101EB07
:102D80008101A0EB4101C048B847D9F800000028F4
:102D900000D5404290FBF5F101EB8101A0EB410130
:102DA000BA48B847D8F80000002800D5404290FB48
:102DB000FAF1B748B847D8F80000002800D54042DB
:102DC00090FBFBF090FBF5F101EB8101A0EB4101E1
:102DD000B048B847D8F80000002800D5404290FB22
:102DE000F5F090FBF5F101EB8101A0EB4101AA4860
:102DF000B847D8F80000002800D5404290FBF5F114
:102E000001EB8101A0EB4101A4A0B847A7480078DD
:102E1000411CA748B84772E0BD4803F059FC6EE07A
:102E2000BC4803F055FC6AE0AF483860B24803F094
:102E30004FFC3868FDF7BFFC4FF47A718C4EB0FB45
:102E4000F1F1AE48B0473868FDF7B5FC64210A25BA
:102E5000B0FBF1F0B0FBF5F101EB8101A0EB41011A
:102E6000A748B0473868FDF7A6FCB0FBF5F0B0FB0B
:102E7000F5F101EB8101A0EB4101A248B0473868B0
:102E8000FDF799FCB0FBF5F101EB8101A0EB4101ED
:102E90009D48B04748480068FDF7D9FC02468A487B
:102EA0000B46B0474A480068444D2946FDF7CDF926
:102EB000FDF7CDFC024647A00B46B04783482946A4
:102EC0000068FDF7C2F9FDF7C2FC024680480B46D8
:102ED000B047804829460068FDF7B7F9FDF7B7FC11
:102EE00002467D480B46B0477C4829460068FDF7FE
:102EF000ACF9FDF7ACFC024679480B46B0478B486D
:102F000021680068814201D0BDE8F88F264CA06995
:102F1000411CB0F5F97FA16112DD00205821032288
:102F20006423A0618248FEF7A7FB30B18048FEF71A
:102F3000D1FA00F0FBFD012020707D4800F072FC0A
:102F4000E069411C3128E161B8BFBDE8F88F17493D
:102F50000020E0610978013904290CD8DFE801F08C
:102F600003070B191D00BDE8F84F01F0C1B8BDE81B
:102F7000F84F01F025BA6F4908606F4908606F4942
:102F800008606F4908606F4908606F490860BDE8D4
:102F9000F88FBDE8F84F01F049B9BDE8F84F01F0EE
:102FA0006DBA00BF900300202000002042000020E6
:102FB000D803002020040020640000200000C84244
:102FC00043000020780000207C00002080000020CA
:102FD000A00000206D6F642E7478743D22252E3180
:102FE0006622FFFFFF000000540000207425642EBD
:102FF0007478743D22B5DA2564D7E922FFFFFF001B
:103000006C0000207000002074000020766973209E
:10301000736E312C30FFFFFF0000000076697320D3
:10302000736E312C31FFFFFF0000000076697320C2
:10303000736E322C30FFFFFF0000000076697320B2
:10304000736E322C31FFFFFF0000000076697320A1
:10305000736E332C30FFFFFF000000007669732091
:10306000736E332C31FFFFFF000000007B720008FD
:10307000D1660008B7720008F37200082F730008C9
:103080005D72000899720008D5720008117300087B
:103090008A720008C67200080273000875342E7424
:1030A00078743D22256422FFFFFF000060000020AD
:1030B000427200088F73000861000020A5730008A9
:1030C000709B00206E7300083E730008840000208F
:1030D000327200088C0000204E730008940000201B
:1030E0005E7300086005002000A00CC6766973209E
:1030F00074342C30FFFFFF00247400086C72000849
:10310000A8720008E4720008207300084100002043
:10311000BC730008DB730008FA7300081974000818
:1031200030740008680000207F73000868040020E5
:10313000F4020020A8000020B4000020AC00002011
:10314000B8000020B0000020BC000020704710B57F
:1031500004464CB394F8410028B9002084F840009C
:10316000204600F023F8242084F841002068C1683C
:1031700021F40051C160204600F03EFF2068016943
:1031800021F490410161416921F02A014161C16846
:1031900041F40051C16000202021606484F8411096
:1031A00084F84210606310BD012010BD70B586B078
:1031B0000026CDE90466CDE902660168294C2A485B
:1031C0002A4A914227D02A4A914249D1016802AD48
:1031D00041F480410160016801F48041019101994D
:1031E000016841F0040101602946006800F0040014
:1031F000019001984FF40070029002200390032088
:1032000005902046FEF77EF84FF480600290002083
:10321000CDE9030020E0416802AD41F40031416096
:10322000416801F4003101910199016841F0040104
:1032300001602946006800F0040001900198042014
:10324000029002200390032005902046FEF75AF8D2
:103250000820CDE90206049620462946FEF752F8DA
:1032600006B070BD00080140181002400044004044
:10327000003801402DE9F84304461D4617468846AC
:1032800094F8420020281ED1B8F1000F4FF0010041
:1032900018BF002F49D04FF000092220C4F84490F5
:1032A00084F84200C4F83090FEF70EF9A785E78550
:1032B0000646A068B0F5805F07D12769002F0CBFD4
:1032C000C146474625E002202FE0474621E0204640
:1032D000202132462B4600F0D1FE10BB47B1A0683A
:1032E000B0F5805F0CD008B9206948B17F2008E0B4
:1032F0002068002740686FF35F2029F8020B05E083
:10330000FF2021684968084007F8010BE08D01386B
:10331000E085E08D0028DAD1202084F842000020EA
:1033200003E0202084F842000320C0B201B0BDE8D1
:10333000F0832DE9F84304461D461746884694F865
:10334000410020281CD1B8F1000F4FF0010018BF38
:10335000002F42D04FF000092120C4F8449084F897
:103360004100FEF7B1F8A784E7840646A068B0F5EF
:10337000805F07D12769002F0CBFC146474618E080
:1033800002202AE0474614E02046802132462B46A0
:1033900000F074FEE8B9206817B117F8011B04E0CB
:1033A00039F8021B00276FF35F214160E08C013880
:1033B000E084E08C0028E7D12046402132462B46AD
:1033C00000F05CFE2021002884F8411018BF032083
:1033D00003E0202084F84100032001B0BDE8F08321
:1033E000FEE70000014600200A68536913F4806F6D
:1033F00008BF7047D84B53612022086381F83D20F5
:1034000081F83E000A6C42F004020A6481F83C0034
:10341000012070472DE9FC4B04460E46DDF828904C
:10342000DDF82C801D461746002220684B460168B7
:1034300041F480610160016841F4807101602046BF
:103440004FF00111CDF8008000F0EDF8216840B197
:10345000086810F4807F1CBF4FF4007020640320C4
:1034600036E006F0FE0B20464A464346C1F810B04F
:10347000554E314600F022F948BB002042460190EB
:103480002068416901914946806901900198204670
:1034900000F09AF998B9012D08D02068390A4246FF
:1034A00001612046494600F08FF940B92068F9B221
:1034B000424601612046494600F086F960B1206C21
:1034C000042804D12068016841F4007101600120E2
:1034D000C0B202B0BDE8F08B206800224B46016804
:1034E00041F48071016020464FF00111CDF8008059
:1034F00000F099F821680028AAD14BF001004A4653
:10350000434608612046314600F0D8F8002818BF2D
:103510000120DDE72DE9FE4304460F460A9D0B9E80
:1035200099469046002220682B46016841F480713C
:10353000016020464FF00111009600F074F82168F8
:1035400040B1086810F4807F1CBF4FF40070206405
:1035500003200AE007F0FE002A46334608612046B1
:10356000194900F0ABF820B10120C0B203B0BDE8AA
:10357000F08300203246029020684169029129467A
:10358000806902900298204600F01EF940B1206C3C
:103590000428E9D12068016841F400710160E3E783
:1035A000B9F1010F0AD020684FEA182132460161B3
:1035B0002046294600F008F90028E8D120685FFA83
:1035C00088F101610020D0E702000100F8B50E4645
:1035D00015460446771C2068406910F0040F1FD17F
:1035E0002046FFF7FFFEC8B9002FF4D0FDF76CFFAF
:1035F00016B1401BB042EED92068406910F0040FAC
:10360000E9D100202021206384F83D1084F83E0099
:10361000216C41F02001216484F83C00012000E08D
:10362000002001B0F0BD2DE9F047DDF8209098466C
:10363000164604468FB201F47F0508F1010A20689E
:10364000B5F5803F00F1180108BF00F114010868CA
:103650003840C01BB0FA80F04009B0421CBF0020C7
:10366000BDE8F087BAF1000FE9D0FDF72DFFB8F102
:10367000000F03D0A0EB09004045E0D92068B5F564
:10368000803F00F1180108BF00F1140108683840BC
:10369000C01BB0FA80F04009B042D0D100202021F8
:1036A000206384F83D1084F83E00216C41F0200135
:1036B000216484F83C000120BDE8F0872DE9F8433F
:1036C0009146984604468FB201F47F0509F1010640
:1036D0002068B5F5803F00F114010A4618BF00F1DB
:1036E000180212683A40BA421CD0096811F4806F7F
:1036F0001AD1002EECD0FDF7E7FEB9F1000F03D090
:10370000A0EB08004845E3D92068B5F5803F00F1FB
:10371000180108BF00F1140108683840B842D7D03A
:10372000202008E0002013E0016841F400710160EE
:1037300009494161042000212022216384F83D20B1
:1037400084F83E10226C10432064012084F83C1061
:1037500001B0BDE8F08300BFFFFBFFFF70B5154669
:103760000E4604462068416911F0400F1CBF00203E
:1037700070BD416911F0100F15D1FDF7A5FE16B10E
:10378000401BB042EED92068406910F0400FE9D1EB
:1037900000202021206384F83D1084F83E00206C36
:1037A00040F020000AE06FF010014161002020216C
:1037B000206384F83D1084F83E00206C20640020D3
:1037C00084F83C00012070BDF8B50E46154604464D
:1037D000771C2068406910F0800F1FD12046FFF74A
:1037E00001FEC8B9002FF4D0FDF76EFE16B1401BE4
:1037F000B042EED92068406910F0800FE9D1002076
:103800002021206384F83D1084F83E00216C41F0B3
:103810002001216484F83C00012000E0002001B078
:10382000F0BD00002DE9FF41582103226423044626
:10383000FDF722FF50BB1648017839B30021154D22
:103840004FF06408012603AF292201230170CD2027
:1038500058218DF80E0040F60600ADF80C00204609
:10386000CDE90076CDF80880A84747F0010058213F
:103870000B2201238DE841012046A847B81C58219E
:103880000A2201238DE841012046A847BDE8FF81B7
:1038900020000020911A0008B0B5674D6878A14C4F
:1038A000022827D001284DD0002840F0C3802046B0
:1038B0004FF40071FDF7FEFDA8B120464FF4807172
:1038C000FDF7F8FD78B120468021FDF7F3FD50B1FA
:1038D00020464021FDF7EEFD28B1A4F5006040210F
:1038E000FDF7E8FD08B901206870544800214160E7
:1038F0000170B0BD20464FF40071FDF7DBFD0028DC
:1039000000F0988020464FF48071FDF7D3FD002829
:1039100000F0908020468021FDF7CCFD002800F0CB
:10392000898020464021FDF7C5FD002800F08280F7
:10393000A4F500604021FDF7BDFD00287AD00020ED
:10394000687077E020464FF40071FDF7B3FD10B3C7
:1039500020464FF48071FDF7ADFDE0B12046802197
:10396000FDF7A8FDB8B120464021FDF7A3FD90B1B9
:10397000A4F500604021FDF79DFD60B12F490020B6
:103980000A78012A04BF4988002902D10120E87081
:10399000022068704AE020464FF40071FDF78AFD6E
:1039A000B8B120468021FDF785FDA0B120464FF437
:1039B0008071FDF77FFD80B120464021FDF77AFD43
:1039C00068B1A4F500604021FDF774FD48B90520F9
:1039D00006E0012004E0032002E0022000E00420D1
:1039E000A8701648017809B90121017041684A1C84
:1039F000012142604170332A418808D339B902213C
:103A0000E97000214160017001214180B0BD89B1A0
:103A1000332A06D302220131EA700022426002708A
:103A2000418088B20F2805D3012028710348002166
:103A30004180B0BDB0BD00BF200000208402002046
:103A40001CB500240E48CDE900440E490160FDF785
:103A500081FA08B1FDF7BFF9094869460022CDE9AE
:103A60000044FDF74BFA08B1FDF7B5F90448694683
:103A70001022FDF743FA08B1FDF7ADF91CBD00BFF8
:103A8000E0020020007400402DE9FF41244800229C
:103A900002254FF00008016841F020010160016833
:103AA00001F0200100910099016841F010010160CE
:103AB000016801F0100100910099016841F00401D2
:103AC0000160016801F0040100910099016841F072
:103AD000080101600221006800F0080000900098D1
:103AE000104C2046FDF7EBFC0F4E012700952046B9
:103AF000CDE9017503956D462946B047402029461A
:103B0000CDE90008A4F500600297B0474FF470704B
:103B10002946CDE9000820460297B047BDE8FF815D
:103B200018100240001001400513000880B5B94884
:103B30000B494FF4804201604FF47A7141600021DB
:103B4000C0E902110162C0E90611C0E90421FDF7D4
:103B5000DBFC18B1BDE88040FDF73DB980BD00BF7A
:103B60000054004010B58CB0134800244FF0804141
:103B700001224FF6FF73CDE9004480E8160003A947
:103B8000C0E903348461CDE90324CDE90524CDE9FE
:103B90000744CDE909240B94FEF720FD08B1FDF799
:103BA0001AF905486946CDE90044FEF7A5FB08B1BE
:103BB000FDF711F90CB010BD48030020FEB500213F
:103BC000B44841F61F434FF0630CCDE90411CDE931
:103BD0000211CDE90011DE4AC0E90023C0E9021C50
:103BE00001618161FEF7BEFB08B1FDF7F4F84FF407
:103BF000805002A90290A748FEF774FC08B1FDF7B7
:103C0000EAF800206946CDE90000A248FEF774FBFF
:103C100008B1FDF7E0F806B080BD00BFFEB5002199
:103C20009F4841F61F434FF0630CCDE90411CDE9E5
:103C30000211CDE90011C74AC0E90023C0E9021C06
:103C400001618161FEF78EFB08B1FDF7C4F84FF406
:103C5000805002A902909248FEF744FC08B1FDF79B
:103C6000BAF800206946CDE900008D48FEF744FB14
:103C700008B1FDF7B0F806B080BD00BFFEB5002169
:103C80008A4841F61F434FF0630CCDE90411CDE99A
:103C90000211CDE90011B04AC0E90023C0E9021CBD
:103CA00001618161FEF75EFB08B1FDF794F84FF406
:103CB000805002A902907D48FEF714FC08B1FDF780
:103CC0008AF800206946CDE900007848FEF714FB29
:103CD00008B1FDF780F806B080BD00BF1CB5002418
:103CE000754841F61F426323CDE90044094980E845
:103CF0001600C3608461FEF735FB08B1FDF76BF871
:103D00006D486946CDE90044FEF7F6FA08B1FDF7C3
:103D100062F81CBD0010004080B50B48D6494FF436
:103D2000E13200234FF00C0C80E80E00C0E90333B1
:103D3000C0E905C3C361FFF70AFA18B1BDE88040C6
:103D4000FDF749B880BD00BFB004002080B50B4826
:103D50000B494FF4165200234FF00C0C80E80E0074
:103D6000C0E90333C0E905C3C361FFF7F0F918B137
:103D7000BDE88040FDF72FB880BD00BFF8040020EB
:103D800000440040FEE7FEE770470000F0B585B054
:103D90000646204814460D46582103226423642712
:103DA000FDF76AFCA0BB06200DF10E0101220123E4
:103DB000CDE90010174858210297FDF713FD38BBD5
:103DC0009DF810009DF8111040EA012000B2FCF7A8
:103DD000CBFC114F3946FCF76AFA30609DF80E00B3
:103DE0009DF80F1040EA012000B2FCF7BDFC3946F7
:103DF000FCF75DFA28609DF812009DF8131040EA68
:103E0000012000B2FCF7B0FC3946FCF750FA206004
:103E100005B0F0BDF402002000606A457047FDF770
:103E20001FBFB0B590B0002401A81421CDE90B4408
:103E3000CDE90944FCF79FF901204FF480310225B8
:103E40000690CDE907140A904FF4E010CDE90D512A
:103E50000F9006A8FEF77AF818B1EFF3108072B64B
:103E6000FEE70F200221CDE901054FF480600394A5
:103E7000CDE9040401A8FDF78BFF18B1EFF3108022
:103E800072B6FEE710B0B0BD704700000148FEF703
:103E900080BC00BF900300200148FEF77ABC00BF41
:103EA000D80300200148FEF774BC00BF20040020A6
:103EB0000148FEF76EBC00BF680400200268B0F144
:103EC000804F0ED0224B98421CBF224B984208D004
:103ED000214B98421CBF214B984202D0204B984264
:103EE00003D14B6822F070021A43B0F1804F0ED01C
:103EF000174B98421CBF174B984208D0164B98425C
:103F00001CBF164B984202D0154B984203D1CB6888
:103F100022F440721A434B6922F080021A43026075
:103F20008A68C2620A6882620C4A90421CBF0C4ACC
:103F3000904201D10969016301214161016911F0D8
:103F4000010F1EBF016921F001010161704700BF2F
:103F50000004004000080040000C00400034014014
:103F6000002C0140D0F820C0036A23F00103036253
:103F7000836923F0F00343EA021282612CF00A0203
:103F8000114301627047D0F820C0036A23F0100388
:103F90000362836923F4704343EA023282612CF0A6
:103FA000A00242EA011101627047016851E8031F53
:103FB000026821F4907142E80313002BF5D10168E7
:103FC00051E8051F026821F0010142E80513002BAA
:103FD000F5D1016B012909D1016851E8031F02687D
:103FE00021F0100142E80313002BF5D1202180F8C5
:103FF000421000210163704710B504462068016932
:10400000E26821F44051114341F20C620161D4F89D
:1040100008C0D4E904E3C16891434EEA0C021A4394
:104020001143C1604169A26921F4407111434161AA
:104030001149884202D0FDF745FF01E0FDF74CFF32
:1040400019214843D4E900126FF063049200B0FBD9
:10405000F2F06422B0FBF2F303FB0400322404EB21
:104060000010B0FBF2F000F0F00200F00F0002EBE5
:1040700003121043886010BD003801402DE9FC4157
:1040800004461D4690460F4620686E1C0168394064
:10409000B94226D0002EF9D0FDF716FA03210DB350
:1040A000A0EB0800A8421DD82068C16811F0040FD9
:1040B00018BF402FEAD0802F1CBF016811F0080FF5
:1040C000E4D00025019501680191406801900198B4
:1040D0002046FFF76AFF08200121606484F8405001
:1040E00000E00021C8B202B0BDE8F081FEE70000A8
:1040F0002DE9F84FDD4C211D04F108022046FFF7A1
:1041000045FEDFF88C822568D8F8006029463046E5
:10411000FCF793FADFF87CA20028294618BF2E4648
:10412000C8F80060DAF800703846FCF7A2FADFF849
:104130006892002818BF2F46CAF800706768D9F83F
:10414000005039462846FCF778FADFF850B20028CC
:10415000394618BF3D46C9F80050DBF800502846E4
:10416000FCF787FA0028304618BF3D46CBF80050D0
:10417000BF4D2946FCF769F8FCF769FB0246884801
:10418000BC4E0B46B047DAF800002946FCF75DF854
:10419000FCF75DFB024683480B46B047D9F80000A8
:1041A0002946FCF752F8FCF752FB02467E480B46C4
:1041B000B047DBF800002946FCF747F8FCF747FB5F
:1041C00002467A480B46B04720682946FCF73DF87E
:1041D000FCF73DFB024676480B46B047606829462F
:1041E000FCF733F8FCF733FB024672480B46B04746
:1041F000D8F80000DAF80010FBF7CFFF4FF07C5141
:10420000FCF723F807490860D9F80000DBF8001034
:10421000FBF7C3FF4FF07C51FCF717F80249086029
:10422000BDE8F88F909E0020949E00202DE9F84F65
:10423000C24F07F1180007F11C0107F12002FFF738
:10424000A5FDDFF84C91BC69D9F8005021462846FD
:10425000FCF7F3F9DFF83CB10028214618BF2546EA
:10426000C9F80050DBF800603046FCF702FADFF8CE
:104270002881002818BF2646CBF80060FE69D8F8D0
:10428000004031462046FCF7D8F9DFF810A100289D
:10429000314618BF3446C8F80040DAF800402046DE
:1042A000FCF7E7F90028284618BF3446CAF8004052
:1042B000A54C2146FBF7C9FFFCF7C9FA024638486E
:1042C000A34D0B46A847DBF800002146FBF7BDFFD6
:1042D000FCF7BDFA024633480B46A847D8F8000061
:1042E0002146FBF7B2FFFCF7B2FA02462E480B4616
:1042F000A847DAF800002146FBF7A7FFFCF7A7FA6A
:1043000002462A480B46A847B8692146FBF79DFF9D
:10431000FCF79DFA024626480B46A847F869214655
:10432000FBF793FFFCF793FA024622480B46A84797
:10433000D9F80000DBF80010FBF781FFFCF787FAE3
:10434000864C874D02460B4620462946FCF706F967
:1043500002460B46FBF7E9FFFCF78CFA16490860AA
:10436000D8F80000DAF80010FBF769FFFCF76FFAE5
:1043700002460B4620462946FCF7F0F802460B465B
:10438000FBF7D3FFFCF776FA0C490860BDE8F88F1D
:10439000A8000020B4000020AC000020B8000020DD
:1043A00009720008977100081C720008AA710008C1
:1043B000D0710008E3710008F4000020F80000202C
:1043C0002DE9F8435D4F07F10C0007F1100107F1EB
:1043D0001402FFF7DBFCDFF868817C69D8F8005035
:1043E00021462846FCF729F9DFF858910028214694
:1043F00018BF2546C8F80050D9F800603046FCF7D1
:1044000038F90028284618BF2646C9F800604E4CE7
:104410002146FBF71AFFFCF71AFA02464B484C4DAF
:104420000B46A847D9F800002146FBF70EFFFCF722
:104430000EFA024647480B46A84778692146FBF723
:1044400004FFFCF704FA024643480B46A847D8F895
:104450000000D9F80010FBF7A0FE4FF07C51FBF7ED
:10446000F4FE05490860BDE8F88300BF00010020A4
:104470000000C842D1660008989E00202DE9F8434C
:104480002E4F07F1240007F1280107F12C02FFF756
:104490007DFCDFF8AC80FC6AD8F800502146284645
:1044A000FCF7CBF8DFF89C900028214618BF254682
:1044B000C8F80050D9F800603046FCF7DAF8002858
:1044C000284618BF2646C9F800601F4C2146FBF756
:1044D000BCFEFCF7BCF902461C481D4D0B46A84724
:1044E000D9F800002146FBF7B0FEFCF7B0F9024610
:1044F00018480B46A847F86A2146FBF7A6FEFCF7CA
:10450000A6F9024614480B46A847D8F80000D9F887
:104510000010FBF794FEFCF79AF902460B460F4891
:104520000F49FCF71BF802460B46FBF7FEFEFCF7B3
:10453000A1F90C490860BDE8F88300BF0001002024
:10454000B0000020BC0000200000C8422F7200080C
:10455000D1660008BD710008F6710008CAA145B611
:10456000F3FD1040FC000020B0B5244CA0780638C4
:104570000C2842D8DFE800F0070707071D230D0DC0
:10458000072A41323900214802F0A2F80020608059
:10459000B0BD0920A0701A4802F09AF819481A49CB
:1045A0000078085C002808BFB0BD60690130606118
:1045B000B0BD134802F08CF80920A070B0BD0920EE
:1045C000A0700F48BDE8B04002F082B8104802F079
:1045D0007FF80E20A0700020E060B0BD0E20A0701B
:1045E0000B48BDE8B04002F073B808480025A5703C
:1045F00002F06EF80420E5702070B0BD400000208D
:104600005F7900086000002020020020D2790008B5
:104610001C7A0008B0B54D4D002068704CA002F027
:1046200057F8032056A428700BE0204602F050F8FB
:104630002878002800F080804FF4FA70FCF716FD0F
:104640002878411E10F0FF0F297006D0FCF782FB7E
:104650000028EAD041A002F03BF854A002F038F85C
:10466000142058A4287018E0152002F011F8062034
:1046700002F020F802F000F851280DD101F0FCFF03
:10468000152810D0204602F023F82878002851D0B1
:104690004FF4FA70FCF7EAFC2878411E10F0FF0F87
:1046A0002970E1D102E04AA002F012F84B4802F072
:1046B0000FF84B4C0A20287009E0204602F008F859
:1046C0002878F0B34FF4FA70FCF7D0FC2878411E3C
:1046D00010F0FF0F297008D0FCF767FA01F0CCFF4B
:1046E0001428EAD1404801F0F3FF404801F0F0FF00
:1046F0004FF4FA70FCF7BAFC0A203DA4287009E0D8
:10470000204601F0E5FF2878B0B14FF4FA70FCF7CD
:10471000ADFC2878411E10F0FF0F297008BFB0BD16
:10472000FCF746FA1428EBD1354801F0D1FF0120FF
:104730006870B0BD0020687018A0BDE8B04001F0FE
:10474000C7BF2848BDE8B04001F0C2BF1400002038
:104750005374617274FFFFFF000000004348333759
:104760003620697320636F6E6E65637465642061C3
:104770006E6420776F726B696E6721FFFFFF000028
:10478000434833373620636F6E6E656374696F6EAE
:10479000206661696C656421FFFFFF00B3F5CABC48
:1047A000BBAFCAA7B0DCFFFFFF000000D5FDD4DA25
:1047B000D1A1D4F175C5CCC4A3CABD2E2E2EFFFF46
:1047C000FF000000C9E8D6C3CAA7B0DCFFFFFF00A6
:1047D000C9E8D6C3B3C9B9A6FFFFFF0041710008FD
:1047E0008171000875710008577100086371000835
:1047F000B3F5CABCBBAFB4EDCEF3FFFFFF000000C2
:104800008D7100082DE9F04FC5B072490020087085
:10481000714801F05DFF714E714C0A2030700FE05D
:10482000FCF7C3F901F028FF14280FD0204601F04F
:104830004FFF307898B34FF4FA70FCF717FC3078DC
:10484000411E10F0FF0F3170EAD102E0664801F01E
:104850003FFF664813AC66A10068421C204601F089
:1048600047FF66A001F034FF0A2069A5307010E010
:104870002046FCF7A4F9142817D0284601F028FF99
:104880003078002800F09D804FF4FA70FCF7EEFBC2
:104890003078411E10F0FF0F3170E9D108E0514827
:1048A00001F016FF0020707090E05FA001F010FF93
:1048B0004FF4FA70FCF7DAFB5EA001F009FF6248E2
:1048C00001F040F914287AD164A001F001FFDFF86B
:1048D0009C814FF0010B45E04FF416600AFB008409
:1048E00004F1040999E8A102FBF7B1FFCDE9111029
:1048F0002846FBF7ACFFCDE90F103846FBF7A7FFC2
:10490000CDE90D104846FBF7A2FF054660690E464B
:10491000FBF79DFF07464FF416600C460AFB00F0BC
:1049200058F80000FBF793FF08AAE0C20B94CDE90A
:1049300000015D4913AC12985A46029011980390F9
:10494000109804900F9805900E9806900D98079077
:10495000204601F0CDFE204601F0F4F80BF1010BEA
:1049600008F118082148ABF10101D0F800A0404837
:1049700010F80A008142AFDB3EA001F0A9FE174EFD
:10498000144D0A203FA4307009E0204601F0A0FE3B
:104990003078C0B14FF4FA70FCF768FB3078411EF4
:1049A00010F0FF0F317011D00120FCF704F914282A
:1049B000EBD13AA001F08CFE0120287006E023A084
:1049C00002E016A000E032A001F082FE45B0BDE892
:1049D000F08F00BF4B000020417100081400002040
:1049E0008171000875710008577100084C000020A3
:1049F0002FB5DA2564D7E92E43535600D5FDD4DA16
:104A0000B4F2BFAAC4BFC2BC2E2E2EFFFFFF00000F
:104A1000B4F2BFAAB4EDCEF3FFFFFF00B4F2BFAA19
:104A2000CAA7B0DCFFFFFF00B4F2BFAAB3C9B9A6A2
:104A3000FFFFFF00D5FDD4DAD0B4C8EBB1EDCDB7A0
:104A40002E2E2EFFFFFF0000C8700008B1EDCDB77D
:104A5000D0B4C8EBCAA7B0DCFFFFFF00B1EDCDB703
:104A6000D0B4C8EBB3C9B9A6FFFFFF006C050020A6
:104A700020020020D5FDD4DAB9D8B1D5CEC4BCFE11
:104A8000FFFFFF00B9D8B1D5B4EDCEF3FFFFFF00B3
:104A9000B9D8B1D5CAA7B0DCFFFFFF00B9D8B1D5EE
:104AA000B3C9B9A6FFFFFF001F7100082DE9F04749
:104AB000DFF8D80B817881B30C2943D00B294ED075
:104AC00009293BD14078FBF769FED24AD24BFBF76C
:104AD000D3FCDFF8046C04460D463068FBF7B7FEE4
:104AE00002460B4620462946FBF71FFCFBF7C2FE99
:104AF000CA490446FBF7BDFD00281CBF0024C4F2D0
:104B0000163420463460FBF7A2FE0246DFF8D00BD5
:104B10000B46BDE8F04701F0DBBDC07804280DD19D
:104B2000DFF8A04B2068FBF792FEBD4ABD4BFBF7B8
:104B3000FCFBFBF79FFE2060BDE8F087BDE8F04777
:104B400000F024BFC179B848032900F25F81DFE893
:104B500011F00400070103010501B54800E1807967
:104B60000B2808D8BD49BE4A51F8201052F8200041
:104B7000026811440160BB4F42F227323968BA48DB
:104B8000914202DD42F2283203E0421C9142024689
:104B900001DA11463A60B54D42F227332A689A424B
:104BA00003DD42F228322A6004E0431C9A420246A6
:104BB000B8BF2A60DFF83CAB42F22733DAF80020B6
:104BC0009A4204DD42F22830CAF8000004E0431C97
:104BD0009A42B8BFCAF80000B1F1FF3FCCBFA44869
:104BE000A44801F075FD2868B0F1FF3FCCBFA24892
:104BF000A24801F06DFDDAF80000B0F1FF3FCCBF34
:104C00009F48A04801F064FD3868002800D5404264
:104C10004FF47A788D4A90FBF8F19B481446904700
:104C20003868002800D540424FF064090A26224621
:104C300090FBF9F090FBF6F101EB8101A0EB410153
:104C4000924890473868002800D5404290FBF6F023
:104C5000224690FBF6F101EB8101A0EB41018C486B
:104C600090473868002800D5404290FBF6F1224674
:104C700001EB8101A0EB410186489047286800289C
:104C800000D5404290FBF8F18348224690472868BF
:104C9000002800D5404290FBF9F0224690FBF6F147
:104CA00001EB8101A0EB41017C4890472868002876
:104CB00000D5404290FBF6F0224690FBF6F101EB66
:104CC0008101A0EB4101764890472868002800D573
:104CD000404290FBF6F1224601EB8101A0EB41013D
:104CE00070489047DAF80000002800D5404290FB59
:104CF000F8F16D4822469047DAF80000002800D508
:104D0000404290FBF9F0224690FBF6F101EB810165
:104D1000A0EB410165489047DAF80000002800D573
:104D2000404290FBF6F0224690FBF6F101EB810148
:104D3000A0EB41015E489047DAF80000002800D55A
:104D4000404290FBF6F1224601EB8101A0EB4101CC
:104D50005848BDE8F0471047344801E04FF07E5016
:104D6000344D2968FBF719FA04462C603249204675
:104D7000FBF763FC50B131492046FBF77AFC50B198
:104D800020460021FBF767FC18B907E029482A49AB
:104D900001602B4803E0274828490160294801F0B9
:104DA00097FC244C2068FBF706FD4FF47A71274EE0
:104DB000B0FBF1F12448B0472068FBF7FCFC64210C
:104DC0000A25B0FBF1F0B0FBF5F101EB8101A0EB9E
:104DD00041011F48B0472068FBF7EDFCB0FBF5F040
:104DE000B0FBF5F101EB8101A0EB41011948B0479F
:104DF0002068FBF7E0FCB0FBF5F1324601EB8101E6
:104E0000A0EB41011448BDE8F04710470948046889
:104E1000ACE700BF9A9999999999B93F0000164358
:104E20007B14AE47E17A843F0000C8420000204175
:104E300000007A446005002000A00C4600A00CC6CB
:104E400087740008247400086C720008D16600089A
:104E5000A8720008E472000820730008807000083F
:104E6000507000086C000020D8DCFFFF70000020AC
:104E700060740008AD7400086D740008BA7400080E
:104E80007A740008C77400087B720008B7720008C3
:104E9000F37200082F7300085D7200089972000811
:104EA000D5720008117300088A720008C6720008E3
:104EB00002730008517400082DE9F047DFF83C73D5
:104EC000B878152800F21681DFE810F016002700E8
:104ED0002D0032003C0044004E00140156005D00DD
:104EE0006A007A0087009E00CE00E20014010D01E6
:104EF00016011F0114012801F878042800F2FA8035
:104F0000DFE810F0050047014C0151015B01DFF8BB
:104F1000140401F0DDFB1220EBE0DFF8EC0301F0FC
:104F2000D7FB1320E5E00320B870DFF8E40315E0B9
:104F30000420B870DFF8D40301F0CAFB02203870F7
:104F4000BDE8F0871520B870DFF8BC03BDE8F04776
:104F500001F0BEBB0620B870DFF8A40301F0B8FB77
:104F600004203870BDE8F087DFF8900B01F0B0FB4B
:104F700000207880BDE8F087D34801F0A9FBDE4827
:104F8000CC49016015E03879012840F0D080D9483B
:104F900001F09EFB0A20B87000207871BDE8F08710
:104FA0007879002814BF012000207872C64801F0EB
:104FB0008FFB0920B870002038713872BDE8F08787
:104FC00000F03AFFB87A002800F0CE800D20B870CB
:104FD000BE48BDE8F04701F07BBBB348B34CB04AD4
:104FE000007821781154B2480068B249FBF75FF9A4
:104FF000B149086001F05EF820780021632838BFCD
:10500000411C2170BDE8F087DFF89C82DFF89CA28C
:10501000DFF88C92A94A98F800009AF8001009F875
:10502000001052F8310002EBC1014968FBF722FC85
:10503000A149086001F03EF89AF800402046FBF7CD
:10504000ADFB05469E480E46002203C89D4BFBF76C
:105050006CF92A463346FBF71AFB002872D1601C14
:105060008AF80000BDE8F0878B4801F031FB0F2083
:105070000021B87089480170F8688949085C0621E8
:10508000B0FBF1F087490870BDE8F04700F058BB6D
:105090005BA001F01DFB1020B8705DA001F018FBB3
:1050A000614C207818B9FFF7B5FA207840B1654C0B
:1050B0005EA0A04764A0A047FFF7A4FB66A0A0479E
:1050C0000A20FBF7D3FF68A001F002FB1120B870A3
:1050D000F87A00280CBF6F4868A001F0F9FA0020A8
:1050E000F872BDE8F087854801F0F2FA0020F86018
:1050F0000E20B870BDE8F087874801F0E9FA01207A
:10510000B87000203870BDE8F087824801F0E0FAFE
:105110000220B87001203870BDE8F0870520B87013
:10512000784801F0D5FA03203870BDE8F087787A26
:1051300010B36C4801F0CCFA78690F2843D85A496B
:10514000087044E00920B8705F4801F0C1FA98F88F
:10515000000019F80000002808BFBDE8F087786952
:1051600001307861BDE8F087594801F0B1FA59A0E3
:10517000BDE8F04701F0ACBA5D4801F0A9FA0C2097
:10518000B8700020F87179690F292ED8464801704F
:105190002EE0634801F09CFA0720AAE75F4801F07F
:1051A00097FA0820A5E7554801F092FA0E20B8704A
:1051B0000020C7E90300BDE8F087FBF769FE002087
:1051C000F870BDE8F08738480021796101703748F0
:1051D000002101700B20B8704348B97101F078FAD2
:1051E0004248BDE8F04701F073BA2F497861087072
:1051F0002E4800210170BDE8F08700BF400000206C
:105200007061676520B5BCB3F6D6D0FFFFFF000024
:1052100074322E7478743D22696E6974696E672EDB
:105220002E22FFFFFF0000001500002074322E74B4
:1052300078743D2277726974696E672E2E22FFFFA3
:10524000FF000000D16600086A302E76616C3D35A3
:1052500030FFFFFF000000006A302E76616C3D31A8
:105260003030FFFFFF0000007061676520B5BCB300
:10527000F6CDEAB3C9FFFFFF0000000074312E74C1
:1052800078743D22B5BCB3F6CDEAB3C92122FFFF45
:10529000FF0000003B740008F67900086505002057
:1052A0002002002064050020600000206100002032
:1052B000600500200000C8429C000020709B002078
:1052C000D80000200000F0BF5F7900084A7900088C
:1052D000D4740008766973207431382C31FFFFFFD5
:1052E00000000000E179000893740008A074000831
:1052F00033790008077A0008640000201C7A00084F
:1053000087790008487A000822790008337A000873
:105310005C7A0008AD79000898790008C179000826
:1053200074790008117900082DE9F047DFF8140AB4
:105330008178F1B1092930D00C2955D00B2928D119
:1053400080790B280AD8DFF89C13DFF89C2351F8EA
:10535000201052F820000268511A0160DFF88C73A7
:1053600042F227323968C848914248DD42F2283279
:1053700049E0C07804280CD1D24C2068FBF767FACA
:10538000D14AD24BFAF7D1FFFBF774FA2060BDE89F
:10539000F087BDE8F04700F0BBBF4078FBF7FEF9AF
:1053A000CB4ACC4BFBF768F8CB4E04460D46306831
:1053B000FBF74DFA22462B46FAF7B7FFFBF75AFAEE
:1053C000C6490446FBF739F900281CBF0024CCF27B
:1053D000163420463460FBF73AFA0246C0480B46C2
:1053E000BDE8F04701F074B9C079A949032800F27B
:1053F000ED80DFE800F002F2EEF0A749EDE0421C9C
:105400009142024601DA11463A60B94D42F2273321
:105410002A689A4203DD42F228322A6004E0431CE3
:105420009A420246B8BF2A60DFF8C8A242F2273388
:10543000DAF800209A4204DD42F22830CAF800006F
:1054400004E0431C9A42B8BFCAF80000B1F1FF3F24
:10545000CCBFA948A94801F03BF92868B0F1FF3F4B
:10546000CCBFA748A74801F033F9DAF80000B0F143
:10547000FF3FCCBFA448A54801F02AF938680028AE
:1054800000D540424FF47A788A4A90FBF8F1A04860
:10549000144690473868002800D540424FF0640910
:1054A0000A26224690FBF9F090FBF6F101EB810110
:1054B000A0EB4101974890473868002800D540424A
:1054C00090FBF6F0224690FBF6F101EB8101A0EB98
:1054D0004101914890473868002800D5404290FB30
:1054E000F6F1224601EB8101A0EB41018B48904788
:1054F0002868002800D5404290FBF8F188482246F1
:1055000090472868002800D5404290FBF9F02246D9
:1055100090FBF6F101EB8101A0EB4101814890473E
:105520002868002800D5404290FBF6F0224690FB08
:10553000F6F101EB8101A0EB41017B48904728681F
:10554000002800D5404290FBF6F1224601EB810194
:10555000A0EB410175489047DAF80000002800D51B
:10556000404290FBF8F1724822469047DAF800007A
:10557000002800D5404290FBF9F0224690FBF6F15E
:1055800001EB8101A0EB41016A489047DAF8000085
:10559000002800D5404290FBF6F0224690FBF6F141
:1055A00001EB8101A0EB410163489047DAF800006C
:1055B000002800D5404290FBF6F1224601EB810124
:1055C000A0EB41015D48BDE8F0471047334804684F
:1055D00009E0304901E04FF07E51304D2868FAF77C
:1055E0002EFE04462C602E492046FBF726F850B1CB
:1055F0002C492046FBF73DF850B120460021FBF72F
:105600002AF818B907E0254825490160264803E033
:10561000224824490160254801F05AF81F4C2068AF
:10562000FBF7C9F84FF47A719C4EB0FBF1F12048BA
:10563000B0472068FBF7BFF864210A25B0FBF1F002
:10564000B0FBF5F101EB8101A0EB41011A48B04735
:105650002068FBF7B0F8B0FBF5F0B0FBF5F101EB1B
:105660008101A0EB41011548B0472068FBF7A3F882
:10567000B0FBF5F1324601EB8101A0EB410110488E
:10568000BDE8F047104700BFD8DCFFFF4000002016
:105690000000C8420000204100007A44600500205C
:1056A00000A00C4600A00CC68774000824740008F3
:1056B0006C720008D1660008A8720008E472000845
:1056C00020730008680000207B14AE47E17A84BF95
:1056D0009A9999999999B9BF64000020000016C35E
:1056E0003E73000880700008507000086C000020B5
:1056F000700000207400002060740008AD74000881
:105700006D740008BA7400087A740008C774000841
:105710007B720008B7720008F37200082F7300084C
:105720005D72000899720008D572000811730008B4
:105730008A720008C67200080273000851740008DB
:105740002DE9F84FDFF82C81D8F80000411C4AA061
:1057500000F0BEFFDFF83CA1DFF840B1504D4FF044
:1057600000094FF4166468A60027B9F1900F08BF2E
:10577000BDE8F88F9AF80000394600EB400007EBCF
:105780004000421C4448D847D8F800009AF800105E
:10579000604301EBC10100EB011048442858FBF7BE
:1057A00056F802460B463FA03946D847D8F80000C5
:1057B0009AF80010604301EBC10100EB011048446E
:1057C00028444068FBF743F802460B463AA03946A6
:1057D000D847D8F800009AF80010604301EBC101E7
:1057E00000EB0110484428448068FBF730F802467B
:1057F0000B4636A03946D847D8F800009AF8001072
:10580000604301EBC10100EB011048442844C0682B
:10581000FBF71DF802460B4631A03946D847D8F8A9
:1058200000009AF80010604301EBC10100EB011089
:10583000484428440069FBF70AF802460B462DA0AD
:105840003946D847D8F800009AF80010604301EBB9
:10585000C10100EB0110484428444069FAF7F7FF02
:1058600002460B4630463946D84709F11809013738
:105870007BE700BF4C00002067726F75705F6E752C
:105880006D2E7478743D22B5DA2564D7E922FFFFC6
:10589000FF000000650500206D7A0008D166000851
:1058A0006C050020706F7325642E7478743D22257A
:1058B0002E326622FFFFFF006125642E7478743D4E
:1058C00022252E316622FFFFFF0000006D25642E89
:1058D0007478743D22252E316622FFFFFF00000000
:1058E0007825642E7478743D22252E316622FFFFC0
:1058F000FF0000007925642E7478743D22252E3136
:105900006622FFFFFF0000007A25642E7478743D44
:1059100022252E316622FFFFFF00000010B51A4C31
:10592000A078013804282ED8DFE800F0031B0B23F1
:105930001300E078022824D0012824D100F0E8FCEC
:105940001FE0E07802281CD001281CD1FFF7B4FA30
:1059500017E0E078022818BF012814D100F024F9DC
:105960000FE0E07802280CD001280CD100F00EF8EE
:1059700007E0E078022804D0012818BF10BDFEF728
:10598000F3FD0020608010BD20000020B0B5ED4C7C
:10599000A078112800F25F80DFE800F00D5D5D5D0A
:1059A0005D5D1E5D5D243009095D3D4C5D58BDE8BF
:1059B000B04000F0F9B8E078032888BFB0BDDFE858
:1059C00000F00279636F5D4800F082FE5C4800F0F1
:1059D0007FFE0120E070B0BD484800F079FE002055
:1059E0006080B0BD2079B8B300202071364800F047
:1059F0006FFE3648BDE8B04000F06ABE6079A8B3DB
:105A0000002060713448354CA0473548A0473548E0
:105A1000A047354834E0E168394800F059FEE068B5
:105A200000210F2838BF411C3648E160BDE8B04076
:105A300000F04EBE354A34480178127891421CBFBE
:105A400001310170BDE8B040FFF77ABE304800F088
:105A50003FFE0E20A070B0BD012020711C4800F058
:105A600037FE1C48BDE8B04000F032BE0120607136
:105A70001E481A4CA0471E48A0471E48A0471E4873
:105A80002146BDE8B04008472548144DA8472548A1
:105A9000A8472548A8472548A8470320E070B0BD7F
:105AA0001C480E4DA8471C48A8471C48A847002082
:105AB000E070B0BD1E48094DA8471E48A8471E48C3
:105AC000A8470220E070B0BD85760008B6780008CF
:105AD0009D7800089E76000835770008D16600089A
