:020000040800F2
:1000000050BA0324AD020008DF6C0008EB5E000864
:10001000DD6C0008AD0B00081D7C0008000000002E
:10002000000000000000000000000000A96F0008B0
:100030005510000800000000E16C0008AB6F0008DC
:10004000C7020008C7020008C7020008C70200086C
:10005000C7020008C7020008C7020008891000088C
:100060008F100008951000089B100008B10B0008C5
:10007000C7020008BD0B0008D50B0008ED0B0008F7
:10008000050C0008110C0008C7020008C702000890
:10009000C7020008C7020008C7020008A110000834
:1000A000C7020008C7020008C7020008C70200080C
:1000B000C702000821710008C7020008C702000833
:1000C000C7020008C7020008C7020008C7020008EC
:1000D000C7020008117C0008C7020008C702000818
:1000E00059100008C7020008000000004571000810
:1000F000C7020008C7020008C7020008C7020008BC
:10010000C7020008C70200082D710008C7020008D6
:10011000C7020008C702000839710008C7020008BA
:10012000290C0008C7020008590C0008C702000883
:10013000710C0008C7020008C7020008C7020008C7
:1001400000000000000000000000000000000000AF
:10015000C7020008C7020008C7020008C70200085B
:10016000C7020008C7020008C7020008C70200084B
:10017000C7020008C7020008C7020008C70200083B
:10018000C7020008C7020008C7020008C70200082B
:10019000C7020008C7020008C7020008C70200081B
:1001A000C7020008C7020008C7020008C70200080B
:1001B000C7020008C7020008C7020008C7020008FB
:1001C000C7020008C7020008C7020008C7020008EB
:1001D000C7020008C7020008C7020008C7020008DB
:1001E000C7020008C7020008C7020008C7020008CB
:1001F000C7020008C7020008C7020008C7020008BB
:10020000C7020008C7020008C7020008C7020008AA
:10021000C7020008C7020008C7020008C70200089A
:10022000C7020008C7020008C7020008000000005B
:10023000C7020008C702000800000000C70200084B
:10024000C7020008C7020008C7020008C70200086A
:10025000C7020008C7020008C7020008C70200085A
:10026000C7020008C7020008C7020008C70200084A
:10027000C7020008C7020008C7020008000000000B
:10028000C7020008C7020008C702000800000000FB
:1002900000000000C7020008DFF80CD000F048FAA8
:1002A0000048004795A1000850BA0324064880473B
:1002B00006480047FEE7FEE7FEE7FEE7FEE7FEE74B
:1002C000FEE7FEE7FEE7FEE76D7000089902000812
:1002D0002DE9F05F0546002092469B46884606467B
:1002E000814640241BE0284641464746224600F00E
:1002F00057F853465A46C01A914110D31146184632
:10030000224600F03EF82D1A67EB01084F462246C0
:100310000120002100F035F817EB00094E41201EA6
:10032000A4F10104DFDC484631462A464346BDE8D5
:10033000F09FD2B201E000F8012B491EFBD27047BA
:100340000022F6E710B513460A4604461946FFF7A1
:10035000F0FF204610BD30B50B460146002020229C
:10036000012409E021FA02F59D4205D303FA02F5C2
:10037000491B04FA02F52844151EA2F10102F1DC22
:1003800030BD202A04DB203A00FA02F10020704739
:100390009140C2F1200320FA03F3194390407047C3
:1003A000202A04DB203A21FA02F00021704721FACA
:1003B00002F3D040C2F12002914008431946704731
:1003C0002DE9FE4F804681EA0300C00F0C460090E5
:1003D00021F0004123F00045B8EB0200A94105D20D
:1003E0004046214690461C460B46024623F00040FC
:1003F000104347D0270DC7F30A00C3F30A510290F8
:10040000401A019040286BDAC3F3130040F4801BBC
:100410000098924620B10023D2EB030A63EB0B0B4A
:1004200001985946C0F140025046FFF7AAFF064620
:100430000D4650465946019A00F08CF910EB080021
:100440006141002487EA115284EAE7731A4340D0DD
:10045000009A62B3019A012A4FEA075215DC001B89
:1004600061EB02014FF0004202EA0752CDE900427F
:10047000001C41F5801132462B4600F08CF903B088
:10048000BDE8F08F40462146F9E7001B61EB020111
:10049000001C41F5801300185B412018A2F50017DD
:1004A00047EB030140EAD570B6196D4111E06D08C4
:1004B0004FEA360645EAC0754FEA0752001B61EB6A
:1004C0000201001C41F5801149084FEA3000001973
:1004D000514132462B4603B0BDE8F04F00F04CB915
:1004E0000098012240000023D0EB020263EBE0738E
:1004F000009821464FEAE074B8EB000061EB04017C
:10050000E9E783F000435BE781F0004158E72DE91C
:10051000FE4F81EA030404F0004421F000410094FE
:100520004FF0000B23F0004350EA01045ED052EA82
:1005300003045BD0C3F30A54C1F30A552C44A4F25C
:10054000F3340194A0FB0254C1F3130141F4801170
:10055000C3F3130343F4801301FB024400FB034E77
:10056000840A970A44EA815447EA8357A4FB076840
:1005700002958D0A05FB07854FEA932C04FB0C546A
:100580002705029D4FEA065847EA1637B5EB0805DE
:100590006EEB070C870E920E47EA811742EA831230
:1005A000A7FB0201B6EB0B0164EB00042B0D43EA41
:1005B0000C335E1844EB1C50DA465146E7FB02014F
:1005C000C5F313044FEA0B3343EA14534FEA0432E2
:1005D000019C43EA0603A4F10C040294009CCDE9BB
:1005E00000B400F0D8F803B0BDE8F08F0020014659
:1005F000F9E72DE9F04D81EA030404F0004B21F006
:10060000004514464FF0000A23F0004150EA05026D
:1006100020D054EA01021DD0C5F30A570246C5F3A3
:100620001303C1F31300C1F30A5640F4801543F4D9
:100630008013A7EB0608101BD64608F2FD3873EBB3
:10064000050002D308F1010801E092185B41B8F1FE
:10065000000F03DA00200146BDE8F08D00204FF4C2
:100660008011064684460EE0171B73EB050705D381
:10067000121B63EB050306434CEA010C49084FEAE1
:10068000300092185B4150EA0107EDD152EA0300B5
:1006900012D082EA040083EA0501084305D0101B4A
:1006A000AB4106D20122002306E000224FF00043B6
:1006B00002E06FF0010253101AEB06004CEB0851F8
:1006C00010EB0A0041EB0B01BDE8F04D00F054B80F
:1006D000C1F30A52C1F3130140F2FF3341F4801118
:1006E0009A4202DA00200146704740F233439A42B0
:1006F000A2F2334202DC5242FFF752BEFFF741BE84
:1007000030B5041E71F1000404DB4FF00044404298
:1007100064EB0101141E73F1000405DB1C464FF06D
:100720000043524263EB0403994208BF904230BD3C
:10073000064C074D06E0E06840F0010394E807002E
:1007400098471034AC42F6D3FFF7AAFD00D3000857
:1007500020D30008202A06DBCB17203A41FA02F00A
:1007600043EAE07306E041FA02F3D040C2F120020E
:10077000914008431946704710B5141E73F10004E8
:1007800008DA401C41F1000192185B411A4301D183
:1007900020F0010010BD2DE9F04D92469B4611B1AD
:1007A000B1FA81F202E0B0FA80F220329046FFF70F
:1007B000E8FD04460F4640EA0A0041EA0B015346B1
:1007C0005A46084313D0114653EA010019D0C8F124
:1007D00040025046FFF7E4FD05460E465046594696
:1007E0004246FFF7CEFD084305D0012004E0204635
:1007F0003946BDE8F08D0020054346EAE0762C43FB
:1008000037430A986305E40AA0EB08000022FD0ABA
:1008100044EA47540A3002D500200146E9E70105C1
:1008200010196941DDE9084500196941BDE8F04D3D
:10083000A2E770B58C1810F8015B15F0070301D121
:1008400010F8013B2A1106D110F8012B03E010F833
:10085000016B01F8016B5B1EF9D12B0705D4002356
:10086000521E0DD401F8013BFAE710F8013BCB1AF8
:10087000921C03E013F8015B01F8015B521EF9D5ED
:10088000A142D8D3002070BD2DE9F843DFF85C8089
:10089000174C6FF007070FF25C09454621E0204630
:1008A00001F0E4F82046322101F052F8204600F031
:1008B0007EFE10F4007F12D0204607F1080600F0FB
:1008C00078FE002E286004D1D8F81C20484600216C
:1008D00003E055F8042C484631460BF061FB043523
:1008E0000137002FDBD1BDE8F88300BFB806002434
:1008F00060790224616425643D2564FFFFFF0000E8
:10090000B0B504462068394940F48070884214BF6D
:1009100038483748006810F4403F10D003F096FE86
:1009200005466068B0F5803F05D0B0F5403F22D065
:10093000B0F5003F20D1000CB5FBF0F51CE04FF402
:100940000020002102F0B2FF05466068A0F580217A
:100950004FEAB1410A290FD8DFE801F00606060682
:1009600006063D3F4143450047F6FE7101EA50400F
:10097000B5FBF0F500E0AD0802F096FC216841F20D
:100980000302904209D888681E4B20F480729D4271
:1009900088BF40F480728A60B0BD1748854204D891
:1009A00051F8080F20F4407013E01448854205D830
:1009B00051F8080F012262F309200AE051F8082FCC
:1009C0000223104663F309200D4B9D4228BF42F4D9
:1009D00040700860B0BD2D09CEE76D09CCE7AD09C8
:1009E000CAE7ED09C8E72D0AC6E700BF00210240AB
:1009F000082302400863025821BCBE0041787D01F3
:100A000082F0FA02002D31010146886B436D426D80
:100A100013F0500F07D0D20648BF00F0C7BDC06C1E
:100A2000C26C0846104742F40071416501680B68CA
:100A3000CA6813F0080F02D1910715D108E012F42B
:100A4000406F18BF00F0B0BDC96811F4005F0BD152
:100A5000416D21F480714165416D11F4805F02BFE9
:100A6000416D41F00101416500F09EBD806B416D1B
:100A700041F040014165816D41F00401816500F064
:100A800095BD806B00F091BDB0B504460020216893
:100A90008B688A6813F0020F2DD112F0010208BF93
:100AA000B0BD886800F00D0001281BD188683C4A61
:100AB000104040F0020088600320086002F0FAFB5A
:100AC00005462068806810F0010F04BF0020B0BD0B
:100AD00002F0F0FB401B0328F3D32068806810F07D
:100AE000010FEED0606D40F010006065A06D40F029
:100AF0000100A0650120B0BDF8B5044620688168FA
:100B000011F0010F49D18168254E06F17F02114293
:100B100009D0606D40F010006065A06D40F00100EC
:100B2000A06501203AE08168314041F00101816017
:100B300002F0C0FB054620681A491B4F01F5807280
:100B400001F54073904208BF1F468842014608BF26
:100B50001F469042BB6804BF42F20001C4F202018A
:100B600013F01F0F18BF814217D1016811F0010F58
:100B700013D1816811F0010F01BF8168314041F04C
:100B80000101816002F096FB411B20680329ECD330
:100B9000016811F0010FE8D1BBE7002001B0F0BD02
:100BA000C0FFFF7F0020024000630258FEE7000004
:100BB000014801F029BC00BFC003002480B50348F0
:100BC00001F022FC02480121016080BDC002002426
:100BD00044B6032480B5034801F016FC0248012105
:100BE000016080BD4005002448B6032480B5034859
:100BF00001F00AFC02480121016080BD400400248C
:100C00004CB60324014801F0FFBB00BF40030024A1
:100C100080B5034801F0F8FB02480021016080BD67
:100C2000C00400245C79022410B5084801F0ECFBF4
:100C30000748084C012101602046002104F07EFD98
:100C400020460421BDE8104004F078BDC005002412
:100C5000540000244C7B022480B5034801F0D4FBEF
:100C600002480121016080BD4002002448080024A0
:100C7000014801F0C9BB00BF400600240168254AB5
:100C800091422CD0244A91421CBF244A914226D042
:100C9000234A91421CBF234A914220D0224A9142CA
:100CA0001CBF224A91421AD0214A91421CBF214ABC
:100CB000914214D0204A91421CBF204A91420ED04A
:100CC0001F4A91421CBF1F4A914208D01E4A9142BE
:100CD0001CBF1E4A914202D01D4A914217D16FF0AB
:100CE0000F02182352FA81F2B2FBF3F35F2A03F0EA
:100CF000070C18A313F80C30C36540F2FF3321EA48
:100D0000030188BF41F0040181650846704721F066
:100D1000FF01F9E7100002402800024040000240B5
:100D2000580002407000024088000240A0000240CB
:100D3000B80002401004024028040240400402406F
:100D4000580402407004024088040240B804024083
:100D5000A0040240000610160006101610B5026826
:100D60001E4CB44B9A421CBFB34B9A420ED0B34BAD
:100D70009A421CBFB24B9A4208D0B24B9A421CBF57
:100D8000B34B9A4202D0B04B9A4211D1D3B2A3F1E5
:100D900008011422B1FBF2F304EB830104F1800299
:100DA00003F01F030124603004FA03F30EC010BDEA
:100DB000A4F55B71D3B28A42E9D0094CA3F11001CA
:100DC0001823B1FBF3F10B46A24204F1AA0488BF39
:100DD0000833A24228BF0B46024CDDE700580258F8
:100DE0000F0402400008024001790139072988BF39
:100DF0007047B0B502681A4D1A4C8E4B4FF0010C7B
:100E00009A421CBF8C4B9A4216D08C4B9A421CBF04
:100E10008B4B9A4210D08B4B9A421CBF8A4B9A4202
:100E20000AD08B4B9A424FF001031FBF0E4B1A445E
:100E3000B2FA82F2530900E00123002B04F14002D0
:100E400018BF2C46002B04EB810418BF05F14002AB
:100E50000CFA01F1C0E91B424167BDE8B0407047A0
:100E600000590258000902406CABFDA7B0B5D0F89C
:100E700000C0D0F858E05F4CA44544D05E4CA44577
:100E80001CBF5E4CA4453ED05D4CA4451CBF5D4CD0
:100E9000A44538D05C4CA4451CBF5C4CA44532D062
:100EA0005B4CA4451CBF5B4CA4452CD05A4CA445BC
:100EB0001CBF5A4CA44526D0594CA4451CBF594CC4
:100EC000A44520D0584CA4451CBF584CA4451AD06A
:100ED000574CA4451CBF574CA44514D0564CA445B0
:100EE0001CBF564CA4450ED0554CA4451CBF554CB8
:100EF000A44508D0544CA4451CBF544CA44502D072
:100F0000534CA44574D1D0E919456560C46E14B141
:100F1000D0E91C456560374CA44545D0364CA44506
:100F20001CBF364CA4453FD0354CA4451CBF354CA6
:100F3000A44539D0344CA4451CBF344CA44533D00F
:100F4000334CA4451CBF334CA4452DD0324CA44592
:100F50001CBF324CA44527D0314CA4451CBF314C9A
:100F6000A44521D0304CA4451CBF304CA4451BD017
:100F7000364CA4451CBF2F4CA44524D02E4CA44570
:100F80001CBF2E4CA4451ED02D4CA4451CBF2D4C7F
:100F9000A44518D02C4CA4451CBF2D4CA44512D000
:100FA000234CA44518BFB0BDC46D3F2504F01F04F9
:100FB00005FA04F4CEF80840DCF8005025F480254A
:100FC000CCF8005007E0C46D012504F01F0405FAB9
:100FD00004F4CEF80440CCF8043080684028084679
:100FE00008BF1046CCF8080008BF0A46CCF80C2011
:100FF000B0BD00BF10000240280002404000024087
:10100000580002407000024088000240A0000240E8
:10101000B80002401004024028040240400402408C
:10102000580402407004024088040240A0040240B8
:10103000B8040240085402581C5402583054025854
:1010400044540258585402586C540258945402584C
:10105000805402587047000010B5184C4FF480605F
:10106000A0474FF40060A0474FF48050A0474FF4D2
:101070000050A0474FF48040A0474FF40040214665
:10108000BDE81040084700BF022002F031B804203C
:1010900002F02EB8082002F02BB8102002F028B879
:1010A00010B5064C2020A0474020A0478020A04734
:1010B0004FF400702146BDE810400847F1300008A9
:1010C000EFF3108072B6FEE7F8B50C46054602F065
:1010D000F1F806466F1C1348016811F0040F09D09F
:1010E000002FF8D002F0E6F80321C5B1801BA8421A
:1010F000F1D914E0012C11D101680B4A114006D03E
:101100000A4A93690B4393614160012107E001683A
:1011100011F4803F1CBF4FF4803141600021C8B200
:1011200001B0F0BD102000520000EE1728B60324D5
:10113000034804490022C0E90021C0E902217047A8
:10114000200200240000F0BF7CB5044600201646B3
:101150000D46019094F85000012801D1022039E099
:10116000012084F850002046FFF78EFC616D10B11D
:1011700041F010012AE041F2021021EA000005F4DA
:10118000803140F00200606506F080400143206835
:101190008268114B1A40114341F00041816081681F
:1011A000B1F1FF3F0DDC0199013101910B49019A29
:1011B0008A42F4D3606D20F0120040F0100101204B
:1011C00004E0616D012060F30101002061650021F0
:1011D00084F8501002B070BDC0FFFE3F00F8C32578
:1011E00090F85020012A01D1022132E07CB5012281
:1011F00080F850200022019200920368E44A934252
:101200001DD1D2F80851946825436D0717D4D1F841
:1012100000C0D2F80853224E25F44044BCF1000F20
:1012200019D04D6843F480732543C2F80853DA4C53
:10123000A3421CD19368D2F80861334318E0416D92
:1012400041F0200141650121002280F85020BDE8D5
:101250007C40C8B27047C2F8084343F48071CE4B5B
:10126000994211D19168D2F8083119430DE03368E1
:10127000DB0713D1D2F80833896840F61F76B343F1
:1012800043EA0C03194307E03168C90706D1D2F8D5
:10129000081340F61F739943C2F808130021D3E7DF
:1012A000086002582DE9FC41044600200D460190DB
:1012B00094F85000012801D1022331E1012084F883
:1012C00050002068816811F0040F40F021812968E6
:1012D000AA4BB1F1FF3F11DD91FAA1F219429846F4
:1012E0004FF00103B2FA82F208BF8A0E02F01F0229
:1012F00003FA02F2C3691A43C26100E098466A68C1
:10130000890E1F2601F01F0102F01F03C2F3012204
:1013100000EB82029E409940176BB743394311633B
:1013200081688268D20842EA9101C9076FD12968B1
:10133000AA6805F029F89248036820686969C268BC
:1013400003F07043B3F1805F02D102F01C0306E0AA
:10135000D2064FF0100258BF1C22C36813402A69FE
:10136000042A27D1026E2B6802F0F8429906B2EBEC
:10137000836F02BF026E22F000420266426E02F0EC
:10138000F8428A4202BF426E22F000424266826EFA
:1013900002F0F8428A4202BF826E22F00042826668
:1013A000C26E02F0F8428A4202BFC16E21F00041D3
:1013B000C1662CE0734E06EA530399402B6803F094
:1013C000F843194300F1600353F8227007F0004717
:1013D000394343F822102A69697E53F822700129A3
:1013E00027F0004708BF47F0004743F8227000226B
:1013F000297E012908BF4FF40062296901F01F010D
:1014000002FA01F1026922F4F0421143016181689C
:1014100011F0010F41D1D5F800C0EB685A4ED0F859
:10142000C01003F0180746EA0C060CEA080228FA76
:1014300007F786EA0806174031403943C0F8C01064
:1014400052498B4226D19CFAACF1002A4FF08067BA
:10145000B1FA81F108BF4FEA9C614A1C07EB816138
:10146000012702F01E0301F0F84102F01F020A2BCF
:1014700007FA02F728BF41F000710A2B28BF0A3A89
:10148000394302EB420241EA0251AA6804F07CFFB0
:10149000D5F800C0BCF1FF3F01DD00233DE022682C
:1014A000BC4D3C4805F5807105F540738A421946EC
:1014B00018BF00F54071AA4208BF19468B68B74EA5
:1014C00042F48071B14205D1A968D5F8087147EAA4
:1014D000010600E08668F1071AD103F0E0761902F0
:1014E00029D42E498C4526D18242D6D1D0F8081372
:1014F00021F0E071314341F40001C0F80813A34822
:101500000068A349B0FBF1F0022101EB40000DE0BF
:10151000606D012340F020006065002084F85000D9
:10152000D8B202B0BDE8F08101980138019001986D
:101530000028F9D1B1E7D9010CD419498C4509D15A
:101540008242AAD1D0F8081321F0E071314341F072
:1015500080710FE059024FF00003DED411498C4531
:1015600008BF8242D9D1D0F8081321F0E07131438D
:1015700041F48001C0F808138FE700BFFFFF0F00A0
:101580000010005CFEFFFF7F0000F0FF0000FF473F
:10159000002002400060025800210240000084CB7D
:1015A000000052C70000B8CF704770477047406DC9
:1015B00070470068006C7047F8B504460020002CA6
:1015C000009037D0606D30B9204600F0F1F800206F
:1015D000A06584F85000206882686B4912F0005FB3
:1015E0001EBF82680A408260826812F0805F13D159
:1015F000826801F18051114041F08051816063495E
:101600000968634AB1FBF2F1013101E00099013947
:10161000009100990029F9D1816811F0805F0BD108
:10162000616D012541F010016165A16D41F001017D
:10163000A16502E00125A3E000258168C1F38001D6
:10164000626D02F010021143616D03D041F0100091
:10165000012594E021F4817141F002016165816806
:1016600011F0010F20D1B5494B4AB34E40F48073BD
:10167000B34204D18B68D1F80861334300E01368AA
:10168000DB0711D101F5807301F5407698423346AE
:1016900018BF02F53E73884208BF334660689968F8
:1016A00021F47C110843986001F0FEFDA168226BD3
:1016B000637D41F203060A43102942EA4332237F45
:1016C00042EA0342114608BF41F00C01B04298BF04
:1016D0001146012B01BF206A314A02EB4040014311
:1016E000606A20B100F478700843A16A0143206861
:1016F000C2682C4B1A401143C16081688268D208CD
:1017000042EA9101C9072CD1217DE26A44F2030328
:1017100042EA8131C2689A431143C16094F838208B
:101720000169012A10D104F13C0C9CE84C101E4FB9
:1017300007EB02421D4F394019431143314341EA3F
:101740000C0141F0010101E021F001010161016999
:10175000626B21F07041114301612046FFF7D0F820
:101760002068E268016B21F00F01012A02BFA26923
:10177000013A114301630121606D61F3010060656D
:10178000284601B0F0BD00BFC0FFFF5F6C00002421
:10179000400D030000200240086002580021024072
:1017A0000000FEFF03C0F0FF0000FFFF1EF800FC7A
:1017B0002DE9F04786B0804601A81421FEF7C0FD50
:1017C000D8F80010594F5A4D5A485B4A914266D09A
:1017D000E04A914240F0A6805949BA460A68531C33
:1017E000002A0B6008D1016841F020010160016806
:1017F00001F02001009100998168DFF84C9101AE61
:101800000324002741F004018160816801F0040194
:1018100000910099816841F001018160816801F0C7
:10182000010100910099816841F002018160314617
:10183000806800F00200009000983320019005F5C8
:10184000006002940397C847C02001A991C12846AF
:101850003146C84705F580603146CDE9014403971C
:10186000C8473A4D0AF5866009214FF480624FF46B
:1018700080534FF480464FF4807485E883002846F7
:10188000C5E90372C5E90536C5E907476F6201F08E
:1018900079F8002840D0FFF713FC2C4D3CE0284994
:1018A0000A68531C002A0B6008D1016841F020012E
:1018B0000160016801F02001009100998168032412
:1018C000002641F00101816001A9806800F001005B
:1018D000009000980C20019028460294039601F095
:1018E00011FC184D0A204FF480614FF48072C5E955
:1018F00000700420C5E90266C5E90416C5E9066260
:10190000C5E908602846C5E90A462E6301F03AF8A1
:1019100010B1FFF7D5FB0B4D05F13800C8F84C505E
:10192000C0F8008006B0BDE8F08700BF100002409C
:1019300000000258D8440258002102400020024012
:1019400050080024C0030024053100084002002490
:101950002DE9F84F04460D462068BB4EBB4906F5FD
:10196000807906F54072484508BF1146B04208BF6D
:1019700011468A6802F01F082269082A02D1B3467C
:1019800008270FE0B8F1090F62D8012240F22123A5
:1019900002FA08F21A425BD0C06810F0010F5BD166
:1019A000B346042701F086FC82466E1C206801685D
:1019B000394215D1002EF9D001F07CFC1DB1A0EB0D
:1019C0000A00A842F2D9206800683842EED1606D62
:1019D00040F004006065002084F85000032040E0DF
:1019E000616D41F400716165C16811F4406F11D1FE
:1019F000617D79B9016811F0080F0BD0616D21F498
:101A000080716165616D11F4805F02BF616D41F0AD
:101A100001016165484518BF8346834518BFDB4611
:101A2000B8F1000F08BF8346B8F1050F08BF834621
:101A3000B8F1090F08BF8346082FDBF80C1001D15D
:101A4000082102E0490401D40C210160002008E0D3
:101A5000886810F4404FA3D0606D40F020006065AE
:101A60000120C0B201B0BDE8F08F00BFF8B5044658
:101A70002068754D754A05F5807605F54071B042D0
:101A800008BF0A46A84208BF0A469768806810F057
:101A9000040F03D194F85000012802D1022001B0B4
:101AA000F0BD012084F850002046FFF725F818B15A
:101AB000002184F85010F2E7606D40F6017207F0E3
:101AC0001F01904340F4807060652068B04218BFE9
:101AD000054609B1854203D1626D22F48012626528
:101AE000636D002213F4805F4FF000031CBFA36DF1
:101AF00023F006038542A3654FF01C03036084F8BE
:101B0000502008D0092917D8012202FA01F140F229
:101B10002122114210D0C16811F0007F1FBF616DFA
:101B2000012262F30D31616581684C4A114041F038
:101B3000040181600020B2E7606D40F480106065B0
:101B4000E86810F0007FF5D0606D012161F30D3081
:101B50006065EFE7002002402DE9F843044689461E
:101B600090462168384F394A07F5807507F540706F
:101B7000A94208BF0246B94208BF02469068896878
:101B800011F0040F03D194F85010012903D1022061
:101B900001B0BDE8F08300F01F060120092E84F893
:101BA00050004BD8B04040F22121084246D0204698
:101BB000FEF7A2FF18B1002184F85010E8E7606D2D
:101BC00040F60171884340F4807060652168A94245
:101BD00018BF0F460EB18F4203D1606D20F4801004
:101BE0006065606D1A4B002210F4805F4FF00000BA
:101BF0001CBFA06D20F00600A065E06CC363154B10
:101C00000364154BC3641C230B6084F850204A689E
:101C100042F010024A60E26ACB6823F003031A43E1
:101C20004346CA6040314A4601F0AAF821688A68F2
:101C30000A4B1A4042F004028A60A9E7002084F8A7
:101C400050000120A4E700BF0020024000630258BA
:101C5000090A0008830A00086D0A0008C0FFFF7F18
:101C6000704700002DE9F04104460D4690460121E1
:101C7000002C00F09980002D00F096806079022100
:101C8000012800F0918001206071217128680428EA
:101C90002AD101F00FFB0746B8F1000F0FD02168E1
:101CA000486BB0F1FF3F22DC01F004FBC01B0228AF
:101CB000F5D32068406BB0F1FF3FF0DC0DE0216808
:101CC000486B3B4E304215D001F0F4FAC01B02289D
:101CD000F5D32068406B3042F1D02069032140F0F9
:101CE0000800206121715FE008F0100019E0A86988
:101CF000486401E0A86908648B6C08F0100040F2A9
:101D0000FF32824023EA0202EB6983401A438A646D
:101D1000FF22CB6C824023EA02022B6A83401A43E3
:101D2000CA6429692268012908D1936B1F21814067
:101D300023EA01016B69834019439163D36BEF6818
:101D40000721814023EA010C0021012F03D0022F3B
:101D500003D1012705E0002703E0AF68B7FA87F752
:101D60007F092E68AB6837433B43834043EA0C034B
:101D7000D3634FF480431768834027EA030313605B
:101D800040F6FE731768834027EA03036F688740B5
:101D90003B431360C02303FA00F0136823EA0000FA
:101DA0001060012020716171C8B2BDE8F08100BFF0
:101DB000008000207047B0B5044620680168426B7F
:101DC00001EA0205A9040FD504212171216941F01E
:101DD000010121614FF400514163016821F48051F8
:101DE00001602046FFF7E6FFA80058BFB0BD042001
:101DF0004FF000512071206940F0020020612068FE
:101E00004163016821F0805101602046BDE8B04087
:101E1000FFF726BF10B504466CB1207920B9002029
:101E20006071204600F00AF8022001212071002094
:101E30002061217110BD012010BD000010B586B0D9
:101E4000044601A81421FEF77BFA20681449884251
:101E500024D11448816841F000518160816801F00B
:101E6000005100910099016841F00101016001A950
:101E7000006800F0010000900098302001900320DD
:101E8000029000200390084801F03CF93620002120
:101E9000002201F095FA362001F084FA06B010BD58
:101EA00000740040E04402580000025881B04FF036
:101EB000000C0028CDF800C00CD00068002900906C
:101EC0000098104414BF143008300090009803604C
:101ED000002000E0012001B0704708B343790222DE
:101EE000012B2DD080B54FF0010C01F0100E002910
:101EF00080F805C002710CFA0EFC0268136843EA10
:101F00000C031360D2F800C00CD002210CF478133B
:101F100001FA0EF18B420DD1516841F0020108E047
:101F200001220DE00CF03E01022903D1516841F07D
:101F3000010151600121002201714271BDE8804020
:101F4000D0B27047F8B5044601F0B4F90546002C4C
:101F500000F0A08094F83500022840F09D802768AA
:101F6000A34EA44887421CBFA348874227D0A3485A
:101F700087421CBFA248874221D0A24887421CBF8B
:101F8000A14887421BD0A14887421CBFA048874276
:101F900015D0A04887421CBF9F4887420FD09F485A
:101FA00087421CBF9E48874209D09E4887421CBF7B
:101FB0009D48874203D09D48874240F0048138689D
:101FC00020F01E003946386051F8140F20F08000D0
:101FD0000860F548874244D0F44887421CBFF44863
:101FE00087423ED0F34887421CBFF348874238D02F
:101FF000F24887421CBFF248874232D0F1488742FC
:102000001CBFF14887422CD0F04887421CBFF048E3
:10201000874226D0EF4887421CBFEF48874220D036
:10202000EE4887421CBFEF4887421AD0EC488742EF
:102030001CBFED48874214D0EC4887421CBFEC48D7
:1020400087420ED0EB4887421CBFEB48874208D03E
:10205000EA4887421CBFEA48874202D0E9488742E3
:1020600004D1206E016821F480710160386820F08D
:1020700001003860386810F0010F11D001F01AF932
:10208000401B0628F6D320206065032084F8350025
:10209000012093E0012094E08020606501208DE024
:1020A0002068C14988421CBFC049884226D0C04927
:1020B00088421CBFBF49884220D0BF4988421CBF0C
:1020C000BE4988421AD0BE4988421CBFBD498842D9
:1020D00014D0BD4988421CBFBC4988420ED0BC49BF
:1020E00088421CBFBB49884208D0BB4988421CBFFC
:1020F000BC49884202D0B94988426CD1D4E9161251
:1021000002F01F023F2303FA02F28A60A6498842C6
:1021100044D0A64988421CBFA54988423ED0A54963
:1021200088421CBFA449884238D0A44988421CBFB9
:10213000A349884232D0A34988421CBFA2498842A1
:102140002CD0A24988421CBFA149884226D0A1496F
:1021500088421CBFA049884220D0A04988421CBFA9
:10216000A04988421AD09E4988421CBF9E49884295
:1021700014D09E4988421CBF9D4988420ED09D497B
:1021800088421CBF9C49884208D09C4988421CBF99
:102190009B49884202D09B4988420BD1D4E919015E
:1021A0004160E06E30B1016821F480710160D4E9D2
:1021B0001C014160012084F835000020002184F8D2
:1021C000341001B0F0BD3868B7423FF4F9AE20F0EA
:1021D0000E003946FCE6D4E91612B04202F01F02A6
:1021E0003FF490AF012303FA02F24A608EE700BF8A
:1021F000B8040240100002402800024040000240A3
:10220000580002407000024088000240A0000240D6
:10221000B80002401004024028040240400402407A
:102220005804024070040240A004024088040240A6
:1022300000286ED090F83510022968D101685A4AFA
:1022400091422CD0594A91421CBF594A914226D002
:10225000584A91421CBF584A914220D0574A914255
:102260001CBF574A91421AD0564A91421CBF564A47
:10227000914214D0554A91421CBF554A91420ED00A
:10228000544A91421CBF544A914208D0534A914249
:102290001CBF534A914202D0524A91423CD104227F
:1022A00080F83520404881421CBF4048814228D0F8
:1022B0003F4881421CBF3F48814222D03E48814274
:1022C0001CBF3E4881421CD03D4881421CBF3D4856
:1022D000814216D03C4881421CBF3C48814210D00C
:1022E0003B4881421CBF3B4881420AD03A48814268
:1022F0001CBF3A48814204D0394881421CBF39484A
:102300008142086820F001000860002102E080217D
:1023100041650121084670470A6822F00E020A60F2
:102320000A6822F001020A602F4A914214D02F4A13
:1023300091421CBF2E4A91420ED02E4A91421CBFA0
:102340002D4A914208D02D4A91421CBF2C4A9142FD
:1023500002D02C4A914218D1016E01230A6822F45E
:1023600080720A60D0E9161202F01F0203FA02F22C
:102370004A60D0E919124A60C16E31B10A6822F48C
:1023800080720A60D0E91C124A60012180F8351081
:10239000002180F83410026D002ABBD080B5904730
:1023A0000021BDE88040B5E710000240280002404F
:1023B0004000024058000240700002408800024085
:1023C000A0000240B800024010040240280402406D
:1023D0004004024058040240700402408804024055
:1023E000B8040240A0040240085402581C54025889
:1023F0003054025844540258585402586C540258ED
:1024000094540258805402582DE9FC41044600209F
:102410000190DFF84C0FA56DD0F800802F68296877
:102420002068D44A904249D0D34A90421CBFD34A34
:10243000904243D0D24A90421CBFD24A90423DD0F3
:10244000D14A90421CBFD14A904237D0D04A9042E4
:102450001CBFD04A904231D0CF4A90421CBFCF4AD5
:1024600090422BD0CE4A90421CBFCE4A904225D0FB
:10247000CD4A90421CBFCD4A90421FD0CC4A9042D8
:102480001CBFCC4A904200F02581CB4A90421CBF31
:10249000CA4A904200F01E81C94A90421CBFC94AF4
:1024A000904200F01781C84A90421CBFC74A904230
:1024B00000F01081C649884240F03382E16D082265
:1024C00001F01F018A403A423DD0AA4B98422DD0DC
:1024D000A94B98421CBFA94B984227D0A84B9842C1
:1024E0001CBFA84B984221D0A74B98421CBFA74BBA
:1024F00098421BD0A64B98421CBFA64B984215D0C1
:10250000A54B98421CBFA54B98420FD0A44B9842B4
:102510001CBFA44B984209D0A34B98421CBFAC4BA4
:10252000984203D0A14B984240F0FD8104230668F5
:102530001E4208D0036823F004030360AA60626DA2
:1025400042F00102626501228A403A423BD0894B47
:1025500098422DD0884B98421CBF884B984227D078
:10256000874B98421CBF874B984221D0864B98429C
:102570001CBF864B98421BD0854B98421CBF854B95
:10258000984215D0844B98421CBF844B98420FD080
:10259000834B98421CBF834B984209D0824B984290
:1025A0001CBF8B4B984203D0804B984240F0BD81BA
:1025B00000F11406802336681E421FBFAA60626DB8
:1025C00042F00202626504228A403A4239D0694BE5
:1025D00098422DD0684B98421CBF684B984227D038
:1025E000DB4B98421CBFDB4B984221D0DA4B984220
:1025F0001CBFDA4B98421BD0D94B98421CBFD94B19
:10260000984215D0D84B98421CBFD84B98420FD057
:10261000D74B98421CBFD74B984209D0D64B984213
:102620001CBFD74B984203D0D44B984240F08081D6
:10263000022306681E421FBFAA60626D42F00402B8
:102640006265102202FA01F1394200F0C780BD4AEA
:1026500090422DD0BC4A90421CBFBC4A904227D029
:10266000BB4A90421CBFBB4A904221D0BA4A90421A
:102670001CBFBA4A90421BD0B94A90421CBFB94A0B
:10268000904215D0B84A90421CBFB84A90420FD031
:10269000B74A90421CBFB74A904209D0B64A90420E
:1026A0001CBFB74A904203D0B44A904240F04281E6
:1026B00008220368134200F09180A9600268016853
:1026C00012F4802F3BD1C9055EBF016821F00801DB
:1026D000016036E00268E36D03F01F0312F0040F9F
:1026E0001EBF04279F4017EA010609D011046F603E
:1026F0001FD491065EBF016821F0040101601CE057
:10270000970720D502279F4017EA01061BD0110426
:102710006F6000F11181910600F11281016821F0D2
:102720000A010160012084F83500002084F834009B
:1027300006E1D00301D4A16CEDE0216CEBE00803CD
:1027400048D4216C47E0120740F1EB8008229A4000
:10275000114000F0E680016821F00E0101600121C6
:10276000E06D00F01F0001FA00F06860616584F818
:102770003510CCE01000024028000240400002402A
:10278000580002407000024088000240A000024051
:10279000B8000240100402402804024040040240F5
:1027A000580402407004024088040240A004024021
:1027B00094540258085402581C5402583054025879
:1027C00044540258585402586C54025880540258C9
:1027D000B8040240A16C09B120468847E06D00F0C2
:1027E0001F01202000FA01F23A426DD02068554EB8
:1027F0001023B0422DD0544EB0421CBF534EB042B5
:1028000027D0534EB0421CBF524EB04221D0524E40
:10281000B0421CBF514EB0421BD0514EB0421CBF03
:10282000504EB04215D0504EB0421CBF4F4EB04239
:102830000FD04F4EB0421CBF4E4EB04209D04E4E4C
:10284000B0421CBF4D4EB04203D04D4EB04218BFF7
:10285000022307681F4237D0AA6094F83530026817
:10286000042B19D122F016020260426922F0800284
:102870004261226C0AB9A26C1AB1026822F0080205
:1028800002603F208840A860012084F835000020C5
:1028900084F83400216D3EE0016852030CD4C90570
:1028A0000ED4016821F010010160012084F8350088
:1028B000002084F8340003E0080301D4616C00E0D8
:1028C000E16B09B120468847606D50B3606D10F030
:1028D000010F1FD04FF41650B8FBF0F1042084F81C
:1028E00035002068026822F001020260019A01327C
:1028F0008A42019203D8026812F0010FF6D10068F3
:10290000012100F0010041EA400084F83500002078
:1029100084F83400E16C002908BFBDE8FC81204642
:102920008847BDE8FC81082301E60023064642E60D
:1029300000237EE60422BCE6D00301D4616CEAE702
:10294000E16BE8E71000024028000240400002402E
:10295000580002407000024088000240A00002407F
:10296000B800024010040240280402404004024023
:10297000580402407004024088040240A00402404F
:10298000B80402402DE9F041044600F093FC0546EE
:10299000002C00F006812068DD49884248D0DD49DE
:1029A00088421CBFDC49884242D0DC4988421CBFB7
:1029B000DB4988423CD0DB4988421CBFDA49884267
:1029C00036D0DA4988421CBFD949884230D0D9492B
:1029D00088421CBFD84988422AD0D84988421CBFA7
:1029E000D749884224D0D74988421CBFD64988425B
:1029F0001ED0D64988421CBFD549884200F092803B
:102A0000D44988421CBFD449884200F08B80D34906
:102A100088421CBFD249884200F08480D149884254
:102A20001CBFD14988427DD0D049884240F0B48053
:102A3000022184F83510002184F83410B44988420A
:102A40001CBFB449884228D0B34988421CBFB3494F
:102A5000884222D0B24988421CBFB24988421CD069
:102A6000B14988421CBFB149884216D0B04988425A
:102A70001CBFB049884210D0AF4988421CBFAF4943
:102A800088420AD0AE4988421CBFAE49884204D071
:102A9000B64988421CBFAC498842016821F0010157
:102AA000016005E000F006FC401B052872D8206894
:102AB000016811F0010FF5D10168AE4A04F1100C64
:102AC00001EA0208D4E902259CE84810D4E907711C
:102AD000D4F824E042EA0802BEF1040F42EA0502FB
:102AE00042EA030242EA060242EA0C0242EA070212
:102AF00041EA020102BFD4E90B23114319439E4A64
:102B00001268B2F1005F55D36568A5F13F02132A40
:102B10004AD8012303FA02F2984B1A4244D041F4F6
:102B2000801147E0022184F83510002184F8341028
:102B30000268D4E90237D4E90465D4E906CED4F8B2
:102B40002080802B6FF3101208BF4FF48041402B80
:102B500042EAD70208BF1021114341EAD60141EAF7
:102B6000D50141EADC0141EADE0141EA18110160C8
:102B70007F4908441421B0FBF1F08000E065204655
:102B8000FEF77CF8E16D012201F01F0102FA01F16C
:102B900041604CE0202000E040206065032084F884
:102BA00035000120BDE8F081A5F12902062A38BFD1
:102BB00041F480110160BEF1040F416921F0070169
:102BC00041EA0E0128D1D4E90A53294323B3BCF5C5
:102BD000005F08D0BCF1000F11D1022D12D0012DE1
:102BE00007D07DB118E0032D16D8DFE805F00E0BF5
:102BF0000E02A3F1C072B2FA82F2520904E0032D70
:102C000003D309D1C3F3006232B1402060650120D3
:102C100084F83500BDE8F08141612046FEF72EF8CA
:102C2000E16D3F2201F01F0102FA01F1816020688D
:102C3000D349884244D0D34988421CBFD2498842F4
:102C40003ED0D24988421CBFD149884238D0D149B0
:102C500088421CBFD049884232D0D04988421CBF2C
:102C6000CF4988422CD0CF4988421CBFCE498842E8
:102C700026D0CE4988421CBFCD49884220D0CE49BB
:102C800088421CBFCB4988421AD0CC4988421CBF1D
:102C9000CB49884214D0CB4988421CBFCA498842DC
:102CA0000ED0CA4988421CBFC949884208D0C949C8
:102CB00088421CBFC849884202D0C84988421FD1F7
:102CC0002046FEF74BF8A068802806BF0020606011
:102CD0006068216EC2B201380A600728D4E919126F
:102CE0004A6009D82046FEF77FF8E06E00210160B7
:102CF000D4E91C01416003E00020C4E91B006067C7
:102D000000200121606584F83510BDE8F08100BF26
:102D100010000240280002404000024058000240DB
:102D20007000024088000240A0000240B80002404B
:102D300010040240280402404004024058040240AB
:102D40007004024088040240A004024094540258D7
:102D5000085402581C540258305402584454025823
:102D6000585402586C54025880540258B804024017
:102D7000F8ABFDA73F8010FE0010005C0F030F00B2
:102D8000B0B50546002D00F0E78095F83400012825
:102D900001D10220E1E0012085F8340095F83500EA
:102DA000012840F0D380022085F8350000206865B6
:102DB0002868046824F0010404602846FEF756F8E9
:102DC00028686F4988421CBF6E49884227D06E49E7
:102DD00088421CBF6D49884221D06D4988421CBF82
:102DE0006C4988421BD06C4988421CBF6B498842A1
:102DF00015D06B4988421CBF6A4988420FD06A4986
:102E000088421CBF6949884209D0694988421CBF71
:102E10006849884203D06849884240F0A080016830
:102E20000B2262F344010160296C19B1016841F081
:102E3000080101605249884244D0524988421CBF6F
:102E4000514988423ED0514988421CBF504988426E
:102E500038D0504988421CBF4F49884232D04F4930
:102E600088421CBF4E4988422CD04E4988421CBF24
:102E70004D49884226D04D4988421CBF4C49884262
:102E800020D04D4988421CBF4A4988421AD04B493C
:102E900088421CBF4A49884214D04A4988421CBF14
:102EA000494988420ED0494988421CBF4849884256
:102EB00008D0484988421CBF4749884202D0474948
:102EC00088423DD1296E0A6812F4803F1EBF0A680D
:102ED00042F480720A60E96E19B10A6842F48072A5
:102EE0000A60274988421CBF2649884228D02649C3
:102EF00088421CBF2549884222D0254988421CBFF0
:102F0000244988421CD0244988421CBF2349884256
:102F100016D0234988421CBF2249884210D022493A
:102F200088421CBF214988420AD0214988421CBFDF
:102F30002149884204D0214988421CBF1D4988424A
:102F4000016841F001010160002006E04FF40060DB
:102F50006865002085F834000120C0B2B0BD01686A
:102F6000164A90423FF45CAF052262F343010160D0
:102F7000296C00293FF45EAF016841F0040158E775
:102F80001000024028000240400002405800024069
:102F90007000024088000240A0000240B8000240D9
:102FA0001004024028040240400402405804024039
:102FB00070040240A004024088040240B8040240A9
:102FC000085402581C5402583054025844540258B1
:102FD000585402586C540258945402588054025861
:102FE0002548016841F0010101600121006821EAE2
:102FF000000070472DE9F0411E4E14460D46307D0D
:10300000012804BF0220BDE8F081294601206FF3AA
:1030100010013075B1F1006F18BFBDE8F0814FF0BD
:1030200000084CF250300121C6F81880FEF74CF829
:10303000E0B9114F386840F0020038600820BFF353
:103040006F8FBFF34F8F02CC013810F0FF0F02C516
:10305000F9D1BFF36F8F4CF250300121BFF34F8F86
:10306000FEF732F8396821F00201396086F81480E1
:10307000BDE8F08128B603240C200052084881687E
:1030800011F0010F09D0074901600749016080680C
:1030900010F0010F1CBF012070470020704700BFD7
:1030A0000420005223016745AB89EFCD10B5B0F580
:1030B000007F02BF0A4C606C002810D1A079022862
:1030C00006D008480849094A49F64043FFF758FE28
:1030D0000220606440F2451020820120E07110BDA2
:1030E00010000024C0050024100C0258A47D022406
:1030F00003490A6802421CBF0860FFF7D7BF704748
:10310000880000582DE9FC4F5D4A0A274FF0000B5C
:103110004FF0010E4FF0030A4FF00F094FF0000C73
:10312000904208BF0927574A02444FEAB223092BAD
:1031300038BF4FEAB227009700270A6832FA07F330
:1031400008BFBDE8FC8F0EFA07F312EA030400F093
:1031500090804D6805F00302A2F10108B8F1010F5B
:1031600018D8D0F80890CE680AFA0CF829EA0808AE
:1031700006FA0CF64FF00F0946EA08068660C5F31A
:10318000001606FA07F8466826EA030343EA08032E
:10319000436001E0032A1DD0C6680AFA0CF3022A34
:1031A00026EA03038E6806FA0CF643EA0603C360B8
:1031B00010D1354D0BF01C0209FA02F305EA570550
:1031C00005442E6A26EA03030E6906FA02F21A4340
:1031D0002A624D68066805F003020AFA0CF315F43A
:1031E000403F02FA0CF226EA030342EA03020260BD
:1031F0003FD06B4A0BF00C0609FA06F5136843F052
:1032000002031360126802F002020192019A1F4B3E
:1032100027F0030252F8038028EA0508009D05FA0A
:1032200006F648EA0605D5504FF0B0452A684B68C7
:10323000A24313F4801F18BF224313F4001F2A6017
:10324000134A156825EA040518BF254313F4003F07
:103250001560D2F8805025EA040518BF254313F401
:10326000803FC2F88050D56F25EA040518BF25437A
:10327000D5670BF1040B0CF1020C01375DE700BFC1
:10328000002402580000FEA7FCFFFF7F080400583E
:10329000040000580069084018BF01207047002A48
:1032A00008BF09048161704701480068000C70473D
:1032B0000010005C29488068704700BF27480178EB
:1032C000826811448160704780B5032000F0A4F843
:1032D00001F0FCF90F49734B0A68C2F30322096835
:1032E0009A5C01F00F01595C02F01F02D0400A4ABB
:1032F00001F01F0120FA01F111601949086007204F
:1033000000F00CF808B1012080BD00F02BF800207F
:1033100080BD00BF184402587000002470B50F4EE5
:1033200004463078B0B14FF47A71B1FBF0F00C493B
:103330000968B1FBF0F001F011FD01250F2C0AD84E
:1033400048B94FF0FF3021460022002500F038F840
:10335000746000E00125284670BD00BF60000024B5
:103360006C0000241CB50E4C206840F00200206068
:10337000206800F0020001900198042000F04CF851
:10338000206840F400402060206800F40040009075
:10339000009801F0D3FC0220BDE81C4001F0D4BC31
:1033A000F4440258002808DB00F01F010122400904
:1033B00002FA01F1014A42F82010704700E100E0F2
:1033C000B0B5144C1A4D00F00F03B0F1FF3FA3F15C
:1033D00004032B4403F10C03C8BF03192868C0F38E
:1033E0000220051DC41E80F00700072D4FF00105C7
:1033F00038BF0024042828BF042005FA00F0013853
:10340000084005FA04F10F31A040114008430001C3
:103410001870B0BD00E400E005494FF6FF030A68EC
:103420001A4060F30A22034810430860704700BF47
:103430000CED00E00000FA05B0B5114D2A682968CE
:1034400012F0040F05D101F00701081A18BF01207E
:10345000B0BD21F0070108432860FFF72BFF0446A9
:1034600055F8080C10F4005F1CBF0020B0BDFFF73A
:1034700021FF001BB0F57A7F84BF0120B0BDEFE7CC
:103480000C48025880B501F0E1F80549054A096881
:10349000C1F30211515C01F01F01C84080BD00BFA3
:1034A00020440258A0C8000810B5504CD4F828C0D9
:1034B000A26AE36A616B03F00103C2F305125B4287
:1034C000002A03EAD1016FF35F3100EE101AB8EE63
:1034D000400A20D00CF00303022B20D0012B22D075
:1034E0002BBB02EE102A9FED431AB8EE422A216848
:1034F00020EE010A11F0200F61D1216B9FED401ADF
:103500006FF35F2181EE022A03EE101AB8EE433A00
:1035100030EE031A1EE00021C0E900114DE0216BDE
:103520009FED332A06E0216B9FED332A02E0216BE9
:103530009FED332A01EE102A6FF35F219FED2D3AA4
:10354000B8EE414A01EE101AB8EE411A82EE042A92
:1035500000EE031A216BB7EE000A31EE001A22EEDC
:10356000011AC1F3462103EE101AB8EE433A33EEC6
:10357000002A81EE022ABCEEC22A80ED002A216BCD
:10358000C1F3064102EE101AB8EE422A32EE002ACA
:1035900081EE022ABCEEC22A80ED012A216BC1F322
:1035A000066102EE101AB8EE422A32EE000A81EEEF
:1035B000000ABCEEC00A10EE101A816010BD21682E
:1035C000C1F3C1010D4A22FA01F1226B03EE101A78
:1035D0006FF35F2201EE102AB8EE411AB8EE433ABB
:1035E00030EE011A83EE022AB4E700BF004402580D
:1035F00020BCBE4B000000390024744A0090D00368
:103600000024744C10B54E4CD4F828C0A26AE36A6A
:10361000E16BC3F30013C2F305325B42002A03EAF5
:10362000D1016FF35F3100EE101AB8EE400A20D0DE
:103630000CF00303022B24D0012B1ED0EBB902EEB9
:10364000102A9FED411AB8EE422A216820EE010AA5
:1036500011F0200F5DD1A16B9FED3E1A6FF35F213A
:1036600081EE022A03EE101AB8EE433A30EE031A46
:103670001AE00021C0E9001149E0A16B9FED332A57
:1036800002E0A16B9FED2F2A01EE102A6FF35F215C
:103690009FED2D3AB8EE414A01EE101AB8EE411AEC
:1036A00082EE042A00EE031AA16BB7EE000A31EE97
:1036B000001A22EE011AC1F3462103EE101AB8EEE9
:1036C000433A33EE002A81EE022ABCEEC22A80ED94
:1036D000002AA16BC1F3064102EE101AB8EE422A8D
:1036E00032EE002A81EE022ABCEEC22A80ED012AC7
:1036F000A16BC1F3066102EE101AB8EE422A32EE57
:10370000000A81EE000ABCEEC00A10EE101A8160B9
:1037100010BD2168C1F3C1010D4A22FA01F1A26B6B
:1037200003EE101A6FF35F2201EE102AB8EE411A71
:10373000B8EE433A30EE011A83EE022AB4E700BF36
:103740000044025820BCBE4B000000390024744ADB
:103750000090D0030024744C10B54E4CD4F828C00F
:10376000A26AE36A616CC3F30023C2F305525B42B1
:10377000002A03EAD1016FF35F3100EE101AB8EEB0
:10378000400A20D00CF00303022B24D0012B1ED0C2
:10379000EBB902EE102A9FED411AB8EE422A2168D9
:1037A00020EE010A11F0200F5DD1216C9FED3E1A31
:1037B0006FF35F2181EE022A03EE101AB8EE433A4E
:1037C00030EE031A1AE00021C0E9001149E0216C33
:1037D0009FED332A02E0216C9FED2F2A01EE102A83
:1037E0006FF35F219FED2D3AB8EE414A01EE101ABA
:1037F000B8EE411A82EE042A00EE031A216CB7EEED
:10380000000A31EE001A22EE011AC1F3462103EE3E
:10381000101AB8EE433A33EE002A81EE022ABCEECB
:10382000C22A80ED002A216CC1F3064102EE101A73
:10383000B8EE422A32EE002A81EE022ABCEEC22AFB
:1038400080ED012A216CC1F3066102EE101AB8EE78
:10385000422A32EE000A81EE000ABCEEC00A10EEE7
:10386000101A816010BD2168C1F3C1010D4A22FA0E
:1038700001F1226C03EE101A6FF35F2201EE102AA1
:10388000B8EE411AB8EE433A30EE011A83EE022A3E
:10389000B4E700BF0044025820BCBE4B0000003912
:1038A0000024744A0090D0030024744CF0B589B011
:1038B00002468C4D82F4002008438B488B4F8C4E7F
:1038C0008C4B00F0728082F400740C4330D082F490
:1038D00080640C4300F0758082F400640C4334D0A3
:1038E00082F480540C4300F0778082F400540C433F
:1038F00000F0A98082F480440C4331D082F400446B
:103900000C433BD082F480340C4345D082F4807267
:10391000114340F0DF80196D01F00701042900F226
:10392000D980DFE811F064006D009D00D8007600BA
:10393000196DC1F38211042900F2CC80DFE811F087
:10394000570060009000CB006900996DC1F30261DF
:10395000042900F2BF80DFE801F04A5383BE5C0017
:10396000986DC0F30270052800F2B480DFE800F023
:103970000381969FA98AFFF785FDACE0186D00F0E2
:103980004050B0F1005F00F07480B0F1805F2ED045
:10399000002800F077809DE0D96C186811F4803F12
:1039A00040F07580800126D494E0986D00F440309A
:1039B000B0F5003F2DD0B0F5803F00F08780F8B122
:1039C00088E0996DC1F34251042900F28380DFE859
:1039D00001F00E1747822000196DC1F3023104294E
:1039E00000F27880DFE801F0030C3C7715001868DE
:1039F00010F0007F6ED006A8FFF756FD07986AE02A
:103A0000186810F0006F65D003A8FFF7FBFD03985E
:103A100061E0D96C1A68186811F0405102D112F0B7
:103A2000040249D1B1F1805F03D110F480702846BF
:103A300051D1186810F4003018BF3846B1F1005F5A
:103A400018BF002047E0186DC0F30240052841D898
:103A5000DFE800F0030F242D371800F017FE3AE0DE
:103A6000186810F0005F35D06846FFF775FE0098C3
:103A700031E0186810F0006F2CD003A8FFF7C2FDEA
:103A8000049828E01868800307EAE07023E000014A
:103A900020D503A8FFF7B6FD05981CE0186810F0C4
:103AA000005F17D06846FFF757FE019813E01868CB
:103AB00010F0040F0ED01868C0F3C10026FA00F011
:103AC00009E01868C00505EAE07004E0186810F025
:103AD000005F02D1002009B0F0BD6846FFF73CFE50
:103AE0000298F8E700093D000080BB0040787D01A6
:103AF0000090D003004402582DE9F0470446E078D6
:103B0000A84F000722D5A06E4FEA3051032908D8EC
:103B1000DFE801F002090F17F96941F40031F9619A
:103B20000FE0012613E004F10800022103F006F97A
:103B300004E004F12800022103F086F9064636B9B4
:103B4000A06E396C21F44011084338640026607877
:103B5000BA46C00701D1354628E0A06D04280BD82D
:103B60003546DFE800F0030C12181800F8693546F6
:103B700040F40030F8610EE00125012717E004F160
:103B80000800002103F0DAF804E004F12800002125
:103B900003F05AF90546002D2F4608D1524600255C
:103BA000106CA16D20F00700084310643746607860
:103BB000800729D5E06D4FEAB01004280AD8DFE865
:103BC00000F0030C121818005146C86940F4003088
:103BD000C8610EE00125012617E004F1080000216C
:103BE00003F0ACF804E004F12800002103F02CF904
:103BF0000546002D2E4608D152460025106CE16D79
:103C000020F4E070084310643E466078400702D418
:103C1000B04657462CE0D4F8A80057464FEA7050FB
:103C2000042809D8DFE800F0030C12181800F8691E
:103C300040F40030F8610FE001254FF0010817E073
:103C400004F10800002103F079F804E004F12800F1
:103C5000002103F0F9F80546002DA84608D1B86CFC
:103C6000D4F8A8100025B04620F460000843B864DA
:103C7000607800072AD5D4F8AC004FEA30600428F9
:103C800009D8DFE800F0030B11171700F86940F4BA
:103C90000030F8610EE00125012718E004F108006A
:103CA000002103F04BF804E004F12800002103F0A8
:103CB000CBF80546002D2F4609D152460025906CC1
:103CC000D4F8AC1020F0E060084390644746E078F8
:103CD000800722D5E06C4FEA3010032809D8DFE8CE
:103CE00000F011020B115146C86940F40030C86160
:103CF00008E00125012611E004F10800022103F08B
:103D00001DF80546002D2E4608D152460025D06BE1
:103D1000E16C20F030000843D0633E466078C00676
:103D200029D5206E4FEA303004280AD8DFE800F0A9
:103D3000030C121818005146C86940F40030C861DD
:103D40000EE00125012717E004F10800002102F030
:103D5000F5FF04E004F12800002103F075F80546A2
:103D6000002D2F4608D152460025106C216E20F4FC
:103D7000E0400843106437466078800625D5606EC1
:103D80004FEA304005280AD8DFE800F014030E148B
:103D9000141404F10800012102F0D0FF09E001250C
:103DA000012613E01044025804F12800012103F019
:103DB0004BF80546002D2E4608D152460025106CC2
:103DC000616E20F4E020084310643E4660784006AF
:103DD00025D5D4F8B0004FEA307005280AD8DFE8BE
:103DE00000F012030C12121204F10800012102F07B
:103DF000A5FF07E00125012712E004F128000121B9
:103E000003F022F80546002D2F4609D15246002521
:103E1000906CD4F8B01020F0E0400843906437462E
:103E2000607800061ED5206F88B1B0F1005F08D021
:103E3000B0F1805F2AD15146C86940F40030C861B2
:103E400005E004F10800012102F078FF0546002D8D
:103E50002E4608D152460025106C216F20F04050AC
:103E6000084310643E46E078C00702D1B04657468A
:103E700024E0A06C574603280BD8DFE800F01402BA
:103E80000E14F86940F40030F8610CE001250126B9
:103E9000E9E701254FF0010810E004F108000221D4
:103EA00002F04CFF0546002DA84607D1F86BA16C27
:103EB0000025B04620F003000843F863A0784006D0
:103EC00001D4474618E0D7F8F00340F48070C7F8F3
:103ED000F003FFF7EFF90646D7F8F00310F4807F00
:103EE00007D1FFF7E7F9801B6428F5D903250327DD
:103EF00002E0002D2F4612D02078C0074ED0E06F90
:103F00004FEAF000052835D8DFE800F03D03373DE3
:103F10003D3D04F10800012102F010FF32E053465C
:103F2000196ED4F8B400414011F4407F0BD0196EE3
:103F30001A6E42F4803221F440711A661A6E22F42D
:103F400080321A661966B0F5807F40F05A82FFF71A
:103F5000B1F9064641F28839032503275346186E06
:103F600010F0020F40F04B82FFF7A4F9801B484588
:103F7000F4D9C1E70125012611E004F1280001214F
:103F800002F062FF0546002D2E4608D1524600255C
:103F9000506CE16F20F03800084350643E462078B2
:103FA000800721D5A06F05280AD8DFE800F01203AA
:103FB0000C12121204F10800012102F0BFFE07E00A
:103FC0000125012711E004F12800012102F03CFF46
:103FD0000546002D2F4608D152460025506CA16F92
:103FE00020F007000843506437462078400723D567
:103FF000D4F8940005280AD8DFE800F012030C1268
:10400000121204F10800012102F098FE07E00125D8
:10401000012612E004F12800012102F015FF0546F7
:10402000002D2E4609D152460025906CD4F89410EC
:1040300020F00700084390643E462078800625D58E
:10404000D4F890004FEA307005280AD8DFE800F075
:1040500012030C12121204F10800002102F06EFE8D
:1040600007E00125012712E004F12800022102F0F7
:10407000EBFE0546002D2F4609D152460025506C17
:10408000D4F8901020F0E040084350643746207880
:10409000400625D5D4F89C004FEAB02005280AD860
:1040A000DFE800F012030C12121204F108000021E4
:1040B00002F044FE07E00125012612E004F1280089
:1040C000022102F0C1FE0546002D2E4609D15246BE
:1040D0000025906CD4F89C1020F4E05008439064C4
:1040E0003E462078000625D5D4F8A0004FEA70306F
:1040F00005280AD8DFE800F012030C12121204F1AE
:104100000800002102F01AFE07E00125012712E055
:1041100004F12800022102F097FE0546002D2F46EB
:1041200009D152460025906CD4F8A01020F46040CC
:10413000084390643746206810F0080F15D0D4F873
:104140008410B1F5805F0AD104F12800022102F049
:104150007BFE002818BF01272068D4F8841053463E
:104160005A6C22F4405211435964C10615D5D4F853
:104170009810B1F5807F0AD104F12800022102F0E5
:1041800063FE002818BF01272068D4F89810534612
:104190009A6C22F4407211439964000320D5D4F83C
:1041A000A400B0F5003F0FD0B0F5803F06D068BB4B
:1041B00004F10800002102F0C1FD04E004F1280030
:1041C000022102F041FE0546002D2E4609D152463D
:1041D0000025906CD4F8A41020F44030084390647B
:1041E0003E46A078400726D5D4F88800B0F5401F99
:1041F00015D0B0F5001F0CD0B0F5801F40F0FA804C
:104200005146C86940F40030C86108E00125012624
:10421000E7E704F12800012102F016FE0546002D13
:104220002F4609D152460025506CD4F8881020F44E
:104230004010084350643746A078C00701D13E467D
:104240001EE0206DB0F5803F06D0B8B95146C86970
:1042500040F40030C86105E004F10800022102F0DA
:104260006DFD0546002D2E460AD152460025D06B25
:10427000216D20F480300843D063E0E7012501265A
:10428000216811F0005F01D1606809E004F12800A5
:10429000022102F0D9FD002818BF0126D4E9001040
:1042A0008A031BD5D4F880206FF0010303EB32237F
:1042B000022B0BD34FEA322343B1012B40F09D80F8
:1042C000DAF81C3043F40033CAF81C303DB9DAF890
:1042D000443023F440731A43CAF844203546CA02D6
:1042E00007D5DAF84020636F22F000421A43CAF87B
:1042F0004020CA0008D5DAF80020D4F8B83022F4FB
:1043000080421A43CAF800208A0207D5DAF8402012
:10431000E36E22F080721A43CAF840204A000CD59E
:10432000DAF8002022F40042CAF80020D4F8BC20B9
:10433000DAF800301A43CAF80020B1F1FF3F07DC79
:10434000DAF83C20636D22F040521A43CAF83C2050
:10435000090208D5DAF84410D4F88C2021F4400181
:104360001143CAF84410C10708D004F10800002125
:1043700002F0E4FC002818BF05466068810708D5F4
:1043800004F10800012102F0D9FC002818BF0546FD
:104390006068410708D504F10800022102F0CEFC54
:1043A000002818BF05466068010708D504F12800F9
:1043B000002102F049FD002818BF05466068C106CB
:1043C00008D504F12800012102F03EFD002818BFA5
:1043D00005466068800607D504F12800022102F036
:1043E00033FD002818BF0546002D18BF01252846BB
:1043F000BDE8F087012501271EE701256FE7D4F806
:10440000B400196800F440720025B2F5407F21F431
:104410007C5102BF054A02EA101211436FF31F30AC
:104420001960196E084318664BE500BFCFFFFF0007
:104430002DE9F84304468846002C00F0FE80814BAD
:10444000186800F00F0040450BD2186820F00F00EC
:1044500040EA08001860186800F00F00404540F07E
:10446000EC802068E44F10F0040F0AD02169BA698B
:1044700002F07002914281BFBA6922F070021143CA
:10448000B96101070AD56169FA6902F070029142C7
:1044900081BFFA6922F070021143F961C1060AD5A1
:1044A000A169FA6902F4E062914281BFFA6922F4DB
:1044B000E0621143F96181060AD5E1693A6A02F0C6
:1044C0007002914281BF3A6A22F070021143396250
:1044D00081070AD5E168BA6902F00F02914281BFF3
:1044E000BA6922F00F021143B961C10738D0B86927
:1044F000A16820F470600843B8616068032806D0A2
:10450000022809D1396811F4003F0ED195E03968CD
:1045100011F0007F09D190E03968012802D1C90566
:1045200003D48AE0490740F188803969994621F02F
:10453000070108433861FEF7BDFE064641F28835A3
:104540003869616800F03800B0EBC10F06D0FEF7A3
:10455000B1FE801BA842F3D903206FE020684B46D0
:1045600081070AD5E168BA6902F00F0291423FBFA4
:10457000BA6922F00F021143B961196801F00F0105
:1045800041450AD9196821F00F0141EA0801196073
:10459000196801F00F0141454FD141070AD5216942
:1045A000BA6902F0700291423FBFBA6922F070020C
:1045B0001143B96101070AD56169FA6902F0700215
:1045C00091423FBFFA6922F070021143F961C106BE
:1045D0000AD5A169FA6902F4E06291423FBFFA6923
:1045E00022F4E0621143F96180060AD5E069396A74
:1045F00001F0700188423FBF396A21F07001084321
:10460000386200F063F8B9692F4AC1F30321515CA5
:1046100001F01F01C840B96901F00F01515C194A4E
:1046200001F01F0120FA01F11160174908600648E6
:104630000068BDE8F443FEF771BE0120C0B201B0CE
:10464000BDE8F083002000526400002480B500F033
:104650003DF80B491C4B0A68C2F303229A5C02F036
:104660001F0220FA02F20868064900F00F00185CE9
:1046700000F01F0022FA00F0086003490A6080BDC4
:1046800018440258700000246C00002480B5FFF725
:10469000DDFF0C490C4A0968C1F30211515C01F0BD
:1046A0001F01C84080BD00BF80B5FFF7CFFF05499F
:1046B000054A0968C1F30221515C01F01F01C8409D
:1046C00080BD00BF1C440258A0C800084A490869C0
:1046D000C0F3C20349484A4A032B10D0022B04BF3F
:1046E0004848704753B9086810F0200F10461FBFA4
:1046F0000868C0F3C10022FA00F07047704780B527
:10470000D1F828C0D1F828E0CB6A486B03F0010348
:104710005B4203EAD003CEF305106FF35F3300284A
:1047200000EE103AB8EE400ABDE8804004BF002019
:1047300070470CF00303022B20D0012B1AD0CBB909
:1047400002EE100A9FED311AB8EE422A086820EEF8
:10475000010A10F0200F39D1086B9FED2E1A6FF36C
:104760005F2081EE022A03EE100AB8EE433A30EEE3
:10477000031A16E00A6B9FED262A02E00A6B9FEDF2
:10478000222A01EE100A6FF35F229FED203AB8EE65
:10479000414A01EE102AB8EE411A82EE042A00EED8
:1047A000031A086BB7EE000A31EE000A22EE000A87
:1047B000C0F34620013001EE100AB8EE411A80EE37
:1047C000010ABCEEC00A10EE100A70470868C0F378
:1047D000C10022FA00F00A6B03EE100A6FF35F22A9
:1047E00001EE102AB8EE411AB8EE433A30EE011A43
:1047F00083EE022AD5E700BF0044025800093D00BD
:104800000090D00340787D0120BCBE4B00000039F1
:104810000024744A0024744CF8B50446002C00F0BF
:104820009D812078CE4EC0074CD03169B06A01F02E
:104830003801102915D0182904BF00F00300022800
:104840000FD06068A0B1B0F5803F06D03168B0F5F8
:10485000A02F23D141F480203060306840F48030B4
:1048600022E0306810F4003F2CD0606850BB75E146
:10487000306820F480303060306820F48020306070
:10488000FEF718FD0546306810F4003F1AD0FEF719
:1048900011FD411B03206429F5D94BE221F480303E
:1048A0003060306820F480203060FEF703FD05465C
:1048B000306810F4003F05D1FEF7FCFC401B642873
:1048C000F6D962E12078800760D53169B06A11F0CD
:1048D000380118D0182908BF5FEA807013D0E0684B
:1048E0003168E0B321F0190108433060FEF7E2FCC3
:1048F0000546306810F0040F20D1FEF7DBFC401BAA
:104900000228F6D941E13168E06811F0040F02D0C5
:10491000002800F02381316821F01901084330603C
:10492000FEF7C8FC0546306810F0040F06D1FEF70C
:10493000C1FC411B03200229F5D9FBE1FEF7B4FCC1
:10494000216941F2030290421AD80803402908BFA6
:104950004FF40030716821F47C31084315E021F0F8
:1049600001003060FEF7A6FC0546306810F0040F29
:104970000CD0FEF79FFC411B03200229F5D9D9E199
:10498000706820F0FE4040EA016070602078C00648
:1049900044D53169B06A01F0380108291BD01829C3
:1049A00004BF00F00300012815D0E1693068002938
:1049B00000F01C8140F080003060FEF77BFC054673
:1049C000306810F4807F0ED1FEF774FC411B032089
:1049D0000229F5D9AEE1306810F4807F1CBFE06990
:1049E000802840F0BB80FEF75FFC216A41F20302A1
:1049F00090420BD88A062029304608BF4FF08042EB
:104A000050F8041F21F0F841114306E0304650F8F9
:104A10000C2F22F07C5242EA0161016020780007ED
:104A200023D56169706F79B140F001007067FEF7BE
:104A300041FC0546706F10F0020F16D1FEF73AFCEC
:104A4000401B0228F6D9A0E020F001007067FEF7B5
:104A500031FC0546706F10F0020F06D0FEF72AFCFD
:104A6000411B03200229F5D964E12078800623D573
:104A7000A169306879B140F480503060FEF71AFCCB
:104A80000546306810F4005F16D1FEF713FC401B9A
:104A90000228F6D979E020F480503060FEF70AFC55
:104AA0000546306810F4005F06D0FEF703FC411B9A
:104AB00003200229F5D93DE12078400752D4676AE6
:104AC000002F00F01E81306900F0380018286DD1E9
:104AD000B16A306B012F41D0A26A01F00303934207
:104AE0003CD1E26AC1F30511914237D1226B0146F4
:104AF0006FF35F21013A914230D1C0F34621626BDE
:104B0000013A91422AD1C0F30641A26B013A914287
:104B100024D1C0F30660E16B013988421ED1706B6D
:104B2000A16CC0F3CC00814200F0EB80F06A20F071
:104B30000100F062FEF7BEFB0546FEF7BBFBA84294
:104B4000FBD0706B4FF6F8718843A16C40EAC1004E
:104B50007063F06A40F00100F062D2E00120E9E009
:104B600000440258D6F8000440F48070C6F80004EF
:104B7000FEF7A0FB0546D6F8000410F4807F06D1AE
:104B8000FEF798FB401B6428F5D90320D2E0A0680B
:104B9000F0B3012806D0316F052840F0B48041F011
:104BA00004003067306F40F00100B2E0306820F060
:104BB00080703060FEF77EFB0546022F0AD1306818
:104BC00010F0007F3DD0FEF775FB411B032002294A
:104BD000F5D9AFE0306810F0007F00F09280FEF76A
:104BE00069FB411B03200229F4D9A3E020F08000D7
:104BF0003060FEF75FFB0546306810F4807F3FF4BD
:104C00000DAFFEF757FB411B03200229F4D991E0B9
:104C1000306F20F001003067306F20F00400306703
:104C2000FEF748FB054641F28837306F10F0020F5F
:104C30003FF445AFFEF73EFB411B0320B942F4D9D8
:104C400078E0B06A40F2F33104F130034FF47E476C
:104C50008843D4E90A12084340EA0210B0620FCB3D
:104C600007EB412100F2FF1089B26FF35F20084388
:104C70004FF4FE0101EB024101F4FE0108434FF045
:104C8000FE4101EB036101F0FE4108434FF6F8716C
:104C90003063F06A20F00100F062706B8843A16C11
:104CA00040EAC1007063F06A216C20F00C000843F8
:104CB000F062F06A616C20F002000843F062F06A72
:104CC00040F48030F062F06A40F40030F062F06A44
:104CD00040F48020F062F06A40F00100F062306839
:104CE00040F080703060FEF7E5FA0446306810F05E
:104CF000007F06D1FEF7DEFA011B03200229F5D959
:104D000018E0002016E021F001003067306F20F03D
:104D100004003067FEF7CEFA054641F28837306F5F
:104D200010F0020F7FF4CBAEFEF7C4FA411B032054
:104D3000B942F4D9C0B201B0F0BD00000648016824
:104D400021F001010160704703490A6822F0020264
:104D500010430860704700BF003C0058411E00200F
:104D6000B0EB116F1CBF01207047044AF023516063
:104D700003490B70072190601160704710E000E05C
:104D800023ED00E0704770477047000090F83C202A
:104D9000012A01D102213BE070B5012280F83C20BC
:104DA000D1E900C3D1E902E21A4C234022F47C523B
:104DB0002EF4705422431A432CF477231A430B69C0
:104DC00023F476231A434B691A438B6A22F4742224
:104DD00023F470231A438B6942EA03430268324D7D
:104DE00042F48064AC420DD1D1E90754496A0A4EBD
:104DF00023F07C7306EA0151194325F0007319432F
:104E000041EA04030021536480F83C10BDE870407F
:104E1000C8B27047FF87F0FF0000F0FC90F83C300C
:104E20000222012B3DD010B5012380F83C3080F8E0
:104E30003D2002685368D2F808C0E54C42F4806E09
:104E4000A64502BF4C6823F470032343B2F1804FA0
:104E50000C6823F0700343EA04035360BDE810407C
:104E600014D0D54B9A421CBFD44B9A420ED0D44B8F
:104E70009A421CBFD34B9A4208D0D34B9A421CBFD4
:104E8000D24B9A4202D0D24B9A4204D189682CF07C
:104E90008003194391600121002280F83D1080F8C1
:104EA0003C20D0B2704700BF0004014090F83C2085
:104EB000012A01D1022108E00268136E23F4703345
:104EC00019431166002180F83C10C8B2704710B534
:104ED000044654B394F83D0028B9002084F83C00FF
:104EE000204600F025F80220211D84F83D002068AE
:104EF00002F02EF9012084F8480084F83E0084F87E
:104F00003F0084F8400084F8410084F8420084F8AF
:104F1000430084F8440084F8450084F8460084F88F
:104F2000470084F83D00002010BD012010BD0000A6
:104F30002DE9FC47044620687D4E7E4FB0F1804F3E
:104F40006CD09D49884200F0AE809C49884200F0B8
:104F5000BD809B49884200F0C4809A49884200F095
:104F6000D3809949884218BFBDE8FC87B868744D62
:104F70004FF480684FF400694FF4005A40F001008C
:104F8000B860B868002700F00100019001980C207B
:104F9000C5E9006005F11000C5E9027780E8000767
:104FA0002846C5E907776F62FDF7ECFC08B1FCF70E
:104FB00087F8A562AC63634D06F130000E2185E8E9
:104FC000830005F10C0080E880072846C5E90777D3
:104FD0006F62FDF7D7FC08B1FCF772F82563AC638C
:104FE000594D06F118000D2100224FF480634FF453
:104FF00000674FF4005685E8070005F10C008CC0EF
:10500000C5E90662C5E908222846FDF7BBFC08B1E0
:10501000FCF756F8E562AC63BDE8FC87464D5021CD
:1050200005F12800FBF78CF9386812214FF48068ED
:105030004FF400624FF4005340F0010038603868CC
:10504000002700F001000190019806F5747085E8D2
:10505000830005F11400C5E903788CC0C5E9087721
:105060002846FDF78FFC08B1FCF72AF86562AC63AF
:10507000324D06F5866016214FF480524FF480437E
:1050800085E8830005F11400C5E903788CC0C5E903
:1050900008772846FDF776FC08B1FCF711F8256281
:1050A000AC63BDE8FC8738680221012240F00200B1
:1050B0003860386800F00200019001981D20FEF76A
:1050C0007FF91D20BDE8FC47FEF76CB9386840F059
:1050D00004003860386800F0040001900198BDE8D1
:1050E000FC8738680221002240F0080038603868E8
:1050F00000F00800019001983220FEF761F932209B
:10510000BDE8FC47FEF74EB938680021002240F0A8
:1051100040003860386800F04000019001982B2072
:10512000FEF74EF92B20BDE8FC47FEF73BB900BF68
:1051300040000240E8440258C00500244006002414
:10514000C0020024400400244005002490F83D10D3
:1051500001291CBF01207047022180F83D10016821
:10516000C868B1F1804F40F00100C86014D0124807
:1051700081421CBFD94881420ED0114881421CBFD8
:105180001048814208D0D64881421CBF0F48814256
:1051900002D00F48814208D188680E4A02400020A0
:1051A000062A18BFB2F5803F04D0086840F001001D
:1051B00008600020704700BF000400400008004065
:1051C000000C004000180040000001400040014079
:1051D0000004014007000100B0B50446022094F825
:1051E0003C20012A4BD0012284F83C2084F83D0069
:1051F000206882683C4B1A4082600A683B4D8AB343
:10520000102A2FD0202A18BF302A2BD0402A3AD07B
:10521000502A43D0602A4CD0354B9A4222D0B2F566
:10522000805F25D0B2F5005F4ED0B2F5801F18BF69
:10523000B2F1101F16D02F4B9A421CBF2E4B9A4230
:1052400010D0702A1DD1D1E90123C9681A4342EA5E
:105250000121826822F47F4211438160816841F01C
:10526000770104E081682940114341F00701816022
:105270000020012184F83D10002184F83C10C0B2C8
:10528000B0BD0120F5E74B68CA68194602F038F94D
:1052900020688168294041F04701E8E74B68CA6807
:1052A000194602F02DF920688168294041F0570124
:1052B000DDE74B68CA68194602F033F92068816857
:1052C000294041F06701D2E7D1E90123C9681A43B7
:1052D00042EA0121826822F47F42114381608168A1
:1052E00041F48041C3E700BF8800CEFF88FFCFFFB5
:1052F0004000100020001000300010007047000037
:10530000F8B504462068C768066907EA0605A907D4
:1053100014D56FF00201016101212177806910F03D
:10532000030F03D02046FFF7E9FF05E0204600F019
:10533000D9F8204600F067F900202077680715D5D6
:1053400020686FF00401016102212177806910F467
:10535000407F03D02046FFF7D1FF05E0204600F054
:10536000C1F8204600F04FF900202077280715D516
:1053700020686FF00801016104212177C06910F0F5
:10538000030F03D02046FFF7B9FF05E0204600F0E9
:10539000A9F8204600F037F900202077E80615D557
:1053A00020686FF01001016108212177C06910F4B5
:1053B000407F03D02046FFF7A1FF05E0204600F024
:1053C00091F8204600F01FF900202077E80706D06A
:1053D00020686FF001010161204600F01BFA17F010
:1053E000800718BF16F4025005D0206811490161EA
:1053F0002046FFF7C8FC47B116F4807005D020683E
:105400000D4901612046FFF7BDFC680606D52068FE
:105410006FF040010161204600F044FAA80658BF31
:10542000F8BD20686FF0200101612046BDE8F8401A
:10543000FFF7AABC7FDFFFFFFFFEFFFF10B586B0BE
:10544000044601A81421FAF77BFF2268214822496B
:10545000B2F1804F13D0B54B9A4222D0E84B9A421A
:1054600036D10A6800F5805042F010020A600968DF
:1054700001F01001009100994FF4006109E00A6801
:1054800042F001020A60096801F0010100910099EF
:1054900003210191022102910021CDE90311012193
:1054A00012E00A6800F5806042F002020A60002201
:1054B000096801F00201009100994FF48071019197
:1054C00002210291CDE90322059101A9FDF71AFEFF
:1054D00006B010BD00000258E04402580008004029
:1054E0000000014070470000B0B504460D4694F836
:1054F0003C00012801D1022052E04FEAB201012014
:10550000052984F83C0048D8DFE801F0030B131BA1
:1055100023332068294601F07DFE206850F8181FCB
:105520001EE02068294601F0BDFE206850F8181FD3
:1055300026E02068294601F0F7FE206850F81C1F7D
:105540000EE02068294601F033FF206850F81C1F48
:1055500016E02068294601F05FFF206850F8541FCC
:1055600041F008010160016821F00401016029692E
:105570000FE02068294601F085FF206850F8541F8D
:1055800041F400610160016821F4806101602969D2
:1055900009020268114301600020002184F83C10D8
:1055A000C0B2B0BD10B5044654B394F83D0028B95C
:1055B000002084F83C00204600F024F80220211D41
:1055C00084F83D00206801F0C3FD012084F8480004
:1055D00084F83E0084F83F0084F8400084F84100DD
:1055E00084F8420084F8430084F8440084F84500BD
:1055F00084F8460084F8470084F83D00002010BD80
:10560000012010BD7047704771B180B50B1F4FF07E
:10561000010C05224FEAB30EBEF1040F38BF0CEBAC
:10562000B302BDE8804000E00022024492F83E2030
:10563000012A1CBF0120704761B10A1F4FEAB20264
:10564000032A0BD8DFE802F0020E1216022280F8BD
:105650003F2012E0022280F83E200EE0022280F875
:1056600043200AE0022280F8402006E0022280F86F
:10567000412002E0022280F8422001F01F010122B5
:105680008A400168086AB1F1804F20EA020008628E
:10569000086A40EA0200086236D0234881421CBFF3
:1056A0002248814230D0224881421CBF2148814299
:1056B0002AD0534881421CBF5248814208D05248E8
:1056C00081421CBF5148814202D05148814224D1BD
:1056D000486CB1F1804F40F40040486414D0124847
:1056E00081421CBF114881420ED0114881421CBF2B
:1056F0001048814208D0424881421CBF4248814242
:1057000002D04048814208D188680B4A02400020FC
:10571000062A18BFB2F5803F04D0086840F00100A7
:1057200008600020704700BF0004004000080040EF
:10573000000C0040001800400700010001F01F02AB
:10574000012303FA02FC0268136A23EA0C031362C2
:10575000136A13622A4B9A421CBF2A4B9A4208D002
:10576000294B9A421CBF294B9A4202D0284B9A429D
:1057700011D1D2F820C041F211131CEA030F0AD153
:10578000D2F820C040F244431CEA030F02BF536C1E
:1057900023F400435364D2F820C041F211131CEAF1
:1057A000030F0AD1D2F820C040F244431CEA030F91
:1057B00002BF136823F0010313604FEAB10104290B
:1057C00008D8DFE801F0030B0F131700012180F860
:1057D0003E1012E0012180F843100EE0012180F814
:1057E0003F100AE0012180F8401006E0012180F816
:1057F000411002E0012180F842100020704700BFF4
:105800000000014000040140004001400048014008
:1058100000440140B0B51F49044620680968884229
:105820002AD11D4DA86C0130A864E96C013178299A
:10583000E96409D104F0C6FE0020E864A86C64287D
:1058400004BF5020A8640CE064280AD10020A8649A
:10585000686C012802BF11480088002801D103F0BC
:1058600003FAFBF711F8B5F91C0006F0E5F9B5F9F4
:105870001E0006F011FA206809490968884218BF1D
:10588000B0BD00F091FC03F02FFC03480021017330
:10589000C173B0BD987B02241000002434020024A0
:1058A000307C0224704790F88410012901D1022134
:1058B00012E02421C0F8881002681368116821F0F2
:1058C000010123F000531160002141661360202282
:1058D000C0F8882080F88410C8B2704770477047BD
:1058E000B0B5044694F88400012801D102201BE0E1
:1058F000012084F884002420C4F88800206805680A
:10590000026822F001020260826822F060621143A4
:105910008160204601F018FE206805602020C4F850
:105920008800002084F88400C0B2B0BDB0B5044641
:1059300094F88400012801D102201BE0012084F8A2
:1059400084002420C4F8880020680568026822F0DA
:1059500001020260826822F06042114381602046A9
:1059600001F0F2FD206805602020C4F888000020C6
:1059700084F88400C0B2B0BD704770477047000023
:10598000B0B5044640F62F012068C26902EA01035F
:105990000168D0F808E0202B0DD101F020030EF0B3
:1059A00080552B4307D0616F002900F0AA81204663
:1059B000BDE8B040084740F60F0313401FBFD14B6E
:1059C0000B40D14D0EEA050C18BF53EA0C0344D02E
:1059D000D3070BD011F480731FBF01230362D4F8E7
:1059E000903043F0010318BFC4F890300EF0010569
:1059F000930708D53DB102230362D4F8903043F0F9
:105A00000403C4F89030530708D53DB10423036262
:105A1000D4F8903043F00203C4F8903013070DD54A
:105A200001F0200353EA0C031FBF08230362D4F8DC
:105A3000903043F0080318BFC4F8903013054ED5DA
:105A400011F080634BD04FF400632546036255F894
:105A5000903F43F020032B6043E002EA0105EB0690
:105A6000E36E7CD5012B7AD110210162816811F09F
:105A7000400F40F08680B4F85C10B4F85E20B4F8B3
:105A80005E30002B00F03D81891A89B209B938E1F6
:105A9000206850E8000F226820F4907042E800036C
:105AA000002BF5D1206850E8020FA84A1040226868
:105AB00042E80203002BF5D12020C4F88C0000201E
:105AC000E0666067206850E8000F226820F0100050
:105AD00042E80003002BF5D102202067E2E004F148
