:020000040802F0
:10000000581301206D03020885850208F97602085D
:10001000818502083D1C020853A30208000000006D
:10002000000000000000000000000000219B02080A
:10003000112202080000000043880208239B0208E6
:100040008703020887030208870302088703020860
:1000500087030208870302081322020887030208A5
:100060008703020887030208870302088703020840
:100070008703020887030208870302088703020830
:100080008703020887030208870302088703020820
:100090008703020887030208870302088703020810
:1000A0008703020887030208870302088703020800
:1000B0008703020887030208199D020887030208C4
:1000C00087030208870302088703020887030208E0
:1000D00087030208870302088703020887030208D0
:1000E0001D2202088703020800000000870302089F
:1000F000659D02084D9D02088703020887030208D8
:10010000870302088703020887030208870302089F
:10011000870302088703020887030208359D020847
:10012000B51C020887030208870302088703020838
:10013000870302088703020887030208870302086F
:1001400000000000000000000000000000000000AF
:10015000870302088703020887030208870302084F
:10016000870302088703020887030208870302083F
:10017000870302088703020887030208870302082F
:10018000870302088703020887030208870302081F
:10019000870302088703020887030208870302080F
:1001A0009D79020887030208870302088703020873
:1001B00087030208870302088703020887030208EF
:1001C00087030208870302088703020887030208DF
:1001D0008703020841880208870302088703020890
:1001E00087030208870302088703020887030208BF
:1001F00087030208870302088703020887030208AF
:10020000870302088703020887030208870302089E
:1002100087030208E99C0208019D0208870302087F
:100220008703020887030208870302080000000012
:100230008703020887030208000000008703020802
:10024000870302088703020887030208870302085E
:10025000870302088703020887030208870302084E
:10026000870302088703020887030208870302083E
:1002700087030208870302088703020800000000C2
:1002800087030208870302088703020800000000B2
:1002900000000000870302084B1C012B98BF704729
:1002A0002DE9F003911C9B08B1F80480B1F802908D
:1002B0000A8831F802CC8044814402448444D9F84D
:1002C0000070D8F800601568DCF80040C9F80060DC
:1002D000C8F80070CCF800501460D9F80470D8F851
:1002E00004605568DCF80440C9F80460C8F804707C
:1002F000CCF80450546008315B1ED5D1BDE8F00342
:1003000070474B1C012B98BF70472DE9F003911CDF
:100310009B08B1F80480B1F802900A8831F802CC49
:1003200000EB580800EB590900EB520200EB5C0CA3
:10033000D9F80070D8F800601568DCF80040C9F8FA
:100340000060C8F80070CCF80050146008315B1EE3
:10035000DFD1BDE8F0037047DFF80CD001F04CFBB3
:100360000048004729170308581301200648804712
:1003700006480047FEE7FEE7FEE7FEE7FEE7FEE78A
:10038000FEE7FEE7FEE7FEE7419C0208590302088C
:100390009FED3E0A5FEA920C59D000BFD0ED000AF3
:1003A00090ED011A0B1D60EEA00A083041EE010A23
:1003B000F5EEC00AF1EE10FAA6BFB1EEE01A81ED3B
:1003C000001A81ED000AD0ED000A90ED011A00F14B
:1003D000080160EEA00A181D41EE010AF5EEC00A00
:1003E000F1EE10FAA6BFB1EEE01A83ED001A83ED2C
:1003F000000AD1ED000A91ED011A031D60EEA00A7A
:10040000083141EE010AF5EEC00AF1EE10FAA6BF7E
:10041000B1EEE01A80ED001A80ED000AD1ED000A7D
:1004200091ED011A081D60EEA00A191D001D41EE94
:10043000010AF5EEC00AF1EE10FAA6BFB1EEE01A1D
:1004400083ED001A83ED000ABCF1010CA6D112F075
:10045000030208BF704700BFD0ED000A90ED011AFB
:1004600008300B4660EEA00A091D41EE010AF5EEC8
:10047000C00AF1EE10FAA6BFB1EEE01A83ED001A41
:1004800083ED000A521EE7D1704700000000000013
:1004900091ED001AD1ED010AB6EE000A31EE011A13
:1004A00070EEA00A0388D0F814C001F108005B1EAA
:1004B00071EE201A71EE600A01EBC3010CF1080C19
:1004C00021EE801A60EE800A82ED001AC2ED010A68
:1004D000083200BFD1ED002A90ED003A9CED001AE1
:1004E000D1ED010A72EEC33AD0ED011A9CED012A5A
:1004F00033EE223A30EEA14A61EE234A62EE232A1D
:1005000071EEE00A22EE042A73EE241A21EE041A98
:1005100070EEA20A083071EE821A083970EEC10A34
:100520005B1E21EE801A0CF1080C60EE800AA2EC32
:10053000011AE2EC010ACDD17047D1ED000A91ED2C
:10054000011AB6EE000A038870EE811A70EEC10A35
:10055000D0F814C05B1E01F1080021EE801A60EE95
:10056000800A01EBC30182ED001AC2ED010A02F11B
:1005700008020CF1080C08BF704700BFD1ED002A3B
:1005800090ED003ADCED003AD1ED010A73EE621A0B
:1005900090ED011A9CED014A73EE222A31EE202AD9
:1005A00023EEA15A71EE600A64EE211A64EE024A4B
:1005B00032EEC51A23EE822A70EEA10A083031EE1F
:1005C000641A083970EEC20A5B1E21EE001A0CF1A3
:1005D000080C60EE800AA2EC011AE2EC010ACDD10F
:1005E00070472DE9F0410446008A1D0016460F466B
:1005F0004FEA500020800AD02046FFF79EFF2A468F
:1006000031462046BDE8F041012300F07FBC0123C4
:100610002A46204600F07AFC324639462046BDE89C
:10062000F04135E70022018249080180B1F5807F61
:1006300031D008DC10294FD0202945D040293BD0AB
:10064000802931D008E0B1F5007F1BD0B1F5806F73
:100650000FD0B1F5006F03D04FF0FF321046704756
:100660004FF46E638381214B8360214B21494360AA
:1006700039E04FF4E16383811F4B83601F4B2049B6
:10068000436030E04FF4E07383811E4B83601E4B68
:100690001E49436027E04FF4DC7383811C4B836069
:1006A0001C4B1D4943601EE0D02383811B4B83609C
:1006B0001B4B1C49436016E0382383811A4B83602F
:1006C0001A4B1B4943600EE030238381194B836032
:1006D000194B1A49436006E014238381184B836049
:1006E000184B194943604161B8E700001C9F04089A
:1006F000844704085CFC04080C910408842704085F
:100700005CDC04088C8D0408841704085CCC0408A5
:100710001C8A0408840F04085CC404087C8804084C
:10072000840B04085CC004080C88040884090408CD
:100730005CBE0408AC870408840804085CBD040897
:100740008487040804080408DCBC0408F0B44F1EC5
:10075000002490ED000ABE08254600F1040C2ED0BE
:10076000DCED000A9CED011A0CF10800B4EEE00A81
:10077000F1EE10FA3CBF651CB0EE600AB4EEC10A9F
:10078000F1EE10FA3CBFA51CB0EE410AD0ED000A14
:1007900090ED011A00F1080CB4EEE00AF1EE10FA47
:1007A0003CBFE51CB0EE600AB4EEC10AF1EE10FAEF
:1007B0003CBF251DB0EE410A241D761ED0D117F096
:1007C000030018D0B0F1004F044619D20028C8BF6A
:1007D000002610DDDCED000AF4EEC00AF1EE10FA9E
:1007E00003DD8D192D1AB0EE600A641E06F10106B4
:1007F0000CF1040CEED182ED000A1D60F0BC7047D4
:10080000FCEC010AB4EEE00AF1EE10FA3CBF0D1A5E
:10081000B0EE600A401EF3D1EDE700009FED3A1AFA
:100820008B084DF8044DB0EE410A1DD0B3F1004FD6
:100830004DD2002BC4BF84461C4615DDDCED002ADA
:100840009CED012ADCED021A02EEA20ADCED030A9D
:10085000641E0CF1100C02EE020A01EEA10A00EE79
:10086000A00AEBD100EB031011F003031BD0B3F18E
:10087000004F42D2002B16DD13F0010FA0F104004F
:1008800004D0D0ED010A001D00EEA00A5B080AD0DA
:10089000D0ED011AD0ED020A083001EEA10A5B1E6C
:1008A00000EEA00AF4D100EE901AF8EE601AC0EE45
:1008B000210AF5EEC00AF1EE10FAA6BFB1EEE00A89
:1008C00082ED000A82ED001A5DF8044B7047D0ED0E
:1008D000000A00EEA00AD0ED010A08305B1E00EE0F
:1008E000A00AD0ED000A00EEA00AD0ED010A00F146
:1008F000080000EEA00AEAD1B6E7F0EC010A5B1EA0
:1009000000EEA00AF9D1CEE7000000002DE9F04783
:10091000064688462DED088B0088D6F804C04508A9
:1009200001EB8004AB08274601EB850004EB850250
:100930007ED000BF91ED001AD4ED001AD1ED013A3E
:10094000D4ED01BAD1ED025A94ED022A91ED030AD9
:10095000D4ED032AD0ED034AD2ED030A71EE217AD9
:10096000D0ED006A90ED013A90ED025A92ED007AD6
:1009700092ED016A92ED024A33EEAB8A75EE828AFD
:1009800030EE229AC1ED007A76EE879A81ED018AE7
:1009900033EE06AAC1ED028A75EE04AA81ED039A30
:1009A00034EEA0BAC0ED009A80ED01AAC0ED02AA13
:1009B00070EE622A80ED03BA71EE611A9CED000AB6
:1009C00073EEEB3A70EEE44ADCED010A34EE454A90
:1009D00035EEC22A21EE805A63EE805A63EEA03AC9
:1009E00037EE661A36EE433A61EEA01A35EE236A08
:1009F00061EE203A23EE005A63EE200A21EE000A4F
:100A000075EEE11A84ED006A33EEC51AC4ED011AE1
:100A100030EE800A82ED001A0CF1080A82ED010A1C
:100A20005B1E9AED000A04F1080402F1080900E0D7
:100A30002DE0DAED010A22EE001A62EE801A62EE73
:100A4000A02A22EE202A0AF1080C00F1100031EE53
:100A5000223A24EE201A64EE802A64EEA00A24EEE4
:100A6000000A71EEC21A84ED003A31EE621AC4ED4A
:100A7000011A30EE800A89ED001A04F1080489EDAC
:100A8000010A01F1100109F108027FF453AF726805
:100A900002232946404600F0E1FA726829463846AA
:100AA0000223BDEC088BBDE8F04700F0D7BA2DE972
:100AB000F34F04244FF0060B2DED0A8B87B01198ED
:100AC000DDF844C0D1ED003A0088DCF804C04608E7
:100AD0000CF1080901EB860202EB8600D2ED000A58
:100AE00090ED002A00EB86031D1F93ED000A019490
:100AF00005EB860473EE821A0492760805910CF1D8
:100B00001008D1ED014A30EEA11A90ED014A93EDA3
:100B1000013A33EEC22A71EE002A92ED011A74EE08
:100B2000C43AC1ED002A74EE842A009601F1040152
:100B300092ED015A71EE024A31EEE06A72EEC11A8C
:100B400032EE412A35EE225A93ED014A74EEC32A61
:100B500071EEC31A32EE032A73EEE05A35EE043A10
:100B60000CF1180703900293A6F1020C70EEA33A61
:100B700081ED003A161F35EE801AC2ED002A02F10F
:100B8000040E76EE400A8EED001A01F10402C0ED6B
:100B9000000A00F104015FEA5C0AA0F1040CC1ED57
:100BA000001A0EF1040033EEC00A83ED002A03F1AF
:100BB000040E01F104038EED000A0EF1040100F0B1
:100BC000078100BFD2ED007AD3ED006AD0ED002A94
:100BD00091ED002A37EEA61AD2ED010A90ED016AD6
:100BE000D1ED015A32EE810A31EE629A77EEE66A71
:100BF00070EE021A93ED010A76EE267AC2ED001A23
:100C000030EE805AD0ED011A91ED013A71EE851A5D
:100C100075EE469A71EE831AC2ED011AD6ED003ACE
:100C2000D5ED004ADCED001A94ED001A33EEA47AFB
:100C300016ED01AA55ED018A14ED014A31EE873A0D
:100C40003AEE285A33EE018A1CED013A86ED008A0D
:100C50005CED01AA37EEE58A7AEE857A54ED01AAB9
:100C600077EEAABA70EEC07A71EEC1AA46ED01BA6B
:100C7000D9ED010A37EEE20A72EEA77A7AEE682A17
:100C800030EE02BA99ED000A7AEEA28A68EE00BA56
:100C90002BEE20CA2BEE00BA28EE208A28EE80AA7E
:100CA0007BEE8CBA3BEE488AC0ED00BA80ED018A3B
:100CB00033EEE48A38EE438A38EE048A28EE20BA0E
:100CC00068EEA00A28EE000A39EE428A3BEE4AAAF4
:100CD00079EEE58A30EE800A8CED00AA0CED010A6F
:100CE00037EE610A30EE417A98ED000A28EE009A5C
:100CF000D8ED010A35EE435AB1EE47AA68EEA09A44
:100D000068EE808A28EE208A35EE445A79EE299AD8
:100D10002AEE009A38EEC88AC3ED009A25EE000A42
:100D200083ED018A25EE208A67EE200A37EEC22A7B
:100D300034EE433A39EE488A30EEC00A31EEC11A39
:100D400085ED008A05ED010A36EEC60AD7ED010AE7
:100D500031EE621A083030EE255A97ED000A22EE85
:100D6000206A083265EE005A22EE002A25EE205A4B
:100D700061EE001A75EE865A083332EE452AC1ED4F
:100D8000005A083D81ED012A33EEE42A0831083E7D
:100D900009F1080933EE422AACF1080C07EB8B0786
:100DA00022EE203A61EE200A22EE000A73EE611A6A
:100DB00030EE800AC4ED001A04ED010ADDF804E00B
:100DC000083CBAF1010A08EB8E087FF4FBAE00BFC5
:100DD00092ED001A93ED000A92ED013A71EE000ACD
:100DE00071EE402A90ED000A30EE201A70EEC01A23
:100DF000D1ED000A71EE203A31EEE01AD3ED011A7E
:100E000033EE212A73EE611A31EEC03A30EE210A38
:100E100073EE201A30EE603A90ED010A70EE220A6D
:100E200032EEC04AD1ED012AC2ED003AD0ED013ACE
:100E300032EE400A70EEE20A33EE822AD1ED013A38
:100E400030EE620A74EE222A32EE232A82ED012A63
:100E500099ED002AD9ED013A20EE824A60EEA30A0C
:100E600061EEA33A61EE821A34EE232A71EEE00AB3
:100E700080ED002AC0ED010AD8ED010AD8ED001A74
:100E800020EE202A61EE213A20EE210A61EE200AAE
:100E900033EE821A30EE600A83ED001A83ED010A08
:100EA00097ED000AD7ED010A042362EE801A23EEC3
:100EB000201A23EE000A62EEA00A31EE811A30EE0B
:100EC000600A81ED001A81ED010A119800994268CB
:100ED000059800F0C3F8119804230099426804981B
:100EE00000F0BCF81198042300994268039800F0C0
:100EF000B5F81198042300994268029807B0BDEC38
:100F00000A8B02B0BDE8F04F00F0A8B82DE9F0411F
:100F10000488012A984617460D46064621D1281D09
:100F2000FCB114F0010FA0F1080106D091ED020A06
:100F3000B1EE400A81ED020A08315FEA540C10D08C
:100F400091ED020AD1ED040ABCF1010CB1EE400AA8
:100F5000F1EE600A81ED020AC1ED040A01F110010F
:100F6000EED1B4F5807F1BD008DC102C13D0202CE0
:100F700016D0402C19D0802C0DD01CE0B4F5007F89
:100F800013D0B4F5806F06D0B4F5006F08D0B4F577
:100F9000805F0AD00FE029463046FFF7B7FC0AE031
:100FA00029463046FFF783FD05E07268012321469C
:100FB000284600F053F8B8F1000F04D0B189284654
:100FC000B268FFF769F9012F18BFBDE8F08100EEA4
:100FD000104AF7EE000A002CB8EE401A80EE810AA3
:100FE00008BFBDE8F08114F0010FA5F108000ED094
:100FF000D0ED030A90ED021AF1EE600A21EE001A1C
:1010000060EE800A80ED021AC0ED030A0830610824
:1010100008BFBDE8F08100BF90ED031AD0ED021AC1
:10102000D0ED050A90ED042AB1EE411A61EE801A66
:10103000F1EE600A22EE002A21EE001A60EE800A2C
:10104000C0ED021A80ED042A80ED031AC0ED050AF6
:10105000491E00F11000DFD1BDE8F0812DE9FF4FFE
:101060002DED108B82B09FEDFE0A0B464FF0000C69
:101070009E46DB080CEB0304E51800EBC408EC18F3
:1010800004EB030600EBC50906EB030500EBCC07F8
:1010900000EBC60605EB030AD6ED000AD7ED002AE1
:1010A0000AEB030B00EBC50532EEA01A00EBCA0AEF
:1010B00072EEE00A95ED002ADAED004AD8ED002A3A
:1010C00099ED005A00EBCB0B00EBC404DBED001AEA
:1010D00094ED003A32EE824A75EE243A72EEC22A5C
:1010E00033EE212A33EE613A71EE631A71EE233A40
:1010F00034EE421A34EE022A32EEC38A72EE832AAA
:1011000035EE645A33EE823A33EEC22A62EE806ADA
:1011100087ED003A86ED002AD8ED017A95ED014A77
:1011200097ED017A96ED013AD9ED013A9AED012A4F
:10113000D4ED018ADBED014A77EE845A37EEC44ADA
:1011400037EE036A78EEA42A73EE827A73EEC23A1F
:1011500035EE662A37EE433A75EE266A36EE677A42
:1011600036EE275A78EEE44A35EEE26A75EEA25A78
:10117000F44474EE648A74EE242A75EE257A35EE12
:10118000655A71EE865A62EE802A28EE004A68EEB1
:10119000804A31EEC66A8C4537EE418A37EE017AD5
:1011A00030EEC41A70EE841A73EE640A33EE244AE9
:1011B00033EEE23A73EEA22AC7ED017A86ED015AC8
:1011C000C9ED005A71EEA23A71EEE21A8AED006A98
:1011D00089ED018A71EE032A8AED017A31EE431A14
:1011E000C8ED003A34EE663ACBED001A34EE264AEA
:1011F000C5ED002A70EEC24A84ED001A70EE820A34
:1012000088ED013A8BED014AC5ED014AC4ED010AB2
:10121000FFF430AF082B3FBF02B0BDEC108B04B021
:10122000BDE8F08F4FF0000CCDF804C04FF0010C7A
:10123000CDF800C0DDF804C0159C64440194DDF8CD
:1012400000C065002E1902EBC40702EBC508351972
:1012500097ED00FA97ED019A98ED00CAD8ED018A52
:1012600002EBC60702EBC5082E1935192C4402EB18
:10127000C60602EBC50502EBC404D7ED00BA97ED34
:10128000018A98ED00BAD8ED017AD6ED00AA96ED64
:10129000017A95ED00AAD5ED016AD4ED009A94ED9E
:1012A000016A00BF0CEB0304E51800EBC409EC185D
:1012B00004EB030808EB030700EBCC0A00EBC506C0
:1012C00000EBC80807EB030598ED001ADAED000AF9
:1012D00000EBC70705EB030B30EE814A30EEC11A75
:1012E000D7ED002AD9ED000A00EBCB0B00EBC505CA
:1012F00030EEA23A00EBC40470EEE20A9BED002A45
:10130000D5ED001AD6ED002A94ED005AF44472EEA1
:10131000A14A75EE023A35EE422A72EEE11A74EEF7
:10132000642A33EE635A34EE244A33EE233A70EEE5
:10133000823A70EEC2EA8C4534EE032A74EE430A18
:1013400023EE804A8AED002A9AED013A98ED012AAF
:101350006BEE20FA27EEA0DA73EE020A33EE423A81
:1013600031EEC42A71EE841AD9ED013A97ED014AA3
:10137000D6ED015AD4ED01DA73EE84CA73EEC43AA5
:1013800095ED014A75EE844A35EEC44A30EEE4EA42
:1013900070EEA45ADBED014A7DEEA40A7DEEE44A2C
:1013A0007CEEE0DA7CEEA0CA72EEAD0A72EEED2AB7
:1013B00075EEACDA75EEEC5ACAED01DA67EEA5DA35
:1013C0006BEE25CA7EEE455A3EEE055A7FEEADDA4B
:1013D0007CEECDCA28EEA5EAC8ED00DA6CEE20DA84
:1013E000C8ED01CA6CEE255A68EEA00A73EEE4CA95
:1013F00073EEA43A7DEE8EDA75EEE04A6CEE80CAAA
:101400002AEE22EA66EEA25A63EE803AC6ED00DAD0
:1014100073EE6C2A2EEE80DA33EE2C3AC6ED014ADA
:1014200066EE85FA74EE634A74EE233A2AEE055AA4
:1014300071EE4D0A33EE614A31EE0D1A3EEE2FEA9F
:1014400073EE211A32EEC23A75EE655A72EE822AB6
:1014500085ED00EA31EE232A29EE045A02E000006D
:10146000F304353F31EE631A70EEA43A70EEE40AED
:101470006FEE024AC5ED015A66EE215A2FEE044A7C
:1014800034EE855A69EE814A29EE022A69EEA11AE4
:1014900026EE011A74EEA55A34EE422A67EE034A8C
:1014A00071EEC11A2AEE831A27EE233A2AEEA34AD6
:1014B00089ED005A89ED012A6BEEA03A28EE222A26
:1014C00031EE433A2BEEA21A68EE200A34EE244A9B
:1014D000CBED005ACBED011A73EE821A71EE600A61
:1014E00087ED004A87ED013AC4ED001AC4ED010A08
:1014F000FFF4D8AEDDF800C00CF1010CCDF800C04F
:1015000063453FF697AE159C4FF6FF7C072B0CEA20
:10151000C40CCDF854C03FF6A9AD02B0BDEC108BA1
:1015200004B0BDE8F08F2DE9F05F0546002092463B
:101530009B4688460646814640241BE02846414695
:101540004746224600F08FF853465A46C01A91414A
:1015500010D311461846224600F076F82D1A67EB94
:1015600001084F4622460120002100F06DF817EBDC
:1015700000094E41201EA4F10104DFDC484631463B
:101580002A464346BDE8F09F40EA01039B0703D08B
:1015900009E008C9121F08C0042AFAD203E011F8B2
:1015A000013B00F8013B521EF9D27047D2B201E074
:1015B00000F8012B491EFBD270470022F6E710B558
:1015C00013460A4604461946FFF7F0FF204610BDB1
:1015D00030B505462A460B4612F8010B13F8014BAD
:1015E00008B1A042F8D01CB1002802D06D1CF1E770
:1015F000284630BD421C10F8011B0029FBD1801A7F
:10160000704730B504460020034600E05B1C93425F
:1016100003D2E05CCD5C401BF8D030BD30B50B464A
:10162000014600202022012409E021FA02F59D4212
:1016300005D303FA02F5491B04FA02F52844151EE6
:10164000A2F10102F1DC30BD202A04DB203A00FACD
:1016500002F1002070479140C2F1200320FA03F309
:10166000194390407047202A04DB203A21FA02F007
:101670000021704721FA02F3D040C2F120029140CC
:101680000843194670472DE9FE4F804681EA030062
:10169000C00F0C46009021F0004123F00045B8EB4C
:1016A0000200A94105D24046214690461C460B4601
:1016B000024623F00040104347D0270DC7F30A002D
:1016C000C3F30A510290401A019040286BDAC3F329
:1016D000130040F4801B0098924620B10023D2EB07
:1016E000030A63EB0B0B01985946C0F140025046C8
:1016F000FFF7AAFF06460D4650465946019A00F0EC
:101700008DF910EB08006141002487EA115284EA48
:10171000E7731A4340D0009A62B3019A012A4FEA54
:10172000075215DC001B61EB02014FF0004202EA98
:101730000752CDE90042001C41F5801132462B468C
:1017400000F08DF903B0BDE8F08F40462146F9E77F
:10175000001B61EB0201001C41F5801300185B4186
:101760002018A2F5001747EB030140EAD570B6191F
:101770006D4111E06D084FEA360645EAC0754FEA43
:101780000752001B61EB0201001C41F58011490862
:101790004FEA30000019514132462B4603B0BDE8F4
:1017A000F04F00F04DB90098012240000023D0EB2B
:1017B000020263EBE073009821464FEAE074B8EB55
:1017C000000061EB0401E9E783F000435BE781F08F
:1017D000004158E72DE9FE4F81EA030404F000447C
:1017E00021F0004100944FF0000B23F0004350EA39
:1017F00001045ED052EA03045BD0C3F30A54C1F380
:101800000A552C44A4F2F3340194A0FB0254C1F312
:10181000130141F48011C3F3130343F4801301FB5C
:10182000024400FB034E840A970A44EA815447EAC3
:101830008357A4FB076802958D0A05FB07854FEACD
:10184000932C04FB0C542705029D4FEA065847EAE7
:101850001637B5EB08056EEB070C870E920E47EABC
:10186000811742EA8312A7FB0201B6EB0B0164EB7E
:1018700000042B0D43EA0C335E1844EB1C50DA468F
:101880005146E7FB0201C5F313044FEA0B3343EA69
:1018900014534FEA0432019C43EA0603A4F10C04FA
:1018A0000294009CCDE900B400F0D9F803B0BDE883
:1018B000F08F00200146F9E72DE9F04D81EA03049D
:1018C00004F0004B21F0004514464FF0000A23F0CD
:1018D000004150EA050220D054EA01021DD0C5F3B0
:1018E0000A570246C5F31303C1F31300C1F30A56A6
:1018F00040F4801543F48013A7EB0608101BD6466E
:1019000008F2FD3873EB050002D308F1010801E08D
:1019100092185B41B8F1000F03DA00200146BDE8E0
:10192000F08D00204FF48011064684460EE0171B10
:1019300073EB050705D3121B63EB050306434CEA63
:10194000010C49084FEA300092185B4150EA010748
:10195000EDD152EA030012D082EA040083EA0501C5
:10196000084305D0101BAB4106D20122002306E03C
:1019700000224FF0004302E06FF0010253101AEB17
:1019800006004CEB085110EB0A0041EB0B01BDE8DF
:10199000F04D00F055B8C1F30A52C1F3130140F203
:1019A000FF3341F480119A4202DA00200146704769
:1019B00040F233439A42A2F2334202DC5242FFF732
:1019C00052BEFFF741BE000030B5041E71F10004A5
:1019D00004DB4FF00044404264EB0101141E73F13C
:1019E000000405DB1C464FF00043524263EB040346
:1019F000994208BF904230BD064C074D06E0E068B2
:101A000040F0010394E8070098471034AC42F6D345
:101A1000FEF7A6FCDC420508FC420508202A06DB8E
:101A2000CB17203A41FA02F043EAE07306E041FAAC
:101A300002F3D040C2F1200291400843194670479A
:101A400010B5141E73F1000408DA401C41F10001C6
:101A500092185B411A4301D120F0010010BD2DE91D
:101A6000F04D92469B4611B1B1FA81F202E0B0FA14
:101A700080F220329046FFF7E7FD04460F4640EA29
:101A80000A0041EA0B0153465A46084313D0114657
:101A900053EA010019D0C8F140025046FFF7E3FDB8
:101AA00005460E46504659464246FFF7CDFD0843CF
:101AB00005D0012004E020463946BDE8F08D002025
:101AC000054346EAE0762C4337430A986305E40A67
:101AD000A0EB08000022FD0A44EA47540A3002D570
:101AE00000200146E9E7010510196941DDE90845D3
:101AF00000196941BDE8F04DA2E770B58C1810F8E7
:101B0000015B15F0070301D110F8013B2A1106D142
:101B100010F8012B03E010F8016B01F8016B5B1E5C
:101B2000F9D12B0705D40023521E0DD401F8013B37
:101B3000FAE710F8013BCB1A921C03E013F8015BA3
:101B400001F8015B521EF9D5A142D8D3002070BD27
:101B500010B50124A103034801F08AFF00B100245D
:101B6000204610BD0008025810B504462146024820
:101B700004F0E8FC10BD0000C010002010B50448BF
:101B800004F0F3FC042801D0012010BD0020FCE784
:101B9000C010002010B5002400F014F8012801D076
:101BA000022010BD064804F051FD044634B94FF43C
:101BB0008041034804F07AFB00B101242046F0E79D
:101BC000C010002008B501200090FFF7C1FF08B940
:101BD000002000909DF8000008BD00002DE9F843AA
:101BE00004460D4616461F464FF0000833462A4667
:101BF00021460548009704F05DFE08B14FF001084A
:101C00004046BDE8F8830000C01000202DE9F843ED
:101C100004460D4616461F464FF0000833462A4636
:101C200021460548009704F073FF08B14FF0010802
:101C30004046BDE8F8830000C010002000BFFEE76A
:101C400070B50446A56B284601F0ACF80120287158
:101C500070BD70B50446A56B284600F0D5FF012085
:101C6000287170BD70B50546AC6B206940F004006A
:101C70002061204601F098F80120207170BD70B5F8
:101C80000546AC6B206940F004002061204600F05E
:101C9000BDFF0120207170BD70B50446A56B2846BC
:101CA00001F081F870BD70B50446A56B284600F0C0
:101CB000ACFF70BD10B53448006800F02000B0B132
:101CC00020203149083108602F481030006800F4A6
:101CD000002060B906F06AFC06F062FC2B48007830
:101CE00010B9002016F0C4F90020294908602648E0
:101CF000006800F01000002845D01020224908316B
:101D0000086021481030006800F40020B8BB1F486C
:101D1000007830B9012016F0ABF902201C490860A8
:101D200031E01A48007801282DD1194800680328AD
:101D300026D006F03BFC1748006920F00100154949
:101D400008610846806A20F0010088620E48103061
:101D5000006820F001000C49103108600A48283062
:101D6000006820F00100084928310860002012F0C6
:101D700037F9012016F07CF901200549086002E0DE
:101D800002200349086010BD0004024074090020CD
:101D900070090020000002400146374A086890425E
:101DA00049D0354A18320868904244D0324A30321D
:101DB000086890423FD0304A4832086890423AD092
:101DC0002D4A60320868904235D02B4A7832086834
:101DD000904230D0284A9032086890422BD0264A50
:101DE000A8320868904226D0244A0868904222D03F
:101DF000224A1832086890421DD0204A30320868C2
:101E0000904218D01D4A48320868904213D01B4AAD
:101E10006032086890420ED0184A783208689042C2
:101E200009D0164A90320868904204D0134AA8326A
:101E30000868904201D1012000E00020B0B10A788A
:101E4000103A1823B2FBF3F000F007020C4B9A5C37
:101E5000CA65032805D90A686FF30902121D8A654D
:101E600003E00A686FF309028A6503E0086820F05E
:101E7000FF008865886D7047100002401004024022
:101E800050A9030810B502682B4C0368A34222D066
:101E9000294C14340368A3421DD0274C283403680E
:101EA000A34218D0244C3C340368A34213D0224CE4
:101EB00050340368A3420ED01F4C64340368A3421D
:101EC00009D01D4C78340368A34204D01A4C8C34DA
:101ED0000368A34201D1012300E000238BB1037802
:101EE000083B1424B3FBF4F1144B03EB81030366AA
:101EF000124B8033436601F01F040123A340836625
:101F000018E00378103B1824B3FBF4F10C4B9A4211
:101F100004D80B4BA83B9A4200D30831094B03EB82
:101F200081030366074B8033436601F01F040123DE
:101F3000A340836610BD00000854025800580258A0
:101F4000B8040240000802400179A9B3082940D82A
:101F5000204B02689A4222D01E4B143302689A42E8
:101F60001DD01C4B283302689A4218D0194B3C33C1
:101F700002689A4213D0174B503302689A420ED02F
:101F8000144B643302689A4209D0124B78330268CA
:101F90009A4204D00F4B8C3302689A4201D101223D
:101FA00000E000224AB14A1E0B4B03EB8202C266DC
:101FB000094A4032026708E00BE04A1E074B03EB78
:101FC0008202C266054A403202674A1E01239340DC
:101FD00043677047085402580059025800090240EC
:101FE000014600208A69D2B98A6A32B1012A0DD02D
:101FF000022A03D0032A10D10EE000BFCA6A02F001
:102000008072B2F1807F00D1012007E0CA6AB2F18C
:10201000C07F00D1012001E000E000BF36E08A6906
:10202000B2F5005F1BD18A6A32B1012A07D0022AB9
:1020300003D0032A11D10AE000BF01200EE0CA6AD2
:1020400002F08072B2F1807F00D1012006E0CA6AFE
:10205000B2F1C07F00D1012000E000BF16E08A6A23
:1020600032B1012A05D0022A04D0032A0CD103E0A0
:1020700000BF00BF012008E0CA6A02F08072B2F11E
:10208000807F00D1012000E000BF00BF704700004A
:10209000F0B5846D856DD0E919767E60C66E16B197
:1020A000D0E91C767E60574F0668BE4249D0554F36
:1020B00018370668BE4244D0524F30370668BE42D9
:1020C0003FD0504F48370668BE423AD04D4F603738
:1020D0000668BE4235D04B4F78370668BE4230D0D6
:1020E000484F90370668BE422BD0464FA837066847
:1020F000BE4226D0444F0668BE4222D0424F183717
:102100000668BE421DD0404F30370668BE4218D028
:102110003D4F48370668BE4213D03B4F60370668D4
:10212000BE420ED0384F78370668BE4209D0364FCF
:1021300090370668BE4204D0334FA8370668BE42C7
:1021400001D1012600E00026DEB190F85C6006F0C7
:102150001F073F26BE40A6600668366826F4802624
:1021600007683E60066873608668402E04D1066882
:10217000B2600668F16044E00668B1600668F2602B
:102180003FE0224F0668BE4222D0204F1437066837
:10219000BE421DD01D4F28370668BE4218D01B4FC7
:1021A0003C370668BE4213D0184F50370668BE420F
:1021B0000ED0164F64370668BE4209D0134F7837E9
:1021C0000668BE4204D0114F8C370668BE4201D16A
:1021D000012600E00026A6B190F85C6006F01F071B
:1021E0000126BE406E60066873608668402E04D18A
:1021F0000668B2600668F16003E00668B1600668D0
:10220000F260F0BD10000240100402400854025871
:10221000704710B5012001F019FB10BD10B54FF447
:10222000004001F013FB10BD704730B504460D4669
:1022300000222946204600F001F830BDF0B50346E3
:10224000012500241148807B02281CDA00200F4E53
:10225000B67B0E4FB8553846867B001D40F82630B9
:10226000001F867B0C3082553E46B07B461CBE73F9
:10227000044604F1300008703A2048702F2088701E
:102280000020C87000252846F0BD0000480B012042
:1022900010B501F0010393B1174BDB6823F4E6633B
:1022A000154CE36042F0040343EA0023E46823434F
:1022B000114CE3602346DB6843F08003E36001F0E8
:1022C0000203022B17D10D4B1B6823F4E6630A4C63
:1022D000C4F80C3142F0040343EA0023D4F80C4163
:1022E0002343054CC4F80C312346D3F80C3143F09A
:1022F0008003C4F80C3110BD002000520C210052A4
:102300002DE9F04107460E4601F0D0FB8046012E34
:1023100001D1042400E0344C0BE0781C48B101F0FA
:10232000C5FBA0EB0800B84200D817B90320BDE8F0
:10233000F0812E482040A04208D12D48006920405D
:10234000A04201D101200DE000200BE029480068E7
:1023500024F00041084024F00041884201D10120CE
:1023600000E000200028D8D1012E05D120480069C6
:10237000214900EA010505E01E4800681F490840A0
:1023800040F0004525F0004090B11D488069284389
:102390001B49886115482840A84202D1144845616C
:1023A00004E025F000401349091D08600120BEE744
:1023B000012E0AD10E48006900F48030B0F5803F4C
:1023C0000FD130040A4948610BE00A48006800F464
:1023D0008030B0F5803F04D14FF480300549091DAD
:1023E00008600020A3E70000040000800F00EF1F3A
:1023F00000200052102100520000EE170000EE975E
:10240000501000202DE9F04106460F46154605F014
:102410003DFA702005F0FCF905F08CFAF0B205F0F9
:10242000F7F905F087FA05F031FA712005F0F0F9B7
:1024300005F080FA00240AE0691EA14201D00121C2
:1024400000E00021084605F0ADF93855641CAC42A7
:10245000F2DB05F045FABDE8F08100002DE9FC4112
:102460000746002000900EF057FE012801D1BDE87C
:10247000FC8101200EF056FEFC480068401CFB4920
:102480000860084600680521B0FBF1F201FB12006C
:1024900020B1F6480068B0F57A7F7DD2F448007824
:1024A00028B9012269460220FFF7ACFF06E00123AC
:1024B0006A4648F24E11282000F0D6FA00200EF0AD
:1024C00031FEEB480078D0B99DF8000000F00F0015
:1024D00090B19DF8000000F00F0006280CDA9DF87E
:1024E000000000F00F01FF208840C6B2F043C0B2E8
:1024F00040F0C000009026E00020009023E09DF80E
:10250000000000F08000E0B19DF8000000F00F0036
:1025100048B19DF8000000F00F01FF208840C04343
:10252000C0B200900FE0D248007801280BD1002003
:10253000009001236A4648F24E11282000F014FB57
:1025400001E0002000909DF80000002879D00025CF
:102550004CE10120A8409DF800100840002871D0EF
:10256000C348007838B9C34931F81500042201A9DD
:10257000FFF748FF07E0C04830F81510042301AA10
:10258000282000F071FABA48007801280AD100200A
:10259000009001236A4600E0A9E148F24E1128208C
:1025A00000F0E2FA00200EF0BDFDB44800780528E6
:1025B00016D19DF805009DF8041001F00F0100EB05
:1025C0000120AF4921F815009DF807009DF806107D
:1025D00001F00F0100EB0120AA4921F8150039E0B4
:1025E000A648007807282ED1A1480078B0B99DF8F8
:1025F00007009DF8061001F00F0100EB0120A04933
:1026000021F815009DF805009DF8041001F00F0158
:1026100000EB01209B4921F815001BE09DF8040008
:102620009DF8051000EB0120954921F815009DF853
:1026300006009DF8071000EB0120924921F81500D3
:1026400008E0D7E0D1E000208D4921F815008D4940
:1026500021F815008A4830F81500B0F5487F05DCF0
:10266000884830F81500B0F5F07F0DDD804800781F
:10267000012808D10020009001236A4648F24E113B
:10268000282000F071FAF2E67F480068401C7E497D
:10269000086000207D4908607D48007802280CD041
:1026A0007B480078032809D1774800680A2804D9B4
:1026B000744931F8150018F03FF890E0754800882B
:1026C0004FF6FF71884271D16D4800887249734A94
:1026D000128821F812006B48008871496F4A1288ED
:1026E00021F812006D480088401C6C49088008469B
:1026F0000088142801DB002008806A48006818B9A7
:102700000EF01EFD674908605E4A11885C4A108819
:1027100017F06CFB0446601C00285ED00A2C10DB0E
:102720000D2C0EDCA4F10A0101EB810202EBC101C8
:102730005D4A02EB8100012116F079F955490C80C0
:102740004BE00E2C0ADB132C08DCA4F10E01C8B2FE
:10275000012116F0E9FA4F490C803EE0142C0EDB03
:102760001A2C0CDC162C38D0192C36D0A4F11401FC
:10277000C8B2012116F0EEFA46490C802DE014BBD8
:1027800044490C80454802884549434817F07AFE81
:10279000464908600846006848B9404802884049F0
:1027A0003D4817F0BDFE4149086016E016E03F487D
:1027B0000068012808D1394802883949364817F09D
:1027C0005FFF3A49086008E03448028834493248DB
:1027D00017F0A6FE3549086000BF00E000BF0120E9
:1027E000334908700020214908606D1C012DFFF657
:1027F000B0AE7CE01E480078012809D1234800686B
:10280000401C2249086008460068022800D22EE6D3
:1028100000200EF087FC26480078012855D116F0DC
:10282000A7FB16F085FB16F0C3FB17F0D5FC194883
:1028300000884FF6FF7188423CD01648008830B1BE
:10284000144908780022114617F0CEFC09E00E4822
:102850000068012805D90C480068102801D216F03C
:102860002BF94FF6FF700B4908802EE098080020E6
:102870005D08002068AB030872AB03085C08002009
:102880007C13002086130020740800208408002098
:102890006A0800207C0800209013002068080020AF
:1028A000B813002078080020183B00208008002082
:1028B0006608002013F018F910B113F00BF804E0CB
:1028C00013F034FB08B113F0F1FD00200A49087041
:1028D0000A4908800A4908700A4908700A490860CC
:1028E0000A4908600A480068401C0949086000203D
:1028F0000EF018FC00BFBAE566080020680800204A
:102900006A0800205E080020740800207808002073
:10291000840800202DE9F04105460E4617464FF089
:10292000000804F0B3FF702004F072FF05F002F815
:10293000E8B204F06DFF04F0FDFF00240AE0305D12
:1029400004F066FF04F0F6FF8046B8F1000F00D0F7
:1029500002E0641CBC42F2DB00BF04F0C1FF404651
:10296000BDE8F08100B58BB000BF3C48006840F086
:1029700001003A4908600846006800F00100019033
:1029800000BF00BF00BF0846006840F002000860BA
:102990000846006800F00200019000BF00BF00BFC1
:1029A0000846006840F0040008600846006800F02F
:1029B0000400019000BF00BF00200A90142105A868
:1029C000FEF7FBFD01220421254801F062F80420F6
:1029D00005900120069007900020089005A9204846
:1029E00000F042FF2020059005A91E4800F03CFFA2
:1029F000002220211B4801F04CF841F2883009F0F8
:102A0000F9FC01222021174801F043F80B2302AA08
:102A100048F24011282000F027F801230AAA48F2C2
:102A20004701282000F020F89DF82800602802DAED
:102A3000012000F06FF80420059000200690079018
:102A4000089005A9064800F00FFF9DF808003928F6
:102A500002D101200BB000BD0020FBE7E04402588A
:102A600000040258000802582DE9F04706460F46B8
:102A700090469946142400BF04F008FF06F0FE00BB
:102A800004F0C6FE04F056FF21490870084600789D
:102A900008B1641E27E0381204F0BAFE04F04AFFC1
:102AA0001B4908700846007808B1641E1BE0F8B2A4
:102AB00004F0AEFE04F03EFF1549087008460078A9
:102AC00008B1641E0FE004F0E1FE46F0010004F0DE
:102AD0009FFE04F02FFF0E4908700846007808B1E9
:102AE000641E00E000BF0A48007808B1002CC3D182
:102AF000002506E0012004F055FE08F80500681CDA
:102B0000C5B24D45F6DB04F0EBFEBDE8F0870000F2
:102B10005609002070B505460020124981F8B8001A
:102B200000240AE00F4890F8B8000E49095D0844F7
:102B30000C4981F8B800601CC4B2B82CF2DB09481B
:102B400090F8B800C043401C064981F8B800084618
:102B500080F8B950BA23024648F24701282000F015
:102B600003F870BD9C0800202DE9F04707460D468C
:102B700090469946142400BF04F088FE07F0FE003A
:102B800004F046FE04F0D6FE1E49087008460078A0
:102B900008B1641E2CE0281204F03AFE04F0CAFECC
:102BA000184908700846007808B1641E20E0E8B2B1
:102BB00004F02EFE04F0BEFE1249087008460078AC
:102BC00008B1641E14E000260DE018F8060004F0B9
:102BD0001FFE04F0AFFE0B4908700846007800B1F4
:102BE00003E0701CC6B24E45EFDB00BF641E00BFA1
:102BF0000448007808B1002CBED104F071FEBDE895
:102C0000F0870000560900207047704770470000A9
:102C10002DE9F04704460D4616464FF00009286995
:102C2000012800D100BF2868042800D100BF00BFE0
:102C30006079012802D10220BDE8F087012060718F
:102C400000BF022020712868042855D1EEB900F099
:102C50002DFF81460CE000F029FFA0EB09000128C0
:102C600006D9206940F00800206103202071E3E7C5
:102C70002068406B4A4908400028ECD1012000F050
:102C8000CFFCA8692168086419E00CE000F00EFF91
:102C9000A0EB0900012806D9206940F00800206156
:102CA00003202071C8E72068406B00F00040002836
:102CB000ECD1012000F0B4FCA869216848642068C8
:102CC000806C06F0100240F2FF319140884306F01C
:102CD0001002E96991400843216888642068C06C4B
:102CE00006F01002FF219140884306F01002296A85
:102CF000914008432168C864286901280FD12068E1
:102D0000876B06F010011F2088408743D5F8148098
:102D100006F0100008FA00F0074320688763206877
:102D2000C76B06F01001072088408743A968286810
:102D30000843E96840EA010806F0100108FA01F0CA
:102D400007432068C7632068006806F010024FF44C
:102D5000804191408843216808602068076806F038
:102D6000100140F6FE7088408743D5F8048006F0D5
:102D7000100108FA01F00743206807602068006826
:102D800006F01002C02191408843216808600120AC
:102D9000207100BF0020607100BF00BF4CE7000041
:102DA0000080002070477047704710B504460CB98A
:102DB000012010BD207920B900206071204600F06C
:102DC00008F80220207100202061012020710020DD
:102DD000EFE7704738B50446002000902068009067
:102DE00029B902F10800009D2844009004E002F196
:102DF0001400009D2844009000980360002038BD16
:102E000010B5024600BF5079012801D1022010BD43
:102E10000120507100BF022010711068006801F09D
:102E200010040123A34018431368186061B91068A7
:102E3000006800F03E00022813D11068406840F09E
:102E40000100136858600CE01068006800F4781006
:102E5000B0F5003F05D11068406840F002001368EB
:102E600058600120107100BF0020507100BF00BFEA
:102E7000CDE700002DE9F04704460D461746994678
:102E8000DDF820804FF0000A00BF6079012802D1F0
:102E90000220BDE8F0870120607100BF0220207190
:102EA00035BB3F48A168C8633E48A16808643E48F6
:102EB000A168C8642068006840F4805021680860F8
:102EC000B8F1000F06D0B8F1040F07D0B8F1080F21
:102ED0000CD107E0206800F1080A08E0206800F142
:102EE0000C0A04E0206800F1100A00E000BF26E0B0
:102EF0002E48E168C8632E48E16808642D48E168FF
:102F0000C8642068006840F0805021680860B8F10B
:102F1000000F06D0B8F1040F07D0B8F1080F0CD19C
:102F200007E0206800F1140A08E0206800F1180AA0
:102F300004E0206800F11C0A00E000BF00BF6DB98A
:102F40002068006840F40050216808604B465246F3
:102F50003946A06800F0EEF906460CE020680068EB
:102F600040F00050216808604B4652463946E06800
:102F700000F0E0F9064600BF0020607100BF4EB9C6
:102F80002068006805F01002012191400843216883
:102F9000086003E0206940F004002061304678E7D3
:102FA000411C0208991C0208651C0208531C0208F7
:102FB000A71C02087F1C02082DE9F041044600F01E
:102FC00075FD804614B90120BDE8F081D449206820
:102FD000884249D0D24918312068884244D0D0492B
:102FE0003031206888423FD0CD494831206888423E
:102FF0003AD0CB4960312068884235D0C849783111
:103000002068884230D0C6499031206888422BD051
:10301000C349A8312068884226D0C2492068884226
:1030200022D0C0491831206888421DD0BD493031B6
:103030002068884218D0BB4948312068884213D0A4
:10304000B8496031206888420ED0B649783120688E
:10305000884209D0B34990312068884204D0B149F0
:10306000A8312068884201D1012000E0002000281A
:1030700073D0606A00B100BF00BF002084F8340044
:1030800000BF022084F83500A5492068884249D055
:10309000A34918312068884244D0A14930312068C2
:1030A00088423FD09E494831206888423AD09C49A6
:1030B00060312068884235D099497831206888424B
:1030C00030D097499031206888422BD09449A8315C
:1030D0002068884226D093492068884222D09149AE
:1030E0001831206888421DD08E49303120688842CE
:1030F00018D08C4948312068884213D08949603102
:10310000206888420ED0874978312068884209D0EB
:10311000844990312068884204D08249A8312068CF
:10312000884206D12068006820F00100216808600C
:1031300005E02068006820F00100216808600DE0CB
:1031400000F0B4FCA0EB0800052807D9202060653A
:10315000032084F83500012036E745E02068006848
:1031600000F001000028EBD1206805686E4805409A
:10317000D4E9020108432169084361690843A16950
:103180000843E1690843216A08430543606A04284B
:1031900003D1D4E90B01084305432068056020688A
:1031A000456925F00705606A0543606A04280DD16A
:1031B000A06A0543E06A48B12046FEF711FF28B136
:1031C00040206065012084F83500FDE620684561F7
:1031D0002046FEF7E1FD064694F85C0000F01F0172
:1031E0003F208840B06073E050492068884222D078
:1031F0004E491431206888421DD04C49283120683E
:10320000884218D049493C312068884213D0474948
:103210005031206888420ED0444964312068884289
:1032200009D0424978312068884204D03F498C3126
:103230002068884201D1012000E00020F0B300BFE7
:10324000002084F8340000BF022084F83500206894
:10325000056837480540A068402801D1102105E0E5
:10326000A068802801D1C10100E00021E06841EAA6
:10327000D001206941EAD001606941EAD001A0692A
:1032800041EAD001E06941EAD001206A41EA101028
:1032900005432068056025492068401A1421B0FBC9
:1032A000F1F08000E0652046FEF776FD074694F8D1
:1032B0005C0000F01F010120884000E001E0786020
:1032C00006E040206065032084F8350001207BE69D
:1032D0002046FEF7D7FDA068802801D1002060605D
:1032E0002079216E0860D4E919104860606860B1E7
:1032F0006068082809D82046FEF726FE0020E16E07
:103300000860D4E91C10486003E00020E0662067F4
:10331000606700206065012084F83500002053E6D6
:1033200010000240100402403F8010FE0854025872
:103330000F00FEFF2DE9F04104460D4616461F46DC
:103340004FF0000814B90120BDE8F08100BF94F8E7
:103350003400012801D10220F6E7012084F834006E
:1033600000BF94F8350001287ED1022084F8350092
:1033700000206065A8492068884249D0A6491831D4
:103380002068884244D0A4493031206888423FD028
:10339000A1494831206888423AD09F49603120686D
:1033A000884235D09C4978312068884230D09A498B
:1033B0009031206888422BD09749A83120688842F4
:1033C00026D096492068884222D094491831206836
:1033D00088421DD0914930312068884218D08F49E9
:1033E00048312068884213D08C4960312068884277
:1033F0000ED08A4978312068884209D087499031B7
:103400002068884204D08549A8312068884206D1C6
:103410002068006820F001002168086005E020684D
:10342000006820F00100216808603B4632462946CA
:103430002046FEF72DFE7849206888424BD0764919
:1034400018312068884246D073493031206888425C
:1034500041D071494831206888423CD06E49603182
:103460002068884237D000E0C9E06B497831206895
:10347000884230D068499031206888422BD0664914
:10348000A8312068884226D064492068884222D02A
:1034900062491831206888421DD060493031206867
:1034A000884218D05D4948312068884213D05B4972
:1034B0006031206888420ED05849783120688842AF
:1034C00009D0564990312068884204D05349A83128
:1034D0002068884201D1012000E0002080B12068EE
:1034E000006820F01E0040F0160021680860206C83
:1034F000B0B12068006840F00800216808600FE063
:103500002068006820F00E0040F00A002168086082
:10351000206C28B12068006840F004002168086031
:10352000206E006800F4803028B1206E006840F4FE
:103530008070216E0860E06E28B1E06E006840F493
:103540008070E16E086034492068884249D0324971
:1035500018312068884244D02F4930312068884291
:103560003FD02D494831206888423AD02A496031FD
:103570002068884235D0284978312068884230D088
:1035800025499031206888422BD02349A8312068F2
:10359000884226D021492068884222D01F4918310C
:1035A000206888421DD01D4930312068884218D0DB
:1035B0001A4948312068884213D018496031206880
:1035C00088420ED0154978312068884209D01349C5
:1035D00090312068884204D01049A8312068884280
:1035E00006D12068006840F001002168086010E002
:1035F0002068006840F001002168086009E000BF11
:10360000002084F8340000BF4FF4006060654FF084
:103610000108404698E600001000024010040240F5
:1036200070B5044600F042FA06462546681C10B103
:1036300004480078054400BF00F038FA801BA84217
:10364000FAD370BD140000202DE9F05F83460D46CB
:103650001746A846B9464FF0080A00BF3D48007D0E
:10366000012802D10220BDE8F09F012039490875E8
:1036700000BFB5F1006F04D3B5F1016F01D2012491
:1036800000E0022400203349886121464CF250308A
:10369000FEF736FE0646002E55D1012C06D12E48E7
:1036A000C06840F002002C49C86006E02B48006862
:1036B00040F002002849C1F80C0100BF00BF00BF64
:1036C000BFF36F8F00BF00BF00BF00BF00BF00BFD0
:1036D000BFF34F8F00BF00BF00BF00BFD9F800008D
:1036E000C8F8000008F1040809F10409AAF1010072
:1036F00000F0FF0ABAF1000FF0D100BF00BF00BF19
:10370000BFF36F8F00BF00BF00BF00BF00BF00BF8F
:10371000BFF34F8F00BF00BF00BF21464CF25030B7
:10372000FEF7EEFD0646012C06D10B48C06820F0DE
:1037300002000949C86006E00848006820F002005D
:103740000549C1F80C0100BF00200249087500BFFF
:10375000304688E750100020002000520C21005213
:103760001348C06800F0010058B112481049486081
:10377000114848600846C06800F0010008B1012007
:1037800070470E48006800F0010070B109480B490D
:103790000839086008480649C1F80401074800686C
:1037A00000F0010008B10120EAE70020E8E700008E
:1037B0000020005223016745AB89EFCD0C21005258
:1037C00010B50446012C03D0B4F5004F2DD100BF35
:1037D0000DF0B6FC164908600846006815490968EE
:1037E000401A1549086012480068124908601348D9
:1037F000006801280CD1032010490860002014F053
:1038000037FC0F480068C0F5F8400E49088006E014
:103810000A480068022802D10120084908604FF4D4
:103820004051094800F02CF900E000BF00BF10BD76
:103830002800002020000020240000207009002023
:10384000140402401C0000200004025810B5044675
:1038500004480068204020B1024804602046FFF779
:10386000AFFF10BD88000058F8B502460023734D25
:10387000DEE001279F400E6806EA0704002C71D0A5
:103880004E68022E02D04E68122E13D1DF0802F1CC
:10389000200656F827005E07F70E0F26BE40B043FD
:1038A0005F07FF0E0E69BE403043DF0802F12006BD
:1038B00046F8270010685F000326BE40B0430E792B
:1038C00006F003065F00BE40304310604E68012ED4
:1038D00008D04E68022E05D04E68112E02D04E68D8
:1038E000122E13D190685F000326BE40B0435F00E4
:1038F000CE68BE4030439060506801269E40B04381
:103900000E79C6F300169E4030435060D0685F00C9
:103910000326BE40B0435F008E68BE403043D06097
:103920004E6806F08056B6F1805F1BD100BF444E52
:10393000366846F00206424F3E603E46366806F064
:103940000206009600BF00BF3E4E9F0856F82700B3
:103950009E07370F0F26BE40B0433B4EB24202D106
:1039600000262EE063E0394EB24201D1012628E064
:10397000374EB24201D1022623E0364EB24201D187
:1039800003261EE0344EB24201D1042619E0334E24
:10399000B24201D1052614E0314EB24201D10626D1
:1039A0000FE0304EB24201D107260AE02E4EB2425D
:1039B00001D1082605E02D4EB24201D1092600E0D2
:1039C0000A269F073F0FBE4030431E4E9F0846F811
:1039D00027002868A0434E6806F48036B6F5803F7D
:1039E00000D1204328606868A0434E6806F4003682
:1039F000B6F5003F00D1204368604FF0B046306814
:103A0000A0434E6806F48016B6F5801F00D120430F
:103A10004FF0B04630607068A0434E6806F4001660
:103A2000B6F5001F00D120434FF0B04670605B1C1C
:103A30000E68DE40002E7FF41CAFF8BD80000058F9
:103A4000F4440258080400580000025800040258C8
:103A500000080258000C02580010025800140258C6
:103A600000180258001C0258002002580024025876
:103A7000024613690B400BB1012000E000207047A3
:103A800042690A408A4202D10A04826100E08161EF
:103A900070470AB1816101E00B0483617047000047
:103AA00001480068000C70470010005C0148006885
:103AB000704700000C00002001464AF6AA200A6860
:103AC000106000207047000003480068034909782F
:103AD00008440149086070470C00002014000020D1
:103AE00010B5032000F0DAFA01F026FF104909684A
:103AF000C1F303210F4A515C01F01F01C8400E4978
:103B000008600B48006800F00F001146085C00F0E8
:103B10001F0109480068C84008490860002000F0FB
:103B20000FF808B1012010BD00F036FA0020FAE7C6
:103B30001844025832A903080000002004000020A5
:103B400070B504461148007808B9012070BD0F48CF
:103B500000784FF47A71B1FBF0F00D490968B1FBC0
:103B6000F0F5284603F006F908B10120EEE7102C25
:103B700007D200222146501E00F052FA0548046088
:103B800001E00120E2E70020E0E70000140000204F
:103B90000000002010000020F0B504460D46164637
:103BA000294600BF94F8A000012801D10220F0BDF1
:103BB000012084F8A00000BF022084F8A1000022A8
:103BC00036E003EB830000EBC30C04F1380000EB9C
:103BD0008C000069062813D108784FF0100C0CFBFC
:103BE000022C40EA0C60B1F800C00CF47F4C40EAB3
:103BF0000C00D1F800C00CF47F0C40EA0C070EE07A
:103C0000087840EA0260B1F800C00CF47F4C40EA4A
:103C10000C00D1F800C00CF47F0C40EA0C07091D21
:103C2000206884304FF0800C0CFB03000764521CAA
:103C3000B242C6D3012084F8A10000BF002084F85E
:103C4000A00000BF00BFB2E770B504460E4615469F
:103C500000BF94F8A000012801D1022070BD01200E
:103C600084F8A00000BF022084F8A10005EB8501C4
:103C700001EBC50204F1380101EB82003422314628
:103C8000FDF782FC2A463146204604F0B1F80120B7
:103C90002168486284F8A10000BF002084F8A000D9
:103CA00000BF00BFDAE710B5024600BF92F8A000DF
:103CB000012801D1022010BD012082F8A00000BF20
:103CC000022082F8A10010688430CB01C05840F077
:103CD000100310688430CC0103510120136858622E
:103CE00082F8A10000BF002082F8A00000BF00BF42
:103CF000E1E7000070B504460CB9012070BD94F8EE
:103D0000A10028B9002084F8A000204600F07EF829
:103D1000022084F8A1002068806920F070402168AA
:103D20008861D4E901010843E16808432169084337
:103D30002168896908432168886120688068324960
:103D4000084021688860A08A050420688068A1690D
:103D500029430843216888602068C0682A490840D0
:103D60002168C860A08B05042068C068216A2943C7
:103D700008432168C8602068006923490840216819
:103D80000861A08C050420680069A16A29430843E2
:103D900021680861206840691B4908402168486122
:103DA000A08D050420684069216B294308432168E0
:103DB000486194F83500050294F83600060420683E
:103DC000C06A00F07F402168C86246EA050094F8A6
:103DD000341008432168C96A08432168C862206812
:103DE000406B40F00600216848632068806940F01D
:103DF0000100216888610020C4F8A400012084F833
:103E0000A10000207AE7000000F800F070470000F1
:103E1000024600BF92F8A000012801D1022070479D
:103E2000012082F8A00000BF022082F8A1001068E3
:103E3000406B20F001001368586309480164106862
:103E4000406B40F0010013685863012082F8A10024
:103E500000BF002082F8A00000BF00BFDFE7000025
:103E6000001000502DE9F04104460E46174600BFF1
:103E700094F8A000012802D10220BDE8F0810120C1
:103E800084F8A00000BF022084F8A10007EB87009F
:103E900000EBC70104F1380000EB81056E613A4682
:103EA0002946204603F0A4FF01202168486284F8D7
:103EB000A10000BF002084F8A00000BF00BFDCE725
:103EC0002DE9F04104460E461746984600BF94F887
:103ED000A000012802D10220BDE8F081012084F871
:103EE000A00000BF022084F8A10008EB880000EBCE
:103EF000C80104F1380000EB81052E60A86A304447
:103F00006860AF60E86A3844E86042462946204667
:103F100003F06EFF01202168486284F8A10000BF11
:103F2000002084F8A00000BF00BFD5E72DE9F041D4
:103F300004460E461746984600BF94F8A000012894
:103F400002D10220BDE8F081012084F8A00000BF6A
:103F5000022084F8A10008EB880000EBC80104F1FE
:103F6000380000EB8105286830446860A868384450
:103F7000E860AE62EF6242462946204603F038FF11
:103F800001202168486284F8A10000BF002084F865
:103F9000A00000BF00BFD5E708B500BF0648006815
:103FA00040F00200044908600846006800F0020082
:103FB000009000BF00BF08BDF444025810B5014690
:103FC0000846002817DB00F01F0301229A400B4B24
:103FD000440943F8242000BF00BF00BFBFF34F8F48
:103FE00000BF00BF00BF00BF00BF00BFBFF36F8FA7
:103FF00000BF00BF00BF00BF10BD000080E100E0B7
:1040000001460846002809DB00F01F0301229A4000
:1040100043099B0003F1E023C3F8002100BF704770
:104020002DE9F05F80460D46164606F0C1F90746B9
:1040300039462A46334601F00700C0F1070ABAF1B3
:10404000040F02D94FF0040A01E0C0F1070AD1467B
:1040500000F1040ABAF1070F02D24FF0000A01E0A2
:10406000A0F1030AD4464FF0010A0AFA09FAAAF1AC
:10407000010A0AEA020A0AFA0CFA4FF0010B0BFADB
:104080000CFBABF1010B0BEA030B4AEA0B042146D4
:10409000404606F095F9BDE8F09F000000BF00F033
:1040A0000702064B19684FF6FF031940044B0B43F8
:1040B00043EA0221014B196000BF70470CED00E09C
:1040C0000000FA0570B504461548006800F00400C9
:1040D000042807D01248006800F00700A04201D071
:1040E000012070BD0E48006820F0070020430C49F5
:1040F0000860FFF7DBFC054607E0FFF7D7FC401B35
:10410000B0F57A7F01D90320EBE70548083800684D
:1041100000F40050B0F5005FEFD10020E1E70000AF
:104120000C4802580348006840F08070014908605C
:10413000704700000C48025870B50146844D2D6848
:1041400005F00303824D2D68C5F30510804D2D1D2C
:104150002D6805F001047E4D0C352D68C5F3CC05A6
:1041600015FB04F501EE105AB8EE411AF0EE410AC3
:1041700000286FD023B1012B4ED0022B6BD16BE006
:10418000734D283D2D68C5F340153DB3704D283D56
:104190002D68C5F3C1066F4D25FA06F201EE102A0F
:1041A000F8EE411A01EE100AB8EE411A81EE812AAA
:1041B0009FED691AC0EE811A654D08352D68C5F36B
:1041C000080501EE105AB8EE411A31EE811AF7EEE9
:1041D000001A31EE211A22EE010A1CE001EE100A4B
:1041E000B8EE411ADFED5D1A81EE812A9FED5A1A71
:1041F000C0EE811A564D08352D68C5F3080501EE4D
:10420000105AB8EE411A31EE811AF7EE001A31EE6B
:10421000211A22EE010A5BE001EE100AB8EE411A03
:10422000DFED4F1A81EE812A9FED4B1AC0EE811A05
:10423000474D08352D68C5F3080501EE105AB8EE54
:10424000411A31EE811AF7EE001A31EE211A22EEF0
:10425000010A3DE077E01DE001EE100AB8EE411AD8
:104260009FED402AC2EE011A9FED3B1A80EE812A93
:10427000374D08352D68C5F3080501EE105AB8EE24
:10428000411A32EE011AB7EE002A31EE021A21EE7F
:10429000810A1DE001EE100AB8EE411ADFED301A76
:1042A00081EE812A9FED2C1AC0EE811A284D083527
:1042B0002D68C5F3080501EE105AB8EE411A31EE2B
:1042C000811AF7EE001A31EE211A22EE010A00BF20
:1042D00000BF1F4D08352D68C5F3462501EE105A65
:1042E000B8EE411AF7EE001A31EE211AC0EE011AAB
:1042F000BCEEE11A81ED001A154D08352D68C5F3A5
:10430000064501EE105AB8EE411AF7EE001A31EEEA
:10431000211AC0EE011ABCEEE11A81ED011A0C4D12
:1043200008352D68C5F3066501EE105AB8EE411A3E
:10433000F7EE001A31EE211AC0EE011ABCEEE11AB6
:1043400081ED021A03E000250D604D608D6070BDA7
:10435000284402580090D003000000460024744C0A
:104360000024744A20BCBE4B70B50146844D2D68B4
:1043700005F00303824D2D68C5F30530804D2D1DDA
:104380002D6805F010047E4D14352D68C5F3CC055D
:1043900015FB04F501EE105AB8EE411AF0EE410A91
:1043A00000286FD023B1012B4ED0022B6BD16BE0D4
:1043B000734D283D2D68C5F340153DB3704D283D24
:1043C0002D68C5F3C1066F4D25FA06F201EE102ADD
:1043D000F8EE411A01EE100AB8EE411A81EE812A78
:1043E0009FED691AC0EE811A654D10352D68C5F331
:1043F000080501EE105AB8EE411A31EE811AF7EEB7
:10440000001A31EE211A22EE010A1CE001EE100A18
:10441000B8EE411ADFED5D1A81EE812A9FED5A1A3E
:10442000C0EE811A564D10352D68C5F3080501EE12
:10443000105AB8EE411A31EE811AF7EE001A31EE39
:10444000211A22EE010A5BE001EE100AB8EE411AD1
:10445000DFED4F1A81EE812A9FED4B1AC0EE811AD3
:10446000474D10352D68C5F3080501EE105AB8EE1A
:10447000411A31EE811AF7EE001A31EE211A22EEBE
:10448000010A3DE077E01DE001EE100AB8EE411AA6
:104490009FED402AC2EE011A9FED3B1A80EE812A61
:1044A000374D10352D68C5F3080501EE105AB8EEEA
:1044B000411A32EE011AB7EE002A31EE021A21EE4D
:1044C000810A1DE001EE100AB8EE411ADFED301A44
:1044D00081EE812A9FED2C1AC0EE811A284D1035ED
:1044E0002D68C5F3080501EE105AB8EE411A31EEF9
:1044F000811AF7EE001A31EE211A22EE010A00BFEE
:1045000000BF1F4D10352D68C5F3462501EE105A2A
:10451000B8EE411AF7EE001A31EE211AC0EE011A78
:10452000BCEEE11A81ED001A154D10352D68C5F36A
:10453000064501EE105AB8EE411AF7EE001A31EEB8
:10454000211AC0EE011ABCEEE11A81ED011A0C4DE0
:1045500010352D68C5F3066501EE105AB8EE411A04
:10456000F7EE001A31EE211AC0EE011ABCEEE11A84
:1045700081ED021A03E000250D604D608D6070BD75
:10458000284402580090D003000000460024744CD8
:104590000024744A20BCBE4B70B50146844D2D6882
:1045A00005F00303824D2D68C5F30550804D2D1D88
:1045B0002D6805F480747E4D1C352D68C5F3CC053F
:1045C00015FB04F501EE105AB8EE411AF0EE410A5F
:1045D00000286FD023B1012B4ED0022B6BD16BE0A2
:1045E000734D283D2D68C5F340153DB3704D283DF2
:1045F0002D68C5F3C1066F4D25FA06F201EE102AAB
:10460000F8EE411A01EE100AB8EE411A81EE812A45
:104610009FED691AC0EE811A654D18352D68C5F3F6
:10462000080501EE105AB8EE411A31EE811AF7EE84
:10463000001A31EE211A22EE010A1CE001EE100AE6
:10464000B8EE411ADFED5D1A81EE812A9FED5A1A0C
:10465000C0EE811A564D18352D68C5F3080501EED8
:10466000105AB8EE411A31EE811AF7EE001A31EE07
:10467000211A22EE010A5BE001EE100AB8EE411A9F
:10468000DFED4F1A81EE812A9FED4B1AC0EE811AA1
:10469000474D18352D68C5F3080501EE105AB8EEE0
:1046A000411A31EE811AF7EE001A31EE211A22EE8C
:1046B000010A3DE077E01DE001EE100AB8EE411A74
:1046C0009FED402AC2EE011A9FED3B1A80EE812A2F
:1046D000374D18352D68C5F3080501EE105AB8EEB0
:1046E000411A32EE011AB7EE002A31EE021A21EE1B
:1046F000810A1DE001EE100AB8EE411ADFED301A12
:1047000081EE812A9FED2C1AC0EE811A284D1835B2
:104710002D68C5F3080501EE105AB8EE411A31EEC6
:10472000811AF7EE001A31EE211A22EE010A00BFBB
:1047300000BF1F4D18352D68C5F3462501EE105AF0
:10474000B8EE411AF7EE001A31EE211AC0EE011A46
:10475000BCEEE11A81ED001A154D18352D68C5F330
:10476000064501EE105AB8EE411AF7EE001A31EE86
:10477000211AC0EE011ABCEEE11A81ED011A0C4DAE
:1047800018352D68C5F3066501EE105AB8EE411ACA
:10479000F7EE001A31EE211AC0EE011ABCEEE11A52
:1047A00081ED021A03E000250D604D608D6070BD43
:1047B000284402580090D003000000460024744CA6
:1047C0000024744A20BCBE4B2DE9F04189B0074655
:1047D000B7F5807F32D1C248006800F00706052E89
:1047E00029D2DFE806F003080D26120006A8FFF71D
:1047F000A3FC079C21E003A8FFF7B6FD039C1CE087
:104800006846FFF7C9FE009C17E0B548001F006826
:1048100000F040550DB9B34C0AE0B5F1805F01D10D
:10482000B14C05E0B5F1005F01D1B04C00E00024CF
:1048300003E0AF4C01E0002400BF4CE1B7F5007F7E
:1048400038D1A748006800F4E076802E14D003DC4D
:1048500046B1402E2BD10AE0C02E26D0B6F5807F7F
:1048600025D10EE006A8FFF767FC079C21E003A80E
:10487000FFF77AFD039C1CE06846FFF78DFE009C65
:1048800017E09748001F006800F040550DB9954C9F
:104890000AE0B5F1805F01D1934C05E0B5F1005F0E
:1048A00001D1924C00E0002403E0914C01E000248F
:1048B00000BF10E1B7F5806F3CD18948083000682F
:1048C00000F46006B6F5800F16D004DC56B1B6F5DC
:1048D000001F2CD10BE0B6F5C00F26D0B6F5000FA7
:1048E00025D10EE006A8FFF727FC079C21E003A8CE
:1048F000FFF73AFD039C1CE06846FFF74DFE009C65
:1049000017E07748001F006800F040550DB9754C5E
:104910000AE0B5F1805F01D1734C05E0B5F1005FAD
:1049200001D1724C00E0002403E0714C01E000244E
:1049300000BFD0E0B7F5006F3CD16948083000688F
:1049400000F0E066B6F1007F16D004DC56B1B6F197
:10495000807F2CD10BE0B6F1407F26D0B6F1806F7E
:1049600025D10EE006A8FFF7E7FB079C21E003A88E
:10497000FFF7FAFC039C1CE06846FFF70DFE009C65
:1049800017E05748001F006800F040550DB9554C1E
:104990000AE0B5F1805F01D1534C05E0B5F1005F4D
:1049A00001D1524C00E0002403E0514C01E000240E
:1049B00000BF90E0B7F5805F3DD14948006800F442
:1049C000E048B8F5005F18D006DCB8F1000F0AD057
:1049D000B8F5805F2CD10BE0B8F5405F26D0B8F574
:1049E000804F25D10EE006A8FFF7A6FB079C21E02B
:1049F00003A8FFF7B9FC039C1CE06846FFF7CCFD59
:104A0000009C17E03648001F006800F040550DB9C3
:104A1000344C0AE0B5F1805F01D1334C05E0B5F1CB
:104A2000005F01D1314C00E0002403E0304C01E094
:104A3000002400BF4FE0B7F5002F2FD128480830E1
:104A4000006800F44038B8F1000F06D0B8F5803F98
:104A500008D0B8F5003F1ED109E003A8FFF784FC99
:104A6000039C1AE06846FFF797FD029C15E01C487E
:104A7000001F006800F040550DB91A4C0AE0B5F16E
:104A8000805F01D1184C05E0B5F1005F01D1174CF2
:104A900000E0002401E0002400BF1CE0B7F5803FE7
:104AA00018D10F48001F006800F48038B8F1000FDB
:104AB00003D0B8F5803F0AD104E006A8FFF73CFB1D
:104AC000079C06E003A8FFF74FFC059C01E00024CB
:104AD00000BF00E00024204609B0BDE8F0810000DE
:104AE000504402580090D00300093D0040787D01F9
:104AF0000080BB002DE9F04104460025A84620684F
:104B000000F00060B0F1006F30D1606E48B1B0F5D8
:104B1000801F0DD0B0F5001F10D0B0F5401F15D18B
:104B200013E0F948006840F40030F74908600FE0EE
:104B30000221201D03F086FE054609E0022104F152
:104B4000240003F031FF054602E001E0012500BF2B
:104B500000BF55B9EC482430006820F44010616E65
:104B60000843E9492431086000E0A846208800F4A1
:104B70008070B0F5807F2DD1606D05281AD2DFE8F6
:104B800000F0030A10171800DF48006840F40030F6
:104B9000DD49086010E00021201D03F053FE0546AA
:104BA0000AE0002104F1240003F0FEFE054603E0C4
:104BB00002E001E0012500BF00BF55B9D248243012
:104BC000006820F00700616D0843CF492431086078
:104BD00000E0A846208800F40070B0F5007F33D1D3
:104BE000A06D802817D003DC40B140281CD10CE018
:104BF000C02817D0B0F5807F16D114E0C2480068F5
:104C000040F40030C049086010E00021201D03F08E
:104C100019FE05460AE0002104F1240003F0C4FE59
:104C2000054603E002E001E0012500BF00BF55B9E1
:104C3000B5482430006820F4E070A16D0843B24903
:104C40002431086000E0A846208800F48060B0F5B8
:104C5000806F38D1D4F8A400B0F5800F19D004DCEF
:104C600050B1B0F5001F1DD10DE0B0F5C00F17D049
:104C7000B0F5000F16D114E0A348006840F40030EE
:104C8000A149086010E00021201D03F0DBFD05466E
:104C90000AE0002104F1240003F086FE054603E04B
:104CA00002E001E0012500BF00BF5DB996482C304D
:104CB000006820F46000D4F8A410084392492C3115
:104CC000086000E0A846208800F40060B0F5006F9E
:104CD00038D1D4F8A800B0F1007F19D004DC50B16D
:104CE000B0F1807F1DD10DE0B0F1407F17D0B0F161
:104CF000806F16D114E08448006840F40030824987
:104D0000086010E00021201D03F09CFD05460AE02C
:104D1000002104F1240003F047FE054603E002E011
:104D200001E0012500BF00BF5DB977482C30006865
:104D300020F0E060D4F8A810084373492C310860D3
:104D400000E0A846206800F00070B0F1007F27D195
:104D5000A06CA0B1102804D0202809D030280FD191
:104D60000CE06948006840F400306749086009E0D9
:104D70000221201D03F066FD054603E002E001E08C
:104D8000012500BF00BF55B95F482030006820F002
:104D90003000A16C08435C492031086000E0A8465F
:104DA000208800F48050B0F5805F36D1E06DB0F51A
:104DB000005F19D004DC50B1B0F5805F1DD10DE06B
:104DC000B0F5405F17D0B0F5804F16D114E04E48D3
:104DD000006840F400304C49086010E00021201DBC
:104DE00003F030FD05460AE0002104F1240003F041
:104DF000DBFD054603E002E001E0012500BF00BF46
:104E000055B941482430006820F4E040E16D084382
:104E10003D492431086000E0A846208800F4005095
:104E2000B0F5005F34D1206EB0F5403F1DD007DCF7
:104E300068B1B0F5803F0BD0B0F5003F18D10DE060
:104E4000B0F5802F12D0B0F5A02F11D10FE011E0F6
:104E50000121201D03F0F6FC05460BE0012104F1C1
:104E6000240003F0A1FD054604E003E002E001E0B8
:104E7000012500BF00BF55B923482430006820F445
:104E8000E020216E084320492431086000E0A84654
:104E9000208800F48040B0F5804F38D1D4F8AC00C1
:104EA000B0F1405F1DD007DC68B1B0F1805F0BD07E
:104EB000B0F1005F18D10DE0B0F1804F12D0B0F129
:104EC000A04F11D10FE011E00121201D03F0BAFC29
:104ED00005460BE0012104F1240003F065FD0546C1
:104EE00004E003E002E001E0012500BF00BF6DB96E
:104EF00005482C30006820F0E040D4F8AC1008439E
:104F000001492C31086002E02C440258A846208850
:104F100000F40040B0F5004F26D1E06E98B1B0F13A
:104F2000805F03D0B0F1005F0ED106E0F948006861
:104F300040F40030F749086008E00121201D03F02B
:104F400081FC054602E001E0012500BF00BF55B924
:104F5000F0482430006820F04050E16E0843ED49ED
:104F60002431086000E0A846206800F08070B0F1AD
:104F7000807F27D1606CA0B1012804D0022809D01D
:104F800003280FD10CE0E348006840F40030E14909
:104F9000086009E00221201D03F054FC054603E0EF
:104FA00002E001E0012500BF00BF55B9D94820301B
:104FB000006820F00300616C0843D6492031086086
:104FC00000E0A846206800F48000B0F5800F7DD195
:104FD000D148006840F48070CF490860FEF766FD54
:104FE000064606E0FEF762FD801B642801D9032512
:104FF00005E0C948006800F480700028F2D000BFC6
:1050000085BBC4484430006800F44070B4F8B01068
:1050100001F44071884213D0BE484430006820F447
:105020004077BC484430006840F48030B94944318E
:1050300008600846006820F4803008600846076071
:10504000D4F8B000B0F5807F15D1FEF72FFD0646ED
:1050500009E0FEF72BFD801B41F28831884202D91E
:10506000032507E038E0AB4844300068C0F3400057
:105070000028EED000BF55BB00BFB4F8B00000F46C
:105080004070B0F5407F0ED1A2481C38006820F473
:105090007C51A24AD4F8B000104041EA10109D495A
:1050A0001C39086007E09B481C38006820F47C50DD
:1050B00098491C390860974844300068B4F8B0102B
:1050C000C1F30B0108439349443101E005E001E0DD
:1050D000086002E0A84600E0A846207800F0010041
:1050E00068B3A06F182819D005DC48B1082808D08B
:1050F000102816D10BE0202811D0282811D10FE05C
:1051000011E00121201D03F09DFB05460BE001216C
:1051100004F1240003F048FC054604E003E002E04B
:1051200001E0012500BF00BF55B97A48283000686A
:1051300020F03800A16F084376492831086000E06C
:10514000A846207800F00200022828D1606F0628C7
:1051500015D2DFE800F003040A11121311E0012157
:10516000201D03F06FFB05460BE0012104F1240034
:1051700003F01AFC054604E003E002E001E001252B
:1051800000BF00BF55B963482830006820F0070011
:10519000616F08435F492831086000E0A846207825
:1051A00000F0040004282AD1D4F89000062815D273
:1051B000DFE800F003040A11121311E00121201DA1
:1051C00003F040FB05460BE0012104F1240003F04D
:1051D000EBFB054604E003E002E001E0012500BF2F
:1051E00000BF5DB94B482C30006820F00700D4F8B0
:1051F0009010084347492C31086000E0A846207809
:1052000000F02000202836D1D4F88C00B0F1405FA7
:105210001DD007DC68B1B0F1805F0BD0B0F1005F4A
:1052200018D10DE0B0F1804F12D0B0F1A04F11D1E4
:105230000FE011E00021201D03F004FB05460BE008
:10524000022104F1240003F0AFFB054604E003E073
:1052500002E001E0012500BF00BF5DB92D48283004
:10526000006820F0E040D4F88C1008432949283128
:10527000086000E0A846207800F04000402836D1C1
:10528000D4F89800B0F5406F1DD007DC68B1B0F5D8
:10529000806F0BD0B0F5006F18D10DE0B0F5805FD6
:1052A00012D0B0F5A05F11D10FE011E00021201D58
:1052B00003F0C8FA05460BE0022104F1240003F0D4
:1052C00073FB054604E003E002E001E0012500BFB6
:1052D00000BF5DB90F482C30006820F4E050D4F8CE
:1052E000981008430B492C31086000E0A84620784C
:1052F00000F0800080283AD1D4F89C00B0F5C04F6F
:1053000023D00DDC98B1B0F5005F11D0B0F5804F1F
:105310001ED113E02C44025800480258FFFCFF0F36
:10532000B0F5004F12D0B0F5204F11D10FE011E0D1
:105330000021201D03F086FA05460BE0022104F14E
:10534000240003F031FB054604E003E002E001E045
:10535000012500BF00BF4DB9B648006820F4604089
:10536000D4F89C100843B349086000E0A8462078B0
:1053700000F00800082818D1D4F88000B0F5805F4C
:1053800008D1022104F1240003F00EFB68B14FF0B4
:1053900001080AE0A748001F006820F44050D4F834
:1053A00080100843A349091F0860207800F010000E
:1053B000102816D1D4F89400B0F5807F08D10221CE
:1053C00004F1240003F0F0FA58B14FF0010808E0AE
:1053D0009848006820F44070D4F894100843954928
:1053E0000860206800F40020B0F5002F26D1D4F822
:1053F000A00030B1B0F5803F09D0B0F5003F0ED12C
:105400000CE00021201D03F01DFA054609E00221F1
:1054100004F1240003F0C8FA054602E001E001258A
:1054200000BF00BF4DB98348006820F44030D4F875
:10543000A01008437F49086000E0A846206800F4F7
:105440008020B0F5802F2DD1D4F88400B0F5801FD6
:1054500006D0B0F5001F0CD0B0F5401F11D10FE001
:1054600074482C38006840F4003072492C390860C8
:1054700009E0012104F1240003F096FA054602E058
:1054800001E0012500BF00BF5DB96A48001F006848
:1054900020F44010D4F8841008436649091F0860BE
:1054A00000E0A846206800F48030B0F5803F24D1A9
:1054B000E06C18B1B0F5803F0FD108E05D482C38A2
:1054C000006840F400305B492C39086007E0022195
:1054D000201D03F0B7F9054601E0012500BF00BF1C
:1054E00055B954480C38006820F48030E16C08430A
:1054F00050490C39086000E0A846206800F00050D0
:10550000B0F1005F07D1022104F1240003F04CFA4E
:1055100008B14FF00108206800F40030B0F5003FFA
:1055200027D1E06FA0B1B0F5807F06D0B0F5007F45
:105530000CD0B0F5407F0CD109E03E482C38006813
:1055400040F400303B492C39086004E003E002E0FD
:1055500001E0012500BF00BF55B93648001F0068B3
:1055600020F44070E16F08433249091F086000E0F1
:10557000A846206800F48010B0F5801F09D12D489E
:105580000838006820F00040216F08432949083995
:105590000860206800F08050B0F1805F0AD1254893
:1055A0004838006820F48040D4F8B41008432149FA
:1055B00048390860206800F40010B0F5001F09D1D8
:1055C0001C480838006820F08070A16E0843194913
:1055D00008390860206800F08040B0F1804F11D198
:1055E00000BF14484838006820F400401149483989
:1055F000086008460068D4F8B81008430D494839D7
:10560000086000BF206800F00040B0F1004F09D1F1
:1056100008480C38006820F04050216D08430549C7
:105620000C390860B8F1000F02D10020BDE8F0810C
:105630000120FBE7584402582DE9F04104460D468D
:1056400014B90120BDE8F081B648006800F00F00F1
:10565000A8420ED2B348006820F00F002843B14999
:1056600008600846006800F00F00A84201D0012041
:10567000E8E7207800F0040004280ED1AA49206948
:10568000096801F07001884207D9A748006820F036
:10569000700021690843A4490860207800F00800E0
:1056A000082811D1A049091D6069096801F070013D
:1056B000884209D99C48001D006820F0700061698B
:1056C00008439949091D0860207800F0100010284F
:1056D00011D19549091DA069096801F4E06188426A
:1056E00009D99148001D006820F4E060A1690843D1
:1056F0008D49091D0860207800F02000202811D174
:1057000089490831E069096801F07001884209D9C6
:1057100085480830006820F07000E169084382493C
:1057200008310860207800F0020002280ED17E497E
:10573000E068096801F00F01884207D97A480068DB
:1057400020F00F00E168084377490860207800F0F6
:105750000100002850D07448006820F47060A168EF
:105760000843714908606068022807D16E481838FC
:105770000068C0F34040F8B9012063E7606803287F
:1057800007D1694818380068C0F34060A0B901200B
:1057900058E76068012807D1634818380068C0F3EB
:1057A000002048B901204DE75F4818380068C0F371
:1057B000800008B9012045E75B480838006820F000
:1057C000070061680843584908390860FEF76EF918
:1057D000064608E0FEF76AF9801B41F288318842EC
:1057E00001D903202EE750480838006800F038003F
:1057F0006168B0EBC10FEDD1207800F00200022803
:105800000ED14949E068096801F00F01884207D2CA
:105810004548006820F00F00E168084342490860ED
:105820004048006800F00F00A8420ED93D480068CB
:1058300020F00F0028433B4908600846006800F04C
:105840000F00A84201D00120FCE6207800F00400FF
:1058500004280ED134492069096801F0700188429A
:1058600007D23148006820F07000216908432E49B2
:105870000860207800F00800082811D12A49091D85
:105880006069096801F07001884209D22648001D4C
:10589000006820F07000616908432349091D086011
:1058A000207800F01000102811D11F49091DA069AF
:1058B000096801F4E061884209D21B48001D0068B4
:1058C00020F4E060A16908431749091D08602078A9
:1058D00000F02000202811D113490831E06909683F
:1058E00001F07001884209D20F480830006820F0AA
:1058F0007000E16908430C490831086000F01CF8A9
:1059000009490968C1F30321084A515C01F01F01EC
:10591000C8400749086007480068FEF711F90746C4
:1059200038468FE6002000521844025832A9030876
:105930000000002010000020F0B5824E366806F00E
:10594000380636B1082E15D0102E15D0182E7DD160
:1059500014E07C4E103E3668C6F3401646B1794ED0
:10596000103E3668C6F3C107774E26FA07F000E00E
:105970007548E5E07548E3E07548E1E0714E18369A
:10598000366806F003046F4E18363668C6F3051104
:105990006C4E1C36366806F001056A4E24363668B1
:1059A000C6F3CC0616FB05F601EE106AB8EE410A06
:1059B000002971D024B1012C50D0022C6DD16DE0A2
:1059C000604E103E3668C6F340163EB35D4E103E44
:1059D0003668C6F3C1075C4E26FA07F301EE103AAB
:1059E000F8EE411A01EE101AB8EE411A81EE812A42
:1059F0009FED581AC0EE011A524E20363668C6F393
:105A0000080601EE106AB8EE411A31EE811AF7EE7F
:105A1000001A31EE211A62EE010A1EE001EE101AA0
:105A2000B8EE411ADFED4C1A81EE812A9FED491A3A
:105A3000C0EE011A434E20363668C6F3080601EE62
:105A4000106AB8EE411A31EE811A00E076E0F7EE06
:105A5000001A31EE211A62EE010A5BE001EE101A23
:105A6000B8EE411A9FED3D2AC2EE011A9FED391A98
:105A700080EE012A334E20363668C6F3080601EE62
:105A8000106AB8EE411A32EE011AB7EE002A31EE72
:105A9000021A61EE810A3DE04EE01DE001EE101AAF
:105AA000B8EE411ADFED2E1A81EE812A9FED291AF8
:105AB000C0EE011A234E20363668C6F3080601EE02
:105AC000106AB8EE411A31EE811AF7EE001A31EE83
:105AD000211A62EE010A1DE001EE101AB8EE411A19
