:020000040800F2
:10000000C8080020CD010008CF120008C111000867
:10001000CD120008F3020008B5140008000000002B
:10002000000000000000000000000000D3120008E3
:10003000F502000800000000D1120008D5120008E7
:10004000E7010008E7010008E7010008E7010008F0
:10005000E7010008E7010008E7010008E7010008E0
:10006000E7010008E7010008E7010008E7010008D0
:10007000E7010008E7010008E7010008E7010008C0
:10008000E7010008E7010008E7010008E7010008B0
:10009000E7010008E7010008E7010008E7010008A0
:1000A000E7010008E7010008E7010008E701000890
:1000B00035130008E7010008E7010008E701000820
:1000C000E7010008E7010008E7010008E701000870
:1000D000E7010008E7010008E7010008E701000860
:1000E000E7010008E7010008E7010008E701000850
:1000F000E7010008E7010008E7010008E701000840
:10010000E7010008E7010008E7010008E70100082F
:10011000E7010008E7010008E7010008E70100081F
:10012000E7010008E7010008E7010008E70100080F
:1001300000F002F800F03AF80AA090E8000C8244BF
:100140008344AAF10107DA4501D100F02FF8AFF29C
:10015000090EBAE80F0013F0010F18BFFB1A43F0A5
:1001600001031847DC260000FC260000103A24BFDB
:1001700078C878C1FAD8520724BF30C830C144BF0C
:1001800004680C607047000000230024002500264E
:10019000103A28BF78C1FBD8520728BF30C148BFEA
:1001A0000B6070471FB51FBD10B510BD00F06CF897
:1001B0001146FFF7F7FF01F07FF900F08AF803B46A
:1001C000FFF7F2FF03BC00F08DF8000009488047FC
:1001D00009480047FEE7FEE7FEE7FEE7FEE7FEE729
:1001E000FEE7FEE7FEE7FEE704480549054A064B41
:1001F000704700003113000831010008C8020020D8
:10020000C8080020C8040020C80400204FF00002E5
:1002100000B5134694469646203922BFA0E80C50FC
:10022000A0E80C50B1F12001BFF4F7AF090728BFD7
:10023000A0E80C5048BF0CC05DF804EB890028BF53
:1002400040F8042B08BF704748BF20F8022B11F07C
:10025000804F18BF00F8012B7047704770477047F8
:1002600010B500F009F8006810BD10B5044600F0A4
:1002700003F8046010BD000000487047280000200B
:1002800000487047280000207546FFF7F9FFAE468A
:1002900005006946534620F00700854618B020B592
:1002A000FFF7A2FFBDE820404FF000064FF0000727
:1002B0004FF000084FF0000BAC46ACE8C009ACE8CA
:1002C000C009ACE8C009ACE8C00921F007018D46BF
:1002D000704710B50446AFF300802046BDE81040DB
:1002E000FFF76DBF01491820ABBEFEE726000200F4
:1002F0007047FEE77047EFF3108072B6FEE700002C
:100300002DE9F84FDFF8E0ADDFF860B00024BAF86F
:100310000470BC42A8BFBDE8F88FBAF808004008D6
:1003200001F070FF80462046894601F054FF0D4AD7
:100330000D4B01F07BFF054638460E4601F062FF8B
:1003400002460B462846314601F0BEFD01F0BCFCDA
:1003500042464B4601F06AFF01F00EFF2BF81400F5
:100360000134D4E74AD8124DFB2119403401002052
:10037000012338B331B390F805C00223BCF1010F5B
:1003800020D080B5037102F0100E40F6FE7303FA20
:100390000EFC03681A6822EA0C0CD1E90021114313
:1003A00001FA0EF141EA0C011960C0211A6801FA44
:1003B0000EF122EA0101196001210023017143714C
:1003C000BDE88040D8B2704710B504466CB12079C2
:1003D00020B900206071204600F00AF802200121B7
:1003E000207100202061217110BD012010BD00008E
:1003F000FEB50021CDE90411CDE9021101681048D4
:1004000081421BD1C84900F514404A6842F00052AD
:100410004A604A6802F000520192019A0A6842F06A
:1004200004020A60096801F0040101910199302178
:1004300002910321039102A900F050F806B080BD9B
:100440000074004081B04FF0000C0028CDF800C0CF
:100450000CD00068002900900098104414BF14309C
:100460000830009000980360002000E0012001B0F7
:10047000704708B343790222012B2DD080B54FF08D
:10048000010C01F0100E002980F805C002710CFA71
:100490000EFC0268136843EA0C031360D2F800C034
:1004A0000CD03C210CF4701301FA0EF18B420DD1EB
:1004B000516841F0020108E001220DE00CF03C011E
:1004C0003C2903D1516841F0010151600121002212
:1004D00001714271BDE88040D0B270472DE9FE4FF6
:1004E0005D4A06274FF0000B4FF001094FF0000A5C
:1004F0000025904208BF0527584A02444FEAB2231C
:10050000052B38BF4FEAB22700F1140201970F27DD
:1005100000920A6832FA05F308BFBDE8FE8F09FAB7
:1005200005FE12EA0E0F00F093804A68032A16D9DE
:10053000112A27D0122A29D0494B9A4213D0494B6D
:100540009A421CBF484B9A420DD0484B9A421CBF5E
:10055000474B9A4207D0474B9A4204D023E0DFE84A
:1005600002F002191C208A684AB1012A009A4FF051
:10057000080A08BF00F11002C2F800E013E04FF0D3
:10058000040A10E0CA6802F1040A0CE0CA6802F129
:100590000C0A08E0D1F80CA005E0CA6802F1080ACC
:1005A00001E04FF0000A082D02462E4628BF043213
:1005B0001368314C28BF2644B40007FA04F60AFA3F
:1005C00004F4B34323431360CA79D20640D5564A94
:1005D00025F00306136843F001031360126802F06C
:1005E000010202920BF00C02244C07FA02F8DDF82B
:1005F00008C0234F2644F35923EA080C019B03FA51
:1006000002F242EA0C02F2510F274A681D4EA3681B
:1006100012F4801F0CBF23EA0E0343EA0E03A3600B
:100620009302336854BF23EA0E0343EA0E03336098
:100630009303636854BF23EA0E0343EA0E03D20315
:100640006360226854BF22EA0E0242EA0E02226070
:100650000BF1040B01355CE7001C014000F8FEBF04
:1006600000001110000012100000211000002210E4
:100670000000311000003210F8FFFF3F000401407D
:1006800008FCFFFF0C0401401B488068704700BF56
:1006900019480178826811448160704780B5074825
:1006A000016841F010010160032000F079F80F208B
:1006B00000F006F800F022F8002080BD0020024083
:1006C00070B50D4E04464FF47A713078B1FBF0F0FE
:1006D00092490968B1FBF0F000F010FB01250F2CE6
:1006E00008D838B94FF0FF3021460022002500F02D
:1006F0002BF87460284670BD1800002082B00A48AC
:10070000016841F001010160016801F001010191FE
:100710000199416841F080514160406800F080508B
:100720000090009802B0704718100240002808DBC3
:1007300000F01F010122400902FA01F1014A42F8CA
:100740002010704700E100E0B0B5144C1A4D00F0E5
:100750000F03B0F1FF3FA3F104032B4403F10C039B
:10076000C8BF03192868C0F30220051DC41E80F00D
:100770000700072D4FF0010538BF0024042828BFCB
:10078000042005FA00F00138084005FA04F10F31A1
:10079000A0401140084300011870B0BD00E400E023
:1007A00005494FF6FF030A681A4060F30A2203481E
:1007B00010430860704700BF0CED00E00000FA0530
:1007C0002DE9F04104468846002C00F08880464F11
:1007D0004FF48050395801F0070141450AD2395889
:1007E00021F0070141EA08013950385800F00700AC
:1007F000404574D1206810F0020F11D0410742BF6C
:10080000796841F4E0617960010742BF796841F499
:10081000605179607968A26821F0F0011143796034
:10082000C00727D06068012804D1396811F4003F5F
:1008300008D154E03968022802D1890102D44EE07F
:1008400089074CD5796821F0030108437860FFF7E8
:100850001BFF064641F288357868616800F00C009D
:10086000B0EB810F06D0FFF70FFF801BA842F3D932
:10087000032035E04FF48050395801F0070141451D
:100880000AD9395821F0070141EA0801395038588E
:1008900000F00700404522D1206810F0040F05D079
:1008A0007968E26821F4E06111437960000706D5B8
:1008B0007868216920F4605040EAC100786000F057
:1008C00031F87968094AC1F30311515CC8401349F2
:1008D000086007480068FFF7F3FE002000E00120F1
:1008E000C0B2BDE8F08100BF001002402828000817
:1008F0001C00002009480A4A006818490968C1F329
:100900000221515CC8407047FA48054A0068F7491F
:100910000968C1F3C221515CC8407047240000201F
:10092000382800080D490A680D4802F00C03082B0E
:1009300018BF7047C2F3834C0AA312F4803F13F828
:100940000C3002D10C4858437047096809A258433B
:10095000C1F34041515CB0FBF1F07047041002401C
:1009600000127A0002030405060708090A0B0C0DA1
:100970000E0F10100102000000093D002DE9FE4F8E
:100980008246BAF1000F00F065819AF80000D64E59
:10099000D64FC00750D0386800F00C00042819D09A
:1009A000386800F00C00082803D1386810F4803F44
:1009B00010D1DAF80400A8B1B0F5803F06D0316854
:1009C000B0F5A02F24D141F480203060306840F48D
:1009D000803023E0306810F4003F2DD0DAF80400B6
:1009E00050BB37E1306820F480303060306820F44C
:1009F00080203060FFF748FE0546306810F4003F65
:100A00001AD0FFF741FE411B03206429F5D922E1EA
:100A100021F480303060306820F480203060FFF7AF
:100A200033FE0546306810F4003F05D1FFF72CFE79
:100A3000401B6428F6D9EBE09AF800008007AC4828
:100A4000834632D5386810F00C0F1DD0386800F09E
:100A50000C00082804BF386810F4803F14D0DAF87E
:100A60001000002800F09580012059460860FFF72B
:100A70000BFE0546306810F0020F0ED1FFF704FEA2
:100A8000401B0228F6D9C3E0306810F0020F1CBFEB
:100A9000DAF81000012840F0DD803068DAF8141030
:100AA00020F0F80040EAC10030609AF8000000072A
:100AB00031D5DAF8180080B101205946C1F8800418
:100AC000FFF7E2FD0546386A10F0020F16D1FFF776
:100AD000DBFD401B0228F6D99AE000205946C1F8F8
:100AE0008004FFF7D1FD0546386A10F0020F12D0DE
:100AF000FFF7CAFD401B0228F6D989E07D484FF474
:100B0000FA510068B0FBF1F0029000BF0298411E5C
:100B100000280291F9D19AF80000400740F1818045
:100B2000B86910F0805F0BD1B8694FF0010840F050
:100B30008050B861B86900F080500190019801E0E0
:100B40004FF000086C48305810F4807F12D16A488A
:100B5000315841F480713150FFF796FD05466648E3
:100B6000305810F4807F05D1FFF78EFD401B6428BC
:100B7000F5D94DE0DAF80C00E8B1012805D0F969A3
:100B8000052830D141F00400F861F86940F0010017
:100B90002FE0002059460860FFF776FD05463068D3
:100BA00010F0020F3FF481AFFFF76EFD411B0320F1
:100BB0000229F4D94FE0F86920F00100F861F869E2
:100BC00020F00400F861FFF75FFD054641F2883927
:100BD000F86910F0020F1DD0FFF756FD411B0320EE
:100BE0004945F5D937E021F00100F861F86920F0B6
:100BF0000400F861FFF748FD054641F28834F869C2
:100C000010F0020F06D1FFF73FFD401BA042F6D9BE
:100C1000032020E0B8F1010F02BFB86920F0805036
:100C2000B861DAF81C405946002C5AD0386800F0F8
:100C30000C00082813D1012C0CD03868DAF82010E9
:100C400000F480328A4205D1DAF8241000F47010E2
:100C5000884246D00120C0B203B0BDE8F08F00202A
:100C60000866FFF711FD0546022C0AD1306810F026
:100C7000007F11D0FFF708FD411B03200229F5D9A1
:100C8000E9E7306810F0007F2BD0FFF7FDFC411B37
:100C900003200229F5D9DEE7DAF82000B0F5803F1D
:100CA00006D13968DAF8082021F40031114339609F
:100CB000396821F474110843DAF8241008433860C5
:100CC0000120CBF86000FFF7DFFC0446306810F02D
:100CD000007F06D1FFF7D8FC011B03200229F5D9BC
:100CE000B9E70020B7E700BF00100240041002403F
:100CF00000004242240000200060FEFF411E002050
:100D0000B0EB116F1CBF01207047044AF023516003
:100D100003490B70072190601160704710E000E0FC
:100D200023ED00E07047704790F83C300222012B21
:100D30002ED080B5012380F83C3080F83D20026839
:100D40005368D2F808C0B2F1804F23F0700E0B68E0
:100D500043EA0E035360BDE880400ED0474B9A42F1
:100D60001CBF474B9A4208D0464B9A421CBF464B89
:100D70009A4202D0454B9A4204D149682CF0800334
:100D8000194391600121002280F83D1080F83C2039
:100D9000D0B2704710B5044634B394F83D0028B97A
:100DA000002084F83C00204600F020F80220211D9D
:100DB00084F83D00206800F0C3FA012084F8460062
:100DC00084F83E0084F83F0084F8400084F8410035
:100DD00084F8420084F8430084F8440084F8450015
:100DE00084F83D00002010BD012010BD0068B0F166
:100DF000804F18BF7047E0B509480022016841F0F4
:100E0000010101600021006800F0010001900198DB
:100E10001C20FFF799FC1C20BDE88C40FFF786BC26
:100E20001C10024090F83D1001291CBF01207047A2
:100E3000022180F83D100068C168B0F1804F41F098
:100E40000101C1600ED00D4988421CBF0C49884287
:100E500008D00C4988421CBF0B49884202D00B497C
:100E6000884204D1816801F00701062903D0016896
:100E700041F0010101600020704700BF0004004004
:100E800000080040000C004000340140002C0140EC
:100E900010B50446022094F83C20012A70D00122AB
:100EA0004FF6777384F83C2084F83D002068826810
:100EB0009A4382600A6812B3102A20D0202A18BFF1
:100EC000302A1CD0402A21D0502A2BD0602A35D07D
:100ED000B2F5005F3ED0B2F5805F4AD0702A51D1A2
:100EE000D1E90123C9681A4342EA0121826822F448
:100EF0007F4211438160816841F0770138E0816869
:100F000021F07701114341F0070131E04B68CA68D5
:100F1000194600F069FA2068816821F0770141F0F4
:100F2000470125E04B68CA68194600F05DFA206861
:100F3000816821F0770141F0570119E04B68CA68D8
:100F4000194600F062FA2068816821F0770141F0CB
:100F500067010DE0D1E90123C9681A4342EA012182
:100F6000826822F47F4211438160816841F48041AC
:100F700081600020012184F83D10002184F83C109C
:100F8000C0B210BD0120F5E77047B0B50446206837
:100F9000C168026901EA0205A90714D56FF00201D0
:100FA000016101212177806910F0030F03D02046F1
:100FB000FFF7EAFF05E0204600F074F8204600F055
:100FC00072F800202077680715D520686FF00401BB
:100FD000016102212177806910F4407F03D020460F
:100FE000FFF7D2FF05E0204600F05CF8204600F055
:100FF0005AF800202077280715D520686FF00801DF
:10100000016104212177C06910F0030F03D020464D
:10101000FFF7BAFF05E0204600F044F8204600F054
:1010200042F800202077E80615D520686FF01001FF
:10103000016108212177C06910F4407F03D0204668
:10104000FFF7A2FF05E0204600F02CF8204600F054
:101050002AF800202077E80706D020686FF0010109
:101060000161204600F020F8280606D520686FF0C0
:10107000800101612046FFF755FE680606D520680D
:101080006FF040010161204600F030F8A80658BF1B
:10109000B0BD20686FF0200101612046BDE8B0407E
:1010A000FFF741BE70477047A4490068096888424D
:1010B00018BF704710B50C4C6078022805D0012885
:1010C00006D038B900F05CFA04E000F07BFA01E0E9
:1010D00000F0A2FAE3884B4800210022FFF7B2F9A2
:1010E000BDE81040704700BF00000020704710B5F9
:1010F00004464CB394F8410028B9002084F840001D
:10110000204600F023F8242084F841002068C168BC
:1011100021F40051C160204600F08AF9206801697D
:1011200021F490410161416921F02A014161C168C6
:1011300041F40051C16000202021606484F8411016
:1011400084F84210606310BD012010BD70B586B0F8
:101150000026CDE90466CDE90266184C006804F566
:101160004051884227D1344802AD016841F48041A2
:101170000160016801F4804101910199016841F029
:10118000040101602946006800F004000190019804
:101190004FF4007002900220039003200590204637
:1011A000FFF79CF94FF480602946CDE902062046FE
:1011B0000496FFF793F906B070BD00BF0008014028
:1011C000FEE700001CB50024EC48CDE900440E49C0
:1011D0000160FFF7F9F808B1FFF78DF8E7486946B5
:1011E0000022CDE90044FFF7C3F808B1FFF783F808
:1011F000E24869461022FFF7BBF808B1FFF77BF819
:101200001CBD00BF900000200074004082B00A485E
:10121000016841F020010160016801F020010191A5
:101220000199016841F004010160006800F00400C8
:101230000090009802B0704718100240FEB5CE48EA
:1012400000214FF080424FF6FF73CDE90411CDE944
:101250000211CDE90011C0E90021C0E902130161CA
:101260008161FFF797FD08B1FFF745F84FF4805013
:1012700002A90290C048FFF70BFE08B1FFF73BF848
:1012800000206946CDE90000BB48FFF74DFD08B1DD
:10129000FFF731F806B080BD80B50B4884494FF4A4
:1012A000E13200234FF00C0C80E80E00C0E903335C
:1012B000C0E905C3C361FFF71AFF18B1BDE880405C
:1012C000FFF719B880BD00BFEC000020FEE7FEE785
:1012D00070477047FFF7DCB9B0B590B006AC242179
:1012E000201DFEF793FF01A81421FEF78FFF0220B7
:1012F0000025069001200A9010200B9020460D95A5
:10130000FFF73CFB18B1EFF3108072B6FEE70F2039
:101310000595CDE903550021CDE9010501A8FFF7A9
:101320004FFA18B1EFF3108072B6FEE710B0B0BDFF
:10133000704700009048FFF728BE00BFA4000020BF
:101340000268B0F1804F0ED0224B98421CBF224B56
:10135000984208D0214B98421CBF214B984202D0A2
:10136000204B984203D14B6822F070021A43B0F12F
:10137000804F0ED0174B98421CBF174B984208D095
:10138000164B98421CBF164B984202D0154B984200
:1013900003D1CB6822F440721A434B6922F08002D9
:1013A0001A4302608A68C2620A6882620C4A9042EA
:1013B0001CBF0C4A904201D10969016301214161BE
:1013C000016911F0010F1EBF016921F001010161E6
:1013D000704700BF0004004000080040000C0040BF
:1013E00000340140002C0140D0F820C0036A23F0F3
:1013F00001030362836923F0F00343EA021282616E
:101400002CF00A02114301627047D0F820C0036A31
:1014100023F010030362836923F4704343EA02322A
:1014200082612CF0A00242EA0111016270470000C3
:1014300010B5044620680169E26821F44051114367
:1014400041F20C620161D4F808C0D4E904E3C16838
:1014500091434EEA0C021A431143C1604169A269EB
:1014600021F44071114341611149884202D0FFF7D4
:1014700041FA01E0FFF748FA19214843D4E9001284
:101480006FF063049200B0FBF2F06422B0FBF2F361
:1014900003FB0400322404EB0010B0FBF2F000F078
:1014A000F00200F00F0002EB03121043886010BD41
:1014B00000380140FEE7000080B5FFF7EFF8FFF7C6
:1014C0000BFFFFF7A3FEFFF77DFEFFF7B7FEFFF769
:1014D000E3FE1C481C4901601C4801601C4840F6A2
:1014E000F74101801B4840F6DA0101801A4840F2BA
:1014F0002571018019484FF442710180184840F26B
:101500001D410180174800210170174801704F21CB
:10151000164801600168164AB2FBF1F13222B1FBB4
:10152000F2F1144A1288B1FBF2F101394160FEF781
:10153000E7FE1148FFF776FC10480021FEF799FFFF
:10154000FEE700BF8C000020CDCC4C3E8800002080
:101550000A0000200C0000201000002012000020D3
:1015600008000020010000200200002028000040A8
:1015700000127A0004000020A40000209000002047
:1015800036488178012905D0C9B900F10C0100F174
:101590000A0203E000F1120100F11002128809882A
:1015A000074B1144C28933F8123003EB5101C1805B
:1015B000511C8288B1FBF2F303FB1211C181704709
:1015C000340100202548817801290ED011BB818883
:1015D000027864234A43B2FBF3FC828A00F10C03D5
:1015E000944588BF00F10A030CE0818802786423E7
:1015F0004A43B2FBF3FC828A00F11203944588BF90
:1016000000F110031B880132C38093B28B4208BFE4
:1016100000228282704700BF1048817801291CBFD8
:10162000002970478288B0F814C001894FEA52033C
:10163000BCEB520FB1FBF3F128BF4942C3881944F8
:10164000C1800CF101018BB29A1AB2FA82F25209EE
:10165000002A18BF00218182704700BF00000020CF
:10166000490050EAC12018BF04204A0D18BF40F0BD
:10167000010040F2FF72B2EB515F08BF40F0020080
:10168000012808BF052070472DE9F74F144694B094
:101690000021C4E902111599079121F00045C949BB
:1016A0008D4206DC1599C4E9000117B00020BDE8A1
:1016B000F08FC549DFF814A3A9423CDD0799C44E59
:1016C0000029C44FC44A1599534619DD00F0B8FEED
:1016D000554506D0C14AC24B00F0B2FEC4E9000134
:1016E0000AE04FF0D352BE4B00F0AAFE32463B4612
:1016F00000F0A6FEC4E9000117B00120BDE8F08F9C
:1017000000F032FB554506D0B44AB54B00F02CFB37
:10171000C4E900010AE04FF0D352B14B00F024FBC2
:1017200032463B4600F020FBC4E9000117B04FF001
:10173000FF30BDE8F08FAB49A942159978DB21F065
:10174000004183468846A84AA84B00F06FFD00225E
:10175000A74B00F009FB00F00FFD099000F03BFDE6
:1017600006460F469C4A534600F060FD43465A46E3
:1017700000F05AFE80468A46984A994B30463946D0
:1017800000F054FD2A0D01250B924246534600F00D
:101790004BFE032DC4E9000139D00B98C1F30A5167
:1017A000401A05EB45111139814230DA9148C346A0
:1017B000784400EB0510CDF80CA00C90D0E9002384
:1017C0003046394600F032FD02460B460491069041
:1017D0005846039900F034FE80468A4602460B467E
:1017E0005846039900F02CFE049B069A00F028FE50
:1017F00083460C9803913946D0E90223304600F025
:1018000015FD5A46039B00F01BFE6D1CBDE70798B3
:101810000028A2BF099817B0BDE8F08F616881F079
:1018200000416160099817B04042BDE8F08FFFE7C2
:1018300084461598C1F31301C0F30A50A0F2F530A5
:101840004FEA601800F01F06C6F120001390002038
:101850000690079041F4801E05206D4676B1664AD9
:1018600008EB00017A4452F8213002EB8101B340C9
:101870004A68139922FA01F1194305E05F4908EB20
:101880000002794451F82210A1FB0E27A1FB0C1392
:101890001A449A4234BF0123002303EB070A05EBE5
:1018A0008003D3E901B70F448F4234BF01210021E7
:1018B00093448B4411B1934502D903E0934501D27F
:1018C000012100E00021C3E901B7514445F820108F
:1018D000011EA0F10100C1DC0298059F00F100503B
:1018E000800F12900298DDE90356800000F073FC2F
:1018F000834628460D9100F085FC6FF01D0200F034
:10190000BBFECDE90E01304600F07CFC6FF03D02DD
:1019100000F0B2FE80468A46384600F073FC6FF055
:101920005D0200F0A9FE074642465346119100F0C1
:101930001BFADDE90E2300F017FA5A460D9B00F062
:1019400013FA00250E465A4628460D9B00F078FDF6
:10195000DDE90E2300F074FD4246534600F070FDB1
:101960003A46119B00F060FDDFF898A0244A5346E8
:1019700000F05CFC07468846234A244B3146284643
:1019800000F054FC3A46434600F0EEF9074688461C
:101990004FF0A84253463146284600F047FC3A46ED
:1019A000434600F0E1F9159A12F0004F04D0129A64
:1019B00081F0004152421292C4E90001129817B01E
:1019C000BDE8F08FFB21E93F7CD90240FB21F93FC4
:1019D0007370032E8A19A33B000040543163621ACE
:1019E00061B4D03DFB21394183C8C96D305FE43F0C
:1019F0000000E03F840F0000000F0000E20E000036
:101A0000182D4454FB21F93D3326A611460B113CF9
:101A10002DE9FF4D21F0004807460C46B8F1795FEB
:101A200008DA00F0A9FB002801BF0020324904B009
:101A3000BDE8F08D3A4623461046194600F0F6FB05
:101A4000054602462D480E460B460621784400F016
:101A50005DF82A46334600F0E9FBDDE902238246C1
:101A60008B463846214600F0E1FB04460F465246BD
:101A70005B462846314600F0D9FB22463B4600F043
:101A8000DFFC07468A464FF0FF322846314600F019
:101A9000F3FD1B4A90450ADA3A46534600F0D0FC63
:101AA00004B00022BDE8F04D134B00F0BDBC154A58
:101AB0004245A8BFA8F500154FF00004B8BF124D6D
:101AC00022462B4600F0BCFC0646884622462B46A2
:101AD0000020094900F0B4FC04460D463A4653463E
:101AE0003046414600F0ACFC04B022462B46BDE82F
:101AF000F04D00F099BC00000000F03FB80C000071
:101B00003333D33F0000E93F0000D23F2DE9F041DD
:101B10004F1E00EBC7010446D1E9000115461E46E1
:101B200037F006020DD02A46334600F07FFB7F1EB9
:101B300004EBC703D3E9002300F016F937F00602DF
:101B4000F1D1022F25D0042F13D0062F18BFBDE8E6
:101B5000F0812A46334600F069FBD4E90A2300F0FD
:101B600003F92A46334600F061FBD4E9082300F06C
:101B7000FBF82A46334600F059FBD4E9062300F06F
:101B8000F3F82A46334600F051FBD4E9042300F071
:101B9000EBF82A46334600F049FBD4E9022300F073
:101BA000E3F82A46334600F041FBD4E90023BDE8C0
:101BB000F04100F0D9B800002DE9FF4D054621F0B5
:101BC000004084B00C46B0F1795F0BDA2846FFF78D
:101BD00047FD042808BF00F06FF8284608B02146EA
:101BE000BDE8F08D2A460B46104600F01FFB064666
:101BF0000F462A46234600F019FB804626488A46AF
:101C000032463B4605217844FFF780FF8346109813
:101C1000029160B3214A224B4046514600F006FB38
:101C2000CDE900015A4640465146029B00F0FEFABB
:101C300082468846DDE906014FF0FF3200F01CFDC8
:101C40005246434600F0FCFB32463B4600F0EEFABB
:101C5000DDE9062300F0F4FBDDE9002300F0F0FBF2
:101C600008B02A462346BDE8F04D00F0DDBB0B4628
:101C70005A463046394600F0D9FA084A084B00F077
:101C800073F84246534600F0D1FA08B02A4623467C
:101C9000BDE8F04D00F068B8F60B00004955555509
:101CA0005555C5BF012200F0E7BC0022134610467F
:101CB000114600F009B90000024A0020110700F0A7
:101CC000DBBC000001FDFFFF00B5254B21F0004209
:101CD00087B09A4203DC0022134600922BE0214B8E
:101CE0009A4208D140B94FF00100FEF7BEFAFFF763
:101CF000DCFF07B000BD03DBFFF7D4FF07B000BD7A
:101D000002AAFFF7C1FC10F003014FF001000DD053
:101D1000012914D002291AD00DF1080C9CE80F00FB
:101D2000FFF776FE07B081F0004100BD0DF1080C11
:101D300000909CE80F00FFF73FFF07B000BD0DF1DA
:101D4000080C9CE80F00FFF763FE07B000BD0DF123
:101D5000080C00909CE80F00FFF72EFFE2E7000060
:101D6000FB21E93F0000F07F10B591EA030F48BF67
:101D700083F0004300F16C83841A71EB030C05D2ED
:101D8000121943EB0C03001B61EB0C014FEA1154D9
:101D9000A4EB135CDFF81CE11EEA430F18BF9EEAB8
:101DA000445F73D021EA045123EA0E0343F4801305
:101DB000DCF1200E32D322FA0CFE10EB0E0023FAD7
:101DC0000CFE41EB0E01CCF1200E03FA0EFE10EBDF
:101DD0000E00CCF1200E51F10001B1F5801F32D27E
:101DE00001EB045112FA0EF2BDE8104058BF7047E3
:101DF000401C38BF5FEA420218BF7047002814BF7A
:101E000020F0010041F100014FEA410313F5001FEA
:101E100038BF7047A1F1C04100F000BB012A43EB7D
:101E20000302ACF1200CDCF11F0E32BF4FF0000EAC
:101E300023FA0CF310EB030041EB0451B4EB115FF8
:101E4000D0D0A1EB045101F58011490801EB0451F8
:101E50005FEA30000ED350F1000038BF12FA0EFED8
:101E600008D1BDE81040C9E7401C38BF5FEA420214
:101E7000CAD1C3E7BDE810404FEA410313F5001F84
:101E800038BF7047A1F1C04100F0C8BA9EEA445F74
:101E900008D011EA5E0FBDE8104004BF01F0004118
:101EA00000207047BDE8104070B500F069FA00BF2F
:101EB00064FBBE3E0000E0FF02494FF0000000F06E
:101EC000A9BB00BF0000F87F2DE9C04130B4DFF8A6
:101ED000A0C23CEA111418BF3CEA131400F0EC80D5
:101EE0001CEA111481EA030544EAD57418BF1CEA00
:101EF000131500F0C780A4EB050404F17F7404F50A
:101F000000344FF0004545EAC12145EAC32341EAC8
:101F1000505143EA52534FEAC0204FEAC22299423D
:101F200008BF904200F09C804FEA13650FF2401604
:101F3000765D4FEA134506FB05F7C7F1807706FB90
:101F400007F74FEAD737A7FB03687642A7FB06CE11
:101F5000C8F5803838BFA8F1010807FB08E6A6FBE2
:101F6000028C4FF0000EE6FB03CEDCF1000CCEF14C
:101F7000004E38BFAEF1010EA6FB0C584FF0000723
:101F8000E6FB0E87A1FB08C6A0FB07CE16EB0E06EC
:101F90004FF0000545F10005E1FB076515F1E04E46
:101FA0007EBFA4F580345FEA46066D4116F18007D6
:101FB00045F100054FEA172747EA05674FEA15255F
:101FC0004FEA0666A6F1DE46B6F1805F1FD93846B5
:101FD00005EBC47124F0010C01EB0C11BCF1FE6F98
:101FE00002D8F0BCBDE8008124425CBF01F5801E30
:101FF0009EEAC47F02D4F0BCBDE80081244238D4FC
:10200000A1F1C041F0BCBDE8004100F007BA4FEAC1
:10201000D02040EA41504FEAD1214FEAD22242EA91
:1020200043524FEAD323A7FB028607FB036605FB57
:1020300002661EEA0E0F58BFA6EB0056B6EB00561E
:102040004FEA520E4EEAC37E18EB0E0E56EB530EBD
:10205000BDD518EB02085E417F1C55F10005B6E7BF
:102060004FF480154FF000074FF000064FF00008C6
:10207000ADE701F1C04101F000414FF00000F0BCBC
:10208000BDE800810CEA131511EA0C1F00D00CE02A
:1020900013EA0C1F00F025804FF0000081EA0301D5
:1020A00001F00041F0BCBDE80081F0BCBDE800419A
:1020B00081EA030100F0B2B9F0BCBDE8004170B59F
:1020C00000F05EF9097EFC3E00F007B84FF000001A
:1020D00081EA030101F00041704781EA030100F049
:1020E0009DB9F0BCBDE8004122494FF000007047A7
:1020F000FFFDFBF9F7F5F4F2F0EEEDEBE9E8E6E4CD
:10210000E3E1E0DEDDDBDAD8D7D5D4D3D1D0CFCD53
:10211000CCCBCAC8C7C6C5C4C2C1C0BFBEBDBCBB8C
:10212000BAB9B8B7B6B5B4B3B2B1B0AFAEADACAB87
:10213000AAA9A8A8A7A6A5A4A3A3A2A1A09F9F9E61
:102140009D9C9C9B9A999998979796959594939313
:10215000929191908F8F8E8E8D8C8C8B8B8A8989AA
:10216000888887878685858484838382828181802D
:102170000000FF070000F87F4FEA41034FEA535386
:10218000A3F58063D3F11E03C8BFD3F1210C0CDD8E
:102190004FF0004242EAC12242EA505232FA03FCB6
:1021A0008CEAE17CACEBE1707047102BC4BF0020DF
:1021B000704703F5787CBCF1FF3F04D06FF000421C
:1021C00082EA2100704770B500F0DAF84992248065
:1021D00000207047F2E710F0004248BF4042B0FADA
:1021E00080F310FA03F10AD0C3F11D0303F58063F5
:1021F00002EB03524FEA415002EBD12170474FF0FE
:1022000000007047B0FA80F310FA03F10AD0C3F16E
:102210001D0303F580634FEA03524FEA415002EB7E
:10222000D12170474FF000007047000070B5DFF813
:1022300048C11CEA111E1EBF1CEA13159EEA0C0FB2
:1022400095EA0C0F00F06F8081EA03044EEAD47E19
:10225000AE4421EA4C1123EA4C1341F4801143F4BB
:102260008013AEF17F7EA1FB024CA0FB0365361903
:1022700055EB0C05A1FB034C4CF10003A0FB021C29
:1022800016EB0C06654153F10003094218BF46F0F6
:10229000010613F4007F0BD14FEA03314FEA0530FA
:1022A00041EA155140EA165034036FF003020AE088
:1022B0004FEAC3214FEAC52041EA555140EA565042
:1022C000F4026FF0020202EB2E4201EB025585EAA6
:1022D000CE710AD05FEA440C18BF24F0004450F1DC
:1022E000000041F1000120EAD47040F2FE7C62451A
:1022F00000D270BDA84214BF4FF080444FF040445C
:10230000002E08BF0024BEF1806FA8BFA1F1C0411C
:10231000BDE8704080F2828001F1C04101F00041CF
:102320004FF0000070470CEA13159EEA0C0F18BF1F
:1023300095EA0C0F06D081EA030E4FF000000EF074
:10234000004170BD00F01CF88900013E00F007B8A4
:1023500000F009B84FEA430C5FEA5C5C08D081EA00
:10236000030100F05BB84FEA410C5FEA5C5CF6D118
:1023700002494FF0000070470000FF070000F87F9F
:102380000EF1020E2EF0030E5EF8046B364205D4F9
:10239000012A43EB030515F5001F12D8012841EB74
:1023A000010C1CF5001F0CD80ED14FEAD17C0CEBB0
:1023B0004C0C0CF1020C15F5001F08BF4CEBD37C44
:1023C00004E04FF0080C01E04FEAD37C0CEB4C0525
:1023D00026FA05F606F00706B6F1040C06D20EEB57
:1023E000860CBDE870404CF0010C6047DFE80CF053
:1023F000090B02024FF00041A1F500214FF000004F
:1024000070BD19461046012851EB010418BFD4F5E0
:10241000001484BF002001F0004170BD0808A0F541
:1024200000114FEA3101704710B591EA030F81F0B6
:1024300000413FF5A1AC83F0004300F009B8000073
:1024400010B591EA030F48BF83F000433FF594AC09
:10245000841A71EB030C07D28CF0004C121943EB79
:102460000C03001B61EB0C014FEA1154A4EB135C4D
:10247000DFF89CE11EEA430F18BF9EEA445F00F0BC
:10248000B08021EA045123EA6E035242C3EB6E038B
:1024900038BF5B1EDCF1200E25D322FA0CFE10EBB8
:1024A0000E0043FA0CFE41EB0E01CCF1200E03FAB4
:1024B0000EFE10EB0E00CCF1200E51F1000129D4DC
:1024C00001EB045112FA0EF2BDE8104058BF7047FC
:1024D000401C1CBFB2F1004F704700280CBF491CC4
:1024E00020F00100704712EB020E43EB030218BF0D
:1024F0004FF0010E4EEA4202ACF1200CDCF11E0E50
:1025000054D943FA0CFE10EB0E00CCF11E0E51F123
:10251000FF31D5D50EF1010E12FA0EFE404141EB0E
:10252000010101EB445C5FEA5C5C10D901EB0451F2
:1025300010EBDE7038BFBEF1004FBDE8104018BF91
:10254000704700280CBF491C20F00100704730D2B2
:102550004FEAD42C24F4006411F500111BD0B1FA19
:1025600081F20B3AA41AA41ED2F12003914030FA52
:1025700003F31943904001EBCC7101EB0451002CA3
:10258000BDE81040A8BF704701F1C04101F0004113
:102590004FF000007047B0FA80F310FA03F100D159
:1025A00010BDE41A173C4805C90AE4E701EB0451E1
:1025B00010BD49104FEA300001EB0451BDE8104056
:1025C00002E04FF0000170474A0008BF0042F8D017
:1025D000B2F5001F28BF704701F000414FF0000026
:1025E00070479EEA445F07D011EA5E0FBDE81040D5
:1025F00004BF002100207047BDE8104070B5FFF710
:10260000BFFE00BF40DFF63E104683F0004170473A
:102610000000E0FF0CF00F03092B08BF082000F0BA
:1026200059800A2B0BD0082B18BF704708BF1CF02D
:10263000400F0AD04FF000004FF0000170471CF02F
:10264000400F18BF4FF0004070471CF0100F08D02B
:1026500000F07F4220F0704342EAD3014FEA43701A
:10266000704700F0604021F07F4242EA000201F032
:102670007F4040EA727070474FF0FF0C4CF4E06C02
:102680001CEA11531CBF9CEA030C9445C2BFDA42FA
:1026900001EB02517047002B0DD0BCF1000F0FD0A1
:1026A00001F00041002AA4BF41F0E04141F07F6108
:1026B0004FF00000704701F000414FF000007047FC
:1026C00050EA01334FF09B0C18BF4CF0806C7FF444
:1026D000F3AB70471CF4801F11D01CF4E02F03D023
:1026E0006FEACC31490070474FF04050EFF3008261
:1026F00022F0704242EA000282F3008870474FF0F5
:1027000000007047000000004C5555555555A53F39
:102710007751C1166CC156BF9015CB19A001FA3E76
:10272000AD529C804F7E92BEC4B1B4BD9EEE213EA0
:10273000D43888BEE9FAA8BD00004054FB21F93F17
:102740003163621A61B4D03D0000601A61B4D03DBB
:102750007370032E8A19A33B0000002E8A19A33B35
:10276000C14920259A837B39000000000000000049
:102770006E83F9A22915444ED15727FCC0DD34F5EC
:10278000999562DB4190433CAB6351FE61C5BBDE72
:102790003A6E24B7E0D24D42EA2E49061C92D10986
:1027A0001CEB1DFE3EA729B1F53582E88444BB2E03
:1027B00026709CE9417E5FB439D69139F439538350
:1027C0008B5F849C3B28F9BDFF97F81F0F9805DEAF
:1027D0008B112FEF1F6D0A5ACF7E366DB709CB27AD
:1027E000663F464F2DEA5F9EC7BA27757BF1E5EB42
:1027F000F739073DEA92528AB15FFB6B085D8D1F86
:10280000A6F810111111813FD561C119A0012ABF8D
:102810007DFEB157E31DC73EEB9C2B8AE6E55ABE11
:102820007CD5CF5A3AD9E53D0000000000000000F9
:102830000102030406070809000000000102030466
:102840006028000800000020280000006C0100083B
:102850008828000828000020A0080000880100083F
:1028600032000000640000000000000000000000D2
:102870000000000000000000010000001000000047
:082880000000000000127A00C4
:0400000508000131BD
:00000001FF
