:020000040800F2
:1000000078700024AD020008777E0008BD68000803
:10001000757E0008E50A000825950008000000002C
:100020000000000000000000000000004181000806
:100030009115000800000000797E00084381000847
:10004000C7020008C7020008C7020008C70200086C
:10005000C7020008C7020008C7020008C70200085C
:10006000C7020008C7020008C7020008250F0008E1
:10007000550F0008C7020008C7020008C7020008A1
:10008000610F00086D0F0008C7020008C7020008D2
:10009000C7020008C7020008C7020008C70200081C
:1000A000C7020008C7020008C7020008C70200080C
:1000B000B9820008C5820008D1820008C702000882
:1000C000C7020008C7020008C7020008C7020008EC
:1000D000C702000819950008C7020008C7020008F7
:1000E000C7020008C702000800000000C70200089D
:1000F000C7020008C7020008C7020008C7020008BC
:10010000C7020008C7020008DD820008C702000815
:1001100035870008C7020008E9820008C702000806
:10012000C7020008C7020008C7020008C70200088B
:10013000C7020008C7020008C7020008C70200087B
:1001400000000000000000000000000000000000AF
:10015000C7020008C7020008C7020008C70200085B
:10016000C7020008C7020008C7020008C70200084B
:10017000C7020008C7020008C7020008C70200083B
:10018000C7020008C7020008C7020008C70200082B
:10019000C7020008C7020008C7020008C70200081B
:1001A000C7020008C7020008C7020008C70200080B
:1001B000C7020008C7020008C7020008E968000873
:1001C000E1680008C7020008C7020008C70200086B
:1001D000C7020008C7020008C7020008C7020008DB
:1001E000C7020008C7020008C7020008C7020008CB
:1001F000C7020008C7020008C7020008C7020008BB
:10020000C7020008C7020008C7020008C7020008AA
:10021000C7020008C7020008C7020008C70200089A
:10022000C7020008C7020008C7020008000000005B
:10023000C7020008C702000800000000C70200084B
:10024000C7020008C7020008D90A0008C702000850
:10025000C7020008C7020008C7020008C70200085A
:10026000C7020008C7020008C7020008C70200084A
:10027000C7020008C7020008C7020008000000000B
:10028000C7020008C7020008C702000800000000FB
:1002900000000000C7020008DFF80CD000F05AFA96
:1002A000004800477D9E000878700024064880477B
:1002B00006480047FEE7FEE7FEE7FEE7FEE7FEE74B
:1002C000FEE7FEE7FEE7FEE7058200089902000868
:1002D0002DE9F05F0546002092469B46884606467B
:1002E000814640241BE0284641464746224600F00E
:1002F00069F853465A46C01A914110D31146184620
:10030000224600F050F82D1A67EB01084F462246AE
:100310000120002100F047F817EB00094E41201E94
:10032000A4F10104DFDC484631462A464346BDE8D5
:10033000F09F40EA01039B0703D009E008C9121FA0
:1003400008C0042AFAD203E011F8013B00F8013B8F
:10035000521EF9D27047D2B201E000F8012B491EBB
:10036000FBD270470022F6E710B513460A46044652
:100370001946FFF7F0FF204610BD30B50B46014689
:1003800000202022012409E021FA02F59D4205D334
:1003900003FA02F5491B04FA02F52844151EA2F1DE
:1003A0000102F1DC30BD202A04DB203A00FA02F120
:1003B000002070479140C2F1200320FA03F3194353
:1003C00090407047202A04DB203A21FA02F00021F5
:1003D000704721FA02F3D040C2F120029140084355
:1003E000194670472DE9FE4F804681EA0300C00F91
:1003F0000C46009021F0004123F00045B8EB0200CC
:10040000A94105D24046214690461C460B4602466D
:1004100023F00040104347D0270DC7F30A00C3F371
:100420000A510290401A019040286BDAC3F313007E
:1004300040F4801B0098924620B10023D2EB030ABF
:1004400063EB0B0B01985946C0F140025046FFF791
:10045000AAFF06460D4650465946019A00F08CF90F
:1004600010EB08006141002487EA115284EAE77327
:100470001A4340D0009A62B3019A012A4FEA075208
:1004800015DC001B61EB02014FF0004202EA07524B
:10049000CDE90042001C41F5801132462B4600F0A8
:1004A0008CF903B0BDE8F08F40462146F9E7001B08
:1004B00061EB0201001C41F5801300185B4120181C
:1004C000A2F5001747EB030140EAD570B6196D415C
:1004D00011E06D084FEA360645EAC0754FEA07524B
:1004E000001B61EB0201001C41F5801149084FEA35
:1004F00030000019514132462B4603B0BDE8F04FA1
:1005000000F04CB90098012240000023D0EB020219
:1005100063EBE073009821464FEAE074B8EB00000B
:1005200061EB0401E9E783F000435BE781F0004100
:1005300058E72DE9FE4F81EA030404F0004421F05E
:10054000004100944FF0000B23F0004350EA0104F7
:100550005ED052EA03045BD0C3F30A54C1F30A55D8
:100560002C44A4F2F3340194A0FB0254C1F3130110
:1005700041F48011C3F3130343F4801301FB0244DD
:1005800000FB034E840A970A44EA815447EA8357E2
:10059000A4FB076802958D0A05FB07854FEA932C9B
:1005A00004FB0C542705029D4FEA065847EA16370C
:1005B000B5EB08056EEB070C870E920E47EA811724
:1005C00042EA8312A7FB0201B6EB0B0164EB0004C5
:1005D0002B0D43EA0C335E1844EB1C50DA465146AF
:1005E000E7FB0201C5F313044FEA0B3343EA14534C
:1005F0004FEA0432019C43EA0603A4F10C0402947E
:10060000009CCDE900B400F0D8F803B0BDE8F08F4D
:1006100000200146F9E72DE9F04D81EA030404F0DA
:10062000004B21F0004514464FF0000A23F0004132
:1006300050EA050220D054EA01021DD0C5F30A5742
:100640000246C5F31303C1F31300C1F30A5640F485
:10065000801543F48013A7EB0608101BD64608F25A
:10066000FD3873EB050002D308F1010801E0921890
:100670005B41B8F1000F03DA00200146BDE8F08DC0
:1006800000204FF48011064684460EE0171B73EBE2
:10069000050705D3121B63EB050306434CEA010C67
:1006A00049084FEA300092185B4150EA0107EDD14A
:1006B00052EA030012D082EA040083EA05010843EB
:1006C00005D0101BAB4106D20122002306E0002218
:1006D0004FF0004302E06FF0010253101AEB0600E6
:1006E0004CEB085110EB0A0041EB0B01BDE8F04D5B
:1006F00000F054B8C1F30A52C1F3130140F2FF33C2
:1007000041F480119A4202DA00200146704740F21B
:1007100033439A42A2F2334202DC5242FFF752BE06
:10072000FFF741BE30B5041E71F1000404DB4FF049
:100730000044404264EB0101141E73F1000405DB28
:100740001C464FF00043524263EB0403994208BF3A
:10075000904230BD064C074D06E0E06840F00103D2
:1007600094E8070098471034AC42F6D3FFF798FDA1
:100770009CBF0008BCBF0008202A06DBCB17203A2C
:1007800041FA02F043EAE07306E041FA02F3D04096
:10079000C2F12002914008431946704710B5141E5B
:1007A00073F1000408DA401C41F1000192185B412A
:1007B0001A4301D120F0010010BD2DE9F04D924601
:1007C0009B4611B1B1FA81F202E0B0FA80F2203218
:1007D0009046FFF7E8FD04460F4640EA0A0041EA6A
:1007E0000B0153465A46084313D0114653EA010001
:1007F00019D0C8F140025046FFF7E4FD05460E4609
:10080000504659464246FFF7CEFD084305D0012029
:1008100004E020463946BDE8F08D0020054346EA55
:10082000E0762C4337430A986305E40AA0EB0800FE
:100830000022FD0A44EA47540A3002D5002001464E
:10084000E9E7010510196941DDE908450019694129
:10085000BDE8F04DA2E770B58C1810F8015B15F0FB
:10086000070301D110F8013B2A1106D110F8012B22
:1008700003E010F8016B01F8016B5B1EF9D12B0747
:1008800005D40023521E0DD401F8013BFAE710F8FD
:10089000013BCB1A921C03E013F8015B01F8015BEA
:1008A000521EF9D5A142D8D3002070BDB0B5044680
:1008B0002068394940F48070884214BF384837486E
:1008C000006810F4403F10D004F0E0F9054660687D
:1008D000B0F5803F05D0B0F5403F22D0B0F5003FE5
:1008E00020D1000CB5FBF0F51CE04FF400200021F6
:1008F00003F0FCFA05466068A0F580214FEAB1419B
:100900000A290FD8DFE801F00606060606063D3F75
:100910004143450047F6FE7101EA5040B5FBF0F552
:1009200000E0AD0802F0A2FD216841F2030290420E
:1009300009D888681E4B20F480729D4288BF40F41D
:1009400080728A60B0BD1748854204D851F8080FFC
:1009500020F4407013E01448854205D851F8080F80
:10096000012262F309200AE051F8082F0223104601
:1009700063F309200D4B9D4228BF42F4407008608C
:10098000B0BD2D09CEE76D09CCE7AD09CAE7ED0989
:10099000C8E72D0AC6E700BF002102400823024035
:1009A0000863025821BCBE0041787D0182F0FA0242
:1009B000002D3101B0B50446002021688B688A689B
:1009C00013F0020F2DD112F0010208BFB0BD8868EC
:1009D00000F00D0001281BD188683C4A104040F00F
:1009E000020088600320086002F046FD054620688A
:1009F000806810F0010F04BF0020B0BD02F03CFD84
:100A0000401B0328F3D32068806810F0010FEED05C
:100A1000606D40F010006065A06D40F00100A065C1
:100A20000120B0BDF8B504462068816811F0010FBF
:100A300049D18168254E06F17F02114209D0606DCF
:100A400040F010006065A06D40F00100A06501203D
:100A50003AE08168314041F00101816002F00CFD13
:100A6000054620681A491B4F01F5807201F5407355
:100A7000904208BF1F468842014608BF1F46904269
:100A8000BB6804BF42F20001C4F2020113F01F0F61
:100A900018BF814217D1016811F0010F13D181688D
:100AA00011F0010F01BF8168314041F00101816007
:100AB00002F0E2FC411B20680329ECD3016811F02D
:100AC000010FE8D1BBE7002001B0F0BDC0FFFF7F00
:100AD0000020024000630258014801F08BBD00BFB6
:100AE000BC420024FEE7000070B52DED068B78486F
:100AF0009FED710B90ED008AB7EEC81A81EE000BE6
:100B00000AF0E4F87348B7EEC00B9FED741A74490D
:100B1000B6EE006BDFF8DCC3724CB7EEC05A80ED66
:100B2000000A6D48B1EE400AB7EEC00A90ED002A07
:100B3000EB4882EE011A9FED622B80ED001AE94826
:100B4000B7EEC11A21EE021BB0F800E01E2031EE14
:100B5000052BBEF11E0F38BF32200880E34991ED0E
:100B6000014A91ED003AE249B7EEC44AB7EEC33A02
:100B7000B0EE447BB0EE449BB0EE44AB02EE037BA0
:100B800035EE412B27EE065B9FED4F7B02EE039B7C
:100B900085EE045B30EE412B31EE000B29EE069B17
:100BA00002EE03AB25EE072B89EE045BB0EE449B0F
:100BB0002AEE061BBCEEC22B00EE039B81EE040B5B
:100BC00025EE075B12EE102ABCEEC51B29EE062BA4
:100BD00020EE070B0A8011EE101A82EE041B21EEA4
:100BE000071BBCEEC11BACF80010511AC44ABCEE86
:100BF000C00B11EE103A2380C04B10EE104A11804A
:100C0000C0491C800978C04AC04C022906D8C900D6
:100C100040F20125CD40BE490D7001E0BC490D7880
:100C2000BC49B5EEC08A0026EDB2F1EE10FAA8BFBD
:100C30000126002D0E7012D0012D24D0022D37D1A7
:100C400044F61F6180B2116011680131B4FBF1F10B
:100C5000B1FBFEF1B1FBF0F00138506028E044F642
:100C60001F6180B2116011680131B4FBF1F1B1FB79
:100C7000FEF1B1FBF0F001385060BDEC068BBDE831
:100C8000704000F0CDBC44F61F6580B21560156859
:100C90000135B4FBF5F4B4FBFEF6B6FBF0F0013819
:100CA000506008789E49002808BF6346188808806D
:100CB000BDEC068B70BD00BF0000000000408F40FF
:100CC00039B4C876BE9FE63F000000000000B04087
:100CD00078000024480300247C00002400007A44AB
:100CE000E2000024EE000024F8B52DED068B7848D4
:100CF0009FED710B90ED008AB7EEC81A81EE000BE4
:100D000009F0E4FF7348B7EEC00B9FED741A764903
:100D1000B6EE006BDFF8DCC1774CB7EEC05A80ED61
:100D2000000A6D48B1EE400AB7EEC00A90ED002A05
:100D30006B4882EE011A9FED622B80ED001A694824
:100D4000B7EEC11A21EE021BB0F800E01E2031EE12
:100D5000052BBEF11E0F38BF32200880634991ED8C
:100D6000014A91ED003A6249B7EEC44AB7EEC33A80
:100D7000B0EE447BB0EE449BB0EE44AB02EE037B9E
:100D800035EE412B27EE065B9FED4F7B02EE039B7A
:100D900085EE045B30EE412B31EE000B29EE069B15
:100DA00002EE03AB25EE072B89EE045BB0EE449B0D
:100DB0002AEE061BBCEEC22B00EE039B81EE040B59
:100DC00025EE075B12EE103ABCEEC51B29EE062B92
:100DD00020EE070B0B8011EE101A82EE041B21EEA1
:100DE000071BBCEEC11BACF80010591A444BBCEEFB
:100DF000C00B11EE102A2280404A10EE104A1980D2
:100E0000404914800978404B404C022906D8C9005B
:100E100040F20125CD403E490D7001E03C490D787E
:100E20003C49B5EEC08A00270026EDB2F1EE10FA7B
:100E3000A8BF0127002D0F70374F3E80374F3E80EF
:100E40000FD0012D1FD0022D2FD1196880B2013192
:100E5000B4FBF1F1B1FBFEF1B1FBF0F001385860E9
:100E600023E0196880B20131B4FBF1F1B1FBFEF16E
:100E7000B1FBF0F001385860BDEC068B01B0BDE865
:100E8000F04000F0CDBB1D6880B20135B4FBF5F435
:100E9000B4FBFEF7B7FBF0F0013858600878204942
:100EA000002808BF624610880880BDEC068B01B0A0
:100EB000F0BD00BF00BF00BF0000000000408F4039
:100EC00039B4C876BE9FE63F000000000000B04085
:100ED00078000024480300247C00002400007A44A9
:100EE0004403002468000024E2000024D40000240D
:100EF000E6000024E8000024EE000024F0000024B6
:100F0000E4000024670000242810004000C2EB0B1E
:100F100040030024E1000024EA000024F200002441
:100F2000EC00002410B5084801F064FB0748084CA9
:100F3000012101602046002104F000FF2046042129
:100F4000BDE8104004F0FABE344300244C000024F5
:100F50001C460024014801F04DBB00BFC001002425
:100F6000014801F047BB00BF40020024014801F0E6
:100F700041BB00BFC00200240168254A91422CD029
:100F8000244A91421CBF244A914226D0234A9142CE
:100F90001CBF234A914220D0224A91421CBF224AC0
:100FA00091421AD0214A91421CBF214A914214D049
:100FB000204A91421CBF204A91420ED01F4A9142C2
:100FC0001CBF1F4A914208D01E4A91421CBF1E4AB4
:100FD000914202D01D4A914217D16FF00F0218239F
:100FE00052FA81F2B2FBF3F35F2A03F0070C18A365
:100FF00013F80C30C36540F2FF3321EA030188BFC8
:1010000041F0040181650846704721F0FF01F9E7CE
:1010100010000240280002404000024058000240F8
:101020007000024088000240A0000240B800024068
:1010300010040240280402404004024058040240C8
:101040007004024088040240B8040240A004024038
:10105000000610160006101610B502681E4CB44BA0
:101060009A421CBFB34B9A420ED0B34B9A421CBF5C
:10107000B24B9A4208D0B24B9A421CBFB34B9A4231
:1010800002D0B04B9A4211D1D3B2A3F1080114227D
:10109000B1FBF2F304EB830104F1800203F01F03C0
:1010A0000124603004FA03F30EC010BDA4F55B7197
:1010B000D3B28A42E9D0094CA3F110011823B1FB45
:1010C000F3F10B46A24204F1AA0488BF0833A242FE
:1010D00028BF0B46024CDDE7005802580F040240BF
:1010E0000008024001790139072988BF7047B0B56F
:1010F00002681A4D1A4C8E4B4FF0010C9A421CBFDD
:101100008C4B9A4216D08C4B9A421CBF8B4B9A4206
:1011100010D08B4B9A421CBF8A4B9A420AD08B4B01
:101120009A424FF001031FBF0E4B1A44B2FA82F2EB
:10113000530900E00123002B04F1400218BF2C46A4
:10114000002B04EB810418BF05F140020CFA01F1F9
:10115000C0E91B424167BDE8B040704700590258E2
:10116000000902406CABFDA7B0B5D0F800C0D0F8C4
:1011700058E05F4CA44544D05E4CA4451CBF5E4C77
:10118000A4453ED05D4CA4451CBF5D4CA44538D061
:101190005C4CA4451CBF5C4CA44532D05B4CA445C0
:1011A0001CBF5B4CA4452CD05A4CA4451CBF5A4CC8
:1011B000A44526D0594CA4451CBF594CA44520D069
:1011C000584CA4451CBF584CA4451AD0574CA445B4
:1011D0001CBF574CA44514D0564CA4451CBF564CBC
:1011E000A4450ED0554CA4451CBF554CA44508D071
:1011F000544CA4451CBF544CA44502D0534CA445A8
:1012000074D1D0E919456560C46E14B1D0E91C45AC
:101210006560374CA44545D0364CA4451CBF364CC0
:10122000A4453FD0354CA4451CBF354CA44539D00E
:10123000344CA4451CBF344CA44533D0334CA44596
:101240001CBF334CA4452DD0324CA4451CBF324C9E
:10125000A44527D0314CA4451CBF314CA44521D016
:10126000304CA4451CBF304CA4451BD0364CA44583
:101270001CBF2F4CA44524D02E4CA4451CBF2E4C83
:10128000A4451ED02D4CA4451CBF2D4CA44518D000
:101290002C4CA4451CBF2D4CA44512D0234CA44576
:1012A00018BFB0BDC46D3F2504F01F0405FA04F457
:1012B000CEF80840DCF8005025F48025CCF800502A
:1012C00007E0C46D012504F01F0405FA04F4CEF80C
:1012D0000440CCF8043080684028084608BF104617
:1012E000CCF8080008BF0A46CCF80C20B0BD00BFFF
:1012F0001000024028000240400002405800024016
:101300007000024088000240A0000240B800024085
:1013100010040240280402404004024058040240E5
:101320007004024088040240A0040240B804024055
:10133000085402581C54025830540258445402585D
:10134000585402586C54025894540258805402580D
:10135000B0B500F04DF88D4C002504E050B10120EF
:1013600008F0E0F901352046802102F075F8E9B275
:10137000C729F3D9C72901D9012011E0002504E0CC
:1013800050B9012008F0CEF901352046802102F045
:1013900063F8E9B2EF29F3D90020EF2988BF0220D2
:1013A000C0B2B0BD10B500F0B7F800F083F8FFF799
:1013B000CFFFCC2000F0BEF8BE2000F0BBF800F05C
:1013C00067F8044600F064F8712802D3E443002073
:1013D00001E00006001450FA84F04FF6FF71084255
:1013E00000B208BF404200EE100AB8EEC00A10BDBD
:1013F000FEB5802001A9019000200290634801F011
:1014000061FF06B080BD00BFFEB5802001A901903C
:1014100001200290022004905C4801F053FF06B0C6
:1014200080BD00BFFEB5802001A901900120CDE95B
:10143000020002200490554801F044FF00F03AF801
:10144000FFF786FF06B080BDB0B5FFF7DDFF4F4C5C
:1014500080210022204602F004F80C4D0220A8470B
:1014600020468021012201F0FCFFFFF7C1FF0C2084
:10147000A8472046802101F0EFFF04463220A8470C
:10148000002C18BF01242046B0BD00BF25970008DE
:10149000B0B500200124E1B2082984BFC0B2B0BDBC
:1014A00000F0FE05FFF7D0FFC001013440EA55000F
:1014B000F1E7000010B5FFF7A7FF344C80210022B0
:1014C000204601F0CEFF40F2EE2008F02BF9204636
:1014D0008021012201F0C5FF0F20BDE8104008F077
:1014E00021B900BF10B5FFF7E5FF0A4CCC20A0479B
:1014F0004E20A0477F20A0478020A0471F20A04764
:10150000FFF7D8FFCC20A04748202146BDE8104077
:10151000084700BF3515000880B5FFF7CBFFFFF780
:1015200017FFCC2000F006F84420BDE8804000F012
:1015300001B80000F8B50446FFF766FF0126F0B2D7
:10154000082888BFF8BD114D80210022284601F0EF
:1015500088FFC4F3460714F0010F09D13C2008F0BE
:10156000E1F828468021012201F07BFF022008E0FB
:10157000022008F0D7F828468021012201F071FFEF
:101580003C2008F0CFF801363C46D8E7000002586E
:101590007047EFF3108072B6FEE70000F8B50C4616
:1015A000054601F069FF06466F1C1348016811F0FB
:1015B000040F09D0002FF8D001F05EFF0321C5B160
:1015C000801BA842F1D914E0012C11D101680B4A0B
:1015D000114006D00A4A93690B439361416001218F
:1015E00007E0016811F4803F1CBF4FF48031416077
:1015F0000021C8B201B0F0BD102000520000EE176B
:10160000C4680024034804490022C0E90021C0E95D
:1016100002217047A00100240000F0BF000000007C
:10162000F8B52DED028B184D9FED158B174E00244C
:101630001CE000EE104A01EE100AB8EEC00BB8EE46
:10164000411BAF8820EE080B80EE010B09F048FB30
:10165000780801EE100AB8EE411B20EE010BBDEE3A
:10166000C00B10EE100A26F814000134688884427A
:10167000DFDBBDEC028B01B0F0BD00BF00BF00BFDF
:101680004AD8124DFB211940E0000024E4680024F0
:101690007CB50446002016460D46019094F8500093
:1016A000012801D1022039E0012084F850002046B1
:1016B000FFF780F9616D10B141F010012AE041F2AD
:1016C000021021EA000005F4803140F0020060655C
:1016D00006F08040014320688268114B1A40114394
:1016E00041F0004181608168B1F1FF3F0DDC01995B
:1016F000013101910B49019A8A42F4D3606D20F0C7
:10170000120040F01001012004E0616D012060F33F
:10171000010100206165002184F8501002B070BD05
:10172000C0FFFE3F00F8C32590F85020012A01D1E8
:10173000022132E07CB5012280F850200022019283
:1017400000920368E44A93421DD1D2F8085194688C
:1017500025436D0717D4D1F800C0D2F80853224EA4
:1017600025F44044BCF1000F19D04D6843F4807358
:101770002543C2F80853DA4CA3421CD19368D2F82F
:101780000861334318E0416D41F0200141650121BA
:10179000002280F85020BDE87C40C8B27047C2F8F3
:1017A000084343F48071CE4B994211D19168D2F82D
:1017B000083119430DE03368DB0713D1D2F8083341
:1017C000896840F61F76B34343EA0C03194307E0E8
:1017D0003168C90706D1D2F8081340F61F73994340
:1017E000C2F808130021D3E7086002582DE9FC4134
:1017F000044600200D46019094F85000012801D1C4
:10180000022331E1012084F850002068816811F042
:10181000040F40F021812968AA4BB1F1FF3F11DD8F
:1018200091FAA1F2194298464FF00103B2FA82F2FE
:1018300008BF8A0E02F01F0203FA02F2C3691A43BC
:10184000C26100E098466A68890E1F2601F01F01F8
:1018500002F01F03C2F3012200EB82029E40994076
:10186000176BB7433943116381688268D20842EA33
:101870009101C9076FD12968AA6805F00DFF924848
:10188000036820686969C26803F07043B3F1805F40
:1018900002D102F01C0306E0D2064FF0100258BF3E
:1018A0001C22C36813402A69042A27D1026E2B68C0
:1018B00002F0F8429906B2EB836F02BF026E22F08B
:1018C00000420266426E02F0F8428A4202BF426E55
:1018D00022F000424266826E02F0F8428A4202BF63
:1018E000826E22F000428266C26E02F0F8428A42A4
:1018F00002BFC16E21F00041C1662CE0734E06EAC2
:10190000530399402B6803F0F843194300F1600337
:1019100053F8227007F00047394343F822102A6930
:10192000697E53F82270012927F0004708BF47F06D
:10193000004743F822700022297E012908BF4FF496
:101940000062296901F01F0102FA01F1026922F423
:10195000F04211430161816811F0010F41D1D5F8C6
:1019600000C0EB685A4ED0F8C01003F0180746EAE2
:101970000C060CEA080228FA07F786EA0806174060
:1019800031403943C0F8C01052498B4226D19CFAED
:10199000ACF1002A4FF08067B1FA81F108BF4FEA3D
:1019A0009C614A1C07EB8161012702F01E0301F0D4
:1019B000F84102F01F020A2B07FA02F728BF41F094
:1019C00000710A2B28BF0A3A394302EB420241EA6E
:1019D0000251AA6805F060FED5F800C0BCF1FF3FD7
:1019E00001DD00233DE02268D64D3C4805F58071BD
:1019F00005F540738A42194618BF00F54071AA42A6
:101A000008BF19468B68B54E42F48071B14205D1CA
:101A1000A968D5F8087147EA010600E08668F10771
:101A20001AD103F0E076190229D42E498C4526D12B
:101A30008242D6D1D0F8081321F0E071314341F44D
:101A40000001C0F80813A2480068A249B0FBF1F0F9
:101A5000022101EB40000DE0606D012340F0200009
:101A60006065002084F85000D8B202B0BDE8F08173
:101A700001980138019001980028F9D1B1E7D90106
:101A80000CD419498C4509D18242AAD1D0F8081347
:101A900021F0E071314341F080710FE059024FF0C5
:101AA0000003DED411498C4508BF8242D9D1D0F859
:101AB000081321F0E071314341F48001C0F80813AC
:101AC0008FE700BFFFFF0F000010005CFEFFFF7FED
:101AD0000000F0FF0000FF470020024000600258B5
:101AE00000210240000084CB000052C70000B8CFA4
:101AF000406D70470068006C70470000F8B5044600
:101B00000020002C009037D0606D30B9204600F0E6
:101B1000EFF80020A06584F85000206882686B49C7
:101B200012F0005F1EBF82680A408260826812F075
:101B3000805F13D1826801F18051114041F08051E2
:101B4000816063490968634AB1FBF2F1013101E048
:101B500000990139009100990029F9D1816811F0AB
:101B6000805F0BD1616D012541F010016165A16DB0
:101B700041F00101A16502E00125A3E00025816893
:101B8000C1F38001626D02F010021143616D03D058
:101B900041F01000012594E021F4817141F002012F
:101BA0006165816811F0010F20D1A3494A4A4B4E6B
:101BB00040F48073B34204D18B68D1F80861334399
:101BC00000E01368DB0711D101F5807301F5407661
:101BD0009842334618BF02F53E73884208BF334629
:101BE0006068996821F47C110843986001F03EFC1C
:101BF000A168226B637D41F203060A43102942EA81
:101C00004332237F42EA0342114608BF41F00C01F0
:101C1000B04298BF1146012B01BF206A304A02EB47
:101C200040400143606A20B100F478700843A16A23
:101C300001432068C2682B4B1A401143C160816880
:101C40008268D20842EA9101C9072CD1217DE26A5B
:101C500044F2030342EA8131C2689A431143C160EE
:101C600094F838200169012A10D104F13C0C9CE859
:101C70004C101D4F07EB02421C4F394019431143D2
:101C8000314341EA0C0141F0010101E021F0010181
:101C900001610169626B21F07041114301612046CD
:101CA000FEF704FE2068E268016B21F00F01012AB3
:101CB00002BFA269013A114301630121606D61F322
:101CC00001006065284601B0F0BD00BFC0FFFF5FA6
:101CD00000010024400D030008600258002102406A
:101CE0000000FEFF03C0F0FF0000FFFF1EF800FC35
:101CF00010B586B0044601A81421FEF733FB206816
:101D00004D4988421CD11048016841F02001016012
:101D1000016801F0200100910099816841F00401FF
:101D2000816001A9806800F00400009000981020F4
:101D300001900320029000200390044801F0C2FAB1
:101D400006B010BD00200240D844025800080258D6
:101D5000F8B504462068384D384A05F5807605F513
:101D60004071B04208BF0A46A84208BF0A469768B9
:101D7000806810F0040F03D194F85000012802D1BC
:101D8000022001B0F0BD012084F850002046FEF78B
:101D900049FE18B1002184F85010F2E7606D40F65A
:101DA000017207F01F01904340F480706065206865
:101DB000B04218BF054609B1854203D1626D22F4D5
:101DC00080126265636D002213F4805F4FF00003A0
:101DD0001CBFA36D23F006038542A3654FF01C03CF
:101DE000036084F8502008D0092917D8012202FA8C
:101DF00001F140F22122114210D0C16811F0007FA0
:101E00001FBF616D012262F30D31616581680C4A6B
:101E1000114041F0040181600020B2E7606D40F4A0
:101E200080106065E86810F0007FF5D0606D0121DA
:101E300061F30D306065EFE7002002400063025857
:101E4000C0FFFF7F704700002DE9F04104460D46BA
:101E500090460121002C00F09980002D00F0968022
:101E600060790221012800F09180012060712171C8
:101E7000286804282AD101F0FFFA0746B8F1000FBC
:101E80000FD02168486BB0F1FF3F22DC01F0F4FA7B
:101E9000C01B0228F5D32068406BB0F1FF3FF0DC97
:101EA0000DE02168486B3B4E304215D001F0E4FA5A
:101EB000C01B0228F5D32068406B3042F1D0206966
:101EC000032140F00800206121715FE008F010005C
:101ED00019E0A869486401E0A86908648B6C08F0FF
:101EE000100040F2FF32824023EA0202EB69834095
:101EF0001A438A64FF22CB6C824023EA02022B6AD7
:101F000083401A43CA6429692268012908D1936B66
:101F10001F21814023EA01016B69834019439163CA
:101F2000D36BEF680721814023EA010C0021012FC8
:101F300003D0022F03D1012705E0002703E0AF689B
:101F4000B7FA87F77F092E68AB6837433B43834076
:101F500043EA0C03D3634FF480431768834027EAB6
:101F60000303136040F6FE731768834027EA0303F8
:101F70006F6887403B431360C02303FA00F0136887
:101F800023EA00001060012020716171C8B2BDE831
:101F9000F08100BF008000207047B0B50446206883
:101FA0000168426B01EA0205A9040FD504212171E1
:101FB000216941F0010121614FF400514163016841
:101FC00021F4805101602046FFF7E6FFA80058BFCA
:101FD000B0BD04204FF000512071206940F0020094
:101FE000206120684163016821F080510160204632
:101FF000BDE8B040FFF726BF10B504466CB12079AC
:1020000020B900206071204600F00AF8022001216A
:10201000207100202061217110BD012010BD000041
:1020200010B586B0044601A81421FEF79BF920687C
:102030001449884224D11448816841F000518160DC
:10204000816801F0005100910099016841F001019F
:10205000016001A9006800F00100009000983020A4
:1020600001900320029000200390084801F02AF913
:1020700036200221002201F0C3FC362001F0B2FC20
:1020800006B010BD00740040E04402580000025841
:1020900081B04FF0000C0028CDF800C00CD00068D3
:1020A000002900900098104414BF143008300090AC
:1020B00000980360002000E0012001B0704708B3E1
:1020C00043790222012B2DD080B54FF0010C01F095
:1020D000100E002980F805C002710CFA0EFC02688F
:1020E000136843EA0C031360D2F800C00CD002213D
:1020F0000CF4781301FA0EF18B420DD1516841F0C6
:10210000020108E001220DE00CF03E01022903D19A
:10211000516841F0010151600121002201714271B9
:10212000BDE88040D0B27047F8B5044601F0A4F98C
:102130000546002C00F0A08094F83500022840F0FD
:102140009D802768A34EA44887421CBFA3488742AE
:1021500027D0A34887421CBFA248874221D0A2486B
:1021600087421CBFA14887421BD0A14887421CBFA1
:10217000A048874215D0A04887421CBF9F4887428D
:102180000FD09F4887421CBF9E48874209D09E4877
:1021900087421CBF9D48874203D09D48874240F03C
:1021A0000481386820F01E003946386051F8140F59
:1021B00020F080000860F548874244D0F448874208
:1021C0001CBFF44887423ED0F34887421CBFF34807
:1021D000874238D0F24887421CBFF248874232D04B
:1021E000F14887421CBFF14887422CD0F048874213
:1021F0001CBFF048874226D0EF4887421CBFEF48FB
:10220000874220D0EE4887421CBFEF4887421AD051
:10221000EC4887421CBFED48874214D0EC48874207
:102220001CBFEC4887420ED0EB4887421CBFEB48EE
:10223000874208D0EA4887421CBFEA48874202D05A
:10224000E948874204D1206E016821F48071016061
:10225000386820F001003860386810F0010F11D0A4
:1022600001F00AF9401B0628F6D320206065032000
:1022700084F83500012093E0012094E0802060651F
:1022800001208DE02068C14988421CBFC0498842B6
:1022900026D0C04988421CBFBF49884220D0BF49D0
:1022A00088421CBFBE4988421AD0BE4988421CBF22
:1022B000BD49884214D0BD4988421CBFBC498842F0
:1022C0000ED0BC4988421CBFBB49884208D0BB49DC
:1022D00088421CBFBC49884202D0B94988426CD1AF
:1022E000D4E9161202F01F023F2303FA02F28A60B9
:1022F000A649884244D0A64988421CBFA5498842C5
:102300003ED0A54988421CBFA449884238D0A44980
:1023100088421CBFA349884232D0A34988421CBFCF
:10232000A24988422CD0A24988421CBFA1498842B8
:1023300026D0A14988421CBFA049884220D0A0498C
:1023400088421CBFA04988421AD09E4988421CBFBF
:102350009E49884214D09E4988421CBF9D498842AC
:102360000ED09D4988421CBF9C49884208D09C4998
:1023700088421CBF9B49884202D09B4988420BD1AE
:10238000D4E919014160E06E30B1016821F4807137
:102390000160D4E91C014160012084F8350000206F
:1023A000002184F8341001B0F0BD3868B7423FF422
:1023B000F9AE20F00E003946FCE6D4E91612B04220
:1023C00002F01F023FF490AF012303FA02F24A60C9
:1023D0008EE700BFB804024010000240280002400F
:1023E0004000024058000240700002408800024055
:1023F000A0000240B800024010040240280402403D
:10240000400402405804024070040240A00402400C
:102410008804024000286ED090F83510022968D157
:1024200001685A4A91422CD0594A91421CBF594ADC
:10243000914226D0584A91421CBF584A914220D01E
:10244000574A91421CBF574A91421AD0564A91426C
:102450001CBF564A914214D0554A91421CBF554A5E
:1024600091420ED0544A91421CBF544A914208D026
:10247000534A91421CBF534A914202D0524A914260
:102480003CD1042280F83520404881421CBF40489E
:10249000814228D03F4881421CBF3F48814222D020
:1024A0003E4881421CBF3E4881421CD03D4881428B
:1024B0001CBF3D48814216D03C4881421CBF3C486D
:1024C000814210D03B4881421CBF3B4881420AD028
:1024D0003A4881421CBF3A48814204D0394881427F
:1024E0001CBF39488142086820F0010008600021C3
:1024F00002E0802141650121084670470A6822F008
:102500000E020A600A6822F001020A602F4A914214
:1025100014D02F4A91421CBF2E4A91420ED02E4A0F
:1025200091421CBF2D4A914208D02D4A91421CBFB6
:102530002C4A914202D02C4A914218D1016E0123BB
:102540000A6822F480720A60D0E9161202F01F02B3
:1025500003FA02F24A60D0E919124A60C16E31B141
:102560000A6822F480720A60D0E91C124A600121D4
:1025700080F83510002180F83410026D002ABBD09D
:1025800080B590470021BDE88040B5E710000240CB
:102590002800024040000240580002407000024003
:1025A00088000240A0000240B8000240100402402F
:1025B00028040240400402405804024070040240D3
:1025C00088040240B8040240A004024008540258A3
:1025D0001C5402583054025844540258585402585B
:1025E0006C540258945402588054025890F83500A4
:1025F000704700002DE9FC41044600200190DFF8FF
:102600003005A56DD0F800802F6829682068D44A6D
:10261000904249D0D34A90421CBFD34A904243D003
:10262000D24A90421CBFD24A90423DD0D14A9042F9
:102630001CBFD14A904237D0D04A90421CBFD04AEA
:10264000904231D0CF4A90421CBFCF4A90422BD00B
:10265000CE4A90421CBFCE4A904225D0CD4A9042ED
:102660001CBFCD4A90421FD0CC4A90421CBFCC4ADE
:10267000904200F02581CB4A90421CBFCA4A90424A
:1026800000F01E81C94A90421CBFC94A904200F026
:102690001781C84A90421CBFC74A904200F010817F
:1026A000C649884240F03382E16D082201F01F01E3
:1026B0008A403A423DD0AA4B98422DD0A94B98422D
:1026C0001CBFA94B984227D0A84B98421CBFA84BCF
:1026D000984221D0A74B98421CBFA74B98421BD0D1
:1026E000A64B98421CBFA64B984215D0A54B9842CA
:1026F0001CBFA54B98420FD0A44B98421CBFA44BC3
:10270000984209D0A34B98421CBFAC4B984203D0CF
:10271000A14B984240F0FD81042306681E4208D078
:10272000036823F004030360AA60626D42F00102B3
:10273000626501228A403A423BD0894B98422DD0B3
:10274000884B98421CBF884B984227D0874B9842B1
:102750001CBF874B984221D0864B98421CBF864BAA
:1027600098421BD0854B98421CBF854B984215D090
:10277000844B98421CBF844B98420FD0834B9842A5
:102780001CBF834B984209D0824B98421CBF8B4B95
:10279000984203D0804B984240F0BD8100F114066E
:1027A000802336681E421FBFAA60626D42F002029B
:1027B000626504228A403A4239D0694B98422DD052
:1027C000684B98421CBF684B984227D0DC4B98421C
:1027D0001CBFDC4B984221D0DB4B98421CBFDB4B2B
:1027E00098421BD0DA4B98421CBFDA4B984215D066
:1027F000D94B98421CBFD94B98420FD0D84B984226
:102800001CBFD84B984209D0D74B98421CBFD84B1D
:10281000984203D0D54B984240F08081022306684D
:102820001E421FBFAA60626D42F004026265102260
:1028300002FA01F1394200F0C780BE4A90422DD021
:10284000BD4A90421CBFBD4A904227D0BC4A90422C
:102850001CBFBC4A904221D0BB4A90421CBFBB4A1D
:1028600090421BD0BA4A90421CBFBA4A904215D03F
:10287000B94A90421CBFB94A90420FD0B84A904220
:102880001CBFB84A904209D0B74A90421CBFB84A10
:10289000904203D0B54A904240F04281082203683A
:1028A000134200F09180A9600268016812F4802F41
:1028B0003BD1C9055EBF016821F00801016036E027
:1028C0000268E36D03F01F0312F0040F1EBF04271C
:1028D0009F4017EA010609D011046F601FD49106CA
:1028E0005EBF016821F0040101601CE0970720D55C
:1028F00002279F4017EA01061BD011046F6000F108
:102900001181910600F11281016821F00A01016034
:10291000012084F83500002084F8340006E1D0035B
:1029200001D4A16CEDE0216CEBE0080348D4216CEC
:1029300047E0120740F1EB8008229A40114000F076
:10294000E680016821F00E0101600121E06D00F0D8
:102950001F0001FA00F06860616584F83510CCE072
:10296000100002402800024040000240580002408F
:102970007000024088000240A0000240B8000240FF
:10298000100402402804024040040240580402405F
:102990007004024088040240A0040240945402588B
:1029A000085402581C5402583054025844540258D7
:1029B000585402586C54025880540258B8040240CB
:1029C000A16C09B120468847E06D00F01F0120206E
:1029D00000FA01F23A426DD02068564E1023B04200
:1029E0002DD0554EB0421CBF544EB04227D0544E4D
:1029F000B0421CBF534EB04221D0534EB0421CBF18
:102A0000524EB0421BD0524EB0421CBF514EB0424B
:102A100015D0514EB0421CBF504EB0420FD0504E58
:102A2000B0421CBF4F4EB04209D04F4EB0421CBF07
:102A30004E4EB04203D04E4EB04218BF022307683C
:102A40001F4237D0AA6094F835300268042B19D1A0
:102A500022F016020260426922F080024261226C7A
:102A60000AB9A26C1AB1026822F0080202603F2083
:102A70008840A860012084F83500002084F83400E4
:102A8000216D3EE0016852030CD4C9050ED40168E3
:102A900021F010010160012084F83500002084F845
:102AA000340003E0080301D4616C00E0E16B09B17C
:102AB00020468847606D50B3606D10F0010F1FD045
:102AC0004FF41650B8FBF0F1042084F8350020686C
:102AD000026822F001020260019A01328A420192E8
:102AE00003D8026812F0010FF6D10068012100F04E
:102AF000010041EA400084F83500002084F83400E9
:102B0000E16C002908BFBDE8FC8120468847BDE88C
:102B1000FC81082301E60023064642E600237EE608
:102B20000422BCE6D00301D4616CEAE7E16BE8E77C
:102B30000001002410000240280002404000024032
:102B4000580002407000024088000240A00002408D
:102B5000B800024010040240280402404004024031
:102B6000580402407004024088040240A00402405D
:102B7000B80402402DE9F041044600F07DFC054612
:102B8000002C00F006812068DD49884248D0DD49EC
:102B900088421CBFDC49884242D0DC4988421CBFC5
:102BA000DB4988423CD0DB4988421CBFDA49884275
:102BB00036D0DA4988421CBFD949884230D0D94939
:102BC00088421CBFD84988422AD0D84988421CBFB5
:102BD000D749884224D0D74988421CBFD649884269
:102BE0001ED0D64988421CBFD549884200F0928049
:102BF000D44988421CBFD449884200F08B80D34915
:102C000088421CBFD249884200F08480D149884262
:102C10001CBFD14988427DD0D049884240F0B48061
:102C2000022184F83510002184F83410B449884218
:102C30001CBFB449884228D0B34988421CBFB3495D
:102C4000884222D0B24988421CBFB24988421CD077
:102C5000B14988421CBFB149884216D0B049884268
:102C60001CBFB049884210D0AF4988421CBFAF4951
:102C700088420AD0AE4988421CBFAE49884204D07F
:102C8000B64988421CBFAC498842016821F0010165
:102C9000016005E000F0F0FB401B052872D82068B9
:102CA000016811F0010FF5D10168AE4A04F1100C72
:102CB00001EA0208D4E902259CE84810D4E907712A
:102CC000D4F824E042EA0802BEF1040F42EA050209
:102CD00042EA030242EA060242EA0C0242EA070220
:102CE00041EA020102BFD4E90B23114319439E4A72
:102CF0001268B2F1005F55D36568A5F13F02132A4F
:102D00004AD8012303FA02F2984B1A4244D041F404
:102D1000801147E0022184F83510002184F8341036
:102D20000268D4E90237D4E90465D4E906CED4F8C0
:102D30002080802B6FF3101208BF4FF48041402B8E
:102D400042EAD70208BF1021114341EAD60141EA05
:102D5000D50141EADC0141EADE0141EA18110160D6
:102D60007F4908441421B0FBF1F08000E065204663
:102D7000FEF702F9E16D012201F01F0102FA01F1F3
:102D800041604CE0202000E040206065032084F892
:102D900035000120BDE8F081A5F12902062A38BFDF
:102DA00041F480110160BEF1040F416921F0070177
:102DB00041EA0E0128D1D4E90A53294323B3BCF5D3
:102DC000005F08D0BCF1000F11D1022D12D0012DEF
:102DD00007D07DB118E0032D16D8DFE805F00E0B03
:102DE0000E02A3F1C072B2FA82F2520904E0032D7E
:102DF00003D309D1C3F3006232B1402060650120E2
:102E000084F83500BDE8F08141612046FEF7B4F852
:102E1000E16D3F2201F01F0102FA01F1816020689B
:102E2000D349884244D0D34988421CBFD249884202
:102E30003ED0D24988421CBFD149884238D0D149BE
:102E400088421CBFD049884232D0D04988421CBF3A
:102E5000CF4988422CD0CF4988421CBFCE498842F6
:102E600026D0CE4988421CBFCD49884220D0CE49C9
:102E700088421CBFCB4988421AD0CC4988421CBF2B
:102E8000CB49884214D0CB4988421CBFCA498842EA
:102E90000ED0CA4988421CBFC949884208D0C949D6
:102EA00088421CBFC849884202D0C84988421FD105
:102EB0002046FEF7D1F8A068802806BF0020606099
:102EC0006068216EC2B201380A600728D4E919127D
:102ED0004A6009D82046FEF705F9E06E002101603E
:102EE000D4E91C01416003E00020C4E91B006067D5
:102EF00000200121606584F83510BDE8F08100BF35
:102F000010000240280002404000024058000240E9
:102F10007000024088000240A0000240B800024059
:102F200010040240280402404004024058040240B9
:102F30007004024088040240A004024094540258E5
:102F4000085402581C540258305402584454025831
:102F5000585402586C54025880540258B804024025
:102F6000F8ABFDA73F8010FE0010005C0F030F00C0
:102F7000B0B50546002D00F0E78095F83400012833
:102F800001D10220E1E0012085F8340095F83500F8
:102F9000012840F0D380022085F8350000206865C4
:102FA0002868046824F0010404602846FEF7DCF871
:102FB00028686F4988421CBF6E49884227D06E49F5
:102FC00088421CBF6D49884221D06D4988421CBF90
:102FD0006C4988421BD06C4988421CBF6B498842AF
:102FE00015D06B4988421CBF6A4988420FD06A4994
:102FF00088421CBF6949884209D0694988421CBF80
:103000006849884203D06849884240F0A08001683E
:103010000B2262F344010160296C19B1016841F08F
:10302000080101605249884244D0524988421CBF7D
:10303000514988423ED0514988421CBF504988427C
:1030400038D0504988421CBF4F49884232D04F493E
:1030500088421CBF4E4988422CD04E4988421CBF32
:103060004D49884226D04D4988421CBF4C49884270
:1030700020D04D4988421CBF4A4988421AD04B494A
:1030800088421CBF4A49884214D04A4988421CBF22
:10309000494988420ED0494988421CBF4849884264
:1030A00008D0484988421CBF4749884202D0474956
:1030B00088423DD1296E0A6812F4803F1EBF0A681B
:1030C00042F480720A60E96E19B10A6842F48072B3
:1030D0000A60274988421CBF2649884228D02649D1
:1030E00088421CBF2549884222D0254988421CBFFE
:1030F000244988421CD0244988421CBF2349884265
:1031000016D0234988421CBF2249884210D0224948
:1031100088421CBF214988420AD0214988421CBFED
:103120002149884204D0214988421CBF1D49884258
:10313000016841F001010160002006E04FF40060E9
:103140006865002085F834000120C0B2B0BD016878
:10315000164A90423FF45CAF052262F343010160DE
:10316000296C00293FF45EAF016841F0040158E783
:103170001000024028000240400002405800024077
:103180007000024088000240A0000240B8000240E7
:103190001004024028040240400402405804024047
:1031A00070040240A004024088040240B8040240B7
:1031B000085402581C5402583054025844540258BF
:1031C000585402586C54025894540258805402586F
:1031D00070B505466E1C00F04FF904461EB1A848B4
:1031E0000078054401E04FF0FF3500F045F9001B81
:1031F000A842FAD370BD00BF2548016841F0010123
:1032000001600121006821EA000070472DE9F041CA
:103210001E4E14460D46307D012804BF0220BDE835
:10322000F081294601206FF310013075B1F1006F74
:1032300018BFBDE8F0814FF000084CF2503001217A
:10324000C6F81880FEF7AAF9E0B9114F386840F0C7
:10325000020038600820BFF36F8FBFF34F8F02CC9E
:10326000013810F0FF0F02C5F9D1BFF36F8F4CF298
:1032700050300121BFF34F8FFEF790F9396821F0EC
:103280000201396086F81480BDE8F081C46800242A
:103290000C2000520848816811F0010F09D007493D
:1032A000016007490160806810F0010F1CBF012018
:1032B00070470020704700BF04200052230167457B
:1032C000AB89EFCD2DE9FC4F5D4A0A274FF0000B8B
:1032D0004FF0010E4FF0030A4FF00F094FF0000CB2
:1032E000904208BF0927574A02444FEAB223092BEC
:1032F00038BF4FEAB227009700270A6832FA07F36F
:1033000008BFBDE8FC8F0EFA07F312EA030400F0D1
:1033100090804D6805F00302A2F10108B8F1010F99
:1033200018D8D0F80890CE680AFA0CF829EA0808EC
:1033300006FA0CF64FF00F0946EA08068660C5F358
:10334000001606FA07F8466826EA030343EA08036C
:10335000436001E0032A1DD0C6680AFA0CF3022A72
:1033600026EA03038E6806FA0CF643EA0603C360F6
:1033700010D1354D0BF01C0209FA02F305EA57058E
:1033800005442E6A26EA03030E6906FA02F21A437E
:103390002A624D68066805F003020AFA0CF315F478
:1033A000403F02FA0CF226EA030342EA03020260FB
:1033B0003FD0264A0BF00C0609FA06F5136843F0D5
:1033C00002031360126802F002020192019A204B7C
:1033D00027F0030252F8038028EA0508009D05FA49
:1033E00006F648EA0605D5504FF0B0452A684B6806
:1033F000A24313F4801F18BF224313F4001F2A6056
:10340000144A156825EA040518BF254313F4003F44
:103410001560D2F8805025EA040518BF254313F43F
:10342000803FC2F88050D56F25EA040518BF2543B8
:10343000D5670BF1040B0CF1020C01375DE700BFFF
:10344000002402580000FEA7FCFFFF7FF44402584E
:1034500008040058040000580069084018BF012003
:103460007047002A08BF090481617047014800685D
:10347000000C70470010005C01488068704700BF76
:10348000F400002490F84120202A03D190F8402035
:10349000012A01D1022118E0242280F8412002688B
:1034A000136823F001031360136823F4805313603F
:1034B000136819431160116841F001011160202166
:1034C00080F84110002180F84010C8B2704790F891
:1034D0004120202A03D190F84020012A01D1022165
:1034E00017E0242280F841200268136823F00103CA
:1034F0001360136823F4706343EA012111601168BB
:1035000041F001011160202180F84110002180F874
:103510004010C8B270477047704701688B690A68ED
:1035200002F0800C13F4807F0AD0BCF1000F1FBFA3
:10353000426C42F0010242644FF4807218BFCA61CB
:103540005A050AD5BCF1000F1FBF426C42F00802B9
:1035500042644FF4806218BFCA619A050AD5BCF173
:10356000000F1FBF426C42F0020242644FF400722F
:1035700018BFCA61416C11F00B0F18BF03F054BAA9
:103580007047026891691268436B1BB180B5984718
:10359000BDE880407047704710B50446002C4BD002
:1035A00094F8410028B9002084F84000204600F03B
:1035B00005F924204FF4044384F841002068016891
:1035C00021F001010160616821F070610161816891
:1035D00021F400418160D4E90212012A08BF4FF4AE
:1035E0000043022A41EA03018160416821F400633B
:1035F00008BF41F40063436004F1100341680F4ABF
:1036000011434160C16821F40041C1600ECB1143F8
:1036100041EA0321C160D4E9071211430160016846
:1036200041F00101016000202021606484F8411014
:10363000206384F8420010BD012010BD008000020C
:10364000704700002DE9F84F04461D46174688468E
:1036500094F84100202803D194F84000012804D1B7
:103660000226F0B201B0BDE8F08F012684F8406078
:10367000FFF702FF834620464FF400410122192341
:10368000CDF800B003F029FD0028EAD1212084F80C
:103690004100102084F84200002060646762658564
:1036A0006063608D424EB0F5807F06D3FF202546D3
:1036B0004FF0807325F8280F07E0608D04F128058E
:1036C000002820855ED04FF00073216817F8012B89
:1036D0008A626762C2B2618D01396185411E2046EE
:1036E00021850096414603F0C9FC0A9F3046C14639
:1036F000FF266FF39F2900F17C2A38E020463946E7
:103700005A4603F052FDD8BB616A206811F8012BBC
:1037100082626162608D0138608528880138288066
:10372000618D21B3000422D12046802100223B4636
:10373000CDF800B003F0D1FC10BB608DB0F5807FF8
:103740000AD32E80206841681A4A01EA0A0141EA38
:103750000901114341600AE0608D00214FF00073C0
:1037600028800091C2B22046414603F087FC608D5C
:103770000028C3D1204639465A4603F0ECFC40B13C
:1037800001266EE72046414600224FF00073009666
:10379000A9E7206820210026C1614268064B1A4033
:1037A000426084F8411084F8426084F8406058E731
:1037B000002000800000FF0100E800FEF0B5B7B077
:1037C000044632A81421FCF7CDFD02A8C021FCF765
:1037D000C9FD2068434D444E444988422DD0444998
:1037E00088427CD1002408200394029002A82394EC
:1037F00000F0A2FC08B1FDF7CCFE306832A940F021
:1038000002003060306800F0020001900198C02092
:103810003290122033900120CDE9340404203690F8
:103820002846FFF74FFDB06840F40010B060B06864
:1038300000F400100190019851E000271020039738
:10384000029002A8289700F077FC08B1FDF7A1FECE
:10385000306832A940F002003060306800F00200A9
:10386000019001984FF44070329012203390012063
:10387000CDE93407062036902846FFF723FD70690E
:103880001C4D40F080007061706900F08000019074
:103890000198194828600E2068604020C5E9020799
:1038A0004FF480602F62C5E90677C5E90407284612
:1038B000FFF760F908B1FDF76CFE5F2000210022E0
:1038C000A563AC6300F09CF85F2000F08BF86020EB
:1038D0000021002200F094F8602000F083F837B057
:1038E000F0BD00BF00040258E0440258001C00581C
:1038F00000540040BC4200241C54025870477047DA
:1039000027480178826811448160704780B50320A0
:1039100000F0A2F801F0FAF90F49724B0A68C2F3FD
:10392000032209689A5C01F00F01595C02F01F0242
:10393000D0400A4A01F01F0120FA01F11160194933
:103940000860072000F00CF808B1012080BD00F0ED
:103950002BF8002080BD00BF184402580401002449
:1039600070B50F4E04463078B0B14FF47A71B1FBA8
:10397000F0F00C490968B1FBF0F001F00FFD0125F2
:103980000F2C0AD848B94FF0FF30214600220025FD
:1039900000F036F8746000E00125284670BD00BFD5
:1039A000F400002400010024E0B50D48016841F056
:1039B00002010160016801F00201019101990168B1
:1039C00041F400410160006800F40040009000985C
:1039D00001F0D4FC0220BDE88C4001F0D5BC00BF52
:1039E000F4440258002808DB00F01F0101224009BE
:1039F00002FA01F1014A42F82010704700E100E0AC
:103A0000B0B5144C1A4D00F00F03B0F1FF3FA3F115
:103A100004032B4403F10C03C8BF03192868C0F347
:103A20000220051DC41E80F00700072D4FF0010580
:103A300038BF0024042828BF042005FA00F001380C
:103A4000084005FA04F10F31A0401140084300017D
:103A50001870B0BD00E400E005494FF6FF030A68A6
:103A60001A4060F30A22034810430860704700BF01
:103A70000CED00E00000FA05B0B5114D2A68296888
:103A800012F0040F05D101F00701081A18BF012038
:103A9000B0BD21F0070108432860FFF7EDFC0446A4
:103AA00055F8080C10F4005F1CBF0020B0BDFFF7F4
:103AB000E3FC001BB0F57A7F84BF0120B0BDEFE7C7
:103AC0000C48025880B501F0E1F80549054A09683B
:103AD000C1F30211515C01F01F01C84080BD00BF5D
:103AE00020440258B8BC000810B5504CD4F828C087
:103AF000A26AE36A616B03F00103C2F305125B4241
:103B0000002A03EAD1016FF35F3100EE101AB8EE1C
:103B1000400A20D00CF00303022B20D0012B22D02E
:103B20002BBB02EE102A9FED431AB8EE422A216801
:103B300020EE010A11F0200F61D1216B9FED401A98
:103B40006FF35F2181EE022A03EE101AB8EE433ABA
:103B500030EE031A1EE00021C0E900114DE0216B98
:103B60009FED332A06E0216B9FED332A02E0216BA3
:103B70009FED332A01EE102A6FF35F219FED2D3A5E
:103B8000B8EE414A01EE101AB8EE411A82EE042A4C
:103B900000EE031A216BB7EE000A31EE001A22EE96
:103BA000011AC1F3462103EE101AB8EE433A33EE80
:103BB000002A81EE022ABCEEC22A80ED002A216B87
:103BC000C1F3064102EE101AB8EE422A32EE002A84
:103BD00081EE022ABCEEC22A80ED012A216BC1F3DC
:103BE000066102EE101AB8EE422A32EE000A81EEA9
:103BF000000ABCEEC00A10EE101A816010BD2168E8
:103C0000C1F3C1010D4A22FA01F1226B03EE101A31
:103C10006FF35F2201EE102AB8EE411AB8EE433A74
:103C200030EE011A83EE022AB4E700BF00440258C6
:103C300020BCBE4B000000390024744A0090D00321
:103C40000024744C10B54E4CD4F828C0A26AE36A24
:103C5000E16BC3F30013C2F305325B42002A03EAAF
:103C6000D1016FF35F3100EE101AB8EE400A20D098
:103C70000CF00303022B24D0012B1ED0EBB902EE73
:103C8000102A9FED411AB8EE422A216820EE010A5F
:103C900011F0200F5DD1A16B9FED3E1A6FF35F21F4
:103CA00081EE022A03EE101AB8EE433A30EE031A00
:103CB0001AE00021C0E9001149E0A16B9FED332A11
:103CC00002E0A16B9FED2F2A01EE102A6FF35F2116
:103CD0009FED2D3AB8EE414A01EE101AB8EE411AA6
:103CE00082EE042A00EE031AA16BB7EE000A31EE51
:103CF000001A22EE011AC1F3462103EE101AB8EEA3
:103D0000433A33EE002A81EE022ABCEEC22A80ED4D
:103D1000002AA16BC1F3064102EE101AB8EE422A46
:103D200032EE002A81EE022ABCEEC22A80ED012A80
:103D3000A16BC1F3066102EE101AB8EE422A32EE10
:103D4000000A81EE000ABCEEC00A10EE101A816073
:103D500010BD2168C1F3C1010D4A22FA01F1A26B25
:103D600003EE101A6FF35F2201EE102AB8EE411A2B
:103D7000B8EE433A30EE011A83EE022AB4E700BFF0
:103D80000044025820BCBE4B000000390024744A95
:103D90000090D0030024744C10B54E4CD4F828C0C9
:103DA000A26AE36A616CC3F30023C2F305525B426B
:103DB000002A03EAD1016FF35F3100EE101AB8EE6A
:103DC000400A20D00CF00303022B24D0012B1ED07C
:103DD000EBB902EE102A9FED411AB8EE422A216893
:103DE00020EE010A11F0200F5DD1216C9FED3E1AEB
:103DF0006FF35F2181EE022A03EE101AB8EE433A08
:103E000030EE031A1AE00021C0E9001149E0216CEC
:103E10009FED332A02E0216C9FED2F2A01EE102A3C
:103E20006FF35F219FED2D3AB8EE414A01EE101A73
:103E3000B8EE411A82EE042A00EE031A216CB7EEA6
:103E4000000A31EE001A22EE011AC1F3462103EEF8
:103E5000101AB8EE433A33EE002A81EE022ABCEE85
:103E6000C22A80ED002A216CC1F3064102EE101A2D
:103E7000B8EE422A32EE002A81EE022ABCEEC22AB5
:103E800080ED012A216CC1F3066102EE101AB8EE32
:103E9000422A32EE000A81EE000ABCEEC00A10EEA1
:103EA000101A816010BD2168C1F3C1010D4A22FAC8
:103EB00001F1226C03EE101A6FF35F2201EE102A5B
:103EC000B8EE411AB8EE433A30EE011A83EE022AF8
:103ED000B4E700BF0044025820BCBE4B00000039CC
:103EE0000024744A0090D0030024744CF0B589B0CB
:103EF00002468C4D82F4002008438B488B4F8C4E39
:103F00008C4B00F0728082F400740C4330D082F449
:103F100080640C4300F0758082F400640C4334D05C
:103F200082F480540C4300F0778082F400540C43F8
:103F300000F0A98082F480440C4331D082F4004424
:103F40000C433BD082F480340C4345D082F4807221
:103F5000114340F0DF80196D01F00701042900F2E0
:103F6000D980DFE811F064006D009D00D800760074
:103F7000196DC1F38211042900F2CC80DFE811F041
:103F8000570060009000CB006900996DC1F3026199
:103F9000042900F2BF80DFE801F04A5383BE5C00D1
:103FA000986DC0F30270052800F2B480DFE800F0DD
:103FB0000381969FA98AFFF785FDACE0186D00F09C
:103FC0004050B0F1005F00F07480B0F1805F2ED0FF
:103FD000002800F077809DE0D96C186811F4803FCC
:103FE00040F07580800126D494E0986D00F4403054
:103FF000B0F5003F2DD0B0F5803F00F08780F8B1DC
:1040000088E0996DC1F34251042900F28380DFE812
:1040100001F00E1747822000196DC1F30231042907
:1040200000F27880DFE801F0030C3C771500186897
:1040300010F0007F6ED006A8FFF756FD07986AE0E3
:10404000186810F0006F65D003A8FFF7FBFD039818
:1040500061E0D96C1A68186811F0405102D112F071
:10406000040249D1B1F1805F03D110F48070284679
:1040700051D1186810F4003018BF3846B1F1005F14
:1040800018BF002047E0186DC0F30240052841D852
:10409000DFE800F0030F242D371800F017FE3AE098
:1040A000186810F0005F35D06846FFF775FE00987D
:1040B00031E0186810F0006F2CD003A8FFF7C2FDA4
:1040C000049828E01868800307EAE07023E0000104
:1040D00020D503A8FFF7B6FD05981CE0186810F07E
:1040E000005F17D06846FFF757FE019813E0186885
:1040F00010F0040F0ED01868C0F3C10026FA00F0CB
:1041000009E01868C00505EAE07004E0186810F0DE
:10411000005F02D1002009B0F0BD6846FFF73CFE09
:104120000298F8E700093D000080BB0040787D015F
:104130000090D003004402582DE9F0470446E0788F
:10414000A84F000722D5A06E4FEA3051032908D8A6
:10415000DFE801F002090F17F96941F40031F96154
:104160000FE0012613E004F10800022103F0B2FE83
:1041700004E004F12800022103F032FF064636B9BC
:10418000A06E396C21F44011084338640026607831
:10419000BA46C00701D1354628E0A06D04280BD8E7
:1041A0003546DFE800F0030C12181800F8693546B0
:1041B00040F40030F8610EE00125012717E004F11A
:1041C0000800002103F086FE04E004F1280000212D
:1041D00003F006FF0546002D2F4608D15246002564
:1041E000106CA16D20F0070008431064374660781A
:1041F000800729D5E06D4FEAB01004280AD8DFE81F
:1042000000F0030C121818005146C86940F4003041
:10421000C8610EE00125012617E004F10800002125
:1042200003F058FE04E004F12800002103F0D8FE5A
:104230000546002D2E4608D152460025106CE16D32
:1042400020F4E070084310643E466078400702D4D2
:10425000B04657462CE0D4F8A80057464FEA7050B5
:10426000042809D8DFE800F0030C12181800F869D8
:1042700040F40030F8610FE001254FF0010817E02D
:1042800004F10800002103F025FE04E004F12800F9
:10429000002103F0A5FE0546002DA84608D1B86C04
:1042A000D4F8A8100025B04620F460000843B86494
:1042B000607800072AD5D4F8AC004FEA30600428B3
:1042C00009D8DFE800F0030B11171700F86940F474
:1042D0000030F8610EE00125012718E004F1080024
:1042E000002103F0F7FD04E004F12800002103F0B1
:1042F00077FE0546002D2F4609D152460025906CC9
:10430000D4F8AC1020F0E060084390644746E078B1
:10431000800722D5E06C4FEA3010032809D8DFE887
:1043200000F011020B115146C86940F40030C86119
:1043300008E00125012611E004F10800022103F044
:10434000C9FD0546002D2E4608D152460025D06BEA
:10435000E16C20F030000843D0633E466078C00630
:1043600029D5206E4FEA303004280AD8DFE800F063
:10437000030C121818005146C86940F40030C86197
:104380000EE00125012717E004F10800002103F0E9
:10439000A1FD04E004F12800002103F021FE054600
:1043A000002D2F4608D152460025106C216E20F4B6
:1043B000E0400843106437466078800625D5606E7B
:1043C0004FEA304005280AD8DFE800F014030E1445
:1043D000141404F10800012103F07CFD09E001251B
:1043E000012613E01044025804F12800012103F0D3
:1043F000F7FD0546002D2E4608D152460025106CCB
:10440000616E20F4E020084310643E466078400668
:1044100025D5D4F8B0004FEA307005280AD8DFE877
:1044200000F012030C12121204F10800012103F033
:1044300051FD07E00125012712E004F128000121C8
:1044400003F0CEFD0546002D2F4609D1524600252A
:10445000906CD4F8B01020F0E040084390643746E8
:10446000607800061ED5206F88B1B0F1005F08D0DB
:10447000B0F1805F2AD15146C86940F40030C8616C
:1044800005E004F10800012103F024FD0546002D9C
:104490002E4608D152460025106C216F20F0405066
:1044A000084310643E46E078C00702D1B046574644
:1044B00024E0A06C574603280BD8DFE800F0140274
:1044C0000E14F86940F40030F8610CE00125012673
:1044D000E9E701254FF0010810E004F1080002218E
:1044E00003F0F8FC0546002DA84607D1F86BA16C37
:1044F0000025B04620F003000843F863A07840068A
:1045000001D4474618E0D7F8F00340F48070C7F8AC
:10451000F003FEF7B1FF0646D7F8F00310F4807FF2
:1045200007D1FEF7A9FF801B6428F5D903250327CF
:1045300002E0002D2F4612D02078C0074ED0E06F49
:104540004FEAF000052835D8DFE800F03D03373D9D
:104550003D3D04F10800012103F0BCFC32E053466C
:10456000196ED4F8B400414011F4407F0BD0196E9D
:104570001A6E42F4803221F440711A661A6E22F4E7
:1045800080321A661966B0F5807F40F05A82FEF7D5
:1045900073FF064641F28839032503275346186EF8
:1045A00010F0020F40F04B82FEF766FF801B48457B
:1045B000F4D9C1E70125012611E004F12800012109
:1045C00003F00EFD0546002D2E4608D1524600256B
:1045D000506CE16F20F03800084350643E4620786C
:1045E000800721D5A06F05280AD8DFE800F0120364
:1045F0000C12121204F10800012103F06BFC07E019
:104600000125012711E004F12800012103F0E8FC55
:104610000546002D2F4608D152460025506CA16F4B
:1046200020F007000843506437462078400723D520
:10463000D4F8940005280AD8DFE800F012030C1221
:10464000121204F10800012103F044FC07E00125E7
:10465000012612E004F12800012103F0C1FC054607
:10466000002D2E4609D152460025906CD4F89410A6
:1046700020F00700084390643E462078800625D548
:10468000D4F890004FEA307005280AD8DFE800F02F
:1046900012030C12121204F10800002103F01AFC9C
:1046A00007E00125012712E004F12800022103F0B0
:1046B00097FC0546002D2F4609D152460025506C27
:1046C000D4F8901020F0E04008435064374620783A
:1046D000400625D5D4F89C004FEAB02005280AD81A
:1046E000DFE800F012030C12121204F1080000219E
:1046F00003F0F0FB07E00125012612E004F1280099
:10470000022103F06DFC0546002D2E4609D15246CC
:104710000025906CD4F89C1020F4E050084390647D
:104720003E462078000625D5D4F8A0004FEA703028
:1047300005280AD8DFE800F012030C12121204F167
:104740000800002103F0C6FB07E00125012712E065
:1047500004F12800022103F043FC0546002D2F46FA
:1047600009D152460025906CD4F8A01020F4604086
:10477000084390643746206810F0080F15D0D4F82D
:104780008410B1F5805F0AD104F12800022103F002
:1047900027FC002818BF01272068D4F8841053464E
:1047A0005A6C22F4405211435964C10615D5D4F80D
:1047B0009810B1F5807F0AD104F12800022103F09E
:1047C0000FFC002818BF01272068D4F89810534622
:1047D0009A6C22F4407211439964000320D5D4F8F6
:1047E000A400B0F5003F0FD0B0F5803F06D068BB05
:1047F00004F10800002103F06DFB04E004F128003F
:10480000022103F0EDFB0546002D2E4609D152464C
:104810000025906CD4F8A41020F440300843906434
:104820003E46A078400726D5D4F88800B0F5401F52
:1048300015D0B0F5001F0CD0B0F5801F40F0FA8005
:104840005146C86940F40030C86108E001250126DE
:10485000E7E704F12800012103F0C2FB0546002D23
:104860002F4609D152460025506CD4F8881020F408
:104870004010084350643746A078C00701D13E4637
:104880001EE0206DB0F5803F06D0B8B95146C8692A
:1048900040F40030C86105E004F10800022103F093
:1048A00019FB0546002D2E460AD152460025D06B35
:1048B000216D20F480300843D063E0E70125012614
:1048C000216811F0005F01D1606809E004F128005F
:1048D000022103F085FB002818BF0126D4E900104F
:1048E0008A031BD5D4F880206FF0010303EB322339
:1048F000022B0BD34FEA322343B1012B40F09D80B2
:10490000DAF81C3043F40033CAF81C303DB9DAF849
:10491000443023F440731A43CAF844203546CA028F
:1049200007D5DAF84020636F22F000421A43CAF834
:104930004020CA0008D5DAF80020D4F8B83022F4B4
:1049400080421A43CAF800208A0207D5DAF84020CC
:10495000E36E22F080721A43CAF840204A000CD558
:10496000DAF8002022F40042CAF80020D4F8BC2073
:10497000DAF800301A43CAF80020B1F1FF3F07DC33
:10498000DAF83C20636D22F040521A43CAF83C200A
:10499000090208D5DAF84410D4F88C2021F440013B
:1049A0001143CAF84410C10708D004F108000021DF
:1049B00003F090FA002818BF05466068810708D503
:1049C00004F10800012103F085FA002818BF05460C
:1049D0006068410708D504F10800022103F07AFA63
:1049E000002818BF05466068010708D504F12800B3
:1049F000002103F0F5FA002818BF05466068C106DB
:104A000008D504F12800012103F0EAFA002818BFB4
:104A100005466068800607D504F12800022103F0EE
:104A2000DFFA002818BF0546002D18BF01252846CB
:104A3000BDE8F087012501271EE701256FE7D4F8BF
:104A4000B400196800F440720025B2F5407F21F4EB
:104A50007C5102BF054A02EA101211436FF31F3066
:104A60001960196E084318664BE500BFCFFFFF00C1
:104A70002DE9F84304468846002C00F0FE80814B67
:104A8000186800F00F0040450BD2186820F00F00A6
:104A900040EA08001860186800F00F00404540F038
:104AA000EC802068E44F10F0040F0AD02169BA6945
:104AB00002F07002914281BFBA6922F07002114384
:104AC000B96101070AD56169FA6902F07002914281
:104AD00081BFFA6922F070021143F961C1060AD55B
:104AE000A169FA6902F4E062914281BFFA6922F495
:104AF000E0621143F96181060AD5E1693A6A02F080
:104B00007002914281BF3A6A22F070021143396209
:104B100081070AD5E168BA6902F00F02914281BFAC
:104B2000BA6922F00F021143B961C10738D0B869E0
:104B3000A16820F470600843B8616068032806D05B
:104B4000022809D1396811F4003F0ED195E0396887
:104B500011F0007F09D190E03968012802D1C90520
:104B600003D48AE0490740F188803969994621F0E9
:104B7000070108433861FEF77FFC064641F288359D
:104B80003869616800F03800B0EBC10F06D0FEF75D
:104B900073FC801BA842F3D903206FE020684B46CA
:104BA00081070AD5E168BA6902F00F0291423FBF5E
:104BB000BA6922F00F021143B961196801F00F01BF
:104BC00041450AD9196821F00F0141EA080119602D
:104BD000196801F00F0141454FD141070AD52169FC
:104BE000BA6902F0700291423FBFBA6922F07002C6
:104BF0001143B96101070AD56169FA6902F07002CF
:104C000091423FBFFA6922F070021143F961C10677
:104C10000AD5A169FA6902F4E06291423FBFFA69DC
:104C200022F4E0621143F96180060AD5E069396A2D
:104C300001F0700188423FBF396A21F070010843DA
:104C4000386200F063F8B9692F4AC1F30321515C5F
:104C500001F01F01C840B96901F00F01515C194A08
:104C600001F01F0120FA01F11160174908600648A0
:104C70000068BDE8F443FEF773BE0120C0B201B086
:104C8000BDE8F08300200052F800002480B500F059
:104C90003DF80B491C4B0A68C2F303229A5C02F0F0
:104CA0001F0220FA02F20868064900F00F00185CA3
:104CB00000F01F0022FA00F0086003490A6080BD7E
:104CC00018440258040100240001002480B5FFF7B5
:104CD000DDFF0C490C4A0968C1F30211515C01F077
:104CE0001F01C84080BD00BF80B5FFF7CFFF054959
:104CF000054A0968C1F30221515C01F01F01C84057
:104D000080BD00BF1C440258B8BC00084A4908696D
:104D1000C0F3C20349484A4A032B10D0022B04BFF8
:104D20004848704753B9086810F0200F10461FBF5D
:104D30000868C0F3C10022FA00F07047704780B5E0
:104D4000D1F828C0D1F828E0CB6A486B03F0010302
:104D50005B4203EAD003CEF305106FF35F33002804
:104D600000EE103AB8EE400ABDE8804004BF0020D3
:104D700070470CF00303022B20D0012B1AD0CBB9C3
:104D800002EE100A9FED311AB8EE422A086820EEB2
:104D9000010A10F0200F39D1086B9FED2E1A6FF326
:104DA0005F2081EE022A03EE100AB8EE433A30EE9D
:104DB000031A16E00A6B9FED262A02E00A6B9FEDAC
:104DC000222A01EE100A6FF35F229FED203AB8EE1F
:104DD000414A01EE102AB8EE411A82EE042A00EE92
:104DE000031A086BB7EE000A31EE000A22EE000A41
:104DF000C0F34620013001EE100AB8EE411A80EEF1
:104E0000010ABCEEC00A10EE100A70470868C0F331
:104E1000C10022FA00F00A6B03EE100A6FF35F2262
:104E200001EE102AB8EE411AB8EE433A30EE011AFC
:104E300083EE022AD5E700BF0044025800093D0076
:104E40000090D00340787D0120BCBE4B00000039AB
:104E50000024744A0024744CF8B50446002C00F079
:104E60009D812078CE4EC0074CD03169B06A01F0E8
:104E70003801102915D0182904BF00F003000228BA
:104E80000FD06068A0B1B0F5803F06D03168B0F5B2
:104E9000A02F23D141F480203060306840F480306E
:104EA00022E0306810F4003F2CD0606850BB75E100
:104EB000306820F480303060306820F4802030602A
:104EC000FEF7DAFA0546306810F4003F1AD0FEF714
:104ED000D3FA411B03206429F5D94BE221F4803039
:104EE0003060306820F480203060FEF7C5FA054657
:104EF000306810F4003F05D1FEF7BEFA401B64286D
:104F0000F6D962E12078800760D53169B06A11F086
:104F1000380118D0182908BF5FEA807013D0E06804
:104F20003168E0B321F0190108433060FEF7A4FABC
:104F30000546306810F0040F20D1FEF79DFA401BA3
:104F40000228F6D941E13168E06811F0040F02D07F
:104F5000002800F02381316821F0190108433060F6
:104F6000FEF78AFA0546306810F0040F06D1FEF706
:104F700083FA411B03200229F5D9FBE1FEF776FAFB
:104F8000216941F2030290421AD80803402908BF60
:104F90004FF40030716821F47C31084315E021F0B2
:104FA00001003060FEF768FA0546306810F0040F23
:104FB0000CD0FEF761FA411B03200229F5D9D9E193
:104FC000706820F0FE4040EA016070602078C00602
:104FD00044D53169B06A01F0380108291BD018297D
:104FE00004BF00F00300012815D0E16930680029F2
:104FF00000F01C8140F080003060FEF73DFA05466D
:10500000306810F4807F0ED1FEF736FA411B032082
:105010000229F5D9AEE1306810F4807F1CBFE06949
:10502000802840F0BB80FEF721FA216A41F203029A
:1050300090420BD88A062029304608BF4FF08042A4
:1050400050F8041F21F0F841114306E0304650F8B3
:105050000C2F22F07C5242EA0161016020780007A7
:1050600023D56169706F79B140F001007067FEF778
:1050700003FA0546706F10F0020F16D1FEF7FCF927
:10508000401B0228F6D9A0E020F001007067FEF76F
:10509000F3F90546706F10F0020F06D0FEF7ECF939
:1050A000411B03200229F5D964E12078800623D52D
:1050B000A169306879B140F480503060FEF7DCF9C6
:1050C0000546306810F4005F16D1FEF7D5F9401B95
:1050D0000228F6D979E020F480503060FEF7CCF950
:1050E0000546306810F4005F06D0FEF7C5F9411B95
:1050F00003200229F5D93DE12078400752D4676AA0
:10510000002F00F01E81306900F0380018286DD1A2
:10511000B16A306B012F41D0A26A01F003039342C0
:105120003CD1E26AC1F30511914237D1226B0146AD
:105130006FF35F21013A914230D1C0F34621626B97
:10514000013A91422AD1C0F30641A26B013A914241
:1051500024D1C0F30660E16B013988421ED1706B27
:10516000A16CC0F3CC00814200F0EB80F06A20F02B
:105170000100F062FEF780F90546FEF77DF9A842CE
:10518000FBD0706B4FF6F8718843A16C40EAC10008
:105190007063F06A40F00100F062D2E00120E9E0C3
:1051A00000440258D6F8000440F48070C6F80004A9
:1051B000FEF762F90546D6F8000410F4807F06D1A8
:1051C000FEF75AF9401B6428F5D90320D2E0A06805
:1051D000F0B3012806D0316F052840F0B48041F0CB
:1051E00004003067306F40F00100B2E0306820F01A
:1051F00080703060FEF740F90546022F0AD1306812
:1052000010F0007F3DD0FEF737F9411B0320022943
:10521000F5D9AFE0306810F0007F00F09280FEF723
:105220002BF9411B03200229F4D9A3E020F08000D0
:105230003060FEF721F90546306810F4807F3FF4B6
:105240000DAFFEF719F9411B03200229F4D991E0B3
:10525000306F20F001003067306F20F004003067BD
:10526000FEF70AF9054641F28837306F10F0020F59
:105270003FF445AFFEF700F9411B0320B942F4D9D2
:1052800078E0B06A40F2F33104F130034FF47E4726
:105290008843D4E90A12084340EA0210B0620FCBF7
:1052A00007EB412100F2FF1089B26FF35F20084342
:1052B0004FF4FE0101EB024101F4FE0108434FF0FF
:1052C000FE4101EB036101F0FE4108434FF6F87126
:1052D0003063F06A20F00100F062706B8843A16CCB
:1052E00040EAC1007063F06A216C20F00C000843B2
:1052F000F062F06A616C20F002000843F062F06A2C
:1053000040F48030F062F06A40F40030F062F06AFD
:1053100040F48020F062F06A40F00100F0623068F2
:1053200040F080703060FEF7A7F80446306810F057
:10533000007F06D1FEF7A0F8011B03200229F5D952
:1053400018E0002016E021F001003067306F20F0F7
:1053500004003067FEF790F8054641F28837306F59
:1053600010F0020F7FF4CBAEFEF786F8411B03204E
:10537000B942F4D9C0B201B0F0BD000006480168DE
:1053800021F001010160704703490A6822F002021E
:1053900010430860704700BF003C0058411E0020C9
:1053A000B0EB116F1CBF01207047044AF02351601D
:1053B00003490B70072190601160704710E000E016
:1053C00023ED00E0704770477047000090F83C20E4
:1053D000012A01D102213BE070B5012280F83C2076
:1053E000D1E900C3D1E902E21A4C234022F47C52F5
:1053F0002EF4705422431A432CF477231A430B697A
:1054000023F476231A434B691A438B6A22F47422DD
:1054100023F470231A438B6942EA03430268BD4DAB
:1054200042F48064AC420DD1D1E90754496A0A4E76
:1054300023F07C7306EA0151194325F000731943E8
:1054400041EA04030021536480F83C10BDE8704039
:10545000C8B27047FF87F0FF0000F0FC90F83C30C6
:105460000222012B3DD010B5012380F83C3080F89A
:105470003D2002685368D2F808C0A64C42F4806E02
:10548000A64502BF4C6823F470032343B2F1804F5A
:105490000C6823F0700343EA04035360BDE8104036
:1054A00014D0964B9A421CBF954B9A420ED0954B06
:1054B0009A421CBF944B9A4208D0944B9A421CBF0C
:1054C000934B9A4202D0934B9A4204D189682CF0B4
:1054D0008003194391600121002280F83D1080F87B
:1054E0003C20D0B2704700BF10B5044654B394F8C6
:1054F0003D0028B9002084F83C00204600F024F844
:105500000220211D84F83D00206802F0FBFE0120EE
:1055100084F8480084F83E0084F83F0084F8400096
:1055200084F8410084F8420084F8430084F8440081
:1055300084F8450084F8460084F8470084F83D006C
:10554000002010BD012010BDBCB5044621684C48A8
:10555000704A914222D0694A914244D0684A9142AD
:1055600054D0684A914264D0464A914274D0B1F115
:10557000804F18BFBCBD0168002241F001010160ED
:105580000221006800F00100019001981C20FEF744
:1055900037FA1C20BDE8BC40FEF724BA81683A4DBA
:1055A00000224FF480634FF4006C4FF4005E41F032
:1055B000020181602F21806800F0020001900198B3
:1055C000324885E8070005F10C0080E80C502846B9
:1055D000C5E907226A62FDF7CDFA08B1FBF7D9FFEA
:1055E0006562AC63BCBD0168002241F0020101604C
:1055F0000421006800F00200019001981D20FEF7D0
:10560000FFF91D20BDE8BC40FEF7ECB9016800229F
:1056100041F0040101600221006800F004000190E3
:1056200001981E20FEF7ECF91E20BDE8BC40FEF7F5
:10563000D9B90168002241F0080101600121006828
:1056400000F00800019001983220FEF7D9F93220CD
:10565000BDE8BC40FEF7C6B90168002241F0100168
:1056600001600321006800F01000019001983620CD
:10567000FEF7C6F93620BDE8BC40FEF7B3B900BF5F
:10568000E844025800100040344300241000024057
:1056900090F83D1001291CBF01207047022180F8BD
:1056A0003D100168C868B1F1804F40F00100C8604A
:1056B00014D0124881421CBF114881420ED01148BB
:1056C00081421CBF1048814208D0A14881421CBFC2
:1056D0000F48814202D00F48814208D188680E4AA3
:1056E00002400020062A18BFB2F5803F04D00868A7
:1056F00040F0010008600020704700BF0004004037
:1057000000080040000C004000180040000001406C
:10571000004001400004014007000100B0B504460C
:10572000022094F83C20012A4BD0012284F83C202E
:1057300084F83D00206882683C4B1A4082600A6809
:105740003B4D8AB3102A2FD0202A18BF302A2BD0E5
:10575000402A3AD0502A43D0602A4CD0354B9A4246
:1057600022D0B2F5805F25D0B2F5005F4ED0B2F501
:10577000801F18BFB2F1101F16D02F4B9A421CBFCA
:105780002E4B9A4210D0702A1DD1D1E90123C9684D
:105790001A4342EA0121826822F47F421143816068
:1057A000816841F0770104E081682940114341F0AC
:1057B000070181600020012184F83D10002184F858
:1057C0003C10C0B2B0BD0120F5E74B68CA6819466D
:1057D00002F070FF20688168294041F04701E8E746
:1057E0004B68CA68194602F065FF20688168294045
:1057F00041F05701DDE74B68CA68194602F06BFFBC
:1058000020688168294041F06701D2E7D1E901238E
:10581000C9681A4342EA0121826822F47F42114397
:105820008160816841F48041C3E700BF8800CEFFFA
:1058300088FFCFFF40001000200010003000100053
:105840002DE9F84F04460D46002C4CD094F83D004D
:1058500028B9002084F83C00204600F04BF80220D4
:1058600084F83D0020688168214A11408160211D33
:1058700002F048FD20688168D0F818A0D0F820C058
:10588000D5E9003ED5E902B7D5E90489D5E9062670
:1058900019432B6A4BEA02224FF6FC4581604FF612
:1058A000FF71AA432AEA01013943114341EA062163
:1058B00041EA081141EA033181612CF0AA0141EA71
:1058C0000E0141EA09110162012084F8480084F8C0
:1058D0003E0084F83F0084F8440084F8450084F8D2
:1058E0003D00002000E0012001B0BDE8F08F00BFC6
:1058F000F8BFFEFF10B586B0044601A81421FAF7E0
:1059000031FD20681249884220D17548016941F073
:1059100001010161016901F0010100910099016833
:1059200041F01001016001A9006800F01000009032
:1059300000984FF420600190022002900020CDE9F1
:105940000300012005900348FDF7BCFC06B010BD24
:10595000000001400010025870470000F8B50446EE
:105960002068C768066907EA0605A90714D56FF01D
:105970000201016101212177806910F0030F03D03A
:105980002046FFF7E9FF05E0204600F0ADF820468D
:1059900000F03BF900202077680715D520686FF0EC
:1059A0000401016102212177806910F4407F03D056
:1059B0002046FFF7D1FF05E0204600F095F820468D
:1059C00000F023F900202077280715D520686FF014
:1059D0000801016104212177C06910F0030F03D091
:1059E0002046FFF7B9FF05E0204600F07DF820468D
:1059F00000F00BF900202077E80615D520686FF03D
:105A00001001016108212177C06910F4407F03D0A3
:105A10002046FFF7A1FF05E0204600F065F820468C
:105A200000F0F3F800202077E80706D020686FF038
:105A300001010161204600F0EDF917F0800718BF61
:105A400016F4025005D02068114901612046FFF785
:105A5000BAFC47B116F4807005D020680D49016189
:105A60002046FFF7AFFC680606D520686FF04001BE
:105A70000161204600F00EFBA80658BFF8BD206863
:105A80006FF0200101612046BDE8F840FFF79CBCA3
:105A90007FDFFFFFFFFEFFFF10B586B0044601A8C1
:105AA0001421FAF75FFC2068D649884216D10C48C9
:105AB000016841F00401016001A9006800F00400E0
:105AC00000900098C0200190022002900020CDE9B3
:105AD0000300032005900348FDF7F4FB06B010BD5A
