:020000040800F2
:10000000983C0020C5010008D3410008693D000864
:10001000D1410008D1220008754C00080000000002
:100020000000000000000000000000005146000831
:100030005F25000800000000D5410008AD4600081B
:10004000DF010008DF010008DF010008DF01000810
:10005000DF010008DF010008DF010008DF01000800
:10006000DF010008DF010008DF010008DF010008F0
:100070000525000811250008DF010008DF01000840
:100080001D25000829250008DF010008DF01000800
:10009000DF010008DF010008DF010008DF010008C0
:1000A000DF010008DF010008DF010008DF010008B0
:1000B000DF01000811470008DF010008DF01000828
:1000C000DF010008DF010008DF010008DF01000890
:1000D000DF010008DF0100085D4C0008694C0008E2
:1000E000DF010008DF010008DF01000800F002F86E
:1000F00000F059F80AA090E8000C82448344AAF169
:100100000107DA4501D100F04EF8AFF2090EBAE866
:100110000F0013F0010F18BFFB1A43F0010318473B
:1001200018B4000038B40000103A24BF78C878C171
:10013000FAD8520724BF30C830C144BF04680C60ED
:10014000704700000023002400250026103A28BF35
:1001500078C1FBD8520728BF30C148BF0B60704739
:1001600066290BF07580642900F0BC80752900F0C9
:10017000B980782900F0F280732900F06A850020A8
:1001800070471FB500F000FE0400002000210AF0B7
:1001900055FB401C6060002000210AF039FBE06044
:1001A0001FBD10B510BD00F01FFF1146FFF7E9FF9E
:1001B00009F0CCFA01F0C2F903B4FFF7F2FF03BC77
:1001C00004F004FE0948804709480047FEE7FEE7BF
:1001D000FEE7FEE7FEE7FEE7FEE7FEE7FEE7FEE7F7
:1001E00004480549054A064B704700000F470008C0
:1001F000ED00000898240020983C0020982C002056
:10020000982C00200FB4044910B503AA029800F0FE
:1002100025FD10BC5DF814FB100000200FB41CB5C8
:10022000074B06AA7B4469460090059800F0E7FC5E
:100230000020694600F0F6FC1CBC5DF814FB0000D1
:10024000FD09000070B5044685690068C10601D546
:10025000302600E02026C00707D070BDD4E9012178
:1002600030469047206A401C20626D1EF6D570BD56
:1002700070B5044685690078C00707D170BDD4E920
:10028000012120209047206A401C20626D1EF6D577
:1002900070BD70B50C460546012A05D02878800649
:1002A00000D5EA69002302E0012305E05B1C9342CC
:1002B00002D2E05C0028F9D1A869E618C01AA8614A
:1002C000286A184428622846FFF7BCFF04E0D5E9F5
:1002D000012114F8010B9047B442F8D32846FFF7E8
:1002E000C7FF70BD2DE9F04106460024106875294E
:1002F000314616A510D0AFF30080002802DA404244
:1003000013A507E031688A0701D512A502E0490765
:1003100004D511A5012401E0AFF3008000210A22D9
:1003200006F1240709E0B0FBF2FCB0FBF2F302FB9C
:100330001C00303078541846491C0028F3D123465D
:100340002A463046BDE8F04100F0EBB9000000005D
:100350002D0000002B0000002000000070B50446B6
:100360000D4621461068AFF300802188090502D5AB
:100370000F4A7A4402E00E4A7A440E32002104F118
:10038000240305E000F00F060009965D5E54491C49
:100390000028F7D120780023000704D5702D02D063
:1003A00009B1022311322046BDE8704000F0B9B90E
:1003B0008AB000002DE9F05F894604464FF0000A3C
:1003C000DFF874B1FB44C0F820A02046E1688847FC
:1003D000002874D0252806D0D4E901219047206A4E
:1003E000401C2062F1E700265F462046E16888470E
:1003F0002028054607DB312D05D2781910F8200C8E
:1004000008B10643F1E7B00701D526F00406C4F8A9
:100410001CA00027C4F818A02A2D09D0284604F0F3
:10042000CEFC38B304EB8708303DC8F8185019E00B
:1004300059F8041B204604EB87029161E168884764
:10044000012F054618D1E069002820DA26F02006A1
:100450001DE0D8F8180000EB800005EB40003038B4
:10046000C8F818002046E1688847054604F0A7FC54
:100470000028EED1012F0AD02E2D08D12046E168A8
:1004800088477F1C0546022F46F02006C4DBA06982
:10049000002803DA404246F00106A061F00701D0CF
:1004A00026F010066C2D0BD0682D09D04C2D39D0BC
:1004B0006A2D35D0742D35D07A2D33D016E038E042
:1004C000E1682F4620468847B842054609D16C2F7F
:1004D00026D04FF48060E1680643204688470546F1
:1004E00004E06C2F1AD04FF4807006430DB3A5F1D1
:1004F0004100192802D8203546F400664A462946AC
:10050000204626604E46FFF72BFE80B101280BD017
:10051000F61D26F0070000F1080956E74020E4E741
:100520008020D8E70020D6E706F104094DE72846E9
:1005300052E7206ABDE8F09F60B0000008F0CABC36
:1005400030B505460B462A4613F8014B12F8010B4D
:1005500008B1A042F8D01CB1002802D06D1CF1E710
:10056000284630BD40EA0103024630B59B0710D152
:100570004FF0013400E008C208C91D1B9D4315EA75
:10058000C41FF8D013F0FF0102F8011B0DD01B0AA5
:10059000F8E711F8013B002B02F8013B05D011F8F8
:1005A000013B002B02F8013BF3D130BD10B5431CD9
:1005B00002E010F8011B71B18107FAD14FF001324E
:1005C00002C88C1A8C4314EAC211F9D0C01A0A0668
:1005D00003D0C01E10BDC01A10BD0A0401D0801E79
:1005E00010BD0902FCD0401E10BD032A40F230802D
:1005F00010F0030C00F0158011F8013BBCF1020F64
:10060000624498BF11F801CB00F8013B38BF11F8E4
:10061000013BA2F1040298BF00F801CB38BF00F8FB
:10062000013B11F0030300F07D83083AC0F008801D
:1006300051F8043B083A51F804CBA0E80810F5E75C
:10064000121D5CBF51F8043B40F8043BAFF300803F
:10065000D20724BF11F8013B11F801CB48BF11F8B4
:10066000012B24BF00F8013B00F801CB48BF00F884
:10067000012B70474FF000020429C0F0128010F0E7
:10068000030C00F01B80CCF1040CBCF1020F18BF6E
:1006900000F8012BA8BF20F8022BA1EB0C0100F001
:1006A0000DB85FEAC17C24BF00F8012B00F8012BD4
:1006B00048BF00F8012B70474FF0000200B5134609
:1006C00094469646203922BFA0E80C50A0E80C5072
:1006D000B1F12001BFF4F7AF090728BFA0E80C5023
:1006E00048BF0CC05DF804EB890028BF40F8042B1C
:1006F00008BF704748BF20F8022B11F0804F18BF89
:1007000000F8012B704770477047704710B500F034
:100710003FFB006810BD10B5044600F039FB0460D3
:1007200010BD2DE9F0470D4699469246044600F16A
:1007300024080168880604D5E06921F010012160D1
:1007400000E00120A84201DD471B00E00027A1696D
:100750007A1902EB0900081AA0612078C00602D4B9
:100760002046FFF76FFD002608E0D4E901211AF8C2
:1007700006009047206A401C761C20624E45F4DB40
:100780002078C0060AD52046FFF75CFD06E0D4E9D4
:10079000012130209047206A401C2062381EA7F1BA
:1007A0000107F4DC07E0D4E9012118F805009047BF
:1007B000206A401C2062281EA5F10105F3DC2046BA
:1007C000FFF756FD2078000602D50220BDE8F0872D
:1007D0000120FBE770472DE9FF4F0C461E464FF006
:1007E000FF378BB0D2E90001DDF860800A908A46BD
:1007F000C1F30A5505B93D46002108464FF00000F7
:10080000BAF1000F00F4400005DA00EB80004FF46D
:10081000400101EA50004FEA9059B9F1010F00DDA3
:10082000B9460A9850EA4A000ED044F61050A5F294
:10083000FF3545432F14B8F1000F1ED07542291E15
:100840001EDDC9F100021CE0B8F1010F4FF00000FD
:1008500001D0302103E0F24305E02154401CB042B6
:10086000FBDB30460022002121540B99C1F808809F
:10087000C1E900200FB0BDE8F08FBD1B6D1CDEE7A5
:100880004A4600DA694206A800F034FB06AB93E85A
:10089000070003AB83E8070050460A9901F0E3F82C
:1008A0008DE80700A0F500501F3800900398002D38
:1008B0000ADD42F21F014A460844002303A90390BF
:1008C000684601F08FFB09E0A0F500504A461F384A
:1008D000002303A90390684601F0AEFB8DE80700F2
:1008E0000004000C03D04FF0FF30410800E0104638
:1008F000B8F1000F03D00022009215461EE0751ECD
:1009000005D400F049FA303262556D1EF9D5B34670
:100910000122084302D000227F1C04E02078302806
:1009200001D100227F1E002A099784D01DE0112DDD
:1009300007DA00F031FA303262556D1C50EA0102DC
:10094000F5D1084302D00098C8B10EE00021681E1E
:1009500005E0235C625C63542254401E491C8142C2
:10096000F7DBAB46A81B401E0990002004F80B00E3
:100970000B98099AC0F80880C0E9002B7AE7112685
:100980004FF0000857E72DE9F04F88460446D21D86
:1009900022F0070191B0D1E90001CDE90A0104F08C
:1009A0006AF902460B98C00F01D02D2007E020689D
:1009B000810701D52B2002E0202101EAC000032A93
:1009C000099001D0072A05DB03464146204600F086
:1009D00031FA0BE12078800601D5E06900E00620BD
:1009E000B8F1650F814606D0B8F1660F18D0B8F19E
:1009F000670F70D131E00020B9F1110F009001DBD9
:100A0000112301E009F101030AAA01A90CA8FFF7CB
:100A1000E2FEDDE90C70002609F10105834647E09E
:100A200001204B4600904FF000470AAA01A90CA8EC
:100A3000FFF7D1FEDDE90DB00C995D46002610B937
:100A400009F101000D18B9EB050003D4C0F1FF3620
:100A500009F10105A5EB09002BE0B9F1010F01DA5D
:100A60004FF001090020B9F1110F0090484601DD57
:100A7000112300E003460AAA01A90CA8FFF7ABFE68
:100A8000DDE90C704D4600268346207800070AD425
:100A9000AB4500DA5D4601A8012D04DD411911F8CE
:100AA000011C302907D04F4502DA17F1040F04DA90
:100AB000012082460FE06D1EEEE7002F02DCED1BE9
:100AC0003E4403E0781CA84200DD7D1CB81B00F109
:100AD000010A4FF000472078000703D4AA4501DB44
:100AE0004FF0FF3A0021B7F1004F0DF143088DF8A8
:100AF000431024D002202B23002F01DA7F422D2324
:100B00000A21021EA0F1010000DC5FB197FBF1FC9D
:100B100097FBF1F201FB1C7C17460CF1300C08F836
:100B200001CDEEE7A8F1010003702188090501D588
:100B3000452100E06521A0F1010800F8011C099899
:100B40000FA9A1EB0807FF1D00B10120411901EB1E
:100B5000EA70A1693844081A401EA0612078C006D6
:100B600002D42046FFF76EFB099828B1D4E9012191
:100B70009047206A401C20622078C00622D520467B
:100B8000FFF760FB1EE0002E04DBB34502DD01A889
:100B9000805D00E03020D4E901219047206A401CAC
:100BA0002062761CAAF101005FEA000A0AD100F077
:100BB000EBF8C0680168405CD4E901219047206AE5
:100BC000401C2062281EA5F10105DCDC07E0D4E909
:100BD000012118F8010B9047206A401C2062381E42
:100BE000A7F10107F3DC2046FFF742FB032011B019
:100BF00041E6000001694A1C02610878704700B5AF
:100C00008FB0CDE901310021059105497944CDE945
:100C1000031011466846FFF7CDFB0FB000BD000082
:100C2000E5FFFFFF0A6802F8010B0A60704710B584
:100C3000436913B1AFF3008001E0FFF72AFB012005
:100C400010BD127800F124010A7000224A700122BE
:100C5000EDE711684FF0FF32E9E70000074B70B590
:100C60000D467B44FFF7CBFF0446284600F0B4F95D
:100C700010B14FF0FF3070BD204670BD6F82000094
:100C80000FB4002300B589B00CA900910B99CB607B
:100C9000214B7B440693214B7B44079304236FF045
:100CA0000042CDE901321E4A7A446B460892024660
:100CB00000200AF02FFB09B05DF814FB70B5064662
:100CC0004FF0FF3015460C46324686B00091CDE914
:100CD000010169460020049004A8FFF7D1FF0246F5
:100CE0000498211825B108B1084600E02046286084
:100CF000049800280DD0002A02DD0098884208D010
:100D00003246081B69460094CDE9010404A8FFF7A8
:100D1000B7FF06B070BD00001F02000037020000E0
:100D20007701000010B5203AC0F00B80B1E81850F0
:100D3000203AA0E81850B1E81850A0E81850BFF4C5
:100D4000F5AF5FEA027C24BFB1E81850A0E8185064
:100D500044BF18C918C0BDE810405FEA827C24BFB8
:100D600051F8043B40F8043B08BF7047D20728BF46
:100D700031F8023B48BF11F8012B28BF20F8023B95
:100D800048BF00F8012B70470048704758240020E6
:100D9000004870473824002030B5B0F10A024FEA0D
:100DA000900E71F100034EEA817EB0EB0E0061EB14
:100DB00091014FEA101E4EEA017E10EB0E0041EB4E
:100DC00011114FEA102E4EEA016E10EB0E0041EBAE
:100DD00011214FEA104E4EEA014E10EB0E0041EB8E
:100DE0001141401841F100014FEAD00040EA417042
:100DF0004FEAD10110EB80054FEA810444EA907478
:100E000044EB01046D1944EB0404521BA3414FF061
:100E1000000348BF0A3200D530BD401C41F100013B
:100E200030BD10B5044600F005F90068005D00F023
:100E3000010010BD2DE9F0411F460446032601685C
:100E4000072A01F4006004DB08B116A505E016A529
:100E500003E008B115A500E015A521F01000206001
:100E6000A069C01EA0610FB1401EA0612046FFF71F
:100E7000E9F94FB1D4E9012138469047206A401C76
:100E80002062C01C206206E0206AFAE7D4E9012152
:100E900015F8010B9047761EF8D22046FFF7E8F9C7
:100EA000BDE8F0814E414E006E616E00494E460035
:100EB000696E6600426842B1016811F8013B23B1D6
:100EC000521EC0E90012184670470121C160881EF9
:100ED000704742685AB1C368016843B983688B425E
:100EE00005D0491E521CC0E90012002070474FF087
:100EF000FF3070472DE9F047814616468AB03548E5
:100F000078440DC88DE80D0032487844801C03AC4D
:100F10000DC884E80D0041F69B300844372190FB52
:100F2000F1F290FBF1F5A5F1800501FB12041B3CE9
:100F300002D56442012000E00020DFF898A080463E
:100F40000027FA44AAF1BE0A0EE0E0070AD03246B2
:100F5000684607EB470101230AEB810101F06CF8B9
:100F60008DE8070064107F1C002CEED1194F7F44E0
:100F7000AE3F19E0E80715D007EB04100DF1180A91
:100F800090E80E008AE80E00C068F04201D198197E
:100F900008903246012306A903A801F04DF803ABDF
:100FA00083E807006D10641C002DE3D14FF00103AE
:100FB00032466946B8F1000F03A802D001F012F8DA
:100FC00001E001F039F8C9E90001C9F808200AB0C8
:100FD000BDE8F087B4A50000007B00F080007047FA
:100FE00000487047382400207546FFF7F9FFAE46E9
:100FF00005006946534620F00700854618B020B525
:10100000FFF7EEF8BDE820404FF000064FF0000774
:101010004FF000084FF0000B21F00701AC46ACE8A0
:10102000C009ACE8C009ACE8C009ACE8C0098D460D
:101030007047000010B5FFF7A7FE001D10BD00BFF0
:10104000FD9700002DE9FF4F06468BB00878FF287A
:1010500006D0491C2D2805D000244FF0000908E0D7
:1010600000200CE00124F8E709EB8903491C00EBA0
:1010700043090878FF28F7D114B1C9F1000081466F
:10108000107800252C46AA4629462D2801D02B2869
:1010900004D1521C2D2813D0002082468B46107894
:1010A000FF280FD04FF0000C0A21521CA5FB01783D
:1010B00004FB018105FB0C11C5194BEB0104EEE7A4
:1010C0000120EAE7002108464FF00000BAF1000FC6
:1010D00002D000EB80004008C0F38157012F01DDF2
:1010E0004FF0FF370E9955EA040009EB01080BD0C9
:1010F0004FF0020918F5FA7F16DA4FEACA70002F8E
:10110000706008DD012007E04FEACA70C6E900B050
:101110000FB0BDE8F08F00203060FFF739FEC0F857
:1011200000901821084616E0B8F5FA7F18DD002F68
:1011300002DAF748784401E0F6487844D0E9001034
:10114000C6E9001040EACA707060FFF721FEC0F8DF
:101150000090142108460FB0BDE8F04F0AF075B8B2
:10116000002108464FF00000B8F10001099002DAB2
:10117000C7F1000200E03A4601DAC8F1000106A812
:10118000FFF7B8FE06AB93E8070003AB83E8070060
:1011900044F23E005BEA04010090584604D144F258
:1011A0001E012C465D460091210C0904014306D125
:1011B0000099240444EA15442D041039009104F0E8
:1011C0007F41014306D10099240244EA15642D02AF
:1011D0000839009104F07041014306D100992401BF
:1011E00044EA15742D01091F009104F040410143A8
:1011F00006D10099A40044EA9574AD00891E0091BF
:1012000004F00041084304D100986D196441401E68
:1012100000904FF001033A466846B8F1000FCDE95F
:10122000014503A902DD00F01CFF01E000F0EFFE24
:10123000BAF1000F04460D4601D084F000440021AD
:1012400008464FF00000099940F2FF77484010F03F
:101250000C0F07D124F00040284303D0C4F30A50F8
:10126000B84212D1FFF794FDC0F80090C4F30A50C1
:10127000B8420AD1A8487844D0E90010C6E9001065
:1012800004F000410843706042E7C6E900543FE7BC
:101290002DE9FF4F1F464FF0000A4FF0FF3845463B
:1012A00091B0D7E90146CDF83CA0FFF76DFDC068CD
:1012B0000168405C1090B96912986D1C8847396AC2
:1012C000814688470028F6D1B9F1FF3F0AD0002EA9
:1012D00024F4D06411DDB9F12B0F08D0B9F12D0F32
:1012E0000BD102E0404615B013E744F48064B969BD
:1012F00012986D1C8847761E8146600504A901D5A9
:101300002D2000E02B20002E01F1010B0DF1300803
:101310008DF810003FDDB9F1690F08D0B9F1490F20
:1013200005D0B9F16E0F02D0B9F14E0F1CD13B467A
:1013300001A8009580E85002DDE912126FF002006A
:1013400009F0ECFFC11CCED10EE0B96912986D1CFA
:10135000884781461398761E44F4007405600F9800
:10136000401C002E0F9016DDB9F1300FEDD0B9F111
:10137000780F02D0B9F1580F0DD10F9801280AD17A
:101380003B46CDE90054DDE91212001F029609F038
:10139000C3FFC11CA7D1109989453ED144F08004F8
:1013A00006E01399681CAAF1010A44F4007408606D
:1013B000B9696D1C1298761E884730288146F0D096
:1013C0002BE01099894505D1200603D4761E44F000
:1013D000800418E0484603F0F2FC08B3761E0DF1D5
:1013E00023018B4544F4007408D2A9F130000BF8B6
:1013F000010B200607D5AAF1010003E0200602D464
:101400000AF101008246A00502D51399681C086004
:10141000B96912986D1C88478146002ED1DC53E0D3
:10142000002E51DDB9F1650F02D0B9F1450F4BD156
:10143000A00549D5B9696D1C1298761E24F4407434
:101440008847002E81460CDD2B2804D0B9F12D0FE2
:1014500007D144F48074B96912986D1C8847761ED0
:101460008146E00501D52D2100E02B2108F8011B64
:10147000CDF8008021E0761E0DF13901884544F455
:1014800000740CD2A9F1300010F0FF0088F80000C1
:1014900002D10099884509D908F1010806E0E00564
:1014A00001D51E4801E042F20F708246B9691298D8
:1014B0006D1C8847814613980560002E04DD484660
:1014C00003F07DFC0028D6D1F96912988847FF20E7
:1014D00053468BF8000088F8000000200A900B901B
:1014E00004AA0CA90AA8FFF7ADFDA00502D46FF06D
:1014F0000100F8E614F0240F12D0E0071CD1386880
:10150000DDE90A12031D3B600068C0E9001213E028
:1015100028A400001AA40000DEA20000F1D8FFFFFA
:101520000AA9684603F0DAFBE00705D13868009A9B
:10153000011D3960006802602846D4E610B50446F3
:10154000AFF300802046BDE81040FEF735BE000036
:101550004FF0013C50F8042B51F8043B9A4221D142
:10156000A2EB0C03934313EACC1317D150F8042BCE
:1015700051F8043B9A4215D1A2EB0C03934313EAB2
:10158000CC130BD150F8042B51F8043B9A4209D1EB
:10159000A2EB0C03934313EACC13DBD04FF0000013
:1015A000704700BFD01A01BAB1FA81F101F01801F9
:1015B00022FA01F0CB40C1F12001DBB2C0B2C01A67
:1015C0002CFA01F3D11A914311EAC311E6D1704705
:1015D0002DE9FF4F1F464FF03C0987B04FF0004206
:1015E000DDE9141001F10108DDF858A002EA4050CD
:1015F0000390002005908346054604460490B9698F
:10160000461E08988847AAF1010A0290BAF1000F15
:101610003BDD02982E2815D0102100F016FA002884
:101620002EDB4FF0010B0599014317D0B9F1000FE4
:101630000BDB4A46C11700F0F5F905430C43A9F14D
:10164000040905E0012004900BE008B145F0010514
:1016500001200590049820B9361D02E0049800B1DD
:10166000361FB969089808F101088847BBF1000FD7
:10167000AAF1010A0290C9D00999C1F80080C5E712
:101680000298702808D0502806D0F9690898884731
:10169000BBF1000F14D04FE0002002900120BBF1FD
:1016A000000F049009D0B969089808F1010888472B
:1016B000AAF10109B9F1000F07DCF9690898884718
:1016C0006FF001000BB0BDE8F08F2B2804D02D285F
:1016D0000CD14FF0FF300490B969089808F1010867
:1016E0008847A9F10109B9F1000FE6DD411CE4D0FA
:1016F0000A2100F0AAF90028DFDB029908F10108AD
:1017000001EB810100EB41000290B969089888471C
:101710000A2100F09AF9099AA9F10109B9F1000F1B
:10172000C2F8008001DD0028E7DAF96908988847E7
:101730000499029800FB016655EA040004D004F005
:101740004041090002D006E0039898E0A40044EA72
:101750009574AD00B61E04F00041080002D16D1969
:101760006441761E159810F0240F03D04FF00B093A
:101770005C4803E04FF028096FF07D008246564533
:1017800007DAAAEB06018944B9F1410F01DD4FF0F8
:10179000410901200021A9F1010200F043F90246AC
:1017A00028400B462140084301D0012100E00021E0
:1017B000501E029143F1FF3128402140084301D0DF
:1017C000012000E000200299834651EA0B014FD02E
:1017D000002108464FF00000039900F4400039B1A1
:1017E00000EB80004FF4400100EBD07001EA600094
:1017F0008015012802DD4FF0FF3000E013D0401CBF
:1018000036D0029860B3BBF1000F0CD14A460120DC
:10181000002100F007F928402140084301D00120B1
:1018200000E00020E0B101204A46002100F0FAF873
:10183000034640190A4661412D1A8C4111D3B9F172
:10184000400F09DD159810F0240F02D0AAF13406DC
:1018500003E0AAF1170600E0761C00254FF00044D3
:1018600006E05B1E42F1FF3220EA030521EA020492
:10187000CAF10100B04206DA1B49039808430190FF
:10188000002000900EE0039AC4F3D321E80A0A4333
:10189000164940EA44500A433146CDE90002684601
:1018A00003F082FA159810F0240F0BD01598C0079A
:1018B00015D13868DDE90012031D3B600068C0E9FE
:1018C00000120CE002A8694603F008FA1598C00758
:1018D00005D13868029A011D3960006802604046EF
:1018E000F0E6000002FCFFFF0000F07F0000F03F88
:1018F0002DE9FF4F92461D4685B04FF00041DDE9CE
:10190000124BDDE914727F1E01EA4B50414940F051
:10191000FF4940EA0108002122F0200049280491F3
:1019200002D04E2828D04CE03BA0012607C88DE805
:101930000700A9690698641C88477F1E014606D4E3
:101940001DF8060018B121F0200181420BD0E96991
:1019500006988847032E34D0082E32D06FF001004D
:1019600009B0BDE8F08F761C032E01D0082EE0D11F
:10197000601CCAF80000DCE7A9690698641C884767
:101980007F1E2AD420F02000412826D1A96906987C
:10199000641C88477F1E20D420F020004E281CD1D4
:1019A000A9690698641C88477F1E48F4002849F4FA
:1019B0008009CAF8004001D4282806D0E9690698B1
:1019C00088475FEACB7012D022E0A9690698641CB0
:1019D00088477F1E01D4002803DAE9690698884702
:1019E000BCE72928F1D1641CCAF80040E9E71BF0E4
:1019F000240F07D028680499031D2B600068C0E9F4
:101A0000001805E02868021D2A600068C0F80090F0
:101A10002046A5E70000F07F494E46494E495459FB
:101A200000000000B2F120030AD5C2F1200301FA40
:101A300002F120FA03F300FA02F041EA03017047D1
:101A400000FA03F14FF0000070473A2800D2303816
:101A500020F02002412A01D3A2F13700884201D3AD
:101A60004FF0FF3070475FEA400C08BF91F0000F65
:101A70004FEA8C234FEAC12243EA51514FEA1C50EE
:101A800018BF00F5F0404FEA300018BF41F00041A8
:101A90005FEA6C5C00F02980BCF1FF3F08BF40F0BA
:101AA00080407047130C06BF12044FF0100C4FF02B
:101AB000000C130E04BF12020CF1080C130F04BF2C
:101AC00012010CF1040C930F04BF92000CF1020CF4
:101AD000D30F04BF52000CF1010C11464FF000026D
:101AE000A0F11F00A0EB0C00704711F0004F08BFE1
:101AF000704731F000413FF4D5AF0B0C06BF09042D
:101B00004FF0100C4FF0000C0B0E04BF09020CF14B
:101B1000080C0B0F04BF09010CF1040C8B0F04BF60
:101B200089000CF1020CCB0F04BF49000CF1010C31
:101B3000CCF12003A0EB0C0022FA03F302FA0CF222
:101B400041EA030100F10100704720F07F4C80EA78
:101B5000030023F07F47ACEB070303F57C5300F051
:101B6000004003F1FF032DE980494FEA154B09B40A
:101B70004FEA144325EA0B4E24EA03480FF20426E9
:101B800006EB132749083E785FEA320203FB06673B
:101B9000C7F5000707FB06F64FEA54374FEAD6466B
:101BA00006F1020607FB066CCCF1005C4FEA1C470D
:101BB0002CEA074C07FB06F40CFB06F504EB154674
:101BC0004FEA961634BF00204FF000404FEAD1375D
:101BD00006FB07FC4FEA1C4C0CFB0BF7D21B03FB6C
:101BE0000CF761EB07010CFB0EF7B0EB074072EB53
:101BF00017420CFB08F734BFA2EB0742B2EB0742D7
:101C000061EB17414FEA0C444FEA910706FB07FCD2
:101C10004FEA1C4C0CFB0BF7B0EBC74072EB573292
:101C200003FB0CF734BFA2EBC742B2EBC74261EB38
:101C300057310CFB0EF7B0EBC70072EB57720CFB81
:101C400008F734BFA2EBC702B2EBC70261EB5771D2
:101C5000039F4FEA816141EA921104EBCC044FEA01
:101C6000D1374FEA826206FB07FC42EA90124FEA44
:101C700080604FEA1C4C0CFB0BF7D21B03FB0CF7EC
:101C800061EB07010CFB0EF7B0EB074072EB17425C
:101C90000CFB08F734BFA2EB0742B2EB074261EB43
:101CA00017414FEA8C554FEA910704EB9C2406FB41
:101CB00007FC4FEA1C4C0CFB0BF7B0EBC74072EB78
:101CC000573203FB0CF734BFA2EBC742B2EBC7425B
:101CD00061EB57310CFB0EF7B0EBC70072EB57729C
:101CE0000CFB08F734BFA2EBC702B2EBC70261EBF3
:101CF000577115EB4C254FEA816141EA92114FEA89
:101D000082624FEAD13742EA901206FB07FC44F1A7
:101D100000044FEA80604FEA1C4C0CFB0BF7D21B0F
:101D200003FB0CF761EB07010CFB0EF7B0EB074070
:101D300072EB17420CFB08F734BFA2EB0742B2EB81
:101D4000074261EB174115EB1C154FEA813141EA5F
:101D500092414FEA823242EA90424FEA80304FEAA3
:101D60000C7644F1000448EA03434EEA0B484FF076
:101D7000000EB2EB080C71EB030724BF6246394634
:101D80004EEB0E0E4FF0000B0018524149414BEB49
:101D90000B0BB2EB080C71EB03077BF1000B24BFBC
:101DA000624639464EEB0E0E4FF0000B00185241C2
:101DB00049414BEB0B0BB2EB080C71EB03077BF1CA
:101DC000000B24BF624639464EEB0E0E51EA020765
:101DD00018BF46F0010616EB0E7655F1000254F1DD
:101DE000000103D5BDE88901BDE80088BDE889018F
:101DF000BDE80048B619524141EB0101A3F10103CE
:101E0000704780807F7E7D7C7B7A79787776767567
:101E10007473727171706F6E6E6D6C6C6B6A6A69DF
:101E20006868676666656464636362616160605F79
:101E30005F5E5E5D5D5C5C5B5B5A5A5959585857F2
:101E4000575656555555545453535252525151505A
:101E500050504F4F4F4E4E4D4D4D4C4C4C4B4B4BAD
:101E60004A4A4A49494948484847474747464646F3
:101E7000454545444444444343434342424242412E
:101E80004141000046EA0646A3F570534FEA164664
:101E900046EA42564FEAD22242EA415210B54FEA90
:101EA000D121A3F1010300F02FF820F0004000F150
:101EB000020C00F0004701EB00501146BCF5006F2A
:101EC00040EA070000D210BDBAF1000F0AD01CB5DD
:101ED00003B44FF004004FF004014FF000000FBCBA
:101EE000BDE810404FF00001BBF1010FB9BF04483D
:101EF0004FF0FF310348002140EA070010BD00BF4A
:101F0000FFFFEF7F0000F07F002B9C4630D477006E
:101F10002BD01CB54FEA370703B44FF010004FF039
:101F20001001BAF1000F06D0BCF1000FDCBF40F089
:101F3000080040F008014FF000000FBCBDE8104061
:101F40000BF1010BBBF1010F08BF5FEA170722BFBE
:101F500012F1010211F101014FF0004143F10003C0
:101F600000F0004043EA00007047F9D35708D0E77B
:101F700046EA064613F1400F4FEA16461FDD13F1FD
:101F8000200FDFBF16430A46002120335B42BED03C
:101F9000C3F1200746EA064602FA07F74FEA16465B
:101FA00046EA0706C3F1200722FA03F201FA07F70F
:101FB00021FA03F14FF0000342EA0702A7E746EADD
:101FC000020646EA06464FEA164646EA0106BCBF46
:101FD00046EA0646360C4FF000034FF000024FF081
:101FE000000194E72DE9804C9A46934670B491E83D
:101FF000380007C831EA400C48BF34EA430C03D527
:10200000FFF7A3FDFFF780FFF0BCBDE8008C2DE9D2
:10201000804C9A46934670B491E8380007C831EA7C
:10202000400C48BF34EA430C03D5FFF78EFDFFF7A1
:1020300029FFF0BCBDE8008C2DE9804C9A46934600
:1020400070B491E8380007C810F0804F08BF13F053
:10205000804F03D100F01AF8FFF756FFF0BCBDE83F
:10206000008C2DE9804C9A46934670B491E8380074
:1020700007C810F0804F08BF13F0804F03D100F065
:1020800005F8FFF7FFFEF0BCBDE8008C20F07F47AD
:1020900080EA030023F07F4C07EB0C03A3F57C538D
:1020A00000F00040A3F1FE0392F0000F00F0B380B7
:1020B00095F0000F00F077802DE901494FEA1140BB
:1020C0004FEA144621EA004800FB06FC24EA0647D2
:1020D00008FB06F607FB08F800FB07F718EB0648B5
:1020E0004CEB164C4FEA124B18EB07484FEA1546DB
:1020F0004CEB174022EA0B4E0BFB06FC25EA064789
:102100000EFB06F607FB0EFE0BFB07F71EEB064E5B
:102110004CEB164C4FF000061EEB074E4CEB174BEA
:1021200018EB0B0840F1000018EB0E0B58EB000801
:1021300040F100008F1A4FF000013CBFC943661BFD
:1021400014BFB5EB040C00213CBFC943F61B4FEA9A
:1021500017444EEA8E0E27EA04454FEA1C4704FB5B
:1021600007622CEA074C05FB07F70CFB05F604FB9E
:102170000CFC16EB074642EB174216EB0C4642EB03
:102180001C421BEB060658EB0202414146EA9E0642
:1021900001D5BDE80189B619524141EB0101A3F116
:1021A0000103BDE801894FEA14454FEA114724EACB
:1021B000054621EA074C05FB07F406FB07F70CFB75
:1021C00006F105FB0CFC11EB074144EB17444FEA09
:1021D000124711EB0C4144EB1C4422EA074C05FB6F
:1021E00007F206FB07F70CFB06F605FB0CFC16EBEB
:1021F000074642EB174216EB0C4642EB1C456A18A9
:1022000054F1000148BF7047B619524141EB01013A
:10221000A3F10103704795F0000F37D04FEA114248
:102220004FEA144721EA024624EA074C02FB07F171
:1022300006FB07F70CFB06F402FB0CFC14EB07444F
:1022400041EB17414FEA154714EB0C4441EB1C419D
:1022500025EA074C02FB07F506FB07F70CFB06F621
:1022600002FB0CFC16EB074645EB174516EB0C463C
:1022700045EB1C42121951F1000148BF7047B619D5
:10228000524141EB0101A3F1010370474FEA1445AC
:102290004FEA114724EA054621EA074C05FB07F1FE
:1022A00006FB07F70CFB06F24FF0000605FB0CFCE3
:1022B00012EB074241EB174112EB0C4251EB1C4170
:1022C00048BF7047921841EB0101A3F10103704729
:1022D000FEE710B5302008F07DFAE0B210BD3120E5
:1022E00000F078B80146362000F067B810B508B1A4
:1022F00000F07AF8BDE81040342000F06BB810B55B
:10230000044600F071F820785C2801D02F2803D112
:102310000021642000F0C9F8BDE81040322000F030
:1023200059B8682000F02EB82DE9F04108F046FABF
:10233000064608F043FA054608F040FA044608F05D
:102340003DFA074608F038FA46EA052040EA04401C
:1023500040EA0760BDE8F08170B50546272008F027
:1023600039FA08F02BFA0400264607D008F026FABE
:10237000641E05F8010B14F0FF04F7D108F01CFAF5
:10238000304670BD10B504460C2008F023FA2046F4
:1023900008F032FABDE81040FFF7C6BF10B504469A
:1023A0000A2008F017FA204608F026FA08F006FA84
:1023B000044608F001FA204610BD10B50C4608F09E
:1023C00009FA204608F018FA08F0F6F9BDE81040BE
:1023D00008F0F4B910B508F0FDF908F0EDF9BDE822
:1023E000104008F0EBB9000070B50546012008F078
:1023F000F1F908F0E3F9432828D22B20FFF7CEFFAC
:10240000102823D22F2008F0E5F9002008F0F4F975
:102410003220FFF7DFFF142818D1CF20FFF7BEFFCF
:10242000040013D04C20FFF7ADFF00EB04214C203B
:1024300000F03BF85020FFF7A5FF00EB04215020EF
:1024400000F033F80021702000F02FF82F2008F062
:10245000C1F92C7806E000BF15F8014F5C2C0AD0BA
:102460002F2C08D0204608F0C7F9002CF4D1BDE885
:10247000704008F0A1B9002008F0BEF9F7E770B588
:1024800005462D2008F0A6F908F098F90400264624
:1024900007D0287808F0B0F9641E6D1C14F0FF0412
:1024A000F7D108F089F9304670BD70B505460C4685
:1024B0000D2008F08FF9284608F09EF9E0B208F0E8
:1024C0009BF9C4F3072008F097F9C4F3074008F01C
:1024D00093F9200E08F090F9BDE8704008F06CB94F
:1024E00010B55324062008F075F9204608F084F949
:1024F00008F064F9AC2801D0002010BD012010BD07
:1025000070470000014800F09FB80000E021002063
:10251000014800F099B800009C210020014800F01B
:1025200093B80000C8000020014800F08DB80000FA
:102530000C01002030B590F840500124AC40C56B30
:102540006C60046863604368102B036803D0996073
:102550000068C26030BD9A600068C16030BD7047DD
:1025600072B6FEE710B590F821100022022905D0BE
:102570000421816380F82020012010BD01680B68D0
:1025800023F00E030B6001680B6823F001030B605E
:1025900090F84030C46B012101FA03F3636080F8C6
:1025A000211080F82020104610BD000010B590F8D2
:1025B00021100024022903D00421816301243DE07D
:1025C00001680A6822F00E020A6001680A6822F0B7
:1025D00001020A601A4A0168914201D1012121E0F9
:1025E000174A1432914201D110211BE0144A2832BB
:1025F000914201D1891515E0114A3C32914201D135
:1026000089140FE00E4A5032914202D14FF48031CA
:1026100008E00B4A6432914202D14FF4801101E08C
:102620004FF08071064A083A5160012180F821106C
:10263000002180F82010416B01B18847204610BD71
:1026400008000240806B70472DE9F05FC16B0C6899
:1026500001680B68D0F840C0042202FA0CF2494D20
:10266000DFF824A1494E4A4FDFF828B1DFF828E10E
:1026700022422CD05A072AD50A68920603D40A6847
:1026800022F004020A600168A94201D1042219E083
:10269000514501D1402215E0B14202D14FF4806290
:1026A00010E0B94202D14FF480420BE0594502D10B
:1026B0004FF4802206E0714502D14FF4800201E020
:1026C0004FF080622F4908394A60C16A3BE04FF001
:1026D000020808FA0CF818EA040F4FF000094FF04E
:1026E000010235D05FEA837832D50B689B0605D4AA
:1026F0000B6823F00A030B6080F821200168A942CF
:1027000001D1022219E0514501D1202215E0B14248
:1027100002D14FF4007210E0B94202D14FF40052DE
:102720000BE0594502D14FF4003206E0714502D169
:102730004FF4001201E04FF00072124908394A606C
:1027400080F82090816A00291AD0BDE8F05F084720
:10275000082505FA0CF5254212D01B0710D50B6889
:1027600023F00E030B6090F84010C36B02FA01F1E6
:102770005960826380F8212080F82090016BE2E7A5
:10278000BDE8F09F080002401C00024030000240FB
:1027900044000240580002406C00024030B528B3AB
:1027A00008C8134914221944B1FBF2F18900C1632E
:1027B00010498163022141771A6843F6F0718A4318
:1027C000D0E900142143D0E902452C432143046998
:1027D0002143446921438469214311431960002145
:1027E0004163012242770177084630BD012030BDA8
:1027F000F8FFFDBF0000024070B5044690F82000CD
:10280000002501280CD0012084F8200094F82160D4
:102810000020012E06D084F820000225284670BD35
:10282000022070BD022684F82160A063206806683B
:1028300026F0010606602046FFF77CFEE06A0028CD
:102840002068016802D041F00E0106E021F0040189
:1028500001602068016841F00A0101602068016898
:1028600041F001010160D9E770B5044600F004F9B8
:102870000546601C02D004480078044400F0FCF8CF
:10288000401BA042FAD370BD180000202DE9F84F7C
:10289000DFF8B8910024A9F1040B23460F2709F1B2
:1028A000040AABF1040EC9E00125A5402A40AA4262
:1028B0007DD1674ED1F804C0ACEB0608B44532D0E8
:1028C00014DCBCF1030F3AD009DCBCF1000F2AD0B4
:1028D000BCF1010F1CD0BCF1020F31D11DE0BCF1E5
:1028E000110F17D0BCF1120F2AD119E0B8F5881FCB
:1028F00019D006DCB8F5803F15D0B8F5801F1FD180
:1029000011E0B8F5001F0ED0B8F5041F18D10AE089
:10291000CB6815E0CB681B1D12E0CB6808330FE0D5
:10292000CB680C330CE08B682BB1012B4FF0080304
:1029300003D0456104E0042302E0056100E00023C8
:10294000FF2A01D8064601E000F104064FEA84059B
:1029500001D9A5F12005D6F8008007FA05FC28EA80
:102960000C0803FA05F548EA0508C6F800804D682A
:10297000ED0062D5374DAE6946F00106AE61AD6936
:1029800024F0030605F001050095334D06EB050C18
:10299000DCF80850A607360F07FA06F825EA0805FE
:1029A000DFF8B880404503D14FF0000817E044E05D
:1029B000DFF8AC80404502D14FF001080FE0DFF8AE
:1029C000A480404502D14FF0020808E0DFF898806B
:1029D000404502D14FF0030801E04FF0040808FA27
:1029E00006F848EA0508CCF808804D68D9F8006078
:1029F000ED024D4601D5164300E096432E604D682A
:102A0000DAF80060AD02554601D5164300E0964362
:102A10002E604D68DBF80060AD035D4601D51643BE
:102A200000E096432E604D68DEF80060ED037546C9
:102A300001D5164300E096432E60641C0D682A46BB
:102A4000E5407FF431AFBDE8F88F00000804014095
:102A50000000111000100240000001400008014079
:102A6000000C014000100140001401408068084043
:102A700000D00120704700000148806870470000C6
:102A80001800002002488168027811448160704774
:102A900018000020074810B5016841F010010160DE
:102AA000032000F075F80F2000F006F800F024F87D
:102AB000002010BD0020024070B50D4D04464FF4BB
:102AC0007A712878B1FBF0F00A490968B1FBF0F09F
:102AD00000F0DCFA48B9102C07D200222146501E23
:102AE00000F036F800206C6070BD012070BD000061
:102AF00018000020240000200C4808B5816941F02E
:102B000001018161816901F001010091C16941F018
:102B10008051C161C06900F0805000900448416854
:102B200021F0E06141F00071416008BD00100240F9
:102B300000000140002809DB00F01F020121914044
:102B40004009800000F1E020C0F80011704700004B
:102B5000F0B40E4B1B680C46C3F30223C3F1070508
:102B6000042D00D90425191D072901D2002300E0F6
:102B7000DB1E012606FA05F1491E214099409E40C0
:102B8000761E16403143F0BC02F089B80CED00E02F
:102B9000064900F0070208684FF6FF03184040EAB4
:102BA0000220034A10430860704700000CED00E06B
:102BB0000000FA052DE9F0470F46050061D0434EAD
:102BC000306800F00700B84209D2306820F00700F2
:102BD00038433060306800F00700B84251D12868AF
:102BE0003B4C810712D5400703D5606840F4E06094
:102BF00060602878000703D5606840F4605060602A
:102C00006068A96820F0F000084360602878C00779
:102C100028D06868012810D02168022810D08907C0
:102C200000292EDA616821F0030101436160FFF79A
:102C300023FF804641F288390DE021688903EFE7E0
:102C40008901EDE7FFF718FFA0EB0801494502D91C
:102C50000320BDE8F0876068696800F00C00B0EB05
:102C6000810FEFD1306800F00700B8420BD930680F
:102C700020F0070038433060306800F00700B842A9
:102C800001D00120E5E72878400705D56068E968AC
:102C900020F4E060084360602878000706D560688B
:102CA000296920F4605040EAC100606000F038F803
:102CB0006168084AC1F30311515CC84006490860C5
:102CC00006480068FFF7F8FE0020C2E70020024037
:102CD0000010024062B30008240000201C00002005
:102CE0000448054900684968044AC1F30221515C5F
:102CF000C8407047240000200010024072B3000852
:102D00000448054900684968044AC1F3C221515C7E
:102D1000C8407047240000200010024072B3000831
:102D20000E4A51680E4801F00C03042B11D0082BF9
:102D30000FD10C48C1F38343C903C05C0AD5516865
:102D4000084AC1F34041921E515C054A5043B0FB12
:102D5000F1F07047044948437047000000100240FA
:102D600000127A0052B3000800093D002DE9F84F27
:102D7000040070D02078C04DC00749D06868C0F307
:102D80008100012807D06868C0F38100022809D1BA
:102D90006868C00306D52868800339D560680028B4
:102DA000E7D035E06068B0F5803F0BD010B1B0F5EA
:102DB000A02F11D0286820F480302860286820F4E3
:102DC000802002E0286840F480302860606890B17C
:102DD000FFF752FE06460AE0286840F4802028608B
:102DE000F0E700BFFFF748FE801B642873D828680F
:102DF0008003F7D50CE0FFF73FFE064605E000BF75
:102E0000FFF73AFE801B6428F0D828688003F7D4C7
:102E100020789A4E80074FF001094FF0000839D50D
:102E2000686810F00C0F07D06868C0F381000228B2
:102E300009D16868C00306D42868800714D52069C2
:102E4000012808D110E02069B0B1C6F80090FFF762
:102E500013FE074605E00AE1FFF70EFEC01B02283D
:102E6000C4D828688007F7D52868616920F0F80081
:102E700040EAC10028600DE0C6F80080FFF7FCFDC5
:102E8000074604E0FFF7F8FDC01B022823D8286896
:102E90008007F7D4207800072CD57948A169D9B1EB
:102EA000C0F80090FFF7E8FD074604E0FFF7E4FDF7
:102EB000C01B02280FD8686A8007F7D571484FF405
:102EC000FA510068B0FBF1F0009000BF0098411E7D
:102ED0000091FAD20EE080E0C0F80080FFF7CCFD50
:102EE000074604E0FFF7C8FDC01B022875D8686AD2
:102EF0008007F7D42078400760D5E8690027C00034
:102F000008D4E86940F08050E861E869012700F0E2
:102F1000805000905C480168C90513D4016883465D
:102F200041F480710160FFF7A7FD824606E000BF13
:102F3000FFF7A2FDA0EB0A0064284ED8DBF80000E2
:102F4000C005F5D5E06801280AD008B1052813D0DE
:102F5000286A20F001002862286A20F0040002E0BC
:102F6000286A40F001002862E06841F2883B98B18D
:102F7000FFF782FD82460BE0286A40F004002862D9
:102F8000EEE700BFFFF778FDA0EB0A0159455AD8DC
:102F9000286A8007F6D50CE0FFF76EFD824605E053
:102FA000FFF76AFDA0EB0A0159454CD8286A800753
:102FB000F6D41FB1E86920F08050E861E06988B379
:102FC0006968C1F38101022944D00228C6F86080F3
:102FD00004D0FFF751FD044638E034E0FFF74CFD24
:102FE000074604E0FFF748FDC01B02282BD82868DD
:102FF0008001F7D4206AB0F5803F05D16868A168E8
:1030000020F4003008436860D4E908010843696887
:1030100021F4741108436860C6F86090FFF72CFD36
:10302000044606E025E000BFFFF726FD001B02284E
:1030300009D828688001F7D51BE000BFFFF71CFD09
:10304000001B022802D90320BDE8F88F2868800100
:10305000F4D40EE00128F7D06868226A00F48031C9
:10306000914204D1616A00F47010884201D00120BD
:10307000EAE70020E8E700000010024000004242BA
:1030800080044242240000200070004010B5401E21
:10309000B0F1807F01D3012010BD4FF0E0246061CA
:1030A0000F21601701F0FBFD0020A06107202061C7
:1030B000002010BD7047704770B590F83C20012A81
:1030C00026D0012480F83C40022280F83D2003688D
:1030D0005A689D6822F070060A6832435A600D4BA8
:1030E00002689A4208D0B2F1804F05D00A4B9A424A
:1030F00002D00A4B9A4204D1496825F08003194353
:10310000916080F83D40002180F83C10084670BD79
:10311000022070BD002C0140000400400008004067
:1031200010B5040003D094F83D0010B107E0012071
:1031300010BD002084F83C00204600F01FF802205B
:1031400084F83D00211D206801F0E8FA012084F890
:10315000460084F83E0084F83F0084F8400084F87C
:10316000410084F8420084F8430084F8440084F865
:10317000450084F83D00002010BD000008B500683F
:103180000B49884212D10B48C16941F00201C1616B
:10319000C069002200F00200009011461D20FFF7D8
:1031A000D7FCBDE808401D20FFF7C4BC08BD0000E7
:1031B000000400400010024090F83D10012901D0A9
:1031C00001207047022180F83D100168CA6842F072
:1031D0000102CA6000680B49884208D0B0F1804FF4
:1031E00005D00949884202D00849884204D1816843
:1031F00001F00701062903D0016841F001010160D7
:1032000000207047002C01400004004000080040EE
:1032100070B5044690F83C000025012817D001261F
:1032200084F83C60022084F83D002068826822F027
:10323000770222F47F4282600868502838D00DDC83
:1032400020284FD005DC90B3102811D14AE002208D
:1032500070BD302846D040280AD13BE060282FD0EE
:1032600070280DD0B0F5805F03D0B0F5005F12D0AC
:10327000012584F83D60002084F83C00284670BD9C
:10328000CB68D1E90121206801F091FA20688168BA
:1032900041F0770109E0CB68D1E90121206801F014
:1032A00086FA2068816841F480418160E1E719E095
:1032B000CA684968206801F08CFA5021206806E04D
:1032C000CA684968206801F095FA6021206801F019
:1032D00078FACEE7CA684968206801F07AFA402196
:1032E0002068F4E7226801461046F0E72DE9F04136
:1032F0000D46040003D094F83D0018B108E0012009
:10330000BDE8F081002084F83C00204600F040F841
:10331000022084F83D002068816844F2070291434E
:103320008160211D206801F0F9F922689068916997
:10333000166A2B68AF69034340F20330814341EAC8
:103340000721A868EF6908434FF6FC418843E96804
:1033500040EA0720014328692F6A000140EA07304C
:10336000084369686D6926F0220646EA0515294377
:1033700093602268906154F8460B0162012004F8C2
:103380001F09E0752076E0762077A0750020B7E76A
:1033900000B585B000210091019102910391006870
:1033A0000E49884218D10E48C16941F00401C1613B
:1033B000C16901F004010491816941F00801816152
:1033C0008069694600F008000490C0200090012048
:1033D00002900448FFF75AFA05B000BD000800400B
:1033E00000100240000C014070B590F83E600446A9
:1033F00090F83F5090F8423090F84320022021B1DD
:1034000004290ED0012E1BD114E0012E18D1012B5E
:1034100016D184F83E0084F8420001220021206881
:1034200020E0012D0CD1012A0AD184F83F0084F854
:10343000430014E0012D03D1012B01D1012A01D059
:10344000012070BD84F83E0084F83F0084F84200FB
:1034500084F8430001220021206801F09BF9012239
:103460000421206801F096F92068016841F001010B
:103470000160002070BD70472DE9F04104460068EE
:10348000C66805694FF00007A90713D5B10711D524
:10349000F91E01610120207720688069800720469D
:1034A00002D0FFF7E8FF04E000F07EF8204600F0CD
:1034B0007CF82777680716D5700714D521686FF058
:1034C00004000861022020772068806910F4407FA2
:1034D000204602D0FFF7CFFF04E000F065F8204659
:1034E00000F063F82777280715D5300713D5216832
:1034F0006FF008000861042020772068C069800709
:10350000204602D0FFF7B7FF04E000F04DF8204658
:1035100000F04BF82777E80616D5F00614D5216899
:103520006FF010000861082020772068C06910F44F
:10353000407F204602D0FFF79EFF04E000F034F801
:10354000204600F032F82777E80708D0F00706D0C9
:1035500021686FF001000861204600F027F8280676
:1035600008D5300606D521686FF080000861204636
:10357000FFF7A0FD680608D5700606D521686FF034
:1035800040000861204600F04DF8A8060AD5B006B4
:1035900008D521686FF0200008612046BDE8F041A1
:1035A000FFF789BDBDE8F0817047704710B5174936
:1035B00000680968884228D100F0F0FB05F01CFA89
:1035C00005F03CFD03F05CF91148C168491CC1607D
:1035D0000269521C02614269521C42618269521C9A
:1035E0008261C269521CC26132290EDB0021C160B6
:1035F0000848007828B908480278084802B90849FC
:103600000160BDE81040FEF77BBF10BD50010020F7
:10361000280000204C0000204D000020C4000020A5
:103620000000C8427047704770B5044620680C30EF
:1036300050E8001F21F4907140E80012002AF5D1F3
:103640002068143050E8001F21F0010140E800120A
:10365000002AF5D1206B012809D120680C3050E8F0
:10366000001F21F0100140E80012002AF5D1206867
:1036700040694FF00005400615D52068143050E829
:10368000001F21F0400140E80012002AF5D1E06B54
:1036900048B14563E06BFEF765FF20B1E06BFEF7D4
:1036A000D1FF202806D0E585202084F8420025633C
:1036B000002070BD10206064032070BD704710F8BA
:1036C000411F407808437047F8B501680446086810
:1036D000CA684B6910F00F0F4FF0000559D003F086
:1036E000010602F49077374365D0C10705D0D105B4
:1036F00003D5616C41F001016164410705D5D9072B
:1037000003D0616C41F002016164810705D5D907DE
:1037100003D0616C41F004016164010707D502F038
:103720002001314303D0616C41F008016164616C98
:1037300000293AD0800604D5900602D5204601F033
:1037400033F920684069616CC0F38010090700D428
:1037500060B3204601F0F3F820684069400621D5A7
:103760002068143050E8001F21F0400140E80012AA
:10377000002AF5D1E06BA8B16D494163E06BFEF71B
:1037800015FF002811D0E06B416B01B0BDE8F0409F
:10379000084783060FD593060DD52046BDE8F840AF
:1037A00001F002B92046FFF789FFF8BD2046FFF778
:1037B00085FF6564F8BD266B2023012E7CD1C606EB
:1037C0007AD5D60678D508684868009048694FF0E1
:1037D0000206400640D5E16B086840680004000C12
:1037E000E8D0A28D8242E5D9E085886920282DD0D5
:1037F00020680C3050E8001F21F4807140E800126E
:10380000002AF5D12068143050E8001F21F0010192
:1038100040E80012002AF5D12068143050E8001F5B
:1038200021F0400140E80012002AF5D184F842302E
:10383000256320680C3050E8001F21F0100140E89B
:103840000012002AF5D1E06BFEF78CFE6663A08DB6
:10385000E18D401A81B22AE0A08DE18D401A81B23B
:10386000E08D0028A6D00029A4D022680C3252E8AE
:10387000000F20F4907042E80007002FF5D1206877
:10388000143050E8002F22F0010240E80027002FFA
:10389000F5D184F84230256320680C3050E8002FC1
:1038A00022F0100240E80023002BF5D16663204689
:1038B000FFF7B9FEF8BDFFE705062BD5150629D59C
:1038C00094F841002128F5D1A068B0F5805F01D1BE
:1038D0002069B0B1206A411C2162216800784860EB
:1038E000E08C401E0004000CE084E3D12068C16835
:1038F00021F08001C1602068C16841F04001C160D1
:10390000D8E7206A0088C0F308004860206A801C5D
:103910002062E5E74006CDD55006CBD5CA682046E3
:1039200022F04002CA6084F8413000F01CFAC1E77E
:103930004148000870B5040004D094F84100002507
:1039400010B106E0012070BD84F84050204600F020
:1039500023F8242084F841002068C16821F4005134
:10396000C160204601F082F82068016921F490418D
:1039700001612068416921F02A0141612068C16824
:1039800041F40051C1606564202084F8410084F84E
:1039900042006563002070BD2DE9F04186B000242F
:1039A0000094019402940394054603686048DFF88C
:1039B0007CC1022103225F4E0715634521D1836933
:1039C00043F480438361836903F4804304938369F0
:1039D00043F0040383618069039200F004000490C3
:1039E0000802CDE9000169463046FEF74FFFCDE9F8
:1039F0000074694630460294FEF748FF06B0BDE801
:103A0000F081DFF834C1634526D1C36943F4003344
:103A1000C361C36903F400330493836943F004036F
:103A200083618069039200F0040004900420CDE9D2
:103A3000000169463046FEF729FF0820CDE9000461
:103A4000694630460294FEF721FF002211462620E7
:103A5000FFF77EF8262065E0384EB342CED1C36929
:103A600043F48023C361C36903F48023049383690F
:103A700043F0080383618069CDE9007100F008001C
:103A8000CDE903202E4E69463046FEF7FFFEF014C6
:103A9000CDE900040120029069463046FEF7F6FEAB
:103AA000294E28484FF08008C6E90004C6E90248BC
:103AB00034614FF400577461C6E906473046FEF79B
:103AC0006DFE08B1FEF74CFDEE6375621E4E1D489B
:103AD0004436143801C61020A6E811011A4846F8E9
:103AE000104944307461C6E90647FEF757FE08B135
:103AF000FEF736FDAE630022114627207562FFF700
:103B000027F82720FFF716F8002211460D20FFF7AF
:103B10001FF80D20FFF70EF8002211460C20FFF7CA
:103B200017F80C20FFF706F868E70000003801409E
:103B300000100240000801400044004000480040DE
:103B4000000C0140300002409C2100202DE9F84F7C
:103B5000044690F842009A4616460D46202802D0A8
:103B60000220BDE8F88FB5B1AEB10020606422211B
:103B700084F842102063FEF77FFFA6858146E68524
:103B8000A0684FF480582027404501D1206920B11A
:103B90002E46002529E00120E3E7002625E04B46DC
:103BA000002220212046CDF800A001F01EF818B117
:103BB00084F842700320D4E726B1A06840451AD0AB
:103BC00038B108E020684068C0F3080025F8020B0F
:103BD00008E0206978B12068406800F07F0000BFED
:103BE00006F8010BE08D401EE085E08D0028D6D15F
:103BF00084F84270B5E720684068F1E790F84230F9
:103C0000202B01D00220704721B11AB10023036399
:103C100000F088BF0120704790F84230202B01D07F
:103C20000220704721B11AB10023036300F0C2BF24
:103C30000120704770B500681C4988422AD11C4D8C
:103C40004FF464641B482C8101262E700078A87103
:103C500000F03EFB6878022809D0012819D1002025
:103C600068702146BDE870401348FCF725BD214629
:103C70001148FCF721FD22460F491048FFF7BEFF0F
:103C800030B100F07FFA22460B490C48FFF7B6FF2F
:103C9000AE7070BD0A498842FBD10549BDE870404D
:103CA00006480122C91D9038FFF7B6BF0048004002
:103CB000040000204C000020E0010020B42200207D
:103CC0000038014070472DE9F843044690F8410060
:103CD000984616460D46202802D00220BDE8F883FB
:103CE00085B17EB100206064212084F84100FEF798
:103CF000C3FEA6848146E684A0682027B0F5805FD5
:103D000002D003E00120E9E7206910B12E4600252A
:103D10000EE000260CE08021204600F066FFA8B9E6
:103D2000C6B116F8010B21684860E08C401EE084A3
:103D3000E08C4B464FF00002CDF800800028EAD11D
:103D40004FF04001204600F050FF40B184F8417030
:103D50000320C3E735F8020BC0F30800E3E784F85B
:103D600041700020BAE77047FEE7000010B54FF43D
:103D700064610448FCF77EFCBDE810406021024805
:103D8000FCF778BCF91200203A21002002480021FB
:103D90008170C17001717047280000202DE9F04743
:103DA000724C0127DFF8C881A078724E002580B3DD
:103DB000012856D002282AD102214046FEF756FE9D
:103DC000002824D010213046FEF750FE00281ED0D7
:103DD00001214046FEF74AFE002818D080213046D7
:103DE000FEF744FE002812D040213046FEF73EFE8A
:103DF00000280CD020213046FEF738FE002806D0DF
:103E000020214046FEF732FE002800D0A570BDE814
:103E1000F087FFE702214046FEF728FEE8B11021B7
:103E20003046FEF723FEC0B101214046FEF71EFEDC
:103E300098B180213046FEF719FE70B1402130461E
:103E4000FEF714FE48B120213046FEF70FFE20B1E8
:103E500020214046FEF70AFE00B9A770A560257034
:103E6000D5E70221C1464046FEF700FE4FF00208AA
:103E700008B310213046FEF7F9FDE0B101214846B4
:103E8000FEF7F4FDB8B180213046FEF7EFFD90B1AA
:103E900040213046FEF7EAFD68B120213046FEF7AA
:103EA000E5FD40B120214846FEF7E0FD18B120783D
:103EB000012852D053E002214846FEF7D7FDF0B169
:103EC00001214846FEF7D2FDD8B110213046FEF759
:103ED000CDFDC0B180213046FEF7C8FDB0B1202134
:103EE0003046FEF7C3FD98B140213046FEF7BEFDD7
:103EF00080B120214846FEF7B9FD68B10EE0E770B9
:103F00000CE0032009E084F8038007E0042004E0CB
:103F1000052002E0062000E00720E070207800B9CC
:103F20002770A068401C0A21A0606170E18861B11F
:103F3000322805D984F80480A5602570491CE180E9
:103F400088B20F288CD367710AE0322888D984F8A8
:103F50000480A5602570E78059E7E08810B1A5705E
:103F6000E58054E7277184F80280F9E728000020F3
:103F7000000C014000080140154808B5416941F0B6
:103F8000010141614069002200F0010000901146EA
:103F90001020FEF7DDFD1020FEF7CCFD00221146BB
:103FA0001120FEF7D5FD1120FEF7C4FD00221146B9
:103FB0000C20FEF7CDFD0C20FEF7BCFD00221146C3
:103FC0000D20FEF7C5FDBDE808400D20FEF7B2BD8F
:103FD0000010024030B585B00024164801940394C7
:103FE000816941F020018161816901F02001049122
:103FF000816941F004018161816901F0040104914A
:10400000816941F0080181618069012500F00800A3
:104010000490F0200090694602950748FEF736FCB0
:1040200023208DE8310069460448FEF72FFC05B0D7
:1040300030BD00000010024000080140000C0140AB
:1040400010B586B00024174800940194029403949C
:10405000049413490594016041F61F41C0E901141D
:104060006321C0E903148461FFF75AF808B1FEF731
:1040700077FA4FF48050009069460A48FFF7C8F875
:1040800008B1FEF76DFA049404A906480594FFF7F9
:1040900013F8002801D0FEF763FA06B010BD000047
:1040A000000400405001002010B58CB02421684667
:1040B000FCF702FB00241648099414490A94C0E94D
:1040C00000144FF6FF71C0E90241046184610320CE
:1040D000CDE900040120CDE902040F210491CDE9CE
:1040E0000540CDE9074169460948FFF7FFF808B1E7
:1040F000FEF736FA099409A905480A94FEF7DCFF91
:10410000002801D0FEF72CFA0CB010BD00080040CA
:10411000980100200C4810B50A4901604FF47A312B
:104120004160002181600C22C160C0E904128161FC
:10413000C161FFF7FFFB002803D0BDE81040FEF788
:104140000FBA10BD00380140242200200C4810B5E1
:104150000A4901604FF416514160002181600C2230
:10416000C160C0E904128161C161FFF7E3FB00286F
:1041700003D0BDE81040FEF7F3B910BD0044004085
:104180006C22002010B50F480D49002401604FF447
:104190007A31C0E901140C21C460C0E90441846192
:1041A000C461FFF7C7FB08B1FEF7DAF906484FF420
:1041B000646104700481BDE810400448FCF77CBAD7
:1041C00000480040B422002004000020E00100204C
:1041D000FEE7FEE7704700002DE9F8432F4DE97830
:1041E000002959D10C2857D22D4901EBC0029278F1
:1041F000002A51D031F8301040F6386291424BD34A
:10420000002849D1274E40F2D9234FF0050CA6F2E1
:10421000D9240022114600EB800700BF07EB0108FC
:10422000491C16F80880C9B2424492B20529F5D358
:10423000B2FBFCF12154401C80B29842E9D301202A
:10424000E87019A0FBF7DEFF00271C48009700BFAD
:104250000099491C00918142F9D300264FF4367829
:104260000E49A05D0C31FCF769F9761C4645F7DD77
:104270001348009700BF0099491C00918142F9D36F
:1042800010A0FBF7BFFF1148009700BF0099491C21
:1042900000918142F9D3EF70BDE8F883040000205B
:1042A0003A210020F9120020616464742073302EDA
:1042B00069642C302C373239FFFFFF0080841E00E8
:1042C000400D030001FFFFFF00000000E093040029
:1042D0002DE9F84F3A4C0025257121892581607917
:1042E0000126002868D1002966D0E078002863D133
:1042F000A1F6386009285FD232480078401E0B28AA
:1043000002D8C0B200F0A6F92F4991F8200020B1E0
:10431000486A096C00F070F84EE0DFF8B0C040F277
:10432000D92300204FF0050A0CF5646900221146DC
:1043300000EB800707EB0108491C1CF80880C9B294
:10434000424492B20529F5D3B2FBFAF109F8001004
:10435000401C80B24F469842E8D3E6701CA0FBF7A1
:1043600051FF2048A846009500BF0099491C0091C4
:104370008142F9D300254FF436791149785D0C312B
:10438000FCF7DCF86D1CADB24D45F6D91648454634
:10439000CDF8008000BF0099491C00918142F9D3FB
:1043A00012A0FBF72FFF1348009500BF0099491C8E
:1043B00000918142F9D3E5702671BDE8F88F0000C5
:1043C000040000205100002078230020E00100209C
:1043D000616464742073302E69642C302C37323958
:1043E000FFFFFF0080841E00400D030001FFFFFF60
:1043F00000000000E09304002DE9F04F854A8BB0E7
:10440000D278002A7DD1844A1278531E0C2B78D2A0
:10441000012A76D1814F002800DA002040F63C6264
:10442000914200DD1146884202DD034608461946E6
:1044300005000C4600D5002540F63D60844200DBB7
:104440001446A5425DDA601B00F1010940F2D9284B
:1044500041467348FCF730F9DFF8C4A148464FF4F1
:10446000367BC14554DC0026A8F1010006F010FDA2
:104470000790A9F1010006F00BFD0890284606F010
:1044800007FD0990DDE90795304606F001FD294654
:1044900006F05EFD494606F0C9FB0146099806F0A4
:1044A00057FB814606F0B8FC054606F0F1FC49468C
:1044B00006F04BFE8146A54201DB395D04E0681C35
:1044C000B0F5646F03DB795D0AF806101CE078191B
:1044D000407806F0F5FC494606F03AFD059049465D
:1044E0004FF07E5006F03CFE8146785D06F0E8FC19
:1044F000494606F02DFD059906F02AFB06F0A8FCBA
:1045000000E083E00AF80600761C4645BADB50E07E
:1045100006F0BEFC434906F089FB0090002640F6F9
:104520003F684FF46469284606F0B2FC07903046B5
:1045300006F0AEFC009906F00BFD0146079806F068
:1045400007FB0446701C06F0A3FC009906F000FD72
:104550000146079806F0FCFA0546204606F05CFC8A
:104560000446284606F058FC4A46944200DB44467E
:10457000904200DB4046844200D1601C904200DB48
:1045800040460023194603E03D5D491C2B44641C52
:10459000844201DC9442F7DB002904DDB3FBF1F136
:1045A0000AF8061002E000200AF80600761C5E45B4
:1045B000BDDD184E0120F0701BA0FBF723FE002587
:1045C0001E49009500BF0098401C00908842F9D316
:1045D000002457460F49385D0C31FBF7AFFF641CD0
:1045E0005C45F7DD1648009500BF0099491C009115
:1045F0008142F9D313A0FBF705FE1448009500BFD4
:104600000099491C00918142F9D3F5700BB0BDE8C7
:10461000F08F00000400002051000020F91200205B
:104620002010002000403644616464742073302EF2
:1046300069642C302C373239FFFFFF0080841E0064
:10464000400D030001FFFFFF00000000E0930400A5
:10465000704700002DE9F0410F4604460C2814D2A3
:10466000002F12D040F6386087420ED30C4D05EB78
:10467000C40664B104EB4400A6F8060025F83470C3
:104680000120B070FEF7F8F9B080BDE8F0814FF47A
:10469000646204490448FBF7A8FF0020E880EDE7C6
:1046A0003A210020E0010020F9120020FEF7EAB9CB
:1046B00030B58FB028216846FBF7FEFF14210AA809
:1046C000FBF7FAFF01210804CDE900100024029451
:1046D00002250491CDE907504FF4E0100990684697
:1046E000FEF744FB08B172B6FEE70F20CDE90A05DC
:1046F0004FF48060CDE90C4002210AA80E94FEF729
:1047000059FA002801D072B6FEE70FB030BD7047ED
:104710000148FEF7B1BE000050010020F0B502686C
:10472000194B1A4C1A4D4FF08047984205D0B842A9
:1047300003D0A04201D0A84203D122F070064A68FB
:104740003243984205D0B84203D0A04201D0A842DB
:1047500003D122F44074CA6822434C6922F08002DB
:10476000224302608A68C2620A688262984201D16A
:1047700009690163012141610169C90703D0016928
:1047800021F001010161F0BD002C01400004004056
:104790000008004010B501F01F030121046A994090
:1047A0008C430462016A9A401143016210BD10B546
:1047B000846842EA032224F47F440A43224382604D
:1047C00010BD826822F070020A4342F00701816046
:1047D000704710B5036A046A24F001040462846916
:1047E00024F0F00444EA021423F00A020A4384612C
:1047F000026210BD10B5036A046A24F0100404625A
:10480000846923F0A00324F4704444EA023243EAAA
:1048100001118261016210BD01B564230122694664
:104820000648FFF750FA002807D0FFF7ABFC6423D7
:10483000012269460148FFF746FA08BDB42200206C
:1048400010B5406A0021C185C184FEF737FF10BD55
:1048500070B5446A2068406994F84110C0F3C010F4
:104860000025212904D118B1E584204600F08EF8F6
:104870002068406994F84210C0F38010222904D1C6
:1048800018B1E585204600F05AF8606C40F0100041
:1048900060642046FEF712FF70BD10B50146406A05
:1048A000096809684FF0000289062ED4C2850168A4
:1048B0000C3151E8003F23F4807341E80034002CB0
:1048C000F5D10168143151E8003F23F0010341E8BC
:1048D0000034002CF5D10168143151E8003F23F079
:1048E000400341E80034002CF5D1202180F842102B
:1048F000016B012909D101680C3151E8003F23F017
:10490000100341E80034002CF5D14263016B01290A
:1049100002D0FFF78FF910BD818DFEF784FE10BD28
:1049200010B5406A01214163016B012902D0FFF7F4
:10493000C9F910BD818D4908FEF775FE10BD0168EB
:104940000C3151E8002F22F4907241E80023002B33
:10495000F5D10168143151E8002F22F0010241E83D
:104960000023002BF5D1016B012909D101680C311D
:1049700051E8002F22F0100241E80023002BF5D16E
:10498000202180F8421000210163704701680C313A
:1049900051E8002F22F0C00241E80023002BF5D19E
:1049A000202180F84110704708B590F84210222964
:1049B00001D0022008BD82684FF480539A4201D191
:1049C000016921B1816A9A421BD04AB10AE00268AA
:1049D000816A5268C2F308020A80816A891C08E071
:1049E000026972B10268526802F07F020A70816A3D
:1049F000491C8162C18D491E0904090CC18503D07F
:104A00001BE002685268F1E70168CA6822F02002E0
:104A1000CA600168CA6822F48072CA6001684A6983
:104A200022F001024A61202180F8421000214163F6
:104A3000026B012A03D0FFF7FDF8002008BD0163D7
:104A400001680C3151E8002F22F0100241E80023E8
:104A5000002BF5D101680A68D20602D50A684968B8
:104A60000091818DFEF7DFFDE7E7000070B5044699
:104A700000680169E26821F4405111430161216934
:104A8000A0680843616908432168CA6841F20C6361
:104A90009A430243CA6020684169A26921F44071C7
:104AA000114341611E492068884202D1FEF728F96E
:104AB00001E0FEF715F900EBC00101EB00126068A0
:104AC00064218000B2FBF0F3B3FBF1F36FF0180642
:104AD0007343B2FBF0F5B2FBF0F605EB830532232E
:104AE00003EB0515B5FBF1F5B6FBF1F605F0F005A6
:104AF00005EB0615B2FBF0F6B2FBF0F0B0FBF1F0FF
:104B00006FF01802504306EB800003EB0010B0FB7F
:104B1000F1F0216800F00F002844886070BD0000AB
:104B20000038014038B58162044682850020134672
:104B30006064222284F84220E56B1B4AAA62E56B7E
:104B40001A4AEA62E56B1A4A2A63E26B50630A4624
:104B50002168E06B091DFDF74FFE20680168406881
:104B60000090206948B120680C3050E8001F41F4E3
:104B7000807140E80012002AF5D12068143050E816
:104B8000001F41F0010140E80012002AF5D1206821
:104B9000143050E8001F41F0400140E80012002AA4
:104BA000F5D1002038BD00009B48000821490008CD
:104BB0005148000881628285C2850021416422211A
:104BC00080F84210016921B10168CA6842F480721C
:104BD000CA6001684A6942F001024A610068C1681E
:104BE00041F02001C160002070472DE9F84398464C
:104BF00017460D460446089E24E0701C22D0FDF79F
:104C00003BFFA0EB0800B0421AD8CEB12068C168C3
:104C1000490717D5802D15D0402D13D00168C94301
:104C200009070FD401680025406800902046FFF76F
:104C300086FE0820606484F840500120BDE8F883B7
:104C40000320FBE72068006835EA000004D000205C
:104C5000B842D2D00020F1E70120F9E70148FEF781
:104C600033BD00006C2200200148FEF72DBD00007E
:104C7000B4220020FEE7490050EAC12018BF0420FA
:104C80004A0D18BF40F0010040F2FF72B2EB515FD5
:104C900008BF40F00200012808BF0520704709073F
:104CA000090E002804DB00F1E02080F800147047B2
:104CB00000F00F0000F1E02080F8141D704740F272
:104CC000013200204FF0E04106F0F6BA024A00201F
:104CD000110706F0F1BA000001FDFFFF10B5044610
:104CE000D1E9000100F002F8206010BDF8B50446DB
:104CF0000D466A4604F0FAF800987E3000900028CD
:104D00001EDC002213462046294605F0F3FD17D08D
:104D1000002140F608004FF00000064620462946D4
:104D200005F0A2FD044640F6080006EA00014FF037
:104D3000000034F0004004BF0220FBF7ECFC29E047
:104D40000098FF2828DB002108464FF0000000F4FF
:104D50004006002213462046294605F097FE8CBFE8
:104D6000002501250220FBF7D6FC4FF0FF4446B199
:104D7000002D0CBF4FF400004FF48000B04218BF6C
:104D8000084C042108464FF00000002D04BF84F0B9
:104D90000040F8BD2046F8BD20462946BDE8F84051
:104DA00005F062BDFFFF7F7F10B504460A46D4E9D7
:104DB0000003194604F06EF9C4E9000110BD303853
:104DC0000A2801D20120704700207047704730B593
:104DD00083B00446FBF79AFC05460020CDE90000AD
:104DE000024621466846FBF769FF2846FBF793FC1D
:104DF000DDE9000103B030BD2DE9F84F8A4890F895
:104E00005040022C7ED34FF0000BD8465E468246BF
:104E10005D46CDF800B020E00AEBC5005AF83570C9
:104E2000D0F804903946584605F092FE834649462C
:104E3000009805F08DFE00904946384606F088F847
:104E4000414605F085FE80463946084606F080F862
:104E5000314605F07DFE06466D1CA542DCDB594659
:104E6000084606F075F80546204606F011F8074694
:104E7000314606F06DF8294606F072F9054610F045
:104E8000FF4F3FD05846009906F062F80646384674
:104E9000414606F05DF8314606F062F9294605F014
:104EA000C5FE554681465946CAF8540006F050F8EA
:104EB000009906F04AF9394605F0B8FE8046A86523
:104EC0003946009805F0B2FE002637463546D346EF
:104ED000009023E05BF83510484606F039F841466B
:104EE00005F036FE01460BEBC5004068824606F031
:104EF00037F9014606F02CF8394605F029FE074639
:104F0000504600E08EE0009906F02AF9014606F0CE
:104F10001FF8314605F01CFE06466D1CA542D9DB84
:104F200016F0FF4007D03146384605F07FFE4FF0BF
:104F30007E5106F00AF93C4D0122C03DCBF85C00E1
:104F40008BF86020C5F85490C5E9168085F860207C
:104F500005F17C0785F85040387C344EDA464FF036
:104F6000000400B307EB8400317A406A89B105F090
:104F70008FFF696D05F0ECFFA96D05F0E9FD05F007
:104F8000BBFD02460B4604F1080129A0FBF73AF9E4
:104F900005E0024604F108012AA0FBF733F9641C7E
:104FA000082CDFDB26E0B8462A4F00BF57F8240064
:104FB000317A89B105F06CFF696D05F0C9FFA96D03
:104FC00005F0C6FD05F098FD02460B4604F1080108
:104FD00017A0FBF717F905E0024604F1080119A034
:104FE000FBF710F957F8241008EB8400641C4162A9
:104FF000082CDBDBDAF85C0005F07EFD02460B4690
:1050000015A0FBF7FFF8307A20B118A0FBF7FAF8EB
:1050100019A003E01BA0FBF7F5F81DA0BDE8F84FB1
:10502000FBF7F0B8BDE8F88FBC2300204C0000204F
:105030007425642E7478743D22252E316622FFFF7C
:10504000FF0000007425642E7478743D22256422CC
:10505000FFFFFF007CB3000874372E7478743D2284
:10506000252E346622FFFFFF0000000076697320C2
:105070007A312C30FFFFFF00766973207A322C31B1
:10508000FFFFFF00766973207A312C31FFFFFF00AC
:10509000766973207A322C30FFFFFF0070B5002252
:1050A0002E4B10464FF43674195C914200D90A46D3
:1050B000401C80B2A042F7D90A2A00D20A2245F643
:1050C000D810B0FBF2F14FF47A730A2901D20A2109
:1050D00002E0994200D9194602FB01F06424B0FBBA
:1050E000F4F080B2FF2806D946F29C30B0FBF2F112
:1050F0000A2900D20A214EF660204243FF20B2FB6B
:10510000F0F0C0EB0020E622B0FBF2F04EF6602299
:10511000904201D9104602E0984200D21846104A47
:105120000F4D0623D18100222435541C4443B4FB87
:10513000F3F445F82240521C062AF6DB09A0FBF7DF
:1051400061F8002404F1110155F8242009A0FBF7AF
:1051500059F8641C062CF5DB70BD000020100020FF
:105160004C00002073302E6469733D2564FFFFFFFF
:10517000000000007425642E7478743D22256C753F
:1051800022FFFFFF000000002DE9F84F88480024AF
:10519000012500F8504F874E0474447444618461C3
:1051A00004770462446280F8284080F8295080F82F
:1051B0002A4044608460C4600320F0727EA0FBF744
:1051C00021F882A0FBF71EF885A0FBF71BF889A049
:1051D000FBF718F88BA0FBF715F8F07A082813D224
:1051E000DFE800F01204060C120E0A108BA000E09B
:1051F0008FA0FBF707F80BE092A0FAE796A0F8E77C
:1052000099A0F6E79EA0F4E784A0FAF7FBFFF572F9
:10521000A0A0FAF7F7FFB046F189A2A0FAF7F2FFD3
:10522000644F002617F1240706F1110157F82620D4
:10523000A0A0FAF7E7FF761C062EF5DB182631460C
:10524000A1A0FAF7DFFF761C1D2EF8DDDFF88892AB
:10525000002600BF06F11F073946A0A0FAF7D2FFCB
:1052600059F8260005F048FC02460B4639469FA037
:10527000FAF7C8FF3946A2A0FAF7C4FF761C062E3B
:10528000E8DBA44E3570A4A0FAF7BCFFA748009451
:1052900000BF0099491C00918142F9D3A44F002519
:1052A0004FF464694FF4367A05EB8500484503DA1C
:1052B000385CA049FBF742F96D1C5545F4DD9E486A
:1052C000009400BF0099491C00918142F9D39BA032
:1052D000FAF798FF9B48009400BF0099491C009181
:1052E0008142F9D33470324FDFF8C890443F09F15E
:1052F000140987F820403C744FF0FF31C9F80C10B6
:10530000754E98F80800303E80B3A7F17C0595F8FB
:10531000600058B35FF0000456F8240005F0B8FDB3
:10532000696D05F015FEA96D05F012FC05F0E4FBB2
:1053300002460B4604F1080183A0FAF763FF56F812
:10534000240007EB8401641C4862082CE4DB83A082
:10535000FAF758FF84A0FAF755FFE86D05F0CCFB8B
:1053600002460B4683A0FAF74DFF16E0FFE7002444
:1053700004F1080156F8242083A0FAF743FF56F8F9
:10538000240007EB8401641C4862082CF0DB82A037
:10539000FAF738FF83A0FAF735FF99F800000028E4
:1053A00003D0BDE8F84F05F08DB9BDE8F88F0000D7
:1053B000BC2300204C000020736176696E672E626A
:1053C000636F3D3530373739FFFFFF00696E707509
:1053D000742E62636F3D3530373739FFFFFF0000B1
:1053E000636F6566662E62636F3D3530373739FF10
:1053F000FFFF000074352E62636F3D35303737395B
:10540000FFFFFF00636F6E6669726D2E62636F3D12
:105410003530373739FFFFFF0000000073617669D0
:105420006E672E62636F3D3631323737FFFFFF0004
:10543000696E7075742E62636F3D3631323737FF97
:10544000FFFF0000636F6566662E62636F3D363155
:10545000323737FFFFFF000074352E62636F3D3631
:1054600031323737FFFFFF00636F6E6669726D2E52
:1054700062636F3D3631323737FFFFFF00000000B7
:105480007377697463682E62636F3D3631323737E4
:10549000FFFFFF0074382E7478743D223022FFFF26
:1054A000FF00000073302E6469733D2564FFFFFF29
:1054B000000000007425642E7478743D22256C75FC
:1054C00022FFFFFF00000000766973207425642C22
:1054D00030FFFFFF00000000ACB3000876697320C6
:1054E0007425642C31FFFFFF000000007425642E3A
:1054F0007478743D22252E33666E6D22FFFFFF0007
:105500007425642E62636F3D3530373739FFFFFFF6
:105510000000000007000020616464742073302ED6
:1055200069642C302C373239FFFFFF0080841E0065
:10553000F912002010000020400D030001FFFFFFC2
:1055400000000000E09304007425642E7478743D1C
:1055500022252E316622FFFFFF00000076697320AE
:105560007A312C30FFFFFF00766973207A322C31BC
:10557000FFFFFF0074372E7478743D22252E3466A9
:1055800022FFFFFF000000007425642E7478743D34
:1055900022256422FFFFFF00766973207A312C31C7
:1055A000FFFFFF00766973207A322C30FFFFFF0087
:1055B0002DE9F84FE04CE14E20462378417A00F186
:1055C000140A727C807ADFF878B300254FF0FF3739
:1055D0004FF47A784FF46469082B72D2DFE803F055
:1055E000A9045DFE4F4FFDFC9AF800C0BCF1000F0E
:1055F00003D08AF80050D3A047E00AB1192809D097
:1056000006282AD017DC062839D2DFE800F01C383B
:105610001E2022247574B7610824F7612146CDA0AD
:10562000FAF7F0FD2146D0A0FAF7ECFD641C102C2F
:10563000F4DDD1A029E01538052820D2DFE800F0FC
:105640001113292B0F00D1A017E0D4A015E0D8A08A
:1056500013E0DCA011E0E0A00FE0E6A00DE0EAA07E
:105660000BE0EEA009E039B1FDF706FA2169401A16
:10567000404501D2EEA000E0F2A0FAF7C3FDF6A08B
:10568000FAF7C0FD25706570F7A0BDE8F84FFAF78E
:10569000B9BDFAA0F1E7FEA0EFE7E07A082811D142
:1056A00082B17574B7610824F7612146A9A0FAF7A1
:1056B000A9FD2146ACA0FAF7A5FD641C0F2CF4DD72
:1056C000B7E736E0DFF8748208F1440898F8611013
:1056D00003290AD0012913D00A2831D2DFE800F0CB
:1056E000302B2DBF30C1BDC3C5C71F26314699A081
:1056F000FAF788FD761C242EF8DD88F8615010E05A
:1057000098F85000022801D3FFF776FB88F8615023
:1057100098F87A108FA01F31FAF774FDE07A052807
:1057200007D1E0A0FAF76EFDE4A0FAF76BFD0320C5
:10573000E072BDE8F88FE5A000E0E9A0FAF762FDAD
:10574000ECA0FAF75FFDEFA0FAF75CFD7A4C0120C0
:1057500020700620A072EEA0FAF754FDD046BAF8E9
:105760000210F0A0FAF74EFDE189F1A0FAF74AFD28
:10577000DFF8C4A100240AF1240A00BF5AF824204B
:1057800004F11101EEA0FAF73DFD641C062CF5DBD7
:1057900096F82000DFF8BCA310B37574B761F76109
:1057A00086F82050357400205146C8F80C7000BFB0
:1057B00051F8202006EB8003401C5A620828F7DBD2
:1057C0000824214668A0FAF71DFD214661A0FAF7DA
:1057D00019FD641C0F2C02E028E3B0E222E2F0DDA8
:1057E0005548007A002857D0544F7C3F97F8600006
:1057F000002851D0D8A0FAF705FDDAA0FAF702FD8B
:10580000002456465AF8240005F042FB796D05F055
:105810009FFBB96D05F09CF905F06EF902460B4649
:1058200004F10801D2A0FAF7EDFC444856F8241020
:1058300000EB8400641C4162082CE2DBB8F8020033
:105840004FF464613E38484340F2D92190FBF1F0B7
:10585000444600280DDA00200EE08DA06EE7C9A0B6
:105860006CE790A06AE7CBA068E767A066E775A041
:1058700064E7484500DD484605F00AFB796D05F010
:1058800067FBB96D05F064F905F036F902460B4681
:10589000C5A0FAF7B7FC2BE0C8A0FAF7B3FCCAA082
:1058A000FAF7B0FC0024574604F1080157F8242009
:1058B000C8A0FAF7A7FC57F8241006EB8400641C74
:1058C0004162082CF0DBB8F802004FF464613E3806
:1058D000484340F2D92190FBF1F14446002901DA16
:1058E000002102E0494500DD4946BEA0FAF78AFCE6
:1058F000207828B1BFA0FAF785FCC1A0FAF782FC96
:105900000D484079401E0B283FF613AFC0B20BEB99
:10591000C0029278002A3FF40CAF3BF8302040F6EA
:1059200038618A42FFF405AFB849097800297FF44D
:1059300000AFB74900956DE14C00002078230020AE
:105940003A21002074372E7478743D22B9D822FF92
:10595000FFFF00007425642E62636F3D35303737DA
:1059600039FFFFFF000000007425642E70636F3D57
:1059700030FFFFFF000000007A6F6F6D2E62636FD3
:105980003D3631323737FFFFFF000000612E626382
:105990006F3D3530373739FFFFFF000070686F7497
:1059A0006F312E62636F3D3530373739FFFFFF00AF
:1059B00070686F746F322E62636F3D3530373739E0
:1059C000FFFFFF0070617573652E62636F3D3530B8
:1059D000373739FFFFFF0000646174615F726563F0
:1059E0006F72642E62636F3D3530373739FFFFFFCA
:1059F00000000000706167696E672E62636F3D355D
:105A000030373739FFFFFF007A6F6F6D2E62636F9B
:105A10003D3530373739FFFFFF0000007265736591
:105A200074312E62636F3D3530373739FFFFFF0029
:105A30007265736574322E62636F3D343836333469
:105A4000FFFFFF007265736574322E62636F3D3530
:105A500030373739FFFFFF0070616765206D61697E
:105A60006EFFFFFF0000000063616C69626F2E62D1
:105A7000636F3D3631323737FFFFFF006F7574704B
:105A800075742E62636F3D3530373739FFFFFF0085
:105A9000636F6566662E62636F3D3530373739FF59
:105AA000FFFF0000636F6E6669726D2E62636F3D6B
:105AB0003530373739FFFFFF0000000074352E62A4
:105AC000636F3D3631323737FFFFFF007361766910
:105AD0006E672E62636F3D3530373739FFFFFF0049
