:020000040800F2
:1000000098150020A9140008730200087502000862
:10001000790200087D02000881020008000000004B
:100020000000000000000000000000008502000841
:100030008702000800000000890200088B02000807
:10004000C3140008C3140008C3140008C314000834
:10005000C3140008C3140008C3140008C314000824
:10006000C3140008C3140008C3140008C314000814
:10007000C3140008C3140008C3140008C314000804
:10008000C3140008C3140008C3140008C3140008F4
:10009000C3140008C3140008C3140008C3140008E4
:1000A000C3140008C3140008C3140008C3140008D4
:1000B000C3140008C3140008C3140008C3140008C4
:1000C000C3140008C3140008C3140008C3140008B4
:1000D000C31400088D130008C3140008C3140008DB
:1000E000C3140008C3140008C3140008C314000894
:1000F000C3140008C3140008C3140008C314000884
:10010000C3140008C3140008C3140008C314000873
:10011000C3140008C3140008C3140008C314000863
:10012000C3140008C3140008C3140008C314000853
:1001300000F002F800F06EF80AA090E8000C82448B
:100140008344AAF10107DA4501D100F063F8AFF268
:10015000090EBAE80F0013F0010F18BFFB1A43F0A5
:100160000103184798420000B842000010F8013B14
:100170000A4413F0030408BF10F8014B1D1108BF17
:1001800010F8015B641E05D010F8016B641E01F8C5
:10019000016BF9D1002D15D010F8014B03F00C03C1
:1001A0000C2BA1EB04040ABF10F8013BA4EB831451
:1001B000A4EB032405F1010314F8016B5B1E01F8A5
:1001C000016BF9D5914238BF10F8013BD1D370478C
:1001D0000023002400250026103A28BF78C1FBD850
:1001E000520728BF30C148BF0B607047662903F033
:1001F000AD84642901F07887002070471FB502F0B4
:10020000BFFA04000020002103F052F8E0601FBD97
:1002100010B510BD02F0D4FB1146FFF7EFFF00F060
:1002200008F802F0F2FB03B4FFF7F2FF03BC01F0A1
:1002300007F800F095FF00F0F9F900F0DEF900F0A2
:100240008FFF00F0F7FF00F0A9FD00F07EFC00F04A
:10025000F7FB00F01BFB00F078FC00F0E7F94FF42F
:10026000165000F0FBFF00F027FF01E000F0A8FBB4
:10027000FCE7704700BFFEE700BFFEE700BFFEE7F8
:1002800000BFFEE770477047704770470CB500200D
:10029000019000906C48006840F480306A49086022
:1002A00000BF6948006800F4003000900198401CCD
:1002B0000190009818B90198B0F5A06FF1D162488B
:1002C000006800F4003010B10120009001E000202F
:1002D00000900098012843D15C48006840F010006D
:1002E0005A4908600846006820F003000860084684
:1002F000006840F002000860534840685249486076
:100300000846406848600846406840F4806048609D
:100310000846406820F47C1048600846406840F475
:10032000E81048600846006840F08070086000BF30
:100330004548006800F000700028F9D04248406845
:1003400020F00300404948600846406840F0020041
:10035000486000BF3C48406800F00C000828F9D114
:100360000CBD10B5FFF792FF10BD10B53648006800
:1003700040F00100344908600846406834490840AC
:100380003149486008460068324908402E490860F3
:100390000846006820F4802008600846406820F481
:1003A000FE0048604FF41F008860FFF7DAFF4FF04F
:1003B00000602949086010BD10B50021002000220E
:1003C000214B5B6803F00C0121B1042906D00829F8
:1003D00028D107E0214B224C236027E01F4B204C03
:1003E000236023E0184B5B6803F47010164B5B68C6
:1003F00003F48032022303EB904022B9194B4343AC
:10040000174C23600DE0104B5B6803F4003323B1FD
:10041000144B4343124C236003E0104B4343104CF6
:10042000236003E00D4B0E4C236000BF00BF064B62
:100430005B68C3F303130C4CE15C094B1B68CB40B6
:10044000074C236010BD0000001002400020024055
:100450000000FFF8FFFFF6FE08ED00E000127A0052
:100460002008002000093D002408002070B5054642
:100470000C4600F0F4F83C2000F0A3F900F030F94D
:10048000284600F09EF900F02BF9204600F099F97B
:1004900000F026F900F003F970BD70B5044600F0D5
:1004A000DEF83C2000F08DF900F01AF9204600F04B
:1004B00088F900F015F900F0F2F800F0D0F83D20CE
:1004C00000F07FF900F00CF900F0AFF9054600F0FC
:1004D00055F900F0E4F8284670BD2DE9F04786B0E4
:1004E0000320FFF7DAFF82460420FFF7D6FF00EB78
:1004F0000A2000B2ADF810000520FFF7CEFF8246BB
:100500000620FFF7CAFF00EB0A2000B2ADF8120088
:100510000720FFF7C2FF82460820FFF7BEFF00EB6F
:100520000A2000B2ADF81400BDF91000B0F5004F7C
:1005300009DBBDF810004FF6FF71081A401C40425D
:1005400000B2ADF81000BDF91200B0F5004F09DBA4
:10055000BDF812004FF6FF71081A401C404200B26D
:10056000ADF81200BDF91400B0F5004F09DBBDF87D
:1005700014004FF6FF71081A401C404200B2ADF85B
:100580001400BDF9100002F08AFF244A03C2BDF92D
:10059000120002F084FF224A03C2BDF9140002F0E7
:1005A0007EFF204A03C21F4801460CC803C902F05F
:1005B000C9FF04460D461A4801460CC803C902F09B
:1005C000C1FF06460F46154801460CC803C902F094
:1005D000B9FF32463B46CDE9000102F07FFE80467E
:1005E00022462B4602F07AFECDE9020102F039FEE6
:1005F0000D4A03C206B0BDE8F08710B514210020F3
:10060000FFF734FF80210120FFF730FF0021022097
:10061000FFF72CFF0A2000F0E0FD10BD00080020CD
:1006200008080020100800201808002008B5012143
:10063000082001F0E3FA4FF44070ADF800001020FC
:100640008DF8030003208DF8020069468C4801F004
:1006500019F84FF440718A4801F0C1F808BD10B58F
:100660008748006820F070408549086008460068A7
:1006700040F0405008600120824908608249C1F87A
:10068000A001042000F085FD00207E4908600420C0
:1006900000F07FFD00207C49C1F8A00110BD10B51D
:1006A0007748006820F07040754908600846006887
:1006B00040F04050086000207249091F08607249EC
:1006C000C1F8A401042000F064FD01206D49091F58
:1006D00008606D49C1F8A401042000F05AFD10BD66
:1006E00010B500246648006820F070406449086036
:1006F0000846006840F00040086001206149086039
:1007000000F047FD01206049C1F8A00100F041FD63
:1007100007E0601CC4B2FA2C03DDFFF7C0FF012024
:1007200010BD5848803800680028F2D15549091F8B
:10073000086000BFF4E710B500205249091F0860A7
:100740004F48006820F070404D4908600846006836
:1007500040F04050086000204B49C1F8A40102203D
:1007600000F017FD01204749091F0860022000F032
:1007700010FD00204449C1F8A00110BD10B50020B3
:100780004049091F08603E48006820F070403C491D
:1007900008600846006840F04050086001203A496F
:1007A000C1F8A401022000F0F4FC01203549091F22
:1007B0000860022000F0EDFC00203349C1F8A001E0
:1007C00010BD70B504462E48006820F070402C49DA
:1007D00008600846006840F0405008600020294941
:1007E000091F086000251DE0E00918B10120254916
:1007F000086002E00020234908606006040E022021
:1008000000F0C7FC01201F49091F0860022000F00A
:10081000C0FC00201C49C1F8A001022000F0B9FC76
:10082000681CC5B2082DDFDB70BD70B5002414480C
:10083000006820F07040124908600846006840F0E7
:1008400000400860002517E000200E49091F0860DD
:10085000052000F09EFC01200B49C1F8A0016006B4
:10086000040E08488038006808B1601CC4B2052036
:1008700000F08FFC681CC5B2082DE5DB204670BD7A
:10088000000C0140A48121420080214208B50121D1
:10089000242001F0B3F90121654800F0C4FF4FF4B2
:1008A0008070ADF8000048208DF80300694661486B
:1008B00000F0E8FE4FF40070ADF8000048208DF81D
:1008C000030069465B4800F0DDFE4FF48060ADF840
:1008D000000048208DF803006946564800F0D2FE1B
:1008E0000120ADF8000028208DF803006946524829
:1008F00000F0C8FE08BD10B5044614B101204F49F0
:1009000008704E48007800283DD04FF48061494877
:1009100000F04BFF88B14FF40071464800F045FFEE
:1009200058B14FF48071434800F03FFF28B10121D6
:10093000414800F03AFF012825D10A2000F04DFC83
:1009400000203E4908704FF480613A4800F02DFFC6
:1009500008B9012010BD4FF40071364800F025FFA2
:1009600008B90220F6E74FF48071324800F01DFF0D
:1009700008B90220EEE701212F4800F016FF0128F8
:100980001CD10420E6E74FF480612A4800F00DFFF7
:10099000012813D14102274800F007FF01280DD19B
:1009A0000102244800F001FF012807D1012122485B
:1009B00000F0FBFE10B90120204908700020C9E7B3
:1009C00010B50020FFF797FF0446012C04D0022C3D
:1009D0000AD0042C26D111E000F0B7F803E000F0B3
:1009E000F1FA00F087FCFAE700F0AFF805E000F05C
:1009F00087FA00F03AFB00F07DFCF8E700F0A5F87C
:100A00000FE000F07DFA4FF47A7000F0E6FB00F0A2
:100A10009CF800F0D7FA4FF47A7000F0DEFB00F09B
:100A200094F8EEE70A2000F0D8FB00BF00BF10BD2D
:100A3000000230000014014000080140340800208A
:100A400008B50121082001F0D9F84FF44050ADF865
:100A5000000010208DF8030003208DF80200694685
:100A6000044800F00FFE4FF44051024800F0B7FE7A
:100A700008BD0000000C014070B504460E4626B1CA
:100A80004021FE4800F0ABFE03E04021FB4800F0AF
:100A9000A8FE8021F94800F0A4FE002517E00821F7
:100AA000F64800F09EFE04F0800020B11021F348CB
:100AB00000F095FE03E01021F04800F092FE0821BE
:100AC000EE4800F08CFE6006040E681CC5B2082DCE
:100AD000E5DB8021E94800F082FE4021E74800F094
:100AE0007EFE70BD70B504460D4605F1B001C8B27A
:100AF0000021FFF7C1FF102141EA14100021FFF788
:100B0000BBFF04F00F0141F001000021FFF7B4FF2B
:100B100070BD10B500218D20FFF7AEFF002114201D
:100B2000FFF7AAFF0021AF20FFF7A6FF10BD10B509
:100B300000218D20FFF7A0FF00211020FFF79CFF70
:100B40000021AE20FFF798FF10BD70B5002419E01A
:100B500004F1B001C8B20021FFF78EFF0021084662
:100B6000FFF78AFF00211020FFF786FF002505E030
:100B700001210020FFF780FF681CC5B2802DF7DB44
:100B8000601CC4B2082CE3DB70BD2DE9F0410746C0
:100B90000E46904600250024A8F12000C5B27F2F04
:100BA00002DD0027B01CC6B231463846FFF79AFF77
:100BB000002408E004EB0511B14A505C0121FFF765
:100BC0005BFF601CC4B2082CF4DB701CC1B2384659
:100BD000FFF788FF002409E004EB05110831A84A5B
:100BE000505C0121FFF748FF601CC4B2082CF3DB06
:100BF000BDE8F08110B50246012000E050430B1E15
:100C0000A1F10104E1B2F9D110BD2DE9FF5F074662
:100C100091461D460E9E4FF0000A002433E0281B2B
:100C2000401EC1B20A20FFF7E5FFB9FBF0F00A2130
:100C3000B0FBF1F201FB1208BAF1000F13D1681EEC
:100C4000A04210DDB8F1000F0BD1B34606EBDB710B
:100C5000491001FB0471C8B220220199FFF795FFEA
:100C60000FE04FF0010AB34606EBDB71491001FBC0
:100C70000471C8B208F13001CAB20199FFF785FFCB
:100C800000BF601CC4B2AC42C9DBBDE8FF9F2DE9C8
:100C9000F04104460F46154600260EE0AA5D39468F
:100CA0002046FFF772FF04F10800C4B2782C02DD81
:100CB0000024B81CC7B2701CC6B2A85D0028EDD1D4
:100CC000BDE8F0812DE9F04180460E46154600272B
:100CD00031464046FFF706FF00240AE0694A02EB6E
:100CE0008511085D0121FFF7C7FE781CC7B2601CA3
:100CF000C4B2102CF2DB701CC1B24046FFF7F2FE0A
:100D000000240CE06900491C5E4A02EB4111085DB9
:100D10000121FFF7B1FE781CC7B2601CC4B2102CD1
:100D2000F0DBBDE8F0812DE9F05F06460F46904606
:100D30001C46DDF828A04FF0000BE11704EB5171C1
:100D4000C910A4EBC10131B92046E11704EB517180
:100D5000C1F3C70506E02046E11704EB5171C91045
:100D6000491CCDB23D4615E029463046FFF7BAFE94
:100D7000B1460BE059460BF1010B1AF801000121B5
:100D8000FFF77AFE09F1010000F0FF09C145F1DB30
:100D9000681CC5B2A542E7DBBDE8F09F08B501219C
:100DA000092000F02BFF0121374800F03CFD4FF4F3
:100DB0007E70ADF8000010208DF8030003208DF840
:100DC000020069462D4800F05DFC4FF47E712B480F
:100DD00000F005FD2021294800F001FD642000F00D
:100DE000FCF92021254800F0FCFCC82000F0F5F9B2
:100DF0002021224800F0F3FC0021AE20FFF73CFE4A
:100E000000210846FFF738FE00211020FFF734FECE
:100E100000214020FFF730FE00218120FFF72CFE4B
:100E20000021CF20FFF728FE0021A120FFF724FE9C
:100E30000021C820FFF720FE0021A620FFF71CFE9E
:100E40000021A820FFF718FE00213F20FFF714FE25
:100E50000021D320FFF710FE00210846FFF70CFE0B
:100E60000021D520FFF708FE00218020FFF704FEB7
:100E70000021D920FFF700FE002107E0000C01400F
:100E8000783D00083808002000023000F120FFF70C
:100E9000F3FD0021DA20FFF7EFFD00211220FFF71C
:100EA000EBFD0021DB20FFF7E7FD00214020FFF7ED
:100EB000E3FD00212020FFF7DFFD00210220FFF7E6
:100EC000DBFD00218D20FFF7D7FD00211420FFF767
:100ED000D3FD0021A420FFF7CFFD0021A620FFF7BE
:100EE000CBFD0021AF20FFF7C7FD0021AF20FFF7AA
:100EF000C3FDFFF72AFE00210846FFF7F3FD08BDFA
:100F000038B5FFF7EAFA072200211420FFF7DAFECE
:100F1000082200212820FFF7D5FE092200213C20CD
:100F2000FFF7D0FE0A2200215020FFF7CBFE0B2254
:100F300000216420FFF7C6FE7EA202210020FFF7F9
:100F4000A6FE7DA204210020FFF7A1FE7BA20621C0
:100F50000020FFF79CFE7AA204214620FFF797FEAF
:100F6000784903C902F06EFA044610200523224690
:100F700002210090FFF749FE734903C902F062FAAB
:100F8000044610200523224604210090FFF73DFE71
:100F90006E4903C902F056FA044610200523224682
:100FA00006210090FFF731FE694903C902F04AFAB1
:100FB0000446102005232246042100905620FFF706
:100FC00024FE38BD08B5002211461046FFF77AFE10
:100FD000012200211E20FFF775FE022203210020BE
:100FE000FFF770FE032211461E20FFF76BFE012261
:100FF00003216420FFF766FE042206210020FFF78C
:1010000061FE052206211E20FFF75CFE102005234D
:1010100000905048032102683220FFF7F6FDFFF7E9
:101020005CFA00224C4B4A4903C902F089FB1BD2EF
:1010300008E04A480068401C48490860FFF74DFA3C
:1010400000F058F90022444B414903C902F078FBF3
:10105000EFD30020414908600846006820B93D48A8
:101060000068401C3B49086008BD10B5FFF735FA21
:101070000022394B364903C902F062FB1BD208E05B
:1010800036480068401C35490860FFF726FA00F032
:1010900031F90022304B2E4903C902F051FBEFD346
:1010A00000202E4908600846006820B929480068D9
:1010B000401C2849086010BD10B50C2200211E20DC
:1010C000FFF700FE0D2200213220FFF7FBFD0E226C
:1010D00000214620FFF7F6FD0F2200215A20FFF7DE
:1010E000F1FD102205210A20FFF7ECFD1122052158
:1010F0001E20FFF7E7FD122205213220FFF7E2FD57
:10110000132205214620FFF7DDFD142205215A2078
:10111000FFF7D8FD152205216E20FFF7D3FD17221A
:1011200000210320FFF7CEFD172200216F20FFF7DB
:10113000C9FD10BD583A0000593A00005A3A000063
:10114000483A00000008002008080020100800208D
:1011500018080020380E0020000079403C0E0020C6
:1011600010B56FF0040000F00EFA2E4800682E490A
:10117000B0FBF1F02D4908700846007800EB400103
:10118000C1EBC0104FF6FF7101EAC000284908808A
:1011900010BD0146254A12784A434FF0E0235A61B8
:1011A00000229A611A46126942F001021A6100BFD8
:1011B0004FF0E022106900F001021AB100F4803211
:1011C000002AF5D04FF0E022126922F001024FF020
:1011D000E0231A6100229A6170470146144A12887E
:1011E0004A434FF0E0235A6100229A611A4612697D
:1011F00042F001021A6100BF4FF0E022106900F0D6
:1012000001021AB100F48032002AF5D04FF0E0223A
:10121000126922F001024FF0E0231A6100229A6164
:10122000704700002008002000127A004C0E0020B9
:101230004E0E002010B54FF4A06000F055F910BD1F
:1012400000BF704700BF704A128802F04002002AB7
:10125000F9D0C2B26C4B1B1D1A80704710B586B016
:101260000446012144F2050000F0C8FC4FF4007070
:10127000ADF8140003208DF8160018208DF8170023
:1012800005A9624800F0FEF94FF48060ADF8140043
:1012900004208DF8170005A95C4800F0F3F925201B
:1012A0008DF8000003208DF801008DF80200012068
:1012B0008DF80300684600F01CF901940020ADF899
:1012C0000800ADF80A00ADF80C00ADF810000C20D5
:1012D000ADF80E0001A94C4800F037FD012240F2A4
:1012E0002551494800F0C9FD0121474800F0B9FDEA
:1012F00006B010BD10B54648008800F40040002834
:101300002BD0414800F01EFEC4B20A2C13D1414834
:101310000CC841A000F0DCFE45480CC845A000F018
:10132000D7FE4A480CC84AA000F0D2FE4E480CC86E
:101330004EA000F0CDFE2146334800F0FFFD00BF77
:101340004021314800F068FE0128F9D14CA000F09E
:10135000BFFE00202E49088017E043480CC84AA071
:1013600000F0B6FE4AA000F0B3FE31480CC846A01B
:1013700000F0AEFE47A000F0ABFE4748016847A072
:1013800000F0A6FE46A000F0A3FE10BD10B540F28E
:1013900025511D4800F056FE10B31B4800F0D2FD49
:1013A000C4B21B48008800F40040C8B9184800883F
:1013B00000F4804060B10A2C03D00020144908805A
:1013C00020E01348008840F400401149088019E0EB
:1013D0000D2C06D10E48008840F480400C4908804E
:1013E00010E00B480088C0F30D002E490C5408484B
:1013F0000088401C0649088008460088C72801DD8F
:101400000020088010BD00000038014000080140A5
:10141000540E0020000800202258D6E1B4C5B8D0F0
:10142000D3A6C7BFB6C820583D2225660D0A0000C6
:10143000080800202259D6E1B4C5B8D0D3A6C7BF4A
:10144000B6C820593D2225660D0A0000100800206C
:10145000225AD6E1B4C5B8D0D3A6C7BFB6C8205A61
:101460003D2225660D0A00001808002022B4C5B8E8
:10147000D0D3A6C7BFB6C820483D2225660D0A00B6
:101480000D0A0D0A00000000252E30660000000045
:101490003B0000002C000000380E002025640000F6
:1014A0002F0000006C0E00200948804709480047C3
:1014B000FEE7FEE7FEE7FEE7FEE7FEE7FEE7FEE704
:1014C000FEE7FEE704480549054A064B7047000061
:1014D0006B03000831010008980F002098150020C8
:1014E000981100209811002031490143314A1160C0
:1014F000704770B5002100230F22C47804B32D4C2F
:10150000246804F4E064C4F5E064210AC1F1040332
:10151000CA40447804FA03F1847814402143090155
:10152000254C0678A155047804F01F050124AC4031
:1015300005786D11AD0005F1E025C5F8004109E021
:10154000047804F01F050124AC401C4D0678761188
:1015500045F8264070BD1A4A0A400243154B1B1F2E
:101560001A60704739B1134A121D12680243114BB9
:101570001B1D1A6006E00F4A121D126882430D4BB4
:101580001B1D1A607047042808D14FF0E02109693B
:1015900041F004014FF0E022116107E04FF0E0213B
:1015A000096921F004014FF0E02211617047000049
:1015B0000000FA050CED00E000E400E080E100E04E
:1015C00080FFFF1F10B50446CC48844208D101219A
:1015D000042000F02DFB0021042000F029FB46E050
:1015E000C748844208D10121082000F021FB0021D6
:1015F000082000F01DFB3AE0C248844208D10121D6
:10160000102000F015FB0021102000F011FB2EE04F
:10161000BD48844208D10121202000F009FB0021AF
:10162000202000F005FB22E0B848844208D10121C7
:10163000402000F0FDFA0021402000F0F9FA16E009
:10164000B348844208D10121802000F0F1FA002142
:10165000802000F0EDFA0AE0AE48844207D1012173
:10166000801500F0E5FA0021A01500F0E1FA10BDA8
:1016700010B50121084600F0DBFA0021012000F03E
:10168000D7FA10BD2DE9F0410246002500260020C2
:1016900000230024002791F803C00CF00F0591F8F7
:1016A00003C00CF0100CBCF1000F03D091F802C085
:1016B0004CEA050591F800C0BCF1000F31D0146868
:1016C00000202BE04FF0010C0CFA00F3B1F800C041
:1016D0000CEA03069E4220D183004FF00F0C0CFA57
:1016E00003F7BC4305FA03FC4CEA040491F803C079
:1016F000BCF1280F06D14FF0010C0CFA00FCC2F827
:1017000014C00AE091F803C0BCF1480F05D14FF0B6
:10171000010C0CFA00FCC2F810C0401C0828D1D300
:101720001460B1F800C0BCF1FF0F34DD5468002034
:101730002EE000F1080C4FF0010808FA0CF3B1F8A4
:1017400000C00CEA03069E4221D183004FF00F0C2B
:101750000CFA03F7BC4305FA03FC4CEA040491F8C5
:1017600003C0BCF1280F05D100F1080C08FA0CF8F1
:10177000C2F8148091F803C0BCF1480F07D100F102
:10178000080C4FF0010808FA0CF8C2F81080401C51
:101790000828CED35460BDE8F0814FF6FF71018078
:1017A000022181700421C1707047024600209368B5
:1017B0000B400BB1012000E0002070470146886813
:1017C00080B2704702460020D3680B400BB1012065
:1017D00000E0002070470146C86880B27047016190
:1017E0007047416170470AB1016100E04161704793
:1017F000C16070474FF480320A4382618161826127
:1018000082698269704702460020434B18684FF690
:101810008073184040EA021008433F4B186070473D
:101820003E49C8617047F0B50A46002300240021F4
:10183000002500F00046B6F1004F02D1364EF169A6
:1018400001E0354E7168C0F3034583B200F44016E1
:10185000B6F5401F08D121F070612F4E766826F052
:1018600070662D4F7E6012E000F48016B6F5801F82
:1018700006D1032606FA05F4A14341F0706106E0A3
:10188000460D360103FA06F6B14341F0706122B10C
:10189000460D360103FA06F6314300F00046B6F174
:1018A000004F02D11C4EF16101E01B4E7160F0BD92
:1018B00030B500228B071C0F0F2303FA04F2164BDE
:1018C00008338C1053F824309343134C08348D1094
:1018D00044F8253023468C1053F824308C07240F0D
:1018E00000FA04F423430C4C08348D1044F82530DE
:1018F00030BD0A49DC310860704700000008014033
:10190000000C01400010014000140140001801408B
:10191000001C014000200140000001400000204266
:10192000DF48006840F00100DD4908600846406873
:10193000DC490840DA49486008460068DA4908404E
:10194000D74908600846006820F4802008600846EF
:10195000406820F4FE0048604FF41F008860704724
:10196000CF49096821F48031CD4A116011460968D8
:1019700021F480211160B0F5803F03D0B0F5802FB5
:101980000ED106E0C649096841F48031C44A1160AD
:1019900007E0C349096841F4A021C14A116000E091
:1019A00000BF00BF704710B5014600220023002091
:1019B0004A11012A02D1BA4C236806E0022A02D158
:1019C000B74C236A01E0B64C636A01F01F020124A0
:1019D00094401C400CB1012000E0002010BD38B53F
:1019E000002000900024002500BF3120FFF7DBFF1E
:1019F00005460098401C00900098B0F5A06F01D0FB
:101A0000002DF2D03120FFF7CEFF08B1012400E015
:101A10000024204638BD01460020A14A106820F06D
:101A2000F80040EAC10010607047A04908607047A4
:101A3000024600209A4B586820F47C1042EA0103C9
:101A40001843974B5860704798490866704701469D
:101A50000020934A506820F003000843506070470C
:101A60008F48406800F00C007047014600208C4A07
:101A7000506820F0F0000843506070470146002095
:101A8000874A506820F4E060084350607047014680
:101A90000020834A506820F4605040EAC100506042
:101AA000704729B17E4A527A02437D4B5A7204E054
:101AB0007B4A527A82437A4B5A7270477B49D831BB
:101AC0000860704701460020754A506820F4404085
:101AD0000843506070470021714A20321170704AEB
:101AE00082F82010012802D004280AD104E0012144
:101AF0006B4A2032117005E00521694A20321170CD
:101B000000E000BF00BF7047694908607047644942
:101B1000096A0143624A11627047654944390860A5
:101B2000704730B500210022002400235C4D6D6811
:101B300005F00C0121B1042905D0082923D105E0C5
:101B40005C4D056022E05B4D05601FE0544D6D6803
:101B500005F47012524D6D6805F48034022505EBD2
:101B600092421CB9544D554305600BE04C4D6D68D5
:101B700005F400351DB1504D5543056002E04D4D53
:101B80005543056002E04B4D056000BF00BF444D6A
:101B90006D6805F0F0010909484D6B5C0568DD4092
:101BA00045603F4D6D6805F4E061090A434D6B5C8B
:101BB0004568DD4085603A4D6D6805F46051C90A9D
:101BC0003E4D6B5C4568DD40C560354D6D6805F484
:101BD0004041890B3A4D6B5CC568B5FBF3F5056177
:101BE00030BD29B12E4A526902432D4B5A6104E09F
:101BF0002B4A526982432A4B5A61704729B1284ABD
:101C000092690243264B9A6104E0254A9269824315
:101C1000234B9A61704729B1214AD2690243204B74
:101C2000DA6104E01E4AD26982431D4BDA617047D3
:101C300029B11B4AD2680243194BDA6004E0184A02
:101C4000D2688243164BDA60704729B1144A126990
:101C50000243134B1A6104E0114A12698243104B8C
:101C60001A61704712494039086070470F49C864CB
:101C700070470B49C87170470948406A40F080704E
:101C800007494862704701460020054A92680A40A9
:101C90000AB1012000E000207047014988727047B6
:101CA000001002400000FFF8FFFFF6FE0000424275
:101CB0008004424200127A0000093D00560E0020C6
:101CC000660E002010B50446FB48844209D101216C
:101CD0008803FFF7ADFF00214FF48040FFF7A8FF16
:101CE00032E0F648844209D101214804FFF7ADFFF4
:101CF00000214FF40030FFF7A8FF25E0F0488442B0
:101D000009D101218804FFF7A0FF00214FF48020B2
:101D1000FFF79BFF18E0EB48844209D10121C8047A
:101D2000FFF793FF00214FF40020FFF78EFF0BE039
:101D3000E548844208D101210805FFF786FF00210C
:101D40004FF48010FFF781FF10BD2DE9F04786B0FA
:101D500005460E460024A24600BFA1460027B089D2
:101D600000B100BF2F462C8A4CF6FF700440F0886B
:101D700004432C82AC894EF6F3100440B0883189BC
:101D80000843718908430443AC81AC8A4FF6FF4095
:101D90000440B0890443AC8201A8FFF7C2FEC648E4
:101DA000874202D1DDF810A001E0DDF80CA0A8897F
:101DB00000F4004040B10AEBCA0000EB0A103168A1
:101DC0004900B0FBF1F807E00AEBCA0000EB0A108B
:101DD00031688900B0FBF1F86420B8FBF0F0040131
:101DE0002009642101FB1089A88900F4004040B15A
:101DF000322000EBC900B0FBF1F000F00700044313
:101E000008E0322000EB09106421B0FBF1F000F093
:101E10000F0004432C8106B0BDE8F0874FF4165143
:101E2000016000218180C18001810C21418100215C
:101E30008181704710B502460020108A4FF2FF03DF
:101E400018400B884C8823438C882343CC88234339
:101E50001843108210BD0021018041808180C18023
:101E6000704721B1828942F40052828104E0828964
:101E70004DF6FF731A4082817047F0B50346002487
:101E800000260025002040F66A17B94200D100BFA5
:101E90001846C1F3421401F01F06012707FA06F5A0
:101EA000012C01D10C3004E0022C01D1103000E0F3
:101EB00014301AB107682F43076002E00768AF4388
:101EC0000760F0BD1AB1838A0B43838202E0838AE4
:101ED0008B4383827047028A4FF6F0731A40028266
:101EE000028A0A430282704782894FF2FF731A40C6
:101EF000828182890A438281704721B1828942F0BE
:101F00000202828104E082894FF6FD731A408281C9
:101F10007047028A4FF6DF731A400282028A0A4330
:101F20000282704721B1028A42F48042028204E0B8
:101F3000028A4BF6FF731A4002827047C1F308020F
:101F40008280704701468888C0F308007047818905
:101F500041F0010181817047028BD2B20283028B72
:101F600042EA012202837047028B02F47F4202831D
:101F7000028B0A430283704721B1828A42F0200219
:101F8000828204E0828A4FF6DF731A4082827047B1
:101F900021B1828A42F01002828204E0828A4FF6E6
:101FA000EF731A408282704721B1828A42F00802A0
:101FB000828204E0828A4FF6F7731A408282704769
:101FC00021B1828942F40042828103E08289C2F316
:101FD0000E028281704721B1828A42F400628282BD
:101FE00004E0828A4FF2FF731A4082827047828A2D
:101FF0004FF6FB731A408282828A0A4382827047BC
:1020000021B1828A42F00202828204E0828A4FF683
:10201000FD731A408282704702460020B1F5007FAE
:1020200000D100BF13880B400BB1012000E000205D
:10203000704701F40072B2F5007F00D100BFCA43BF
:102040000280704770B5024600240023002500205E
:1020500040F66A16B14200D100BFC1F3421501F04B
:102060001F03012606FA03F3012D02D1968933409E
:1020700006E0022D02D1168A334001E0968A3340F1
:102080000C12012606FA04F41688344013B10CB180
:10209000012000E0002070BD10B50022002340F6B2
:1020A0006A14A14200D100BF0A1201249440A3B2D5
:1020B000DC43048010BD00000038014000440040B3
:1020C00000480040004C00400050004070470000B5
:1020D0000FB4044910B503AA029800F03FFB10BCEE
:1020E0005DF814FB500E00202DE9F0410646002457
:1020F00010687529314616A510D0AFF3008000286E
:1021000002DA404213A507E031688A0701D512A51B
:1021100002E0490704D511A5012401E0AFF30080D6
:1021200000210A2206F1240709E0B0FBF2FCB0FB13
:10213000F2F302FB1C00303078541846491C00288A
:10214000F3D123462A463046BDE8F04100F09EB860
:10215000000000002D0000002B0000002000000007
:102160002DE9F0474FF0000A89460446C0F820A048
:102170002046E1688847002876D0252806D0D4E993
:1021800001219047206A401C2062F1E7E168204667
:1021900000258847C4F81CA006460027C4F818A0EC
:1021A0002A2E09D0304601F055F838B304EB8708E1
:1021B000303EC8F8186019E059F8041B204604EBBB
:1021C00087029161E1688847012F064618D1E069CE
:1021D000002820DA25F020051DE0D8F8180000EBD3
:1021E000800006EB40003038C8F818002046E1684F
:1021F0008847064601F02EF80028EED1012F0AD0BC
:102200002E2E08D12046E16888477F1C0646022F03
:1022100045F02005C4DBA069002803DA404245F000
:102220000105A061E80701D025F01005B6B1A6F1BF
:102230004100192802D8203645F400654A46314647
:10224000204625604D46FDF7D1FF58B1012806D044
:10225000ED1D25F0070000F1080989E704E005F10C
:10226000040985E730468AE7206ABDE8F0877047B1
:1022700070477047704710B500F086FA006810BDCF
:1022800010B5044600F080FA046010BD2DE9F04757
:102290000D4699469246044600F1240801688806D6
:1022A00004D5E06921F01001216000E00120A8427E
:1022B00001DD471B00E00027A1697A1902EB090044
:1022C000081AA0612078C00602D42046AFF300802F
:1022D000002608E0D4E901211AF806009047206A98
:1022E000401C761C20624E45F4DB2078C0060AD5DF
:1022F0002046AFF3008006E0D4E90121302090476A
:10230000206A401C2062381EA7F10107F4DC07E0B8
:10231000D4E9012118F805009047206A401C20628A
:10232000281EA5F10105F3DC2046AFF300802078DC
:10233000000602D50220BDE8F0870120FBE77047C8
:102340002DE9FF4F0C461E464FF0FF378BB0D2E908
:102350000001DDF860800A908A46C1F30A5505B98C
:102360003D46002108464FF00000BAF1000F00F48E
:10237000400005DA00EB80004FF4400101EA500014
:102380004FEA9059B9F1010F00DDB9460A9850EAB9
:102390004A000ED044F61050A5F2FF3545432F14E5
:1023A000B8F1000F1ED07542291E1EDDC9F10002D2
:1023B0001CE0B8F1010F4FF0000001D0302103E024
:1023C000F24305E02154401CB042FBDB30460022C2
:1023D000002121540B99C1F80880C1E900200FB0F9
:1023E000BDE8F08FBD1B6D1CDEE74A4600DA69428E
:1023F00006A800F06BFA06AB93E8070003AB83E88E
:10240000070050460A9900F049FB8DE80700A0F547
:1024100000501F3800900398002D0ADD42F21F0182
:102420004A460844002303A90390684600F0B2FD21
:1024300009E0A0F500504A461F38002303A9039085
:10244000684600F0BCFD8DE807000004000C03D0D6
:102450004FF0FF30410800E01046B8F1000F03D004
:102460000022009215461EE0751E05D400F090F97A
:10247000303262556D1EF9D5B3460122084302D0B1
:1024800000227F1C04E02078302801D100227F1E2A
:10249000002A099784D01DE0112D07DA00F078F9A1
:1024A000303262556D1C50EA0102F5D1084302D06A
:1024B0000098C8B10EE00021681E05E0235C625C54
:1024C00063542254401E491C8142F7DBAB46A81BD3
:1024D000401E0990002004F80B000B98099AC0F8E0
:1024E0000880C0E9002B7AE711264FF0000857E773
:1024F0002DE9F04F88460446D21D22F0070191B025
:10250000D1E90001CDE90A0100F090FE02460B98E6
:10251000C00F01D02D2007E02068810701D52B20B6
:1025200002E0202101EAC000032A099001D0072A15
:1025300005DB03464146204600F088F90BE1207890
:10254000800601D5E06900E00620B8F1650F8146FC
:1025500006D0B8F1660F18D0B8F1670F70D131E02E
:102560000020B9F1110F009001DB112301E009F106
:1025700001030AAA01A90CA8FFF7E2FEDDE90C702D
:10258000002609F10105834647E001204B460090F3
:102590004FF000470AAA01A90CA8FFF7D1FEDDE918
:1025A0000DB00C995D46002610B909F101000D1817
:1025B000B9EB050003D4C0F1FF3609F10105A5EB25
:1025C00009002BE0B9F1010F01DA4FF001090020F9
:1025D000B9F1110F0090484601DD112300E00346D8
:1025E0000AAA01A90CA8FFF7ABFEDDE90C704D4665
:1025F00000268346207800070AD4AB4500DA5D4602
:1026000001A8012D04DD411911F8011C302907D062
:102610004F4502DA17F1040F04DA012082460FE079
:102620006D1EEEE7002F02DCED1B3E4403E0781C3C
:10263000A84200DD7D1CB81B00F1010A4FF00047E5
:102640002078000703D4AA4501DB4FF0FF3A0021B0
:10265000B7F1004F0DF143088DF8431024D002204C
:102660002B23002F01DA7F422D230A21021EA0F125
:10267000010000DC5FB197FBF1FC97FBF1F201FB7D
:102680001C7C17460CF1300C08F801CDEEE7A8F1E0
:10269000010003702188090501D5452100E065216D
:1026A000A0F1010800F8011C09980FA9A1EB080787
:1026B000FF1D00B10120411901EBEA70A169384406
:1026C000081A401EA0612078C00602D42046AFF34D
:1026D0000080099828B1D4E901219047206A401C64
:1026E00020622078C00622D52046AFF300801EE08D
:1026F000002E04DBB34502DD01A8805D00E0302040
:10270000D4E901219047206A401C2062761CAAF17E
:1027100001005FEA000A0AD100F032F8C0680168DF
:10272000405CD4E901219047206A401C2062281EA9
:10273000A5F10105DCDC07E0D4E9012118F8010B63
:102740009047206A401C2062381EA7F10107F3DC85
:102750002046AFF30080032011B041E6074B70B56F
:102760000D467B4400F05FF80446284600F020F94F
:1027700010B14FF0FF3070BD204670BDDFEAFFFFA3
:1027800000487047540F002000487047340F002065
:1027900030B5B0F10A024FEA900E71F100034EEA33
:1027A000817EB0EB0E0061EB91014FEA101E4EEA04
:1027B000017E10EB0E0041EB11114FEA102E4EEA94
:1027C000016E10EB0E0041EB11214FEA104E4EEA64
:1027D000014E10EB0E0041EB1141401841F1000198
:1027E0004FEAD00040EA41704FEAD10110EB80057A
:1027F0004FEA810444EA907444EB01046D1944EB00
:102800000404521BA3414FF0000348BF0A3200D515
:1028100030BD401C41F1000130BD000001694A1C7F
:1028200002610878704700B58FB0CDE90131002111
:10283000059105497944CDE9031011466846FFF733
:102840008FFC0FB000BD0000E5FFFFFF2DE9F04158
:102850001F46044603260168072A01F4006004DBD2
:1028600008B116A505E016A503E008B115A500E01E
:1028700015A521F010002060A069C01EA0610FB155
:10288000401EA0612046AFF300804FB1D4E9012182
:1028900038469047206A401C2062C01C206206E037
:1028A000206AFAE7D4E9012115F8010B9047761E5A
:1028B000F8D22046AFF30080BDE8F0814E414E00D3
:1028C0006E616E00494E4600696E66002DE9F04764
:1028D000814616468AB0354878440DC88DE80D000B
:1028E00032487844801C03AC0DC884E80D0041F6E2
:1028F0009B300844372190FBF1F290FBF1F5A5F1F4
:10290000800501FB12041B3C02D56442012000E05B
:102910000020DFF898A080460027FA44AAF1BE0AFA
:102920000EE0E0070AD03246684607EB4701012374
:102930000AEB810100F043FB8DE8070064107F1C67
:10294000002CEED1194F7F44AE3F19E0E80715D0B7
:1029500007EB04100DF1180A90E80E008AE80E004B
:10296000C068F04201D1981908903246012306A9A7
:1029700003A800F024FB03AB83E807006D10641C80
:10298000002DE3D14FF0010332466946B8F1000F44
:1029900003A802D000F0FEFA01E000F010FBC9E944
:1029A0000001C9F808200AB0BDE8F087081B000044
:1029B000007B00F08000704700487047340F002013
:1029C0007546FFF7F9FFAE4605006946534620F00D
:1029D0000700854618B020B5FEF774FDBDE820401D
:1029E0004FF000064FF000074FF000084FF0000BCB
:1029F00021F00701AC46ACE8C009ACE8C009ACE87E
:102A0000C009ACE8C0098D46704710B50446AFF365
:102A100000802046BDE81040FDF705BC4FF0013CAA
:102A200050F8042B51F8043B9A4221D1A2EB0C033D
:102A3000934313EACC1317D150F8042B51F8043BFD
:102A40009A4215D1A2EB0C03934313EACC130BD19A
:102A500050F8042B51F8043B9A4209D1A2EB0C0325
:102A6000934313EACC13DBD04FF00000704700BF54
:102A7000D01A01BAB1FA81F101F0180122FA01F07D
:102A8000CB40C1F12001DBB2C0B2C01A2CFA01F375
:102A9000D11A914311EAC311E6D170475FEA400CA5
:102AA00008BF91F0000F4FEA8C234FEAC12243EA9E
:102AB00051514FEA1C5018BF00F5F0404FEA30006A
:102AC00018BF41F000415FEA6C5C00F02980BCF166
:102AD000FF3F08BF40F080407047130C06BF120450
:102AE0004FF0100C4FF0000C130E04BF12020CF14B
:102AF000080C130F04BF12010CF1040C930F04BF58
:102B000092000CF1020CD30F04BF52000CF1010C27
:102B100011464FF00002A0F11F00A0EB0C0070471F
:102B200011F0004F08BF704731F000413FF4D5AFBE
:102B30000B0C06BF09044FF0100C4FF0000C0B0EED
:102B400004BF09020CF1080C0B0F04BF09010CF1C2
:102B5000040C8B0F04BF89000CF1020CCB0F04BFD7
:102B600049000CF1010CCCF12003A0EB0C0022FA7F
:102B700003F302FA0CF241EA030100F1010070478D
:102B800020F07F4C80EA030023F07F47ACEB070383
:102B900003F57C5300F0004003F1FF032DE9804969
:102BA0004FEA154B09B44FEA144325EA0B4E24EAC9
:102BB00003480FF2042606EB132749083E785FEA24
:102BC000320203FB0667C7F5000707FB06F64FEA6C
:102BD00054374FEAD64606F1020607FB066CCCF1E5
:102BE000005C4FEA1C472CEA074C07FB06F40CFB81
:102BF00006F504EB15464FEA961634BF00204FF059
:102C000000404FEAD13706FB07FC4FEA1C4C0CFB97
:102C10000BF7D21B03FB0CF761EB07010CFB0EF764
:102C2000B0EB074072EB17420CFB08F734BFA2EB86
:102C30000742B2EB074261EB17414FEA0C444FEAFF
:102C4000910706FB07FC4FEA1C4C0CFB0BF7B0EBA3
:102C5000C74072EB573203FB0CF734BFA2EBC742FD
:102C6000B2EBC74261EB57310CFB0EF7B0EBC7007C
:102C700072EB57720CFB08F734BFA2EBC702B2EB42
:102C8000C70261EB5771039F4FEA816141EA9211DC
:102C900004EBCC044FEAD1374FEA826206FB07FC13
:102CA00042EA90124FEA80604FEA1C4C0CFB0BF793
:102CB000D21B03FB0CF761EB07010CFB0EF7B0EB2B
:102CC000074072EB17420CFB08F734BFA2EB074238
:102CD000B2EB074261EB17414FEA8C554FEA91077F
:102CE00004EB9C2406FB07FC4FEA1C4C0CFB0BF787
:102CF000B0EBC74072EB573203FB0CF734BFA2EBCB
:102D0000C742B2EBC74261EB57310CFB0EF7B0EB99
:102D1000C70072EB57720CFB08F734BFA2EBC70277
:102D2000B2EBC70261EB577115EB4C254FEA81619D
:102D300041EA92114FEA82624FEAD13742EA901299
:102D400006FB07FC44F100044FEA80604FEA1C4C8C
:102D50000CFB0BF7D21B03FB0CF761EB07010CFB21
:102D60000EF7B0EB074072EB17420CFB08F734BFCD
:102D7000A2EB0742B2EB074261EB174115EB1C15C2
:102D80004FEA813141EA92414FEA823242EA90426F
:102D90004FEA80304FEA0C7644F1000448EA0343DE
:102DA0004EEA0B484FF0000EB2EB080C71EB030734
:102DB00024BF624639464EEB0E0E4FF0000B001852
:102DC000524149414BEB0B0BB2EB080C71EB030783
:102DD0007BF1000B24BF624639464EEB0E0E4FF0DE
:102DE000000B0018524149414BEB0B0BB2EB080CA6
:102DF00071EB03077BF1000B24BF624639464EEBB3
:102E00000E0E51EA020718BF46F0010616EB0E76C9
:102E100055F1000254F1000103D5BDE88901BDE878
:102E20000088BDE88901BDE80048B619524141EB70
:102E30000101A3F10103704780807F7E7D7C7B7A56
:102E40007978777676757473727171706F6E6E6D56
:102E50006C6C6B6A6A6968686766666564646363FC
:102E600062616160605F5F5E5E5D5D5C5C5B5B5A82
:102E70005A595958585757565655555554545353EF
:102E800052525251515050504F4F4F4E4E4D4D4D4A
:102E90004C4C4C4B4B4B4A4A4A4949494848484795
:102EA00047474746464645454544444444434343D3
:102EB0004342424242414141002B9C4630D477007C
:102EC0002BD01CB54FEA370703B44FF010004FF07A
:102ED0001001BAF1000F06D0BCF1000FDCBF40F0CA
:102EE000080040F008014FF000000FBCBDE81040A2
:102EF0000BF1010BBBF1010F08BF5FEA170722BFFF
:102F000012F1010211F101014FF0004143F1000300
:102F100000F0004043EA00007047F9D35708D0E7BB
:102F200046EA064613F1400F4FEA16461FDD13F13D
:102F3000200FDFBF16430A46002120335B42BED07C
:102F4000C3F1200746EA064602FA07F74FEA16469B
:102F500046EA0706C3F1200722FA03F201FA07F74F
:102F600021FA03F14FF0000342EA0702A7E746EA1D
:102F7000020646EA06464FEA164646EA0106BCBF86
:102F800046EA0646360C4FF000034FF000024FF0C1
:102F9000000194E72DE9804C9A46934670B491E87D
:102FA000380007C831EA400C48BF34EA430C03D567
:102FB000FFF7E6FDFFF780FFF0BCBDE8008C2DE9D0
:102FC000804C9A46934670B491E8380007C810F0D8
:102FD000804F08BF13F0804F03D100F005F8FFF7D2
:102FE0006BFFF0BCBDE8008C20F07F4780EA030057
:102FF00023F07F4C07EB0C03A3F57C5300F000405B
:10300000A3F1FE0392F0000F00F0B38095F0000FE3
:1030100000F077802DE901494FEA11404FEA14464C
:1030200021EA004800FB06FC24EA064708FB06F6F6
:1030300007FB08F800FB07F718EB06484CEB164CAB
:103040004FEA124B18EB07484FEA15464CEB174076
:1030500022EA0B4E0BFB06FC25EA06470EFB06F6A2
:1030600007FB0EFE0BFB07F71EEB064E4CEB164C58
:103070004FF000061EEB074E4CEB174B18EB0B08FE
:1030800040F1000018EB0E0B58EB000840F1000077
:103090008F1A4FF000013CBFC943661B14BFB5EB4C
:1030A000040C00213CBFC943F61B4FEA17444EEA0B
:1030B0008E0E27EA04454FEA1C4704FB07622CEA00
:1030C000074C05FB07F70CFB05F604FB0CFC16EBA5
:1030D000074642EB174216EB0C4642EB1C421BEB39
:1030E000060658EB0202414146EA9E0601D5BDE8BC
:1030F0000189B619524141EB0101A3F10103BDE879
:1031000001894FEA14454FEA114724EA054621EAAE
:10311000074C05FB07F406FB07F70CFB06F105FB64
:103120000CFC11EB074144EB17444FEA124711EB3B
:103130000C4144EB1C4422EA074C05FB07F206FB5A
:1031400007F70CFB06F605FB0CFC16EB074642EBFB
:10315000174216EB0C4642EB1C456A1854F100016D
:1031600048BF7047B619524141EB0101A3F1010379
:10317000704795F0000F37D04FEA11424FEA1447DD
:1031800021EA024624EA074C02FB07F106FB07F797
:103190000CFB06F402FB0CFC14EB074441EB17415B
:1031A0004FEA154714EB0C4441EB1C4125EA074C50
:1031B00002FB07F506FB07F70CFB06F602FB0CFC0F
:1031C00016EB074645EB174516EB0C4645EB1C4244
:1031D000121951F1000148BF7047B619524141EB35
:1031E0000101A3F1010370474FEA14454FEA11476B
:1031F00024EA054621EA074C05FB07F106FB07F721
:103200000CFB06F24FF0000605FB0CFC12EB07422C
:1032100041EB174112EB0C4251EB1C4148BF704788
:10322000921841EB0101A3F101037047490050EAF4
:10323000C12018BF04204A0D18BF40F0010040F221
:10324000FF72B2EB515F08BF40F00200012808BFD7
:103250000520704730380A2801D20120704700202D
:1032600070472DE9F04106460F4600F09FFA041E14
:103270000D4618BF0120284320F00040C0F17F60B8
:1032800000F1E040C00F0ED0301C18BF01203843C1
:1032900020F00040C0F17F6000F1E040C00F04BFAB
:1032A0000120FEF7EDFF20462946BDE8F081000031
:1032B00010B500290AD00878002807D005487844BE
:1032C000FFF7ACFB002801D0002010BD0248784475
:1032D00010BD00005E1100005611000010B591EA0B
:1032E000030F48BF83F0004300F14E83841A71EB53
:1032F000030C05D2121943EB0C03001B61EB0C010C
:10330000DFF824E14FEA1154A4EB135C1EEA430FEB
:1033100018BF9EEA445F73D023EA0E03DCF1200E4F
:1033200021EA045143F4801332D322FA0CFE10EB4D
:103330000E0023FA0CFE41EB0E01CCF1200E03FA35
:103340000EFE10EB0E0051F10001B1F5801FCCF123
:10335000200E32D201EB045112FA0EF2BDE81040F9
:1033600058BF7047401C38BF5FEA420218BF704721
:10337000002814BF20F0010041F100014FEA410391
:1033800013F5001F38BF7047A1F1C04100F0D2B95A
:10339000012A43EB0302ACF1200CDCF11F0E32BF1B
:1033A0004FF0000E23FA0CF310EB030041EB045135
:1033B000B4EB115FD0D0A1EB045101F580114908A5
:1033C0005FEA300001EB04510ED350F1000038BF2A
:1033D00012FA0EFE08D1BDE81040C9E7401C38BF04
:1033E0005FEA4202CAD1C3E7BDE810404FEA410399
:1033F00013F5001F38BF7047A1F1C04100F09AB922
:103400009EEA445F08D011EA5E0FBDE8104004BF99
:1034100001F0004100207047BDE8104070B500F099
:103420003BF900BF64FBBE3E0000E0FF491058BFFF
:10343000C1F140415B1058BFC3F140438B42EFF3F1
:10344000008070474FEA1153A3F58063D3F11E0348
:10345000A8BFD3F1200C08DB4FF0004242EAC122A2
:1034600052EA505232FA03F0704709420BD4102B43
:10347000C4BF0020704703F5787CBCF1FF3F05D046
:103480004FF0FF3070474FF00000704770B500F00C
:1034900003F900BF4992248000207047F0E710F044
:1034A000004248BF4042B0FA80F310FA03F10AD05C
:1034B000C3F11D0303F580634FEA415002EB035251
:1034C00002EBD12170474FF00000704751EA030C26
:1034D00017D41CF5801F58BFBCF5801F00F1068073
:1034E000994218BF704708BF9042704707D711F53F
:1034F000801F58BF13F5801F19D499427047894225
:1035000070471CF5801F08D5BCF5801FF7D58B428E
:1035100018BF704708BF824270474FF4001C1CEB75
:10352000410F38BF1CEB430F01D28B42704770B57F
:1035300000F0B2F8922449004FF000514FF0805350
:10354000FFF774BFDFF848C170B51CEA111E1EBF3B
:103550001CEA13159EEA0C0F95EA0C0F00F06F8021
:1035600081EA030423EA4C134EEAD47E21EA4C118B
:1035700041F4801143F48013AE44A1FB024CA0FB44
:103580000365AEF17F7E361955EB0C05A1FB034CAC
:103590004CF10003A0FB021C16EB0C06654153F135
:1035A0000003094218BF46F0010613F4007F0BD157
:1035B0004FEA03314FEA0530340341EA155140EA3E
:1035C00016506FF003020AE04FEAC3214FEAC5200C
:1035D000F40241EA555140EA56506FF0020202EB04
:1035E0002E4201EB025585EACE710AD05FEA440C07
:1035F00018BF24F0004450F1000041F1000120EA1E
:10360000D47040F2FE7C624500D270BDA84214BF67
:103610004FF080444FF04044002E08BF0024BEF11C
:10362000806FA8BFA1F1C041BDE8704080F28280E8
:103630004FF0000001F1C04101F0004170479EEAE7
:103640000C0F0CEA131518BF95EA0C0F06D04FF0BB
:10365000000081EA030E0EF0004170BD00F01CF87E
:103660008900013E00F007B800F009B84FEA430CAA
:103670005FEA5C5C08D081EA030100F05BB84FEAC6
:10368000410C5FEA5C5CF6D14FF0000001497047E5
:103690000000FF070000F87F0EF1020E2EF0030E6F
:1036A0005EF8046B364205D4012A43EB030515F599
:1036B000001F12D8012841EB010C1CF5001F0CD88B
:1036C0000ED14FEAD17C15F5001F0CEB4C0C0CF120
:1036D000020C08BF4CEBD37C04E04FF0080C01E077
:1036E0004FEAD37C0CEB4C0526FA05F606F00706EC
:1036F000B6F1040C06D20EEB860CBDE870404CF01F
:10370000010C6047DFE80CF0090B02024FF00041AA
:103710004FF00000A1F5002170BD194610460128A8
:1037200051EB010418BFD4F5001484BF002001F050
:10373000004170BD0808A0F500114FEA3101704743
:1037400053EA010C17D41CF5801F58BFBCF5801F2D
:1037500000F106808B4218BF704708BF8242704755
:1037600007D713F5801F58BF11F5801F19D48B425E
:1037700070479B4270471CF5801F08D5BCF5801F21
:10378000F7D5994218BF704708BF904270474FF471
:10379000001C1CEB430F38BF1CEB410F01D29942B8
:1037A00070470FB40CBC03BCFFF7C1BE2DE9F0415C
:1037B00001F5801CBCF5001FC0F2C3804FEA115C0C
:1037C00021EA0C510CF1FD0C41F480115FEA5C0C14
:1037D0000CF5C07C01D3400049413DA4890241EA77
:1037E000905187028E0E0A0CA45D04FB04F602FBC6
:1037F00006F6C6F14046A4FB0662F60D46EA4226EE
:1038000006FB06F4A4FB01235242C3F1404338BF38
:103810005B1EA6FB02420024E6FB0324D20B42EA15
:103820004446A6FB0623A1FB02E2A3FB07E4A4187F
:103830004FF0000252F10002E3FB01426442C2F188
:10384000404E38BFAEF1010EA6FB04234FF000023C
:10385000E6FB0E32A2FB03464FF00004B61954F10A
:103860000004E2FB0264A1FB06E6A4FB07E816EBFA
:1038700008064FF0000858F10008E4FB01687642A2
:10388000C8F1405838BFA8F10108A2FB06E4A3FB29
:1038900008E52D194FF0000454F10004E2FB085430
:1038A000A1FB05E6A7FB04E818EB06084FF00006AD
:1038B00056F10006E1FB048618F1200556F10006DA
:1038C000A809A8F11B08B10908F03F08B8F10A0FD0
:1038D00040EA86601CD901EB0C51BDE8F08100BFC5
:1038E000FCF5EEE8E2DDD8D3CFCBC7C3C0BDB9B697
:1038F000B4B1AEACA9A7A5A3A19F9D9B9A9896959C
:103900009392908F8D8C8B89888786858483828122
:10391000A0FB006800FB01F208EB4208B8EB872827
:1039200007D5341858EB0104D5D5401C51F10001DE
:10393000D1E7341A78EB0104CDD4401E71F10001B7
:10394000C9E75FEA4C0C5FEA9C5C0DD105D34FF0F0
:10395000000001F00041BDE8F081BDE8F04170B524
:10396000FFF79AFE6DDBFFBEBDE8F0414FF00000AF
:10397000004970470000F87F10B591EA030F48BF77
:1039800083F000433FF5B2AC841A71EB030C07D20D
:1039900012198CF0004C43EB0C03001B61EB0C0183
:1039A000DFF8A4E14FEA1154A4EB135C1EEA430FC5
:1039B00018BF9EEA445F00F0B08023EA6E035242D3
:1039C00021EA0451C3EB6E0338BF5B1EDCF1200E0D
:1039D00025D322FA0CFE10EB0E0043FA0CFE41EB4D
:1039E0000E01CCF1200E03FA0EFE10EB0E0051F189
:1039F0000001CCF1200E29D412FA0EF201EB045191
:103A0000BDE8104058BF7047401C1CBFB2F1004FCA
:103A1000704700280CBF491C20F00100704712EBD2
:103A2000020E43EB030218BF4FF0010E4EEA4202B2
:103A3000ACF1200CDCF11E0E54D943FA0CFE10EB55
:103A40000E0051F1FF31CCF11E0ED5D50EF1010E55
:103A500012FA0EFE404141EB010101EB445C5FEACA
:103A60005C5C10D910EBDE7001EB045138BFBEF185
:103A7000004FBDE8104018BF704700280CBF491C1C
:103A800020F00100704730D24FEAD42C11F500111C
:103A900024F400641BD0B1FA81F20B3AA41AA41EDC
:103AA000D2F12003914030FA03F31943904001EB27
:103AB000CC71002C01EB0451BDE81040A8BF704749
:103AC00001F1C0414FF0000001F000417047B0FA31
:103AD00080F310FA03F100D110BDE41A173C480539
:103AE000C90AE4E701EB045110BD491001EB045190
:103AF000BDE810404FEA300002E04FF0000170478F
:103B00004A0008BF0042F8D0B2F5001F28BF704736
:103B100001F000414FF0000070479EEA445F07D07B
:103B200011EA5E0FBDE8104004BF0021002070477D
:103B3000BDE8104070B5FFF7AFFD00BF40DFF63EB7
:103B400083F00041104670470000E0FFFEF7D0BC54
:103B50000000000000000000002F0000000007002F
:103B6000070000147F147F1400242A7F2A120062A9
:103B70006408132300364955225000000503000055
:103B800000001C224100000041221C000014083EDD
:103B900008140008083E0808000000A060000008A3
:103BA00008080808000060600000002010080402F7
:103BB000003E5149453E0000427F400000426151B5
:103BC0004946002141454B31001814127F1000274F
:103BD00045454539003C4A49493000017109050312
:103BE00000364949493600064949291E0000363643
:103BF00000000000563600000008142241000014A6
:103C00001414141400004122140800020151090682
:103C100000324959513E007C1211127C007F494903
:103C20004936003E41414122007F4141221C007F34
:103C300049494941007F09090901003E4149497A42
:103C4000007F0808087F0000417F410000204041BC
:103C50003F01007F08142241007F40404040007F28
:103C6000020C027F007F0408107F003E4141413E6C
:103C7000007F09090906003E4151215E007F0919B4
:103C800029460046494949310001017F0101003FB1
:103C90004040403F001F2040201F003F4038403F31
:103CA0000063140814630007087008070061514995
:103CB000454300007F41410000552A552A55000028
:103CC00041417F00000402010204004040404040A6
:103CD000000001020400002054545478007F48443E
:103CE000443800384444442000384444487F003875
:103CF0005454541800087E0901020018A4A4A47C9E
:103D0000007F080404780000447D40000040808467
:103D10007D00007F102844000000417F4000007CAF
:103D200004180478007C08040478003844444438BB
:103D300000FC242424180018242418FC007C080407
:103D4000040800485454542000043F444020003CE0
:103D50004040207C001C2040201C003C4030403C67
:103D6000004428102844001CA0A0A07C00446454F7
:103D70004C4414141414141400000000000000003B
:103D80000000000000000000000000F8000000003B
:103D9000000000333000000000100C06100C06007C
:103DA000000000000000000040C07840C0784000E3
:103DB000043F04043F040400007088FC0830000045
:103DC000001820FF211E0000F008F000E01800009D
:103DD00000211C031E211E0000F008887000000056
:103DE0001E2123241927211010160E0000000000A8
:103DF0000000000000000000000000E018040200C5
:103E0000000000071820400000020418E000000035
:103E10000040201807000000404080F08040400033
:103E20000202010F01020200000000F00000000089
:103E30000101011F0101010000000000000000005D
:103E400080B07000000000000000000000000000D2
:103E5000000101010101010100000000000000005B
:103E600000303000000000000000000080601804F6
:103E7000006018060100000000E010080810E000D3
:103E8000000F102020100F00001010F8000000009C
:103E90000020203F202000000070080808887000E3
:103EA0000030282422213000003008888848300063
:103EB0000018202020110E000000C02010F8000083
:103EC00000070424243F240000F80888880808001C
:103ED0000019212020110E0000E010888818000031
:103EE000000F112020110E0000380808C838080003
:103EF0000000003F00000000007088080888700083
:103F0000001C222121221C0000E010080810E00003
:103F10000000312222110F00000000C0C00000008C
:103F200000000030300000000000008000000000B1
:103F300000008060000000000000804020100800A9
:103F40000001020408102000404040404040400072
:103F5000040404040404040000081020408000004D
:103F60000020100804020100007048080808F00052
:103F70000000003036010000C030C828E810E00022
:103F80000718272423140B000000C038E0000000AD
:103F9000203C23020227382008F888888870000017
:103FA000203F202020110E00C030080808083800EB
:103FB000071820202010080008F808080810E00062
:103FC000203F202020100F0008F88888E808100003
:103FD000203F20202320180008F88888E8081000D7
:103FE000203F200003000000C0300808083800000F
:103FF00007182020221E020008F808000008F80810
:10400000203F210101213F20000808F80808000096
:104010000020203F2020000000000808F8080800C9
:10402000C08080807F00000008F888C02818080041
:10403000203F20012638200008F80800000000007A
:10404000203F20202020300008F8F800F8F8080071
:10405000203F003F003F200008F830C00008F8086B
:10406000203F200007183F00E01008080810E0007B
:104070000F10202020100F0008F808080808F00092
:10408000203F210101010000E01008080810E000B5
:104090000F18242438504F0008F88888888870004A
:1040A000203F2000030C30200070880808083800EA
:1040B0000038202121221C00180808F808081800E0
:1040C0000000203F2000000008F808000008F80861
:1040D000001F202020201F000878880000C8380812
:1040E000000007380E010000F80800F80008F8008A
:1040F000033C0700073C0300081868808068180824
:1041000020302C03032C30200838C800C8380800A1
:104110000000203F2000000010080808C8380800F0
:104120002038262120201800000000FE0202020094
:104130000000007F40404000000C30C00000000044
:10414000000000010638C00000020202FE0000006C
:10415000004040407F000000000004020202040012
:10416000000000000000000000000000000000004F
:104170008080808080808080000202040000000037
:10418000000000000000000000008080808000002F
:104190000019242222223F2008F80080800000001D
:1041A000003F112020110E000000008080800000E0
:1041B000000E112020201100000000808088F800EF
:1041C000000E112020103F20000080808080000021
:1041D000001F222222221300008080F08888881885
:1041E0000020203F20200000000080808080800090
:1041F000006B94949493600008F800808080000025
:10420000203F210000203F200080989800000000FF
:104210000020203F2020000000000080989800002F
:1042200000C08080807F000008F80000808080004F
:10423000203F24022D302000000808F80000000074
:104240000020203F2020000080808080808080002F
:10425000203F20003F20003F8080008080800000C1
:10426000203F210000203F2000008080808000004F
:10427000001F202020201F00808000808000000080
:1042800080FFA12020110E000000008080808000AF
:10429000000E112020A0FF808080800080808000A0
:1042A00020203F21200001000000808080808000CD
:1042B0000033242424241900008080E08080000042
:1042C0000000001F2020000080800000008080008F
:1042D000001F202020103F208080800000808080F0
:1042E00000010E3008060100808000800080808080
:1042F0000F300C030C300F000080800080808000A5
:104300000020312E0E3120008080800000808080CF
:1043100080818E701806010000808080808080007F
:104320000021302C2221300000000000807C02029D
:1043300000000000003F404000000000FF000000BF
:1043400000000000FF0000000002027C800000006E
:104350000040403F0000000000060101020204048A
:10436000000000000000000002400000000000A06B
:104370000000000005400000000000C80000000030
:104380000C4000000000409C0000000019400000AC
:104390000020BCBE0000000034400000BFC91B8EDE
:1043A00000000004B5400000504BCFD06607E2CFBC
:1043B000010000006C4100003E8251AADFEEA734EC
:1043C00001000000D9420000DCB5A0E23A301F979E
:1043D000FFFFFFFFB4450000FD25A0C8E9A3C14FC2
:1043E000FFFFFFFFFF3F0000000000800000000013
:1043F000FF3F00000000008000000000384400087B
:10440000000000206C0E00006C010008A0480008AD
:104410006C0E00202C070000D00100081C000000DA
:1044200043000000F8FFFFFF0C0000000E0000003A
:104430000F0000002E00000040120003050911FFCC
:10444000118905C300E000F000F8000100083A44BB
:1044500028FF11AA440001500B8301384482929234
:104460007401831120087C44FF017D7D7D0441059A
:1044700040047D01FF6E920102613F033B01017E1A
:1044800081419149F20101011BC230083F3F030302
:10449000F3131101100601F11161814020058161C2
:1044A00011F14733414107200401C12120A321C15B
:1044B0001431193137040736D33303033F3F4260C9
:1044C00006E0E000007FA8127FBF40040618060A3D
:1044D0001008000040407F4040A410041F2040010D
:1044E000A3201F143300600E6004300C0346053413
:1044F000C2100407070601700904040484444444FC
:10450000840780050484C4041501120A7111214036
:10451000073D0707C9200F000010181412110000F2
:104520000F1010100F0F131F1015600D081012122E
:104530000D00001800000D120A51295130015E01D2
:10454000528001013B4514047F030CA915DE1C05B4
:10455000385454582503080A2004047800003C40CD
:10456000407C2000092CFFAAAAAA280800FF681096
:10457000062649494932101005020408100F0D6F34
:1045800000049D01040D9D0004156343F8080124F7
:104590000500F81860E824048060182357202029BB
:1045A00023E01021A310E01449B4313908043C88F9
:1045B0006818630D15FF037DEA039DFF0371144D19
:1045C000FF031D06043D2E040942E91C064020207D
:1045D00020C04A04110721EA3E40520452600E8175
:1045E00018712951070D4769031C060C0A0A090CAA
:1045F0000004156B2D00042004080F081510050891
:1046000009090E071D180430050909090F0A512967
:1046100051070DFF00040D2200040D1E85067C04C9
:10462000A24A043F073C0802030406070809590789
:104630005C0808884828180FE81F03F5B316089E81
:10464000159732FF06011121100BC8B88FE8888832
:10465000E22222FE02031022E240000E101808FFA0
:104660000404FF08060106014284A80C0F10203044
:10467000AC63201880824222121A264283051C0451
:1046800022672216061006404242427E040A10406B
:10469000D31C084042CC00084888A5030213FFC180
:1046A0001D55031D5C03000810414048504F404019
:1046B00040000F1090523410FF10345280708F0859
:1046C00008F8E0000F10829A566322528E00804054
:1046D000330C3340A01D220343BEAA0112BE0C0DB1
:1046E000125D0612AF1C2DE3050E34AF6206071AE9
:1046F0003636D7040F1184E45CC40008C8398E082C
:1047000008CC3B880040093F103F00635A46E10552
:104710000111C012FFB60C081142E2524AC64240D3
:10472000EC030C0E1110301F0828108C4320184782
:10473000804002091602FB000B113E00809E9292FF
:10474000F292929EE11C074382423E404764080871
:1047500006117F444454E7FE2009FC242424FC2550
:10476000262408061004E00C0C34308F80844C554D
:10477000252525554CA307051C400C0E1104244487
:1047800084649C40300FC8080828E5051A10BA1C3C
:1047900004824C20B205080411061820003980104C
:1047A0000500FC04020408041504FC008008091537
:1047B0004F4442407F424443C03005808888FF0315
:1047C00002158040080712504C4340405FC04DD155
:1047D000030F16E21C1D0A3C0580402010400A1DF4
:1047E0009F08061240400D7D00044540253D0614FB
:1047F000044029C2080A1188402319010109112324
:10480000A11B3E228219832DF3080D1142091808BD
:104810008141310F418141BA0C04130F40802705BB
:104820000C0B1322322AA6A26221110981460C0C1C
:104830000F134222130B42827E02020A1223460009
:10484000C0040C0C14300088C8A8998E88A8C888A9
:10485000C0041A80601D870C0C0412404071FF05D3
:104860000A1DFEC10E1A33D9081C06F0180C169347
:10487000D70C1DA80CFC0693160C3060FC0C10071E
:10488000303030232E2801132E230B0D31C40C2D74
:104890002E066D3206000700020406080000000024
:0400000508000131BD
:00000001FF
