:020000040800F2
:10000000B8070020AD0200082B4B00082348000869
:10001000294B0008110600083D57000800000000A9
:10002000000000000000000000000000494D000832
:1000300045080008000000002D4B0008C94D0008CD
:10004000C7020008C7020008C7020008C70200086C
:10005000C7020008C7020008C7020008C70200085C
:10006000C7020008C7020008C702000815060008FA
:10007000210600082D060008C7020008C702000874
:10008000C7020008C7020008C7020008C70200082C
:10009000C7020008C7020008C7020008C70200081C
:1000A000C7020008C7020008C7020008C70200080C
:1000B0003D4F0008C7020008C7020008C702000839
:1000C000C7020008C7020008C7020008C7020008EC
:1000D000C702000831570008C7020008C70200081D
:1000E00047080008C702000800000000C702000817
:1000F000C7020008C7020008C7020008C7020008BC
:10010000C7020008C7020008C7020008C7020008AB
:10011000C7020008C7020008C7020008C70200089B
:10012000C7020008C7020008C7020008C70200088B
:10013000C7020008C7020008C7020008C70200087B
:1001400000000000000000000000000000000000AF
:10015000C7020008C7020008C7020008C70200085B
:10016000C7020008C7020008C7020008C70200084B
:10017000C7020008C7020008C7020008C70200083B
:10018000C7020008C7020008C7020008C70200082B
:10019000C7020008C7020008C7020008C70200081B
:1001A000C7020008C7020008C7020008C70200080B
:1001B000C7020008C7020008C7020008C7020008FB
:1001C000C7020008C7020008C7020008C7020008EB
:1001D000C7020008C7020008C7020008C7020008DB
:1001E000C7020008C7020008C7020008C7020008CB
:1001F000C7020008C7020008C7020008C7020008BB
:10020000C7020008C7020008C7020008C7020008AA
:10021000C7020008C7020008C7020008C70200089A
:10022000C7020008C7020008C7020008000000005B
:10023000C7020008C702000800000000C70200084B
:10024000C7020008C7020008C7020008C70200086A
:10025000C7020008C7020008C7020008C70200085A
:10026000C7020008C7020008C7020008C70200084A
:10027000C7020008C7020008C7020008000000000B
:10028000C7020008C7020008C702000800000000FB
:1002900000000000C7020008DFF80CD000F090F862
:1002A000004800476D570008B807002006488047FF
:1002B00006480047FEE7FEE7FEE7FEE7FEE7FEE74B
:1002C000FEE7FEE7FEE7FEE7894E00089902000818
:1002D0002DE9F05F0546002092469B46884606467B
:1002E000814640241BE0284641464746224600F00E
:1002F00057F853465A46C01A914110D31146184632
:10030000224600F03EF82D1A67EB01084F462246C0
:100310000120002100F035F817EB00094E41201EA6
:10032000A4F10104DFDC484631462A464346BDE8D5
:10033000F09FD2B201E000F8012B491EFBD27047BA
:100340000022F6E710B513460A4604461946FFF7A1
:10035000F0FF204610BD30B50B460146002020229C
:10036000012409E021FA02F59D4205D303FA02F5C2
:10037000491B04FA02F52844151EA2F10102F1DC22
:1003800030BD202A04DB203A00FA02F10020704739
:100390009140C2F1200320FA03F3194390407047C3
:1003A000202A04DB203A21FA02F00021704721FACA
:1003B00002F3D040C2F12002914008431946704731
:1003C000064C074D06E0E06840F0010394E80700A2
:1003D00098471034AC42F6D3FFF762FF085A000882
:1003E000385A0008B0B504462068394940F4807096
:1003F000884214BF38483748006810F4403F10D096
:1004000003F004F805466068B0F5803F05D0B0F50C
:10041000403F22D0B0F5003F20D1000CB5FBF0F5F5
:100420001CE04FF40020002102F020F9054660682E
:10043000A0F580214FEAB1410A290FD8DFE801F089
:100440000606060606063D3F4143450047F6FE7197
:1004500001EA5040B5FBF0F500E0AD0801F014FEF4
:10046000216841F20302904209D888681E4B20F4AB
:1004700080729D4288BF40F480728A60B0BD174888
:10048000854204D851F8080F20F4407013E0144856
:10049000854205D851F8080F012262F309200AE0CD
:1004A00051F8082F0223104663F309200D4B9D429B
:1004B00028BF42F440700860B0BD2D09CEE76D0939
:1004C000CCE7AD09CAE7ED09C8E72D0AC6E700BFCA
:1004D00000210240082302400863025821BCBE00EC
:1004E00041787D0182F0FA02002D3101B0B5044659
:1004F000002021688B688A6813F0020F2DD112F05A
:10050000010208BFB0BD886800F00D0001281BD1B2
:1005100088683C4A104040F0020088600320086070
:1005200001F0B8FD05462068806810F0010F04BF97
:100530000020B0BD01F0AEFD401B0328F3D32068BE
:10054000806810F0010FEED0606D40F01000606523
:10055000A06D40F00100A0650120B0BDF8B50446D3
:100560002068816811F0010F49D18168254E06F19C
:100570007F02114209D0606D40F010006065A06DEF
:1005800040F00100A06501203AE08168314041F06F
:100590000101816001F07EFD054620681A491B4F6C
:1005A00001F5807201F54073904208BF1F468842F2
:1005B000014608BF1F469042BB6804BF42F20001DB
:1005C000C4F2020113F01F0F18BF814217D1016856
:1005D00011F0010F13D1816811F0010F01BF816883
:1005E000314041F00101816001F054FD411B206860
:1005F0000329ECD3016811F0010FE8D1BBE700201B
:1006000001B0F0BDC0FFFF7F002002400063025830
:10061000FEE70000014800F093BF00BF8400002007
:10062000014800F08DBF00BFFC000020014800F031
:1006300087BF00BF740100200168254A91422CD079
:10064000244A91421CBF244A914226D0234A914217
:100650001CBF234A914220D0224A91421CBF224A09
:1006600091421AD0214A91421CBF214A914214D092
:10067000204A91421CBF204A91420ED01F4A91420B
:100680001CBF1F4A914208D01E4A91421CBF1E4AFD
:10069000914202D01D4A914217D16FF00F021823E8
:1006A00052FA81F2B2FBF3F35F2A03F0070C18A3AE
:1006B00013F80C30C36540F2FF3321EA030188BF11
:1006C00041F0040181650846704721F0FF01F9E718
:1006D0001000024028000240400002405800024042
:1006E0007000024088000240A0000240B8000240B2
:1006F0001004024028040240400402405804024012
:100700007004024088040240B8040240A004024081
:10071000000610160006101610B502681E4C414B5C
:100720009A421CBF404B9A420ED0404B9A421CBF8B
:100730003F4B9A4208D03F4B9A421CBF3F4B9A42D4
:1007400002D03D4B9A4211D1D3B2A3F10801142239
:10075000B1FBF2F304EB830104F1800203F01F0309
:100760000124603004FA03F30EC010BDA4F55B71E0
:10077000D3B28A42E9D0094CA3F110011823B1FB8E
:10078000F3F10B46A24204F1AA0488BF0833A24247
:1007900028BF0B46024CDDE7005802580F04024008
:1007A0000008024001790139072988BF7047B0B5B8
:1007B00002681A4D1A4C1B4B4FF0010C9A421CBF99
:1007C000194B9A4216D0194B9A421CBF184B9A42A9
:1007D00010D0184B9A421CBF174B9A420AD0174BA5
:1007E0009A424FF001031FBF154B1A44B2FA82F22E
:1007F000530900E00123002B04F1400218BF2C46EE
:10080000002B04EB810418BF05F140020CFA01F142
:10081000C0E91B424167BDE8B0407047005902582B
:1008200000090240085402581C540258305402581F
:1008300044540258585402586C5402588054025878
:100840006CABFDA770474FF4805001F04BBBEFF34A
:10085000108072B6FEE700007CB504460020164604
:100860000D46019094F85000012801D1022039E092
:10087000012084F850002046FFF738FE616D10B16A
:1008800041F010012AE041F2021021EA000005F4D3
:10089000803140F00200606506F08040014320682E
:1008A0008268114B1A40114341F000418160816818
:1008B000B1F1FF3F0DDC0199013101910B49019A22
:1008C0008A42F4D3606D20F0120040F01001012044
:1008D00004E0616D012060F30101002061650021E9
:1008E00084F8501002B070BDC0FFFE3F00F8C32571
:1008F00090F85020012A01D1022132E07CB501227A
:1009000080F850200022019200920368E44A93424A
:100910001DD1D2F80851946825436D0717D4D1F83A
:1009200000C0D2F80853224E25F44044BCF1000F19
:1009300019D04D6843F480732543C2F80853DA4C4C
:10094000A3421CD19368D2F80861334318E0416D8B
:1009500041F0200141650121002280F85020BDE8CE
:100960007C40C8B27047C2F8084343F48071CE4B54
:10097000994211D19168D2F8083119430DE03368DA
:10098000DB0713D1D2F80833896840F61F76B343EA
:1009900043EA0C03194307E03168C90706D1D2F8CE
:1009A000081340F61F739943C2F808130021D3E7D8
:1009B000086002582DE9FC41044600200D460190D4
:1009C00094F85000012801D1022331E1012084F87C
:1009D00050002068816811F0040F40F021812968DF
:1009E000AA4BB1F1FF3F11DD91FAA1F219429846ED
:1009F0004FF00103B2FA82F208BF8A0E02F01F0222
:100A000003FA02F2C3691A43C26100E098466A68B9
:100A1000890E1F2601F01F0102F01F03C2F30122FD
:100A200000EB82029E409940176BB7433943116334
:100A300081688268D20842EA9101C9076FD12968AA
:100A4000AA6803F0EFFE9248036820686969C268EB
:100A500003F07043B3F1805F02D102F01C0306E0A3
:100A6000D2064FF0100258BF1C22C36813402A69F7
:100A7000042A27D1026E2B6802F0F8429906B2EBE5
:100A8000836F02BF026E22F000420266426E02F0E5
:100A9000F8428A4202BF426E22F000424266826EF3
:100AA00002F0F8428A4202BF826E22F00042826661
:100AB000C26E02F0F8428A4202BFC16E21F00041CC
:100AC000C1662CE0734E06EA530399402B6803F08D
:100AD000F843194300F1600353F8227007F0004710
:100AE000394343F822102A69697E53F8227001299C
:100AF00027F0004708BF47F0004743F82270002264
:100B0000297E012908BF4FF40062296901F01F0105
:100B100002FA01F1026922F4F04211430161816895
:100B200011F0010F41D1D5F800C0EB685A4ED0F852
:100B3000C01003F0180746EA0C060CEA080228FA6F
:100B400007F786EA0806174031403943C0F8C0105D
:100B500052498B4226D19CFAACF1002A4FF08067B3
:100B6000B1FA81F108BF4FEA9C614A1C07EB816131
:100B7000012702F01E0301F0F84102F01F020A2BC8
:100B800007FA02F728BF41F000710A2B28BF0A3A82
:100B9000394302EB420241EA0251AA6803F042FEE5
:100BA000D5F800C0BCF1FF3F01DD00233DE0226825
:100BB000F14D3C4805F5807105F540738A421946B0
:100BC00018BF00F54071AA4208BF19468B68B44EA1
:100BD00042F48071B14205D1A968D5F8087147EA9D
:100BE000010600E08668F1071AD103F0E0761902E9
:100BF00029D42E498C4526D18242D6D1D0F808136B
:100C000021F0E071314341F40001C0F80813A1481C
:100C10000068A149B0FBF1F0022101EB40000DE0BA
:100C2000606D012340F020006065002084F85000D2
:100C3000D8B202B0BDE8F081019801380190019866
:100C40000028F9D1B1E7D9010CD419498C4509D153
:100C50008242AAD1D0F8081321F0E071314341F06B
:100C600080710FE059024FF00003DED411498C452A
:100C700008BF8242D9D1D0F8081321F0E071314386
:100C800041F48001C0F808138FE700BFFFFF0F0099
:100C90000010005CFEFFFF7F0000F0FF0000FF4738
:100CA000002002400060025800210240000084CB76
:100CB000000052C70000B8CF0068006C7047000009
:100CC000F8B504460020002C009037D0606D30B994
:100CD000204600F0EFF80020A06584F8500020685E
:100CE00082686B4912F0005F1EBF82680A40826012
:100CF000826812F0805F13D1826801F18051114047
:100D000041F08051816063490968634AB1FBF2F1A7
:100D1000013101E000990139009100990029F9D1D0
:100D2000816811F0805F0BD1616D012541F01001E8
:100D30006165A16D41F00101A16502E00125A3E01B
:100D400000258168C1F38001626D02F01002114339
:100D5000616D03D041F01000012594E021F4817110
:100D600041F002016165816811F0010F20D1C04995
:100D70004A4A4B4E40F48073B34204D18B68D1F899
:100D80000861334300E01368DB0711D101F580737C
:100D900001F540769842334618BF02F53E7388420B
:100DA00008BF33466068996821F47C110843986055
:100DB00001F06AF9A168226B637D41F203060A43E0
:100DC000102942EA4332237F42EA0342114608BF18
:100DD00041F00C01B04298BF1146012B01BF206ABF
:100DE000304A02EB40400143606A20B100F4787061
:100DF0000843A16A01432068C2682B4B1A40114383
:100E0000C16081688268D20842EA9101C9072CD189
:100E1000217DE26A44F2030342EA8131C2689A43C7
:100E20001143C16094F838200169012A10D104F1FE
:100E30003C0C9CE84C101D4F07EB02421C4F394004
:100E400019431143314341EA0C0141F0010101E032
:100E500021F0010101610169626B21F070411143D0
:100E600001612046FFF7BEFA2068E268016B21F0BD
:100E70000F01012A02BFA269013A11430163012156
:100E8000606D61F301006065284601B0F0BD00BFF0
:100E9000C0FFFF5F18000020400D030008600258EB
:100EA000002102400000FEFF03C0F0FF0000FFFF32
:100EB0001EF800FCF0B5B7B0044632A81421FFF7C5
:100EC0003FFA02A8C021C025FFF73AFA2068684916
:100ED00088424ED100264FF4002009270396029045
:100EE0000420049002200597CDE90600CDE908050D
:100EF00020200A904FF440600B9002A82B9601F03E
:100F0000DBFC08B1FFF7A3FC1C48016841F020019D
:100F10000160016801F0200101910199816841F0AF
:100F20000101816032A9806800F001000190019800
:100F3000802032900320CDE93306114800F0DCFF19
:100F4000104DFA484FF480614FF400624FF40053A3
:100F5000C5E9000705F11000C5E902664EC0C5E904
:100F60000866284600F0AAFD08B1FFF770FCE564AA
:100F7000AC6337B0F0BD00BF00200240D844025837
:100F80000000025884000020F8B504462068384D5F
:100F9000384A05F5807605F54071B04208BF0A462B
:100FA000A84208BF0A469768806810F0040F03D172
:100FB00094F85000012802D1022001B0F0BD0120B8
:100FC00084F850002046FFF7C9FA18B1002184F8D0
:100FD0005010F2E7606D40F6017207F01F01904378
:100FE00040F4807060652068B04218BF054609B1C2
:100FF000854203D1626D22F480126265636D002226
:1010000013F4805F4FF000031CBFA36D23F00603B1
:101010008542A3654FF01C03036084F8502008D07C
:10102000092917D8012202FA01F140F221221142C6
:1010300010D0C16811F0007F1FBF616D012262F303
:101040000D31616581680C4A114041F004018160F5
:101050000020B2E7606D40F480106065E86810F031
:10106000007FF5D0606D012161F30D306065EFE721
:101070000020024000630258C0FFFF7FF8B504461D
:1010800001F008F80546002C00F0A08094F8350027
:10109000022840F09D802768A34EA44887421CBFC9
:1010A000A348874227D0A34887421CBFA248874253
:1010B00021D0A24887421CBFA14887421BD0A1482B
:1010C00087421CBFA048874215D0A04887421CBF5A
:1010D0009F4887420FD09F4887421CBF9E48874247
:1010E00009D09E4887421CBF9D48874203D09D4837
:1010F000874240F00481386820F01E00394638608D
:1011000051F8140F20F080000860F548874244D061
:10111000F44887421CBFF44887423ED0F3488742D8
:101120001CBFF348874238D0F24887421CBFF248C0
:10113000874232D0F14887421CBFF14887422CD009
:10114000F04887421CBFF048874226D0EF488742CC
:101150001CBFEF48874220D0EE4887421CBFEF48B3
:1011600087421AD0EC4887421CBFED48874214D012
:10117000EC4887421CBFEC4887420ED0EB488742C0
:101180001CBFEB48874208D0EA4887421CBFEA48A8
:10119000874202D0E948874204D1206E016821F4D9
:1011A00080710160386820F001003860386810F004
:1011B000010F11D000F06EFF401B0628F6D320204F
:1011C0006065032084F83500012093E0012094E05D
:1011D0008020606501208DE02068C14988421CBFE5
:1011E000C049884226D0C04988421CBFBF498842B6
:1011F00020D0BF4988421CBFBE4988421AD0BE4990
:1012000088421CBFBD49884214D0BD4988421CBFDA
:10121000BC4988420ED0BC4988421CBFBB498842A9
:1012200008D0BB4988421CBFBC49884202D0B9499A
:1012300088426CD1D4E9161202F01F023F2303FA50
:1012400002F28A60A649884244D0A64988421CBF5F
:10125000A54988423ED0A54988421CBFA44988427E
:1012600038D0A44988421CBFA349884232D0A34940
:1012700088421CBFA24988422CD0A24988421CBF88
:10128000A149884226D0A14988421CBFA049884272
:1012900020D0A04988421CBFA04988421AD09E494C
:1012A00088421CBF9E49884214D09E4988421CBF78
:1012B0009D4988420ED09D4988421CBF9C49884266
:1012C00008D09C4988421CBF9B49884202D09B4958
:1012D00088420BD1D4E919014160E06E30B1016858
:1012E00021F480710160D4E91C014160012084F87F
:1012F00035000020002184F8341001B0F0BD3868BA
:10130000B7423FF4F9AE20F00E003946FCE6D4E9CE
:101310001612B04202F01F023FF490AF012303FA0D
:1013200002F24A608EE700BFB8040240100002409B
:101330002800024040000240580002407000024075
:1013400088000240A0000240B800024010040240A1
:101350002804024040040240580402407004024045
:10136000A00402408804024000286ED090F8351096
:10137000022968D101685A4A91422CD0594A9142B7
:101380001CBF594A914226D0584A91421CBF584A24
:10139000914220D0574A91421CBF574A91421AD0DD
:1013A000564A91421CBF564A914214D0554A914226
:1013B0001CBF554A91420ED0544A91421CBF544A18
:1013C000914208D0534A91421CBF534A914202D0E5
:1013D000524A91423CD1042280F835204048814253
:1013E0001CBF4048814228D03F4881421CBF3F4833
:1013F000814222D03E4881421CBF3E4881421CD0DF
:101400003D4881421CBF3D48814216D03C48814244
:101410001CBF3C48814210D03B4881421CBF3B4826
:1014200081420AD03A4881421CBF3A48814204D0E6
:10143000394881421CBF39488142086820F00100C8
:101440000860002102E080214165012108467047C3
:101450000A6822F00E020A600A6822F001020A609D
:101460002F4A914214D02F4A91421CBF2E4A9142DA
:101470000ED02E4A91421CBF2D4A914208D02D4ACF
:1014800091421CBF2C4A914202D02C4A914218D161
:10149000016E01230A6822F480720A60D0E91612F4
:1014A00002F01F0203FA02F24A60D0E919124A6000
:1014B000C16E31B10A6822F480720A60D0E91C1250
:1014C0004A60012180F83510002180F83410026D47
:1014D000002ABBD080B590470021BDE88040B5E729
:1014E0001000024028000240400002405800024024
:1014F0007000024088000240A0000240B800024094
:1015000010040240280402404004024058040240F3
:101510007004024088040240B8040240A004024063
:10152000085402581C54025830540258445402586B
:10153000585402586C54025894540258805402581B
:101540002DE9FC41044600200190DFF8F40BA56D65
:10155000D0F800802F6829682068D44A904249D08A
:10156000D34A90421CBFD34A904243D0D24A9042C1
:101570001CBFD24A90423DD0D14A90421CBFD14AB2
:10158000904237D0D04A90421CBFD04A904231D0CE
:10159000CF4A90421CBFCF4A90422BD0CE4A9042B5
:1015A0001CBFCE4A904225D0CD4A90421CBFCD4AA6
:1015B00090421FD0CC4A90421CBFCC4A904200F0CF
:1015C0002581CB4A90421CBFCA4A904200F01E813E
:1015D000C94A90421CBFC94A904200F01781C84ACC
:1015E00090421CBFC74A904200F01081C649884211
:1015F00040F03382E16D082201F01F018A403A4237
:101600003DD0AA4B98422DD0A94B98421CBFA94B64
:10161000984227D0A84B98421CBFA84B984221D093
:10162000A74B98421CBFA74B98421BD0A64B984291
:101630001CBFA64B984215D0A54B98421CBFA54B8A
:1016400098420FD0A44B98421CBFA44B984209D09B
:10165000A34B98421CBFAC4B984203D0A14B98427D
:1016600040F0FD81042306681E4208D0036823F081
:1016700004030360AA60626D42F001026265012208
:101680008A403A423BD0894B98422DD0884B9842B1
:101690001CBF884B984227D0874B98421CBF874B72
:1016A000984221D0864B98421CBF864B98421BD053
:1016B000854B98421CBF854B984215D0844B98426D
:1016C0001CBF844B98420FD0834B98421CBF834B66
:1016D000984209D0824B98421CBF8B4B984203D052
:1016E000804B984240F0BD8100F11406802336689B
:1016F0001E421FBFAA60626D42F0020262650422B0
:101700008A403A4239D0694B98422DD0684B984272
:101710001CBF684B984227D0DB4B98421CBFDB4B69
:10172000984221D0DA4B98421CBFDA4B98421BD02A
:10173000D94B98421CBFD94B984215D0D84B9842F0
:101740001CBFD84B98420FD0D74B98421CBFD74BE9
:10175000984209D0D64B98421CBFD74B984203D031
:10176000D44B984240F08081022306681E421FBF7E
:10177000AA60626D42F004026265102202FA01F171
:10178000394200F0C780BD4A90422DD0BC4A9042F9
:101790001CBFBC4A904227D0BB4A90421CBFBB4AE8
:1017A000904221D0BA4A90421CBFBA4A90421BD004
:1017B000B94A90421CBFB94A904215D0B84A9042EB
:1017C0001CBFB84A90420FD0B74A90421CBFB74ADC
:1017D000904209D0B64A90421CBFB74A904203D00B
:1017E000B44A904240F0428108220368134200F05C
:1017F0009180A9600268016812F4802F3BD1C9056D
:101800005EBF016821F00801016036E00268E36D07
:1018100003F01F0312F0040F1EBF04279F4017EAB6
:10182000010609D011046F601FD491065EBF0168E4
:1018300021F0040101601CE0970720D502279F409A
:1018400017EA01061BD011046F6000F111819106A7
:1018500000F11281016821F00A010160012084F881
:101860003500002084F8340006E1D00301D4A16CD7
:10187000EDE0216CEBE0080348D4216C47E012074F
:1018800040F1EB8008229A40114000F0E6800168A8
:1018900021F00E0101600121E06D00F01F0001FA4E
:1018A00000F06860616584F83510CCE010000240FB
:1018B00028000240400002405800024070000240F0
:1018C00088000240A0000240B8000240100402401C
:1018D00028040240400402405804024070040240C0
:1018E00088040240A004024094540258085402584C
:1018F0001C54025830540258445402585854025848
:101900006C54025880540258B8040240A16C09B1CA
:1019100020468847E06D00F01F01202000FA01F208
:101920003A426DD02068554E1023B0422DD0544E0F
:10193000B0421CBF534EB04227D0534EB0421CBFE2
:10194000524EB04221D0524EB0421CBF514EB04216
:101950001BD0514EB0421CBF504EB04215D0504E1D
:10196000B0421CBF4F4EB0420FD04F4EB0421CBFD2
:101970004E4EB04209D04E4EB0421CBF4D4EB0420A
:1019800003D04D4EB04218BF022307681F4237D024
:10199000AA6094F835300268042B19D122F016029F
:1019A0000260426922F080024261226C0AB9A26C94
:1019B0001AB1026822F0080202603F208840A86045
:1019C000012084F83500002084F83400216D3EE0C9
:1019D000016852030CD4C9050ED4016821F010012E
:1019E0000160012084F83500002084F8340003E011
:1019F000080301D4616C00E0E16B09B1204688471F
:101A0000606D50B3606D10F0010F1FD04FF4165091
:101A1000B8FBF0F1042084F835002068026822F059
:101A200001020260019A01328A42019203D80268DF
:101A300012F0010FF6D10068012100F0010041EA27
:101A4000400084F83500002084F83400E16C00295F
:101A500008BFBDE8FC8120468847BDE8FC8108231B
:101A600001E60023064642E600237EE60422BCE6A9
:101A7000D00301D4616CEAE7E16BE8E710000240B3
:101A8000280002404000024058000240700002401E
:101A900088000240A0000240B8000240100402404A
:101AA00028040240400402405804024070040240EE
:101AB00088040240A0040240B80402402DE9F0412D
:101AC000044600F0E7FA0546002C00F00681206885
:101AD000DD49884248D0DD4988421CBFDC49884244
:101AE00042D0DC4988421CBFDB4988423CD0DB49FC
:101AF00088421CBFDA49884236D0DA4988421CBF86
:101B0000D949884230D0D94988421CBFD849884237
:101B10002AD0D84988421CBFD749884224D0D74907
:101B200088421CBFD64988421ED0D64988421CBF75
:101B3000D549884200F09280D44988421CBFD449DC
:101B4000884200F08B80D34988421CBFD24988422A
:101B500000F08480D14988421CBFD14988427DD0A1
:101B6000D049884240F0B480022184F83510002129
:101B700084F83410B44988421CBFB449884228D044
:101B8000B34988421CBFB349884222D0B249884237
:101B90001CBFB24988421CD0B14988421CBFB14920
:101BA000884216D0B04988421CBFB049884210D044
:101BB000AF4988421CBFAF4988420AD0AE4988422B
:101BC0001CBFAE49884204D0B64988421CBFAC490C
:101BD0008842016821F00101016005E000F05AFA35
:101BE000401B052872D82068016811F0010FF5D15B
:101BF0000168AE4A04F1100C01EA0208D4E902259A
:101C00009CE84810D4E90771D4F824E042EA0802BD
:101C1000BEF1040F42EA050242EA030242EA06026A
:101C200042EA0C0242EA070241EA020102BFD4E999
:101C30000B23114319439E4A1268B2F1005F55D33A
:101C40006568A5F13F02132A4AD8012303FA02F27C
:101C5000984B1A4244D041F4801147E0022184F8A5
:101C60003510002184F834100268D4E90237D4E931
:101C70000465D4E906CED4F82080802B6FF31012CF
:101C800008BF4FF48041402B42EAD70208BF102121
:101C9000114341EAD60141EAD50141EADC0141EABA
:101CA000DE0141EA181101607F4908441421B0FBAC
:101CB000F1F08000E0652046FEF7BEFCE16D0122F8
:101CC00001F01F0102FA01F141604CE0202000E028
:101CD00040206065032084F835000120BDE8F081D4
:101CE000A5F12902062A38BF41F480110160BEF136
:101CF000040F416921F0070141EA0E0128D1D4E91E
:101D00000A53294323B3BCF5005F08D0BCF1000F90
:101D100011D1022D12D0012D07D07DB118E0032D75
:101D200016D8DFE805F00E0B0E02A3F1C072B2FA6E
:101D300082F2520904E0032D03D309D1C3F30062F8
:101D400032B140206065012084F83500BDE8F081A3
:101D500041612046FEF770FCE16D3F2201F01F015A
:101D600002FA01F1816020683749884244D037493E
:101D700088421CBF364988423ED0364988421CBF43
:101D80003549884238D0354988421CBF3449884299
:101D900032D0344988421CBF334988422CD0334961
:101DA00088421CBF3249884226D0324988421CBF33
:101DB0003149884220D0314988421CBF304988428D
:101DC0001AD0384988421CBF2F49884214D02F4965
:101DD00088421CBF2E4988420ED02E4988421CBF23
:101DE0002D49884208D02D4988421CBF2549884288
:101DF00002D02B4988421FD12046FEF78DFCA068F7
:101E0000802806BF002060606068216EC2B2013881
:101E10000A600728D4E919124A6009D82046FEF75B
:101E2000C1FCE06E00210160D4E91C01416003E0C7
:101E30000020C4E91B00606700200121606584F870
:101E40003510BDE8F08100BF1000024028000240BC
:101E500040000240580002407000024088000240EA
:101E6000A0000240B80002401004024028040240D2
:101E700040040240580402407004024088040240BA
:101E8000A004024094540258085402581C540258AA
:101E90003054025844540258585402586C54025852
:101EA00080540258B8040240F8ABFDA73F8010FEF2
:101EB0000010005C0F030F0070B505466E1C00F0AB
:101EC000E9F804461EB19D480078054401E04FF052
:101ED000FF3500F0DFF8001BA842FAD370BD00BF49
:101EE0007047000003490A6802421CBF0860FFF700
:101EF000F7BF7047880000582DE9FC4F5D4A0A275C
:101F00004FF0000B4FF0010E4FF0030A4FF00F0996
:101F10004FF0000C904208BF0927574A02444FEA8D
:101F2000B223092B38BF4FEAB227009700270A686F
:101F300032FA07F308BFBDE8FC8F0EFA07F312EA86
:101F4000030400F090804D6805F00302A2F101083F
:101F5000B8F1010F18D8D0F80890CE680AFA0CF83A
:101F600029EA080806FA0CF64FF00F0946EA0806B7
:101F70008660C5F3001606FA07F8466826EA0303EA
:101F800043EA0803436001E0032A1DD0C6680AFA49
:101F90000CF3022A26EA03038E6806FA0CF643EADB
:101FA0000603C36010D1354D0BF01C0209FA02F391
:101FB00005EA570505442E6A26EA03030E6906FA68
:101FC00002F21A432A624D68066805F003020AFA13
:101FD0000CF315F4403F02FA0CF226EA030342EA3E
:101FE000030202603FD05E4A0BF00C0609FA06F5C8
:101FF000136843F002031360126802F002020192B8
:10200000019A1F4B27F0030252F8038028EA0508C3
:10201000009D05FA06F648EA0605D5504FF0B04592
:102020002A684B68A24313F4801F18BF224313F49D
:10203000001F2A60134A156825EA040518BF2543C6
:1020400013F4003F1560D2F8805025EA040518BF4C
:10205000254313F4803FC2F88050D56F25EA04056C
:1020600018BF2543D5670BF1040B0CF1020C0137A7
:102070005DE700BF002402580000FEA7FCFFFF7FC1
:10208000080400580400005801480068000C70471C
:102090000010005C29488068704700BF274801781D
:1020A000826811448160704780B5032000F094F885
:1020B00001F0ECF90F496B4B0A68C2F3032209687F
:1020C0009A5C01F00F01595C02F01F02D0400A4AED
:1020D00001F01F0120FA01F11160194908600F2079
:1020E00000F00CF808B1012080BD00F02BF80020B2
:1020F00080BD00BF184402581C00002070B50F4E70
:1021000004463078B0B14FF47A71B1FBF0F00C496D
:102110000968B1FBF0F001F0F1FC01250F2C0AD8A1
:1021200048B94FF0FF3021460022002500F028F882
:10213000746000E00125284670BD00BF0C0000203F
:102140001800002081B00648016841F002010160DA
:10215000006800F002000090009801B0704700BFD6
:10216000F4440258002808DB00F01F010122400956
:1021700002FA01F1014A42F82010704700E100E044
:10218000B0B5144C1A4D00F00F03B0F1FF3FA3F1AE
:1021900004032B4403F10C03C8BF03192868C0F3E0
:1021A0000220051DC41E80F00700072D4FF0010519
:1021B00038BF0024042828BF042005FA00F00138A5
:1021C000084005FA04F10F31A04011400843000116
:1021D0001870B0BD00E400E005494FF6FF030A683F
:1021E0001A4060F30A22034810430860704700BF9A
:1021F0000CED00E00000FA05B0B5114D2A68296821
:1022000012F0040F05D101F00701081A18BF0120D0
:10221000B0BD21F0070108432860FFF73BFF0446EB
:1022200055F8080C10F4005F1CBF0020B0BDFFF78C
:1022300031FF001BB0F57A7F84BF0120B0BDEFE70E
:102240000C48025880B501F0E1F80549054A0968D3
:10225000C1F30211515C01F01F01C84080BD00BFF5
:1022600020440258E059000810B5504CD4F828C05A
:10227000A26AE36A616B03F00103C2F305125B42D9
:10228000002A03EAD1016FF35F3100EE101AB8EEB5
:10229000400A20D00CF00303022B20D0012B22D0C7
:1022A0002BBB02EE102A9FED431AB8EE422A21689A
:1022B00020EE010A11F0200F61D1216B9FED401A31
:1022C0006FF35F2181EE022A03EE101AB8EE433A53
:1022D00030EE031A1EE00021C0E900114DE0216B31
:1022E0009FED332A06E0216B9FED332A02E0216B3C
:1022F0009FED332A01EE102A6FF35F219FED2D3AF7
:10230000B8EE414A01EE101AB8EE411A82EE042AE4
:1023100000EE031A216BB7EE000A31EE001A22EE2E
:10232000011AC1F3462103EE101AB8EE433A33EE18
:10233000002A81EE022ABCEEC22A80ED002A216B1F
:10234000C1F3064102EE101AB8EE422A32EE002A1C
:1023500081EE022ABCEEC22A80ED012A216BC1F374
:10236000066102EE101AB8EE422A32EE000A81EE41
:10237000000ABCEEC00A10EE101A816010BD216880
:10238000C1F3C1010D4A22FA01F1226B03EE101ACA
:102390006FF35F2201EE102AB8EE411AB8EE433A0D
:1023A00030EE011A83EE022AB4E700BF004402585F
:1023B00020BCBE4B000000390024744A0090D003BA
:1023C0000024744C10B54E4CD4F828C0A26AE36ABD
:1023D000E16BC3F30013C2F305325B42002A03EA48
:1023E000D1016FF35F3100EE101AB8EE400A20D031
:1023F0000CF00303022B24D0012B1ED0EBB902EE0C
:10240000102A9FED411AB8EE422A216820EE010AF7
:1024100011F0200F5DD1A16B9FED3E1A6FF35F218C
:1024200081EE022A03EE101AB8EE433A30EE031A98
:102430001AE00021C0E9001149E0A16B9FED332AA9
:1024400002E0A16B9FED2F2A01EE102A6FF35F21AE
:102450009FED2D3AB8EE414A01EE101AB8EE411A3E
:1024600082EE042A00EE031AA16BB7EE000A31EEE9
:10247000001A22EE011AC1F3462103EE101AB8EE3B
:10248000433A33EE002A81EE022ABCEEC22A80EDE6
:10249000002AA16BC1F3064102EE101AB8EE422ADF
:1024A00032EE002A81EE022ABCEEC22A80ED012A19
:1024B000A16BC1F3066102EE101AB8EE422A32EEA9
:1024C000000A81EE000ABCEEC00A10EE101A81600C
:1024D00010BD2168C1F3C1010D4A22FA01F1A26BBE
:1024E00003EE101A6FF35F2201EE102AB8EE411AC4
:1024F000B8EE433A30EE011A83EE022AB4E700BF89
:102500000044025820BCBE4B000000390024744A2D
:102510000090D0030024744C10B54E4CD4F828C061
:10252000A26AE36A616CC3F30023C2F305525B4203
:10253000002A03EAD1016FF35F3100EE101AB8EE02
:10254000400A20D00CF00303022B24D0012B1ED014
:10255000EBB902EE102A9FED411AB8EE422A21682B
:1025600020EE010A11F0200F5DD1216C9FED3E1A83
:102570006FF35F2181EE022A03EE101AB8EE433AA0
:1025800030EE031A1AE00021C0E9001149E0216C85
:102590009FED332A02E0216C9FED2F2A01EE102AD5
:1025A0006FF35F219FED2D3AB8EE414A01EE101A0C
:1025B000B8EE411A82EE042A00EE031A216CB7EE3F
:1025C000000A31EE001A22EE011AC1F3462103EE91
:1025D000101AB8EE433A33EE002A81EE022ABCEE1E
:1025E000C22A80ED002A216CC1F3064102EE101AC6
:1025F000B8EE422A32EE002A81EE022ABCEEC22A4E
:1026000080ED012A216CC1F3066102EE101AB8EECA
:10261000422A32EE000A81EE000ABCEEC00A10EE39
:10262000101A816010BD2168C1F3C1010D4A22FA60
:1026300001F1226C03EE101A6FF35F2201EE102AF3
:10264000B8EE411AB8EE433A30EE011A83EE022A90
:10265000B4E700BF0044025820BCBE4B0000003964
:102660000024744A0090D0030024744CF0B589B063
:1026700002468C4D82F4002008438B488B4F8C4ED1
:102680008C4B00F0728082F400740C4330D082F4E2
:1026900080640C4300F0758082F400640C4334D0F5
:1026A00082F480540C4300F0778082F400540C4391
:1026B00000F0A98082F480440C4331D082F40044BD
:1026C0000C433BD082F480340C4345D082F48072BA
:1026D000114340F0DF80196D01F00701042900F279
:1026E000D980DFE811F064006D009D00D80076000D
:1026F000196DC1F38211042900F2CC80DFE811F0DA
:10270000570060009000CB006900996DC1F3026131
:10271000042900F2BF80DFE801F04A5383BE5C0069
:10272000986DC0F30270052800F2B480DFE800F075
:102730000381969FA98AFFF785FDACE0186D00F034
:102740004050B0F1005F00F07480B0F1805F2ED097
:10275000002800F077809DE0D96C186811F4803F64
:1027600040F07580800126D494E0986D00F44030EC
:10277000B0F5003F2DD0B0F5803F00F08780F8B174
:1027800088E0996DC1F34251042900F28380DFE8AB
:1027900001F00E1747822000196DC1F302310429A0
:1027A00000F27880DFE801F0030C3C771500186830
:1027B00010F0007F6ED006A8FFF756FD07986AE07C
:1027C000186810F0006F65D003A8FFF7FBFD0398B1
:1027D00061E0D96C1A68186811F0405102D112F00A
:1027E000040249D1B1F1805F03D110F48070284612
:1027F00051D1186810F4003018BF3846B1F1005FAD
:1028000018BF002047E0186DC0F30240052841D8EA
:10281000DFE800F0030F242D371800F017FE3AE030
:10282000186810F0005F35D06846FFF775FE009815
:1028300031E0186810F0006F2CD003A8FFF7C2FD3C
:10284000049828E01868800307EAE07023E000019C
:1028500020D503A8FFF7B6FD05981CE0186810F016
:10286000005F17D06846FFF757FE019813E018681D
:1028700010F0040F0ED01868C0F3C10026FA00F063
:1028800009E01868C00505EAE07004E0186810F077
:10289000005F02D1002009B0F0BD6846FFF73CFEA2
:1028A0000298F8E700093D000080BB0040787D01F8
:1028B0000090D003004402582DE9F0470446E07828
:1028C000A84F000722D5A06E4FEA3051032908D83F
:1028D000DFE801F002090F17F96941F40031F961ED
:1028E0000FE0012613E004F10800022102F020F9B4
:1028F00004E004F12800022102F0A0F9064636B9EE
:10290000A06E396C21F440110843386400266078C9
:10291000BA46C00701D1354628E0A06D04280BD87F
:102920003546DFE800F0030C12181800F869354648
:1029300040F40030F8610EE00125012717E004F1B2
:102940000800002102F0F4F804E004F1280000215E
:1029500002F074F90546002D2F4608D15246002595
:10296000106CA16D20F007000843106437466078B2
:10297000800729D5E06D4FEAB01004280AD8DFE8B7
:1029800000F0030C121818005146C86940F40030DA
:10299000C8610EE00125012617E004F108000021BE
:1029A00002F0C6F804E004F12800002102F046F924
:1029B0000546002D2E4608D152460025106CE16DCB
:1029C00020F4E070084310643E466078400702D46B
:1029D000B04657462CE0D4F8A80057464FEA70504E
:1029E000042809D8DFE800F0030C12181800F86971
:1029F00040F40030F8610FE001254FF0010817E0C6
:102A000004F10800002102F093F804E004F128002A
:102A1000002102F013F90546002DA84608D1B86C34
:102A2000D4F8A8100025B04620F460000843B8642C
:102A3000607800072AD5D4F8AC004FEA306004284B
:102A400009D8DFE800F0030B11171700F86940F40C
:102A50000030F8610EE00125012718E004F10800BC
:102A6000002102F065F804E004F12800002102F0E2
:102A7000E5F80546002D2F4609D152460025906CF9
:102A8000D4F8AC1020F0E060084390644746E0784A
:102A9000800722D5E06C4FEA3010032809D8DFE820
:102AA00000F011020B115146C86940F40030C861B2
:102AB00008E00125012611E004F10800022102F0DE
:102AC00037F80546002D2E4608D152460025D06B1A
:102AD000E16C20F030000843D0633E466078C006C9
:102AE00029D5206E4FEA303004280AD8DFE800F0FC
:102AF000030C121818005146C86940F40030C86130
:102B00000EE00125012717E004F10800002102F082
:102B10000FF804E004F12800002102F08FF80546C8
:102B2000002D2F4608D152460025106C216E20F44E
:102B3000E0400843106437466078800625D5606E13
:102B40004FEA304005280AD8DFE800F014030E14DD
:102B5000141404F10800012101F0EAFF09E0012545
:102B6000012613E01044025804F12800012102F06C
:102B700065F80546002D2E4608D152460025106CFA
:102B8000616E20F4E020084310643E466078400601
:102B900025D5D4F8B0004FEA307005280AD8DFE810
:102BA00000F012030C12121204F10800012101F0CE
:102BB000BFFF07E00125012712E004F128000121F1
:102BC00002F03CF80546002D2F4609D1524600255B
:102BD000906CD4F8B01020F0E04008439064374681
:102BE000607800061ED5206F88B1B0F1005F08D074
:102BF000B0F1805F2AD15146C86940F40030C86105
:102C000005E004F10800012101F092FF0546002DC6
:102C10002E4608D152460025106C216F20F04050FE
:102C2000084310643E46E078C00702D1B0465746DC
:102C300024E0A06C574603280BD8DFE800F014020C
:102C40000E14F86940F40030F8610CE0012501260B
:102C5000E9E701254FF0010810E004F10800022126
:102C600001F066FF0546002DA84607D1F86BA16C60
:102C70000025B04620F003000843F863A078400622
:102C800001D4474618E0D7F8F00340F48070C7F845
:102C9000F003FFF7FFF90646D7F8F00310F4807F42
:102CA00007D1FFF7F7F9801B6428F5D9032503271F
:102CB00002E0002D2F4612D02078C0074ED0E06FE2
:102CC0004FEAF000052835D8DFE800F03D03373D36
:102CD0003D3D04F10800012101F02AFF32E0534696
:102CE000196ED4F8B400414011F4407F0BD0196E36
:102CF0001A6E42F4803221F440711A661A6E22F480
:102D000080321A661966B0F5807F40F05A82FFF76C
:102D1000C1F9064641F28839032503275346186E48
:102D200010F0020F40F04B82FFF7B4F9801B4845CA
:102D3000F4D9C1E70125012611E004F128000121A1
:102D400001F07CFF0546002D2E4608D15246002595
:102D5000506CE16F20F03800084350643E46207804
:102D6000800721D5A06F05280AD8DFE800F01203FC
:102D70000C12121204F10800012101F0D9FE07E043
:102D80000125012711E004F12800012101F056FF7F
:102D90000546002D2F4608D152460025506CA16FE4
:102DA00020F007000843506437462078400723D5B9
:102DB000D4F8940005280AD8DFE800F012030C12BA
:102DC000121204F10800012101F0B2FE07E0012512
:102DD000012612E004F12800012101F02FFF054631
:102DE000002D2E4609D152460025906CD4F894103F
:102DF00020F00700084390643E462078800625D5E1
:102E0000D4F890004FEA307005280AD8DFE800F0C7
:102E100012030C12121204F10800002101F088FEC6
:102E200007E00125012712E004F12800022101F04A
:102E300005FF0546002D2F4609D152460025506C4E
:102E4000D4F8901020F0E0400843506437462078D2
:102E5000400625D5D4F89C004FEAB02005280AD8B2
:102E6000DFE800F012030C12121204F10800002136
:102E700001F05EFE07E00125012612E004F12800C2
:102E8000022101F0DBFE0546002D2E4609D15246F7
:102E90000025906CD4F89C1020F4E0500843906416
:102EA0003E462078000625D5D4F8A0004FEA7030C1
:102EB00005280AD8DFE800F012030C12121204F100
:102EC0000800002101F034FE07E00125012712E08F
:102ED00004F12800022101F0B1FE0546002D2F4625
:102EE00009D152460025906CD4F8A01020F460401F
:102EF000084390643746206810F0080F15D0D4F8C6
:102F00008410B1F5805F0AD104F12800022101F09C
:102F100095FE002818BF01272068D4F88410534676
:102F20005A6C22F4405211435964C10615D5D4F8A5
:102F30009810B1F5807F0AD104F12800022101F038
:102F40007DFE002818BF01272068D4F8981053464A
:102F50009A6C22F4407211439964000320D5D4F88E
:102F6000A400B0F5003F0FD0B0F5803F06D068BB9D
:102F700004F10800002101F0DBFD04E004F1280069
:102F8000022101F05BFE0546002D2E4609D1524676
:102F90000025906CD4F8A41020F4403008439064CD
:102FA0003E46A078400726D5D4F88800B0F5401FEB
:102FB00015D0B0F5001F0CD0B0F5801F40F0FA809E
:102FC0005146C86940F40030C86108E00125012677
:102FD000E7E704F12800012101F030FE0546002D4D
:102FE0002F4609D152460025506CD4F8881020F4A1
:102FF0004010084350643746A078C00701D13E46D0
:103000001EE0206DB0F5803F06D0B8B95146C869C2
:1030100040F40030C86105E004F10800022101F02D
:1030200087FD0546002D2E460AD152460025D06B5D
:10303000216D20F480300843D063E0E701250126AC
:10304000216811F0005F01D1606809E004F12800F7
:10305000022101F0F3FD002818BF0126D4E9001079
:103060008A031BD5D4F880206FF0010303EB3223D1
:10307000022B0BD34FEA322343B1012B40F09D804A
:10308000DAF81C3043F40033CAF81C303DB9DAF8E2
:10309000443023F440731A43CAF844203546CA0228
:1030A00007D5DAF84020636F22F000421A43CAF8CD
:1030B0004020CA0008D5DAF80020D4F8B83022F44D
:1030C00080421A43CAF800208A0207D5DAF8402065
:1030D000E36E22F080721A43CAF840204A000CD5F1
:1030E000DAF8002022F40042CAF80020D4F8BC200C
:1030F000DAF800301A43CAF80020B1F1FF3F07DCCC
:10310000DAF83C20636D22F040521A43CAF83C20A2
:10311000090208D5DAF84410D4F88C2021F44001D3
:103120001143CAF84410C10708D004F10800002177
:1031300001F0FEFC002818BF05466068810708D52D
:1031400004F10800012101F0F3FC002818BF054636
:103150006068410708D504F10800022101F0E8FC8D
:10316000002818BF05466068010708D504F128004B
:10317000002101F063FD002818BF05466068C10604
:1031800008D504F12800012101F058FD002818BFDE
:1031900005466068800607D504F12800022101F089
:1031A0004DFD002818BF0546002D18BF01252846F3
:1031B000BDE8F087012501271EE701256FE7D4F858
:1031C000B400196800F440720025B2F5407F21F484
:1031D0007C5102BF054A02EA101211436FF31F30FF
:1031E0001960196E084318664BE500BFCFFFFF005A
:1031F0002DE9F84304468846002C00F0FE80814B00
:10320000186800F00F0040450BD2186820F00F003E
:1032100040EA08001860186800F00F00404540F0D0
:10322000EC802068E44F10F0040F0AD02169BA69DD
:1032300002F07002914281BFBA6922F0700211431C
:10324000B96101070AD56169FA6902F07002914219
:1032500081BFFA6922F070021143F961C1060AD5F3
:10326000A169FA6902F4E062914281BFFA6922F42D
:10327000E0621143F96181060AD5E1693A6A02F018
:103280007002914281BF3A6A22F0700211433962A2
:1032900081070AD5E168BA6902F00F02914281BF45
:1032A000BA6922F00F021143B961C10738D0B86979
:1032B000A16820F470600843B8616068032806D0F4
:1032C000022809D1396811F4003F0ED195E0396820
:1032D00011F0007F09D190E03968012802D1C905B9
:1032E00003D48AE0490740F188803969994621F082
:1032F000070108433861FEF7CDFE064641F28835E6
:103300003869616800F03800B0EBC10F06D0FEF7F5
:10331000C1FE801BA842F3D903206FE020684B4612
:1033200081070AD5E168BA6902F00F0291423FBFF6
:10333000BA6922F00F021143B961196801F00F0157
:1033400041450AD9196821F00F0141EA08011960C5
:10335000196801F00F0141454FD141070AD5216994
:10336000BA6902F0700291423FBFBA6922F070025E
:103370001143B96101070AD56169FA6902F0700267
:1033800091423FBFFA6922F070021143F961C10610
:103390000AD5A169FA6902F4E06291423FBFFA6975
:1033A00022F4E0621143F96180060AD5E069396AC6
:1033B00001F0700188423FBF396A21F07001084373
:1033C000386200F063F8B9692F4AC1F30321515CF8
:1033D00001F01F01C840B96901F00F01515C194AA1
:1033E00001F01F0120FA01F1116017490860064839
:1033F0000068BDE8F443FEF781BE0120C0B201B011
:10340000BDE8F083002000521000002080B500F0DD
:103410003DF80B491C4B0A68C2F303229A5C02F088
:103420001F0220FA02F20868064900F00F00185C3B
:1034300000F01F0022FA00F0086003490A6080BD16
:10344000184402581C0000201800002080B5FFF727
:10345000DDFF0C490C4A0968C1F30211515C01F00F
:103460001F01C84080BD00BF80B5FFF7CFFF0549F1
:10347000054A0968C1F30221515C01F01F01C840EF
:1034800080BD00BF1C440258E05900084A49086941
:10349000C0F3C20349484A4A032B10D0022B04BF91
:1034A0004848704753B9086810F0200F10461FBFF6
:1034B0000868C0F3C10022FA00F07047704780B579
:1034C000D1F828C0D1F828E0CB6A486B03F001039B
:1034D0005B4203EAD003CEF305106FF35F3300289D
:1034E00000EE103AB8EE400ABDE8804004BF00206C
:1034F00070470CF00303022B20D0012B1AD0CBB95C
:1035000002EE100A9FED311AB8EE422A086820EE4A
:10351000010A10F0200F39D1086B9FED2E1A6FF3BE
:103520005F2081EE022A03EE100AB8EE433A30EE35
:10353000031A16E00A6B9FED262A02E00A6B9FED44
:10354000222A01EE100A6FF35F229FED203AB8EEB7
:10355000414A01EE102AB8EE411A82EE042A00EE2A
:10356000031A086BB7EE000A31EE000A22EE000AD9
:10357000C0F34620013001EE100AB8EE411A80EE89
:10358000010ABCEEC00A10EE100A70470868C0F3CA
:10359000C10022FA00F00A6B03EE100A6FF35F22FB
:1035A00001EE102AB8EE411AB8EE433A30EE011A95
:1035B00083EE022AD5E700BF0044025800093D000F
:1035C0000090D00340787D0120BCBE4B0000003944
:1035D0000024744A0024744CF8B50446002C00F012
:1035E0009D812078CE4EC0074CD03169B06A01F081
:1035F0003801102915D0182904BF00F00300022853
:103600000FD06068A0B1B0F5803F06D03168B0F54A
:10361000A02F23D141F480203060306840F4803006
:1036200022E0306810F4003F2CD0606850BB75E198
:10363000306820F480303060306820F480203060C2
:10364000FEF728FD0546306810F4003F1AD0FEF75B
:1036500021FD411B03206429F5D94BE221F4803080
:103660003060306820F480203060FEF713FD05469E
:10367000306810F4003F05D1FEF70CFD401B6428B4
:10368000F6D962E12078800760D53169B06A11F01F
:10369000380118D0182908BF5FEA807013D0E0689D
:1036A0003168E0B321F0190108433060FEF7F2FC05
:1036B0000546306810F0040F20D1FEF7EBFC401BEC
:1036C0000228F6D941E13168E06811F0040F02D018
:1036D000002800F02381316821F01901084330608F
:1036E000FEF7D8FC0546306810F0040F06D1FEF74F
:1036F000D1FC411B03200229F5D9FBE1FEF7C4FCF4
:10370000216941F2030290421AD80803402908BFF8
:103710004FF40030716821F47C31084315E021F04A
:1037200001003060FEF7B6FC0546306810F0040F6B
:103730000CD0FEF7AFFC411B03200229F5D9D9E1DB
:10374000706820F0FE4040EA016070602078C0069A
:1037500044D53169B06A01F0380108291BD0182915
:1037600004BF00F00300012815D0E169306800298A
:1037700000F01C8140F080003060FEF78BFC0546B5
:10378000306810F4807F0ED1FEF784FC411B0320CB
:103790000229F5D9AEE1306810F4807F1CBFE069E2
:1037A000802840F0BB80FEF76FFC216A41F20302E3
:1037B00090420BD88A062029304608BF4FF080423D
:1037C00050F8041F21F0F841114306E0304650F84C
:1037D0000C2F22F07C5242EA016101602078000740
:1037E00023D56169706F79B140F001007067FEF711
:1037F00051FC0546706F10F0020F16D1FEF74AFC1F
:10380000401B0228F6D9A0E020F001007067FEF707
:1038100041FC0546706F10F0020F06D0FEF73AFC2F
:10382000411B03200229F5D964E12078800623D5C5
:10383000A169306879B140F480503060FEF72AFC0D
:103840000546306810F4005F16D1FEF723FC401BDC
:103850000228F6D979E020F480503060FEF71AFC97
:103860000546306810F4005F06D0FEF713FC411BDC
:1038700003200229F5D93DE12078400752D4676A38
:10388000002F00F01E81306900F0380018286DD13B
:10389000B16A306B012F41D0A26A01F00303934259
:1038A0003CD1E26AC1F30511914237D1226B014646
:1038B0006FF35F21013A914230D1C0F34621626B30
:1038C000013A91422AD1C0F30641A26B013A9142DA
:1038D00024D1C0F30660E16B013988421ED1706BC0
:1038E000A16CC0F3CC00814200F0EB80F06A20F0C4
:1038F0000100F062FEF7CEFB0546FEF7CBFBA842C7
:10390000FBD0706B4FF6F8718843A16C40EAC100A0
:103910007063F06A40F00100F062D2E00120E9E05B
:1039200000440258D6F8000440F48070C6F8000441
:10393000FEF7B0FB0546D6F8000410F4807F06D1F0
:10394000FEF7A8FB401B6428F5D90320D2E0A0684D
:10395000F0B3012806D0316F052840F0B48041F063
:1039600004003067306F40F00100B2E0306820F0B2
:1039700080703060FEF78EFB0546022F0AD130685A
:1039800010F0007F3DD0FEF785FB411B032002298C
:10399000F5D9AFE0306810F0007F00F09280FEF7BC
:1039A00079FB411B03200229F4D9A3E020F0800019
:1039B0003060FEF76FFB0546306810F4807F3FF4FF
:1039C0000DAFFEF767FB411B03200229F4D991E0FC
:1039D000306F20F001003067306F20F00400306756
:1039E000FEF758FB054641F28837306F10F0020FA2
:1039F0003FF445AFFEF74EFB411B0320B942F4D91B
:103A000078E0B06A40F2F33104F130034FF47E47BE
:103A10008843D4E90A12084340EA0210B0620FCB8F
:103A200007EB412100F2FF1089B26FF35F200843DA
:103A30004FF4FE0101EB024101F4FE0108434FF097
:103A4000FE4101EB036101F0FE4108434FF6F871BE
:103A50003063F06A20F00100F062706B8843A16C63
:103A600040EAC1007063F06A216C20F00C0008434A
:103A7000F062F06A616C20F002000843F062F06AC4
:103A800040F48030F062F06A40F40030F062F06A96
:103A900040F48020F062F06A40F00100F06230688B
:103AA00040F080703060FEF7F5FA0446306810F0A0
:103AB000007F06D1FEF7EEFA011B03200229F5D99B
:103AC00018E0002016E021F001003067306F20F090
:103AD00004003067FEF7DEFA054641F28837306FA2
:103AE00010F0020F7FF4CBAEFEF7D4FA411B032097
:103AF000B942F4D9C0B201B0F0BD0000411E0020AF
:103B0000B0EB116F1CBF01207047044AF0235160D5
:103B100003490B70072190601160704710E000E0CE
:103B200023ED00E0704770477047000090F83C308C
:103B30000222012B3DD010B5012380F83C3080F8E3
:103B40003D2002685368D2F808C01B4C42F4806ED6
:103B5000A64502BF4C6823F470032343B2F1804FA3
:103B60000C6823F0700343EA04035360BDE810407F
:103B700014D0124B9A421CBF114B9A420ED0114BDB
:103B80009A421CBF104B9A4208D0D54B9A421CBF98
:103B90000E4B9A4202D0084B9A4204D189682CF00D
:103BA0008003194391600121002280F83D1080F8C4
:103BB0003C20D0B2704700BF000401400004004028
:103BC00000080040000C0040001800400040014088
:103BD00010B5044654B394F83D0028B9002084F889
:103BE0003C00204600F024F80220211D84F83D000E
:103BF000206801F0A9F9012084F8480084F83E000B
:103C000084F83F0084F8400084F8410084F84200C2
:103C100084F8430084F8440084F8450084F84600A2
:103C200084F8470084F83D00002010BD012010BD3D
:103C30007CB504462068B0F1804F18BF7CBD1848A1
:103C4000184D00224FF480634FF4805C4FF4804E97
:103C50004FF48076016841F001010160162100688F
:103C600000F00100019001980F4885E8070005F178
:103C70000C0080E80C502846C5E907626A62FDF72F
:103C80001DFF08B1FCF7E3FD1C2001210022256285
:103C9000AC63FEF775FA1C20BDE87C40FEF762BA03
:103CA000E8440258FC00002028000240B0B5044659
:103CB000022094F83C20012A4BD0012284F83C20B9
:103CC00084F83D00206882683C4B1A4082600A6894
:103CD0003B4D8AB3102A2FD0202A18BF302A2BD070
:103CE000402A3AD0502A43D0602A4CD0354B9A42D1
:103CF00022D0B2F5805F25D0B2F5005F4ED0B2F58C
:103D0000801F18BFB2F1101F16D02F4B9A421CBF54
:103D10002E4B9A4210D0702A1DD1D1E90123C968D7
:103D20001A4342EA0121826822F47F4211438160F2
:103D3000816841F0770104E081682940114341F036
:103D4000070181600020012184F83D10002184F8E2
:103D50003C10C0B2B0BD0120F5E74B68CA681946F7
:103D600001F05EF920688168294041F04701E8E7E9
:103D70004B68CA68194601F053F9206881682940E8
:103D800041F05701DDE74B68CA68194601F059F95F
:103D900020688168294041F06701D2E7D1E9012319
:103DA000C9681A4342EA0121826822F47F42114322
:103DB0008160816841F48041C3E700BF8800CEFF85
:103DC00088FFCFFF400010002000100030001000DE
:103DD0002DE9F84F04460D46002C4CD094F83D00D8
:103DE00028B9002084F83C00204600F04BF802205F
:103DF00084F83D0020688168214A11408160211DBE
:103E000001F0A2F820688168D0F818A0D0F820C08E
:103E1000D5E9003ED5E902B7D5E90489D5E90626FA
:103E200019432B6A4BEA02224FF6FC4581604FF69C
:103E3000FF71AA432AEA01013943114341EA0621ED
:103E400041EA081141EA033181612CF0AA0141EAFB
:103E50000E0141EA09110162012084F8480084F84A
:103E60003E0084F83F0084F8440084F8450084F85C
:103E70003D00002000E0012001B0BDE8F08F00BF50
:103E8000F8BFFEFF10B586B0044601A81421FCF768
:103E900057FA20681249884220D11248016941F03E
:103EA00001010161016901F00101009100990168BE
:103EB00041F01001016001A9006800F010000090BD
:103EC00000984FF420600190022002900020CDE97C
:103ED0000300012005900448FEF70EF806B010BD5F
:103EE00000000140E04402580010025810B590F85C
:103EF0003E4090F83F3090F844E090F845C00122F1
:103F000004290BD0A9B9012C08BFBEF1010F41D182
:103F1000022180F83E1080F844102CE0012B08BFED
:103F2000BCF1010F36D1022180F83F1080F8451016
:103F30001DE0012C08BF012B2CD1BEF1010F08BFE1
:103F4000BCF1010F26D10222002980F83E2080F822
:103F50003F2080F8442080F845200CD001680A6A90
:103F600022F001020A620A6A42F001020A6210218A
:103F70006FF0100202E001216FF001020068036A95
:103F80001A400262026A114300220162016841F094
:103F900001010160104610BD70470000F8B50446ED
:103FA0002068C768066907EA0605A90714D56FF0F7
:103FB0000201016101212177806910F0030F03D014
:103FC0002046FFF7E9FF05E0204600F085F820468F
:103FD00000F083F800202077680715D520686FF07F
:103FE0000401016102212177806910F4407F03D030
:103FF0002046FFF7D1FF05E0204600F06DF820468F
:1040000000F06BF800202077280715D520686FF0A6
:104010000801016104212177C06910F0030F03D06A
:104020002046FFF7B9FF05E0204600F055F820468E
:1040300000F053F800202077E80615D520686FF0CF
:104040001001016108212177C06910F4407F03D07D
:104050002046FFF7A1FF05E0204600F03DF820468E
:1040600000F03BF800202077E80706D020686FF0CA
:1040700001010161204600F031F817F0800718BFF8
:1040800016F4025005D02068114901612046FFF75F
:104090004AFD47B116F4807005D020680D490161D2
:1040A0002046FFF73FFD680606D520686FF0400107
:1040B0000161204600F03CF8A80658BFF8BD206812
:1040C0006FF0200101612046BDE8F840FFF72CBDEC
:1040D0007FDFFFFFFFFEFFFF70477047B0B510495D
:1040E00000680968884200D0B0BD0E480E4D0068D7
:1040F000688082B2A988914208BFB0BD297811B109
:1041000000202870B0BD094CA8802046FCF73CFF79
:104110002046FCF7D1FDE880BDE8B04001F076BB59
:10412000380200202400014004000020200000206C
:10413000704790F88410012901D1022112E0242156
:10414000C0F8881002681368116821F0010123F09B
:10415000005311600021416613602022C0F88820BE
:1041600080F88410C8B2704770477047B0B50446F5
:1041700094F88400012801D102201BE0012084F87A
:1041800084002420C4F8880020680568026822F0B2
:1041900001020260826822F0606211438160204661
:1041A00000F062FF206805602020C4F8880000202D
:1041B00084F88400C0B2B0BDB0B5044694F8840061
:1041C000012801D102201BE0012084F88400242072
:1041D000C4F8880020680568026822F001020260C5
:1041E000826822F0604211438160204600F03CFF6B
:1041F000206805602020C4F88800002084F884002E
:10420000C0B2B0BD7047704770470000B0B50446FB
:1042100040F62F012068C26902EA01030168D0F864
:1042200008E0202B0DD101F020030EF080552B4328
:1042300007D0616F002900F0AA812046BDE8B04098
:10424000084740F60F0313401FBFD14B0B40D14D21
:104250000EEA050C18BF53EA0C0344D0D3070BD069
:1042600011F480731FBF01230362D4F8903043F030
:10427000010318BFC4F890300EF00105930708D56C
:104280003DB102230362D4F8903043F00403C4F834
:104290009030530708D53DB104230362D4F8903021
:1042A00043F00203C4F8903013070DD501F020034A
:1042B00053EA0C031FBF08230362D4F8903043F085
:1042C000080318BFC4F8903013054ED511F0806371
:1042D0004BD04FF400632546036255F8903F43F0FE
:1042E00020032B6043E002EA0105EB06E36E7CD578
:1042F000012B7AD110210162816811F0400F40F04A
:104300008680B4F85C10B4F85E20B4F85E30002B00
:1043100000F03D81891A89B209B938E1206850E876
:10432000000F226820F4907042E80003002BF5D1C2
:10433000206850E8020FA84A1040226842E80203B1
:10434000002BF5D12020C4F88C000020E0666067C7
:10435000206850E8000F226820F0100042E80003B7
:10436000002BF5D102202067E2E004F190052B68D4
:10437000002B00F00C8112F020020BD001F0200184
:104380000EF0805211431CBF616F002902D02046FD
:10439000884720682968806801F0280100F0400003
:1043A000084374D0204600F05DFF2068816811F05A
:1043B000400F01D126E0206850E8020F216820F06C
:1043C000400041E80202002AF5D1D4F88000C8B1CB
:1043D00071490165FCF7C8FF002800F0D880D4F8C7
:1043E0008000016DBDE8B0400847D30244D51EF4FB
:1043F000800341D04FF4801101622046BDE8B040F7
:10440000FFF701BF2046BDE8B040FFF7FDBED4F87E
:1044100080100A68614B9A4240D0614B9A421CBF9F
:10442000CF4B9A423AD05F4B9A421CBF5E4B9A42A6
:1044300034D05E4B9A421CBF5D4B9A422ED05D4BEE
:104440009A421CBF5C4B9A4228D05C4B9A421CBFDC
:104450005B4B9A4222D05B4B9A421CBF5A4B9A420A
:104460001CD05A4B9A421CBF594B9A4216D0594BFA
:104470009A4208BF0A6812E013065ED501F0800C6C
:104480000EF4000353EA0C0357D0A16FD2E6204686
:10449000FFF7BAFE0020C4F8900078E00A68043202
:1044A00013689DB2002D72D0B4F85C2095426ED294
:1044B000A4F85E30C969B1F5807F01D132E020688F
:1044C00050E8000F216820F4807041E80002002AC3
:1044D000F5D1206850E8020F216820F0010041E882
:1044E0000202002AF5D1206850E8020F216820F06E
:1044F000400041E80202002AF5D12020C4F88C00D7
:104500000020E066206850E8000F216820F01000CD
:1045100041E80002002AF5D1D4F88000FCF7AEFD96
:10452000B4F85C2002202067B4F85E00101A81B253
:104530002046BDE8B040FFF717BE6B060AD4100254
:104540001BD511F0804018D02046BDE8B040FFF7E1
:1045500059BE206850E8000F216820F0400041E873
:104560000002002AF5D12020C4F888000020A067AE
:104570002046BDE8B04000F053B9D00107D5B1F1F5
:10458000FF3F04DC2046BDE8B040FFF7EEBDB0BD04
:1045900020010004010000105552000810000240E4
:1045A000280002405800024070000240880002408B
:1045B000A0000240B800024010040240280402405B
:1045C0004004024058040240700402408804024043
:1045D000B8040240A0040240FEFFFFEF10B50446FD
:1045E000D4B1D4F8880028B9002084F8840020468B
:1045F00000F026F82420C4F888002068016821F023
:1046000001010160A06A10B1204600F05BFD204668
:1046100000F052FE012801D1012010BD2068416840
:1046200021F490414160816821F02A018160016894
:1046300041F0010101602046BDE8104000F0ACBD32
:10464000F0B5B7B0044632A81421FBF779FE02A8F2
:10465000C021FBF775FE20683D4DCD4E3D49884297
:104660002CD03D49884271D1002402A8022703942E
:1046700002972094FEF720F908B1FCF7E8F8B0683B
:1046800032A940F40020B060B06800F4002001902E
:104690000198306840F001003060306800F001009F
:1046A000019001984FF4C050CDE932070620CDE9C2
:1046B000344436902846FDF71FFC47E000270120D0
:1046C0000397029002A82197FEF7F6F808B1FCF7CD
:1046D000BEF8306932A940F010003061306900F056
:1046E000100001900198306840F00100306030689F
:1046F00000F00100019001984FF4C0603290022058
:10470000CDE933070720359736902846FDF7F4FBAF
:10471000124D13482A2140224FF4806385E8870018
:1047200005F1140014212B61FBF70AFE2846FDF762
:10473000C5F908B1FCF78BF8252000210022E567B8
:10474000AC63FDF71DFD2520FDF70CFD37B0F0BD76
:104750000000025800100140004C0040740100208D
:10476000400002402DE9F84304461D46174688469E
:10477000D4F8880020281ED1B8F1000F4FF00100B6
:1047800018BF002F49D04FF000092120C4F89090A5
:10479000C4F88800FDF77EFCA4F85470A4F85670A5
:1047A0000646A068B0F5805F07D12769002F0CBFCF
:1047B000C14647461BE002202FE0474617E020464F
:1047C000802100223346009500F062FF08BB20687C
:1047D00017B117F8011B04E039F8021B00276FF32B
:1047E0005F218162B4F856000138A4F85600B4F88D
:1047F00056000028E3D12046402100223346009590
:1048000000F046FF20210028C4F8881018BF0320BC
:1048100003E02020C4F88800032001B0BDE8F08345
:104820007047FEE7C1F3045CC1F34061072300EB6E
:10483000810003FA0CF302FA0CF241699943114327
:1048400041617047B0B58AB0002568461C210995C2
:10485000CDE90755FBF774FD1B4C1C480421C4E946
:1048600000050120C4E902552161257565751521F2
:10487000A06104F124002577FBF762FD2046FCF7D8
:104880001FFA08B1FBF7E3FF0F4807A90795FCF7EC
:104890002FF808B1FBF7DBFF0D4840F2FF710090E5
:1048A000062001900020029003910421CDE904101C
:1048B0008DF8190004486946FCF77CF808B1FBF74D
:1048C000C6FF0AB0B0BD00BF20000020002002409B
:1048D0008000501DBCB51048104C0022016841F00A
:1048E000010101600021006800F0010001900198C1
:1048F0000B20A0470A4D0B20A8470C2000210022C6
:10490000A0470C20A8470D2000210022A0470D2021
:104910002946BDE8BC400847D84402588121000818
:1049200065210008FEB50020CDE9040018480168A3
:1049300041F080010160016801F08001009100995F
:10494000016841F001010160016801F0010100917D
:104950000099016841F01001016001A9006800F0B0
:104960001000009000984FF4805001904FF4041014
:104970000290012003900748FDF7BEFA282000218D
:104980000022FDF7FDFB2820FDF7ECFB06B080BD03
:10499000E04402580010025810B58CB000241548AD
:1049A0004FF6FF720294CDE900441349C0E90014A8
:1049B0000121C0E90242C0E904448461CDE9031445
:1049C000CDE90514CDE90744CDE9091403A90B94F9
:1049D000FFF7FEF908B1FBF73AFF06486946CDE953
:1049E00000440294FFF7A2F808B1FBF730FF0CB0C7
:1049F00010BD00BFEC0100200000014080B588B070
:104A0000174800214FF0804240F2CF734FF0C70C9F
:104A10000791CDE90511CDE90311CDE90111C0E9F7
:104A20000023C0E9021C01618161FFF7D1F808B1E0
:104A3000FBF70DFF4FF4805004A904900848FFF7DE
:104A400035F908B1FBF703FF002001A9019003909D
:104A50000348FFF76BF808B1FBF7F9FE08B080BD1B
:104A60003802002010B5164C16484FF4E1310022F0
:104A70000C2384E8070004F118001421C4E9032280
:104A80006361FBF75DFC2046FFF7A8FD08B1FBF76B
:104A9000DEFE0B480021FFF78FFB08B1FBF7D7FEC6
:104AA00007480021FFF762FB08B1FBF7D0FE04487E
:104AB000FFF73FFB18B1BDE81040FBF7C8BE10BDC3
:104AC00018030020004C004010B5AD4C15484FF4C1
:104AD000E13100220C2384E8070004F118001421BE
:104AE000C4E903226361FBF72BFC2046FFF776FD48
:104AF00008B1FBF7ACFEA2480021FFF75DFB08B14F
:104B0000FBF7A5FE9E480021FFF730FB08B1FBF73D
:104B10009EFE9B48FFF70DFB18B1BDE81040FBF768
:104B200096BE10BD00100140FEE7FEE77047000092
:104B3000F8B5FB4F05460C46B86A00F003000328A1
:104B400001D1012076E0386820F080603860FDF700
:104B5000A1FA0646386810F0006F05D0FDF79AFA02
:104B6000801B0228F6D962E0B86A29682B1D4FF431
:104B70007E46002C20F47C3040EA0130B8620FCB36
:104B800006EB412100F2FF1089B26FF35F2040EA8B
:104B900001004FF4FE0101EB024101F4FE0140EA85
:104BA00001004FF0FE4101EB036101F0FE4140EADC
:104BB0000100B863F86A696920F0C00040EA0100AA
:104BC000F862F86AA96920F0200040EA01004FF677
:104BD000F871F862F86A20F01000F862F86B20EAC9
:104BE0000100E96940EAC100F863F86A40F010008A
:104BF000F86208D04FF40010012C08BF4FF4801069
:104C0000F96A084302E0F86A40F40020F862386864
:104C100040F080603860FDF73DFA0446386810F0D7
:104C2000006F06D1FDF736FA001B0328F6D30320E8
:104C300000E00020C0B201B0F0BD00BFF8B5B84F31
:104C400005460C46B86A00F00300032801D1012094
:104C500076E0386820F080503860FDF71BFA064691
:104C6000386810F0005F05D0FDF714FA801B0228A9
:104C7000F6D962E0B86A29682B1D4FF47E46002CF5
:104C800020F07C7040EA0150B8620FCB06EB412166
:104C900000F2FF1089B26FF35F2040EA01004FF489
:104CA000FE0101EB024101F4FE0140EA01004FF078
:104CB000FE4101EB036101F0FE4140EA010038646E
:104CC000F86A696920F4406040EA0100F862F86A15
:104CD000A96920F4007040EA01004FF6F871F8620B
:104CE000F86A20F48070F862786C20EA0100E969C3
:104CF00040EAC1007864F86A40F48070F86208D035
:104D00004FF08070012C08BF4FF40000F96A08438F
:104D100002E0F86A40F48000F862386840F08050A1
:104D20003860FDF7B7F90446386810F0005F06D127
:104D3000FDF7B0F9001B0328F6D3032000E00020A4
:104D4000C0B201B0F0BD00BF7047000051EA0002E0
:104D500008BF7047E0B58DF80400000A04224FF048
:104D6000FF338DF80500080A8DF8061001A98DF8AB
:104D700007000348FFF7F6FCBDE88C40704700BF12
:104D8000840200202DE9F0410D4D14468846064668
:104D90000027A742A8BFBDE8F081286838F81010A6
:104DA00036F81000FFF7D2FF286806490130884224
:104DB00008BF002028600120FDF77EF80137E8E7F2
:104DC000B0030020A0860100FDF768B9B0B59CB023
:104DD00009A84C21FBF7B4FA01A82021FBF7B0FA8F
:104DE0000220FDF709FA002000902548016821F013
:104DF00001010160006800F0010000902148016895
:104E000041F440410160016801F440410091009982
:104E1000016811F4005FFBD002200121402400252D
:104E200009900C9104210D94129013951491322144
:104E3000CDE91510CDE917000C20CDE9190509A819
:104E40001B95FEF7C9FB18B1EFF3108072B6FEE7B1
:104E50003F20022101900320CDE902050820CDE981
:104E600004044FF480600694CDE9070401A8FEF71E
:104E7000BFF918B1EFF3108072B6FEE71CB0B0BDF9
:104E80002C040058184802582348016841F4700166
:104E900001602248016801F00F0106299FBF0168E7
:104EA000072262F30301016010B51D490A6842F050
:104EB00001020A6000220A610B681A4C23400B6051
:104EC000036813F0080F1FBF0368072464F303038C
:104ED00003608A61CA610A62134B8B62134BCB6217
:104EE000134B0B634A638B63CA630B644A640B689E
:104EF00023F480230B600A660E490968B2EB517FE8
:104F0000BDE8104002BF0C4901220A604FF4005175
:104F100043F2D2024250704788ED00E00020005278
:104F2000004402587FEDF6EA000202020000FF0191
:104F3000800201010010005C088100510148FFF768
:104F40002DB800BF380200200268B0F1804F0ED0AB
:104F50002B4B98421CBF2B4B984208D02A4B9842AF
:104F60001CBF2A4B984202D0294B984203D14B6870
:104F700022F070021A43B0F1804F1CBF204B9842C0
:104F800014D0204B98421CBF1F4B98420ED0204B90
:104F900098421CBF1D4B984208D01E4B98421CBF24
:104FA0001D4B984202D01D4B984203D1CB6822F48E
:104FB00040721A434B6922F080021A4302608A68E9
:104FC000C2620A688262124A90421CBF0F4A904233
:104FD00008D0104A90421CBF0F4A904202D00F4A9C
:104FE000904201D10969016301214161016911F018
:104FF000010F1EBF016921F001010161704700BF6F
:105000000004004000080040000C00400004014083
:1050100000000140004001400048014000440140C0
:10502000D0F820C0036A23F001030362836923F0F0
:10503000F00343EA021282612CF00A02114301627A
:105040007047D0F820C0036A23F01003036283691D
:1050500023F4704343EA023282612CF0A00242EA58
:105060000111016270470000416ED9B180B502683C
:105070000FF2400C0FF2440E9168C1F34261926846
:105080001CF801301EF80110520F0901B1FBF3F1B9
:105090001CF802301EF802201201B2FBF3F2BDE848
:1050A000804001E001220121A0F86A20A0F86810E8
:1050B000704700BF08040204080101010101010357
:1050C00007010000816A11F0080F08D002685368D8
:1050D000D0F838C023F4004343EA0C035360CA07F6
:1050E00008D002685368D0F82CC023F4003343EA98
:1050F0000C0353608A0708D502685368D0F830C0A3
:1051000023F4803343EA0C0353604A0708D502684E
:105110005368D0F834C023F4802343EA0C0353606F
:10512000CA0608D502689368D0F83CC023F48053BF
:1051300043EA0C0393608A0608D502689368D0F8A6
:1051400040C023F4005343EA0C03936080B54A0641
:1051500015D5D0F800E0DEF804C0436C2CF48012C2
:10516000B3F5801F42EA0302CEF8042007D1DEF82F
:105170000420836C22F4C0021A43CEF804200906EE
:10518000BDE8804058BF704701684A68C06C22F48F
:105190000022104348607047BCB504460020C4F8A4
:1051A0009000FCF777FF05462068016811F0080FB2
:1051B00018D027484FF4001100222B4600902046BB
:1051C00000F066FA68B1206850E8000F216820F00E
:1051D000800041E80002002AF5D12020C4F88800B0
:1051E00025E02068006810F0040F22D018484FF422
:1051F000800100222B460090204600F049FAC0B101
:10520000206850E8000F216820F4907041E8000207
:10521000002AF5D1206850E8020F216820F0010033
:1052200041E80202002AF5D12020C4F88C000320B6
:1052300007E02020C4F88800C4F88C000020E06655
:1052400020670021C0B284F8841002B0B0BD00BF56
:10525000FFFFFF01806B0021A0F85E10A0F8561040
:10526000FEF7D2BF016851E8001F026821F4907177
:1052700042E80013002BF5D1016851E8021F0D4AE6
:105280001140026842E80213002BF5D1C16E0129DA
:1052900009D1016851E8001F026821F0100142E8BD
:1052A0000013002BF5D12021C0F88C100021C1661D
:1052B00041677047FEFFFFEF2DE9F04186B00446DD
:1052C0002168A068D4E90423E56910430A681843FB
:1052D000A14B28431A40104308604868E26820F454
:1052E0004050104348609D48A0F50E368646A069A0
:1052F0009B4FB1421CBF226A10438A68994B1A40E7
:1053000010438860C86AD4F824C020F00F0040EA37
:105310000C00C862944880469448954B994228D026
:10532000944B994231D0944B99423AD0934B994245
:1053300043D0934B994200F04B80924B994200F03E
:105340005280914B994200F05980904B994200F065
:1053500060808F4B994240F069803B68C3F3C20381
:10536000052B00F263800127DFE803F0695E6264C9
:1053700066683A6802F00703052B00F257800027A1
:10538000DFE803F05D5256585A5C3A6802F00703B2
:10539000052B00F24B800027DFE803F051464A4C12
:1053A0004E503A6802F00703052B00F23F800027B9
:1053B000DFE803F0453A3E4042443A6802F0070312
:1053C000052B33D80027DFE803F03A2F3335373980
:1053D0003A6802F00703052B28D80027DFE803F01E
:1053E0002F24282A2C2E3A6802F00703052B1DD8FB
:1053F0000027DFE803F024191D1F21237A6802F03B
:105400000703052B12D80227DFE803F0190E121448
:1054100016183A68C2F3C203052B07D80127DFE844
:1054200003F00E0307090B0D042708E0802706E0B0
:10543000082704E0102702E0202700E04027B142BF
:1054400013D00121B5F5004F20D1082F2AD8DFE86D
:1054500017F009005800000100015B000001000185
:1054600000016000FDF7F2FF57E0402F30D0042F1D
:1054700031D0082F34D0102F3CD0202F00F0C18025
:10548000022F40F0E580FCF7DDFE2DE0082F14D858
:10549000DFE807F00580DFDF83DFDFDF8800FDF76F
:1054A000D5FF83E0102F00F09880202F3AD0402FB6
:1054B00040F0CF804FF4004034E0102F00F0948093
:1054C000202F77D0402F40F0C4804FF4004071E08F
:1054D0004FF4004095E003A8FCF774FF049803E044
:1054E0006846FDF719F80198002800F0AF80D4F85D
:1054F00024C086E0DEF8000010F0200F7BD140468B
:105500007FE0FDF7B1FF08E003A8FCF75BFF04981C
:1055100003E06846FDF700F80198002800F0968047
:10552000D4F824C0584931F81C10B0FBF1F0616880
:105530004A0802EB40004FF6EF72B0FBF1F0A0F129
:105540001001914200F284804FF6F0710140C0F3E7
:105550004200084378E000BFF369FFCF00440258DF
:1055600054440258FFF4FF110090D00300093D009D
:105570000044004000480040004C00400050004003
:1055800000780040007C0040000C005800140140EE
:1055900000100140FDF768FF08E003A8FCF712FFC8
:1055A000049803E06846FCF7B7FF019800284DD047
:1055B000D4F824C034494FF6EF7231F81C10B0FB18
:1055C000F1F0616800EB5100B0FBF1F0A0F11001C7
:1055D00091423DD8216880B237E0DEF8000010F03B
:1055E000200F42D140469DE7DEF8000010F0200F6A
:1055F00042D14046DEE7DEF80000C0F3C10028FAE1
:1056000000F02149656831F81C2005EB45070121B0
:10561000B0FBF2F3BB421CD32F03BB4219D80021CD
:105620000023FAF755FE09022A46002341EA1061D9
:10563000000210EB550041F10001FAF749FE134A50
:10564000A0F54071914203D82168C860002100E0B4
:1056500001210120A4F86A00A4F868000020C4E930
:105660001D00084606B0BDE8F081DEF80000C0F37A
:10567000C10028FA00F055E7DEF80000C0F3C100D1
:1056800028FA00F096E700BFF0590008FFFC0F0071
:105690002DE9F8430446DDF82090984616460F465B
:1056A000206809F10105C1693940C91BB1FA81F1CE
:1056B0004909B1422AD1002DF5D0FCF7EBFC0321BA
:1056C000B9F1000F23D0A0EB080048451FD820688F
:1056D000016811F0040FE6D0402F18BF802FE2D0F0
:1056E000C16911F0080F16D1C16911F4006FDAD049
:1056F0004FF4006101622046FFF7B4FD2020032132
:10570000C4F89000002084F8840000E00021C8B2B2
:1057100001B0BDE8F083082505622046FFF7A2FD31
:105720000020C4F89050012184F88400EFE70000C5
:105730000148FEF76BBD00BF84020020FEE70000B9
:1057400010B5044C3C212046FEF7D0FB2068002118
:10575000416210BDEC0100200349C2B2CA600A6870
:1057600012F0400FFBD070471C4C00402DE9F8436D
:10577000FCF79AFCFFF72AFBFFF7D4F8FFF7AAF82B
:10578000FFF760F8FFF73AF9FFF76CF9FFF79CF9BC
:10579000FFF702F9FFF7D4FF13484FF0011140F271
:1057A000FF72FBF759F8DFF84480DFF84890124F9A
:1057B000124C134D13A6D8F800000D49D9F800205B
:1057C0000844801AB0FBF1F202FB11022046294680
:1057D0003A60FFF7D7FA304600F038F84FF47A70A5
:1057E000FCF76AFBE7E700BF20000020AC030020C5
:1057F000A0860100B0030020B403002000000024B4
:10580000400D032468656C6C6F0000000A4A09486B
:105810000A4B0168128823F81120094A094B1288A3
:1058200023F811200131084A914208BF002101608C
:10583000704700BFAC0300200600002000000024D9
:105840000A000020400D0324A08601000FB4054B80
:1058500010B503A9044A029800F018F810BC5DF8CE
:1058600014FB0000595700080000002002E008C89F
:10587000121F08C1002AFAD170477047002001E0CA
:1058800001C1121F002AFBD1704700002DE9FF4F14
:1058900089B09B460446002506E025280BD05A46D1
:1058A0000B999047641C6D1C20780028F5D10DB031
:1058B0002846BDE8F08F0027B8460122474900E09E
:1058C000074314F8013F203B02FA03F00842F7D1E6
:1058D00020782E2819D114F8010F47F004072A2840
:1058E0000ED06FF02F022078A0F1300109290CD8DA
:1058F00008EB880102EB410100EB0108641CF2E7B0
:105900000A98641C50F8048B0A9020780028CED0A6
:10591000642808D0692806D075281ED05A460B99ED
:1059200090476D1C58E00A994FF00A0901C90A9185
:10593000002802DA40422D2102E0390504D52B214E
:105940008DF82010012103E0F90704D02021F7E7AA
:105950008A4608AE0DE00021FAE70A994FF00A09DD
:1059600001C90A91F7E74946FAF7F5FC303106F824
:10597000011D0028F7D1ADEB060000F120097807E2
:1059800001D44FF00108C84502DDA8EB090000E092
:1059900000208046002706E008A85A46C05D0B9903
:1059A00090476D1C7F1C5745F6DB04E030205A46BB
:1059B0000B9990476D1CB8F10001A8F10108F5DCC6
:1059C00005E016F8010B5A460B9990476D1CB9F18A
:1059D0000001A9F10109F4DC641C65E70928010054
:1059E0000000000001020304010203040607080985
:1059F000010002000400060008000A000C0010006C
:105A00002000400080000001385A000800000020FB
:105A1000200000006C580008585A000820000020A0
:105A2000980700007C580008585A0008000000241D
:105A3000801A06007C5800080000000001000000E9
:105A40000000000001000000100000000000000045
:085A50000090D0030090D00388
:040000050800029954
:00000001FF
