:020000040800F2
:10000000D80B0024AD0200083F400008013800086A
:100010003D400008AD060008C75C00080000000075
:100020000000000000000000000000001D5100085A
:10003000AF06000800000000414000081F51000802
:10004000C7020008C7020008C7020008C70200086C
:10005000C7020008C7020008C7020008C70200085C
:10006000C7020008C7020008C7020008C70200084C
:10007000C7020008C7020008C7020008C70200083C
:10008000C7020008C7020008C7020008C70200082C
:10009000C7020008C7020008C7020008C70200081C
:1000A000C7020008C7020008C7020008C70200080C
:1000B000C7020008C7020008C7020008C7020008FC
:1000C000C7020008C7020008C7020008C7020008EC
:1000D000C7020008C7020008C7020008C7020008DC
:1000E000C7020008C702000800000000C70200089D
:1000F000C7020008C7020008C7020008C7020008BC
:10010000C7020008C7020008C7020008C7020008AB
:10011000C7020008C7020008C7020008C70200089B
:10012000C7020008C7020008C7020008C70200088B
:10013000C7020008C7020008C7020008C70200087B
:1001400000000000000000000000000000000000AF
:10015000C7020008C7020008C7020008C70200085B
:10016000C7020008C7020008C7020008C70200084B
:10017000C7020008C7020008C7020008C70200083B
:10018000C7020008C7020008C7020008C70200082B
:10019000C7020008C7020008C7020008C70200081B
:1001A000C7020008C7020008C7020008C70200080B
:1001B000C7020008C7020008C7020008C7020008FB
:1001C000C7020008C7020008C7020008C7020008EB
:1001D000C7020008C7020008C7020008C7020008DB
:1001E000C7020008C7020008C7020008C7020008CB
:1001F000C7020008C7020008C7020008C7020008BB
:10020000C7020008C7020008C7020008C7020008AA
:10021000C7020008C7020008C7020008C70200089A
:10022000C7020008C7020008C7020008000000005B
:10023000C7020008C702000800000000C70200084B
:10024000C7020008C7020008C7020008C70200086A
:10025000C7020008C7020008C7020008C70200085A
:10026000C7020008C7020008C7020008C70200084A
:10027000C7020008C7020008C7020008000000000B
:10028000C7020008C7020008C702000800000000FB
:1002900000000000C7020008DFF80CD000F07AF878
:1002A00000480047555E0008D80B002406488047E8
:1002B00006480047FEE7FEE7FEE7FEE7FEE7FEE74B
:1002C000FEE7FEE7FEE7FEE7155200089902000888
:1002D0002DE9F05F0546002092469B46884606467B
:1002E000814640241BE0284641464746224600F00E
:1002F00041F853465A46C01A914110D31146184648
:10030000224600F028F82D1A67EB01084F462246D6
:100310000120002100F01FF817EB00094E41201EBC
:10032000A4F10104DFDC484631462A464346BDE8D5
:10033000F09FD2B201E000F8012B491EFBD27047BA
:100340000022F6E710B513460A4604461946FFF7A1
:10035000F0FF204610BD202A04DB203A00FA02F10B
:10036000002070479140C2F1200320FA03F31943A3
:1003700090407047202A04DB203A21FA02F0002145
:10038000704721FA02F3D040C2F1200291400843A5
:1003900019467047064C074D06E0E06840F001033F
:1003A00094E8070098471034AC42F6D3FFF778FF83
:1003B00050D4000870D40008B0B50446206839490C
:1003C00040F48070884214BF38483748006810F401
:1003D000403F10D002F098F805466068B0F5803FC5
:1003E00005D0B0F5403F22D0B0F5003F20D1000C41
:1003F000B5FBF0F51CE04FF40020002101F0B4F94A
:1004000005466068A0F580214FEAB1410A290FD85E
:10041000DFE801F00606060606063D3F41434500BB
:1004200047F6FE7101EA5040B5FBF0F500E0AD087B
:1004300000F062FE216841F20302904209D8886808
:100440001E4B20F480729D4288BF40F480728A6007
:10045000B0BD1748854204D851F8080F20F4407009
:1004600013E01448854205D851F8080F012262F3C1
:1004700009200AE051F8082F0223104663F30920EF
:100480000D4B9D4228BF42F440700860B0BD2D095D
:10049000CEE76D09CCE7AD09CAE7ED09C8E72D0A3B
:1004A000C6E700BF0021024008230240086302584B
:1004B00021BCBE0041787D0182F0FA02002D31019D
:1004C00070B50446206882688368DB0843EA9202BC
:1004D000D20757D0C368734A13F0007F05D0637DFD
:1004E000012B04BF237D012B04D0022910D102214E
:1004F00008261DE04FF0FF31036813F0400F04D1D0
:10050000214B01319942F7D332E0402101600121B2
:10051000836813F0040F08D0836813F0020F01BF43
:100520008368134043F010038360042601290FD031
:10053000836813F0080F08D0836813F0020F01BF1F
:1005400083681A4042F020028260032908BF0C260B
:1005500000F0D8FD054620688068304212D000F0D7
:10056000D1FD401B0628F6D3206880683042F2D0C7
:10057000606D40F010006065A06D40F00100A06566
:10058000012070BD002070BD00DC0C00B0B5044639
:10059000002021688B688A6813F0020F2DD112F0B9
:1005A000010208BFB0BD886800F00D0001281BD112
:1005B00088683C4A104040F00200886003200860D0
:1005C00000F0A0FD05462068806810F0010F04BF10
:1005D0000020B0BD00F096FD401B0328F3D3206837
:1005E000806810F0010FEED0606D40F01000606583
:1005F000A06D40F00100A0650120B0BDF8B5044633
:100600002068816811F0010F49D18168254E06F1FB
:100610007F02114209D0606D40F010006065A06D4E
:1006200040F00100A06501203AE08168314041F0CE
:100630000101816000F066FD05462068FC491A4F03
:1006400001F5807201F54073904208BF1F46884251
:10065000014608BF1F469042BB6804BF42F200013A
:10066000C4F2020113F01F0F18BF814217D10168B5
:1006700011F0010F13D1816811F0010F01BF8168E2
:10068000314041F00101816000F03CFD411B2068D8
:100690000329ECD3016811F0010FE8D1BBE700207A
:1006A00001B0F0BDC0FFFF7F00630258FEE7704756
:1006B00080B54FF4FA7003F023FBFAE77CB50446EB
:1006C000002016460D46019094F85000012801D1F3
:1006D000022039E0012084F850002046FFF756FF41
:1006E000616D10B141F010012AE041F2021021EADF
:1006F000000005F4803140F00200606506F08040A3
:10070000014320688268114B1A40114341F00041B7
:1007100081608168B1F1FF3F0DDC019901310191E8
:100720000B49019A8A42F4D3606D20F0120040F028
:100730001001012004E0616D012060F3010100203F
:100740006165002184F8501002B070BDC0FFFE3F0B
:1007500000F8C3252DE9FC41044600200D46019018
:1007600094F85000012801D1022329E1012184F8E5
:1007700050102068826812F0040F40F019812A6836
:10078000A64E92FAA2F33242B0464FF01F06B3FAD9
:1007900083F308BF930E03F01F039940C369194305
:1007A000C161696801F01F03C1F3012100EB810100
:1007B0009E400F6BC2F384629A40B7433A430A6388
:1007C00081688268D20842EA9101C9076FD129681D
:1007D000AA6803F0ABFA9248036820686969C268A6
:1007E00003F07043B3F1805F02D102F01C0306E016
:1007F000D2064FF0100258BF1C22C36813402A696A
:10080000042A27D1026E2B6802F0F8429906B2EB57
:10081000836F02BF026E22F000420266426E02F057
:10082000F8428A4202BF426E22F000424266826E65
:1008300002F0F8428A4202BF826E22F000428266D3
:10084000C26E02F0F8428A4202BFC16E21F000413E
:10085000C1662CE0734E06EA530399402B6803F0FF
:10086000F843194300F1600353F8227007F0004782
:10087000394343F822102A69697E53F8227001290E
:1008800027F0004708BF47F0004743F822700022D6
:10089000297E012908BF4FF40062296901F01F0178
:1008A00002FA01F1026922F4F04211430161816808
:1008B00011F0010F41D1D5F800C0EB685A4ED0F8C5
:1008C000C01003F0180746EA0C060CEA080228FAE2
:1008D00007F786EA0806174031403943C0F8C010D0
:1008E00052498B4226D19CFAACF1002A4FF0806726
:1008F000B1FA81F108BF4FEA9C614A1C07EB8161A4
:10090000012702F01E0301F0F84102F01F020A2B3A
:1009100007FA02F728BF41F000710A2B28BF0A3AF4
:10092000394302EB420241EA0251AA6803F0FEF9A0
:10093000D5F800C0BCF1FF3F01DD00233DE0226897
:10094000B94D3C4805F5807105F540738A4219465A
:1009500018BF00F54071AA4208BF19468B68B44E13
:1009600042F48071B14205D1A968D5F8087147EA0F
:10097000010600E08668F1071AD103F0E07619025B
:1009800029D42D498C4526D18242D6D1D0F80813DE
:1009900021F0E071314341F40001C0F80813A04890
:1009A0000068A049B0FBF1F0022101EB40000DE02E
:1009B000606D012340F020006065002084F8500045
:1009C000D8B202B0BDE8F0810198013801900198D9
:1009D0000028F9D1B1E7D9010CD418498C4509D1C7
:1009E0008242AAD1D0F8081321F0E071314341F0DE
:1009F00080710FE059024FF00003DED410498C459E
:100A000008BF8242D9D1D0F8081321F0E0713143F8
:100A100041F48001C0F808138FE700BFFFFF0F000B
:100A20000010005CFEFFFF7F0000F0FF0000FF47AA
:100A30000020024000600258000084CB000052C732
:100A40000000B8CF0068006C70470000F8B504469D
:100A50000020002C009037D0606D30B9204600F0A7
:100A6000F1F80020A06584F85000206882686B4986
:100A700012F0005F1EBF82680A408260826812F036
:100A8000805F13D1826801F18051114041F08051A3
:100A9000816063490968634AB1FBF2F1013101E009
:100AA00000990139009100990029F9D1816811F06C
:100AB000805F0BD1616D012541F010016165A16D71
:100AC00041F00101A16502E00125A3E00025816854
:100AD000C1F38001626D02F010021143616D03D019
:100AE00041F01000012594E021F4817141F00201F0
:100AF0006165816811F0010F20D1F6494B4A4C4ED7
:100B000040F48073B34204D18B68D1F80861334359
:100B100000E01368DB0711D101F5807301F5407621
:100B20009842334618BF02F53E73884208BF3346E9
:100B30006068996821F47C110843986000F0DCFA41
:100B4000A168226B637D41F203060A43102942EA41
:100B50004332237F42EA0342114608BF41F00C01B1
:100B6000B04298BF1146012B01BF206A314A02EB07
:100B700040400143606A20B100F478700843A16AE4
:100B800001432068C2682C4B1A401143C160816840
:100B90008268D20842EA9101C9072CD1217DE26A1C
:100BA00044F2030342EA8131C2689A431143C160AF
:100BB00094F838200169012A10D104F13C0C9CE81A
:100BC0004C101E4F07EB02421D4F39401943114391
:100BD000314341EA0C0141F0010101E021F0010142
:100BE00001610169626B21F070411143016120468E
:100BF000FFF7E2FB2068E268016B21F00F01012A98
:100C000002BFA269013A114301630121606D61F3E2
:100C100001006065284601B0F0BD00BFC0FFFF5F66
:100C200010000024400D030000200240086002581C
:100C3000002102400000FEFF03C0F0FF0000FFFFA4
:100C40001EF800FC10B5B2B0044602A8C021FFF7A0
:100C500077FB20681D4C04F5D951884234D100201F
:100C60004FF40021039002910A210C913C210D9137
:100C70000221CDE90E1110914FF4806111914FF4D2
:100C80000071CDE912104FF480302B9002A800F0D3
:100C900091FE08B1FFF70CFD20684FF0806140F035
:100CA00080702060206800F08070019001982068BA
:100CB00040F004002060206800F0040001900198DA
:100CC0004FF0806002F0D0FA32B010BDE04402581C
:100CD0002DE9F84F04460D4620687E4E7E4906F504
:100CE000807906F54072484508BF1146B04208BFFA
:100CF00011468A6802F01F082269082A02D1B34609
:100D000008270FE0B8F1090F62D8012240F2212331
:100D100002FA08F21A425BD0C06810F0010F5BD1F2
:100D2000B346042700F0EEF982466E1C2068016885
:100D3000394215D1002EF9D000F0E4F91DB1A0EB35
:100D40000A00A842F2D9206800683842EED1606DEE
:100D500040F004006065002084F85000032040E06B
:100D6000616D41F400716165C16811F4406F11D18A
:100D7000617D79B9016811F0080F0BD0616D21F424
:100D800080716165616D11F4805F02BF616D41F03A
:100D900001016165484518BF8346834518BFDB469E
:100DA000B8F1000F08BF8346B8F1050F08BF8346AE
:100DB000B8F1090F08BF8346082FDBF80C1001D1EA
:100DC000082102E0490401D40C210160002008E060
:100DD000886810F4404FA3D0606D40F0200060653B
:100DE0000120C0B201B0BDE8F08F00BFF8B50446E5
:100DF0002068384D384A05F5807605F54071B042D7
:100E000008BF0A46A84208BF0A469768806810F0E3
:100E1000040F03D194F85000012802D1022001B040
:100E2000F0BD012084F850002046FFF7E7FB18B121
:100E3000002184F85010F2E7606D40F6017207F06F
:100E40001F01904340F4807060652068B04218BF75
:100E5000054609B1854203D1626D22F480126265B4
:100E6000636D002213F4805F4FF000031CBFA36D7D
:100E700023F006038542A3654FF01C03036084F84A
:100E8000502008D0092917D8012202FA01F140F2B6
:100E90002122114210D0C16811F0007F1FBF616D87
:100EA000012262F30D31616581680C4A114041F005
:100EB000040181600020B2E7606D40F4801060653D
:100EC000E86810F0007FF5D0606D012161F30D300E
:100ED0006065EFE70020024000630258C0FFFF7F1B
:100EE00010B5044694F85000012804BF022010BD3C
:100EF0000120032184F850002046FFF7E1FA58B999
:100F00002046FFF743FB38B9606D41F20111884379
:100F100040F0010060650020002184F8501010BDF1
:100F200070B505466E1C00F0EDF804461EB19F48F2
:100F30000078054401E04FF0FF3500F0E3F8001BB6
:100F4000A842FAD370BD00BF2DE9FC4F5D4A0A27C5
:100F50004FF0000B4FF0010E4FF0030A4FF00F0956
:100F60004FF0000C904208BF0927574A02444FEA4D
:100F7000B223092B38BF4FEAB227009700270A682F
:100F800032FA07F308BFBDE8FC8F0EFA07F312EA46
:100F9000030400F090804D6805F00302A2F10108FF
:100FA000B8F1010F18D8D0F80890CE680AFA0CF8FA
:100FB00029EA080806FA0CF64FF00F0946EA080677
:100FC0008660C5F3001606FA07F8466826EA0303AA
:100FD00043EA0803436001E0032A1DD0C6680AFA09
:100FE0000CF3022A26EA03038E6806FA0CF643EA9B
:100FF0000603C36010D1354D0BF01C0209FA02F351
:1010000005EA570505442E6A26EA03030E6906FA27
:1010100002F21A432A624D68066805F003020AFAD2
:101020000CF315F4403F02FA0CF226EA030342EAFD
:10103000030202603FD0904A0BF00C0609FA06F555
:10104000136843F002031360126802F00202019277
:10105000019A1F4B27F0030252F8038028EA050883
:10106000009D05FA06F648EA0605D5504FF0B04552
:101070002A684B68A24313F4801F18BF224313F45D
:10108000001F2A60134A156825EA040518BF254386
:1010900013F4003F1560D2F8805025EA040518BF0C
:1010A000254313F4803FC2F88050D56F25EA04052C
:1010B00018BF2543D5670BF1040B0CF1020C013767
:1010C0005DE700BF002402580000FEA7FCFFFF7F81
:1010D00008040058040000580069084018BF0120A7
:1010E0007047002A08BF09048161704704480068FE
:1010F0006FF31F30704700BF01480068000C704755
:101100000010005C29488068704700BF27480178BC
:10111000826811448160704780B5032000F0DAF8DE
:1011200001F032FA0F498E4B0A68C2F303220968B4
:101130009A5C01F00F01595C02F01F02D0400A4A8C
:1011400001F01F0120FA01F1116019490860002027
:1011500000F00CF808B1012080BD00F071F800200B
:1011600080BD00BF184402581400002470B50F4E13
:1011700004463078B0B14FF47A71B1FBF0F00C490D
:101180000968B1FBF0F002F089F801250F2C0AD8AC
:1011900048B94FF0FF3021460022002500F06EF8DC
:1011A000746000E00125284670BD00BF04000024E3
:1011B00010000024427814490A600278FAB1B0B5F0
:1011C00043684B60C57A037B847A90F808C090F836
:1011D00009E02D0645EA037343EAC443447B43EA2E
:1011E0008443847BC07B43EA444343EA004040EAB3
:1011F0000E2040EA4C001043BDE8B04001E0002062
:1012000048608860704700BF98ED00E0BFF35F8FD3
:101210000A48016821F480310160002101677047AC
:10122000064940F001000867086840F48030086013
:10123000BFF34F8FBFF36F8F704700BF24ED00E007
:10124000E0B50D48016841F002010160016801F05C
:10125000020101910199016841F4004101600068B7
:1012600000F400400090009802F008F80220BDE869
:101270008C4002F009B800BFF4440258B0B5144CD9
:101280001A4D00F00F03B0F1FF3FA3F104032B440C
:1012900003F10C03C8BF03192868C0F30220051D21
:1012A000C41E80F00700072D4FF0010538BF002451
:1012B000042828BF042005FA00F00138084005FA88
:1012C00004F10F31A0401140084300011870B0BD77
:1012D00000E400E005494FF6FF030A681A4060F396
:1012E0000A22034810430860704700BF0CED00E07D
:1012F0000000FA05B0B5114D2A68296812F0040FF4
:1013000005D101F00701081A18BF0120B0BD21F076
:10131000070108432860FFF7F5FE044655F8080C5E
:1013200010F4005F1CBF0020B0BDFFF7EBFE001BF8
:10133000B0F57A7F84BF0120B0BDEFE70C480258BA
:1013400080B501F0E1F80549054A0968C1F30211C9
:10135000515C01F01F01C84080BD00BF204402580D
:101360005865000810B5504CD4F828C0A26AE36A4A
:10137000616B03F00103C2F305125B42002A03EA2A
:10138000D1016FF35F3100EE101AB8EE400A20D0A1
:101390000CF00303022B20D0012B22D02BBB02EE3A
:1013A000102A9FED431AB8EE422A216820EE010A66
:1013B00011F0200F61D1216B9FED401A6FF35F2177
:1013C00081EE022A03EE101AB8EE433A30EE031A09
:1013D0001EE00021C0E900114DE0216B9FED332A92
:1013E00006E0216B9FED332A02E0216B9FED332A4B
:1013F00001EE102A6FF35F219FED2D3AB8EE414ABE
:1014000001EE101AB8EE411A82EE042A00EE031A19
:10141000216BB7EE000A31EE001A22EE011AC1F379
:10142000462103EE101AB8EE433A33EE002A81EE5D
:10143000022ABCEEC22A80ED002A216BC1F30641CC
:1014400002EE101AB8EE422A32EE002A81EE022A8B
:10145000BCEEC22A80ED012A216BC1F3066102EEC7
:10146000101AB8EE422A32EE000A81EE000ABCEEF3
:10147000C00A10EE101A816010BD2168C1F3C101CD
:101480000D4A22FA01F1226B03EE101A6FF35F226C
:1014900001EE102AB8EE411AB8EE433A30EE011AC6
:1014A00083EE022AB4E700BF0044025820BCBE4BC2
:1014B000000000390024744A0090D0030024744CCA
:1014C00010B54E4CD4F828C0A26AE36AE16BC3F3AE
:1014D0000013C2F305325B42002A03EAD1016FF325
:1014E0005F3100EE101AB8EE400A20D00CF0030372
:1014F000022B24D0012B1ED0EBB902EE102A9FED57
:10150000411AB8EE422A216820EE010A11F0200F9C
:101510005DD1A16B9FED3E1A6FF35F2181EE022A30
:1015200003EE101AB8EE433A30EE031A1AE0002127
:10153000C0E9001149E0A16B9FED332A02E0A16BE5
:101540009FED2F2A01EE102A6FF35F219FED2D3AB8
:10155000B8EE414A01EE101AB8EE411A82EE042AA2
:1015600000EE031AA16BB7EE000A31EE001A22EE6C
:10157000011AC1F3462103EE101AB8EE433A33EED6
:10158000002A81EE022ABCEEC22A80ED002AA16B5D
:10159000C1F3064102EE101AB8EE422A32EE002ADA
:1015A00081EE022ABCEEC22A80ED012AA16BC1F3B2
:1015B000066102EE101AB8EE422A32EE000A81EEFF
:1015C000000ABCEEC00A10EE101A816010BD21683E
:1015D000C1F3C1010D4A22FA01F1A26B03EE101A08
:1015E0006FF35F2201EE102AB8EE411AB8EE433ACB
:1015F00030EE011A83EE022AB4E700BF004402581D
:1016000020BCBE4B000000390024744A0090D00377
:101610000024744C10B54E4CD4F828C0A26AE36A7A
:10162000616CC3F30023C2F305525B42002A03EA54
:10163000D1016FF35F3100EE101AB8EE400A20D0EE
:101640000CF00303022B24D0012B1ED0EBB902EEC9
:10165000102A9FED411AB8EE422A216820EE010AB5
:1016600011F0200F5DD1216C9FED3E1A6FF35F21C9
:1016700081EE022A03EE101AB8EE433A30EE031A56
:101680001AE00021C0E9001149E0216C9FED332AE6
:1016900002E0216C9FED2F2A01EE102A6FF35F21EB
:1016A0009FED2D3AB8EE414A01EE101AB8EE411AFC
:1016B00082EE042A00EE031A216CB7EE000A31EE26
:1016C000001A22EE011AC1F3462103EE101AB8EEF9
:1016D000433A33EE002A81EE022ABCEEC22A80EDA4
:1016E000002A216CC1F3064102EE101AB8EE422A1C
:1016F00032EE002A81EE022ABCEEC22A80ED012AD7
:10170000216CC1F3066102EE101AB8EE422A32EEE5
:10171000000A81EE000ABCEEC00A10EE101A8160C9
:1017200010BD2168C1F3C1010D4A22FA01F1226CFA
:1017300003EE101A6FF35F2201EE102AB8EE411A81
:10174000B8EE433A30EE011A83EE022AB4E700BF46
:101750000044025820BCBE4B000000390024744AEB
:101760000090D0030024744CF0B589B002468C4D33
:1017700082F4002008438B488B4F8C4E8C4B00F03A
:10178000728082F400740C4330D082F480640C4385
:1017900000F0758082F400640C4334D082F48054ED
:1017A0000C4300F0778082F400540C4300F0A980D1
:1017B00082F480440C4331D082F400440C433BD08B
:1017C00082F480340C4345D082F48072114340F09F
:1017D000DF80196D01F00701042900F2D980DFE8EC
:1017E00011F064006D009D00D8007600196DC1F302
:1017F0008211042900F2CC80DFE811F0570060006C
:101800009000CB006900996DC1F30261042900F2D8
:10181000BF80DFE801F04A5383BE5C00986DC0F3DF
:101820000270052800F2B480DFE800F00381969F83
:10183000A98AFFF785FDACE0186D00F04050B0F1CB
:10184000005F00F07480B0F1805F2ED0002800F0BF
:1018500077809DE0D96C186811F4803F40F0758066
:10186000800126D494E0986D00F44030B0F5003F3C
:101870002DD0B0F5803F00F08780F8B188E0996DF9
:10188000C1F34251042900F28380DFE801F00E1712
:1018900047822000196DC1F30231042900F27880DB
:1018A000DFE801F0030C3C771500186810F0007FAA
:1018B0006ED006A8FFF756FD07986AE0186810F08A
:1018C000006F65D003A8FFF7FBFD039861E0D96CBA
:1018D0001A68186811F0405102D112F0040249D17F
:1018E000B1F1805F03D110F48070284651D118689F
:1018F00010F4003018BF3846B1F1005F18BF002067
:1019000047E0186DC0F30240052841D8DFE800F039
:10191000030F242D371800F017FE3AE0186810F076
:10192000005F35D06846FFF775FE009831E0186813
:1019300010F0006F2CD003A8FFF7C2FD049828E038
:101940001868800307EAE07023E0000120D503A8AF
:10195000FFF7B6FD05981CE0186810F0005F17D07F
:101960006846FFF757FE019813E0186810F0040F5F
:101970000ED01868C0F3C10026FA00F009E018681C
:10198000C00505EAE07004E0186810F0005F02D1BD
:10199000002009B0F0BD6846FFF73CFE0298F8E76A
:1019A00000093D000080BB0040787D010090D0031D
:1019B000004402582DE9F0470446E078A84F00079C
:1019C00022D5A06E4FEA3051032908D8DFE801F094
:1019D00002090F17F96941F40031F9610FE001269E
:1019E00013E004F10800022102F02CFB04E004F1F2
:1019F0002800022102F0ACFB064636B9A06E396C15
:101A000021F440110843386400266078BA46C007C4
:101A100001D1354628E0A06D04280BD83546DFE813
:101A200000F0030C12181800F869354640F4003035
:101A3000F8610EE00125012717E004F108000021FC
:101A400002F000FB04E004F12800002102F080FB1A
:101A50000546002D2F4608D152460025106CA16D79
:101A600020F007000843106437466078800729D5C6
:101A7000E06D4FEAB01004280AD8DFE800F0030C4C
:101A8000121818005146C86940F40030C8610EE0D1
:101A90000125012617E004F10800002102F0D2FA26
:101AA00004E004F12800002102F052FB0546002D5D
:101AB0002E4608D152460025106CE16D20F4E070EE
:101AC000084310643E466078400702D4B04657464B
:101AD0002CE0D4F8A80057464FEA7050042809D8E3
:101AE000DFE800F0030C12181800F86940F4003029
:101AF000F8610FE001254FF0010817E004F108003C
:101B0000002102F09FFA04E004F12800002102F015
:101B10001FFB0546002DA84608D1B86CD4F8A810C4
:101B20000025B04620F460000843B86460780007E0
:101B30002AD5D4F8AC004FEA3060042809D8DFE891
:101B400000F0030B11171700F86940F40030F8613A
:101B50000EE00125012718E004F10800002102F041
:101B600071FA04E004F12800002102F0F1FA0546C0
:101B7000002D2F4609D152460025906CD4F8AC10A8
:101B800020F0E060084390644746E078800722D563
:101B9000E06C4FEA3010032809D8DFE800F01102AA
:101BA0000B115146C86940F40030C86108E00125B6
:101BB000012611E004F10800022102F043FA054673
:101BC000002D2E4608D152460025D06BE16C20F046
:101BD00030000843D0633E466078C00629D5206EA9
:101BE0004FEA303004280AD8DFE800F0030C12185E
:101BF00018005146C86940F40030C8610EE0012564
:101C0000012717E004F10800002102F01BFA04E0AC
:101C100004F12800002102F09BFA0546002D2F4612
:101C200008D152460025106C216E20F4E040084394
:101C3000106437466078800625D5606E4FEA3040E4
:101C400005280AD8DFE800F014030E14141404F178
:101C50000800012102F0F6F909E00125012613E050
:101C60001044025804F12800012102F071FA0546DF
:101C7000002D2E4608D152460025106C616E20F4CE
:101C8000E020084310643E466078400625D5D4F82D
:101C9000B0004FEA307005280AD8DFE800F01203E0
:101CA0000C12121204F10800012102F0CBF907E036
:101CB0000125012712E004F12800012102F048FA71
:101CC0000546002D2F4609D152460025906CD4F8C8
:101CD000B01020F0E040084390643746607800067A
:101CE0001ED5206F88B1B0F1005F08D0B0F1805FE1
:101CF0002AD15146C86940F40030C86105E004F1BA
:101D00000800012102F09EF90546002D2E4608D15B
:101D100052460025106C216F20F04050084310649B
:101D20003E46E078C00702D1B046574624E0A06C9A
:101D3000574603280BD8DFE800F014020E14F869A8
:101D400040F40030F8610CE001250126E9E70125A7
:101D50004FF0010810E004F10800022102F072F9CE
:101D60000546002DA84607D1F86BA16C0025B046AA
:101D700020F003000843F863A078400601D44746EA
:101D800018E0D7F8F00340F48070C7F8F003FFF7CD
:101D9000B9F90646D7F8F00310F4807F07D1FFF7B2
:101DA000B1F9801B6428F5D90325032702E0002D33
:101DB0002F4612D02078C0074ED0E06F4FEAF000D7
:101DC000052835D8DFE800F03D03373D3D3D04F1FF
:101DD0000800012102F036F932E05346196ED4F8BA
:101DE000B400414011F4407F0BD0196E1A6E42F4DA
:101DF000803221F440711A661A6E22F480321A661B
:101E00001966B0F5807F40F05A82FFF77BF90646ED
:101E100041F28839032503275346186E10F0020F4C
:101E200040F04B82FFF76EF9801B4845F4D9C1E7BB
:101E30000125012611E004F12800012102F088F9B2
:101E40000546002D2E4608D152460025506CE16F04
:101E500020F03800084350643E462078800721D5A2
:101E6000A06F05280AD8DFE800F012030C12121246
:101E700004F10800012102F0E5F807E0012501273F
:101E800011E004F12800012102F062F90546002D5D
:101E90002F4608D152460025506CA16F20F0070054
:101EA0000843506437462078400723D5D4F894007F
:101EB00005280AD8DFE800F012030C12121204F110
:101EC0000800012102F0BEF807E00125012612E01A
:101ED00004F12800012102F03BF90546002D2E46B1
:101EE00009D152460025906CD4F8941020F00700D8
:101EF000084390643E462078800625D5D4F89000AB
:101F00004FEA307005280AD8DFE800F012030C12FF
:101F1000121204F10800002102F094F807E00125F4
:101F2000012712E004F12800022102F011F9054610
:101F3000002D2F4609D152460025506CD4F8901040
:101F400020F0E0400843506437462078400625D50D
:101F5000D4F89C004FEAB02005280AD8DFE800F04A
:101F600012030C12121204F10800002102F06AF8A8
:101F700007E00125012612E004F12800022102F009
:101F8000E7F80546002D2E4609D152460025906CF3
:101F9000D4F89C1020F4E050084390643E4620782A
:101FA000000625D5D4F8A0004FEA703005280AD8DD
:101FB000DFE800F012030C12121204F108000021F5
:101FC00002F040F807E00125012712E004F12800A3
:101FD000022102F0BDF80546002D2F4609D15246D8
:101FE0000025906CD4F8A01020F460400843906461
:101FF0003746206810F0080F15D0D4F88410B1F5DA
:10200000805F0AD104F12800022102F0A1F8002823
:1020100018BF01272068D4F8841053465A6C22F464
:10202000405211435964C10615D5D4F89810B1F542
:10203000807F0AD104F12800022102F089F80028EB
:1020400018BF01272068D4F8981053469A6C22F4E0
:10205000407211439964000320D5D4F8A400B0F570
:10206000003F0FD0B0F5803F06D068BB04F10800F8
:10207000002101F0E7FF04E004F12800022102F052
:1020800067F80546002D2E4609D152460025906C72
:10209000D4F8A41020F44030084390643E46A07861
:1020A000400726D5D4F88800B0F5401F15D0B0F50C
:1020B000001F0CD0B0F5801F40F0FA805146C8696F
:1020C00040F40030C86108E001250126E7E704F18B
:1020D0002800012102F03CF80546002D2F4609D1C9
:1020E00052460025506CD4F8881020F44010084364
:1020F00050643746A078C00701D13E461EE0206DEF
:10210000B0F5803F06D0B8B95146C86940F40030F8
:10211000C86105E004F10800022101F093FF0546C3
:10212000002D2E460AD152460025D06B216D20F499
:1021300080300843D063E0E701250126216811F0D3
:10214000005F01D1606809E004F12800022101F07C
:10215000FFFF002818BF0126D4E900108A031BD511
:10216000D4F880206FF0010303EB3223022B0BD352
:102170004FEA322343B1012B40F09D80DAF81C3046
:1021800043F40033CAF81C303DB9DAF8443023F484
:1021900040731A43CAF844203546CA0207D5DAF814
:1021A0004020636F22F000421A43CAF84020CA0060
:1021B00008D5DAF80020D4F8B83022F480421A4367
:1021C000CAF800208A0207D5DAF84020E36E22F030
:1021D00080721A43CAF840204A000CD5DAF8002071
:1021E00022F40042CAF80020D4F8BC20DAF800300B
:1021F0001A43CAF80020B1F1FF3F07DCDAF83C20AF
:10220000636D22F040521A43CAF83C20090208D5F7
:10221000DAF84410D4F88C2021F440011143CAF8B4
:102220004410C10708D004F10800002101F00AFFA2
:10223000002818BF05466068810708D504F108002A
:10224000012101F0FFFE002818BF05466068410724
:1022500008D504F10800022101F0F4FE002818BF9F
:1022600005466068010708D504F12800002101F047
:102270006FFF002818BF05466068C10608D504F145
:102280002800012101F064FF002818BF054660689E
:10229000800607D504F12800022101F059FF00282B
:1022A00018BF0546002D18BF01252846BDE8F08758
:1022B000012501271EE701256FE7D4F8B40019684E
:1022C00000F440720025B2F5407F21F47C5102BF3A
:1022D000054A02EA101211436FF31F301960196E9C
:1022E000084318664BE500BFCFFFFF002DE9F84318
:1022F00004468846002C00F0FE80814B186800F0F0
:102300000F0040450BD2186820F00F0040EA08008B
:102310001860186800F00F00404540F0EC8020681D
:10232000E44F10F0040F0AD02169BA6902F070027C
:10233000914281BFBA6922F070021143B96101076D
:102340000AD56169FA6902F07002914281BFFA69A7
:1023500022F070021143F961C1060AD5A169FA6938
:1023600002F4E062914281BFFA6922F4E062114313
:10237000F96181060AD5E1693A6A02F07002914278
:1023800081BF3A6A22F070021143396281070AD58F
:10239000E168BA6902F00F02914281BFBA6922F086
:1023A0000F021143B961C10738D0B869A16820F4A0
:1023B00070600843B8616068032806D0022809D11C
:1023C000396811F4003F0ED195E0396811F0007FB3
:1023D00009D190E03968012802D1C90503D48AE007
:1023E000490740F188803969994621F0070108437F
:1023F0003861FEF787FE064641F288353869616824
:1024000000F03800B0EBC10F06D0FEF77BFE801B5A
:10241000A842F3D903206FE020684B4681070AD514
:10242000E168BA6902F00F0291423FBFBA6922F037
:102430000F021143B961196801F00F0141450AD932
:10244000196821F00F0141EA08011960196801F0CB
:102450000F0141454FD141070AD52169BA6902F000
:10246000700291423FBFBA6922F070021143B96114
:1024700001070AD56169FA6902F0700291423FBF13
:10248000FA6922F070021143F961C1060AD5A16907
:10249000FA6902F4E06291423FBFFA6922F4E06215
:1024A0001143F96180060AD5E069396A01F07001CB
:1024B00088423FBF396A21F070010843386200F05A
:1024C00063F8B9692F4AC1F30321515C01F01F0180
:1024D000C840B96901F00F01515C194A01F01F01B0
:1024E00020FA01F111601749086006480068BDE84C
:1024F000F443FEF73BBE0120C0B201B0BDE8F0835B
:10250000002000520800002480B500F03DF80B497F
:102510001C4B0A68C2F303229A5C02F01F0220FAE5
:1025200002F20868064900F00F00185C00F01F0076
:1025300022FA00F0086003490A6080BD184402587E
:10254000140000241000002480B5FFF7DDFF0C49C3
:102550000C4A0968C1F30211515C01F01F01C84027
:1025600080BD00BF80B5FFF7CFFF0549054A096868
:10257000C1F30221515C01F01F01C84080BD00BFC2
:102580001C440258586500084A490869C0F3C20350
:1025900049484A4A032B10D0022B04BF48487047D1
:1025A00053B9086810F0200F10461FBF0868C0F329
:1025B000C10022FA00F07047704780B5D1F828C0FA
:1025C000D1F828E0CB6A486B03F001035B4203EAD1
:1025D000D003CEF305106FF35F33002800EE103AFE
:1025E000B8EE400ABDE8804004BF002070470CF000
:1025F0000303022B20D0012B1AD0CBB902EE100A14
:102600009FED311AB8EE422A086820EE010A10F058
:10261000200F39D1086B9FED2E1A6FF35F2081EEEA
:10262000022A03EE100AB8EE433A30EE031A16E01F
:102630000A6B9FED262A02E00A6B9FED222A01EE2B
:10264000100A6FF35F229FED203AB8EE414A01EE87
:10265000102AB8EE411A82EE042A00EE031A086B23
:10266000B7EE000A31EE000A22EE000AC0F346205F
:10267000013001EE100AB8EE411A80EE010ABCEEFC
:10268000C00A10EE100A70470868C0F3C10022FAB1
:1026900000F00A6B03EE100A6FF35F2201EE102ABE
:1026A000B8EE411AB8EE433A30EE011A83EE022A30
:1026B000D5E700BF0044025800093D000090D00358
:1026C00040787D0120BCBE4B000000390024744AD4
:1026D0000024744CF8B50446002C00F09D8120784D
:1026E000CE4EC0074CD03169B06A01F038011029D4
:1026F00015D0182904BF00F0030002280FD060682D
:10270000A0B1B0F5803F06D03168B0F5A02F23D13D
:1027100041F480203060306840F4803022E030683E
:1027200010F4003F2CD0606850BB75E1306820F495
:1027300080303060306820F480203060FEF7E2FCAA
:102740000546306810F4003F1AD0FEF7DBFC411B51
:1027500003206429F5D94BE221F4803030603068E1
:1027600020F480203060FEF7CDFC0546306810F480
:10277000003F05D1FEF7C6FC401B6428F6D962E194
:102780002078800760D53169B06A11F0380118D01F
:10279000182908BF5FEA807013D0E0683168E0B3A1
:1027A00021F0190108433060FEF7ACFC05463068A3
:1027B00010F0040F20D1FEF7A5FC401B0228F6D92B
:1027C00041E13168E06811F0040F02D0002800F008
:1027D0002381316821F0190108433060FEF792FC33
:1027E0000546306810F0040F06D1FEF78BFC411B44
:1027F00003200229F5D9FBE1FEF77EFC216941F2B5
:10280000030290421AD80803402908BF4FF4003051
:10281000716821F47C31084315E021F0010030603B
:10282000FEF770FC0546306810F0040F0CD0FEF780
:1028300069FC411B03200229F5D9D9E1706820F019
:10284000FE4040EA016070602078C00644D53169DE
:10285000B06A01F0380108291BD0182904BF00F024
:102860000300012815D0E1693068002900F01C81BF
:1028700040F080003060FEF745FC0546306810F4FB
:10288000807F0ED1FEF73EFC411B03200229F5D9C3
:10289000AEE1306810F4807F1CBFE069802840F012
:1028A000BB80FEF729FC216A41F2030290420BD85B
:1028B0008A062029304608BF4FF0804250F8041F96
:1028C00021F0F841114306E0304650F80C2F22F079
:1028D0007C5242EA016101602078000723D56169DA
:1028E000706F79B140F001007067FEF70BFC054690
:1028F000706F10F0020F16D1FEF704FC401B022887
:10290000F6D9A0E020F001007067FEF7FBFB05465A
:10291000706F10F0020F06D0FEF7F4FB411B03208E
:102920000229F5D964E12078800623D5A1693068B1
:1029300079B140F480503060FEF7E4FB0546306822
:1029400010F4005F16D1FEF7DDFB401B0228F6D91C
:1029500079E020F480503060FEF7D4FB0546306803
:1029600010F4005F06D0FEF7CDFB411B03200229C7
:10297000F5D93DE12078400752D4676A002F00F076
:102980001E81306900F0380018286DD1B16A306BB3
:10299000012F41D0A26A01F0030393423CD1E26AC5
:1029A000C1F30511914237D1226B01466FF35F21CC
:1029B000013A914230D1C0F34621626B013A914213
:1029C0002AD1C0F30641A26B013A914224D1C0F34F
:1029D0000660E16B013988421ED1706BA16CC0F3B7
:1029E000CC00814200F0EB80F06A20F00100F06240
:1029F000FEF788FB0546FEF785FBA842FBD0706B0F
:102A00004FF6F8718843A16C40EAC1007063F06A28
:102A100040F00100F062D2E00120E9E000440258F9
:102A2000D6F8000440F48070C6F80004FEF76AFB94
:102A30000546D6F8000410F4807F06D1FEF762FB4D
:102A4000401B6428F5D90320D2E0A068F0B3012828
:102A500006D0316F052840F0B48041F004003067A3
:102A6000306F40F00100B2E0306820F080703060DC
:102A7000FEF748FB0546022F0AD1306810F0007FB0
:102A80003DD0FEF73FFB411B03200229F5D9AFE003
:102A9000306810F0007F00F09280FEF733FB411B9E
:102AA00003200229F4D9A3E020F080003060FEF773
:102AB00029FB0546306810F4807F3FF40DAFFEF728
:102AC00021FB411B03200229F4D991E0306F20F053
:102AD00001003067306F20F004003067FEF712FB12
:102AE000054641F28837306F10F0020F3FF445AFD2
:102AF000FEF708FB411B0320B942F4D978E0B06A25
:102B000040F2F33104F130034FF47E478843D4E9B7
:102B10000A12084340EA0210B0620FCB07EB4121D2
:102B200000F2FF1089B26FF35F2008434FF4FE01FB
:102B300001EB024101F4FE0108434FF0FE4101EBBD
:102B4000036101F0FE4108434FF6F8713063F06A0B
:102B500020F00100F062706B8843A16C40EAC10074
:102B60007063F06A216C20F00C000843F062F06A98
:102B7000616C20F002000843F062F06A40F480309B
:102B8000F062F06A40F40030F062F06A40F48020B5
:102B9000F062F06A40F00100F062306840F080704E
:102BA0003060FEF7AFFA0446306810F0007F06D1BF
:102BB000FEF7A8FA011B03200229F5D918E000202E
:102BC00016E021F001003067306F20F0040030671C
:102BD000FEF798FA054641F28837306F10F0020F81
:102BE0007FF4CBAEFEF78EFA411B0320B942F4D935
:102BF000C0B201B0F0BD0000F8B50446002C55D0BD
:102C00000020A06220686149884208D0604988425B
:102C10001CBF6049884202D0E1680F2946D8E168AC
:102C2000E26B0123083103EB5212C9084A435849A9
:102C3000564B984204D0574B984218BF884233D124
:102C4000524B98421CBF534B984202D1102A04D9D0
:102C50002CE0112A01D3884228D094F8811031B990
:102C6000002084F88000204600F096F820680221B9
:102C700084F88110016821F0010101608368A26974
:102C8000616803F4F81EB2F1806F19D181B1B1F51A
:102C9000800F15D1A36B7BB101F48001012383EA7E
:102CA000915C4FF4800113E0082AC9D9012068E043
:102CB000A36BB3F1805F66D1036843F48053036074
:102CC0004B0203D4E3684FF0010C0AE04FF0000C14
:102CD000E368072B05D30568266D25F48075354319
:102CE00002E0056825F4807505600029E569A66A9B
:102CF000E76B45EA0E0546EA050647EA060743EA9A
:102D000007038360636B676A43EA0703A76B43EAC1
:102D1000070342EA0302A368D4E90476256A42EA7B
:102D2000070242EA0602D4E9127642EA050242EAC2
:102D3000010242EA060242EA0302A36D42EA0702E6
:102D400042EA0302C26009D18168012262F3CC2108
:102D500002228160816862F34A218160016DBCF1C9
:102D6000000F21F00101016505D1C168626D21F0FC
:102D700000411143C16000200121C4F8840084F89F
:102D8000811001B0F0BD00219CE700BF0038004079
:102D9000003C00400030014010B5B8B0044633A8F4
:102DA0001421FDF7CDFA02A8C021FDF7C9FA206869
:102DB000184988422CD100244FF40050039402900B
:102DC00002A81B94FEF7F6FD08B1FDF771FC12484E
:102DD000016941F400510161016901F4005101915F
:102DE0000199016841F01001016033A9006800F009
:102DF0001000019001984FF4A04033900220CDE9DB
:102E0000340401203690052037900448FEF79CF8E2
:102E100038B010BD00340140E044025800100258A0
:102E20002DE9F04104461D4617460E4694F88000F1
:102E300001282AD0012084F88000FEF763F980463B
:102E400094F8810001281DD11EB317B3042084F823
:102E500081000020C4F884006666A4F86870A4F8B5
:102E60006A70E065A4F86000A4F86200C4E91C0080
:102E7000A1682068B1F5C02F10D1016821F400616C
:102E8000016010E0002084F880000220C0B2BDE89C
:102E9000F081002084F880000120F7E7C168022259
:102EA00062F35241C16041684FF6FF72914339436A
:102EB0004160016841F0010101606168B1F5800F76
:102EC00002BF016841F400710160E068102827D357
:102ED00048F208066F1CB4F86A00002872D0206817
:102EE0004169314209D0006B616E01C16166B4F87D
:102EF0006A000138A4F86A00EDE7FEF703F9A0EBD9
:102F000008003946A8424FF0000028BF0120002FDA
:102F100018BF0121002D64D008400128DBD160E0FA
:102F20006E1C072822D849E02068416911F0010F82
:102F300012D1FEF7E7F8A0EB08003146A8424FF0A7
:102F4000000028BF0120002E18BF0121002D48D00D
:102F5000084001280AD144E0008E616E21F8020B7E
:102F60006166B4F86A000138A4F86A00B4F86A002F
:102F70000028D9D126E02068416911F0010F11D154
:102F8000FEF7C0F8A0EB08003146A8424FF0000061
:102F900028BF0120002E18BF012115B308400128C9
:102FA0000CD11EE090F83000616E0870606E013048
:102FB0006066B4F86A000138A4F86A00B4F86A00E0
:102FC0000028D8D1204601F04BF9002084F8800079
:102FD000012084F88100D4F88400002818BF012063
:102FE00054E7204601F03CF9002084F88000D4F832
:102FF000840040F48070C4F88400012084F88100CB
:10300000032043E72DE9F84304461D4617460E46C4
:1030100094F8800001282AD0012084F88000FEF76F
:1030200071F8804694F8810001281DD126B31FB3A2
:10303000032084F881000020C4F88400E665A4F829
:103040006070A4F862706066A4F86800A4F86A0072
:10305000C4E91C00A1682068B1F5C02F11D1016836
:1030600041F40061016011E0002084F8800002203A
:10307000C0B201B0BDE8F083002084F880000120D8
:10308000F6E7C168012262F35241C16041684FF620
:10309000FF726E1C914339434160016841F00101A8
:1030A00001606168B1F5800F02BF016841F40071F1
:1030B0000160E068102826D207285ED94FF6FE7717
:1030C00056E02068416911F0020F13D1FEF71AF89B
:1030D000A0EB08003146A8424FF0000028BF0120B5
:1030E000002E18BF0121002D00F0AC8008400128FF
:1030F00009D1A7E0E16D04C90262E165B4F862009C
:103100000138A4F86200B4F862000028D9D17EE04A
:103110002068416911F0020F12D1FDF7F3FFA0EB17
:1031200008003146A8424FF0000028BF0120002EC1
:1031300018BF0121002D00F08580084018D081E0E3
:10314000B4F86210022909D3E16B39B1E16D04C909
:103150000262E165B4F86200384407E0E16D31F8DD
:10316000022B0284E165B4F862000138A4F8620021
:10317000B4F862000028CBD149E04FF6FC774FF657
:10318000FE7940E02068416911F0020F11D1FDF78E
:10319000B9FFA0EB08003146A8424FF0000028BF5D
:1031A0000120002E18BF0121002D4BD008402AD04D
:1031B00048E0B4F86210042924BFE16B412919D218
:1031C000B4F8621002290AD3E16B41B1E16D31F824
:1031D000022B0284E165B4F86200484411E0E16D1D
:1031E000097880F82010E06D0130E065B4F86200E5
:1031F000013806E0E16D04C90262E165B4F86200DD
:103200003844A4F86200B4F862000028BAD120461D
:103210002946424601F07FF828B1D4F8840040F0F6
:103220002000C4F88400204601F01AF8002084F839
:103230008000012084F88100D4F88400002818BFA1
:10324000012015E7204601F00BF8002084F88000EB
:10325000D4F8840040F48070C4F88400012084F81D
:103260008100032004E70000034A136823EA0000FA
:1032700008431060704700BF040400580648016806
:1032800021F001010160704703490A6822F002023F
:1032900010430860704700BF003C0058411E0020EA
:1032A000B0EB116F1CBF01207047044AF02351603E
:1032B00003490B70072190601160704710E000E037
:1032C00023ED00E090F83C20012A01D102213BE0EF
:1032D00070B5012280F83C20D1E900C3D1E902E2B7
:1032E0001A4C234022F47C522EF4705422431A4389
:1032F0002CF477231A430B6923F476231A434B6982
:103300001A438B6A22F4742223F470231A438B69C4
:1033100042EA03430268644D42F48064AC420DD13A
:10332000D1E90754496A0A4E23F07C7306EA015139
:10333000194325F00073194341EA04030021536443
:1033400080F83C10BDE87040C8B27047FF87F0FFBE
:103350000000F0FC90F83C300222012B3DD010B56B
:10336000012380F83C3080F83D2002685368D2F891
:1033700008C04D4C42F4806EA64502BF4C6823F451
:1033800070032343B2F1804F0C6823F0700343EACB
:1033900004035360BDE8104014D03E4B9A421CBF5A
:1033A0003D4B9A420ED03D4B9A421CBF3C4B9A4239
:1033B00008D0A34B9A421CBF3A4B9A4202D03A4BD8
:1033C0009A4204D189682CF080031943916001214D
:1033D000002280F83D1080F83C20D0B2704700BF3A
:1033E00039B10322082908BF0222042908BF01229B
:1033F00000E00022024492F84420012A1CBF012070
:103400007047022241B1082909D0042914BF80F86D
:10341000472080F8452004E080F8442001E080F84F
:10342000462001F01F0104228A400168086AB1F1B8
:10343000804F20EA02000862086A40EA020008623F
:10344000486C40F40040486414D0124881421CBFCC
:10345000114881420ED0114881421CBF1048814260
:1034600008D0774881421CBF0E48814202D00E48E6
:10347000814209D188680D4A02400020062A18BFFF
:10348000B2F5803F00D17047086840F00100086045
:10349000002070470004004000080040000C00407D
:1034A00000180040004001400004014007000100F6
:1034B00010B586B0044601A81421FCF741FF20682E
:1034C0005F49884217D1CC48016841F01001016082
:1034D00001A9006800F01000009000984FF480608F
:1034E0000190022002900020CDE903000120059008
:1034F0000248FDF729FD06B010BD00BF00100258BC
:10350000B0B504460D4694F83C00012801D10220D4
:1035100052E04FEAB2010120052984F83C0048D866
:10352000DFE801F0030B131B23332068294601F069
:1035300005FF206850F8181F1EE02068294601F09A
:1035400045FF206850F8181F26E02068294601F042
:103550007FFF206850F81C1F0EE02068294601F00C
:10356000BBFF206850F81C1F16E02068294601F0B8
:10357000E5FF206850F8541F41F008010160016820
:1035800021F00401016029690FE02068294602F05A
:1035900007F8206850F8541F41F400610160016889
:1035A00021F4806101602969090202681143016008
:1035B0000020002184F83C10C0B2B0BD10B5044614
:1035C00054B394F83D0028B9002084F83C0020460C
:1035D00000F024F80220211D84F83D00206801F04D
:1035E00053FE012084F8480084F83E0084F83F0030
:1035F00084F8400084F8410084F8420084F84300D5
:1036000084F8440084F8450084F8460084F84700B4
:1036100084F83D00002010BD012010BD006808495D
:10362000884218BF704781B00648016841F0010127
:103630000160006800F001000090009801B0704740
:1036400000000140F044025890F88410012901D193
:10365000022112E02421C0F8881002681368116862
:1036600021F0010123F00053116000214166136035
:103670002022C0F8882080F88410C8B27047B0B506
:10368000044694F88400012801D102201BE00120A7
:1036900084F884002420C4F8880020680568026843
:1036A00022F001020260826822F0606211438160B0
:1036B000204601F0B1FF206805602020C4F8880092
:1036C000002084F88400C0B2B0BDB0B5044694F8C0
:1036D0008400012801D102201BE0012084F884002D
:1036E0002420C4F8880020680568026822F00102DE
:1036F0000260826822F0604211438160204601F03E
:103700008BFF206805602020C4F88800002084F822
:103710008400C0B2B0BD10B50446ACB1D4F8880086
:1037200028B9002084F88400204600F027F82420DF
:10373000C4F888002068016821F00101016020467A
:1037400002F08AF8012801D1012010BDA06A10B151
:10375000204601F08FFF2068416821F490414160CC
:10376000816821F02A018160016841F00101016056
:103770002046BDE8104001F0E7BF000010B5B8B02A
:10378000044633A81421FCF7DBFD02A8C021FCF796
:10379000D7FD2068174988422AD1002401200394CC
:1037A000029002A82194FEF705F908B1FCF780FF0A
:1037B0001148016941F010010161016901F0100136
:1037C00001910199016841F00101016033A900688C
:1037D00000F00100019001984FF4C0603390022086
:1037E000CDE934040720369437900448FDF7ACFB4C
:1037F00038B010BD00100140E044025800000258EB
:10380000FEE7000070B52DED048B194E0C46002C20
:103810003168896B29D0814227D000EE101A01EE61
:10382000100AB8EE408AB8EE410A01EE104AB8EE2E
:10383000411A30EE480A80EE019AFDF763FC054616
:103840000120FDF76DFBFDF75DFC401B3168B0EE1C
:10385000481A00EE100AA042B8EE400A09EE001A1B
:10386000BCEEC10A81ED0E0AEAD3BDEC048B70BD3B
:10387000F40600242DE9F04F03AF8DB01D46DFF8AC
:1038800040A44FF008088B468146072114460C2DB2
:1038900008BF4FF0060847F838DC18FB05F001EBCD
:1038A000400043F6F8715646084036F8281BADEB49
:1038B000000047F81C0C47F8201C8546A7F11801AA
:1038C000304600F06DFFA7F11401304600F06EFFA6
:1038D000A4F1200047F8349CC2B2B86947F82C2CF8
:1038E000002866D0BAF8000057F8146C00215C4636
:1038F000CA464FF0000C00BA000C47F8240C57F8E9
:10390000180C47F83C0C6B4800EB021047F8300CE1
:103910004BE002EB4200664A0C2D02EB800057F8A8
:10392000302C02EB010308BF431847F8281CC1F3F1
:10393000460093F800E00023D9B207292ED81EF0E4
:10394000800F0BD057F81C2C1FFA8CF108FB01F1EB
:1039500002EB410157F8242C21F810200CF1010C46
:1039600001341FFA8CF11FFA84F9A94228BF4FF0E5
:10397000000C4E4540F290805FFA8EF1A9EB0B02ED
:1039800001334FEA410EAA42D6D157F83C1C5046AB
:103990005C460130824680B281427DD957F8281CAE
:1039A00057F8349C57F82C2C0131A942B1D3C448A4
:1039B00068E057F8180C534657F8146C00214FF084
:1039C000000CB3F802A047F83C0C3A4800EB021098
:1039D00047F8280C4846D94647F8300C18464DE0C1
:1039E00002EB4200324A0C2D02EB800057F8282CE3
:1039F00002EB010308BF431847F8241CC1F3460E2D
:103A000000201C78C3B2072B32D8AD4A14F0800FC7
:103A100057F8203C09F1010908BF534657F81C1C10
:103A20005BBA13801FFA8CF20CF1010C08FB02F256
:103A300001EB420222F81E301FFA8CF21FFA89F3C2
:103A4000AA4228BF4FF0000C9E4225D9E2B2A3EB58
:103A50000B0301305400AB42D4D157F8300C57F867
:103A60003C1CD946013047F8300C80B2814213D952
:103A700057F8241C924857F82C2C0131A942AFD397
:103A800057F8349C6DE9028557F81C3C28304946AC
:103A90005A4600F0D1FD02B0894857F8201C018039
:103AA00057F838DCA7F10C04A546BDE8F08F00BF3D
:103AB000C9C900083DCE00082DE9FE4FDDF8308071
:103AC0000C460D9E05464FF0000918191FFA80FAA2
:103AD00050191FFA80FBE8B24FEA5807029013E032
:103AE000A8B283459CBF18FA84F4029DA1B28A450E
:103AF00098BFBDE8FE8FA8B24346CDF80090FFF70F
:103B0000B9FE17FA85F501363278A2F12000C0B26D
:103B10005E28E5D9BDE8FE8F2DE9F04F87B0684CEF
:103B2000DFF898A10320CAF808004FF4807004F170
:103B3000280504F10801AAF80C00284601F02EF926
:103B4000604E28460521524633689847B268211DC9
:103B5000284690475C4800215C4B00220068816346
:103B600028460021B76AB847FDF7CCFA07465848FF
:103B700040F6B839A0EB0708564E4FF400513046D6
:103B8000FDF7AAFA012855D00A20FDF7C9F9FDF77B
:103B9000B9FA0446FDF7B6FAA0EB070BE01BB0F547
:103BA0007A7F0AD864204FF47A710BFB00F0B0FBE7
:103BB000F1F0454909688863DEE7FDF7A3FAC01B09
:103BC000CB452FD8A0F57A700A2102ACB0FBF1F2F8
:103BD000204641A102F066FADAF800101020102306
:103BE000CDE900044FF6E27008448AB2012180B2A8
:103BF000FFF762FF3348DAF80460846BFDF782FA5E
:103C0000DAF800104044032200924FF6FF7201924E
:103C1000F21E48434FF4FA61B0FBF1F3284600214D
:103C2000A047A9E740F6B9318842A5D302E00A20AF
:103C3000FDF776F930464FF40051FDF74DFA0128B3
:103C4000F5D000204FF496710024FFF7DBFD1D48EE
:103C500000210022876BDAE90030CDE90004284614
:103C6000B8471FA01E4B102402ADD0E90112007B03
:103C70000492CDE902318DF81400042004211023B0
:103C800000940195BAF80020FFF716FFFDF72EFA11
:103C9000024617A1284602F005FABAF800200420CF
:103CA00016211023CDE90045FFF706FF6420C82147
:103CB000FFF7A8FD07B0BDE8F08F00BFF8000024B3
:103CC0002000002480000024F40600248065000801
:103CD00018FCFFFF00080258253033640000000084
:103CE00057654163742053747564696F0000000068
:103CF00053544D33324837787820307825580000B7
:103D0000B0B56F4D0446082101222846FDF7E9F9B8
:103D1000601EFDF705F9284608210022FDF7E1F9AC
:103D200040F2F310BDE8B040FDF7FAB8C1F3045C0F
:103D3000C1F34061072300EB810003FA0CF302FAA0
:103D40000CF241699943114341617047F0B587B066
:103D500068461C21FCF7F4FA264C27480025012769
:103D600004261521206004F12400C4E902572661CD
:103D700025756575A66127772762FCF7E1FA20466D
:103D8000FCF764FE08B1FCF793FC06200097694637
:103D9000CDE9010040F2FF70CDE903061548059515
:103DA0008DF81950FCF7D6FC08B1FCF781FC1348DC
:103DB000694600900C2001900E48FCF7CBFC08B13E
:103DC000FCF776FC0E4869460090122001900948E5
:103DD000FCF7C0FC08B1FCF76BFC0A486946009090
:103DE000182001900348FCF7B5FC08B1FCF760FC13
:103DF00007B0F0BD08060024006002580000B8CFEC
:103E0000000084CB000052C72DE9F04387B00026A4
:103E10000022082506962948016841F0100101603A
:103E2000016801F0100101910199016841F004015C
:103E30000160016801F0040101910199016841F0FC
:103E400080010160016801F0800101910199016820
:103E500041F0010101600821006800F001000190BB
:103E60000198174C2046FDF73CF920464FF42051AD
:103E700001224FF420584FF00109FDF732F9114F9C
:103E8000CDE9025902AD2046CDE904662946B8477E
:103E90004FF400502946CDE9020602200490A4F513
:103EA0000060B8470320CDE90289049629460590B1
:103EB0002046B84707B0BDE8F08300BFE044025891
:103EC00000100258490F0008B0B5144C14484FF4C4
:103ED000800C4FF4C022072300214FF0806E4FF07A
:103EE0000055C4E9000C4FF08040C4E90223C4E946
:103EF0000411C4E906E5C4E90811C4E90A11242142
:103F0000606304F13800FCF71BFA2046FEF774FEEC
:103F100018B1BDE8B040FCF7CBBBB0BD6C060024C7
:103F200000340140B0B596B000240CA81C211594B3
:103F3000CDE91344FCF704FA01A82C21FCF700FAA0
:103F4000234824490B2240F2E73380E81600C0E9F9
:103F50000334C0E90544FFF731FB08B1FCF7A8FBC7
:103F60001B4813A9CDE913441594FFF7F3F908B1E1
:103F7000FCF79EFB602000250CA904220C90082071
:103F8000CDE90D55CDE90F051148CDE91155FFF7E4
:103F9000B7FA08B1FCF78CFB01AC14212046FCF702
:103FA000CFF94FF400502146CDE906054FF00070DF
:103FB0000895CDE9090506480B95FFF783F908B187
:103FC000FCF776FB0248FFF773FA16B0B0BD00BFEE
:103FD000F40600240000014010B5164C16484FF4BA
:103FE000E13100220C2384E8070004F118001421B9
:103FF000C4E903226361FCF7A3F92046FFF78BFBBA
:1040000008B1FCF755FB0B480021FFF75EFB08B138
:10401000FCF74EFB07480021FFF731FB08B1FCF726
:1040200047FB0448FFF710FB18B1BDE81040FCF750
:104030003FBB10BD4007002400100140FEE7704761
:1040400070470000F8B5854F05460C46B86A00F089
:104050000300032801D1012076E0386820F0806059
:104060003860FDF74FF80646386810F0006F05D04D
:10407000FDF748F8801B0228F6D962E0B86A296883
:104080002B1D4FF47E46002C20F47C3040EA01309A
:10409000B8620FCB06EB412100F2FF1089B26FF33B
:1040A0005F2040EA01004FF4FE0101EB024101F400
:1040B000FE0140EA01004FF0FE4101EB036101F017
:1040C000FE4140EA0100B863F86A696920F0C00067
:1040D00040EA0100F862F86AA96920F0200040EA8D
:1040E00001004FF6F871F862F86A20F01000F862EB
:1040F000F86B20EA0100E96940EAC100F863F86A58
:1041000040F01000F86208D04FF40010012C08BFF6
:104110004FF48010F96A084302E0F86A40F4002086
:10412000F862386840F080603860FCF7EBFF0446C6
:10413000386810F0006F06D1FCF7E4FF001B03287D
:10414000F6D3032000E00020C0B201B0F0BD00BFF4
:10415000F8B5424F05460C46B86A00F00300032844
:1041600001D1012076E0386820F080503860FCF7FB
:10417000C9FF0646386810F0005F05D0FCF7C2FFA3
:10418000801B0228F6D962E0B86A29682B1D4FF41B
:104190007E46002C20F07C7040EA0150B8620FCBC4
:1041A00006EB412100F2FF1089B26FF35F2040EA75
:1041B00001004FF4FE0101EB024101F4FE0140EA6F
:1041C00001004FF0FE4101EB036101F0FE4140EAC6
:1041D00001003864F86A696920F4406040EA01002F
:1041E000F862F86AA96920F4007040EA01004FF60D
:1041F000F871F862F86A20F48070F862786C20EA4E
:104200000100E96940EAC1007864F86A40F480700E
:10421000F86208D04FF08070012C08BF4FF4000006
:10422000F96A084302E0F86A40F48000F8623868EE
:1042300040F080503860FCF765FF0446386810F0A5
:10424000005F06D1FCF75EFF001B0328F6D30320B6
:1042500000E00020C0B201B0F0BD00BF0044025831
:10426000016840F26F32D1F814C08B6943F0080343
:104270001CF0200F8B618B6943F010038B610B687E
:1042800023F001030B600B6923EA02020A618A68CA
:1042900022F440428A6090F8813018BF042B09D084
:1042A000D0F8842042F08002C0F884208A6942F06D
:1042B00020028A6190F881305FEA4C620BD5032BB3
:1042C00009D0D0F8842042F00402C0F884208A6922
:1042D00042F040028A615FEA8C5209D5D0F884200E
:1042E00042F00102C0F884208A6942F400728A61B7
:1042F0005FEACC5209D5D0F8842042F00802C0F819
:1043000084208A6942F480728A610021A0F86210D8
:10431000A0F86A107047F8B50D46144606466F1CA3
:104320003068406910F0080F11D1FCF7EBFE001B5C
:1043300000213A46A8424FF0030028BF0121002F78
:1043400018BF012225B111400129E9D100E0002068
:10435000C0B201B0F0BD0020704700002DE9FC4163
:10436000064600200DF107021321002306F1200468
:104370008DF80700204601F080FE8046F0698047F6
:104380000746F0698047C01B0A28FAD30DF10702DF
:1043900020462821002301F070FE0746F06980477F
:1043A0000546F0698047401B0A28FAD30DF107053E
:1043B0002046362100232A4601F05FFEDA49784B79
:1043C0008A68097B03EBC202002907EB08015268E7
:1043D00001EB00062046294608BF42F008028DF88E
:1043E0000720012201F046FE4142C642A6EB010130
:1043F00018BF4FF0FF31084602B0BDE8F08100BFA2
:104400002DE9FC41064600200DF10702132100238F
:1044100006F120048DF80700204601F02EFE8046AC
:10442000F06980470746F0698047C01B0A28FAD325
:104430000DF1070220462921002301F01EFE074648
:10444000F06980470546F0698047401B0A28FAD387
:104450000DF107052046362100232A4601F00DFE06
:10446000D5494F4B8A68097B03EBC202002907EB51
:104470000801526801EB00062046294608BF42F0B9
:1044800008028DF80720012201F0F4FD4142C642E6
:10449000A6EB010118BF4FF0FF31084602B0BDE89E
:1044A000F08100BF2DE9FE4FDFF8609C1E460446F8
:1044B0000F46D6F81610D6F81230D6F802B0D6F855
:1044C0000AA0D9F804000091801A451A20463946FE
:1044D0002A4600F005FDE8B9D9F80800304904F192
:1044E00020080DF10902012351F8300099F80C1051
:1044F00000294FF0360108BF40F008008DF8090090
:10450000404601F0BAFD28B9204639462A4600F057
:1045100075FC28B14FF0FF35284603B0BDE8F08F99
:104520005644ABEB0A0700250DF10A0A70195146F3
:10453000022240788DF80A00705D8DF80B0040462D
:1045400001F098FD20B90235BD42EFD3002601E00D
:104550004FF0FF361249D9F808000DF10902012386
:1045600001EBC00099F80C10406800294FF03601AB
:1045700008BF40F008008DF80900404601F07DFDBD
:104580004FF0FF350028C7D1D9E9003000210022C3
:104590000090204600F0A4FC002808BF3546BBE789
:1045A00030D40008B0B51C46834B054660181B6824
:1045B000984203D8284600F021FC10B14FF0FF309C
:1045C000B0BD0C4A04982346010A013204E002F807
:1045D000011C10700232013B002BF8D1054905F196
:1045E0002000620001F046FD002818BF4FF0FF30A8
:1045F000B0BD00BF080100242DE9F84389466E498B
:104600001C46154607466019496888420DD8DDF8F2
:1046100020800026A6420BD2AA19384649464346B6
:1046200000F050FD01360028F4D04FF0FF3000E0DC
:10463000002001B0BDE8F0832DE9FE4F07460C983D
:104640000E4615461C4681195B480268914202D904
:104650004FF0FF3A3BE00D9940684FF0FF3A294494
:10466000814234D80C984FF000084FF0000B4FEA0D
:10467000400907F12000029017480130019022E024
:104680000BEB05023846314600F0B8FB10B14FF095
:10469000FF3816E001980C99224607E0137801399B
:1046A00000F8013C53780232037002300029F5D142
:1046B000029809494A4601F0DDFC00284C4418BF25
:1046C000D0460BF1010B0D988345D9D1C246504617
:1046D00003B0BDE8F08F00BF880300242DE9FC473C
:1046E000DDE90AA9984615460E460746002409E06A
:1046F0002A19384631464346CDF80090FFF752FF5D
:1047000020B901345445F3D3002001E04FF0FF30CD
:1047100002B0BDE8F0874FF0FF3070472648806850
:1047200008600020704700BFF80000242DE9FC4716
:104730009846064600F062FB0DF1050720368146DB
:104740002E2130463A4601F08FFC144C824630460A
:1047500039460122A04707460DF1070130460122E4
:10476000A04705460DF1060130460122A0479DF8FD
:1047700006109DF8072042EA0121C8F800100AEB54
:10478000090139444A194142511AC24218BF4FF037
:10479000FF31084602B0BDE8F08700BF6F60000837
:1047A0000548006808600020704700BF0248406864
:1047B00008600020704700BFF80000242DE9F04F8A
:1047C000BDB005463A923C91002D00F0AF8200202A
:1047D00005F120060DF1EF02012100238DF8EF0015
:1047E000304601F04AFCE86980470446E8698047A2
:1047F000001B7828FAD300200DF1EF0201210023DD
:104800008DF8EF00304601F038FC3990E8698047B8
:104810000446E8698047001B7828FAD3DFF8BC46D5
:1048200000200DF1EF07112101234FF001088DF851
:10483000EF0030463A46A04738903046B1213A461C
:104840000023A047DFF8D4B737903046394601221D
:104850008DF8EF80A1464FF00108D84736902C2004
:10486000394601222C248DF8EF003046D847359088
:104870002D20394601224FF02D0A8DF8EF003046E9
:10488000D84734903046B2213A4601238DF8EF8064
:10489000C84733903046394601228DF8EF402C242A
:1048A000D84732903046394601228DF8EFA04FF0BC
:1048B0002D08D84731900120B3213A4601234FF00B
:1048C000010A8DF8EF003046C8473090304639462F
:1048D00001228DF8EF402C24D8472F9030463946DE
:1048E00001228DF8EF804FF02D08D8472E903046EA
:1048F000394601228DF8EFA0D8472D903046394631
:1049000001228DF8EF40D8472C90304639460122DD
:104910008DF8EF80D8472B900720B4213A46012329
:10492000C84607248DF8EF003046C0472A90A220E1
:10493000C0213A4601238DF8EF003046C047299048
:104940000220394601228DF8EF003046D8472890E2
:104950008420394601228DF8EF003046D847279051
:10496000C520C1213A4601238DF8EF003046C047EB
:1049700026900A20C2213A4601238DF8EF003046E6
:10498000C04725900020394601228DF8EF003046BF
:10499000D84724904FF08A093046C3213A46012374
:1049A0008DF8EF90C04723902A20394601228DF8D8
:1049B000EF003046D84722903046C4213A460123C2
:1049C0008DF8EF90C0472190EE20394601228DF8F6
:1049D000EF003046D84720900E20C5213A460123EB
:1049E0008DF8EF003046C0471F903A9820213A4694
:1049F0000023007B0028304608BF2121C0471E90BD
:104A00003CAA30463A210123C0471D900220E021F4
:104A10003A4601238DF8EF003046C0471C901C2019
:104A2000394601228DF8EF003046D8471B903046BA
:104A3000394601228DF8EF40D8471A9012203946A6
:104A400001228DF8EF003046D847199037203946BB
:104A500001228DF8EF003046D847189032203946B1
:104A600001228DF8EF003046D84717904FF0290902
:104A70003046394601228DF8EF90D84716902D2404
:104A80003046394601228DF8EF40D8471590304620
:104A9000394601228DF8EF90D847149025203946E9
:104AA00001228DF8EF003046D84713902B2039466D
:104AB00001228DF8EF003046D84712903920394650
:104AC00001228DF8EF003046D8471190002039467A
:104AD00001228DF8EF003046D8471090012039466A
:104AE00001228DF8EF003046D8470F904FF0030AAF
:104AF0003046394601228DF8EFA0D8470E9010209D
:104B0000394601228DF8EF003046D8470D903046E7
:104B1000E1213A4601238DF8EFA0C0470C901D20FB
:104B2000394601228DF8EF003046D8470B90072018
:104B3000394601228DF8EF003046D8470A9006200A
:104B4000394601228DF8EF003046D84709904FF0E2
:104B50002E0A3046394601228DF8EFA0D84708903A
:104B60002C20394601228DF8EF003046D8470790B7
:104B70003046394601228DF8EF90D84706903046EE
:104B8000394601228DF8EF40D84705903046394626
:104B900001228DF8EFA0D847049030463946012213
:104BA0008DF8EFA0D84703903720394601228DF8C1
:104BB000EF003046D84702903F20394601228DF859
:104BC000EF003046D8470190002430463946012294
:104BD0008DF8EF40D84782463046394601228DF89D
:104BE000EF404FF00009D847044602203946012221
:104BF0008DF8EF003046D847804610203946012214
:104C00008DF8EF003046D8478DF8EF900123DDE9AD
:104C100038211144379A1144369A1144359A114477
:104C2000349A1144339A1144329A1144319A1144FE
:104C3000309A11442F9A11442E9A11442D9A1144FE
:104C40002C9A11442B9A11442A9A1144299A1144FE
:104C5000289A1144279A1144269A1144259A1144FE
:104C6000249A1144239A1144229A1144219A1144FE
:104C7000209A11441F9A11441E9A11441D9A1144FE
:104C80001C9A11441B9A11441A9A1144199A1144FE
:104C9000189A1144179A1144169A1144159A1144FE
:104CA000149A1144139A1144129A1144119A1144FE
:104CB000109A11440F9A11440E9A11440D9A1144FE
:104CC0000C9A11440B9A11440A9A1144099A1144FE
:104CD000089A1144079A1144069A1144059A1144FE
:104CE000049A1144039A1144029A1144019A1144FE
:104CF0003A46514421444144DFF8E0810C183046E3
:104D00001321C0470444304629213A460123C047B5
:104D10003A990444284600F083F901464842CC42BF
:104D2000A4EB000018BF4FF0FF3001E04FF0FF3060
:104D30003DB0BDE8F08F00BF7CB500F120050DF15E
:104D400005060C46DA212846324601F08DF958B99D
:104D5000721C2846DB2101F087F928B9B21C2846CD
:104D6000DC2101F081F918B14FF0FF3002B070BDC5
:104D70009DF806109DF807209DF8050042EA0121E4
:104D800041EA004020600020F0E703690846114630
:104D9000184783690846114618470000D8B10A68C9
:104DA0000260002A4B6843600B890381CB68C360B3
:104DB0000B6903614B6943618B698361C969C16197
:104DC0000649416206490162064981620649C0E915
:104DD0000B1000D010474FF0FF3070478B4D00088C
:104DE00011510008ED4D0008934D00084369084635
:104DF000114618474FF0FF30704700002DE9F84F7B
:104E00000C46C2498B684F7B012B05D8012F09D175
:104E1000097BB1B1183419E0012F0BD1097B99B18D
:104E2000183213E0022F11D1097B012904BF01328E
:104E300002340BE0022F04BF097B012906D10232A4
:104E400003E001321A3401E01A320134234D00F13B
:104E500020060DF1030791462A21002330463A46E9
:104E6000A847DFF8B8818246200A394601228DF82A
:104E700003003046C04783463046394601228DF84C
:104E80000340C047044630462B213A460023A8473A
:104E900005464FEA1920394601228DF803003046B5
:104EA000C0470BEB0A0101228DF8039021442944ED
:104EB0000C1830463946C0473A46084F044430463D
:104EC0002C210023B8474142C442A4EB010118BF82
:104ED0004FF0FF31084601B0BDE8F08F7B6000085D
:104EE0002DE9F04F85B00E4688491C4692468B68E6
:104EF0004A7B012B05D8012A0ED1097BF1B1183666
:104F00001FE0012A11D1097B0136002914BF0AF1E3
:104F1000180A0AF11A0A14E0022A12D1097B01299F
:104F200004BF0AF1010A02360BE0022A09D1097B0B
:104F3000012904BF0AF1020A013602E00AF1010A5E
:104F40001A3600F120070DF113052A2100233846F7
:104F50002A4601F092F8DFF8C4800390300A29460F
:104F600001228DF813003846C04702903846294682
:104F700001228DF81360C0470190A0192946012233
:104F8000441E200A8DF813003846C047009038466A
:104F9000294601228DF81340C047044638462B218C
:104FA0002A46002301F069F881464FEA1A20294673
:104FB00001228DF813003846C047564682463846CF
:104FC000294601228DF81360C04783460E98294672
:104FD00001223044461E300A8DF813003846C0477F
:104FE0008DF81360DDE902211144019A1144009A01
:104FF0001144012221444944514459440C18384673
:105000002946C0474142C442A4EB010118BF4FF0FA
:10501000FF31084605B0BDE8F08F00BF756000089D
:105020007CB58A680446487B012A07D880B10228EB
:105030000ED0012817D1354B50250BE068B102285E
:105040000BD001280FD1314BA0254FF0500C08E0B8
:105050002E4B80254FF0A00C03E02C4BA0254FF0E9
:10506000800CC3E9005C294EB2600022097B3173D9
:1050700070730021D6E9003000902046FFF730FF22
:105080000546B0680E490DF10702012301EBC0008F
:10509000317B406800294FF0360108BF40F008001E
:1050A0008DF8070004F1200000F0E7FF4142C542FF
:1050B000A5EB010118BF4FF0FF31084602B070BDEB
:1050C00030D40008BCB50546180240EA13200F4B47
:1050D000ADF806004FF0FF301C688C4284BF5B685F
:1050E000934211D92846FFF789FE10B14FF0FF30E7
:1050F0000AE005F120000DF10601022200F0BAFFDE
:10510000002818BF4FF0FF3002B0B0BDF8000024F7
:10511000D0F80CC0084611461A4660477047FBF7A6
:10512000F5BF0000B0B59CB009A84C21FBF708F909
:1051300001A82021FBF704F90220FCF7DBF800208E
:1051400000903149086820F001000860086800F00C
:10515000010000902D48026842F44042026002685B
:1051600002F440420092009A026812F4005FFBD001
:10517000274A835843F002038350825802F0020208
:105180000092009A00220092026842F440420260BB
:10519000026802F4404200920A6842F001020A608A
:1051A000096801F0010100910099016811F4005FA4
:1051B000FBD0012005210825002409904FF4803000
:1051C0000A900220CDE9120014916021CDE915105A
:1051D000CDE9170009A81995CDE91A44FDF77AFA27
:1051E00078B93F2002A90190032031C101A8CDE97F
:1051F0000744CDE905440121FDF778F808B91CB052
:10520000B0BDFBF755FA00BF2C04005818480258EF
:10521000DCFCFFFF10B51748D0F8801041F4700196
:10522000C0F8801014490A6842F001020A600022A6
:105230000A610B68114C23400B608A61CA610A62E3
:105240008A62CA620A634A638A63CA630A644A64F6
:105250000B6823F480230B600A6609490968B2EBE6
:10526000517F02BF074901220A604FF000610160CF
:1052700010BD00BF08ED00E0004402587FEDF6EAE3
:105280000010005C088100510268B0F1804F0ED020
:10529000274B98421CBF274B984208D0264B984278
:1052A0001CBFD94B984202D0D64B984203D14B68D1
:1052B00022F070021A43B0F1804F1CBF1C4B984281
:1052C00014D01C4B98421CBF1B4B98420ED0CD4BA8
:1052D00098421CBFCC4B984208D0CC4B98421CBF84
:1052E000CB4B984202D0CB4B984203D1CB6822F4EF
:1052F00040721A434B6922F080021A4302608A68A6
:10530000C2620A688262BF4A90421CBFBE4A904293
:1053100008D0BE4A90421CBFBD4A904202D0BD4A4E
:10532000904201D10969016301214161704700BFC9
:105330000004004000080040000C0040B0B5026AC4
:1053400022F001020262036AD0F804E082698C68EC
:10535000D1F800C023F0020344EA03055D4C22406B
:105360004CEA020CA74A90421CBFA74A904208D0C0
:10537000A64A90421CBFA64A904202D0A54A90423B
:1053800006D1CB6825F00C0223F0040343EA0205A2
:105390009C4A90421CBF9C4A904208D09B4A904233
:1053A0001CBF9B4A904202D09A4A904206D1D1E952
:1053B00005242EF440731A4342EA040EC0F804E0B8
:1053C000C0F818C0496841630562B0BDB0B5026A53
:1053D00022F010020262026AD0F804E083698C684D
:1053E000D1F800C022F0200242EA0415524C2340BA
:1053F000854C43EA0C2C40F48063A34201BFCB6888
:105400006FF04F0404EA031325F0C00208BF43EA1B
:1054100002057C4B98421CBF7B4B984208D07B4BCB
:1054200098421CBF7A4B984202D07A4B984207D1DF
:10543000D1E905342EF4406242EA830242EA840E46
:10544000C0F804E0C0F818C0496881630562B0BDC7
:10545000B0B5026A22F480720262026AD0F804E0F7
:10546000C3698C68D1F800C022F4007242EA0425B6
:10547000184C2340644C4CEA030C40F48063A34274
:1054800008D1CB6840F2FF4425F440621B02A343DD
:1054900043EA02055B4B98421CBF5B4B984208D025
:1054A0005A4B98421CBF5A4B984202D0594B9842D3
:1054B00007D1D1E905342EF4405242EA031242EA00
:1054C000041EC0F804E0C0F81CC04968C16305624E
:1054D000B0BD00BF8CFFFEFFB0B5026A22F480525F
:1054E0000262026AD0F804E0C5698B680C6822F495
:1054F000005242EA033C104A424B984202EA05023B
:105500001CBF414B984242EA042208D03F4B9842CC
:105510001CBF3F4B984202D03E4B984204D14B698E
:105520002EF4804545EA831EC0F804E0C261496854
:105530000164C0F820C0B0BDFF8CFFFEB0B5026AA8
:1055400022F480320262026AD0F804E0456D8B6872
:105550000C6822F4003242EA034C104A294B98426C
:1055600002EA05021CBF284B984242EA040208D016
:10557000264B98421CBF264B984202D0254B98429E
:1055800004D14B692EF4803545EA032EC0F804E0BF
:10559000426549688165C0F820C0B0BD8FFFFEFF3D
:1055A000B0B5026A22F480120262026AD0F804E006
:1055B000456D8B680C6822F4001242EA035C104AC5
:1055C000104B984202EA05021CBF0F4B984242EA78
:1055D000042208D00D4B98421CBF0D4B984202D0BC
:1055E0000C4B984204D14B692EF4802545EA832E5A
:1055F000C0F804E042654968C165C0F820C0B0BD8C
:10560000FF8FFFFE00000140000401400040014008
:105610000048014000440140416ED9B180B50268A4
:105620000FF2400C0FF2440E9168C1F34261926890
:105630001CF801301EF80110520F0901B1FBF3F103
:105640001CF802301EF802201201B2FBF3F2BDE892
:10565000804001E001220121A0F86A20A0F8681032
:10566000704700BF080402040801010101010103A1
:1056700007010000816A11F0010F08D00268536829
:10568000D0F82CC023F4003343EA0C0353608A079C
:1056900008D502685368D0F830C023F4803343EA59
:1056A0000C0353604A0708D502685368D0F834C029
:1056B00023F4802343EA0C0353600A0708D50268E9
:1056C0005368D0F838C023F4004343EA0C03536016
:1056D000CA0608D502689368D0F83CC023F480530A
:1056E00043EA0C0393608A0608D502689368D0F8F1
:1056F00040C023F4005343EA0C03936080B54A068C
:1057000015D5D0F800E0DEF804C0436C2CF480120C
:10571000B3F5801F42EA0302CEF8042007D1DEF879
:105720000420836C22F4C0021A43CEF80420090638
:10573000BDE8804058BF704701684A68C06C22F4D9
:105740000022104348607047BCB504460020C4F8EE
:105750009000FBF7D7FC05462068016811F0080FA0
:1057600018D027484FF4001100222B460090204605
:1057700000F05EFA68B1206850E8000F216820F060
:10578000800041E80002002AF5D12020C4F88800FA
:1057900025E02068006810F0040F22D018484FF46C
:1057A000800100222B460090204600F041FAC0B153
:1057B000206850E8000F216820F4907041E8000252
:1057C000002AF5D1206850E8020F216820F001007E
:1057D00041E80202002AF5D12020C4F88C00032001
:1057E00007E02020C4F88800C4F88C000020E066A0
:1057F00020670021C0B284F8841002B0B0BD00BFA1
:10580000FFFFFF01016851E8001F026821F4907159
:1058100042E80013002BF5D1016851E8021F0D4A40
:105820001140026842E80213002BF5D1C16E012934
:1058300009D1016851E8001F026821F0100142E817
:105840000013002BF5D12021C0F88C100021C16677
:1058500041677047FEFFFFEF2DE9F04186B0044637
:105860002168A068D4E90423E56910430A68184355
:10587000A14B28431A40104308604868E26820F4AE
:105880004050104348609D48A0F50E368646A069FA
:105890009B4FB1421CBF226A10438A68994B1A4041
:1058A00010438860C86AD4F824C020F00F0040EA92
:1058B0000C00C862944880469448954B994228D081
:1058C000944B994231D0944B99423AD0934B9942A0
:1058D00043D0934B994200F04B80924B994200F099
:1058E0005280914B994200F05980904B994200F0C0
:1058F00060808F4B994240F069803B68C3F3C203DC
:10590000052B00F263800127DFE803F0695E626423
:1059100066683A6802F00703052B00F257800027FB
:10592000DFE803F05D5256585A5C3A6802F007030C
:10593000052B00F24B800027DFE803F051464A4C6C
:105940004E503A6802F00703052B00F23F80002713
:10595000DFE803F0453A3E4042443A6802F007036C
:10596000052B33D80027DFE803F03A2F33353739DA
:105970003A6802F00703052B28D80027DFE803F078
:105980002F24282A2C2E3A6802F00703052B1DD855
:105990000027DFE803F024191D1F21237A6802F095
:1059A0000703052B12D80227DFE803F0190E1214A3
:1059B00016183A68C2F3C203052B07D80127DFE89F
:1059C00003F00E0307090B0D042708E0802706E00B
:1059D000082704E0102702E0202700E04027B1421A
:1059E00013D00121B5F5004F20D1082F2AD8DFE8C8
:1059F00017F009005800000100015B0000010001E0
:105A000000016000FCF7A0FD57E0402F30D0042FCC
:105A100031D0082F34D0102F3CD0202F00F0C1807F
:105A2000022F40F0E580FBF78BFC2DE0082F14D807
:105A3000DFE807F00580DFDF83DFDFDF8800FCF7CA
:105A400083FD83E0102F00F09880202F3AD0402F64
:105A500040F0CF804FF4004034E0102F00F09480ED
:105A6000202F77D0402F40F0C4804FF4004071E0E9
:105A70004FF4004095E003A8FBF722FD049803E0F3
:105A80006846FBF7C7FD0198002800F0AF80D4F806
:105A900024C086E0DEF8000010F0200F7BD14046E5
:105AA0007FE0FCF75FFD08E003A8FBF709FD049821
:105AB00003E06846FBF7AEFD0198002800F09680F1
:105AC000D4F824C0584931F81C10B0FBF1F06168DB
:105AD0004A0802EB40004FF6EF72B0FBF1F0A0F184
