:020000040800F2
:1000000008A70020AD020008BB580008D351000823
:10001000B9580008710A0008956500080000000042
:10002000000000000000000000000000DD5A000891
:100030005D0E000800000000BD580008FD5B0008D0
:10004000C7020008C7020008C7020008C70200086C
:10005000C7020008C7020008C7020008C70200085C
:10006000C7020008C7020008C7020008C70200084C
:10007000390C0008450C0008C7020008C702000838
:10008000C7020008C7020008C7020008C70200082C
:10009000C7020008C7020008C7020008C70200081C
:1000A000C7020008C7020008C7020008C70200080C
:1000B000715D0008C7020008C7020008C7020008F7
:1000C000C7020008C7020008C7020008C7020008EC
:1000D000C702000889650008C7020008C7020008B7
:1000E000C7020008C702000800000000C70200089D
:1000F000C7020008C7020008C7020008C7020008BC
:10010000C7020008C70200087D5D0008C70200089A
:10011000C7020008C7020008895D0008955D000855
:10012000C7020008C7020008C7020008C70200088B
:10013000C7020008C7020008C7020008C70200087B
:1001400000000000000000000000000000000000AF
:10015000C7020008C7020008C7020008C70200085B
:10016000C7020008C7020008C7020008C70200084B
:10017000C7020008C7020008C7020008C70200083B
:10018000C7020008C7020008C7020008C70200082B
:10019000C7020008C7020008C7020008C70200081B
:1001A000C7020008C7020008C7020008C70200080B
:1001B000C7020008C7020008C7020008C7020008FB
:1001C000C7020008C7020008C7020008C7020008EB
:1001D000C7020008C7020008C7020008C7020008DB
:1001E000C7020008C7020008C7020008C7020008CB
:1001F000C7020008C7020008C7020008C7020008BB
:10020000C7020008C7020008C7020008C7020008AA
:10021000C7020008C7020008C7020008C70200089A
:10022000C7020008C7020008C7020008000000005B
:10023000C7020008C702000800000000C70200084B
:10024000C7020008C7020008C7020008C70200086A
:10025000C7020008C7020008C7020008C70200085A
:10026000C7020008C7020008C7020008C70200084A
:10027000C7020008C7020008C7020008000000000B
:10028000C7020008C7020008C702000800000000FB
:1002900000000000C7020008DFF80CD000F050FAA0
:1002A00000480047F175000808A70020064880476D
:1002B00006480047FEE7FEE7FEE7FEE7FEE7FEE74B
:1002C000FEE7FEE7FEE7FEE7BD5C000899020008D6
:1002D0002DE9F05F0546002092469B46884606467B
:1002E000814640241BE0284641464746224600F00E
:1002F0005EF853465A46C01A914110D3114618462B
:10030000224600F045F82D1A67EB01084F462246B9
:100310000120002100F03CF817EB00094E41201E9F
:10032000A4F10104DFDC484631462A464346BDE8D5
:10033000F09FD2B201E000F8012B491EFBD27047BA
:100340000022F6E710B513460A4604461946FFF7A1
:10035000F0FF204610BD421C10F8011B0029FBD104
:10036000801A704730B50B46014600202022012438
:1003700009E021FA02F59D4205D303FA02F5491B73
:1003800004FA02F52844151EA2F10102F1DC30BD89
:10039000202A04DB203A00FA02F100207047914045
:1003A000C2F1200320FA03F3194390407047202A3A
:1003B00004DB203A21FA02F00021704721FA02F30F
:1003C000D040C2F1200291400843194670472DE900
:1003D000FE4F804681EA0300C00F0C46009021F0DA
:1003E000004123F00045B8EB0200A94105D2404688
:1003F000214690461C460B46024623F0004010431F
:1004000047D0270DC7F30A00C3F30A510290401AE0
:10041000019040286BDAC3F3130040F4801B00986E
:10042000924620B10023D2EB030A63EB0B0B019839
:100430005946C0F140025046FFF7AAFF06460D4656
:1004400050465946019A00F08DF910EB08006141C1
:10045000002487EA115284EAE7731A4340D0009AD5
:1004600062B3019A012A4FEA075215DC001B61EBC7
:1004700002014FF0004202EA0752CDE90042001C9F
:1004800041F5801132462B4600F08DF903B0BDE8EE
:10049000F08F40462146F9E7001B61EB0201001C8A
:1004A00041F5801300185B412018A2F5001747EBB7
:1004B000030140EAD570B6196D4111E06D084FEAAD
:1004C000360645EAC0754FEA0752001B61EB020190
:1004D000001C41F5801149084FEA300000195141D4
:1004E00032462B4603B0BDE8F04F00F04DB90098FE
:1004F000012240000023D0EB020263EBE07300987E
:1005000021464FEAE074B8EB000061EB0401E9E733
:1005100083F000435BE781F0004158E72DE9FE4F8F
:1005200081EA030404F0004421F0004100944FF0FC
:10053000000B23F0004350EA01045ED052EA0304AA
:100540005BD0C3F30A54C1F30A552C44A4F2F3342C
:100550000194A0FB0254C1F3130141F48011C3F3D1
:10056000130343F4801301FB024400FB034E840A8F
:10057000970A44EA815447EA8357A4FB0768029527
:100580008D0A05FB07854FEA932C04FB0C542705C5
:10059000029D4FEA065847EA1637B5EB08056EEBA1
:1005A000070C870E920E47EA811742EA8312A7FBD7
:1005B0000201B6EB0B0164EB00042B0D43EA0C3394
:1005C0005E1844EB1C50DA465146E7FB0201C5F3C6
:1005D00013044FEA0B3343EA14534FEA0432019CED
:1005E00043EA0603A4F10C040294009CCDE900B494
:1005F00000F0D9F803B0BDE8F08F00200146F9E71C
:100600002DE9F04D81EA030404F0004B21F0004590
:1006100014464FF0000A23F0004150EA050220D0B2
:1006200054EA01021DD0C5F30A570246C5F313036D
:10063000C1F31300C1F30A5640F4801543F480134C
:10064000A7EB0608101BD64608F2FD3873EB050031
:1006500002D308F1010801E092185B41B8F1000FE4
:1006600003DA00200146BDE8F08D00204FF4801130
:10067000064684460EE0171B73EB050705D3121BD5
:1006800063EB050306434CEA010C49084FEA3000CE
:1006900092185B4150EA0107EDD152EA030012D0F3
:1006A00082EA040083EA0501084305D0101BAB4130
:1006B00006D20122002306E000224FF0004302E0B0
:1006C0006FF0010253101AEB06004CEB085110EBCF
:1006D0000A0041EB0B01BDE8F04D00F055B8C1F345
:1006E0000A52C1F3130140F2FF3341F480119A42E0
:1006F00002DA00200146704740F233439A42A2F2E8
:10070000334202DC5242FFF752BEFFF741BE000007
:1007100030B5041E71F1000404DB4FF00044404288
:1007200064EB0101141E73F1000405DB1C464FF05D
:100730000043524263EB0403994208BF904230BD2C
:10074000064C074D06E0E06840F0010394E807001E
:1007500098471034AC42F6D3FFF7A2FD8498000806
:10076000B4980008202A06DBCB17203A41FA02F0A1
:1007700043EAE07306E041FA02F3D040C2F12002FE
:10078000914008431946704710B5141E73F10004D8
:1007900008DA401C41F1000192185B411A4301D173
:1007A00020F0010010BD2DE9F04D92469B4611B19D
:1007B000B1FA81F202E0B0FA80F220329046FFF7FF
:1007C000E7FD04460F4640EA0A0041EA0B015346A2
:1007D0005A46084313D0114653EA010019D0C8F114
:1007E00040025046FFF7E3FD05460E465046594687
:1007F0004246FFF7CDFD084305D0012004E0204626
:100800003946BDE8F08D0020054346EAE0762C43EA
:1008100037430A986305E40AA0EB08000022FD0AAA
:1008200044EA47540A3002D500200146E9E70105B1
:1008300010196941DDE9084500196941BDE8F04D2D
:10084000A2E70000B0B504462068394940F4807042
:10085000884214BF38483748006810F4403F10D031
:1008600003F04CF805466068B0F5803F05D0B0F560
:10087000403F22D0B0F5003F20D1000CB5FBF0F591
:100880001CE04FF40020002102F068F90546606882
:10089000A0F580214FEAB1410A290FD8DFE801F025
:1008A0000606060606063D3F4143450047F6FE7133
:1008B00001EA5040B5FBF0F500E0AD0801F05CFE48
:1008C000216841F20302904209D888681E4B20F447
:1008D00080729D4288BF40F480728A60B0BD174824
:1008E000854204D851F8080F20F4407013E01448F2
:1008F000854205D851F8080F012262F309200AE069
:1009000051F8082F0223104663F309200D4B9D4236
:1009100028BF42F440700860B0BD2D09CEE76D09D4
:10092000CCE7AD09CAE7ED09C8E72D0AC6E700BF65
:1009300000210240082302400863025821BCBE0087
:1009400041787D0182F0FA02002D3101B0B50446F4
:10095000002021688B688A6813F0020F2DD112F0F5
:10096000010208BFB0BD886800F00D0001281BD14E
:1009700088683C4A104040F002008860032008600C
:1009800001F000FE05462068806810F0010F04BFEA
:100990000020B0BD01F0F6FD401B0328F3D3206812
:1009A000806810F0010FEED0606D40F010006065BF
:1009B000A06D40F00100A0650120B0BDF8B504466F
:1009C0002068816811F0010F49D18168254E06F138
:1009D0007F02114209D0606D40F010006065A06D8B
:1009E00040F00100A06501203AE08168314041F00B
:1009F0000101816001F0C6FD054620681A491B4FC0
:100A000001F5807201F54073904208BF1F4688428D
:100A1000014608BF1F469042BB6804BF42F2000176
:100A2000C4F2020113F01F0F18BF814217D10168F1
:100A300011F0010F13D1816811F0010F01BF81681E
:100A4000314041F00101816001F09CFD411B2068B3
:100A50000329ECD3016811F0010FE8D1BBE70020B6
:100A600001B0F0BDC0FFFF7F0020024000630258CC
:100A7000FEE7302008F012B8312000F049B80146F6
:100A8000362000F038B820B180B500F04BF8BDE852
:100A90008040342000F03CB8B0B5084DA84704466B
:100AA000A84744EA0024A84744EA0044A84744EA87
:100AB000006407F0E5FF2046B0BD00BF858A00084E
:100AC00010B504460C2007F0E9FF204607F0F8FFB8
:100AD000BDE81040FFF7E0BF10B504460A2007F05C
:100AE000DDFF204607F0ECFF07F0CCFF044607F0DF
:100AF000C7FF204610BD10B50C4607F0CFFF2046BB
:100B000007F0DEFF07F0BCFFBDE8104007F0BABFFA
:100B100080B507F0C3FF07F0B3FFBDE8804007F0E2
:100B2000B1BF000070B50446012007F0B7FF07F021
:100B3000A9FF422826D82B20FFF7CEFF0F2821D867
:100B40002F2007F0ABFF002007F0BAFF3220FFF79D
:100B5000DFFF142816D1CF20FFF7BEFF05468DB169
:100B60004C20FFF7ADFF144E00EB05214C20B047A1
:100B70005020FFF7A5FF00EB05215020B047702063
:100B80000021B0472F2007F089FF14F8015B2846A9
:100B900007F096FF09E025785C2D18BF2F2D00D1B6
:100BA0000025284607F08CFF01342806F3D1BDE864
:100BB000704007F065BF00BFE90B000870B5044640
:100BC0002D2007F06BFF07F05DFF054645B12E466F
:100BD00014F8010B07F074FF013E16F0FF0FF7D178
:100BE00007F04EFF284670BD70B505460D200C4637
:100BF00007F054FF084E2846B047E0B2B047C4F3B0
:100C00000720B047C4F30740B047200EB047BDE807
:100C1000704007F035BF00BFC18A000880B50620CC
:100C200007F03CFF532007F04BFF07F02BFFAC38D9
:100C3000B0FA80F0400980BD014800F0FFBE00BF5F
:100C4000309E0020014800F0F9BE00BFA89E0020A1
:100C50000168254A91422CD0244A91421CBF244A63
:100C6000914226D0234A91421CBF234A914220D070
:100C7000224A91421CBF224A91421AD0214A9142F3
:100C80001CBF214A914214D0204A91421CBF204AE5
:100C900091420ED01F4A91421CBF1F4A914208D078
:100CA0001E4A91421CBF1E4A914202D01D4A9142E7
:100CB00017D16FF00F02182352FA81F2B2FBF3F34F
:100CC0005F2A03F0070C18A313F80C30C36540F239
:100CD000FF3321EA030188BF41F004018165084622
:100CE000704721F0FF01F9E71000024028000240A0
:100CF000400002405800024070000240880002405C
:100D0000A0000240B8000240100402402804024043
:100D1000400402405804024070040240880402402B
:100D2000B8040240A0040240000610160006101687
:100D300010B502681E4C414B9A421CBF404B9A4270
:100D40000ED0404B9A421CBF3F4B9A4208D03F4BBB
:100D50009A421CBF3F4B9A4202D03D4B9A4211D15E
:100D6000D3B2A3F108011422B1FBF2F304EB830127
:100D700004F1800203F01F030124603004FA03F33E
:100D80000EC010BDA4F55B71D3B28A42E9D0094C04
:100D9000A3F110011823B1FBF3F10B46A24204F1B9
:100DA000AA0488BF0833A24228BF0B46024CDDE7E5
:100DB000005802580F04024000080240017901392E
:100DC000072988BF7047B0B502681A4D1A4C1B4BF3
:100DD0004FF0010C9A421CBF194B9A4216D0194B86
:100DE0009A421CBF184B9A4210D0184B9A421CBF13
:100DF000174B9A420AD0174B9A424FF001031FBF7C
:100E0000154B1A44B2FA82F2530900E00123002B79
:100E100004F1400218BF2C46002B04EB810418BFDC
:100E200005F140020CFA01F1C0E91B424167BDE83F
:100E3000B040704700590258000902400854025857
:100E40001C54025830540258445402585854025802
:100E50006C540258805402586CABFDA77047EFF3F6
:100E6000108072B6FEE700007CB5044600201646EE
:100E70000D46019094F85000012801D1022039E07C
:100E8000012084F850002046FFF760FD616D10B12D
:100E900041F010012AE041F2021021EA000005F4BD
:100EA000803140F00200606506F080400143206818
:100EB0008268114B1A40114341F000418160816802
:100EC000B1F1FF3F0DDC0199013101910B49019A0C
:100ED0008A42F4D3606D20F0120040F0100101202E
:100EE00004E0616D012060F30101002061650021D3
:100EF00084F8501002B070BDC0FFFE3F00F8C3255B
:100F00002DE9FC41044600200D46019094F8500064
:100F1000012801D1022331E1012084F8500020682A
:100F2000816811F0040F40F021812968AA4BB1F1CA
:100F3000FF3F11DD91FAA1F2194298464FF00103EB
:100F4000B2FA82F208BF8A0E02F01F0203FA02F21E
:100F5000C3691A43C26100E098466A68890E1F2679
:100F600001F01F0102F01F03C2F3012200EB820215
:100F70009E409940176BB74339431163816882687B
:100F8000D20842EA9101C9076FD12968AA6804F022
:100F900019FA9248036820686969C26803F07043CF
:100FA000B3F1805F02D102F01C0306E0D2064FF0DD
:100FB000100258BF1C22C36813402A69042A27D193
:100FC000026E2B6802F0F8429906B2EB836F02BF03
:100FD000026E22F000420266426E02F0F8428A423D
:100FE00002BF426E22F000424266826E02F0F84278
:100FF0008A4202BF826E22F000428266C26E02F016
:10100000F8428A4202BFC16E21F00041C1662CE065
:10101000734E06EA530399402B6803F0F8431943D3
:1010200000F1600353F8227007F00047394343F89A
:1010300022102A69697E53F82270012927F000479F
:1010400008BF47F0004743F822700022297E01299B
:1010500008BF4FF40062296901F01F0102FA01F193
:10106000026922F4F04211430161816811F0010F1D
:1010700041D1D5F800C0EB685A4ED0F8C01003F04B
:10108000180746EA0C060CEA080228FA07F786EA6F
:101090000806174031403943C0F8C01052498B420E
:1010A00026D19CFAACF1002A4FF08067B1FA81F1A9
:1010B00008BF4FEA9C614A1C07EB8161012702F0DF
:1010C0001E0301F0F84102F01F020A2B07FA02F793
:1010D00028BF41F000710A2B28BF0A3A394302EBBE
:1010E000420241EA0251AA6804F06CF9D5F800C046
:1010F000BCF1FF3F01DD00233DE02268B84D3B48D5
:1011000005F5807105F540738A42194618BF00F550
:101110004071AA4208BF19468B68B34E42F48071F1
:10112000B14205D1A968D5F8087147EA010600E087
:101130008668F1071AD103F0E076190229D42C4908
:101140008C4526D18242D6D1D0F8081321F0E07127
:10115000314341F40001C0F808139F4800689F49DB
:10116000B0FBF1F0022101EB40000DE0606D0123C6
:1011700040F020006065002084F85000D8B202B032
:10118000BDE8F08101980138019001980028F9D15B
:10119000B1E7D9010CD417498C4509D18242AAD1B3
:1011A000D0F8081321F0E071314341F080710FE075
:1011B00059024FF00003DED40F498C4508BF82422C
:1011C000D9D1D0F8081321F0E071314341F4800106
:1011D000C0F808138FE700BFFFFF0F000010005C8E
:1011E000FEFFFF7F0000F0FF0000FF470060025895
:1011F000000084CB000052C70000B8CF0068006C2C
:1012000070470000F8B504460020002C009037D04D
:10121000606D30B9204600F0F1F80020A06584F838
:101220005000206882686B4912F0005F1EBF826820
:101230000A408260826812F0805F13D1826801F1F7
:101240008051114041F08051816063490968634ACF
:10125000B1FBF2F1013101E00099013900910099EF
:101260000029F9D1816811F0805F0BD1616D0125F2
:1012700041F010016165A16D41F00101A16502E03D
:101280000125A3E000258168C1F38001626D02F0B1
:1012900010021143616D03D041F01000012594E06C
:1012A00021F4817141F002016165816811F0010F43
:1012B00020D1AE494B4A4C4E40F48073B34204D126
:1012C0008B68D1F80861334300E01368DB0711D164
:1012D00001F5807301F540769842334618BF02F558
:1012E0003E73884208BF33466068996821F47C11D8
:1012F0000843986001F040F9A168226B637D41F2D8
:1013000003060A43102942EA4332237F42EA03429A
:10131000114608BF41F00C01B04298BF1146012BA5
:1013200001BF206A314A02EB40400143606A20B1AC
:1013300000F478700843A16A01432068C2682C4B0E
:101340001A401143C16081688268D20842EA910163
:10135000C9072CD1217DE26A44F2030342EA8131BC
:10136000C2689A431143C16094F838200169012A88
:1013700010D104F13C0C9CE84C101E4F07EB0242CC
:101380001D4F394019431143314341EA0C0141F0EB
:10139000010101E021F0010101610169626B21F0AD
:1013A0007041114301612046FFF74CFA2068E26862
:1013B000016B21F00F01012A02BFA269013A11431A
:1013C00001630121606D61F301006065284601B091
:1013D000F0BD00BFC0FFFF5F20000020400D0300F4
:1013E0000020024008600258002102400000FEFF79
:1013F00003C0F0FF0000FFFF1EF800FCB0B5B2B064
:10140000044602A8C021C025FEF79AFF20681C4CA4
:1014100004F5D951884231D100204FF400210390C6
:10142000029104210491092105910221CDE90611BF
:10143000CDE9081520210A914FF440610B912B90C2
:1014400002A801F0B1FC08B1FFF709FD20684FF0D8
:10145000006140F080702060206800F08070019092
:101460000198206840F004002060206800F004002B
:10147000019001984FF0006002F0B8FD32B0B0BDAD
:10148000E0440258F8B504462068384D384A05F55E
:10149000807605F54071B04208BF0A46A84208BFF1
:1014A0000A469768806810F0040F03D194F8500042
:1014B000012802D1022001B0F0BD012084F85000C3
:1014C0002046FFF77BFA18B1002184F85010F2E7AC
:1014D000606D40F6017207F01F01904340F4807088
:1014E00060652068B04218BF054609B1854203D146
:1014F000626D22F480126265636D002213F4805FD6
:101500004FF000031CBFA36D23F006038542A365C3
:101510004FF01C03036084F8502008D0092917D825
:10152000012202FA01F140F22122114210D0C168D9
:1015300011F0007F1FBF616D012262F30D31616503
:1015400081680C4A114041F0040181600020B2E73B
:10155000606D40F480106065E86810F0007FF5D0A1
:10156000606D012161F30D306065EFE700200240FE
:1015700000630258C0FFFF7FF8B5044601F002F88F
:101580000546002C00F0A08094F83500022840F0B9
:101590009D802768A34EA44887421CBFA34887426A
:1015A00027D0A34887421CBFA248874221D0A24827
:1015B00087421CBFA14887421BD0A14887421CBF5D
:1015C000A048874215D0A04887421CBF9F48874249
:1015D0000FD09F4887421CBF9E48874209D09E4833
:1015E00087421CBF9D48874203D09D48874240F0F8
:1015F0000481386820F01E003946386051F8140F15
:1016000020F080000860F548874244D0F4488742C3
:101610001CBFF44887423ED0F34887421CBFF348C2
:10162000874238D0F24887421CBFF248874232D006
:10163000F14887421CBFF14887422CD0F0488742CE
:101640001CBFF048874226D0EF4887421CBFEF48B6
:10165000874220D0EE4887421CBFEF4887421AD00D
:10166000EC4887421CBFED48874214D0EC488742C3
:101670001CBFEC4887420ED0EB4887421CBFEB48AA
:10168000874208D0EA4887421CBFEA48874202D016
:10169000E948874204D1206E016821F4807101601D
:1016A000386820F001003860386810F0010F11D060
:1016B00000F068FF401B0628F6D320206065032059
:1016C00084F83500012093E0012094E080206065DB
:1016D00001208DE02068C14988421CBFC049884272
:1016E00026D0C04988421CBFBF49884220D0BF498C
:1016F00088421CBFBE4988421AD0BE4988421CBFDE
:10170000BD49884214D0BD4988421CBFBC498842AB
:101710000ED0BC4988421CBFBB49884208D0BB4997
:1017200088421CBFBC49884202D0B94988426CD16A
:10173000D4E9161202F01F023F2303FA02F28A6074
:10174000A649884244D0A64988421CBFA549884280
:101750003ED0A54988421CBFA449884238D0A4493C
:1017600088421CBFA349884232D0A34988421CBF8B
:10177000A24988422CD0A24988421CBFA149884274
:1017800026D0A14988421CBFA049884220D0A04948
:1017900088421CBFA04988421AD09E4988421CBF7B
:1017A0009E49884214D09E4988421CBF9D49884268
:1017B0000ED09D4988421CBF9C49884208D09C4954
:1017C00088421CBF9B49884202D09B4988420BD16A
:1017D000D4E919014160E06E30B1016821F48071F3
:1017E0000160D4E91C014160012084F8350000202B
:1017F000002184F8341001B0F0BD3868B7423FF4DE
:10180000F9AE20F00E003946FCE6D4E91612B042DB
:1018100002F01F023FF490AF012303FA02F24A6084
:101820008EE700BFB80402401000024028000240CA
:101830004000024058000240700002408800024010
:10184000A0000240B80002401004024028040240F8
:10185000400402405804024070040240A0040240C8
:101860008804024000286ED090F83510022968D113
:1018700001685A4A91422CD0594A91421CBF594A98
:10188000914226D0584A91421CBF584A914220D0DA
:10189000574A91421CBF574A91421AD0564A914228
:1018A0001CBF564A914214D0554A91421CBF554A1A
:1018B00091420ED0544A91421CBF544A914208D0E2
:1018C000534A91421CBF534A914202D0524A91421C
:1018D0003CD1042280F83520404881421CBF40485A
:1018E000814228D03F4881421CBF3F48814222D0DC
:1018F0003E4881421CBF3E4881421CD03D48814247
:101900001CBF3D48814216D03C4881421CBF3C4828
:10191000814210D03B4881421CBF3B4881420AD0E3
:101920003A4881421CBF3A48814204D0394881423A
:101930001CBF39488142086820F00100086000217E
:1019400002E0802141650121084670470A6822F0C3
:101950000E020A600A6822F001020A602F4A9142D0
:1019600014D02F4A91421CBF2E4A91420ED02E4ACB
:1019700091421CBF2D4A914208D02D4A91421CBF72
:101980002C4A914202D02C4A914218D1016E012377
:101990000A6822F480720A60D0E9161202F01F026F
:1019A00003FA02F24A60D0E919124A60C16E31B1FD
:1019B0000A6822F480720A60D0E91C124A60012190
:1019C00080F83510002180F83410026D002ABBD059
:1019D00080B590470021BDE88040B5E71000024087
:1019E00028000240400002405800024070000240BF
:1019F00088000240A0000240B800024010040240EB
:101A0000280402404004024058040240700402408E
:101A100088040240B8040240A0040240085402585E
:101A20001C54025830540258445402585854025816
:101A30006C54025894540258805402582DE9FC41C9
:101A4000044600200190DFF8E80BA56DD0F8008077
:101A50002F6829682068D44A904249D0D34A9042DE
:101A60001CBFD34A904243D0D24A90421CBFD24AB4
:101A700090423DD0D14A90421CBFD14A904237D0CB
:101A8000D04A90421CBFD04A904231D0CF4A9042B7
:101A90001CBFCF4A90422BD0CE4A90421CBFCE4AA8
:101AA000904225D0CD4A90421CBFCD4A90421FD0D3
:101AB000CC4A90421CBFCC4A904200F02581CB4AD0
:101AC00090421CBFCA4A904200F01E81C94A90420F
:101AD0001CBFC94A904200F01781C84A90421CBFFF
:101AE000C74A904200F01081C649884240F03382D4
:101AF000E16D082201F01F018A403A423DD0AA4B15
:101B000098422DD0A94B98421CBFA94B984227D090
:101B1000A84B98421CBFA84B984221D0A74B984293
:101B20001CBFA74B98421BD0A64B98421CBFA64B8C
:101B3000984215D0A54B98421CBFA54B98420FD098
:101B4000A44B98421CBFA44B984209D0A34B984287
:101B50001CBFAC4B984203D0A14B984240F0FD8192
:101B6000042306681E4208D0036823F004030360C0
:101B7000AA60626D42F00102626501228A403A4227
:101B80003BD0894B98422DD0884B98421CBF884B44
:101B9000984227D0874B98421CBF874B984221D050
:101BA000864B98421CBF864B98421BD0854B98426F
:101BB0001CBF854B984215D0844B98421CBF844B68
:101BC00098420FD0834B98421CBF834B984209D058
:101BD000824B98421CBF8B4B984203D0804B98425B
:101BE00040F0BD8100F11406802336681E421FBFFD
:101BF000AA60626D42F00202626504228A403A42A3
:101C000039D0694B98422DD0684B98421CBF684B25
:101C1000984227D0DB4B98421CBFDB4B984221D027
:101C2000DA4B98421CBFDA4B98421BD0D94B9842F2
:101C30001CBFD94B984215D0D84B98421CBFD84BEB
:101C400098420FD0D74B98421CBFD74B984209D02F
:101C5000D64B98421CBFD74B984203D0D44B9842E6
:101C600040F08081022306681E421FBFAA60626D99
:101C700042F004026265102202FA01F1394200F0DA
:101C8000C780BD4A90422DD0BC4A90421CBFBC4A7E
:101C9000904227D0BB4A90421CBFBB4A904221D001
:101CA000BA4A90421CBFBA4A90421BD0B94A9042ED
:101CB0001CBFB94A904215D0B84A90421CBFB84ADE
:101CC00090420FD0B74A90421CBFB74A904209D009
:101CD000B64A90421CBFB74A904203D0B44A9042E1
:101CE00040F0428108220368134200F09180A9600D
:101CF0000268016812F4802F3BD1C9055EBF0168FC
:101D000021F00801016036E00268E36D03F01F0373
:101D100012F0040F1EBF04279F4017EA010609D0E6
:101D200011046F601FD491065EBF016821F00401A9
:101D300001601CE0970720D502279F4017EA0106A3
:101D40001BD011046F6000F11181910600F1128126
:101D5000016821F00A010160012084F835000020AB
:101D600084F8340006E1D00301D4A16CEDE0216CCD
:101D7000EBE0080348D4216C47E0120740F1EB8008
:101D800008229A40114000F0E680016821F00E011F
:101D900001600121E06D00F01F0001FA00F06860B1
:101DA000616584F83510CCE0100002402800024044
:101DB000400002405800024070000240880002408B
:101DC000A0000240B8000240100402402804024073
:101DD000400402405804024070040240880402405B
:101DE000A004024094540258085402581C5402584B
:101DF0003054025844540258585402586C540258F3
:101E000080540258B8040240A16C09B120468847AA
:101E1000E06D00F01F01202000FA01F23A426DD07F
:101E20002068554E1023B0422DD0544EB0421CBFF6
:101E3000534EB04227D0534EB0421CBF524EB04218
:101E400021D0524EB0421CBF514EB0421BD0514E19
:101E5000B0421CBF504EB04215D0504EB0421CBFD5
:101E60004F4EB0420FD04F4EB0421CBF4E4EB0420C
:101E700009D04E4EB0421CBF4D4EB04203D04D4E25
:101E8000B04218BF022307681F4237D0AA6094F8F7
:101E900035300268042B19D122F016020260426923
:101EA00022F080024261226C0AB9A26C1AB1026867
:101EB00022F0080202603F208840A860012084F8D8
:101EC0003500002084F83400216D3EE001685203A3
:101ED0000CD4C9050ED4016821F010010160012065
:101EE00084F83500002084F8340003E0080301D4AE
:101EF000616C00E0E16B09B120468847606D50B32A
:101F0000606D10F0010F1FD04FF41650B8FBF0F1C8
:101F1000042084F835002068026822F00102026083
:101F2000019A01328A42019203D8026812F0010F2D
:101F3000F6D10068012100F0010041EA400084F878
:101F40003500002084F83400E16C002908BFBDE8AA
:101F5000FC8120468847BDE8FC81082301E6002378
:101F6000064642E600237EE60422BCE6D00301D406
:101F7000616CEAE7E16BE8E71000024028000240EC
:101F800040000240580002407000024088000240B9
:101F9000A0000240B80002401004024028040240A1
:101FA0004004024058040240700402408804024089
:101FB000A0040240B80402402DE9F041044600F0BC
:101FC000E1FA0546002C00F006812068DD498842D0
:101FD00048D0DD4988421CBFDC49884242D0DC49F8
:101FE00088421CBFDB4988423CD0DB4988421CBF89
:101FF000DA49884236D0DA4988421CBFD94988423A
:1020000030D0D94988421CBFD84988422AD0D84903
:1020100088421CBFD749884224D0D74988421CBF78
:10202000D64988421ED0D64988421CBFD54988422D
:1020300000F09280D44988421CBFD449884200F005
:102040008B80D34988421CBFD249884200F08480EB
:10205000D14988421CBFD14988427DD0D0498842AD
:1020600040F0B480022184F83510002184F8341047
:10207000B44988421CBFB449884228D0B349884239
:102080001CBFB349884222D0B24988421CBFB24922
:1020900088421CD0B14988421CBFB149884216D041
:1020A000B04988421CBFB049884210D0AF4988422D
:1020B0001CBFAF4988420AD0AE4988421CBFAE4916
:1020C000884204D0B64988421CBFAC4988420168A6
:1020D00021F00101016005E000F054FA401B0528E1
:1020E00072D82068016811F0010FF5D10168AE4A7D
:1020F00004F1100C01EA0208D4E902259CE848101A
:10210000D4E90771D4F824E042EA0802BEF1040FD2
:1021100042EA050242EA030242EA060242EA0C02ED
:1021200042EA070241EA020102BFD4E90B2311434C
:1021300019439E4A1268B2F1005F55D36568A5F154
:102140003F02132A4AD8012303FA02F2984B1A429B
:1021500044D041F4801147E0022184F83510002179
:1021600084F834100268D4E90237D4E90465D4E96C
:1021700006CED4F82080802B6FF3101208BF4FF4E6
:102180008041402B42EAD70208BF1021114341EAA7
:10219000D60141EAD50141EADC0141EADE0141EA2A
:1021A000181101607F4908441421B0FBF1F0800050
:1021B000E0652046FEF74CFDE16D012201F01F01B4
:1021C00002FA01F141604CE0202000E0402060650F
:1021D000032084F835000120BDE8F081A5F1290233
:1021E000062A38BF41F480110160BEF1040F416935
:1021F00021F0070141EA0E0128D1D4E90A5329430D
:1022000023B3BCF5005F08D0BCF1000F11D1022D43
:1022100012D0012D07D07DB118E0032D16D8DFE8CC
:1022200005F00E0B0E02A3F1C072B2FA82F252094F
:1022300004E0032D03D309D1C3F3006232B140207F
:102240006065012084F83500BDE8F08141612046D9
:10225000FEF7FEFCE16D3F2201F01F0102FA01F1E1
:10226000816020683749884244D0374988421CBF82
:10227000364988423ED0364988421CBF354988429B
:1022800038D0354988421CBF3449884232D034495D
:1022900088421CBF334988422CD0334988421CBF36
:1022A0003249884226D0324988421CBF314988428F
:1022B00020D0314988421CBF304988421AD0384961
:1022C00088421CBF2F49884214D02F4988421CBF26
:1022D0002E4988420ED02E4988421CBF2D49884283
:1022E00008D02D4988421CBF2549884202D02B497D
:1022F00088421FD12046FEF71BFDA068802806BF3C
:10230000002060606068216EC2B201380A60072850
:10231000D4E919124A6009D82046FEF74FFDE06E55
:1023200000210160D4E91C01416003E00020C4E900
:102330001B00606700200121606584F83510BDE84E
:10234000F08100BF1000024028000240400002401F
:10235000580002407000024088000240A000024085
:10236000B800024010040240280402404004024029
:10237000580402407004024088040240A004024055
:1023800094540258085402581C54025830540258AD
:1023900044540258585402586C54025880540258FD
:1023A000B8040240F8ABFDA73F8010FE0010005CAF
:1023B0000F030F0070B505466E1C00F0E3F80446ED
:1023C0001EB19A480078054401E04FF0FF3500F057
:1023D000D9F8001BA842FAD370BD00BF2DE9FC4F0D
:1023E0005D4A0A274FF0000B4FF0010E4FF0030A31
:1023F0004FF00F094FF0000C904208BF0927574AD1
:1024000002444FEAB223092B38BF4FEAB2270097A4
:1024100000270A6832FA07F308BFBDE8FC8F0EFAFE
:1024200007F312EA030400F090804D6805F0030200
:10243000A2F10108B8F1010F18D8D0F80890CE68C1
:102440000AFA0CF829EA080806FA0CF64FF00F0908
:1024500046EA08068660C5F3001606FA07F84668DD
:1024600026EA030343EA0803436001E0032A1DD080
:10247000C6680AFA0CF3022A26EA03038E6806FAF3
:102480000CF643EA0603C36010D1354D0BF01C0275
:1024900009FA02F305EA570505442E6A26EA030302
:1024A0000E6906FA02F21A432A624D68066805F0C0
:1024B00003020AFA0CF315F4403F02FA0CF226EA82
:1024C000030342EA030202603FD0614A0BF00C06AC
:1024D00009FA06F5136843F002031360126802F06C
:1024E00002020192019A1F4B27F0030252F8038067
:1024F00028EA0508009D05FA06F648EA0605D550C3
:102500004FF0B0452A684B68A24313F4801F18BFF0
:10251000224313F4001F2A60134A156825EA0405B4
:1025200018BF254313F4003F1560D2F8805025EA08
:10253000040518BF254313F4803FC2F88050D56FBF
:1025400025EA040518BF2543D5670BF1040B0CF1F0
:10255000020C01375DE700BF002402580000FEA70F
:10256000FCFFFF7F08040058040000580069084081
:1025700018BF01207047000001480068000C704738
:102580000010005C29488068704700BF2748017828
:10259000826811448160704780B5032000F094F890
:1025A00001F0ECF90F496B4B0A68C2F3032209688A
:1025B0009A5C01F00F01595C02F01F02D0400A4AF8
:1025C00001F01F0120FA01F1116019490860002093
:1025D00000F00CF808B1012080BD00F02BF80020BD
:1025E00080BD00BF184402582400002070B50F4E73
:1025F00004463078B0B14FF47A71B1FBF0F00C4979
:102600000968B1FBF0F001F0FBFC01250F2C0AD8A2
:1026100048B94FF0FF3021460022002500F028F88D
:10262000746000E00125284670BD00BF1400002042
:102630002000002081B00648016841F002010160DD
:10264000006800F002000090009801B0704700BFE1
:10265000F4440258002808DB00F01F010122400961
:1026600002FA01F1014A42F82010704700E100E04F
:10267000B0B5144C1A4D00F00F03B0F1FF3FA3F1B9
:1026800004032B4403F10C03C8BF03192868C0F3EB
:102690000220051DC41E80F00700072D4FF0010524
:1026A00038BF0024042828BF042005FA00F00138B0
:1026B000084005FA04F10F31A04011400843000121
:1026C0001870B0BD00E400E005494FF6FF030A684A
:1026D0001A4060F30A22034810430860704700BFA5
:1026E0000CED00E00000FA05B0B5114D2A6829682C
:1026F00012F0040F05D101F00701081A18BF0120DC
:10270000B0BD21F0070108432860FFF73BFF0446F6
:1027100055F8080C10F4005F1CBF0020B0BDFFF797
:1027200031FF001BB0F57A7F84BF0120B0BDEFE719
:102730000C48025880B501F0E1F80549054A0968DE
:10274000C1F30211515C01F01F01C84080BD00BF00
:10275000204402582094000810B5504CD4F828C0EA
:10276000A26AE36A616B03F00103C2F305125B42E4
:10277000002A03EAD1016FF35F3100EE101AB8EEC0
:10278000400A20D00CF00303022B20D0012B22D0D2
:102790002BBB02EE102A9FED431AB8EE422A2168A5
:1027A00020EE010A11F0200F61D1216B9FED401A3C
:1027B0006FF35F2181EE022A03EE101AB8EE433A5E
:1027C00030EE031A1EE00021C0E900114DE0216B3C
:1027D0009FED332A06E0216B9FED332A02E0216B47
:1027E0009FED332A01EE102A6FF35F219FED2D3A02
:1027F000B8EE414A01EE101AB8EE411A82EE042AF0
:1028000000EE031A216BB7EE000A31EE001A22EE39
:10281000011AC1F3462103EE101AB8EE433A33EE23
:10282000002A81EE022ABCEEC22A80ED002A216B2A
:10283000C1F3064102EE101AB8EE422A32EE002A27
:1028400081EE022ABCEEC22A80ED012A216BC1F37F
:10285000066102EE101AB8EE422A32EE000A81EE4C
:10286000000ABCEEC00A10EE101A816010BD21688B
:10287000C1F3C1010D4A22FA01F1226B03EE101AD5
:102880006FF35F2201EE102AB8EE411AB8EE433A18
:1028900030EE011A83EE022AB4E700BF004402586A
:1028A00020BCBE4B000000390024744A0090D003C5
:1028B0000024744C10B54E4CD4F828C0A26AE36AC8
:1028C000E16BC3F30013C2F305325B42002A03EA53
:1028D000D1016FF35F3100EE101AB8EE400A20D03C
:1028E0000CF00303022B24D0012B1ED0EBB902EE17
:1028F000102A9FED411AB8EE422A216820EE010A03
:1029000011F0200F5DD1A16B9FED3E1A6FF35F2197
:1029100081EE022A03EE101AB8EE433A30EE031AA3
:102920001AE00021C0E9001149E0A16B9FED332AB4
:1029300002E0A16B9FED2F2A01EE102A6FF35F21B9
:102940009FED2D3AB8EE414A01EE101AB8EE411A49
:1029500082EE042A00EE031AA16BB7EE000A31EEF4
:10296000001A22EE011AC1F3462103EE101AB8EE46
:10297000433A33EE002A81EE022ABCEEC22A80EDF1
:10298000002AA16BC1F3064102EE101AB8EE422AEA
:1029900032EE002A81EE022ABCEEC22A80ED012A24
:1029A000A16BC1F3066102EE101AB8EE422A32EEB4
:1029B000000A81EE000ABCEEC00A10EE101A816017
:1029C00010BD2168C1F3C1010D4A22FA01F1A26BC9
:1029D00003EE101A6FF35F2201EE102AB8EE411ACF
:1029E000B8EE433A30EE011A83EE022AB4E700BF94
:1029F0000044025820BCBE4B000000390024744A39
:102A00000090D0030024744C10B54E4CD4F828C06C
:102A1000A26AE36A616CC3F30023C2F305525B420E
:102A2000002A03EAD1016FF35F3100EE101AB8EE0D
:102A3000400A20D00CF00303022B24D0012B1ED01F
:102A4000EBB902EE102A9FED411AB8EE422A216836
:102A500020EE010A11F0200F5DD1216C9FED3E1A8E
:102A60006FF35F2181EE022A03EE101AB8EE433AAB
:102A700030EE031A1AE00021C0E9001149E0216C90
:102A80009FED332A02E0216C9FED2F2A01EE102AE0
:102A90006FF35F219FED2D3AB8EE414A01EE101A17
:102AA000B8EE411A82EE042A00EE031A216CB7EE4A
:102AB000000A31EE001A22EE011AC1F3462103EE9C
:102AC000101AB8EE433A33EE002A81EE022ABCEE29
:102AD000C22A80ED002A216CC1F3064102EE101AD1
:102AE000B8EE422A32EE002A81EE022ABCEEC22A59
:102AF00080ED012A216CC1F3066102EE101AB8EED6
:102B0000422A32EE000A81EE000ABCEEC00A10EE44
:102B1000101A816010BD2168C1F3C1010D4A22FA6B
:102B200001F1226C03EE101A6FF35F2201EE102AFE
:102B3000B8EE411AB8EE433A30EE011A83EE022A9B
:102B4000B4E700BF0044025820BCBE4B000000396F
:102B50000024744A0090D0030024744CF0B589B06E
:102B600002468C4D82F4002008438B488B4F8C4EDC
:102B70008C4B00F0728082F400740C4330D082F4ED
:102B800080640C4300F0758082F400640C4334D000
:102B900082F480540C4300F0778082F400540C439C
:102BA00000F0A98082F480440C4331D082F40044C8
:102BB0000C433BD082F480340C4345D082F48072C5
:102BC000114340F0DF80196D01F00701042900F284
:102BD000D980DFE811F064006D009D00D800760018
:102BE000196DC1F38211042900F2CC80DFE811F0E5
:102BF000570060009000CB006900996DC1F302613D
:102C0000042900F2BF80DFE801F04A5383BE5C0074
:102C1000986DC0F30270052800F2B480DFE800F080
:102C20000381969FA98AFFF785FDACE0186D00F03F
:102C30004050B0F1005F00F07480B0F1805F2ED0A2
:102C4000002800F077809DE0D96C186811F4803F6F
:102C500040F07580800126D494E0986D00F44030F7
:102C6000B0F5003F2DD0B0F5803F00F08780F8B17F
:102C700088E0996DC1F34251042900F28380DFE8B6
:102C800001F00E1747822000196DC1F302310429AB
:102C900000F27880DFE801F0030C3C77150018683B
:102CA00010F0007F6ED006A8FFF756FD07986AE087
:102CB000186810F0006F65D003A8FFF7FBFD0398BC
:102CC00061E0D96C1A68186811F0405102D112F015
:102CD000040249D1B1F1805F03D110F4807028461D
:102CE00051D1186810F4003018BF3846B1F1005FB8
:102CF00018BF002047E0186DC0F30240052841D8F6
:102D0000DFE800F0030F242D371800F017FE3AE03B
:102D1000186810F0005F35D06846FFF775FE009820
:102D200031E0186810F0006F2CD003A8FFF7C2FD47
:102D3000049828E01868800307EAE07023E00001A7
:102D400020D503A8FFF7B6FD05981CE0186810F021
:102D5000005F17D06846FFF757FE019813E0186828
:102D600010F0040F0ED01868C0F3C10026FA00F06E
:102D700009E01868C00505EAE07004E0186810F082
:102D8000005F02D1002009B0F0BD6846FFF73CFEAD
:102D90000298F8E700093D000080BB0040787D0103
:102DA0000090D003004402582DE9F0470446E07833
:102DB000A84F000722D5A06E4FEA3051032908D84A
:102DC000DFE801F002090F17F96941F40031F961F8
:102DD0000FE0012613E004F10800022102F070FD6B
:102DE00004E004F12800022102F0F0FD064636B9A5
:102DF000A06E396C21F440110843386400266078D5
:102E0000BA46C00701D1354628E0A06D04280BD88A
:102E10003546DFE800F0030C12181800F869354653
:102E200040F40030F8610EE00125012717E004F1BD
:102E30000800002102F044FD04E004F12800002114
:102E400002F0C4FD0546002D2F4608D1524600254C
:102E5000106CA16D20F007000843106437466078BD
:102E6000800729D5E06D4FEAB01004280AD8DFE8C2
:102E700000F0030C121818005146C86940F40030E5
:102E8000C8610EE00125012617E004F108000021C9
:102E900002F016FD04E004F12800002102F096FD86
:102EA0000546002D2E4608D152460025106CE16DD6
:102EB00020F4E070084310643E466078400702D476
:102EC000B04657462CE0D4F8A80057464FEA705059
:102ED000042809D8DFE800F0030C12181800F8697C
:102EE00040F40030F8610FE001254FF0010817E0D1
:102EF00004F10800002102F0E3FC04E004F12800E2
:102F0000002102F063FD0546002DA84608D1B86CEB
:102F1000D4F8A8100025B04620F460000843B86437
:102F2000607800072AD5D4F8AC004FEA3060042856
:102F300009D8DFE800F0030B11171700F86940F417
:102F40000030F8610EE00125012718E004F10800C7
:102F5000002102F0B5FC04E004F12800002102F099
:102F600035FD0546002D2F4609D152460025906CAF
:102F7000D4F8AC1020F0E060084390644746E07855
:102F8000800722D5E06C4FEA3010032809D8DFE82B
:102F900000F011020B115146C86940F40030C861BD
:102FA00008E00125012611E004F10800022102F0E9
:102FB00087FC0546002D2E4608D152460025D06BD1
:102FC000E16C20F030000843D0633E466078C006D4
:102FD00029D5206E4FEA303004280AD8DFE800F007
:102FE000030C121818005146C86940F40030C8613B
:102FF0000EE00125012717E004F10800002102F08E
:103000005FFC04E004F12800002102F0DFFC05462B
:10301000002D2F4608D152460025106C216E20F459
:10302000E0400843106437466078800625D5606E1E
:103030004FEA304005280AD8DFE800F014030E14E8
:10304000141404F10800012102F03AFC09E0012502
:10305000012613E01044025804F12800012102F077
:10306000B5FC0546002D2E4608D152460025106CB1
:10307000616E20F4E020084310643E46607840060C
:1030800025D5D4F8B0004FEA307005280AD8DFE81B
:1030900000F012030C12121204F10800012102F0D8
:1030A0000FFC07E00125012712E004F128000121AF
:1030B00002F08CFC0546002D2F4609D15246002512
:1030C000906CD4F8B01020F0E0400843906437468C
:1030D000607800061ED5206F88B1B0F1005F08D07F
:1030E000B0F1805F2AD15146C86940F40030C86110
:1030F00005E004F10800012102F0E2FB0546002D85
:103100002E4608D152460025106C216F20F0405009
:10311000084310643E46E078C00702D1B0465746E7
:1031200024E0A06C574603280BD8DFE800F0140217
:103130000E14F86940F40030F8610CE00125012616
:10314000E9E701254FF0010810E004F10800022131
:1031500002F0B6FB0546002DA84607D1F86BA16C1E
:103160000025B04620F003000843F863A07840062D
:1031700001D4474618E0D7F8F00340F48070C7F850
:10318000F003FFF7FFF90646D7F8F00310F4807F4D
:1031900007D1FFF7F7F9801B6428F5D9032503272A
:1031A00002E0002D2F4612D02078C0074ED0E06FED
:1031B0004FEAF000052835D8DFE800F03D03373D41
:1031C0003D3D04F10800012102F07AFB32E0534654
:1031D000196ED4F8B400414011F4407F0BD0196E41
:1031E0001A6E42F4803221F440711A661A6E22F48B
:1031F00080321A661966B0F5807F40F05A82FFF778
:10320000C1F9064641F28839032503275346186E53
:1032100010F0020F40F04B82FFF7B4F9801B4845D5
:10322000F4D9C1E70125012611E004F128000121AC
:1032300002F0CCFB0546002D2E4608D15246002553
:10324000506CE16F20F03800084350643E4620780F
:10325000800721D5A06F05280AD8DFE800F0120307
:103260000C12121204F10800012102F029FB07E000
:103270000125012711E004F12800012102F0A6FB3D
:103280000546002D2F4608D152460025506CA16FEF
:1032900020F007000843506437462078400723D5C4
:1032A000D4F8940005280AD8DFE800F012030C12C5
:1032B000121204F10800012102F002FB07E00125CF
:1032C000012612E004F12800012102F07FFB0546EF
:1032D000002D2E4609D152460025906CD4F894104A
:1032E00020F00700084390643E462078800625D5EC
:1032F000D4F890004FEA307005280AD8DFE800F0D3
:1033000012030C12121204F10800002102F0D8FA84
:1033100007E00125012712E004F12800022102F054
:1033200055FB0546002D2F4609D152460025506C0D
:10333000D4F8901020F0E0400843506437462078DD
:10334000400625D5D4F89C004FEAB02005280AD8BD
:10335000DFE800F012030C12121204F10800002141
:1033600002F0AEFA07E00125012612E004F1280080
:10337000022102F02BFB0546002D2E4609D15246B4
:103380000025906CD4F89C1020F4E0500843906421
:103390003E462078000625D5D4F8A0004FEA7030CC
:1033A00005280AD8DFE800F012030C12121204F10B
:1033B0000800002102F084FA07E00125012712E04D
:1033C00004F12800022102F001FB0546002D2F46E2
:1033D00009D152460025906CD4F8A01020F460402A
:1033E000084390643746206810F0080F15D0D4F8D1
:1033F0008410B1F5805F0AD104F12800022102F0A7
:10340000E5FA002818BF01272068D4F88410534635
:103410005A6C22F4405211435964C10615D5D4F8B0
:103420009810B1F5807F0AD104F12800022102F042
:10343000CDFA002818BF01272068D4F89810534609
:103440009A6C22F4407211439964000320D5D4F899
:10345000A400B0F5003F0FD0B0F5803F06D068BBA8
:1034600004F10800002102F02BFA04E004F1280026
:10347000022102F0ABFA0546002D2E4609D1524634
:103480000025906CD4F8A41020F4403008439064D8
:103490003E46A078400726D5D4F88800B0F5401FF6
:1034A00015D0B0F5001F0CD0B0F5801F40F0FA80A9
:1034B0005146C86940F40030C86108E00125012682
:1034C000E7E704F12800012102F080FA0546002D0B
:1034D0002F4609D152460025506CD4F8881020F4AC
:1034E0004010084350643746A078C00701D13E46DB
:1034F0001EE0206DB0F5803F06D0B8B95146C869CE
:1035000040F40030C86105E004F10800022102F037
:10351000D7F90546002D2E460AD152460025D06B1C
:10352000216D20F480300843D063E0E701250126B7
:10353000216811F0005F01D1606809E004F1280002
:10354000022102F043FA002818BF0126D4E9001036
:103550008A031BD5D4F880206FF0010303EB3223DC
:10356000022B0BD34FEA322343B1012B40F09D8055
:10357000DAF81C3043F40033CAF81C303DB9DAF8ED
:10358000443023F440731A43CAF844203546CA0233
:1035900007D5DAF84020636F22F000421A43CAF8D8
:1035A0004020CA0008D5DAF80020D4F8B83022F458
:1035B00080421A43CAF800208A0207D5DAF8402070
:1035C000E36E22F080721A43CAF840204A000CD5FC
:1035D000DAF8002022F40042CAF80020D4F8BC2017
:1035E000DAF800301A43CAF80020B1F1FF3F07DCD7
:1035F000DAF83C20636D22F040521A43CAF83C20AE
:10360000090208D5DAF84410D4F88C2021F44001DE
:103610001143CAF84410C10708D004F10800002182
:1036200002F04EF9002818BF05466068810708D5EA
:1036300004F10800012102F043F9002818BF0546F3
:103640006068410708D504F10800022102F038F94A
:10365000002818BF05466068010708D504F1280056
:10366000002102F0B3F9002818BF05466068C106C2
:1036700008D504F12800012102F0A8F9002818BF9C
:1036800005466068800607D504F12800022102F093
:103690009DF9002818BF0546002D18BF01252846B2
:1036A000BDE8F087012501271EE701256FE7D4F863
:1036B000B400196800F440720025B2F5407F21F48F
:1036C0007C5102BF054A02EA101211436FF31F300A
:1036D0001960196E084318664BE500BFCFFFFF0065
:1036E0002DE9F84304468846002C00F0FE80814B0B
:1036F000186800F00F0040450BD2186820F00F004A
:1037000040EA08001860186800F00F00404540F0DB
:10371000EC802068E44F10F0040F0AD02169BA69E8
:1037200002F07002914281BFBA6922F07002114327
:10373000B96101070AD56169FA6902F07002914224
:1037400081BFFA6922F070021143F961C1060AD5FE
:10375000A169FA6902F4E062914281BFFA6922F438
:10376000E0621143F96181060AD5E1693A6A02F023
:103770007002914281BF3A6A22F0700211433962AD
:1037800081070AD5E168BA6902F00F02914281BF50
:10379000BA6922F00F021143B961C10738D0B86984
:1037A000A16820F470600843B8616068032806D0FF
:1037B000022809D1396811F4003F0ED195E039682B
:1037C00011F0007F09D190E03968012802D1C905C4
:1037D00003D48AE0490740F188803969994621F08D
:1037E000070108433861FEF7CDFE064641F28835F1
:1037F0003869616800F03800B0EBC10F06D0FEF701
:10380000C1FE801BA842F3D903206FE020684B461D
:1038100081070AD5E168BA6902F00F0291423FBF01
:10382000BA6922F00F021143B961196801F00F0162
:1038300041450AD9196821F00F0141EA08011960D0
:10384000196801F00F0141454FD141070AD521699F
:10385000BA6902F0700291423FBFBA6922F0700269
:103860001143B96101070AD56169FA6902F0700272
:1038700091423FBFFA6922F070021143F961C1061B
:103880000AD5A169FA6902F4E06291423FBFFA6980
:1038900022F4E0621143F96180060AD5E069396AD1
:1038A00001F0700188423FBF396A21F0700108437E
:1038B000386200F063F8B9692F4AC1F30321515C03
:1038C00001F01F01C840B96901F00F01515C194AAC
:1038D00001F01F0120FA01F1116017490860064844
:1038E0000068BDE8F443FEF781BE0120C0B201B01C
:1038F000BDE8F083002000521800002080B500F0E1
:103900003DF80B491C4B0A68C2F303229A5C02F093
:103910001F0220FA02F20868064900F00F00185C46
:1039200000F01F0022FA00F0086003490A6080BD21
:1039300018440258240000202000002080B5FFF722
:10394000DDFF0C490C4A0968C1F30211515C01F01A
:103950001F01C84080BD00BF80B5FFF7CFFF0549FC
:10396000054A0968C1F30221515C01F01F01C840FA
:1039700080BD00BF1C440258209400084A490869D1
:10398000C0F3C20349484A4A032B10D0022B04BF9C
:103990004848704753B9086810F0200F10461FBF01
:1039A0000868C0F3C10022FA00F07047704780B584
:1039B000D1F828C0D1F828E0CB6A486B03F00103A6
:1039C0005B4203EAD003CEF305106FF35F330028A8
:1039D00000EE103AB8EE400ABDE8804004BF002077
:1039E00070470CF00303022B20D0012B1AD0CBB967
:1039F00002EE100A9FED311AB8EE422A086820EE56
:103A0000010A10F0200F39D1086B9FED2E1A6FF3C9
:103A10005F2081EE022A03EE100AB8EE433A30EE40
:103A2000031A16E00A6B9FED262A02E00A6B9FED4F
:103A3000222A01EE100A6FF35F229FED203AB8EEC2
:103A4000414A01EE102AB8EE411A82EE042A00EE35
:103A5000031A086BB7EE000A31EE000A22EE000AE4
:103A6000C0F34620013001EE100AB8EE411A80EE94
:103A7000010ABCEEC00A10EE100A70470868C0F3D5
:103A8000C10022FA00F00A6B03EE100A6FF35F2206
:103A900001EE102AB8EE411AB8EE433A30EE011AA0
:103AA00083EE022AD5E700BF0044025800093D001A
:103AB0000090D00340787D0120BCBE4B000000394F
:103AC0000024744A0024744CF8B50446002C00F01D
:103AD0009D812078CE4EC0074CD03169B06A01F08C
:103AE0003801102915D0182904BF00F0030002285E
:103AF0000FD06068A0B1B0F5803F06D03168B0F556
:103B0000A02F23D141F480203060306840F4803011
:103B100022E0306810F4003F2CD0606850BB75E1A3
:103B2000306820F480303060306820F480203060CD
:103B3000FEF728FD0546306810F4003F1AD0FEF766
:103B400021FD411B03206429F5D94BE221F480308B
:103B50003060306820F480203060FEF713FD0546A9
:103B6000306810F4003F05D1FEF70CFD401B6428BF
:103B7000F6D962E12078800760D53169B06A11F02A
:103B8000380118D0182908BF5FEA807013D0E068A8
:103B90003168E0B321F0190108433060FEF7F2FC10
:103BA0000546306810F0040F20D1FEF7EBFC401BF7
:103BB0000228F6D941E13168E06811F0040F02D023
:103BC000002800F02381316821F01901084330609A
:103BD000FEF7D8FC0546306810F0040F06D1FEF75A
:103BE000D1FC411B03200229F5D9FBE1FEF7C4FCFF
:103BF000216941F2030290421AD80803402908BF04
:103C00004FF40030716821F47C31084315E021F055
:103C100001003060FEF7B6FC0546306810F0040F76
:103C20000CD0FEF7AFFC411B03200229F5D9D9E1E6
:103C3000706820F0FE4040EA016070602078C006A5
:103C400044D53169B06A01F0380108291BD0182920
:103C500004BF00F00300012815D0E1693068002995
:103C600000F01C8140F080003060FEF78BFC0546C0
:103C7000306810F4807F0ED1FEF784FC411B0320D6
:103C80000229F5D9AEE1306810F4807F1CBFE069ED
:103C9000802840F0BB80FEF76FFC216A41F20302EE
:103CA00090420BD88A062029304608BF4FF0804248
:103CB00050F8041F21F0F841114306E0304650F857
:103CC0000C2F22F07C5242EA01610160207800074B
:103CD00023D56169706F79B140F001007067FEF71C
:103CE00051FC0546706F10F0020F16D1FEF74AFC2A
:103CF000401B0228F6D9A0E020F001007067FEF713
:103D000041FC0546706F10F0020F06D0FEF73AFC3A
:103D1000411B03200229F5D964E12078800623D5D0
:103D2000A169306879B140F480503060FEF72AFC18
:103D30000546306810F4005F16D1FEF723FC401BE7
:103D40000228F6D979E020F480503060FEF71AFCA2
:103D50000546306810F4005F06D0FEF713FC411BE7
:103D600003200229F5D93DE12078400752D4676A43
:103D7000002F00F01E81306900F0380018286DD146
:103D8000B16A306B012F41D0A26A01F00303934264
:103D90003CD1E26AC1F30511914237D1226B014651
:103DA0006FF35F21013A914230D1C0F34621626B3B
:103DB000013A91422AD1C0F30641A26B013A9142E5
:103DC00024D1C0F30660E16B013988421ED1706BCB
:103DD000A16CC0F3CC00814200F0EB80F06A20F0CF
:103DE0000100F062FEF7CEFB0546FEF7CBFBA842D2
:103DF000FBD0706B4FF6F8718843A16C40EAC100AC
:103E00007063F06A40F00100F062D2E00120E9E066
:103E100000440258D6F8000440F48070C6F800044C
:103E2000FEF7B0FB0546D6F8000410F4807F06D1FB
:103E3000FEF7A8FB401B6428F5D90320D2E0A06858
:103E4000F0B3012806D0316F052840F0B48041F06E
:103E500004003067306F40F00100B2E0306820F0BD
:103E600080703060FEF78EFB0546022F0AD1306865
:103E700010F0007F3DD0FEF785FB411B0320022997
:103E8000F5D9AFE0306810F0007F00F09280FEF7C7
:103E900079FB411B03200229F4D9A3E020F0800024
:103EA0003060FEF76FFB0546306810F4807F3FF40A
:103EB0000DAFFEF767FB411B03200229F4D991E007
:103EC000306F20F001003067306F20F00400306761
:103ED000FEF758FB054641F28837306F10F0020FAD
:103EE0003FF445AFFEF74EFB411B0320B942F4D926
:103EF00078E0B06A40F2F33104F130034FF47E47CA
:103F00008843D4E90A12084340EA0210B0620FCB9A
:103F100007EB412100F2FF1089B26FF35F200843E5
:103F20004FF4FE0101EB024101F4FE0108434FF0A2
:103F3000FE4101EB036101F0FE4108434FF6F871C9
:103F40003063F06A20F00100F062706B8843A16C6E
:103F500040EAC1007063F06A216C20F00C00084355
:103F6000F062F06A616C20F002000843F062F06ACF
:103F700040F48030F062F06A40F40030F062F06AA1
:103F800040F48020F062F06A40F00100F062306896
:103F900040F080703060FEF7F5FA0446306810F0AB
:103FA000007F06D1FEF7EEFA011B03200229F5D9A6
:103FB00018E0002016E021F001003067306F20F09B
:103FC00004003067FEF7DEFA054641F28837306FAD
:103FD00010F0020F7FF4CBAEFEF7D4FA411B0320A2
:103FE000B942F4D9C0B201B0F0BD0000034A136871
:103FF00023EA000008431060704700BF0404005823
:10400000411E0020B0EB116F1CBF01207047044A15
:10401000F023516003490B700721906011607047D5
:1040200010E000E023ED00E07047704770470000AB
:1040300090F83C300222012B3DD010B5012380F8CE
:104040003C3080F83D2002685368D2F808C0AD4C7F
:1040500042F4806EA64502BF4C6823F470032343EC
:10406000B2F1804F0C6823F0700343EA04035360FD
:10407000BDE8104014D09D4B9A421CBF9C4B9A4205
:104080000ED09C4B9A421CBF9B4B9A4208D09B4B34
:104090009A421CBF9A4B9A4202D09A4B9A4204D140
:1040A00089682CF08003194391600121002280F877
:1040B0003D1080F83C20D0B2704700BF10B50446D8
:1040C00054B394F83D0028B9002084F83C00204601
:1040D00000F024F80220211D84F83D00206801F042
:1040E0005FFE012084F8480084F83E0084F83F0019
:1040F00084F8400084F8410084F8420084F84300CA
:1041000084F8440084F8450084F8460084F84700A9
:1041100084F83D00002010BD012010BD7CB5044690
:10412000206800F140404FEAB0213948052988BF96
:104130007CBDDFE801F0036C6C4633590168354DF6
:1041400000224FF480634FF4805C4FF4804E4FF4B4
:10415000807641F0010101601621006800F0010045
:10416000019001982C4885E8070005F10C0080E8D3
:104170000C502846C5E907626A62FDF71DFF08B1C9
:10418000FCF76DFE1C20012100222562AC63FEF7C6
:104190006FFA1C20BDE87C40FEF75CBA0168002283
:1041A00041F0100101600121006800F01000019051
:1041B00001983620FEF75CFA3620BDE87C40FEF719
:1041C00049BA0168002241F008010160012100683C
:1041D00000F00800019001983220FEF749FA3220E1
:1041E000BDE87C40FEF736BA0168002241F02001AC
:1041F00001600121006800F0200001900198372043
:10420000FEF736FA3720BDE87C40FEF723BA7CBDC6
:10421000E8440258309E00202800024090F83D10EB
:1042200001291CBF01207047022180F83D10016860
:10423000B1F1804F14D0F74881421CBFF64881424B
:104240000ED02C4881421CBF2B48814208D0F34835
:1042500081421CBF2A48814202D02A48814208D1AB
:104260008868294A02400020062A18BFB2F5803F1C
:1042700004D0086840F0010008600020704700BFCB
:1042800090F83D1001291CBF01207047022180F8E1
:104290003D100168C868B1F1804F40F00100C8606E
:1042A00014D0DC4881421CBFDB4881420ED011484B
:1042B00081421CBF1048814208D0D84881421CBFAF
:1042C0000F48814202D00F48814208D188680E4AC7
:1042D00002400020062A18BFB2F5803F04D00868CB
:1042E00040F0010008600020704700BF000400405B
:1042F00000080040000C0040001800400000014091
:10430000004001400004014007000100016841F243
:1043100011130A6A1A4208D10A6A40F244431A4247
:1043200002BF0A6822F001020A60012180F83D10F4
:1043300000207047016841F21113CA6822F001029F
:10434000CA600A6A1A4208D10A6A40F244431A4211
:1043500002BF0A6822F001020A60012180F83D10C4
:1043600000207047B0B50446022094F83C20012A92
:104370004BD0012284F83C2084F83D0020688268FC
:104380003C4B1A4082600A683B4D8AB3102A2FD0FA
:10439000202A18BF302A2BD0402A3AD0502A43D0A6
:1043A000602A4CD0354B9A4222D0B2F5805F25D09E
:1043B000B2F5005F4ED0B2F5801F18BFB2F1101FEA
:1043C00016D02F4B9A421CBF2E4B9A4210D0702A07
:1043D0001DD1D1E90123C9681A4342EA012182684B
:1043E00022F47F4211438160816841F0770104E04B
:1043F00081682940114341F00701816000200121BB
:1044000084F83D10002184F83C10C0B2B0BD0120FA
:10441000F5E74B68CA68194601F02EFD20688168EF
:10442000294041F04701E8E74B68CA68194601F0A6
:1044300023FD20688168294041F05701DDE74B6882
:10444000CA68194601F029FD20688168294041F0B9
:104450006701D2E7D1E90123C9681A4342EA012181
:10446000826822F47F4211438160816841F4804177
:10447000C3E700BF8800CEFF88FFCFFF40001000D9
:1044800020001000300010002DE9F84F04460D46C2
:10449000002C4CD094F83D0028B9002084F83C0052
:1044A000204600F04BF8022084F83D002068816827
:1044B000214A11408160211D01F072FC2068816851
:1044C000D0F818A0D0F820C0D5E9003ED5E902B751
:1044D000D5E90489D5E9062619432B6A4BEA02225D
:1044E0004FF6FC4581604FF6FF71AA432AEA0101AD
:1044F0003943114341EA062141EA081141EA0331F7
:1045000081612CF0AA0141EA0E0141EA0911016220
:10451000012084F8480084F83E0084F83F0084F8C5
:10452000440084F8450084F83D00002000E00120AC
:1045300001B0BDE8F08F00BFF8BFFEFF10B586B038
:10454000044601A81421FBF7FBFE22682F483049DE
:10455000304B9A4223D0304B9A4235D02F4B9A425F
:1045600052D10A6900F5006042F001020A610A694D
:1045700002F001020092009A0A6842F010020A60FA
:10458000096801F01001009100994FF42061019138
:10459000022102910021CDE90311012130E08A6856
:1045A00042F002028A608A6802F002020092009AD7
:1045B0000A6842F004020A600022096801F004015E
:1045C00000910099C02116E08A6800F5806042F0F1
:1045D00004028A608A6802F004020092009A0A6863
:1045E00042F008020A600022096801F00801009107
:1045F00000994FF44051019102210291CDE903222B
:10460000059101A9FDF7EAFE06B010BD00080258A9
:10461000E04402580004004000080040000001404F
:1046200010B590F83E4090F83F3090F844E090F894
:1046300045C0012204290BD0A9B9012C08BFBEF145
:10464000010F41D1022180F83E1080F844102CE087
:10465000012B08BFBCF1010F36D1022180F83F10B9
:1046600080F845101DE0012C08BF012B2CD1BEF1B4
:10467000010F08BFBCF1010F26D10222002980F8EA
:104680003E2080F83F2080F8442080F845200CD060
:1046900001680A6A22F001020A620A6A42F0010213
:1046A0000A6210216FF0100202E001216FF0010296
:1046B0000068036A1A400262026A11430022016222
:1046C000016841F001010160104610BD7047000013
:1046D000F8B504462068C768066907EA0605A90711
:1046E00014D56FF00201016101212177806910F07A
:1046F000030F03D02046FFF7E9FF05E0204600F056
:1047000085F8204600F083F800202077680715D54B
:1047100020686FF00401016102212177806910F4A3
:10472000407F03D02046FFF7D1FF05E0204600F090
:104730006DF8204600F06BF800202077280715D58B
:1047400020686FF00801016104212177C06910F031
:10475000030F03D02046FFF7B9FF05E0204600F025
:1047600055F8204600F053F800202077E80615D5CC
:1047700020686FF01001016108212177C06910F4F1
:10478000407F03D02046FFF7A1FF05E0204600F060
:104790003DF8204600F03BF800202077E80706D0DF
:1047A00020686FF001010161204600F031F817F038
:1047B000800718BF16F4025005D020681149016126
:1047C0002046FFF732FC47B116F4807005D0206810
:1047D0000D4901612046FFF727FC680606D52068D1
:1047E0006FF040010161204600F0DAF8A80658BFDA
:1047F000F8BD20686FF0200101612046BDE8F84057
:10480000FFF714BC7FDFFFFFFFFEFFFF704770471D
:10481000F8B55549044620680968544E884231D19C
:104820004FF4784172587158B2F5FA4F03D3A1F59D
:10483000FA6201210AE046F6605291420DD84FF427
:104840007841715801F5FA624FF0FF314FF4784327
:10485000F250474A1368194411604FF47841454FAC
:10486000715839808AB27B8893420BD0424D79804F
:104870002846FCF707FE2846FCF7C0FC388103F009
:10488000ADFF20683D490968884229D13268316806
:10489000B2F5FA4F03D3A1F5FA62012108E046F61A
:1048A0006052914209D8316801F5FA624FF0FF3148
:1048B0003260334A13681944116031682D4EB1805B
:1048C0008BB2F2889A420BD02B4DF1802846FCF730
:1048D000D9FD2846FCF792FC308103F057FF206891
:1048E00028490968884227D1274801884A1C274956
:1048F000028092B209888A421ED31E4E1E4DF26873
:104900001144F160002101802846FCF7BBFD2846D8
:10491000FCF774FC308103F089FF1D4D286858B105
:1049200003F0E6FD28681B491B4A013831F91010D5
:1049300052F8200001F0D4F818492068096888422C
:1049400018BFF8BD104C60880130608000F042FC58
:1049500060880A2807D10020608002F0B1FBBDE822
:10496000F84002F05DBDF8BD6C9F002024080040B7
:104970001001002004000020CC9D0020E8A00020B1
:10498000180100209CA000206C01002038000020AD
:104990002001002060CC05240071022450A00020DA
:1049A000704790F88410012901D1022112E02421DE
:1049B000C0F8881002681368116821F0010123F023
:1049C000005311600021416613602022C0F8882046
:1049D00080F88410C8B2704770477047B0B504467D
:1049E00094F88400012801D102201BE0012084F802
:1049F00084002420C4F8880020680568026822F03A
:104A000001020260826822F06062114381602046E8
:104A100001F056FA206805602020C4F888000020C4
:104A200084F88400C0B2B0BDB0B5044694F88400E8
:104A3000012801D102201BE0012084F884002420F9
:104A4000C4F8880020680568026822F0010202604C
:104A5000826822F0604211438160204601F030FA02
:104A6000206805602020C4F88800002084F88400B5
:104A7000C0B2B0BD7047704770470000B0B5044683
:104A800040F62F012068C26902EA01030168D0F8EC
:104A900008E0202B0DD101F020030EF080552B43B0
:104AA00007D0616F002900F0AA812046BDE8B04020
:104AB000084740F60F0313401FBFD14B0B40D14DA9
:104AC0000EEA050C18BF53EA0C0344D0D3070BD0F1
:104AD00011F480731FBF01230362D4F8903043F0B8
:104AE000010318BFC4F890300EF00105930708D5F4
:104AF0003DB102230362D4F8903043F00403C4F8BC
:104B00009030530708D53DB104230362D4F89030A8
:104B100043F00203C4F8903013070DD501F02003D1
:104B200053EA0C031FBF08230362D4F8903043F00C
:104B3000080318BFC4F8903013054ED511F08063F8
:104B40004BD04FF400632546036255F8903F43F085
:104B500020032B6043E002EA0105EB06E36E7CD5FF
:104B6000012B7AD110210162816811F0400F40F0D1
:104B70008680B4F85C10B4F85E20B4F85E30002B88
:104B800000F03D81891A89B209B938E1206850E8FE
:104B9000000F226820F4907042E80003002BF5D14A
:104BA000206850E8020FA84A1040226842E8020339
:104BB000002BF5D12020C4F88C000020E06660674F
:104BC000206850E8000F226820F0100042E800033F
:104BD000002BF5D102202067E2E004F190052B685C
:104BE000002B00F00C8112F020020BD001F020010C
:104BF0000EF0805211431CBF616F002902D0204685
:104C0000884720682968806801F0280100F040008A
:104C1000084374D0204601F051FA2068816811F0F1
:104C2000400F01D126E0206850E8020F216820F0F3
:104C3000400041E80202002AF5D1D4F88000C8B152
:104C400071490165FCF70EFE002800F0D880D4F809
:104C50008000016DBDE8B0400847D30244D51EF482
:104C6000800341D04FF4801101622046BDE8B0407E
:104C7000FFF701BF2046BDE8B040FFF7FDBED4F806
:104C800080100A68614B9A4240D0614B9A421CBF27
:104C9000E54B9A423AD05F4B9A421CBF5E4B9A4218
:104CA00034D05E4B9A421CBF5D4B9A422ED05D4B76
:104CB0009A421CBF5C4B9A4228D05C4B9A421CBF64
:104CC0005B4B9A4222D05B4B9A421CBF5A4B9A4292
:104CD0001CD05A4B9A421CBF594B9A4216D0594B82
:104CE0009A4208BF0A6812E013065ED501F0800CF4
:104CF0000EF4000353EA0C0357D0A16FD2E620460E
:104D0000FFF7BAFE0020C4F8900078E00A68043289
:104D100013689DB2002D72D0B4F85C2095426ED21B
:104D2000A4F85E30C969B1F5807F01D132E0206816
:104D300050E8000F216820F4807041E80002002A4A
:104D4000F5D1206850E8020F216820F0010041E809
:104D50000202002AF5D1206850E8020F216820F0F5
:104D6000400041E80202002AF5D12020C4F88C005E
:104D70000020E066206850E8000F216820F0100055
:104D800041E80002002AF5D1D4F88000FCF7F4FBDA
:104D9000B4F85C2002202067B4F85E00101A81B2DB
:104DA0002046BDE8B040FFF717BE6B060AD41002DC
:104DB0001BD511F0804018D02046BDE8B040FFF769
:104DC00059BE206850E8000F216820F0400041E8FB
:104DD0000002002AF5D12020C4F888000020A06736
:104DE0002046BDE8B04000F0F3B9D00107D5B1F1DD
:104DF000FF3F04DC2046BDE8B040FFF7EEBDB0BD8C
:104E00002001000401000010AD6000081000024005
:104E10002800024058000240700002408800024012
:104E2000A0000240B80002401004024028040240E2
:104E300040040240580402407004024088040240CA
:104E4000B8040240A0040240FEFFFFEF10B5044684
:104E5000D4B1D4F8880028B9002084F88400204612
:104E600000F026F82420C4F888002068016821F0AA
:104E700001010160A06A10B1204601F04FF8204600
:104E800001F046F9012801D1012010BD20684168D8
:104E900021F490414160816821F02A01816001681C
:104EA00041F0010101602046BDE8104001F0A0B8CA
:104EB000F0B5B7B0054632A81421FBF741FA02A8B5
:104EC000C021FBF73DFA2868514C524E52498842A6
:104ED0002BD05249884251D05149884240F09680A7
:104EE000002502A80227039502972095FDF75CFF95
:104EF00008B1FBF7B4FFB06840F40020B060B068C0
:104F000000F4002001900198306840F0010030600A
:104F1000306800F00100019001984FF4C050CDE9D5
:104F20003207CDE93455062022E0002502A80227E9
:104F3000039502972095FDF737FF08B1FBF78FFF28
:104F4000B06840F40030B060B06800F40030019008
:104F50000198306840F001003060306800F00100D6
:104F6000019001980C20CDE932070720CDE9345596
:104F7000369032A92046FDF731FA47E0002701209C
:104F80000397029002A82197FDF70EFF08B1FBF7E7
:104F900066FF306932A940F010003061306900F0DE
:104FA000100001900198306840F0010030603068D6
:104FB00000F00100019001984FF4C060329002208F
:104FC000CDE933070720359736902046FDF706FADE
:104FD000144C15482A2140224FF4806384E887004E
:104FE00004F1140014212361FBF7AAF92046FCF711
:104FF000E3FF08B1FBF733FF252001210022EC6716
:10500000A563FDF735FB2520FDF724FB37B0F0BD88
:1050100000000258E04402580044004000100140E3
:10502000004C0040A89E0020400002402DE9FC47B3
:1050300004469A4617468846D4F88C00202829D181
:10504000B8F1000F4FF0010018BF002F5ED0002014
:105050002221C4F89000C4F88C10E066FDF792FAA3
:10506000A4F85C70A4F85E708146A068A0B1B0F1AD
:10507000805F17D0B0F5805F1AD12669FF204746C0
:10508000002E08BF40F2FF10A4F860001CBF0027EC
:10509000464612E0022039E021697F20002908BF3E
:1050A000FF2006E021693F20002908BF7F2000E0A3
:1050B000002000274646A4F8600085B219E020468B
:1050C000202100224B46CDF800A001F00DFAC8B90E
:1050D0002068002E406A00EA050002D006F8010BA5
:1050E00002E027F8020B0026B4F85E000138A4F8AD
:1050F0005E00B4F85E000028E1D12020C4F88C00E6
:10510000002003E02020C4F88C000320C0B202B0CD
:10511000BDE8F0872DE9F84304461D46174688464A
:10512000D4F8880020281ED1B8F1000F4FF00100FC
:1051300018BF002F49D04FF000092120C4F89090EB
:10514000C4F88800FDF71EFAA4F85470A4F856704D
:105150000646A068B0F5805F07D12769002F0CBF15
:10516000C14647461BE002202FE0474617E0204695
:10517000802100223346009501F0B6F908BB206873
:1051800017B117F8011B04E039F8021B00276FF371
:105190005F218162B4F856000138A4F85600B4F8D3
:1051A00056000028E3D120464021002233460095D6
:1051B00001F09AF920210028C4F8881018BF0320B4
:1051C00003E02020C4F88800032001B0BDE8F0838C
:1051D0007047FEE7B0B5794D2878CF4C02282ED025
:1051E00001285FD0002840F0E78020462021FDF70D
:1051F000BDF9E8B120464021FDF7B8F9C0B120461D
:105200000821FDF7B3F998B120461021FDF7AEF95A
:1052100070B120460221FDF7A9F948B120460421CA
:10522000FDF7A4F920B120468021FDF79FF908B9C8
:10523000012028706248002141600170B0BD204605
:105240002021FDF793F9002800F0B6802046402188
:10525000FDF78CF9002800F0AF8020460821FDF70B
:1052600085F9002800F0A88020461021FDF77EF97E
:10527000002800F0A18020460221FDF777F90028E0
:1052800000F09A8020460421FDF770F9002800F014
:10529000938020468021FDF769F9002800F08C807A
:1052A00000202BE020462021FDF760F940B3204686
:1052B0004021FDF75BF918B320460821FDF756F9A8
:1052C000F0B120461021FDF751F9C8B12046022166
:1052D000FDF74CF9A0B120460421FDF747F978B15C
:1052E00020468021FDF742F950B135490020A880C1
:1052F0000978012902BF0120A870022028705BE014
:1053000020462021FDF732F9F8B120464021FDF773
:105310002DF9E0B120460821FDF728F9C8B1204653
:105320001021FDF723F9B0B120460221FDF71EF947
:1053300098B120460421FDF719F980B1204680215B
:10534000FDF714F968B907200AE0012008E00220FF
:1053500006E0032004E0042002E0052000E006202F
:1053600068701748017809B90121017041684A1C29
:10537000012142604170A988212A08D339B902214C
:10538000A9700021416001700120A880B0BD4B1EB2
:105390009BB2082B06D90A2928BF052A0CD3022163
:1053A000A97048E7112A07D30222AA70002242609E
:1053B0000270481CA880B0BDB0BD00BF64010020D1
:1053C00070010020C1F3045CC1F34061072300EBCE
:1053D000810003FA0CF302FA0CF24169994311437C
:1053E0004161704770B588B001A81C21FAF7A8FF89
:1053F000164C174800250426152120600120C4E919
:105400000255266125756575A06104F12400257794
:10541000FAF796FF2046FBF7F5FE08B1FBF71FFDF4
:105420000C4801A901900620CDE9020540F2FF7069
:10543000CDE90406054806958DF81D50FBF760FD83
:1054400008B1FBF70CFD08B070BD00BFCC9D00207B
:105450000060025802003004E0B50E4800220168E6
:1054600041F0010101600021006800F0010001909D
:1054700001980C20FDF7FCF80C20FDF7EBF80D204F
:1054800000210022FDF7F4F80D20BDE88C40FDF767
:10549000E1B800BFD8440258FEB50020CDE90400B1
:1054A0001C490A6842F080020A600A6802F0800221
:1054B0000092009A0A6842F004020A600A6802F048
:1054C00004020092009A0A6842F001020A600A6827
:1054D00002F001020092009A0A6842F010020A608B
:1054E0000A6802F010020092009A0A6842F008026C
:1054F0000A60096801F0080100910099FE21CDE9D8
:105500000110012001A903900348FCF767FF06B0D2
:1055100080BD00BFE0440258000C025810B58CB0AA
:105520000024144801224FF6FF730294CDE9004491
:10553000114980E8160003A9C0E90334C0E9054415
:10554000CDE90324CDE90524CDE90744CDE90924BB
:105550000B94FEF799FF08B1FBF781FC05486946FB
:10556000CDE900440294FEF763FD08B1FBF777FC38
:105570000CB010BD209F00200000014080B588B015
:10558000174800214FF08042C72340F2E73C0791C3
:10559000CDE90511CDE90311CDE90111C0E90023E1
:1055A000C0E9021C01618161FEF788FD08B1FBF7CB
:1055B00056FC4FF4805004A904900948FEF7D2FE2F
:1055C00008B1FBF74CFC002001A9019003900448AE
:1055D000FEF72EFD08B1FBF742FC08B080BD00BF0E
:1055E0006C9F002010B58CB00024134801224FF6A8
:1055F000FF730294CDE90044104980E8160003A926
:10560000C0E903348461CDE90324CDE90524CDE963
:105610000744CDE909240B94FEF736FF08B1FBF7E8
:105620001EFC0548694600940294FEF701FD08B18E
:10563000FBF715FC0CB010BDB89F00200004004023
:1056400010B58CB00024134801224FF6FF7302946A
:10565000CDE90044104980E8160003A9C0E90334ED
:105660008461CDE90324CDE90524CDE90744CDE9E2
:1056700009240B94FEF708FF08B1FBF7F0FB05487F
:10568000694600940294FEF7D3FC08B1FBF7E7FBF0
:105690000CB010BD04A000200008004080B588B008
:1056A0000021174840F2CF7340F2E73C0791CDE963
:1056B0000511CDE90311CDE90111124AC0E900231A
:1056C000C0E9021C01618161FEF7F8FC08B1FBF73B
:1056D000C6FB4FF4805004A904900948FEF742FE2F
:1056E00008B1FBF7BCFB002001A90190039004481E
:1056F000FEF79EFC08B1FBF7B2FB08B080BD00BF0F
:1057000050A00020000C00401FB500240D4840F2BE
:10571000CF7242F20F730394CDE901440A4980E845
:105720001600C3608461FEF7C9FC08B1FBF797FB64
:10573000044801A901940394FEF77AFC08B1FBF731
:105740008EFB1FBD9CA00020001000401FB5002450
:105750000D48C72240F2E7330394CDE901440B49D9
:1057600080E81600C3608461FEF7A8FC08B1FBF76F
:1057700076FB054801A901940394FEF759FC08B192
:10578000FBF76DFB1FBD00BFE8A000200014004028
:1057900010B5164C16484FF4E13100220C2384E872
:1057A000070004F118001421C4E903226361FAF729
:1057B000C7FD2046FFF74AFB08B1FBF750FB0B483B
:1057C0000021FFF731F908B1FBF749FB0748002139
:1057D000FFF704F908B1FBF742FB0448FFF7E1F8D3
:1057E00018B1BDE81040FBF73ABB10BD5CA2002029
:1057F000004C004010B5CF4C15484FF4E131002269
:105800000C2384E8070004F118001421C4E90322E2
:105810006361FAF795FD2046FFF718FB08B1FBF727
:105820001EFBC4480021FFF7FFF808B1FBF717FB88
:10583000C0480021FFF7D2F808B1FBF710FBBD48C4
:10584000FFF7AFF818B1BDE81040FBF708BB10BD7B
:105850000010014010B5164C16484FF4612100228B
:105860000C2384E8070004F118001421C4E9032282
:105870006361FAF765FD2046FFF7E8FA08B1FBF728
:10588000EEFA0B480021FFF7CFF808B1FBF7E7FA73
:1058900007480021FFF7A2F808B1FBF7E0FA044837
:1058A000FFF77FF818B1BDE81040FBF7D8BA10BD7C
:1058B000C8A1002000440040FEE7FEE7704700005A
:1058C000F8B5854F05460C46B86A00F0030003287A
:1058D00001D1012076E0386820F080603860FCF764
:1058E00051FE0646386810F0006F05D0FCF74AFEFE
:1058F000801B0228F6D962E0B86A29682B1D4FF494
:105900007E46002C20F47C3040EA0130B8620FCB98
:1059100006EB412100F2FF1089B26FF35F2040EAED
:1059200001004FF4FE0101EB024101F4FE0140EAE7
:1059300001004FF0FE4101EB036101F0FE4140EA3E
:105940000100B863F86A696920F0C00040EA01000C
:10595000F862F86AA96920F0200040EA01004FF6D9
:10596000F871F862F86A20F01000F862F86B20EA2B
:105970000100E96940EAC100F863F86A40F01000EC
:10598000F86208D04FF40010012C08BF4FF48010CB
:10599000F96A084302E0F86A40F40020F8623868C7
:1059A00040F080603860FCF7EDFD0446386810F088
:1059B000006F06D1FCF7E6FD001B0328F6D3032099
:1059C00000E00020C0B201B0F0BD00BFF8B5E14F6B
:1059D00005460C46B86A00F00300032801D10120F7
:1059E00076E0386820F080503860FCF7CBFD064642
:1059F000386810F0005F05D0FCF7C4FD801B02285A
:105A0000F6D962E0B86A29682B1D4FF47E46002C57
:105A100020F07C7040EA0150B8620FCB06EB4121C8
:105A200000F2FF1089B26FF35F2040EA01004FF4EB
:105A3000FE0101EB024101F4FE0140EA01004FF0DA
:105A4000FE4101EB036101F0FE4140EA01003864D0
:105A5000F86A696920F4406040EA0100F862F86A77
:105A6000A96920F4007040EA01004FF6F871F8626D
:105A7000F86A20F48070F862786C20EA0100E96925
:105A800040EAC1007864F86A40F48070F86208D097
:105A90004FF08070012C08BF4FF40000F96A0843F2
:105AA00002E0F86A40F48000F862386840F0805004
:105AB0003860FCF767FD0446386810F0005F06D1D7
:105AC000FCF760FD001B0328F6D3032000E0002054
:105AD000C0B201B0F0BD00BF0044025870470000E2
