:020000040800F2
:100000000005002001010008F7160008CF150008C0
:10001000F5160008CF0300086D1A00080000000064
:10002000000000000000000000000000FB160008B7
:10003000D103000800000000F9160008FD160008B2
:100040001B0100081B0100081B0100081B01000820
:100050001B0100081B0100081B0100081B01000810
:100060001B0100081B0100081B0100081B01000800
:100070001B0100081B0100081B0100081B010008F0
:100080001B0100081B0100081B0100081B010008E0
:100090001B0100081B0100081B0100081B010008D0
:1000A0001B0100081B0100081B0100081B010008C0
:1000B00069170008751700081B0100081B010008DC
:1000C0001B0100081B0100081B0100081B010008A0
:1000D0001B010008651A00081B0100081B0100082D
:1000E0001B0100081B0100081B010008DFF80CD0F1
:1000F00000F04CF9004800478D1A00080005002068
:100100000648804706480047FEE7FEE7FEE7FEE7B1
:10011000FEE7FEE7FEE7FEE7FEE7FEE767170008FB
:10012000ED000008D2B201E000F8012B491EFBD21D
:1001300070470022F6E710B513460A4604461946F2
:10014000FFF7F0FF204610BD2DE9FE4F81EA0304C2
:1001500004F0004421F0004100944FF0000B23F024
:10016000004350EA01045ED052EA03045BD0C3F3BB
:100170000A54C1F30A552C44A4F2F3340194A0FBB1
:100180000254C1F3130141F48011C3F3130343F488
:10019000801301FB024400FB034E840A970A44EAE1
:1001A000815447EA8357A4FB076802958D0A05FB33
:1001B00007854FEA932C04FB0C542705029D4FEA58
:1001C000065847EA1637B5EB08056EEB070C870EA5
:1001D000920E47EA811742EA8312A7FB0201B6EBAF
:1001E0000B0164EB00042B0D43EA0C335E1844EB67
:1001F0001C50DA465146E7FB0201C5F313044FEAEF
:100200000B3343EA14534FEA0432019C43EA0603DA
:10021000A4F10C040294009CCDE900B400F067F84E
:1002200003B0BDE8F08F00200146F9E70EB540F2BB
:10023000334102910021CDE900110A460B4600F03E
:1002400056F803B000BD70B5C1F30A5201F0004585
:100250000024C1F3130140F2FF3341F480119A42AC
:1002600001DA002070BD40F233439A42A2F23342D9
:1002700003DC524200F01CF800E090402C43F1D027
:10028000404270BD30B50B460146002020220124BB
:1002900009E021FA02F59D4205D303FA02F5491B54
:1002A00004FA02F52844151EA2F10102F1DC30BD6A
:1002B000202A04DB203A21FA02F00021704721FABB
:1002C00002F3D040C2F12002914008431946704722
:1002D00010B5141E73F1000408DA401C41F100014E
:1002E00092185B411A4301D120F0010010BD2DE9A5
:1002F000F04D92469B4611B1B1FA81F202E0B0FA9C
:1003000080F22032904600F053F804460F4640EA4F
:100310000A0041EA0B0153465A46084313D01146DE
:1003200053EA010019D0C8F140025046FFF7C0FF60
:1003300005460E4650465946424600F039F80843F5
:1003400005D0012004E020463946BDE8F08D0020AC
:10035000054346EAE0762C4337430A986305E40AEE
:10036000A0EB08000022FD0A44EA47540A3002D5F7
:1003700000200146E9E7010510196941DDE908455A
:1003800000196941BDE8F04DA2E70000064C074D99
:1003900006E0E06840F0010394E807009847103455
:1003A000AC42F6D3FFF7A6FE581E0008781E0008E0
:1003B000202A04DB203A00FA02F100207047914025
:1003C000C2F1200320FA03F3194390407047FEE77F
:1003D0007047EFF3108072B6FEE790F82110022903
:1003E00012D1016801230A6822F00E020A600A682D
:1003F00022F001020A60D0E90F1203FA02F24A6009
:10040000002180F8213002E00421816301210022D3
:1004100080F820200846704780B590F82110022906
:100420001DD103684FF0010C196821F00E0119600D
:10043000196821F0010119601A4A1B498B4212D038
:100440001A498B4211D01A498B4210D019498B425C
:1004500010D019498B4210D14FF4803115E004219E
:10046000816301211BE001210FE010210DE04FF419
:1004700080710AE04FF4805107E002F1680E4FF0FE
:100480008071734508BF4FF480111160002180F81E
:1004900021C080F82010426B0AB190470021084625
:1004A00080BD00BF04000240080002401C00024062
:1004B0003000024044000240580002402DE9FE4F47
:1004C000614A04234FF0000B4FF0010C4FF00F0E68
:1004D0004FF0000A4FF00008904200F1140208BFEC
:1004E0000323019200930A6832FA08F308BFBDE8BB
:1004F000FE8F0CFA08F73A4200F0A1804A68032AFE
:1005000016D9112A26D0122A28D0504B9A4213D03D
:100510004F4B9A421CBF4F4B9A420DD04E4B9A42C2
:100520001CBF4E4B9A4207D04D4B9A4204D022E05A
:10053000DFE802F002181B1F8A6842B1012A019A03
:100540004FF0080A08BF00F11002176013E04FF0E7
:10055000040A10E0CA6802F1040A0CE0CA6802F159
:100560000C0A08E0D1F80CA005E0CA6802F1080AFC
:1005700001E04FF0000AB8F1080F0246454628BFD7
:1005800004321368374C28BF2544AE000EFA06F536
:100590000AFA06F6AB4333431360CA79D2064ED546
:1005A0005E4A4FEA98060BF00C090EFA09F513683B
:1005B00043F001031360126802F001020292029BF1
:1005C000294CA4F57E7353F8262022EA050C274A0D
:1005D00090420AD0264A90420AD0264ADDF800E02E
:1005E000904208BF4FF0020E04E04FF0000E01E011
:1005F0004FF0010E0EFA09F24FF00F0E42EA0C0214
:100600004FF0010C43F826204A681B4BA66812F4F1
:10061000801F0CBFBE433E43A66096021E6854BFB7
:10062000BE433E431E609303636854BFBB433B43DA
:10063000D2036360226854BFBA433A4322600BF18D
:10064000040B08F101084EE70014014000001110EE
:1006500000001210000021100000221000003110D4
:1006600000003210F8FFFF3F000401400008014085
:10067000000C0140001001400C0401401B48806840
:10068000704700BF19480178826811448160704743
:1006900080B50748016841F010010160032000F0B7
:1006A00079F80F2000F006F800F022F8002080BD55
:1006B0000020024070B50D4E04464FF47A71307838
:1006C000B1FBF0F092490968B1FBF0F000F010FBCB
:1006D00001250F2C08D838B94FF0FF3021460022F1
:1006E000002500F02BF87460284670BD040000203F
:1006F00082B00A48016841F001010160016801F01F
:10070000010101910199416841F0805141604068C7
:1007100000F080500090009802B07047181002401E
:10072000002808DB00F01F010122400902FA01F154
:10073000014A42F82010704700E100E0B0B5144CC7
:100740001A4D00F00F03B0F1FF3FA3F104032B4457
:1007500003F10C03C8BF03192868C0F30220051D6C
:10076000C41E80F00700072D4FF0010538BF00249C
:10077000042828BF042005FA00F00138084005FAD3
:1007800004F10F31A0401140084300011870B0BDC2
:1007900000E400E005494FF6FF030A681A4060F3E1
:1007A0000A22034810430860704700BF0CED00E0C8
:1007B0000000FA052DE9F04104468846002C00F0BF
:1007C0008880464F4FF48050395801F00701414569
:1007D0000AD2395821F0070141EA08013950385846
:1007E00000F00700404574D1206810F0020F11D0CE
:1007F000410742BF796841F4E0617960010742BF77
:10080000796841F4605179607968A26821F0F0015B
:1008100011437960C00727D06068012804D1396886
:1008200011F4003F08D154E03968022802D189014F
:1008300002D44EE089074CD5796821F003010843C2
:100840007860FFF71BFF064641F2883578686168DB
:1008500000F00C00B0EB810F06D0FFF70FFF801BFC
:10086000A842F3D9032035E04FF48050395801F005
:10087000070141450AD9395821F0070141EA080129
:100880003950385800F00700404522D1206810F058
:10089000040F05D07968E26821F4E06111437960C2
:1008A000000706D57868216920F4605040EAC1004D
:1008B000786000F031F87968094AC1F30311515C9E
:1008C000C8401349086007480068FFF7F3FE00209E
:1008D00000E00120C0B2BDE8F08100BF001002407E
:1008E0003E1E00080800002009480A4A006818490E
:1008F0000968C1F30221515CC8407047FA48054AB3
:100900000068F7490968C1F3C221515CC8407047CB
:10091000100000204E1E00080D490A680D4802F024
:100920000C03082B18BF7047C2F3834C0AA312F4C0
:10093000803F13F80C3002D10C48584370470968C7
:1009400009A25843C1F34041515CB0FBF1F070473C
:100950000410024000127A00020304050607080989
:100960000A0B0C0D0E0F10100102000000093D00D3
:100970002DE9FE4F8246BAF1000F00F065819AF82A
:100980000000D64ED64FC00750D0386800F00C009B
:10099000042819D0386800F00C00082803D1386802
:1009A00010F4803F10D1DAF80400A8B1B0F5803F10
:1009B00006D03168B0F5A02F24D141F480203060FA
:1009C000306840F4803023E0306810F4003F2DD0D0
:1009D000DAF8040050BB37E1306820F48030306032
:1009E000306820F480203060FFF748FE054630680C
:1009F00010F4003F1AD0FFF741FE411B0320642989
:100A0000F5D922E121F480303060306820F4802074
:100A10003060FFF733FE0546306810F4003F05D123
:100A2000FFF72CFE401B6428F6D9EBE09AF8000093
:100A30008007AC48834632D5386810F00C0F1DD0C3
:100A4000386800F00C00082804BF386810F4803FB4
:100A500014D0DAF81000002800F0958001205946E3
:100A60000860FFF70BFE0546306810F0020F0ED14C
:100A7000FFF704FE401B0228F6D9C3E0306810F0EF
:100A8000020F1CBFDAF81000012840F0DD8030684A
:100A9000DAF8141020F0F80040EAC10030609AF84B
:100AA0000000000731D5DAF8180080B1012059465E
:100AB000C1F88004FFF7E2FD0546386A10F0020F26
:100AC00016D1FFF7DBFD401B0228F6D99AE0002083
:100AD0005946C1F88004FFF7D1FD0546386A10F089
:100AE000020F12D0FFF7CAFD401B0228F6D989E099
:100AF0007D484FF4FA510068B0FBF1F0029000BF5E
:100B00000298411E00280291F9D19AF8000040078E
:100B100040F18180B86910F0805F0BD1B8694FF067
:100B2000010840F08050B861B86900F08050019031
:100B3000019801E04FF000086C48305810F4807FB5
:100B400012D16A48315841F480713150FFF796FD57
:100B500005466648305810F4807F05D1FFF78EFDBA
:100B6000401B6428F5D94DE0DAF80C00E8B1012803
:100B700005D0F969052830D141F00400F861F86921
:100B800040F001002FE0002059460860FFF776FD95
:100B90000546306810F0020F3FF481AFFFF76EFD9D
:100BA000411B03200229F4D94FE0F86920F001002D
:100BB000F861F86920F00400F861FFF75FFD054671
:100BC00041F28839F86910F0020F1DD0FFF756FD89
:100BD000411B03204945F5D937E021F00100F861B8
:100BE000F86920F00400F861FFF748FD054641F27E
:100BF0008834F86910F0020F06D1FFF73FFD401B63
:100C0000A042F6D9032020E0B8F1010F02BFB86975
:100C100020F08050B861DAF81C405946002C5AD0B8
:100C2000386800F00C00082813D1012C0CD038686B
:100C3000DAF8201000F480328A4205D1DAF8241064
:100C400000F47010884246D00120C0B203B0BDE865
:100C5000F08F00200866FFF711FD0546022C0AD12F
:100C6000306810F0007F11D0FFF708FD411B032012
:100C70000229F5D9E9E7306810F0007F2BD0FFF7A3
:100C8000FDFC411B03200229F5D9DEE7DAF820003C
:100C9000B0F5803F06D13968DAF8082021F4003138
:100CA00011433960396821F474110843DAF82410CB
:100CB000084338600120CBF86000FFF7DFFC0446F2
:100CC000306810F0007F06D1FFF7D8FC011B03202D
:100CD0000229F5D9B9E70020B7E700BF00100240AC
:100CE0000410024000004242100000200060FEFF9D
:100CF000411E0020B0EB116F1CBF01207047044A59
:100D0000F023516003490B70072190601160704718
:100D100010E000E023ED00E07047704790F83C30B1
:100D20000222012B28D080B5012380F83C3080F8C6
:100D30003D2002685368D2F808C0B2F1804F23F01A
:100D4000700E0B6843EA0E035360BDE8804008D084
:100D5000574B9A421CBF574B9A4202D0564B9A426D
:100D600004D149682CF080031943916001210022CD
:100D700080F83D1080F83C20D0B2704710B5044692
:100D800034B394F83D0028B9002084F83C00204694
:100D900000F020F80220211D84F83D00206800F0BA
:100DA000EFFC012084F8460084F83E0084F83F0000
:100DB00084F8400084F8410084F8420084F843003D
:100DC00084F8440084F8450084F83D00002010BDFC
:100DD000012010BDFEB50021CDE90411CDE90211BD
:100DE00001681E48324A914224D0B1F1804F32D17D
:100DF000416841F001014160416801F00101019148
:100E00000199016841F00401016002A9006800F045
:100E1000040001900198012002900020CDE9030018
:100E20000F48FFF74BFB1C2000210022FFF786FC38
:100E30001C200EE04168002241F0020141600021C7
:100E4000406800F00200019001981D20FFF776FC39
:100E50001D20FFF765FC06B080BD00BF18100240E2
:100E60000008014090F83D1001291CBF0120704787
:100E7000022180F83D100068C168B0F1804F41F058
:100E80000101C16008D00A4988421CBF0949884253
:100E900002D00949884204D1816801F0070106297E
:100EA00003D0016841F0010101600020704700BFDC
:100EB00000040040002C014000080040016841F29D
:100EC0001113CA6822F00102CA600A6A1A4208D1E4
:100ED0000A6A40F244431A4202BF0A6822F0010241
:100EE0000A60012180F83D100020704710B50446CB
:100EF000022094F83C20012A70D001224FF677732B
:100F000084F83C2084F83D00206882689A4382601F
:100F10000A6812B3102A20D0202A18BF302A1CD009
:100F2000402A21D0502A2BD0602A35D0B2F5005F5C
:100F30003ED0B2F5805F4AD0702A51D1D1E9012369
:100F4000C9681A4342EA0121826822F47F421143B0
:100F50008160816841F0770138E0816821F0770194
:100F6000114341F0070131E04B68CA68194600F0AF
:100F700049FC2068816821F0770141F0470125E0B4
:100F80004B68CA68194600F03DFC2068816821F072
:100F9000770141F0570119E04B68CA68194600F023
:100FA00042FC2068816821F0770141F067010DE083
:100FB000D1E90123C9681A4342EA0121826822F477
:100FC0007F4211438160816841F48041816000204B
:100FD000012184F83D10002184F83C10C0B210BDFE
:100FE0000120F5E77047B0B504462068C168026982
:100FF00001EA0205A90714D56FF002010161012180
:101000002177806910F0030F03D02046FFF7EAFF35
:1010100005E0204600F074F8204600F072F8002049
:101020002077680715D520686FF00401016102215F
:101030002177806910F4407F03D02046FFF7D2FF6C
:1010400005E0204600F05CF8204600F05AF8002049
:101050002077280715D520686FF008010161042169
:101060002177C06910F0030F03D02046FFF7BAFFC5
:1010700005E0204600F044F8204600F042F8002049
:101080002077E80615D520686FF01001016108216E
:101090002177C06910F4407F03D02046FFF7A2FFFC
:1010A00005E0204600F02CF8204600F02AF8002049
:1010B0002077E80706D020686FF001010161204623
:1010C00000F020F8280606D520686FF08001016145
:1010D0002046FFF721FE680606D520686FF0400124
:1010E0000161204600F052F8A80658BFB0BD206844
:1010F0006FF0200101612046BDE8B040FFF70DBE52
:101100007047704770B51A490446206809688842DC
:1011100024D1184D2846FFF7D1FE1748174E4CF240
:10112000503301683160726802FB03114900B160FD
:101130000021716001602846FFF794FE0120F060F5
:10114000B068FFF773F80E4A0E4BFEF7FDFFFFF78E
:101150007AF801460CA000F0B1FC20680549096846
:10116000884218BF70BD054841680131416070BDBB
:1011700070000020280000202400004018000020FB
:1011800082734694F606F03F253864007047704736
:1011900070470000F8B5044620680168C2684569D8
:1011A00001F02F0602F02003202E05D123B12046A6
:1011B000BDE8F84000F076BB5FEA017C08D005F09E
:1011C000010E12F4907F8EF0010559D1002D57D0F9
:1011D0001140CA06226B3DD5012A3BD10021009166
:1011E00001680091416800910099416911F0400F38
:1011F00040F0A580A18DE28DE38D002B00F00F81E2
:10120000891A89B209B90AE1206850E8030F2268F7
:1012100020F4907042E80303002BF5D1206850E8D9
:10122000050F226820F0010042E80503002BF5D1EC
:10123000202084F8420000202063206850E8030F3B
:10124000226820F0100042E80303002BF5D10220B1
:101250006063B8E00A0640F1BB8094F84110212990
:1012600040F0DD80A168B1F5805F04BF21690029ED
:1012700000F0C780216A4A1C226209784160C7E0F9
:10128000CE0706D012F480761EBF666C46F00106CB
:10129000666401F00407012686EA97072F4302BF20
:1012A000676C47F00207676401F0020786EA570699
:1012B000354302BF656C45F00405656453EA0E03CF
:1012C00018BF0123BCF1000F05D5012B02BF636CD1
:1012D00043F008036364636C002B00F0A0801140AE
:1012E000890603D5204600F0DDFA20684069616C6C
:1012F00000F0400001F0080108437CD0204600F0D7
:10130000AAFA2068416911F0400F01D16EE020680F
:1013100050E8050F216820F0400041E80502002A4E
:10132000F5D1E06B002861D042494163FFF774F8C2
:10133000002874D0E06B416BBDE8F8400847E26BD1
:1013400011684B689EB2002E69D0A18D8E4266D284
:10135000E3859269202A01D130E0206850E8030F2C
:10136000216820F4807041E80302002AF5D120684A
:1013700050E8050F216820F0010041E80502002A2D
:10138000F5D1206850E8050F216820F0400041E8C1
:101390000502002AF5D1202084F8420000202063B5
:1013A000206850E8030F216820F0100041E8030294
:1013B000002AF5D1E06BFFF710F8A18D02206063E1
:1013C000E08D081A81B22046BDE8F840FFF7DFBE85
:1013D000490624D5C16821F04001C160202084F86D
:1013E00041002046BDE8F84000F0F0B82046BDE8D6
:1013F000F840FFF7CDBE2046FFF7CAFE002060642C
:10140000F8BD216A31F8022B6FF35F22426021623E
:10141000E18C4FF6FF7201391142E18400D0F8BD32
:10142000C16821F08001C160C16841F04001C16024
:10143000F8BD00BF4B18000810B504464CB394F833
:10144000410028B9002084F84000204600F024F82C
:10145000242084F841002068C16821F40051C16053
:10146000204600F085FA2068016921F4904101616D
:10147000416921F02A014161C16841F40051C16014
:1014800000202021606484F8411084F842106063D9
:1014900010BD012010BD000070B586B00026CDE95A
:1014A0000466CDE902661C4C006804F54051884290
:1014B0002FD1524802AD016841F4804101600168BA
:1014C00001F4804101910199016841F0040101603A
:1014D0002946006800F00400019001984FF4007064
:1014E000029002200390032005902046FEF7E6FFBD
:1014F0004FF480602946CDE9020620460496FEF7A7
:10150000DDFF252000210022FFF718F92520FFF735
:1015100007F906B070BD00BF0008014070472DE913
:10152000F84304461D461746884694F84100202893
:101530001CD1B8F1000F4FF0010018BF002F42D0AE
:101540004FF000092120C4F8449084F84100FFF7CF
:1015500095F8A784E7840646A068B0F5805F07D1B8
:101560002769002F0CBFC146474618E002202AE039
:10157000474614E02046802132462B4600F03AFAD6
:10158000E8B9206817B117F8011B04E039F8021B0D
:1015900000276FF35F214160E08C0138E084E08C2C
:1015A0000028E7D12046402132462B4600F022FA9F
:1015B0002021002884F8411018BF032003E02020D8
:1015C00084F84100032001B0BDE8F0837047FEE7D6
:1015D00082B00A48016841F020010160016801F011
:1015E000200101910199016841F004010160006846
:1015F00000F004000090009802B0704718100240FC
:1016000010B586B05A4800244FF080414CF2503259
:10161000CDE90444CDE90244CDE90044C0E9001419
:10162000C0E9024204618461FFF7A8FB08B1FEF73C
:10163000D0FE4FF4005002A9CDE902044C48CDE998
:101640000444FFF753FC08B1FEF7C3FE00206946CF
:10165000CDE900004648FFF761FB08B1FEF7B9FE8F
:1016600006B010BDFEB50021444840F2CF234CF235
:101670004F3CCDE90411CDE90211CDE900115F4ADB
:10168000C0E90023C0E9021C01618161FFF776FB1C
:1016900008B1FEF79EFE4FF4805002A90290374831
:1016A000FFF724FC08B1FEF794FE00206946CDE95F
:1016B00000003248FFF732FB08B1FEF78AFE06B0A1
:1016C00080BD00BF80B5F048C9494FF4E132002326
:1016D0004FF00C0C80E80E00C0E90333C0E905C3ED
:1016E000C361FFF7A9FE18B1BDE88040FEF771BEE7
:1016F00080BD00BFFEE7FEE770477047FEF7C2BF40
:10170000B0B590B0002401A81421CDE90B44CDE977
:101710000944FEF70EFD01204FF4803102250690AA
:10172000CDE907140A904FF4E010CDE90D510F9068
:1017300006A8FFF71DF918B1EFF3108072B6FEE7A7
:101740000F200221CDE901054FF480600394CDE91B
:10175000040401A8FFF72EF818B1EFF3108072B659
:10176000FEE710B0B0BD7047D248FFF73CBC00BFE9
:1017700028000020D048FFF736BC00BF70000020D2
:1017800010B503681C4AB0F1804F08D01B4CA04232
:101790001CBF194CA04202D0194CA04203D14C6886
:1017A00023F070032343B0F1804F08D0134CA042C4
:1017B0001CBF114CA04202D0114CA04203D1CC68F6
:1017C00023F4407323434C6923F08003904243EA9F
:1017D000040303608B68C3620B68836204BF0969FA
:1017E000116301214161016911F0010F1EBF0169FF
:1017F00021F00101016110BD002C014000040040F6
:1018000000080040D0F820C0036A23F001030362FF
:10181000836923F0F00343EA021282612CF00A028A
:10182000114301627047D0F820C0036A23F010030F
:101830000362836923F4704343EA023282612CF02D
:10184000A00242EA011101627047406A0021C1858D
:10185000C184FFF79DBC016851E8031F026821F4B1
:10186000907142E80313002BF5D1016851E8051F80
:10187000026821F0010142E80513002BF5D1016B4C
:10188000012909D1016851E8031F026821F0100104
:1018900042E80313002BF5D1202180F842100021EB
:1018A0000163704790F84210222918BF704783687F
:1018B000B3F5805F06D1026900F12801A2B1D1F829
:1018C00000C008E00146002B51F828CF01D1036980
:1018D0000BB17F2300E0FF23026852681A40012306
:1018E0008CF800200A6806E00368826A5B686FF380
:1018F0005F23138002231A440A604FF6FF72C18DE2
:1019000001391142C18500D070470168CA6822F0D0
:101910002002CA60CA6822F48072CA604A6922F052
:1019200001024A61202280F8422000224263036BB8
:10193000012B18BFFFF7F2BD026351E8031F0268D5
:1019400021F0100142E803130168002BF5D10A6869
:1019500012F0100F08D081B0002200920A680092A5
:1019600049680091009901B0818DFFF710BC00001B
:1019700010B5044620680169E26821F44051114322
:1019800041F20C620161D4F808C0D4E904E3C168F3
:1019900091434EEA0C021A431143C1604169A269A6
:1019A00021F44071114341611149884202D0FEF790
:1019B0009BFF01E0FEF7A2FF19214843D4E9001282
:1019C0006FF063049200B0FBF2F06422B0FBF2F31C
:1019D00003FB0400322404EB0010B0FBF2F000F033
:1019E000F00200F00F0002EB03121043886010BDFC
:1019F000003801402DE9FC4104461D4690460F4643
:101A000020686E1C01683940B94226D0002EF9D0FA
:101A1000FEF734FE03210DB3A0EB0800A8421DD849
:101A20002068C16811F0040F18BF402FEAD0802F42
:101A30001CBF016811F0080FE4D000250195016872
:101A400001914068019001982046FFF704FF0820AB
:101A50000121606484F8405000E00021C8B202B067
:101A6000BDE8F0810848FFF795BB00BFFEE7000026
:101A7000E0B50190044801A901224FF6FF73FFF77A
:101A80004EFD019802B080BDB800002080B5FEF781
:101A9000FFFDFFF735FEFFF79BFDFFF7B1FDFFF7F9
:101AA000E1FDFFF70FFE0348FFF7DCF90248FFF7FF
:101AB000D9F9FEE728000020700000200FB4054B84
:101AC00010B503A9044A029800F018F810BC5DF89C
:101AD00014FB0000711A00080000002002E008C892
:101AE000121F08C1002AFAD170477047002001E098
:101AF00001C1121F002AFBD1704700002DE9FF4FE2
:101B00008BB088460546002606E025280BD0DDE987
:101B10000D1290476D1C761C28780028F5D10FB067
:101B20003046BDE8F08F0024A146A2460122AE490E
:101B300000E0044315F8013F203B02FA03F008429D
:101B4000F7D128782A2810D06FF02F022878A0F13A
:101B50003001092915D809EB890102EB410144F054
:101B6000020400EB01096D1CF0E758F8041B5FEA62
:101B7000010903D544F40054C9F1000944F00204FA
:101B80006D1C28782E2817D115F8010F44F0040495
:101B90002A280ED06FF02F022878A0F130010929F1
:101BA0000AD80AEB8A0102EB410100EB010A6D1C25
:101BB000F2E758F804AB6D1C28786C280FD006DCCF
:101BC0004C2817D068280DD06A2814D104E0742856
:101BD00010D07A280FD10DE044F400140AE044F448
:101BE000801401E044F440146978814202D104F584
:101BF00080146D1C6D1C2878692865D006DC0028CF
:101C00008DD0632827D0642806D15DE06E2808D0E7
:101C100073282AD0752877D0DDE90D129047761CFD
:101C2000E0E0C4F30250022809D003280DD0D8F810
:101C3000001004280DD00E6008F10408D2E0D8F896
:101C40000010F217C1E90062F6E7D8F800100E8024
:101C5000F2E70E70F0E718F8041B8DF80010002072
:101C60008DF80100EB46012003E058F804BB4FF06B
:101C7000FF3061074FF0000701D40AE07F1C574591
:101C80000DDA8742FADB1BF807100029F6D106E0CF
:101C90007F1C8742FCDB1BF807100029F8D1DDE927
:101CA0000D23A9EB07008146214600F0B1F830442E
:101CB000C61904E0DDE90D121BF8010B90477F1EE9
:101CC000F8D22146484688E058F8040BC4F3025184
:101CD0004FF00A0B032900D100B2042900D140B211
:101CE000002802DA40422D2102E0210505D52B21F2
:101CF0008DF82410012104E006E0E10710D0202136
:101D0000F6E708AF089113E058F8040BC4F302514A
:101D10004FF00A0B032900D180B2042900D1C0B2D0
:101D20000021EEE75946FEF7ADFA303107F8011D04
:101D30000028F7D1ADEB070000F1200B600702D5BA
:101D400024F4803401E04FF0010ADA4502DDAAEB09
:101D50000B0000E00020824600EB0B0108980144D4
:101D6000A9EB01000A90E00306D4DDE90D2321462A
:101D70000A9800F04DF806444FF0000908E009A960
:101D800011F80900DDE90D12904709F10109761CEF
:101D900008998945F3DBE0030CD5DDE90D232146E5
:101DA0000A9800F035F8064404E0DDE90D12302011
:101DB0009047761CBAF10001AAF1010AF5DC05E0B2
:101DC000DDE90D1217F8010B9047761CBBF10001FD
:101DD000ABF1010BF4DC0A982146DDE90D2300F09C
:101DE00005F806446D1C97E6092801002DE9F0412D
:101DF000044600251E461746880404D405E03946EB
:101E00002020B0476D1C641EF9D52846BDE8F0813E
:101E10002DE9F041044600251E469046C80301D531
:101E2000302700E02027880404D505E041463846E5
:101E3000B0476D1C641EF9D52846BDE8F08100004E
:101E4000000000000000010203040607080900006A
:101E50000000010203040000781E000800000020BA
:101E600018000000DC1A0008901E0008180000206E
:101E7000E8040000EC1A0008000000000100000067
:101E8000100000000000000000127A0000000000B6
:04000005080000ED02
:00000001FF
