:020000040800F2
:100000009804002001010008410E00083D0E000880
:100010003F0E00080F020008A70F000800000000B4
:10002000000000000000000000000000450E000875
:100030001102000800000000430E0008470E0008EF
:100040001B0100081B0100081B0100081B01000820
:100050001B0100081B0100081B0100081B01000810
:100060001B0100081B0100081B0100081B01000800
:100070001B0100081B0100081B0100081B010008F0
:100080001B0100081B0100081B0100081B010008E0
:100090001B0100081B0100081B0100081B010008D0
:1000A0001B0100081B0100081B0100081B010008C0
:1000B0001B0100081B0100081B0100081B010008B0
:1000C0001B0100081B0100081B0100081B010008A0
:1000D0001B0100081B0100081B0100081B01000890
:1000E0001B0100081B0100081B010008DFF80CD0F1
:1000F00000F05CF800480047C50F00089804002095
:100100000648804706480047FEE7FEE7FEE7FEE7B1
:10011000FEE7FEE7FEE7FEE7FEE7FEE7B10E0008BA
:10012000ED000008D2B201E000F8012B491EFBD21D
:1001300070470022F6E710B513460A4604461946F2
:10014000FFF7F0FF204610BD2DE9F05F05460020C7
:1001500092469B4688460646814640241BE0284638
:1001600041464746224600F042F853465A46C01AD6
:10017000914110D311461846224600F029F82D1A55
:1001800067EB01084F4622460120002100F020F8CD
:1001900017EB00094E41201EA4F10104DFDC4846A4
:1001A00031462A464346BDE8F09F0000064C074D05
:1001B00006E0E06840F0010394E807009847103437
:1001C000AC42F6D3FFF796FF0C1400082C1400087D
:1001D000202A04DB203A00FA02F100207047914007
:1001E000C2F1200320FA03F3194390407047202AFC
:1001F00004DB203A21FA02F00021704721FA02F3D1
:10020000D040C2F120029140084319467047FEE7F2
:10021000704700002A48016811F0100F01D1002139
:1002200005E08449CA6942F00202CA6110210268ED
:1002300012F0040F06D07F4A41F00401D36943F065
:100240000103D361026912F0010F08D0794AD36922
:1002500043F00403D361026922F0010202610160EC
:10026000704700BF70B5044600F0E4F90546661C0F
:100270001348016811F0010F09D0002EF8D024B105
:1002800000F0D8F9401BA042F2D9032014E0016825
:1002900011F0200F1CBF20210160016811F0100F28
:1002A00007D1016911F0010F04BF006810F0040FBD
:1002B00004D0FFF7AFFF0120C0B270BD0020FBE704
:1002C0000C2002402DE9F8435A4E05468946307EFF
:1002D000012801D1022021E0012030764CF250307B
:1002E0002C68FFF7BFFF544F022C13D198B90020A0
:1002F000F061386840F004003860386840F0400031
:1003000038604CF25030FFF7ADFF396821F004013E
:10031000396001E030B1012000213176C0B201B076
:10032000BDE8F0834FF0FF304FF00008C9F800003F
:100330000120A9680C4618E0C6F81C80386840F017
:10034000020038607C60386840F0400038604CF251
:100350005030FFF787FF3968002821F0020139602B
:1003600009D1A96804F580640020EA6801EB8221C4
:100370008C42E1D3D0E7C9F80040CDE72E480168B0
:1003800041F0800101600020704700BF2DE9F84F67
:10039000DFF8A08081461C4692460E4698F8180069
:1003A000012801D1022042E0012088F818004CF217
:1003B0005030FFF757FFB8BBB9F1020F4F466FF04F
:1003C0001F0B18BF0427B9F1010F08BF4F464FF0AC
:1003D00000095FFA89F0874225D900210201C8F897
:1003E0001C102AFA02F2144D296841F0010129601B
:1003F0002021A1EB001104FA01F111430BEB0012D3
:10040000002AA8BF24FA02F126F810104CF250304E
:10041000FFF728FF296809F10109002821F00101EF
:100420002960D6D000E00020002188F8181001B023
:10043000BDE8F08F78000020102002400748C16816
:1004400011F0800F04BF0020704705490160054985
:100450000160C068C0F3C010704700BF04200240B4
:1004600023016745AB89EFCD2DE9FE4F614A042397
:100470004FF0000B4FF0010C4FF00F0E4FF0000A41
:100480004FF00008904200F1140208BF03230192CC
:1004900000930A6832FA08F308BFBDE8FE8F0CFA31
:1004A00008F73A4200F0A1804A68032A16D9112AB7
:1004B00026D0122A28D0504B9A4213D04F4B9A4242
:1004C0001CBF4F4B9A420DD04E4B9A421CBF4E4B15
:1004D0009A4207D04D4B9A4204D022E0DFE802F066
:1004E00002181B1F8A6842B1012A019A4FF0080ABC
:1004F00008BF00F11002176013E04FF0040A10E08B
:10050000CA6802F1040A0CE0CA6802F10C0A08E0A9
:10051000D1F80CA005E0CA6802F1080A01E04FF02A
:10052000000AB8F1080F0246454628BF0432136896
:10053000374C28BF2544AE000EFA06F50AFA06F637
:10054000AB4333431360CA79D2064ED5644A4FEAAF
:1005500098060BF00C090EFA09F5136843F0010335
:100560001360126802F001020292029B294CA4F56A
:100570007E7353F8262022EA050C274A90420AD0BF
:10058000264A90420AD0264ADDF800E0904208BF91
:100590004FF0020E04E04FF0000E01E04FF0010EAC
:1005A0000EFA09F24FF00F0E42EA0C024FF0010C66
:1005B00043F826204A681B4BA66812F4801F0CBF24
:1005C000BE433E43A66096021E6854BFBE433E43F0
:1005D0001E609303636854BFBB433B43D203636015
:1005E000226854BFBA433A4322600BF1040B08F16E
:1005F00001084EE700140140000011100000121025
:100600000000211000002210000031100000321004
:10061000F8FFFF3F0004014000080140000C0140CA
:10062000001001400C040140002A08BF09040161C8
:10063000704700001B488068704700BF1948017868
:10064000826811448160704780B50748016841F0B5
:1006500010010160032000F073F8002000F006F89C
:1006600000F022F8002080BD0020024070B50D4E41
:1006700004464FF47A713078B1FBF0F08F49096885
:10068000B1FBF0F000F00AFB01250F2C08D838B9B7
:100690004FF0FF3021460022002500F025F874605D
:1006A000284670BD6800002082B00D480222016813
:1006B00041F001010160016801F00101019101991E
:1006C000416841F080514160406800F080500090E6
:1006D00000980448016862F31A61016002B0704733
:1006E0001810024004000140B0B5144C1A4D00F03F
:1006F0000F03B0F1FF3FA3F104032B4403F10C03FC
:10070000C8BF03192868C0F30220051DC41E80F06D
:100710000700072D4FF0010538BF0024042828BF2B
:10072000042005FA00F00138084005FA04F10F3101
:10073000A0401140084300011870B0BD00E400E083
:1007400005494FF6FF030A681A4060F30A2203487E
:1007500010430860704700BF0CED00E00000FA0590
:100760002DE9F04104468846002C00F08880464F71
:100770004FF48050395801F0070141450AD23958E9
:1007800021F0070141EA08013950385800F007000C
:10079000404574D1206810F0020F11D0410742BFCC
:1007A000796841F4E0617960010742BF796841F4FA
:1007B000605179607968A26821F0F0011143796095
:1007C000C00727D06068012804D1396811F4003FC0
:1007D00008D154E03968022802D1890102D44EE0E0
:1007E00089074CD5796821F0030108437860FFF749
:1007F00021FF064641F288357868616800F00C00F8
:10080000B0EB810F06D0FFF715FF801BA842F3D98C
:10081000032035E04FF48050395801F0070141457D
:100820000AD9395821F0070141EA080139503858EE
:1008300000F00700404522D1206810F0040F05D0D9
:100840007968E26821F4E06111437960000706D518
:100850007868216920F4605040EAC100786000F0B7
:1008600031F87968094AC1F30311515CC840134952
:10087000086007480068FFF7F9FE002000E001204B
:10088000C0B2BDE8F08100BF00100240F4130008C0
:100890006C00002009480A4A006818490968C1F339
:1008A0000221515CC8407047FA48054A0068F74980
:1008B0000968C1F3C221515CC84070477400002030
:1008C000041400080D490A680D4802F00C03082BB7
:1008D00018BF7047C2F3834C0AA312F4803F13F889
:1008E0000C3002D10C4858437047096809A258439C
:1008F000C1F34041515CB0FBF1F07047041002407D
:1009000000127A0002030405060708090A0B0C0D01
:100910000E0F10100102000000093D002DE9FE4FEE
:100920008246BAF1000F00F065819AF80000D64EB9
:10093000D64FC00750D0386800F00C00042819D0FA
:10094000386800F00C00082803D1386810F4803FA4
:1009500010D1DAF80400A8B1B0F5803F06D03168B4
:10096000B0F5A02F24D141F480203060306840F4ED
:10097000803023E0306810F4003F2DD0DAF8040016
:1009800050BB37E1306820F480303060306820F4AC
:1009900080203060FFF74EFE0546306810F4003FBF
:1009A0001AD0FFF747FE411B03206429F5D922E145
:1009B00021F480303060306820F480203060FFF710
:1009C00039FE0546306810F4003F05D1FFF732FECE
:1009D000401B6428F6D9EBE09AF800008007AC4889
:1009E000834632D5386810F00C0F1DD0386800F0FF
:1009F0000C00082804BF386810F4803F14D0DAF8DF
:100A00001000002800F09580012059460860FFF78B
:100A100011FE0546306810F0020F0ED1FFF70AFEF6
:100A2000401B0228F6D9C3E0306810F0020F1CBF4B
:100A3000DAF81000012840F0DD803068DAF8141090
:100A400020F0F80040EAC10030609AF8000000078A
:100A500031D5DAF8180080B101205946C1F8800478
:100A6000FFF7E8FD0546386A10F0020F16D1FFF7D0
:100A7000E1FD401B0228F6D99AE000205946C1F852
:100A80008004FFF7D7FD0546386A10F0020F12D038
:100A9000FFF7D0FD401B0228F6D989E07D484FF4CE
:100AA000FA510068B0FBF1F0029000BF0298411EBD
:100AB00000280291F9D19AF80000400740F18180A6
:100AC000B86910F0805F0BD1B8694FF0010840F0B1
:100AD0008050B861B86900F080500190019801E041
:100AE0004FF000086C48305810F4807F12D16A48EB
:100AF000315841F480713150FFF79CFD054666483E
:100B0000305810F4807F05D1FFF794FD401B642816
:100B1000F5D94DE0DAF80C00E8B1012805D0F96903
:100B2000052830D141F00400F861F86940F0010077
:100B30002FE0002059460860FFF77CFD054630682D
:100B400010F0020F3FF481AFFFF774FD411B03204B
:100B50000229F4D94FE0F86920F00100F861F86942
:100B600020F00400F861FFF765FD054641F2883981
:100B7000F86910F0020F1DD0FFF75CFD411B032048
:100B80004945F5D937E021F00100F861F86920F016
:100B90000400F861FFF74EFD054641F28834F8691C
:100BA00010F0020F06D1FFF745FD401BA042F6D919
:100BB000032020E0B8F1010F02BFB86920F0805097
:100BC000B861DAF81C405946002C5AD0386800F059
:100BD0000C00082813D1012C0CD03868DAF820104A
:100BE00000F480328A4205D1DAF8241000F4701043
:100BF000884246D00120C0B203B0BDE8F08F00208B
:100C00000866FFF717FD0546022C0AD1306810F080
:100C1000007F11D0FFF70EFD411B03200229F5D9FB
:100C2000E9E7306810F0007F2BD0FFF703FD411B90
:100C300003200229F5D9DEE7DAF82000B0F5803F7D
:100C400006D13968DAF8082021F4003111433960FF
:100C5000396821F474110843DAF824100843386025
:100C60000120CBF86000FFF7E5FC0446306810F087
:100C7000007F06D1FFF7DEFC011B03200229F5D916
:100C8000B9E70020B7E700BF00100240041002409F
:100C900000004242740000200060FEFF411E002060
:100CA000B0EB116F1CBF01207047044AF023516064
:100CB00003490B70072190601160704710E000E05D
:100CC00023ED00E010B504464CB394F8410028B978
:100CD000002084F84000204600F024F8242084F806
:100CE00041002068C16821F40051C160204600F035
:100CF000E1F82068016921F490410161416921F026
:100D00002A014161C16841F40051C16000202021E5
:100D1000606484F8411084F84210606310BD0120C3
:100D200010BD000070B586B00026CDE90466CDE99F
:100D30000266D84C006804F54051884227D1D44857
:100D400002AD016841F480410160016801F4804115
:100D500001910199016841F0040101602946006890
:100D600000F00400019001984FF4007002900220FE
:100D70000390032005902046FFF776FB4FF4806038
:100D80002946CDE9020620460496FFF76DFB06B022
:100D900070BD00BF2DE9F84304461D46174688463E
:100DA00094F8410020281CD1B8F1000F4FF0010049
:100DB00018BF002F3ED04FF000092120C4F8449006
:100DC00084F84100FFF736FCA784E7840646A06854
:100DD000B0F5805F07D12769002F0CBFC146474699
:100DE00018E0022026E0474614E0204680213246E3
:100DF0002B4600F0A1F8B8B9206817B117F8011B0D
:100E000004E039F8021B00276FF35F214160E08C9A
:100E10000138E084E08C0028E7D1204640213246AA
:100E20002B4600F089F808B1032003E0202084F865
:100E300041000020C0B201B0BDE8F083FEE7FEE74C
:100E4000FEE770477047FFF7F9BBB0B590B00024DC
:100E500001A81421CDE90B44CDE90944FFF769F954
:100E600001204FF4803102250690CDE907140A9045
:100E70004FF4E010CDE90D510F9006A8FFF74EFD9D
:100E800018B1EFF3108072B6FEE70F200221CDE912
:100E900001054FF480600394CDE9040401A8FFF735
:100EA0005FFC18B1EFF3108072B6FEE710B0B0BD72
:100EB0007047000010B5044620680169E26821F41B
:100EC0004051114341F20C620161D4F808C0D4E9E9
:100ED00004E3C16891434EEA0C021A431143C16016
:100EE0004169A26921F4407111434161114988426D
:100EF00002D0FFF7CFFC01E0FFF7D6FC19214843F1
:100F0000D4E900126FF063049200B0FBF2F06422A7
:100F1000B0FBF2F303FB0400322404EB0010B0FB3F
:100F2000F2F000F0F00200F00F0002EB03121043A9
:100F3000886010BD003801402DE9F0411D46904603
:100F40000F4604466E1C206800683840B84226D020
:100F5000002EF8D02DB1FFF76DFBA0EB0800A842E2
:100F6000F1D9206850E8030F216820F4D07041E8DF
:100F70000302002AF5D1206850E8050F216820F00F
:100F8000010041E80502002AF5D1202084F8410043
:100F900084F84200002084F84000032000E0002094
:100FA000C0B2BDE8F081FEE7E0B501903A4801A982
:100FB00001224FF0FF331030FFF7ECFE019802B032
:100FC00080BD00BF7FB5FFF73FFBFFF73EFF304816
:100FD000002201260025016841F02001016001681E
:100FE00001F0200100910099016841F004010160C5
:100FF0000121006800F0040000900098254C204674
:10100000FFF712FB0220CDE90066029569460390C6
:101010002046FFF729FA204804F540510C2240F8F9
:10102000101F4FF4E131C0E90115C0E90355C0E9D3
:101030000525C561FFF746FE18B1EFF3108072B6C3
:10104000FEE7FFF7FBF90095EFF3108072B66946F3
:101050001148FFF737F910B910A000F0B9F962B6DE
:10106000114C02204FF0553200232146FFF78EF934
:1010700022680EA52146284600F02AF8D4F800245C
:1010800004F58061284600F023F8FFF777F9FEE7C2
:10109000181002400008014010000020B2C1B3FD4A
:1010A00020B3C9B9A60D000000700008617420616A
:1010B0006464726573733A307825782C20726561A8
:1010C000642076616C75653A307825780D0A0000E9
:1010D0000FB4054B10B503A9044A029800F018F8A4
:1010E00010BC5DF814FB0000A90F000800000020F0
:1010F00002E008C8121F08C1002AFAD170477047E1
:10110000002001E001C1121F002AFBD1704700003E
:101110002DE9FF4F8DB09B460F460446002606E0A2
:1011200025280BD05A460F999047641C761C2078CE
:101130000028F5D111B03046BDE8F08F0025A84653
:101140000122984900E0054314F8013F203B02FAD0
:1011500003F00842F7D120782E2817D114F8010F98
:1011600045F004052A280ED06FF02F022078A0F158
:10117000300109290AD808EB880102EB410100EB94
:101180000108641CF2E757F8048B641C20786C2873
:101190000DD004DC4C2812D06A2811D104E0742848
:1011A0000DD07A280CD10AE045F4001507E06178EB
:1011B00045F48015814202D1641C05F58015641C3C
:1011C0002278692A45D008DC002AB3D0582A69D091
:1011D000632A10D0642A08D13BE0702A67D0732AB2
:1011E00013D0752A5CD0782A5CD010465A460F99E5
:1011F0009047761CD3E017F8040B8DF80000002010
:101200008DF80100E946012003E057F8049B4FF0F8
:10121000FF3069074FF0000501D40AE06D1C454519
:101220000DDA8542FADB19F805100029F6D106E03F
:101230006D1C8542FCDB19F805100029F8D12E44FD
:1012400004E019F8010B5A460F9990476D1EF8D229
:10125000A5E00A200021CDE90801C5F302500228CB
:101260000DD001CFC117031E71F100030DDA4FF04D
:10127000000CD0EB0C006CEB01012D2308E0FF1DEE
:1012800027F00707F7E80201EDE72B0504D52B232C
:101290008DF8283001233BE0EB0739D02023F7E716
:1012A0000A2000E010200021CDE9080107E010200D
:1012B000002145F00405CDE908014FF00808C5F309
:1012C000025002280FD001CF00214FF0000A2B0757
:1012D0001FD5702A0DD0DDE908C38CF0100C5CEA34
:1012E000030C0CD015E0FF1D27F00707F7E80201FB
:1012F000EBE740228DF828204FF0010A0BE050EA7E
:10130000010306D030238DF828308DF829200223E0
:101310009A46582A04D024A20DF120090B9209E024
:1013200026A2F9E7DDE90823FEF70EFF0B9B9B5C85
:1013300009F8013D50EA0102F4D1ADEB090020307B
:101340000890680701D44FF001080899884502DD2C
:10135000A8EB010000E000208046002506E00AA876
:101360005A46405D0F9990476D1C761C5545F6DB3B
:1013700004E030205A460F999047761CB8F10001DE
:10138000A8F10108F5DC05E019F8010B5A460F99A0
:101390009047761C0899481E08900029F4DC641CCC
:1013A000C5E60000092801003031323334353637C4
:1013B00038396162636465660000000030313233A1
:1013C0003435363738394142434445460000000041
:1013D00010B5044601E0FFF7E7FD14F8010B0449DE
:1013E0000028F8D1BDE810400A20FFF7DDBD00005D
:1013F00000000020000000000000000001020304C3
:101400000607080900000000010203043014000868
:101410000000002078000000F0100008A814000868
:1014200078000020200400000011000800000000E7
:1014300000000000000000000000000000000000AC
:101440000000000000000000007000080100000023
:10145000000000000000000000000000000000008C
:10146000000000000000000000000000000000007C
:10147000000000000000000000000000000000006C
:10148000000000000000000000000000000000005C
:10149000000000000000000001000000100000003B
:0814A000000000000024F4002C
:04000005080000ED02
:00000001FF
